:100000000C9464280C94177B0C94EC7A0C94C17AB1
:100010000C94967A0C946B7A0C94407A0C94157A22
:100020000C94EA790C9495280C9495280C949528B6
:100030000C9495280C9495280C9495280C9495284C
:100040000C9495280C9495280C9495280C9495283C
:100050000C9495280C9495280C9495280C94A079D0
:100060000C9495280C94CC7B0C94A27B0C94952832
:100070000C9495280C9495280C9495280C9495280C
:100080000C9495280C9495280C9495280C949528FC
:100090000C9495280C9495280C9495280C949528EC
:1000A0000C9495280C9495280C9495280C949528DC
:1000B0000C9495280C9495280C9495280C949528CC
:1000C0000C9495280C9495280C9495280C949528BC
:1000D0000C9495280C9495280C946C7B0C94427B82
:1000E0000C9495280C94EE2A0C9447380C9498297B
:1000F0000C945A290C94A72A0C9415320C94E533CD
:100100000C948E350C9401320C945C2D0C94E238D6
:100110000C94F7310C948A2B0C94722D0C942A3D7C
:100120000C9455350C940C2B0C94573D0C94DF2AF1
:100130000C94C7380C948E2A0C94A2290C94E734A2
:100140000C941A410C947D2D0C94BE290C94953B73
:100150000C94392C0C94D52A0C94462D0C94BD2962
:100160000C9416360C94862C0C940B320C94073598
:100170000C94F82A0C94F1330C94B12A0C94AE3DF3
:100180000C94F5330C945F420C94C62B0C943637C8
:100190000C94E3330C9433350C94AC3C0C94103435
:1001A0000C948B290C945A3C0C94932A0C94992B04
:1001B0000C94B92A0C94C2290C9429320C94D5338E
:1001C0000C94B4290C94F72B0C94A6290C94832935
:1001D0000C948F290C9492290C9478330C94162B40
:1001E0000C94513B0C94583A0C94E92B0C94C12A72
:1001F0000C945E290C94B0290C94F9330C940934B6
:100200000C94323B0C947B3B0C94783C0C94AA29C4
:100210000C94022B0C949C290C9487290C94D52BBC
:100220000C94892B0C94B8290C94E8330C94214637
:100230000C94EB3D0C94862A0C94D9330C942536FF
:100240000C94F0330C945D910C94202B0C94013A97
:100250000C945C380C947D290C94A7400C941F32AC
:100260000C949D2A0C94CB2A0C94CB7C00407A10E1
:10027000F35A00A0724E18090010A5D4E80000E857
:100280007648170000E40B54020000CA9A3B0000B5
:1002900000E1F505000080969800000040420F0044
:1002A0000000A08601000000102700000000E80305
:1002B000000000006400000000000A0000000000D0
:1002C0000100000000002C76D888DC674F0823DF8F
:1002D000C1DFAE59E1B1B796E5E3E453C63AE65162
:1002E000997696E8E6C28426EB898C9B62ED407C89
:1002F0006FFCEFBC9C9F40F2BAA56FA5F490055A25
:100300002AF75C936B6CF9676DC11BFCE0E40D4749
:10031000FEF520E6B500D0ED902E0300943577056C
:100320000080841E080000204E0A000000C80C3324
:100330003333330F986E12831141EF8D2114893BB3
:10034000E65516CFFEE6DB18D1844B381BF77C1D33
:10035000901DA4BBE424203284725E228100C9F186
:1003600024ECA1E53D27343034204E6F7420466FD5
:10037000756E6400436F6E6E656374696F6E3A20CC
:10038000636C6F736500436F6E74656E742D547982
:1003900070653A20746578742F706C61696E0048DE
:1003A0005454502F312E3120343034204E6F74206D
:1003B000466F756E64003C2F74626F64793E3C2F0B
:1003C0007461626C653E3C2F74643E3C2F74723ED7
:1003D0003C2F7461626C653E3C2F6469763E3C2F15
:1003E0006469763E3C2F626F64793E3C2F68746D81
:1003F0006C3E003C2F74643E3C2F74723E00222CF5
:10040000656E636F6465555249436F6D706F6E65BD
:100410006E7428746869732E76616C756529292756
:100420003E0027206F6E6368616E67653D277365C8
:100430006E64436F6D6D616E642822616C696173D7
:100440005F647331386232305F00272076616C75EB
:10045000653D270027206E616D653D27616C6961F0
:10046000735F647331386232305F00273E3C2F7413
:10047000643E3C74643E3C696E707574207479709F
:10048000653D277465787427206D61786C656E67AB
:1004900074683D273330272069643D27616C6961AA
:1004A000735F647331386232305F003C2F74643E96
:1004B0003C74642069643D27647331386232305F74
:1004C00074656D7000273E003C2F74643E3C74647C
:1004D0002069643D27647331386232305F736E0087
:1004E0003C74723E3C74643E445331384232302D89
:1004F000003C2F74626F64793E3C2F7461626C65BE
:100500003E3C2F74643E3C74642077696474683D9B
:1005100027353025273E3C68333E312D57697265BB
:100520002053656E736F72732044533138423230FA
:100530003C2F68333E3C7461626C6520636C617370
:10054000733D276F6E65776972652D7461626C65A6
:10055000272069643D276473313862323054616208
:100560006C65273E3C74626F64793E003C2F746476
:100570003E3C2F74723E00222C656E636F6465559D
:100580005249436F6D706F6E656E7428746869733D
:100590002E76616C75652929273E0027206F6E63D2
:1005A00068616E67653D2773656E64436F6D6D614D
:1005B0006E642822616C6961735F6473323433380E
:1005C0005F00272076616C75653D270027206E61EE
:1005D0006D653D27616C6961735F647332343338D4
:1005E0005F00273E3C2F74643E3C74643E3C696E61
:1005F00070757420747970653D2774657874272050
:100600006D61786C656E6774683D273330272069AB
:10061000643D27616C6961735F6473323433385FA2
:1006200000273E3C2F74643E3C74642069643D277F
:100630006473323433385F7673656E7300273E3CE3
:100640002F74643E3C74642069643D2764733234C3
:1006500033385F766164003C2F74643E3C746420E0
:1006600069643D276473323433385F74656D70009C
:10067000273E003C2F74643E3C74642069643D272F
:100680006473323433385F736E003C74723E3C7472
:10069000643E4453323433382D003C646976207311
:1006A00074796C653D27626F726465723A31707857
:1006B00020736F6C696420236363633B6D617267B1
:1006C000696E2D626F74746F6D3A313070783B27AC
:1006D0003E3C7461626C6520636C6173733D276F8F
:1006E00075746572273E3C74723E3C746420776971
:1006F0006474683D27353025273E3C68333E312DF4
:10070000576972652053656E736F7273204453325C
:100710003433383C2F68333E3C7461626C6520632F
:100720006C6173733D276F6E65776972652D7461B7
:10073000626C65272069643D276473323433385412
:1007400061626C65273E3C74626F64793E003C2FA9
:100750007461626C653E3C2F74643E3C2F74723E43
:100760003C2F7461626C653E3C2F6469763E003CB0
:100770002F74643E3C2F74723E00222C656E636FB2
:100780006465555249436F6D706F6E656E74287461
:100790006869732E76616C75652929273E002720CC
:1007A0006F6E6368616E67653D2773656E64436F46
:1007B0006D6D616E642822616C6961735F616E6149
:1007C0004F75745F00272076616C75653D270027A3
:1007D000206E616D653D27616C6961735F616E615B
:1007E0004F75745F0056293C2F74643E3C74643E20
:1007F0003C696E70757420747970653D27746578F6
:100800007427206D61786C656E6774683D2733309E
:10081000272069643D27616C6961735F616E614F78
:1008200075745F00273E28003C2F74643E3C74645E
:100830002069643D27616E614F7574566F6C7461F9
:10084000676500222C746869732E76616C75652962
:10085000273E0027206F6E6368616E67653D2773D2
:10086000656E64436F6D6D616E642822616E614FC9
:1008700075740027206D696E3D273027206D6178E3
:100880003D27323535272076616C75653D27002779
:10089000206E616D653D27616E614F7574003C2F60
:1008A00074643E3C74643E3C696E70757420747967
:1008B00070653D276E756D626572272069643D27FE
:1008C000616E614F7574003C74723E3C74643E41CD
:1008D0004F20003C2F74626F64793E3C2F7461623C
:1008E0006C653E3C2F74643E3C746420776964748C
:1008F000683D27353025273E3C68333E416E616CAC
:100900006F67204F7574707574732028302D3235E1
:1009100035203D20302D313056293C2F68333E3C68
:100920007461626C6520636C6173733D27696E6EE0
:100930006572273E003C2F74643E3C2F74723E006B
:10094000222C656E636F6465555249436F6D706FFD
:100950006E656E7428746869732E76616C7565298E
:1009600029273E0027206F6E6368616E67653D270B
:1009700073656E64436F6D6D616E642822616C698E
:1009800061735F616E61496E7075745F00272076D8
:10099000616C75653D270027206E616D653D27619F
:1009A0006C6961735F616E61496E7075745F003C64
:1009B0002F74643E3C74643E3C696E7075742074A0
:1009C0007970653D277465787427206D61786C6552
:1009D0006E6774683D273330272069643D27616C5A
:1009E0006961735F616E61496E7075745F00273E67
:1009F000003C2F74643E3C74642069643D27616947
:100A00005F737461747573003C74723E3C74643E31
:100A1000414920003C646976207374796C653D27F8
:100A2000626F726465723A31707820736F6C6964BA
:100A300020236363633B6D617267696E2D626F741F
:100A4000746F6D3A313070783B273E3C7461626C54
:100A50006520636C6173733D276F75746572273E03
:100A60003C74723E3C74642077696474683D273539
:100A70003025273E3C68333E416E616C6F672049EC
:100A80006E707574732028302D31303234203D2043
:100A9000302D313056293C2F68333E3C7461626CF6
:100AA0006520636C6173733D27696E6E65722720E4
:100AB00069643D27616E61496E707574735461623B
:100AC0006C65273E3C74626F64793E003C2F746213
:100AD0006F64793E3C2F7461626C653E3C2F746498
:100AE0003E3C2F74723E3C2F7461626C653E3C2F1D
:100AF0006469763E003C2F74643E3C2F74723E0065
:100B0000222C656E636F6465555249436F6D706F3B
:100B10006E656E7428746869732E76616C756529CC
:100B200029273E0027206F6E6368616E67653D2749
:100B300073656E64436F6D6D616E642822616C69CC
:100B400061735F646967496E7075745F0027207612
:100B5000616C75653D270027206E616D653D2761DD
:100B60006C6961735F646967496E7075745F003C9E
:100B70002F74643E3C74643E3C696E7075742074DE
:100B80007970653D277465787427206D61786C6590
:100B90006E6774683D273330272069643D27616C98
:100BA0006961735F646967496E7075745F00273EA1
:100BB000003C2F74643E3C74642069643D27646982
:100BC0005F737461747573003C74723E3C74643E70
:100BD000444920003C2F74626F64793E3C2F74615D
:100BE000626C653E3C2F74643E3C7464207769649B
:100BF00074683D27353025273E3C683320636C619F
:100C000073733D276469672D696E707574732D74F5
:100C100069746C65273E4469676974616C20496E2C
:100C2000707574732031332D32343C2F68333E3C61
:100C30007461626C6520636C6173733D27696E6ECD
:100C40006572272069643D27646967496E70757411
:100C5000735461626C6532273E3C74626F64793E06
:100C6000003C2F74643E3C2F74723E00222C656E53
:100C7000636F6465555249436F6D706F6E656E7436
:100C800028746869732E76616C75652929273E0082
:100C900027206F6E6368616E67653D2773656E64BC
:100CA000436F6D6D616E642822616C6961735F646E
:100CB0006967496E7075745F00272076616C756591
:100CC0003D270027206E616D653D27616C6961736A
:100CD0005F646967496E7075745F003C2F74643E91
:100CE0003C74643E3C696E70757420747970653D27
:100CF000277465787427206D61786C656E677468F9
:100D00003D273330272069643D27616C6961735F3B
:100D1000646967496E7075745F00273E003C2F74EC
:100D2000643E3C74642069643D2764695F73746148
:100D3000747573003C74723E3C74643E44492000F8
:100D40003C646976207374796C653D27626F7264C8
:100D500065723A31707820736F6C69642023636325
:100D6000633B6D617267696E2D626F74746F6D3A6B
:100D7000313070783B273E3C7461626C6520636C57
:100D80006173733D276F75746572273E3C74723EC4
:100D90003C74642077696474683D27353025273EAC
:100DA0003C683320636C6173733D276469672D6908
:100DB0006E707574732D7469746C65273E44696731
:100DC0006974616C20496E7075747320312D3132F5
:100DD0003C2F68333E3C7461626C6520636C6173C8
:100DE000733D27696E6E6572272069643D276469CB
:100DF00067496E707574735461626C6531273E3C4F
:100E000074626F64793E003C2F7461626C653E3C95
:100E10002F74643E3C2F74723E3C2F7461626C658B
:100E20003E3C2F74643E3C2F74723E3C2F746162D2
:100E30006C653E3C2F6469763E003C2F74643E3CFA
:100E40002F74723E00222C656E636F6465555249A3
:100E5000436F6D706F6E656E7428746869732E765B
:100E6000616C75652929273E0027206F6E636861D4
:100E70006E67653D2773656E64436F6D6D616E646B
:100E80002822616C6961735F6C73735F0027207641
:100E9000616C75653D270027206E616D653D27619A
:100EA0006C6961735F6C73735F003C2F74643E3CCC
:100EB00074643E3C696E70757420747970653D276A
:100EC0007465787427206D61786C656E6774683D11
:100ED000273330272069643D27616C6961735F6C3B
:100EE00073735F002D00222C746869732E76616C19
:100EF000756529273E0027206F6E6368616E676500
:100F00003D2773656E64436F6D6D616E6428226C5E
:100F100073730027206D696E3D273027206D61783F
:100F20003D27323535272076616C75653D270027D2
:100F3000206E616D653D276C737350574D003C69A1
:100F40006E70757420747970653D276E756D62657D
:100F500072272069643D276C737350574D003E3CE7
:100F60002F74643E3C74643E0020636865636B6567
:100F70006400222C746869732E636865636B656412
:100F80003F3235353A3029270027206F6E6368617C
:100F90006E67653D2773656E64436F6D6D616E644A
:100FA00028226C73730027206E616D653D276C737A
:100FB00073003C2F74643E3C74643E3C696E7075F3
:100FC0007420747970653D27636865636B626F7820
:100FD000272069643D276C7373003C74723E3C7437
:100FE000643E4C535320003C2F7461626C653E3C60
:100FF0002F74643E3C2F74723E3C74723E3C7464A9
:101000003E3C68333E4C6F772D53696465205377BF
:101010006974636865732053746174757320283034
:101020002D323535203D20302D562B293C2F68336D
:101030003E3C7461626C6520636C6173733D27692B
:101040006E6E6572273E003C2F74643E3C2F7472B6
:101050003E00222C656E636F6465555249436F6D87
:10106000706F6E656E7428746869732E76616C7526
:10107000652929273E0027206F6E6368616E6765CA
:101080003D2773656E64436F6D6D616E64282261E8
:101090006C6961735F6873735F00272076616C759C
:1010A000653D270027206E616D653D27616C696194
:1010B000735F6873735F003C2F74643E3C74643EDE
:1010C0003C696E70757420747970653D277465781D
:1010D0007427206D61786C656E6774683D273330C6
:1010E000272069643D27616C6961735F6873735F72
:1010F00000222C746869732E76616C756529273E11
:101100000027206F6E6368616E67653D2773656EAB
:1011100064436F6D6D616E642822687373002720CD
:101120006D696E3D273027206D61783D273235355A
:10113000272076616C75653D270027206E616D65FF
:101140003D2768737350574D003E3C2F74643E3CFE
:1011500074643E3C696E70757420747970653D27C7
:101160006E756D626572272069643D2768737350E0
:10117000574D0020636865636B656400222C7468BA
:1011800069732E636865636B65643F3235353A3049
:1011900029270027206F6E6368616E67653D27739E
:1011A000656E64436F6D6D616E64282268737300B1
:1011B00027206E616D653D27687373003C2F746452
:1011C0003E3C74643E3C696E707574207479706541
:1011D0003D27636865636B626F78272069643D27EC
:1011E000687373003C74723E3C74643E48535320F1
:1011F000003C7461626C6520636C6173733D2769A8
:101200006E6E6572273E3C74723E3C74643E3C6870
:10121000333E486967682D53696465205377697464
:1012200063686573205374617475732028302D32A0
:101230003535203D20302D562B293C2F68333E3C40
:101240007461626C6520636C6173733D27696E6EB7
:101250006572273E003C2F7461626C653E3C2F74C2
:10126000643E3C74642077696474683D273530259A
:10127000273E003C2F74643E3C2F74723E00222CAB
:10128000656E636F6465555249436F6D706F6E652F
:101290006E7428746869732E76616C7565292927C8
:1012A0003E0027206F6E6368616E67653D2773653A
:1012B0006E64436F6D6D616E642822616C69617349
:1012C0005F72656C61795F00272076616C75653DA2
:1012D000270027206E616D653D27616C6961735F32
:1012E00072656C61795F003E3C2F74643E3C7464AF
:1012F0003E3C696E70757420747970653D27746525
:10130000787427206D61786C656E6774683D27334B
:1013100030272069643D27616C6961735F72656C79
:1013200061795F0020636865636B656400222C74DB
:101330006869732E636865636B65643F313A302971
:10134000270027206F6E6368616E67653D277365B0
:101350006E64436F6D6D616E64282272656C617995
:101360000027206E616D653D2772656C6179003CD8
:101370002F74643E3C74643E3C696E7075742074D6
:101380007970653D27636865636B626F78272069B4
:10139000643D2772656C6179003C74723E3C7464F4
:1013A0003E52656C617920003C64697620737479E3
:1013B0006C653D27626F726465723A317078207394
:1013C0006F6C696420236363633B6D617267696E50
:1013D0002D626F74746F6D3A313070783B273E3CEC
:1013E0007461626C6520636C6173733D276F757403
:1013F0006572273E3C74723E3C7464207769647465
:10140000683D27353025273E3C68333E52656C6188
:1014100079205374617475733C2F68333E3C74615A
:10142000626C6520636C6173733D27696E6E6572D3
:10143000273E003E4F6E3C2F6F7074696F6E3E3CCE
:101440002F73656C6563743E3C2F74643E3C2F744F
:10145000723E3C2F7461626C653E3C2F74643E3C6E
:101460002F74723E3C2F7461626C653E3C2F646940
:10147000763E0073656C6563746564003E4F666616
:101480003C2F6F7074696F6E3E3C6F7074696F6E45
:101490002076616C75653D273127200073656C658A
:1014A00063746564003C6F7074696F6E2076616C64
:1014B00075653D27302720003E4F6E3C2F6F7074BE
:1014C000696F6E3E3C2F73656C6563743E3C2F7490
:1014D000643E3C2F74723E3C74723E3C74643E53D6
:1014E000657269616C204465627567202831313509
:1014F000323030204264293C2F74643E3C74643E98
:101500003C73656C6563742069643D27646562752E
:1015100067456E61626C656427206F6E6368616EFB
:1015200067653D2773656E64436F6D6D616E6428FA
:10153000226465627567456E61626C6564222C7415
:101540006869732E76616C756529273E0073656C3A
:101550006563746564003E4F66663C2F6F70746906
:101560006F6E3E3C6F7074696F6E2076616C75654E
:101570003D273127200073656C6563746564003C0A
:101580006F7074696F6E2076616C75653D273027CA
:1015900020003E4F6E3C2F6F7074696F6E3E3C2F83
:1015A00073656C6563743E3C2F74643E3C2F7472AB
:1015B0003E3C74723E3C74643E4C414E2D5253345A
:1015C000383520476174657761793C2F74643E3CFF
:1015D00074643E3C73656C6563742069643D276781
:1015E000617465776179456E61626C656427206F0F
:1015F0006E6368616E67653D2773656E64436F6DEA
:101600006D616E64282267617465776179456E61EA
:10161000626C6564222C746869732E76616C7565E2
:1016200029273E0073656C6563746564003E4F66F0
:10163000663C2F6F7074696F6E3E3C6F7074696F9B
:101640006E2076616C75653D273127200073656CCF
:101650006563746564003C6F7074696F6E207661B9
:101660006C75653D27302720003E5544503C2F6F58
:101670007074696F6E3E3C2F73656C6563743E3C9D
:101680002F74643E3C2F74723E3C74723E3C746412
:101690003E50756C7365732053656E73696E672079
:1016A0002844492031302C31312C3132293C2F74DF
:1016B000643E3C74643E3C73656C6563742069648D
:1016C0003D2770756C73654F6E27206F6E63686180
:1016D0006E67653D2773656E64436F6D6D616E6403
:1016E000282270756C73654F6E222C746869732E96
:1016F00076616C756529273E0073656C656374655A
:1017000064003E4D6F64627573205443503C2F6FEC
:101710007074696F6E3E3C6F7074696F6E20766195
:101720006C75653D273127200073656C65637465B2
:1017300064003C6F7074696F6E2076616C75653DF6
:1017400027302720003C74723E3C74643E4F757411
:101750007075747320636F6E74726F6C2070726F2B
:10176000746F636F6C3C2F74643E3C74643E3C73D6
:10177000656C6563742069643D27757365554450D5
:101780006374726C27206F6E6368616E67653D27B6
:1017900073656E64436F6D6D616E64282275736549
:1017A0005544506374726C222C746869732E766190
:1017B0006C756529273E0027206F6E6368616E6730
:1017C000653D2773656E64436F6D6D616E6428229D
:1017D0006261756452617465222C746869732E7637
:1017E000616C756529273E2042643C2F74643E3C41
:1017F0002F74723E0027206F6E6368616E67653DCF
:101800002773656E64436F6D6D616E642822636833
:1018100065636B496E74657276616C222C746869BD
:10182000732E76616C756529273E206D733C2F748D
:10183000643E3C2F74723E3C74723E3C74643E5273
:1018400053343835204261756420526174653C2FF1
:1018500074643E3C74643E3C696E707574207479A7
:1018600070653D276E756D626572272069643D273E
:10187000626175645261746527207374796C653D8B
:101880002777696474683A383070783B272076612E
:101890006C75653D270027206F6E6368616E676514
:1018A0003D2773656E64436F6D6D616E64282270B1
:1018B000756C736553656E644379636C65222C7433
:1018C0006869732E76616C756529273E206D733CBF
:1018D0002F74643E3C2F74723E3C74723E3C7464C0
:1018E0003E50696E672044484350204379636C65DD
:1018F0003C2F74643E3C74643E3C696E7075742089
:10190000747970653D276E756D6265722720696414
:101910003D27636865636B496E74657276616C27F9
:10192000206D696E3D273230303027206D61783D63
:101930002736303030303027207374796C653D277E
:1019400077696474683A383070783B272076616C28
:1019500075653D270027206F6E6368616E67653D82
:101960002773656E64436F6D6D616E642822616ECE
:1019700061496E7075744379636C65222C74686973
:10198000732E76616C756529273E206D733C2F742C
:10199000643E3C2F74723E3C74723E3C74643E5014
:1019A000756C7365732053656E64204379636C6551
:1019B0003C2F74643E3C74643E3C696E70757420C8
:1019C000747970653D276E756D6265722720696454
:1019D0003D2770756C736553656E644379636C6500
:1019E00027206D696E3D273230303027206D6178B9
:1019F0003D2736303030303027207374796C653DA8
:101A00002777696474683A383070783B27207661AC
:101A10006C75653D270027206F6E6368616E676592
:101A20003D2773656E64436F6D6D616E6428226F30
:101A30006E65576972654379636C65222C746869B9
:101A4000732E76616C756529273E206D733C2F746B
:101A5000643E3C2F74723E3C74723E3C74643E4162
:101A60006E616C6F6720496E707574204379636C8A
:101A7000653C2F74643E3C74643E3C696E707574C2
:101A800020747970653D276E756D626572272069D7
:101A9000643D27616E61496E7075744379636C654E
:101AA00027206D696E3D273230303027206D6178F8
:101AB0003D2736303030303027207374796C653DE7
:101AC0002777696474683A383070783B27207661EC
:101AD0006C75653D27003C2F74643E3C2F74723E4C
:101AE0003C2F7461626C653E3C2F74643E3C7464B0
:101AF0002077696474683D27353025273E3C68337C
:101B00003E4F746865722073657474696E67733CC8
:101B10002F68333E3C7461626C6520636C61737343
:101B20003D276F746865722D73657474696E677391
:101B30002D7461626C65273E3C74723E3C74643E59
:101B4000312D57697265204379636C653C2F74644D
:101B50003E3C74643E3C696E7075742074797065A7
:101B60003D276E756D626572272069643D276F6E33
:101B700065576972654379636C6527206D696E3DB1
:101B8000273530303027206D61783D2736303030B2
:101B9000303027207374796C653D277769647468E9
:101BA0003A383070783B272076616C75653D2700A8
:101BB0003C2F74643E3C2F74723E3C74723E3C7405
:101BC000643E4669726D77617265207665727369ED
:101BD0006F6E3C2F74643E3C74643E0027206F6E31
:101BE0006368616E67653D2773656E64436F6D6DF5
:101BF000616E64282273657269616C4E756D6265F1
:101C000072222C746869732E76616C756529273E83
:101C10003C2F74643E3C2F74723E3C74723E3C74A4
:101C2000643E48617264776172652076657273699B
:101C30006F6E3C2F74643E3C74643E0027206F6ED0
:101C40006368616E67653D2773656E64436F6D6D94
:101C5000616E6428226465736372697074696F6E63
:101C6000222C746869732E76616C756529273E3C59
:101C70002F74643E3C2F74723E3C74723E3C74641C
:101C80003E53657269616C204E756D6265723C2FC2
:101C900074643E3C74643E3C696E70757420747963
:101CA00070653D2774657874272069643D277365E6
:101CB0007269616C4E756D62657227206D61786C1A
:101CC000656E6774683D273330272076616C7565D3
:101CD0003D27003C2F74643E3C2F74723E3C74726E
:101CE0003E3C74643E4465736372697074696F6EE0
:101CF0003C2F74643E3C74643E3C696E7075742085
:101D0000747970653D2774657874272069643D2770
:101D10006465736372697074696F6E27206D617892
:101D20006C656E6774683D273330272076616C756B
:101D3000653D27003A0030003C2F74643E3C2F7410
:101D4000723E3C74723E3C74643E4D41432041649B
:101D500064726573733C2F74643E3C74643E003C53
:101D60002F74643E3C2F74723E3C74723E3C74642B
:101D70003E476174657761793C2F74643E3C7464BE
:101D80003E003C2F74643E3C2F74723E3C74723EA5
:101D90003C74643E4950204164647265737320282A
:101DA00044484350293C2F74643E3C74643E003CDC
:101DB000646976207374796C653D27626F7264651F
:101DC000723A31707820736F6C69642023636363A7
:101DD0003B6D617267696E2D626F74746F6D3A311D
:101DE0003070783B273E3C7461626C6520636C61A7
:101DF00073733D276F75746572273E3C74723E3C69
:101E000074642077696474683D27353025273E3C2B
:101E100068333E426173696320496E666F726D611B
:101E200074696F6E3C2F68333E3C7461626C652050
:101E3000636C6173733D2762617369632D696E66BC
:101E40006F2D7461626C65273E3C74723E3C746415
:101E50003E4449502053776974636820416464723A
:101E60006573733C2F74643E3C74643E003C626F47
:101E700064793E3C64697620636C6173733D2763CB
:101E80006F6E7461696E6572273E3C64697620638B
:101E90006C6173733D2772657365742D627574741C
:101EA0006F6E273E3C696E70757420747970653D65
:101EB00027627574746F6E27206F6E636C69636B35
:101EC0003D2277696E646F772E6C6F636174696F02
:101ED0006E2E687265663D272F696E666F27222019
:101EE00076616C75653D275669657720446F63732D
:101EF000273E3C696E70757420747970653D276269
:101F00007574746F6E27206F6E636C69636B3D220E
:101F1000696628636F6E6669726D2827546865204C
:101F20006D6F64756C652077696C6C207265626F8B
:101F30006F742E20436F6E74696E75653F27292973
:101F40002077696E646F772E6C6F636174696F6E52
:101F50002E687265663D272F7265626F6F74272247
:101F60002076616C75653D27536176652652656202
:101F70006F6F74273E3C2F6469763E3C68323E5258
:101F800061696C6475696E6F20436F6E74726F6CFB
:101F90002050616E656C3C2F68323E003C2F7363AD
:101FA000726970743E3C2F686561643E0066756EB0
:101FB0006374696F6E2073656E64436F6D6D616EDF
:101FC0006428706172616D2C76616C7565297B691E
:101FD0006628706172616D2E7374617274735769D3
:101FE0007468282768737327297C7C706172616D1F
:101FF0002E7374617274735769746828276C7373D5
:1020000027292970656E64696E67436F6D6D616E17
:1020100064735B706172616D5D3D747275653B6682
:102020006574636828272F636F6D6D616E643F2749
:102030002B706172616D2B273D272B76616C756566
:10204000292E7468656E28726573706F6E73653DB6
:102050003E726573706F6E73652E7465787428298F
:10206000292E7468656E28646174613D3E7B6966E3
:1020700028706172616D2E73746172747357697424
:1020800068282768737327297C7C706172616D2EC4
:102090007374617274735769746828276C7373273B
:1020A000292964656C6574652070656E64696E6766
:1020B000436F6D6D616E64735B706172616D5D3BEA
:1020C00075706461746553746174757328293B7D00
:1020D000293B7D646F63756D656E742E6164644524
:1020E00076656E744C697374656E65722827444F0B
:1020F0004D436F6E74656E744C6F61646564272C1C
:10210000757064617465537461747573293B0066FE
:102110006F72286C657420693D303B693C64617462
:10212000612E616C6961735F6473323433382E6C75
:10213000656E6774683B692B2B297B6C6574206125
:102140006C696173496E7075743D646F63756D651C
:102150006E742E676574456C656D656E7442794961
:10216000642827616C6961735F6473323433385F4C
:10217000272B28692B3129293B696628616C696105
:1021800073496E70757429616C696173496E7075FD
:10219000742E76616C75653D646174612E616C6945
:1021A00061735F6473323433385B695D7C7C2727ED
:1021B0003B7D666F72286C657420693D303B693CDD
:1021C000646174612E616C6961735F64733138623C
:1021D00032302E6C656E6774683B692B2B297B6CE3
:1021E000657420616C696173496E7075743D646FCC
:1021F00063756D656E742E676574456C656D656E8F
:1022000074427949642827616C6961735F64733132
:10221000386232305F272B28692B3129293B6966C8
:1022200028616C696173496E70757429616C6961AC
:1022300073496E7075742E76616C75653D6461745A
:10224000612E616C6961735F647331386232305B37
:10225000695D7C7C27273B7D6C65742064656275B5
:1022600067456E61626C65643D646F63756D656E34
:10227000742E676574456C656D656E74427949644A
:1022800028276465627567456E61626C65642729FD
:102290003B6966286465627567456E61626C65645A
:1022A000296465627567456E61626C65642E76614E
:1022B0006C75653D646174612E6465627567456E19
:1022C00061626C65642E746F537472696E6728293D
:1022D0003B6C65742073657269616C4E756D6265E7
:1022E00072496E7075743D646F63756D656E742EA2
:1022F000676574456C656D656E744279496428271D
:1023000073657269616C4E756D62657227293B69F0
:10231000662873657269616C4E756D626572496E8F
:102320007075742973657269616C4E756D62657242
:10233000496E7075742E76616C75653D646174616B
:102340002E73657269616C4E756D6265727C7C2757
:10235000273B69662873657269616C4E756D6265AD
:1023600072496E707574297B696628646174612E88
:1023700073657269616C4C6F636B65642973657218
:1023800069616C4E756D626572496E7075742E630D
:102390006C6173734C6973742E61646428276E6F6B
:1023A0002D626F7264657227293B656C73652073BB
:1023B000657269616C4E756D626572496E70757497
:1023C0002E636C6173734C6973742E72656D6F76D6
:1023D0006528276E6F2D626F7264657227293B7DB9
:1023E00066697273745570646174653D66616C737F
:1023F000653B7D7D293B7D003B692B2B297B6C65F3
:102400007420616C696173496E7075743D646F63AB
:10241000756D656E742E676574456C656D656E745B
:10242000427949642827616C6961735F616F5F2736
:102430002B28692B3129293B696628616C696173F6
:10244000496E70757429616C696173496E70757439
:102450002E76616C75653D646174612E616C696195
:10246000735F616E614F7574735B695D7C7C272758
:102470003B7D00666F72286C657420693D303B6956
:102480003C003B692B2B297B6C657420616C696176
:1024900073496E7075743D646F63756D656E742EEF
:1024A000676574456C656D656E744279496428276B
:1024B000616C6961735F6C73735F272B28692B31C3
:1024C00029293B696628616C696173496E7075746E
:1024D00029616C696173496E7075742E76616C75D3
:1024E000653D646174612E616C6961735F6C7373C7
:1024F0005B695D7C7C27273B7D00666F72286C657D
:102500007420693D303B693C003B692B2B297B6C77
:10251000657420616C696173496E7075743D646F98
:1025200063756D656E742E676574456C656D656E5B
:1025300074427949642827616C6961735F687373B9
:102540005F272B28692B3129293B696628616C6933
:102550006173496E70757429616C696173496E703D
:1025600075742E76616C75653D646174612E616C65
:102570006961735F6873735B695D7C7C27273B7D52
:1025800000666F72286C657420693D303B693C00C1
:102590003B692B2B297B6C657420616C69617349E5
:1025A0006E7075743D646F63756D656E742E6765CE
:1025B00074456C656D656E74427949642827616C59
:1025C0006961735F72656C61795F272B28692B31B4
:1025D00029293B696628616C696173496E7075745D
:1025E00029616C696173496E7075742E76616C75C2
:1025F000653D646174612E616C6961735F72656CC5
:102600006179735B695D7C7C27273B7D00666F7217
:10261000286C657420693D303B693C003B692B2B7D
:10262000297B6C657420616E614F75743D646F63C6
:10263000756D656E742E676574456C656D656E7439
:10264000427949642827616E614F75745F272B2892
:10265000692B3129293B696628616E614F757429A0
:10266000616E614F75742E76616C75653D64617441
:10267000612E616E614F7574735B695D7C7C303B6C
:102680006C657420616E614F7574566F6C74616710
:10269000653D646F63756D656E742E676574456C1A
:1026A000656D656E74427949642827616E614F7566
:1026B00074566F6C74616765272B28692B31292943
:1026C0003B696628616E614F7574566F6C74616703
:1026D0006529616E614F7574566F6C746167652E04
:1026E00074657874436F6E74656E743D2728272B6C
:1026F000646174612E616E614F757473566F6C7492
:102700006167655B695D2E746F4669786564283121
:10271000292B275629273B7D00666F72286C65742C
:1027200020693D303B693C006966286669727374B4
:10273000557064617465297B6C6574206F6E655794
:102740006972654379636C653D646F63756D656E31
:10275000742E676574456C656D656E744279496465
:1027600028276F6E65576972654379636C65272901
:102770003B6966286F6E65576972654379636C655E
:10278000296F6E65576972654379636C652E766152
:102790006C75653D646174612E6F6E655769726515
:1027A0004379636C657C7C33303030303B6C6574CE
:1027B00020616E61496E7075744379636C653D6428
:1027C0006F63756D656E742E676574456C656D65B8
:1027D0006E74427949642827616E61496E70757420
:1027E0004379636C6527293B696628616E61496E90
:1027F0007075744379636C6529616E61496E70759B
:10280000744379636C652E76616C75653D646174A3
:10281000612E616E61496E7075744379636C657C7D
:102820007C31303030303B6C6574207573655544B5
:10283000506374726C3D646F63756D656E742E6762
:102840006574456C656D656E7442794964282775B9
:1028500073655544506374726C27293B696628750B
:1028600073655544506374726C2975736555445093
:102870006374726C2E76616C75653D646174612E53
:102880007573655544506374726C2E746F53747213
:10289000696E6728293B6C65742070756C73654F91
:1028A0006E3D646F63756D656E742E676574456CFF
:1028B000656D656E7442794964282770756C73651F
:1028C0004F6E27293B69662870756C73654F6E29BA
:1028D00070756C73654F6E2E76616C75653D6461C5
:1028E00074612E70756C73654F6E2E746F537472B5
:1028F000696E6728293B6C65742067617465776130
:1029000079456E61626C65643D646F63756D656E7B
:10291000742E676574456C656D656E7442794964A3
:10292000282767617465776179456E61626C6564BB
:1029300027293B69662867617465776179456E610F
:10294000626C65642967617465776179456E61625F
:102950006C65642E76616C75653D646174612E678B
:10296000617465776179456E61626C65642E746F20
:10297000537472696E6728293B6C65742070756C9E
:10298000736553656E644379636C653D646F63750D
:102990006D656E742E676574456C656D656E744209
:1029A000794964282770756C736553656E64437943
:1029B000636C6527293B69662870756C7365536580
:1029C0006E644379636C652970756C736553656ECD
:1029D000644379636C652E76616C75653D646174E2
:1029E000612E70756C736553656E644379636C65B5
:1029F0007C7C31303030303B6C65742063686563BB
:102A00006B496E74657276616C3D646F63756D655C
:102A10006E742E676574456C656D656E7442794998
:102A2000642827636865636B496E74657276616CB0
:102A300027293B696628636865636B496E74657214
:102A400076616C29636865636B496E746572766143
:102A50006C2E76616C75653D646174612E6368658A
:102A6000636B496E74657276616C7C7C313030309A
:102A7000303B6C65742062617564526174653D64BD
:102A80006F63756D656E742E676574456C656D65F5
:102A90006E74427949642827626175645261746575
:102AA00027293B69662862617564526174652962F1
:102AB000617564526174652E76616C75653D646103
:102AC00074612E62617564526174657C7C3131354C
:102AD0003230303B696628757064617465496E7484
:102AE000657276616C496429636C656172496E74C4
:102AF000657276616C28757064617465496E746581
:102B00007276616C4964293B757064617465496EC5
:102B100074657276616C49643D736574496E746561
:102B20007276616C28757064617465537461747534
:102B3000732C32303030293B00666F72286C65741C
:102B400020693D303B693C646174612E64733138A7
:102B50006232302E6C656E6774683B692B2B297B63
:102B60006C657420736E456C656D3D646F63756D47
:102B7000656E742E676574456C656D656E7442791B
:102B800049642827647331386232305F736E272BB3
:102B900028692B3129293B6C65742074656D70455B
:102BA0006C656D3D646F63756D656E742E676574DD
:102BB000456C656D656E744279496428276473318C
:102BC000386232305F74656D70272B28692B31298C
:102BD000293B696628736E456C656D262674656DA4
:102BE00070456C656D297B736E456C656D2E7465E3
:102BF0007874436F6E74656E743D646174612E64A5
:102C00007331386232305B695D2E736E3B74656D73
:102C100070456C656D2E74657874436F6E74656E67
:102C2000743D646174612E647331386232305B6963
:102C30005D2E74656D702B2743273B7D7D00666F8D
:102C400072286C657420693D303B693C6461746135
:102C50002E6473323433382E6C656E6774683B694A
:102C60002B2B297B6C657420736E456C656D3D6400
:102C70006F63756D656E742E676574456C656D6503
:102C80006E744279496428276473323433385F7331
:102C90006E272B28692B3129293B6C6574207465BC
:102CA0006D70456C656D3D646F63756D656E742EFA
:102CB000676574456C656D656E7442794964282753
:102CC0006473323433385F74656D70272B28692B39
:102CD0003129293B6C657420766164456C656D3DD6
:102CE000646F63756D656E742E676574456C656D94
:102CF000656E744279496428276473323433385FCF
:102D0000766164272B28692B3129293B6C65742057
:102D10007673656E73456C656D3D646F63756D6547
:102D20006E742E676574456C656D656E7442794985
:102D30006428276473323433385F7673656E732783
:102D40002B28692B3129293B696628736E456C65F0
:102D50006D262674656D70456C656D2626766164FA
:102D6000456C656D26267673656E73456C656D29B9
:102D70007B736E456C656D2E74657874436F6E74ED
:102D8000656E743D646174612E6473323433385BF4
:102D9000695D2E736E3B74656D70456C656D2E7448
:102DA000657874436F6E74656E743D646174612EF2
:102DB0006473323433385B695D2E74656D702B2714
:102DC00043273B766164456C656D2E74657874436A
:102DD0006F6E74656E743D646174612E6473323419
:102DE00033385B695D2E7661642B2756273B7673FB
:102DF000656E73456C656D2E74657874436F6E7483
:102E0000656E743D646174612E6473323433385B73
:102E1000695D2E7673656E732B2756273B7D7D008B
:102E20003B692B2B297B6C657420616E614F757437
:102E30003D646F63756D656E742E676574456C6572
:102E40006D656E74427949642827616E614F7574AF
:102E50005F272B28692B3129293B696628616E6120
:102E60004F757429616E614F75742E76616C75654E
:102E70003D646174612E616E614F7574735B695D51
:102E80007C7C303B6C657420616E614F7574566F4D
:102E90006C746167653D646F63756D656E742E67F4
:102EA0006574456C656D656E744279496428276167
:102EB0006E614F7574566F6C74616765272B286956
:102EC0002B3129293B696628616E614F7574566FF5
:102ED0006C7461676529616E614F7574566F6C74AF
:102EE0006167652E74657874436F6E74656E743DAA
:102EF0002728272B646174612E616E614F7574738E
:102F0000566F6C746167655B695D2E746F46697896
:102F100065642831292B275629273B7D00666F726F
:102F2000286C657420693D303B693C00666F7228EF
:102F30006C657420693D303B693C646174612E614D
:102F40006E61496E707574732E6C656E6774683B44
:102F5000692B2B297B6C65742073746174757345C0
:102F60006C656D3D646F63756D656E742E67657419
:102F7000456C656D656E7442794964282761695FA7
:102F8000737461747573272B28692B3129293B6968
:102F90006628737461747573456C656D297374610B
:102FA000747573456C656D2E74657874436F6E74BB
:102FB000656E743D646174612E616E61496E7075F9
:102FC00074735B695D2B272028272B646174612E45
:102FD000616E61496E70757473566F6C746167656C
:102FE0005B695D2E746F46697865642831292B27EB
:102FF0005629273B7D00666F72286C657420693DF9
:10300000303B693C646174612E646967496E707518
:1030100074732E6C656E6774683B692B2B297B6C0F
:10302000657420737461747573456C656D3D646F70
:1030300063756D656E742E676574456C656D656E40
:103040007442794964282764695F73746174757385
:10305000272B28692B3129293B69662873746174F1
:103060007573456C656D297B6C6574207374617430
:103070007573546578743D646174612E6469674941
:103080006E707574735B695D3B6966286461746119
:103090002E70756C73654F6E262628693D3D3D394F
:1030A0007C7C693D3D3D31307C7C693D3D3D31312D
:1030B0002929737461747573546578742B3D2720C6
:1030C00028636F756E743A20272B646174612E70CB
:1030D000756C7365436F756E74735B692D395D2B09
:1030E0002729273B737461747573456C656D2E7465
:1030F000657874436F6E74656E743D737461747536
:1031000073546578743B7D7D003B692B2B297B6C68
:103110006574206C73733D646F63756D656E742E9A
:10312000676574456C656D656E74427949642827DE
:103130006C7373272B28692B3129293B6C6574200C
:103140006C737350574D3D646F63756D656E742E6F
:10315000676574456C656D656E74427949642827AE
:103160006C737350574D272B28692B3129293B69E4
:1031700066286C73732626646174612E6C737326E3
:1031800026646174612E6C73735B695D213D3D75CE
:103190006E646566696E656426262170656E646975
:1031A0006E67436F6D6D616E64735B276C7373271D
:1031B0002B28692B31295D296C73732E6368656335
:1031C0006B65643D646174612E6C73735B695D3D16
:1031D0003D3D313B6966286C737350574D2626641C
:1031E0006174612E6C737350574D2626646174614F
:1031F0002E6C737350574D5B695D213D3D756E6458
:103200006566696E6564262677696E646F772E61E0
:10321000637469766550574D4669656C64213D3D20
:10322000276C737350574D272B28692B3129296C34
:10323000737350574D2E76616C75653D6461746192
:103240002E6C737350574D5B695D7C7C303B7D0009
:10325000666F72286C657420693D303B693C003BA9
:10326000692B2B297B6C6574206873733D646F63D5
:10327000756D656E742E676574456C656D656E74ED
:10328000427949642827687373272B28692B3129D1
:10329000293B6C65742068737350574D3D646F63B0
:1032A000756D656E742E676574456C656D656E74BD
:1032B00042794964282768737350574D272B286932
:1032C0002B3129293B69662868737326266461744B
:1032D000612E6873732626646174612E6873735B54
:1032E000695D213D3D756E646566696E656426267F
:1032F0002170656E64696E67436F6D6D616E647396
:103300005B27687373272B28692B31295D29687324
:10331000732E636865636B65643D646174612E68D8
:1033200073735B695D3D3D3D313B6966286873732E
:1033300050574D2626646174612E68737350574D43
:103340002626646174612E68737350574D5B695D06
:10335000213D3D756E646566696E656426267769F4
:103360006E646F772E61637469766550574D466958
:10337000656C64213D3D2768737350574D272B289A
:10338000692B31292968737350574D2E76616C75FE
:10339000653D646174612E68737350574D5B695D60
:1033A0007C7C303B7D00666F72286C657420693DC3
:1033B000303B693C003B692B2B297B6C6574207288
:1033C000656C61793D646F63756D656E742E6765BC
:1033D00074456C656D656E74427949642827726521
:1033E0006C6179272B28692B3129293B6966287262
:1033F000656C61792972656C61792E636865636BB0
:1034000065643D646174612E72656C6179735B699A
:103410005D3B7D00666F72286C657420693D303BB2
:10342000693C00666574636828272F73746174753E
:103430007327292E7468656E28726573706F6E73BA
:1034400065203D3E20726573706F6E73652E6A73E2
:103450006F6E2829292E7468656E28646174612056
:103460003D3E207B0066756E6374696F6E207570DB
:103470006461746553746174757328297B006C658D
:10348000742066697273745570646174653D7472FA
:1034900075653B6C65742061637469766550574D42
:1034A0004669656C643D6E756C6C3B6C6574207030
:1034B000656E64696E67436F6D6D616E64733D7BAD
:1034C0007D3B6C657420757064617465496E7465CC
:1034D0007276616C49643D6E756C6C3B003C736345
:1034E000726970743E003C21444F4354595045204A
:1034F00048544D4C3E3C68746D6C3E3C686561645C
:103500003E3C6D65746120636861727365743D2231
:103510005554462D38223E3C7469746C653E5261A8
:10352000696C6475696E6F20436F6E74726F6C3C6A
:103530002F7469746C653E3C7374796C653E626F80
:1035400064797B666F6E742D66616D696C793A4142
:103550007269616C2C73616E732D73657269663B61
:10356000666F6E742D73697A653A313470783B708A
:103570006F736974696F6E3A72656C6174697665B0
:103580003B7D2E636F6E7461696E65727B776964D3
:1035900074683A3131303070783B6D617267696EB2
:1035A0003A30206175746F3B706F736974696F6E28
:1035B0003A72656C61746976653B7D68312C68325E
:1035C0002C68337B666F6E742D66616D696C793A19
:1035D000417269616C2C73616E732D7365726966DB
:1035E0003B7D7461626C652E696E6E65727B626F85
:1035F000726465722D636F6C6C617073653A636F92
:103600006C6C617073653B77696474683A31303013
:10361000253B7D7461626C652E6F757465727B628B
:103620006F726465723A31707820736F6C696420D0
:10363000236363633B77696474683A313030253BB8
:103640007D74647B766572746963616C2D616C69ED
:10365000676E3A6D6964646C653B666F6E742D735A
:10366000697A653A313470783B70616464696E6779
:103670003A3270783B7D696E7075742C73656C6539
:1036800063747B666F6E742D73697A653A3134703A
:10369000783B70616464696E673A3270783B7D2E66
:1036A00072657365742D627574746F6E7B706F7361
:1036B0006974696F6E3A6162736F6C7574653B749F
:1036C0006F703A3070783B72696768743A3070781E
:1036D0003B7D2E72657365742D627574746F6E20F8
:1036E000696E7075747B70616464696E673A357079
:1036F000783B7D74727B6865696768743A323670AE
:10370000783B7D7461626C652E696E6E65722074A3
:10371000643A66697273742D6368696C647B776957
:103720006474683A31303070783B7D7461626C65E6
:103730002E696E6E65722074643A6E74682D6368CB
:10374000696C642832297B77696474683A38307010
:10375000783B7D7461626C652E62617369632D696B
:103760006E666F2D7461626C652074643A6669726E
:1037700073742D6368696C647B77696474683A312B
:10378000383070783B7D7461626C652E6F7468654B
:10379000722D73657474696E67732D7461626C65E4
:1037A0002074643A66697273742D6368696C647B13
:1037B00077696474683A32303070783B7D74616246
:1037C0006C652E6F6E65776972652D7461626C65CC
:1037D0002074643A66697273742D6368696C647BE3
:1037E00077696474683A383070783B7D7461626CD4
:1037F000652E6F6E65776972652D7461626C6520E8
:1038000074643A6E74682D6368696C642832297B2D
:1038100077696474683A31333070783B7D746162E3
:103820006C652E6F6E65776972652D7461626C656B
:103830002074643A6E74682D6368696C6428332957
:103840002C7461626C652E6F6E65776972652D747C
:1038500061626C652074643A6E74682D6368696C8B
:10386000642834292C7461626C652E6F6E657769EB
:1038700072652D7461626C652074643A6E74682D93
:103880006368696C642835297B77696474683A34A5
:103890003070783B7D2E6E6F2D626F726465727B27
:1038A000626F726465723A6E6F6E653B7D3C2F731A
:1038B00074796C653E00436F6E6E656374696F6EFC
:1038C0003A20636C6F736500436F6E74656E742D80
:1038D000547970653A20746578742F68746D6C3B08
:1038E00020636861727365743D5554462D380048F5
:1038F0005454502F312E3120323030204F4B002085
:1039000048545450003F6C6F636B3D003F6C6F63D5
:103910006B3D00474554202F3F00474554202F2042
:103920000072657365743D31002075706461746563
:10393000643A2000416E616C6F67204F757470753A
:1039400074200020757064617465643A20004C53E3
:1039500053200020757064617465643A20004853F8
:1039600053200020757064617465643A20005265CC
:103970006C6179200020757064617465643A200080
:10398000616C6961735F647331386232305F00610A
:103990006C6961735F647331386232305F00207527
:1039A0007064617465643A2000616C6961735F647E
:1039B00073323433385F00616C6961735F647332F2
:1039C0003433385F0020757064617465643A200098
:1039D000616C6961735F616E614F75745F00616CEA
:1039E0006961735F616E614F75745F00207570640B
:1039F000617465643A2000616C6961735F616E6136
:103A0000496E7075745F00616C6961735F616E61AE
:103A1000496E7075745F0020757064617465643AF6
:103A20002000616C6961735F646967496E707574C9
:103A30005F00616C6961735F646967496E7075747A
:103A40005F0020757064617465643A2000616C6980
:103A500061735F6C73735F00616C6961735F6C733A
:103A6000735F0020757064617465643A2000616C56
:103A70006961735F6873735F00616C6961735F682C
:103A800073735F0020757064617465643A2000612F
:103A90006C6961735F72656C61795F00616C69610B
:103AA000735F72656C61795F004F757470757473C4
:103AB00020636F6E74726F6C2070726F746F636FBF
:103AC0006C206368616E6765643A200075736555A4
:103AD00044506374726C3D00757365554450637453
:103AE000726C3D004761746577617920656E616233
:103AF0006C656420757064617465643A2000676168
:103B00007465776179456E61626C65643D006761DB
:103B10007465776179456E61626C65643D006465CA
:103B2000627567456E61626C65642075706461746E
:103B300065643A20006465627567456E61626C6514
:103B4000643D006465627567456E61626C65643DE5
:103B50000070756C73654F6E207570646174656478
:103B60003A200070756C73654F6E3D0070756C7314
:103B7000654F6E3D005253343835204261756420E4
:103B80007261746520757064617465643A200062C6
:103B9000617564526174653D00626175645261745F
:103BA000653D00636865636B496E74657276616C30
:103BB00020757064617465643A2000636865636BA6
:103BC000496E74657276616C3D00636865636B492C
:103BD0006E74657276616C3D0070756C73655365CB
:103BE0006E644379636C6520757064617465643AD2
:103BF000200070756C736553656E644379636C6502
:103C00003D0070756C736553656E644379636C65D4
:103C10003D00616E61496E7075744379636C652017
:103C2000757064617465643A2000616E61496E70FC
:103C300075744379636C653D00616E61496E7075A2
:103C4000744379636C653D006F6E655769726543B7
:103C500079636C6520757064617465643A20006FE7
:103C60006E65576972654379636C653D006F6E657B
:103C7000576972654379636C653D0044657363728F
:103C8000697074696F6E20757064617465643A2040
:103C9000006465736372697074696F6E3D0064657A
:103CA000736372697074696F6E3D00536572696108
:103CB0006C206E756D6265722075706461746564E8
:103CC0003A200073657269616C4E756D6265723D74
:103CD0000073657269616C4E756D6265723D004F6F
:103CE0004B00436F6E6E656374696F6E3A20636C50
:103CF0006F736500436F6E74656E742D54797065D3
:103D00003A20746578742F706C61696E0048545461
:103D1000502F312E3120323030204F4B003C2F625B
:103D20006F64793E3C2F68746D6C3E003C2F646973
:103D3000763E000A202020203C68333E41646469BE
:103D400074696F6E616C204E6F7465733C2F6833BD
:103D50003E0A202020203C7072653E0A436F6D624F
:103D6000696E6174696F6E206F6620317769726564
:103D70002073656E736F7273206D75737420626546
:103D800020757020746F203130706373206D6178FE
:103D9000696D756D202844533138423230206F727E
:103DA00020445332343338290A5573696E672052E0
:103DB0005334383520746865205544502073796E2B
:103DC000746178206D7573742068617665205C6E0F
:103DD0002073796D626F6C20617420746865206552
:103DE0006E64206F662074686520636F6D6D616E10
:103DF00064206C696E650A202020203C2F7072655B
:103E00003E0A3C2F626F64793E0A3C2F68746D6CE9
:103E10003E0A000A4D4F444255532052656769736C
:103E2000746572204D61700A0A7265676973746502
:103E300072206E756D626572202832206279746519
:103E4000732920206465736372697074696F6E0AE8
:103E500030202D206269747320302D3720202020DF
:103E6000202020202020202020202072656C6179D5
:103E7000206F75747075747320312D380A31202DC0
:103E800020626974732031362D31392020202020A2
:103E9000202020202020202072656C6179206F7501
:103EA000747075747320392D31320A32202D2062DE
:103EB0006974732033322D343020202020202020BC
:103EC0002020202020206469676974616C206F7550
:103ED00074707574732048535320312D342C204C4A
:103EE000535320312D340A33202D204C534220626D
:103EF00079746520202020202020202020202020D0
:103F000020204853532050574D2076616C75652012
:103F1000312028302D323535290A34202D204C53BC
:103F2000422062797465202020202020202020203B
:103F300020202020204853532050574D2076616C7C
:103F4000756520322028302D323535290A35202D4F
:103F5000204C5342206279746520202020202020AC
:103F600020202020202020204853532050574D202F
:103F700076616C756520332028302D323535290A5D
:103F800036202D204C534220627974652020202059
:103F90002020202020202020202020485353205063
:103FA000574D2076616C756520342028302D3235D0
:103FB00035290A37202D204C534220627974652020
:103FC00020202020202020202020202020204C5392
:103FD000532050574D2076616C7565203120283074
:103FE0002D323535290A38202D204C534220627954
:103FF0007465202020202020202020202020202028
:10400000204C53532050574D2076616C75652032FB
:104010002028302D323535290A39202D204C5342A5
:10402000206279746520202020202020202020205C
:10403000202020204C53532050574D2076616C7522
:104040006520332028302D323535290A3130202D96
:10405000204C5342206279746520202020202020AB
:10406000202020202020204C53532050574D2076D4
:10407000616C756520342028302D323535290A31A0
:1040800031202D204C53422062797465202020205D
:1040900020202020202020202020616E616C6F676E
:1040A000206F757470757420312028302D323535AD
:1040B000290A3132202D204C534220627974652028
:1040C00020202020202020202020202020616E6120
:1040D0006C6F67206F757470757420322028302DD6
:1040E000323535290A3133202D206269747320322C
:1040F00030382D3231352020202020202020202053
:104100006469676974616C20696E707574732031BD
:104110002D380A3134202D206269747320323136F3
:104120002D323233202020202020202020206469BE
:10413000676974616C20696E7075747320392D31F4
:10414000360A3135202D2062697473203232342DC5
:104150003233312020202020202020202064696755
:104160006974616C20696E707574732031372D32FB
:10417000340A3136202D204C534220627974652058
:1041800020202020202020202020202020616E615F
:104190006C6F6720696E70757420312028302D3166
:1041A000303233290A3137202D204C534220627996
:1041B0007465202020202020202020202020202066
:1041C000616E616C6F6720696E7075742032202893
:1041D000302D31303233290A3138202D2062697474
:1041E000203238382020202020202020202020208D
:1041F0002020207265736574200A3139202D204CEF
:104200005342206279746520202020202020202025
:10421000202020202031737420445332343338203E
:1042200054656D70202876616C7565206D756C74B1
:1042300069706C69656420627920313030290A32F6
:1042400030202D204C53422062797465202020209C
:10425000202020202020202020203173742044534F
:104260003234333820566164202876616C756520BD
:104270006D756C7469706C69656420627920313089
:1042800030290A3231202D204C5342206279746546
:1042900020202020202020202020202020203173BA
:1042A0007420445332343338205673656E7320289B
:1042B00076616C7565206D756C7469706C69656488
:1042C00020627920313030290A2D20202020202022
:1042D00020202020202020202020202020202020DE
:1042E0002020200A3436202D204C5342206279743D
:1042F0006520202020202020202020202020204455
:1043000053323433382076616C75657320287570AC
:1043100020746F2031302073656E736F7273290AB9
:1043200034372D3537202020202020202020202029
:1043300020202020202020202020204453313842DB
:1043400032302054656D7065726174757265202815
:10435000757020746F2031302073656E736F7273C7
:1043600029202876616C7565206D756C7469706C98
:1043700069656420627920313030290A3C2F7072DF
:10438000653E0A000A202020203C68333E4D4F4401
:104390004255533C2F68333E0A202020203C707247
:1043A000653E0A4D4F444255532054435020636F9D
:1043B0006D6D616E64733A20464331202D20464373
:1043C00031360A4D4F444255532052545520636FA5
:1043D0006D6D616E64733A204643332C204643363C
:1043E0002C20464331360A0A526567697374657238
:1043F00073206172652032206279746573202831E0
:1044000036206269747329202D206F6E6C79206CC0
:104410006F77657374207369676E69666963617429
:104420006E206279746520284C53422920697320DC
:10443000757365640A202020200A000A636F6D6D81
:10444000616E64733A0A202072656C6179206F6E28
:1044500020636F6D6D616E643A2020202020202043
:1044600020202020202020207261696C3120726F72
:104470003132206F6E0A202072656C6179206F6680
:104480006620636F6D6D616E643A202020202020CD
:1044900020202020202020207261696C3120726F42
:1044A00035206F66660A2020686967682073696432
:1044B0006520737769746368206F6E20636F6D6D1C
:1044C000616E643A202020207261696C3120686F2F
:1044D00032206F6E0A2020686967682073696465FE
:1044E00020737769746368206F666620636F6D6DF3
:1044F000616E643A2020207261696C3120686F34EB
:10450000206F66660A2020686967682073696465A1
:10451000207377697463682050574D20636F6D6D09
:10452000616E643A2020207261696C3120686F31BD
:104530005F70776D203138300A20206C6F772073E0
:1045400069646520737769746368206F6E20636F98
:104550006D6D616E643A20202020207261696C319B
:10456000206C6F31206F6E0A20206C6F772073698A
:10457000646520737769746368206F666620636F73
:104580006D6D616E643A202020207261696C31206B
:104590006C6F32206F66660A20206C6F772073691B
:1045A0006465207377697463682050574D20636F8A
:1045B0006D6D616E643A202020207261696C31203B
:1045C0006C6F315F70776D203138300A2020616E5A
:1045D000616C6F67206F757470757420636F6D6D9B
:1045E000616E643A2020202020202020202072614B
:1045F000696C3120616F31203138300A20207265BA
:1046000073657420636F6D6D616E643A20202020A5
:104610002020202020202020202020202020726107
:10462000696C31207273740A64656661756C7420FC
:104630007363616E206379636C65733A0A2020317D
:1046400077697265206379636C653A2020202020A9
:104650002020202020202020202020202020203347
:1046600030303030206D730A2020616E616C6F67CE
:1046700020696E707574206379636C653A20202020
:1046800020202020202020202020313030303020D9
:104690006D730A202020203C2F7072653E0A000AAC
:1046A000202020203C68333E5544503C2F68333E48
:1046B0000A202020203C7072653E0A7369676E6193
:1046C0006C733A0A2020445331384232302031771B
:1046D0006972652073656E736F72207061636B65BC
:1046E000743A202020207261696C312031772032A9
:1046F0003836346663333030383038322032352E35
:1047000034340A20204453323433382031776972EC
:10471000652073656E736F72207061636B65743AA8
:1047200020202020207261696C31203177203236C0
:1047300031326333313032303034662032352E340A
:104740003420312E323320302E31320A2020646959
:10475000676974616C20696E70757420737461741C
:10476000653A202020202020202020202020726157
:10477000696C312064693120310A2020616E616CDE
:104780006F6720696E7075742073746174653A2068
:104790002020202020202020202020207261696CF1
:1047A000312061693120313032300A000A3C214425
:1047B0004F43545950452048544D4C3E0A3C687470
:1047C0006D6C3E0A3C686561643E0A202020203CF6
:1047D0007469746C653E5261696C6475696E6F20B2
:1047E0004669726D7761726520446F63756D656EA1
:1047F000746174696F6E3C2F7469746C653E0A2035
:104800002020203C7374796C653E0A2020202020F3
:10481000202020626F6479207B20666F6E742D6685
:10482000616D696C793A20417269616C2C20736109
:104830006E732D73657269663B20666F6E742D739F
:10484000697A653A20313470783B206D617267690E
:104850006E3A20323070783B207D0A2020202020C4
:104860002020202E636F6E7461696E6572207B203C
:1048700077696474683A203131303070783B206D4C
:10488000617267696E3A2030206175746F3B2070E9
:104890006F736974696F6E3A2072656C61746976C2
:1048A000653B207D0A202020202020202068322CFB
:1048B000206833207B20666F6E742D66616D696C95
:1048C000793A20417269616C2C2073616E732D738B
:1048D000657269663B207D0A202020202020202050
:1048E000707265207B206261636B67726F756E64A6
:1048F0003A20236634663466343B20706164646910
:104900006E673A20313070783B20626F7264657256
:104910003A2031707820736F6C696420236363637D
:104920003B2077686974652D73706163653A207008
:1049300072652D777261703B207D0A202020203C1B
:104940002F7374796C653E0A3C2F686561643E0A7A
:104950003C626F64793E0A202020203C6469762006
:10496000636C6173733D27636F6E7461696E65720A
:10497000273E0A202020203C68323E5261696C6448
:1049800075696E6F204669726D7761726520446F3C
:1049900063756D656E746174696F6E3C2F68323E2D
:1049A0000A00436F6E6E656374696F6E3A20636CC4
:1049B0006F736500436F6E74656E742D5479706506
:1049C0003A20746578742F68746D6C0048545450A4
:1049D0002F312E3120323030204F4B003C2F626F70
:1049E00064793E3C2F68746D6C3E003C7363726961
:1049F00070743E73657454696D656F75742866755F
:104A00006E6374696F6E28297B77696E646F772E89
:104A10006C6F636174696F6E2E687265663D272FD7
:104A2000273B7D2C2035303030293B3C2F7363727F
:104A30006970743E003C68333E5265626F6F746902
:104A40006E672E2E2E3C2F68333E003C68746D6CD2
:104A50003E3C626F64793E003C21444F43545950C0
:104A6000452048544D4C3E00436F6E6E656374693B
:104A70006F6E3A20636C6F736500436F6E74656E82
:104A8000742D547970653A20746578742F68746D4C
:104A90006C00485454502F312E3120323030204F8A
:104AA0004B007D005D005D002C0022002200226191
:104AB0006C6961735F64733138623230223A5B0033
:104AC0005D2C005D2C002C002200220022616C690C
:104AD00061735F647332343338223A5B005D2C00BB
:104AE0002C002200220022616C6961735F616E619B
:104AF0004F757473223A5B005D2C002C002200225B
:104B00000022616C6961735F616E61496E707574DA
:104B100073223A5B005D2C002C00220022002261EF
:104B20006C6961735F646967496E70757473223A6A
:104B30005B005D2C002C002200220022616C696168
:104B4000735F6C7373223A5B005D2C002C002200B3
:104B5000220022616C6961735F687373223A5B00A3
:104B60005D2C002C002200220022616C6961735FC1
:104B700072656C617973223A5B005D2C002C002217
:104B8000616E614F757473566F6C74616765223A1C
:104B90005B005D2C002C0022616E61496E707574A3
:104BA00073566F6C74616765223A5B002C00226259
:104BB00061756452617465223A00222C002264659A
:104BC000736372697074696F6E223A22002C00223E
:104BD00073657269616C4C6F636B6564223A002285
:104BE0002C002273657269616C4E756D626572226C
:104BF0003A22002C00226465627567456E61626C22
:104C00006564223A002C0022636865636B496E7408
:104C1000657276616C223A002C00226761746577B8
:104C20006179456E61626C6564223A002C002270E5
:104C3000756C736553656E644379636C65223A00E5
:104C40002C002270756C73654F6E223A002C002286
:104C50007573655544506374726C223A002C0022BF
:104C6000616E61496E7075744379636C65223A00B8
:104C70002C00226F6E65576972654379636C6522FB
:104C80003A005D2C002C002C002270756C7365437B
:104C90006F756E7473223A5B005D2C005D2C002CE6
:104CA000007D00222C2274656D70223A007B2273F5
:104CB0006E223A22002264733138623230223A5B2B
:104CC000005D2C005D2C002C007D002C227673658D
:104CD0006E73223A002C22766164223A00222C2242
:104CE00074656D70223A007B22736E223A22002294
:104CF000647332343338223A5B005D2C002C00227E
:104D0000616E61496E70757473223A5B005D2C00B0
:104D10002C0022646967496E70757473223A5B00D7
:104D20005D2C002C0022616E614F757473223A5B1A
:104D3000005D2C002C00226C737350574D223A5B9F
:104D4000005D2C002C002268737350574D223A5B93
:104D5000005D2C002C00226C7373223A5B005D2CEA
:104D6000002C0022687373223A5B005D2C002C003B
:104D70002272656C617973223A5B007B004854545F
:104D8000502F312E3120323030204F4B0A436F6E7E
:104D900074656E742D547970653A206170706C6919
:104DA000636174696F6E2F6A736F6E0A436F6E6E04
:104DB000656374696F6E3A20636C6F73650A0045B2
:104DC0004550524F4D20696E697469616C697A650E
:104DD0006420776974682064656661756C742076F8
:104DE000616C756573007261696C005761726E6900
:104DF0006E673A204C53532034202870696E20315E
:104E0000382920646F6573206E6F7420737570701D
:104E10006F72742050574D2C2069676E6F72696EE7
:104E2000672076616C7565200044484350207265A8
:104E30006E6577206661696C004448435020726556
:104E400062696E64206F6B00444843502072656253
:104E5000696E64206661696C004448435020726545
:104E60006E6577206F6B0045746865726E6574209F
:104E7000636F6E6E656374696F6E206661696C65E1
:104E8000642C20726573657474696E672E006169A5
:104E90000072737400616F006C6F00686F00726F56
:104EA0000064690000002100240027002A002D0072
:104EB0003000330001010000040107010A01000075
:104EC0000A0B02090C0D0E08070304010000000084
:104ED00000000000000000000000000000000000D2
:104EE000000000000000000000001211100000008F
:104EF00000000000000000000000000000000000B2
:104F000000000000005EBCE2613FDD83C29C7E20A9
:104F1000A3FD1F419DC3217FFCA2401E5F01E3BD95
:104F20003E6082DC237D9FC1421CFEA0E1BF5D0389
:104F300080DE3C62BEE0025CDF81633D7C22C09E7D
:104F40001D43A1FF4618FAA427799BC584DA386669
:104F5000E5BB5907DB856739BAE406581947A5FB55
:104F60007826C49A653BD987045AB8E6A7F91B4549
:104F7000C6987A24F8A6441A99C7257B3A6486D83D
:104F80005B05E7B98CD2306EEDB3510F4E10F2AC29
:104F90002F7193CD114FADF3702ECC92D38D6F3115
:104FA000B2EC0E50AFF1134DCE90722C6D33D18F09
:104FB0000C52B0EE326C8ED0530DEFB1F0AE4C12FD
:104FC00091CF2D73CA947628ABF517490856B4EAE9
:104FD0006937D58B5709EBB536688AD495CB2977D5
:104FE000F4AA4816E9B7550B88D6346A2B7597C9C9
:104FF0004A14F6A8742AC896154BA9F7B6E80A54BD
:10500000D7896B3500002200250028002B002E00D8
:105010003100340002010000050108010B0100000D
:1050200020002300260029002C002F003200000160
:10503000000003010601090105050505070508082B
:105040000808020202020A0A080804040404010112
:105050000101010101010303030303030303040727
:1050600007070C0C0C0C0C0C0C0C020202020606BE
:105070000606060606060B0B0B0B0B0B0B0B0102B1
:10508000102020080810204010204080020102015A
:105090000804020101020408102040808040201012
:1050A000080402018004020180402010080402016B
:1050B00008040201010204081020408001020408D3
:1050C00010204080CB7C5D9111241FBECFEFD1E238
:1050D000DEBFCDBF00E00CBF16E0A0E0B2E0ECE91F
:1050E000FDE301E00BBF02C007900D92AE35B107A2
:1050F000D9F721E1AEE5B6E001C01D92A031B207BB
:10510000E1F718E2C3E6D8E200E006C02197010902
:10511000802FFE010E943099C236D10780E0080737
:10512000A9F70E94397E0C94BC9E0C940000CF928B
:10513000DF92EF92FF92CF93DF93EC016A017B0144
:10514000E889F98982E08083C11481EED806E10400
:10515000F104A1F060E079E08DE390E0A701960111
:105160000E94B5972150310941095109569547953B
:1051700037952795211580E1380798F0E889F98956
:10518000108260E874E88EE190E0A70196010E9429
:10519000B5972150310941095109569547953795E1
:1051A0002795EC85FD853083EE85FF852083188E5D
:1051B000EC89FD8986E08083EA89FB8980818061B2
:1051C0008083EA89FB89808188608083EA89FB8902
:1051D000808180688083EA89FB8980818F7D8083DC
:1051E000DF91CF91FF90EF90DF90CF9008952091C5
:1051F0004F0B222361F02FB7F89430914F0B3130D1
:1052000049F43DB330934E0B3DB33DBB2FBF8CBD36
:105210009DBD089520934E0BFACF20E3FC0120831F
:105220003296862F82958F706F706A3030F4605D91
:105230006293682F8111F5CF0895695CF9CFCF9300
:10524000DF93D62F9C0164E0369527956A95E1F7A8
:10525000C1E021384CE034070CF4C0E021384CE0C8
:105260003407F8F4F901EE0FFF1FE150F34FA0816E
:10527000B18154E0220F331F5A95E1F7821B930B43
:1052800041E050E060E070E004C0440F551F661F2D
:10529000771F8A95D2F7DD2341F04A2B5B2B518390
:1052A00040838C2FDF91CF910895409550954A23EC
:1052B0005B23F5CFFC01818D928D08950895815077
:1052C000823108F05AC0E82FF0E08827E559F64D02
:1052D0008F4F0C9430998B298F297D298329872919
:1052E000BD29922998299C29A229A629AA29B02951
:1052F000B429BD29B829BE29C229809180008F77A1
:10530000809380000895809180008F7DF9CF8091F7
:105310008000877FF5CF84B58F7784BD089584B5ED
:105320008F7DFBCF8091B0008F778093B000089580
:105330008091B0008F7DF9CF809190008F7780931E
:1053400090000895809190008F7DF9CF809190001A
:10535000877FF5CF8091A0008F778093A00008957C
:105360008091A0008F7DF9CF8091A000877FF5CF3D
:10537000809120018F7780932001089580912001F2
:105380008F7DF9CF80912001877FF5CFCF93DF9379
:10539000282F30E0F901E254F14B8491F901E258F1
:1053A000FF4AD491F901E85CFF4AC491CC23A1F0F3
:1053B00081110E945F29EC2FF0E0EE0FFF1FE25EEB
:1053C000FF4AA591B491EC91ED2381E090E009F4BE
:1053D00080E0DF91CF91089580E090E0FACF1F93B5
:1053E000CF93DF93282F30E0F901E254F14B849101
:1053F000F901E258FF4AD491F901E85CFF4AC491EF
:10540000CC23A9F0162F81110E945F29EC2FF0E028
:10541000EE0FFF1FEC5FFF4AA591B4918FB7F89490
:10542000EC91111108C0D095DE23DC938FBFDF9182
:10543000CF911F910895DE2BF8CFCF93DF9390E0AB
:10544000FC01E258FF4A2491885C9F4AFC01849148
:105450008823D1F090E0880F991FFC01EC55F14BA7
:10546000A591B491FC01EC5FFF4AC591D491611103
:105470000EC09FB7F8948C91E22FE0958E238C9309
:105480002881E223E8839FBFDF91CF9108958FB7F2
:10549000F894EC91E22BEC938FBFF6CF1F93CF9350
:1054A000DF93182FEB0161E00E941D2A209739F449
:1054B00060E0812FDF91CF911F910C94EF29CF3FB6
:1054C000D10511F461E0F5CFE12FF0E0E254F14BAA
:1054D000E491E150E23108F0B3C0F0E08827EC58E5
:1054E000F54D8F4F0C943099862A8E2A932A9D2A47
:1054F000A72A202BB12AB92AC12ACB2AD52ADF2AEA
:10550000EE2AF82A202B022B0C2B162B84B5806850
:1055100084BDC7BDDF91CF911F91089584B580628E
:1055200084BDC8BDF7CF80918000806880938000E3
:10553000D0938900C0938800EDCF80918000806275
:1055400080938000D0938B00C0938A00E3CF80913A
:105550008000886080938000D0938D00C0938C0081
:10556000D9CF8091B00080688093B000C093B30021
:10557000D1CF8091B00080628093B000C093B4001E
:10558000C9CF80919000806880939000D09399005B
:10559000C0939800BFCF809190008062809390006C
:1055A000D0939B00C0939A00B5CF80919000886003
:1055B00080939000D0939D00C0939C00ABCF8091CE
:1055C000A00080688093A0008091A0008F7B8093D2
:1055D000A000D093A900C093A8009CCF8091A00008
:1055E00080628093A000D093AB00C093AA0092CFBA
:1055F0008091A00088608093A000D093AD00C093FC
:10560000AC0088CF80912001806880932001D093E6
:105610002901C09328017ECF809120018062809370
:105620002001D0932B01C0932A0174CF80912001D7
:10563000886080932001D0932D01C0932C016ACF04
:10564000C038D1050CF03ECF33CF3FB7F8948091EE
:10565000940A9091950AA091960AB091970A26B55E
:10566000A89B05C02F3F19F00196A11DB11D3FBF9A
:10567000BA2FA92F982F8827BC01CD01620F711D69
:10568000811D911D42E0660F771F881F991F4A9563
:10569000D1F708958F929F92AF92BF92CF92DF92EF
:1056A000EF92FF926B017C010E94252B4B015C0164
:1056B000C114D104E104F104B9F00E94252B68194A
:1056C00079098A099B09683E73408105910580F339
:1056D00021E0C21AD108E108F10888EE880E83E0C3
:1056E000981EA11CB11CE4CFFF90EF90DF90CF90EB
:1056F000BF90AF909F908F9008952FB7F8946091CE
:10570000900A7091910A8091920A9091930A2FBF0A
:10571000089508950895DB0114964D915C911597B5
:105720006D917C91DC01ED91FC910280F381E02D83
:105730001994AF92BF92CF92DF92EF92FF920F93A4
:105740001F93CF93DF936C017B018B01040F151F17
:10575000EB015E01AE18BF08C017D10759F069917F
:10576000D601ED91FC910190F081E02DC6011995D3
:10577000892B79F7C501DF91CF911F910F91FF9090
:10578000EF90DF90CF90BF90AF900895FC01538DC4
:10579000448D252F30E0842F90E0821B930B54170B
:1057A00010F0CF96089501970895FC01918D828D98
:1057B000981761F0A28DAE0FBF2FB11D5D968C9131
:1057C000928D9F5F9F73928F90E008958FEF9FEF70
:1057D0000895FC01918D828D981731F0828DE80F2C
:1057E000F11D858D90E008958FEF9FEF0895FC01E6
:1057F000918D228D892F90E0805C9F4F821B9109B3
:105800008F739927089580E59BE00E94F72B21E094
:10581000892B09F420E0822F08958DEE9BE00E94F1
:10582000F72B21E0892B09F420E0822F0895FC0159
:10583000A48DA80FB92FB11DA35ABF4F2C91848DF1
:1058400090E001968F739927848FA689B7892C934E
:10585000A089B1898C91837080648C93938D848DA1
:10586000981306C00288F389E02D80818F7D8083A4
:105870000895EF92FF920F931F93CF93DF93EC0164
:1058800081E0888F9B8D8C8D98131AC0E889F989E7
:10589000808185FF15C09FB7F894EE89FF896083EA
:1058A000E889F98980818370806480839FBF81E06B
:1058B00090E0DF91CF911F910F91FF90EF900895AD
:1058C000F62E0B8D10E00F5F1F4F0F731127E02E88
:1058D0008C8D8E110CC00FB607FCFACFE889F989C0
:1058E000808185FFF5CFCE010E94172CF1CFEB8D83
:1058F000EC0FFD2FF11DE35AFF4FF0829FB7F89494
:105900000B8FEA89FB8980818062CFCFCF93DF93B1
:10591000EC01888D8823B9F0AA89BB89E889F989C7
:105920008C9185FD03C0808186FD0DC00FB607FCFC
:10593000F7CF8C9185FFF2CF808185FFEDCFCE012F
:105940000E94172CE9CFDF91CF91089580E090E07D
:10595000892B29F00E940D2C81110E94000080E00B
:1059600090E0892B49F080E090E0892B29F00E949B
:10597000000081110E94000080E090E0892B49F036
:1059800080E090E0892B29F00E94000081110E94A4
:10599000000080E090E0892B29F00E94032C811107
:1059A0000C9400000895CF93CFB7F89480914B08E2
:1059B000811127C0EDE6F0E58491E3EBF0E59491E9
:1059C000E82FF0E0EE0FFF1FEC55F14BA591B491DD
:1059D000EC91E92321F461E085E30E94EF2961E085
:1059E00085E30E941D2A8CB580618CBD8CB58064D6
:1059F0008CBD61E084E30E941D2A61E083E30E9484
:105A00001D2A80914B088F5F80934B08CFBFCF91A9
:105A10000895FC0120812EBD9B012150310941F0E8
:105A200051810DB407FEFDCF4EB55EBD4193F5CF5C
:105A300061507109860F971F0DB407FEFDCF2EB57B
:105A4000FC0120830895E091E10AF091E20A80814F
:105A50009091E00A892B80830895E091E10AF0910A
:105A6000E20A90818091E00A8095892380830895DD
:105A700090E02091E30A233339F40C96982F990F84
:105A8000990F990F80E008954896F8CFCF93DF9350
:105A90001F92CDB7DEB76983DC01ED91FC910280E6
:105AA000F381E02D41E050E0BE016F5F7F4F19951B
:105AB0000F90DF91CF910895CF93DF931F92CDB7D1
:105AC000DEB76983DC01ED91FC910280F381E02D6A
:105AD00041E050E0BE016F5F7F4F19950F90DF915D
