:100000000C94822B0C94607E0C94357E0C940A7EAA
:100010000C94DF7D0C94B47D0C94897D0C945E7DF2
:100020000C94337D0C94B32B0C94B32B0C94B32B06
:100030000C94B32B0C94B32B0C94B32B0C94B32BC8
:100040000C94B32B0C94B32B0C94B32B0C94B32BB8
:100050000C94B32B0C94B32B0C94B32B0C94E97C21
:100060000C94B32B0C94157F0C94EB7E0C94B32B57
:100070000C94B32B0C94B32B0C94B32B0C94B32B88
:100080000C94B32B0C94B32B0C94B32B0C94B32B78
:100090000C94B32B0C94B32B0C94B32B0C94B32B68
:1000A0000C94B32B0C94B32B0C94B32B0C94B32B58
:1000B0000C94B32B0C94B32B0C94B32B0C94B32B48
:1000C0000C94B32B0C94B32B0C94B32B0C94B32B38
:1000D0000C94B32B0C94B32B0C94B57E0C948B7EA8
:1000E0000C94B32B0C949B2C0C9455380C94782CBA
:1000F0000C94CF2D0C94FD2D0C94583D0C94E02CB9
:100100000C94E8360C9478360C9463300C94DC2C08
:100110000C94D72D0C94A7430C945C3B0C94153590
:100120000C9401350C94162E0C94D5360C94E336B1
:100130000C94323E0C94D9360C942A400C94342EF4
:100140000C940C2E0C94E7370C9433380C94A52C9B
:100150000C94F0360C94F5360C94A92C0C94202EAB
:100160000C94E5360C94473B0C94AC3F0C94A62EB3
:100170000C94A12C0C94C52D0C943E2E0C94AE40E6
:100180000C94E92D0C94D22C0C94142F0C94B62EB4
:100190000C94CE2C0C9457400C94562F0C947B3E10
:1001A0000C94A32F0C949A300C9446920C94953E88
:1001B0000C94C42C0C94F7340C948F4C0C94E23BAC
:1001C0000C94B02C0C94E32E0C9416390C94513EE4
:1001D0000C94C73B0C94F7460C94DB2C0C94AC2D80
:1001E0000C94783F0C9407380C94013D0C94A72E86
:1001F0000C94C82C0C94B12D0C942A2E0C940B3515
:100200000C94F9360C94BB2D0C94D62C0C94B62C73
:100210000C94BA2C0C94F1360C94062F0C94F22EFC
:100220000C94363A0C947C2C0C941F350C94AD2C09
:100230000C94E77F0C94EB400C9429350C9409370F
:100240000C9425390C9479300C948E380C94C02C75
:100250000C945A3F0C94F32D0C9410370C941A44C0
:100260000C948F300C94DF2D0C94A42D00407A1048
:10027000F35A00A0724E18090010A5D4E80000E857
:100280007648170000E40B54020000CA9A3B0000B5
:1002900000E1F505000080969800000040420F0044
:1002A0000000A08601000000102700000000E80305
:1002B000000000006400000000000A0000000000D0
:1002C0000100000000002C76D888DC674F0823DF8F
:1002D000C1DFAE59E1B1B796E5E3E453C63AE65162
:1002E000997696E8E6C28426EB898C9B62ED407C89
:1002F0006FFCEFBC9C9F40F2BAA56FA5F490055A25
:100300002AF75C936B6CF9676DC11BFCE0E40D4749
:10031000FEF520E6B500D0ED902E0300943577056C
:100320000080841E080000204E0A000000C80C3324
:100330003333330F986E12831141EF8D2114893BB3
:10034000E65516CFFEE6DB18D1844B381BF77C1D33
:10035000901DA4BBE424203284725E228100C9F186
:1003600024ECA1E53D27343034204E6F7420466FD5
:10037000756E6400436F6E6E656374696F6E3A20CC
:10038000636C6F736500436F6E74656E742D547982
:1003900070653A20746578742F706C61696E0048DE
:1003A0005454502F312E3120343034204E6F74206D
:1003B000466F756E64003C2F74626F64793E3C2F0B
:1003C0007461626C653E3C2F74643E3C2F74723ED7
:1003D0003C2F7461626C653E3C2F6469763E3C2F15
:1003E0006469763E3C2F626F64793E3C2F68746D81
:1003F0006C3E003C2F74643E3C2F74723E00222CF5
:10040000656E636F6465555249436F6D706F6E65BD
:100410006E7428746869732E76616C756529292756
:100420003E0027206F6E6368616E67653D277365C8
:100430006E64436F6D6D616E642822616C696173D7
:100440005F647331386232305F00272076616C75EB
:10045000653D270027206E616D653D27616C6961F0
:10046000735F647331386232305F00273E3C2F7413
:10047000643E3C74643E3C696E707574207479709F
:10048000653D2774657874272069643D27616C6930
:1004900061735F647331386232305F003C2F746483
:1004A0003E3C74642069643D2764733138623230A5
:1004B0005F74656D7000273E003C2F74643E3C7491
:1004C000642069643D27647331386232305F736E33
:1004D000003C74723E3C74643E44533138423230C6
:1004E0002D003C2F74626F64793E3C2F7461626C06
:1004F000653E3C2F74643E3C746420776964746884
:100500003D27353025273E3C68333E312D576972F3
:10051000652053656E736F727320445331384232D5
:10052000303C2F68333E3C7461626C6520636C61C3
:1005300073733D276F6E65776972652D7461626CA8
:1005400065272069643D2764733138623230546115
:10055000626C65273E3C74626F64793E003C2F7488
:10056000643E3C2F74723E00222C656E636F64659E
:10057000555249436F6D706F6E656E74287468696B
:10058000732E76616C75652929273E0027206F6ED2
:100590006368616E67653D2773656E64436F6D6D5B
:1005A000616E642822616C6961735F6473323433F5
:1005B000385F00272076616C75653D270027206E27
:1005C000616D653D27616C6961735F6473323433BB
:1005D000385F00273E3C2F74643E3C74643E3C69A7
:1005E0006E70757420747970653D27746578742712
:1005F0002069643D27616C6961735F6473323433D1
:10060000385F00273E3C2F74643E3C74642069646C
:100610003D276473323433385F7673656E73002719
:100620003E3C2F74643E3C74642069643D276473CF
:10063000323433385F766164003C2F74643E3C741E
:10064000642069643D276473323433385F74656DA8
:100650007000273E003C2F74643E3C746420696443
:100660003D276473323433385F736E003C74723EDE
:100670003C74643E4453323433382D003C64697614
:10068000207374796C653D27626F726465723A31CC
:10069000707820736F6C696420236363633B6D61C2
:1006A0007267696E2D626F74746F6D3A3130707855
:1006B0003B273E3C7461626C6520636C6173733DE3
:1006C000276F75746572273E3C74723E3C746420DB
:1006D00077696474683D27353025273E3C68333E92
:1006E000312D576972652053656E736F72732044A4
:1006F00053323433383C2F68333E3C7461626C654E
:1007000020636C6173733D276F6E65776972652D29
:100710007461626C65272069643D276473323433E9
:10072000385461626C65273E3C74626F64793E00A8
:100730003C2F7461626C653E3C2F74643E3C2F74A8
:10074000723E3C2F7461626C653E3C2F6469763E5C
:10075000003C2F74643E3C2F74723E00222C656E68
:10076000636F6465555249436F6D706F6E656E744B
:1007700028746869732E76616C75652929273E0097
:1007800027206F6E6368616E67653D2773656E64D1
:10079000436F6D6D616E642822616C6961735F6186
:1007A0006E614F75745F00272076616C75653D271B
:1007B0000027206E616D653D27616C6961735F6123
:1007C0006E614F75745F0056293C2F74643E3C7413
:1007D000643E3C696E70757420747970653D277451
:1007E000657874272069643D27616C6961735F6176
:1007F0006E614F75745F00273E28003C2F74643E85
:100800003C74642069643D27616E614F7574566F56
:100810006C7461676500222C746869732E76616C54
:10082000756529273E0027206F6E6368616E6765D6
:100830003D2773656E64436F6D6D616E6428226140
:100840006E614F75740027206D696E3D273027203B
:100850006D61783D27323535272076616C75653DB1
:10086000270027206E616D653D27616E614F7574AD
:10087000003C2F74643E3C74643E3C696E70757439
:1008800020747970653D276E756D626572272069E9
:10089000643D27616E614F7574003C74723E3C7418
:1008A000643E414F20003C2F74626F64793E3C2FC0
:1008B0007461626C653E3C2F74643E3C74642077C6
:1008C000696474683D27353025273E3C68333E41D6
:1008D0006E616C6F67204F7574707574732028306B
:1008E0002D323535203D20302D313056293C2F68B2
:1008F000333E3C7461626C6520636C6173733D27A9
:10090000696E6E6572273E003C2F74643E3C2F7406
:10091000723E00222C656E636F6465555249436FC9
:100920006D706F6E656E7428746869732E76616C75
:1009300075652929273E0027206F6E6368616E6701
:10094000653D2773656E64436F6D6D616E6428222B
:10095000616C6961735F616E61496E7075745F008F
:10096000272076616C75653D270027206E616D65D7
:100970003D27616C6961735F616E61496E7075746A
:100980005F003C2F74643E3C74643E3C696E70753D
:100990007420747970653D277465787427206964C4
:1009A0003D27616C6961735F616E61496E7075743A
:1009B0005F00273E003C2F74643E3C7464206964F1
:1009C0003D2761695F737461747573003C74723E96
:1009D0003C74643E414920003C646976207374791C
:1009E0006C653D27626F726465723A31707820736E
:1009F0006F6C696420236363633B6D617267696E2A
:100A00002D626F74746F6D3A313070783B273E3CC5
:100A10007461626C6520636C6173733D276F7574DC
:100A20006572273E3C74723E3C746420776964743E
:100A3000683D27353025273E3C68333E416E616C6A
:100A40006F6720496E707574732028302D313032F5
:100A500034203D20302D313056293C2F68333E3C28
:100A60007461626C6520636C6173733D27696E6E9F
:100A70006572272069643D27616E61496E707574E7
:100A8000735461626C65273E3C74626F64793E000A
:100A90003C2F74626F64793E3C2F7461626C653EDA
:100AA0003C2F74643E3C2F74723E3C2F7461626C28
:100AB000653E3C2F6469763E003C2F74643E3C2FBB
:100AC00074723E00222C656E636F64655552494313
:100AD0006F6D706F6E656E7428746869732E7661C1
:100AE0006C75652929273E0027206F6E6368616E4B
:100AF00067653D2773656E64436F6D6D616E642835
:100B000022616C6961735F646967496E7075745FB7
:100B100000272076616C75653D270027206E616D8A
:100B2000653D27616C6961735F646967496E7075C3
:100B3000745F003C2F74643E3C74643E3C696E708C
:100B4000757420747970653D277465787427206901
:100B5000643D27616C6961735F646967496E707594
:100B6000745F00273E003C2F74643E3C746420692F
:100B7000643D2764695F737461747573003C7472BB
:100B80003E3C74643E444920003C2F74626F64799B
:100B90003E3C2F7461626C653E3C2F74643E3C7435
:100BA000642077696474683D27353025273E3C68AA
:100BB0003320636C6173733D276469672D696E70C0
:100BC0007574732D7469746C65273E446967697424
:100BD000616C20496E707574732031332D32343C52
:100BE0002F68333E3C7461626C6520636C61737383
:100BF0003D27696E6E6572272069643D27646967C9
:100C0000496E707574735461626C6532273E3C7432
:100C1000626F64793E003C2F74643E3C2F74723ED8
:100C200000222C656E636F6465555249436F6D7089
:100C30006F6E656E7428746869732E76616C756565
:100C40002929273E0027206F6E6368616E67653D26
:100C50002773656E64436F6D6D616E642822616CED
:100C60006961735F646967496E7075745F002720FE
:100C700076616C75653D270027206E616D653D27A7
:100C8000616C6961735F646967496E7075745F0058
:100C90003C2F74643E3C74643E3C696E70757420F5
:100CA000747970653D2774657874272069643D27E1
:100CB000616C6961735F646967496E7075745F0028
:100CC000273E003C2F74643E3C74642069643D27D9
:100CD00064695F737461747573003C74723E3C7434
:100CE000643E444920003C646976207374796C65E5
:100CF0003D27626F726465723A31707820736F6C51
:100D0000696420236363633B6D617267696E2D6262
:100D10006F74746F6D3A313070783B273E3C74616C
:100D2000626C6520636C6173733D276F75746572C7
:100D3000273E3C74723E3C74642077696474683D5D
:100D400027353025273E3C683320636C6173733D43
:100D5000276469672D696E707574732D7469746C7E
:100D600065273E4469676974616C20496E707574CB
:100D70007320312D31323C2F68333E3C7461626CFC
:100D80006520636C6173733D27696E6E6572272001
:100D900069643D27646967496E7075747354616254
:100DA0006C6531273E3C74626F64793E003C2F7461
:100DB00061626C653E3C2F74643E3C2F74723E3C15
:100DC0002F7461626C653E3C2F74643E3C2F7472DC
:100DD0003E3C2F7461626C653E3C2F6469763E0038
:100DE0003C2F74643E3C2F74723E00222C656E636F
:100DF0006F6465555249436F6D706F6E656E7428F0
:100E0000746869732E76616C75652929273E002701
:100E1000206F6E6368616E67653D2773656E64431E
:100E20006F6D6D616E642822616C6961735F6C73B4
:100E3000735F00272076616C75653D270027206E63
:100E4000616D653D27616C6961735F6C73735F00F1
:100E50003C2F74643E3C74643E3C696E7075742033
:100E6000747970653D2774657874272069643D271F
:100E7000616C6961735F6C73735F002D00222C7469
:100E80006869732E76616C756529273E0027206F8F
:100E90006E6368616E67653D2773656E64436F6D51
:100EA0006D616E6428226C73730027206D696E3D3E
:100EB000273027206D61783D273235352720766130
:100EC0006C75653D270027206E616D653D276C734D
:100ED0007350574D003C696E70757420747970655D
:100EE0003D276E756D626572272069643D276C73BE
:100EF0007350574D003E3C2F74643E3C74643E007A
:100F000020636865636B656400222C746869732EC6
:100F1000636865636B65643F313A30292700272099
:100F20006F6E6368616E67653D2773656E64436FBE
:100F30006D6D616E6428226C73730027206E616D85
:100F4000653D276C7373003C2F74643E3C74643EB3
:100F50003C696E70757420747970653D27636865AF
:100F6000636B626F78272069643D276C7373003C64
:100F700074723E3C74643E4C535320003C2F7461A9
:100F8000626C653E3C2F74643E3C2F74723E3C7430
:100F9000723E3C74643E3C68333E4C6F772D53691F
:100FA0006465205377697463686573205374617452
:100FB00075732028302D323535203D20302D562BAD
:100FC000293C2F68333E3C7461626C6520636C6120
:100FD00073733D27696E6E6572273E003C2F746403
:100FE0003E3C2F74723E00222C656E636F64655523
:100FF0005249436F6D706F6E656E742874686973C3
:101000002E76616C75652929273E0027206F6E6357
:1010100068616E67653D2773656E64436F6D6D61D2
:101020006E642822616C6961735F6873735F002767
:101030002076616C75653D270027206E616D653DEA
:1010400027616C6961735F6873735F003C2F746420
:101050003E3C74643E3C696E7075742074797065B2
:101060003D2774657874272069643D27616C696148
:10107000735F6873735F00222C746869732E7661E6
:101080006C756529273E0027206F6E6368616E6767
:10109000653D2773656E64436F6D6D616E642822D4
:1010A0006873730027206D696E3D273027206D61BE
:1010B000783D27323535272076616C75653D2700F0
:1010C00027206E616D653D2768737350574D003E54
:1010D0003C2F74643E3C74643E3C696E70757420B1
:1010E000747970653D276E756D626572272069643D
:1010F0003D2768737350574D0020636865636B65C7
:101100006400222C746869732E636865636B656480
:101110003F313A3029270027206F6E6368616E6780
:10112000653D2773656E64436F6D6D616E64282243
:101130006873730027206E616D653D2768737300C7
:101140003C2F74643E3C74643E3C696E7075742040
:10115000747970653D27636865636B626F782720DB
:1011600069643D27687373003C74723E3C74643E4E
:1011700048535320003C7461626C6520636C61735A
:10118000733D27696E6E6572273E3C74723E3C74F7
:10119000643E3C68333E486967682D536964652046
:1011A0005377697463686573205374617475732031
:1011B00028302D323535203D20302D562B293C2F1F
:1011C00068333E3C7461626C6520636C6173733D8F
:1011D00027696E6E6572273E003C2F7461626C65F4
:1011E0003E3C2F74643E3C74642077696474683DAF
:1011F00027353025273E003C2F74643E3C2F747207
:101200003E00222C656E636F6465555249436F6DD5
:10121000706F6E656E7428746869732E76616C7574
:10122000652929273E0027206F6E6368616E676518
:101230003D2773656E64436F6D6D616E6428226136
:101240006C6961735F72656C61795F0027207661FC
:101250006C75653D270027206E616D653D27616CCB
:101260006961735F72656C61795F003E3C2F7464E5
:101270003E3C74643E3C696E707574207479706590
:101280003D2774657874272069643D27616C696126
:10129000735F72656C61795F0020636865636B657D
:1012A0006400222C746869732E636865636B6564DF
:1012B0003F313A3029270027206F6E6368616E67DF
:1012C000653D2773656E64436F6D6D616E642822A2
:1012D00072656C61790027206E616D653D277265CE
:1012E0006C6179003C2F74643E3C74643E3C696ED2
:1012F00070757420747970653D27636865636B62EF
:101300006F78272069643D2772656C6179003C74B1
:10131000723E3C74643E52656C617920003C6469A5
:1013200076207374796C653D27626F726465723ADA
:1013300031707820736F6C696420236363633B6D45
:10134000617267696E2D626F74746F6D3A313070BF
:10135000783B273E3C7461626C6520636C617373FB
:101360003D276F75746572273E3C74723E3C746411
:101370002077696474683D27353025273E3C683303
:101380003E52656C6179205374617475733C2F68AB
:10139000333E3C7461626C6520636C6173733D27FE
:1013A000696E6E6572273E003E4F6E3C2F6F707403
:1013B000696F6E3E3C2F73656C6563743E3C2F74A1
:1013C000643E3C2F74723E3C2F7461626C653E3CFF
:1013D0002F74643E3C2F74723E3C2F7461626C65C6
:1013E0003E3C2F6469763E0073656C65637465648A
:1013F000003E4F66663C2F6F7074696F6E3E3C6FA7
:101400007074696F6E2076616C75653D2731272099
:101410000073656C6563746564003C6F7074696F1C
:101420006E2076616C75653D27302720003E4F6E3B
:101430003C2F6F7074696F6E3E3C2F73656C6563F3
:10144000743E3C2F74643E3C2F74723E3C74723E7A
:101450003C74643E53657269616C204465627567D3
:101460002028313135323030204264293C2F7464D9
:101470003E3C74643E3C73656C6563742069643DF6
:10148000276465627567456E61626C656427206FCD
:101490006E6368616E67653D2773656E64436F6D4B
:1014A0006D616E6428226465627567456E61626C69
:1014B0006564222C746869732E76616C75652927C2
:1014C0003E0073656C6563746564003E4F66663C00
:1014D0002F6F7074696F6E3E3C6F7074696F6E2011
:1014E00076616C75653D273127200073656C6563F7
:1014F000746564003C6F7074696F6E2076616C7502
:10150000653D273027200027206F6E6368616E6776
:10151000653D2773656E64436F6D6D616E6428224F
:10152000636865636B496E74657276616C222C74B6
:101530006869732E76616C756529273E206D733C52
:101540002F74643E3C2F74723E3C74723E3C746453
:101550003E50756C7365732053656E73696E6720BA
:101560002844492031302C31312C3132293C2F7420
:10157000643E3C74643E3C73656C656374206964CE
:101580003D2770756C73654F6E27206F6E636861C1
:101590006E67653D2773656E64436F6D6D616E6444
:1015A000282270756C73654F6E222C746869732ED7
:1015B00076616C756529273E0027206F6E63686130
:1015C0006E67653D2773656E64436F6D6D616E6414
:1015D000282270756C736553656E644379636C651E
:1015E000222C746869732E76616C756529273E20FC
:1015F0006D733C2F74643E3C2F74723E3C74723E9B
:101600003C74643E50696E672044484350204379DF
:10161000636C653C2F74643E3C74643E3C696E7040
:10162000757420747970653D276E756D62657227DB
:101630002069643D27636865636B496E74657276E3
:10164000616C27206D696E3D273230303027206D68
:1016500061783D27363030303027207374796C65DF
:101660003D2777696474683A383070783B27207674
:10167000616C75653D270027206F6E6368616E673A
:10168000653D2773656E64436F6D6D616E642822DE
:10169000616E61496E7075744379636C65222C7458
:1016A0006869732E76616C756529273E206D733CE1
:1016B0002F74643E3C2F74723E3C74723E3C7464E2
:1016C0003E50756C7365732053656E642043796377
:1016D0006C653C2F74643E3C74643E3C696E70756E
:1016E0007420747970653D276E756D626572272070
:1016F00069643D2770756C736553656E64437963E7
:101700006C6527206D696E3D27323030302720739D
:1017100074796C653D2777696474683A38307078FD
:101720003B272076616C75653D270027206F6E632F
:1017300068616E67653D2773656E64436F6D6D61AB
:101740006E6428226F6E65576972654379636C65B4
:10175000222C746869732E76616C756529273E208A
:101760006D733C2F74643E3C2F74723E3C74723E29
:101770003C74643E416E616C6F6720496E70757495
:10178000204379636C653C2F74643E3C74643E3C3A
:10179000696E70757420747970653D276E756D6221
:1017A0006572272069643D27616E61496E707574AA
:1017B0004379636C6527206D696E3D273230303088
:1017C00027207374796C653D2777696474683A38AB
:1017D0003070783B272076616C75653D27002720A7
:1017E0006F6E6368616E67653D2773656E64436FF6
:1017F0006D6D616E64282273657269616C4E756DE2
:10180000626572222C746869732E76616C75652925
:10181000273E3C2F74643E3C2F74723E3C2F746113
:10182000626C653E3C2F74643E3C7464207769644E
:1018300074683D27353025273E3C68333E4F746839
:1018400065722073657474696E67733C2F68333EEC
:101850003C7461626C6520636C6173733D276F74C7
:101860006865722D73657474696E67732D74616237
:101870006C65273E3C74723E3C74643E312D576962
:101880007265204379636C653C2F74643E3C7464DC
:101890003E3C696E70757420747970653D276E7575
:1018A0006D626572272069643D276F6E65576972A6
:1018B000654379636C6527206D696E3D273530304F
:1018C0003027207374796C653D2777696474683AB2
:1018D000383070783B272076616C75653D2700278E
:1018E000206F6E6368616E67653D27666574636827
:1018F00028222F636F6D6D616E643F646573637240
:10190000697074696F6E3D222B656E636F646555F7
:101910005249436F6D706F6E656E74287468697399
:101920002E76616C75652929273E3C2F74643E3CF8
:101930002F74723E3C74723E3C74643E536572690F
:10194000616C204E756D6265723C2F74643E3C7410
:10195000643E3C696E70757420747970653D2774BF
:10196000657874272069643D2773657269616C4EE0
:10197000756D62657227206D61786C656E6774683D
:101980003D273230272076616C75653D27003C2F5E
:1019900074643E3C2F74723E3C74723E3C74643EF0
:1019A0004465736372697074696F6E3C2F74643E32
:1019B0003C74643E3C696E70757420747970653D4A
:1019C0002774657874272069643D276465736372A2
:1019D000697074696F6E27206D61786C656E6774CD
:1019E000683D273230272076616C75653D27003AC7
:1019F0000030003C2F74643E3C2F74723E3C747285
:101A00003E3C74643E4D414320416464726573738F
:101A10003C2F74643E3C74643E003C2F74643E3C36
:101A20002F74723E3C74723E3C74643E4761746530
:101A30007761793C2F74643E3C74643E003C2F74A3
:101A4000643E3C2F74723E3C74723E3C74643E496A
:101A500050204164647265737320284448435029C0
:101A60003C2F74643E3C74643E003C646976207391
:101A700074796C653D27626F726465723A31707873
:101A800020736F6C696420236363633B6D617267CD
:101A9000696E2D626F74746F6D3A313070783B27C8
:101AA0003E3C7461626C6520636C6173733D276FAB
:101AB00075746572273E3C74723E3C74642077698D
:101AC0006474683D27353025273E3C68333E4261CB
:101AD00073696320496E666F726D6174696F6E3CE5
:101AE0002F68333E3C7461626C6520636C61737374
:101AF0003D2762617369632D696E666F2D74616243
:101B00006C65273E3C74723E3C74643E44495020F0
:101B100053776974636820416464726573733C2F02
:101B200074643E3C74643E0020436F6E74726F6C4C
:101B30002050616E656C3C2F68323E003C626F64E1
:101B4000793E3C64697620636C6173733D27636FF3
:101B50006E7461696E6572273E3C64697620636CC1
:101B60006173733D2772657365742D627574746F4C
:101B70006E273E3C696E70757420747970653D27E0
:101B8000627574746F6E27206F6E636C69636B3D52
:101B900022736176654368616E6765732829222028
:101BA00076616C75653D2753617665206368616E6B
:101BB000676573273E3C696E707574207479706533
:101BC0003D27627574746F6E27206F6E636C696356
:101BD0006B3D2277696E646F772E6C6F63617469F9
:101BE0006F6E2E687265663D272F696E666F2722BD
:101BF0002076616C75653D275669657720446F6373
:101C000073273E3C696E70757420747970653D274A
:101C1000627574746F6E27206F6E636C69636B3DC1
:101C200022696628636F6E6669726D28275468653D
:101C3000206D6F64756C652077696C6C20726562CD
:101C40006F6F742E20436F6E74696E75653F272920
:101C5000292077696E646F772E6C6F636174696F8A
:101C60006E2E687265663D272F7265626F6F7427EE
:101C7000222076616C75653D275265626F6F74270F
:101C80003E3C2F6469763E3C68323E5261696C642A
:101C900075696E6F20003C2F7363726970743E3CEF
:101CA0002F686561643E0066756E6374696F6E20AF
:101CB000736176654368616E6765732829207B765A
:101CC000617220706172616D73203D2027273B7621
:101CD00061722073657269616C203D20646F637569
:101CE0006D656E742E676574456C656D656E7442C6
:101CF000794964282773657269616C4E756D6265F8
:101D00007227292E76616C75653B6966202873659C
:101D10007269616C2920706172616D73202B3D20A6
:101D20002773657269616C4E756D6265723D27201F
:101D30002B20656E636F6465555249436F6D706FFC
:101D40006E656E742873657269616C29202B20277B
:101D500026273B7661722064657363203D20646FA3
:101D600063756D656E742E676574456C656D656E23
:101D70007442794964282764657363726970746971
:101D80006F6E27292E76616C75653B696620286425
:101D90006573632920706172616D73202B3D20276C
:101DA0006465736372697074696F6E3D27202B20C0
:101DB000656E636F6465555249436F6D706F6E65F4
:101DC0006E74286465736329202B202726273B76B1
:101DD0006172206F6E6557697265203D20646F6384
:101DE000756D656E742E676574456C656D656E7492
:101DF0004279496428276F6E655769726543796334
:101E00006C6527292E76616C75653B696620286FA5
:101E10006E65576972652920706172616D73202B40
:101E20003D20276F6E65576972654379636C653D28
:101E300027202B206F6E6557697265202B2027267F
:101E4000273B76617220616E61496E707574203D2A
:101E500020646F63756D656E742E676574456C657F
:101E60006D656E74427949642827616E61496E70B0
:101E700075744379636C6527292E76616C75653BB3
:101E800069662028616E61496E70757429207061E1
:101E900072616D73202B3D2027616E61496E7075F4
:101EA000744379636C653D27202B20616E61496E18
:101EB000707574202B202726273B76617220707561
:101EC0006C736553656E64203D20646F63756D654A
:101ED0006E742E676574456C656D656E74427949E4
:101EE00064282770756C736553656E644379636C01
:101EF0006527292E76616C75653B696620287075AB
:101F00006C736553656E642920706172616D732016
:101F10002B3D202770756C736553656E6443796340
:101F20006C653D27202B2070756C736553656E645E
:101F3000202B202726273B76617220636865636B20
:101F4000496E74203D20646F63756D656E742E67F5
:101F50006574456C656D656E7442794964282763C4
:101F60006865636B496E74657276616C27292E769D
:101F7000616C75653B69662028636865636B496EB3
:101F8000742920706172616D73202B3D2027636876
:101F900065636B496E74657276616C3D27202B20FA
:101FA000636865636B496E74202B202726273B7678
:101FB00061722070756C73654F6E496E7075742018
:101FC0003D20646F63756D656E742E676574456C36
:101FD000656D656E7442794964282770756C736508
:101FE0004F6E27293B6966202870756C73654F6EAC
:101FF000496E7075742026262070756C73654F6E5F
:10200000496E7075742E76616C75652920706172E9
:10201000616D73202B3D202770756C73654F6E3D8D
:1020200027202B2070756C73654F6E496E70757428
:102030002E76616C7565202B202726273B766172F2
:10204000206465627567496E707574203D20646F09
:1020500063756D656E742E676574456C656D656E30
:10206000744279496428276465627567456E6162C8
:102070006C656427293B6966202864656275674939
:102080006E707574202626206465627567496E70CF
:1020900075742E76616C75652920706172616D733F
:1020A000202B3D20276465627567456E61626C6513
:1020B000643D27202B206465627567496E707574D6
:1020C0002E76616C7565202B202726273B666F7264
:1020D00020287661722069203D20313B2069203C18
:1020E0003D2031323B20692B2B29207B202076613B
:1020F000722072656C6179416C696173203D206466
:102100006F63756D656E742E676574456C656D657E
:102110006E74427949642827616C6961735F7265E6
:102120006C61795F27202B2069292E76616C75659B
:102130003B20206966202872656C6179416C696179
:10214000732920706172616D73202B3D2027616CB3
:102150006961735F72656C61795F27202B2069204C
:102160002B20273D27202B20656E636F6465555219
:1021700049436F6D706F6E656E742872656C61791E
:10218000416C69617329202B202726273B7D666FD0
:102190007220287661722069203D20313B20692021
:1021A0003C3D20343B20692B2B29207B202076616D
:1021B0007220687373416C696173203D20646F63A2
:1021C000756D656E742E676574456C656D656E74AE
:1021D000427949642827616C6961735F6873735F32
:1021E00027202B2069292E76616C75653B2020699C
:1021F000662028687373416C69617329207061726D
:10220000616D73202B3D2027616C6961735F68737A
:10221000735F27202B2069202B20273D27202B2090
:10222000656E636F6465555249436F6D706F6E657F
:102230006E7428687373416C69617329202B2027A1
:1022400026273B7D666F7220287661722069203DCB
:1022500020313B2069203C3D20343B20692B2B2939
:10226000207B2020766172206C7373416C696173EE
:10227000203D20646F63756D656E742E67657445CF
:102280006C656D656E74427949642827616C69617B
:10229000735F6C73735F27202B2069292E76616C26
:1022A00075653B2020696620286C7373416C6961F9
:1022B000732920706172616D73202B3D2027616C42
:1022C0006961735F6C73735F27202B2069202B205B
:1022D000273D27202B20656E636F64655552494367
:1022E0006F6D706F6E656E74286C7373416C69618D
:1022F0007329202B202726273B7D666F72202876A6
:1023000061722069203D20313B2069203C3D203214
:10231000343B20692B2B29207B202076617220649E
:102320006967496E707574416C696173203D206402
:102330006F63756D656E742E676574456C656D654C
:102340006E74427949642827616C6961735F6469BE
:1023500067496E7075745F27202B2069292E76617E
:102360006C75653B202069662028646967496E703A
:102370007574416C6961732920706172616D73209D
:102380002B3D2027616C6961735F646967496E70DA
:1023900075745F27202B2069202B20273D27202BB9
:1023A00020656E636F6465555249436F6D706F6E43
:1023B000656E7428646967496E707574416C6961F3
:1023C0007329202B202726273B7D666F72202876D5
:1023D00061722069203D20313B2069203C3D203244
:1023E0003B20692B2B29207B202076617220616E97
:1023F00061496E707574416C696173203D20646F32
:1024000063756D656E742E676574456C656D656E7C
:1024100074427949642827616C6961735F616E61F8
:10242000496E7075745F27202B2069292E76616CA8
:1024300075653B202069662028616E61496E707564
:1024400074416C6961732920706172616D73202B16
:102450003D2027616C6961735F616E61496E7075C3
:10246000745F27202B2069202B20273D27202B203D
:10247000656E636F6465555249436F6D706F6E652D
:102480006E7428616E61496E707574416C69617318
:1024900029202B202726273B7D666F722028766116
:1024A000722069203D20313B2069203C3D20323B99
:1024B00020692B2B29207B202076617220616E61A0
:1024C0004F7574416C696173203D20646F63756D55
:1024D000656E742E676574456C656D656E744279C2
:1024E00049642827616C6961735F616E614F75741F
:1024F0005F27202B2069292E76616C75653B202093
:1025000069662028616E614F7574416C6961732939
:1025100020706172616D73202B3D2027616C6961B1
:10252000735F616E614F75745F27202B2069202BCC
:1025300020273D27202B20656E636F646555524927
:10254000436F6D706F6E656E7428616E614F757448
:10255000416C69617329202B202726273B7D666FFC
:102560007220287661722069203D20313B2069204D
:102570003C3D2031303B20692B2B29207B202076CD
:10258000617220647332343338416C696173496E0F
:10259000707574203D20646F63756D656E742E6771
:1025A0006574456C656D656E744279496428276170
:1025B0006C6961735F6473323433385F27202B207A
:1025C00069293B20206966202864733234333841FE
:1025D0006C696173496E70757420262620647332AD
:1025E000343338416C696173496E7075742E76614D
:1025F0006C75652920706172616D73202B3D2027F9
:10260000616C6961735F6473323433385F27202BE8
:102610002069202B20273D27202B20656E636F64C7
:1026200065555249436F6D706F6E656E74286473A3
:1026300032343338416C696173496E7075742E762B
:10264000616C756529202B202726273B7D666F72DC
:1026500020287661722069203D20313B2069203C92
:102660003D2031303B20692B2B29207B20207661B7
:10267000722064733138623230416C696173496E23
:10268000707574203D20646F63756D656E742E6780
:102690006574456C656D656E74427949642827617F
:1026A0006C6961735F647331386232305F27202B4D
:1026B0002069293B20206966202864733138623202
:1026C00030416C696173496E7075742026262064F0
:1026D000733138623230416C696173496E70757460
:1026E0002E76616C75652920706172616D73202B87
:1026F0003D2027616C6961735F64733138623230E9
:102700005F27202B2069202B20273D27202B2065A9
:102710006E636F6465555249436F6D706F6E656E81
:10272000742864733138623230416C696173496E68
:102730007075742E76616C756529202B20272627ED
:102740003B7D76617220786872203D206E6577202F
:10275000584D4C48747470526571756573742829AE
:102760003B7868722E6F70656E2827474554272C7A
:1027700020272F636F6D6D616E643F27202B2070C3
:102780006172616D732C2074727565293B78687273
:102790002E6F6E72656164797374617465636861CC
:1027A0006E6765203D2066756E6374696F6E2829BB
:1027B000207B2020696620287868722E726561640B
:1027C000795374617465203D3D203420262620789D
:1027D00068722E737461747573203D3D2032303001
:1027E00029207B20202020616C657274282753618A
:1027F0007665642127293B20207D7D3B7868722EF9
:1028000073656E6428293B7D0066756E6374696F1D
:102810006E2073656E64436F6D6D616E64287061C8
:1028200072616D2C76616C7565297B6966287061B3
:1028300072616D2E7374617274735769746828279E
:1028400068737327297C7C706172616D2E7374616B
:102850007274735769746828276C737327292970F9
:10286000656E64696E67436F6D6D616E64735B70F6
:102870006172616D5D3D747275653B666574636818
:1028800028272F636F6D6D616E643F272B70617217
:10289000616D2B273D272B76616C7565292E746839
:1028A000656E28726573706F6E73653D3E726573F9
:1028B000706F6E73652E746578742829292E74687C
:1028C000656E28646174613D3E7B69662870617243
:1028D000616D2E7374617274735769746828276808
:1028E000737327297C7C706172616D2E73746172C1
:1028F00074735769746828276C7373272929646572
:102900006C6574652070656E64696E67436F6D6D8C
:10291000616E64735B706172616D5D3B7570646163
:10292000746553746174757328293B7D293B7D64FC
:102930006F63756D656E742E6164644576656E7443
:102940004C697374656E65722827444F4D436F6EF2
:1029500074656E744C6F61646564272C7570646176
:102960007465537461747573293B00666F72286CCB
:10297000657420693D303B693C646174612E616C13
:102980006961735F6473323433382E6C656E6774BB
:10299000683B692B2B297B6C657420616C696173C2
:1029A000496E7075743D646F63756D656E742E67E6
:1029B0006574456C656D656E74427949642827615C
:1029C0006C6961735F6473323433385F272B286915
:1029D0002B3129293B696628616C696173496E70E6
:1029E000757429616C696173496E7075742E7661B6
:1029F0006C75653D646174612E616C6961735F64BF
:102A000073323433385B695D7C7C27273B7D666F8E
:102A100072286C657420693D303B693C6461746167
:102A20002E616C6961735F647331386232302E6C71
:102A3000656E6774683B692B2B297B6C657420611C
:102A40006C696173496E7075743D646F63756D6513
:102A50006E742E676574456C656D656E7442794958
:102A6000642827616C6961735F6473313862323046
:102A70005F272B28692B3129293B696628616C69FE
:102A80006173496E70757429616C696173496E7008
:102A900075742E76616C75653D646174612E616C30
:102AA0006961735F647331386232305B695D7C7C6D
:102AB00027273B7D6C6574206465627567456E6190
:102AC000626C65643D646F63756D656E742E6765D9
:102AD00074456C656D656E74427949642827646538
:102AE000627567456E61626C656427293B6966287B
:102AF0006465627567456E61626C656429646562D0
:102B00007567456E61626C65642E76616C75653DB6
:102B1000646174612E6465627567456E61626C659F
:102B2000642E746F537472696E6728293B6C6574E8
:102B30002073657269616C4E756D626572496E7065
:102B400075743D646F63756D656E742E676574454D
:102B50006C656D656E744279496428277365726986
:102B6000616C4E756D62657227293B6966287365D5
:102B70007269616C4E756D626572496E707574290B
:102B800073657269616C4E756D626572496E7075C0
:102B9000742E76616C75653D646174612E73657227
:102BA00069616C4E756D6265727C7C27273B696636
:102BB0002873657269616C4E756D626572496E70DD
:102BC0007574297B696628646174612E7365726906
:102BD000616C4C6F636B65642973657269616C4EDF
:102BE000756D626572496E7075742E636C61737376
:102BF0004C6973742E61646428276E6F2D626F7246
:102C000064657227293B656C736520736572696121
:102C10006C4E756D626572496E7075742E636C6171
:102C200073734C6973742E72656D6F766528276EA9
:102C30006F2D626F7264657227293B7D66697273BE
:102C4000745570646174653D66616C73653B7D7D30
:102C5000293B7D003B692B2B297B6C657420616CC3
:102C6000696173496E7075743D646F63756D656EEF
:102C7000742E676574456C656D656E744279496440
:102C80002827616C6961735F616F5F272B28692B4F
:102C90003129293B696628616C696173496E7075D9
:102CA0007429616C696173496E7075742E76616CFC
:102CB00075653D646174612E616C6961735F616EFD
:102CC000614F7574735B695D7C7C27273B7D006673
:102CD0006F72286C657420693D303B693C003B692C
:102CE0002B2B297B6C657420616C696173496E7054
:102CF00075743D646F63756D656E742E676574459C
:102D00006C656D656E74427949642827616C6961F0
:102D1000735F6C73735F272B28692B3129293B69FB
:102D20006628616C696173496E70757429616C699C
:102D30006173496E7075742E76616C75653D646162
:102D400074612E616C6961735F6C73735B695D7C28
:102D50007C27273B7D00666F72286C657420693D77
:102D6000303B693C003B692B2B297B6C65742061EF
:102D70006C696173496E7075743D646F63756D65E0
:102D80006E742E676574456C656D656E7442794925
:102D9000642827616C6961735F6873735F272B28F0
:102DA000692B3129293B696628616C696173496E19
:102DB00070757429616C696173496E7075742E76D3
:102DC000616C75653D646174612E616C6961735FEE
:102DD0006873735B695D7C7C27273B7D00666F723F
:102DE000286C657420693D303B693C003B692B2BA6
:102DF000297B6C657420616C696173496E707574B0
:102E00003D646F63756D656E742E676574456C65A2
:102E10006D656E74427949642827616C6961735FDE
:102E200072656C61795F272B28692B3129293B69F1
:102E30006628616C696173496E70757429616C698B
:102E40006173496E7075742E76616C75653D646151
:102E500074612E616C6961735F72656C6179735B1B
:102E6000695D7C7C27273B7D00666F72286C6574EA
:102E700020693D303B693C003B692B2B297B6C650D
:102E80007420616E614F75743D646F63756D656E1E
:102E9000742E676574456C656D656E74427949641E
:102EA0002827616E614F75745F272B28692B3129A4
:102EB000293B696628616E614F757429616E614FA7
:102EC00075742E76616C75653D646174612E616EFA
:102ED000614F7574735B695D7C7C303B6C657420FD
:102EE000616E614F7574566F6C746167653D646F98
:102EF00063756D656E742E676574456C656D656E82
:102F000074427949642827616E614F7574566F6CFD
:102F100074616765272B28692B3129293B6966284D
:102F2000616E614F7574566F6C7461676529616E6F
:102F3000614F7574566F6C746167652E7465787433
:102F4000436F6E74656E743D2728272B646174612E
:102F50002E616E614F757473566F6C746167655B3B
:102F6000695D2E746F46697865642831292B275670
:102F700029273B7D00666F72286C657420693D309F
:102F80003B693C00696628666972737455706461B8
:102F90007465297B6C6574206F6E65576972654333
:102FA00079636C653D646F63756D656E742E6765DE
:102FB00074456C656D656E744279496428276F6E3F
:102FC00065576972654379636C6527293B69662893
:102FD0006F6E65576972654379636C65296F6E65BD
:102FE000576972654379636C652E76616C75653DD2
:102FF000646174612E6F6E65576972654379636CA5
:10300000657C7C33303030303B6C657420616E61A0
:10301000496E7075744379636C653D646F63756D5B
:10302000656E742E676574456C656D656E74427966
:1030300049642827616E61496E7075744379636CC9
:103040006527293B696628616E61496E7075744316
:1030500079636C6529616E61496E7075744379633B
:103060006C652E76616C75653D646174612E616E70
:1030700061496E7075744379636C657C7C31303066
:1030800030303B6C65742070756C73654F6E3D64B9
:103090006F63756D656E742E676574456C656D65DF
:1030A0006E7442794964282770756C73654F6E277A
:1030B000293B69662870756C73654F6E2970756C55
:1030C00073654F6E2E76616C75653D646174612E1B
:1030D00070756C73654F6E2E746F537472696E6782
:1030E00028293B6C65742070756C736553656E643C
:1030F0004379636C653D646F63756D656E742E67AF
:103100006574456C656D656E7442794964282770F5
:10311000756C736553656E644379636C6527293BF1
:1031200069662870756C736553656E644379636C6A
:10313000652970756C736553656E644379636C655E
:103140002E76616C75653D646174612E70756C736B
:103150006553656E644379636C657C7C31303030D7
:10316000303B6C657420636865636B496E7465728F
:1031700076616C3D646F63756D656E742E67657402
:10318000456C656D656E744279496428276368658E
:10319000636B496E74657276616C27293B6966289A
:1031A000636865636B496E74657276616C297B63D5
:1031B0006865636B496E74657276616C2E76616CBE
:1031C00075653D646174612E636865636B496E74F7
:1031D000657276616C7C7C31303030303B696628BA
:1031E000757064617465496E74657276616C49646A
:1031F00029636C656172496E74657276616C2875BD
:103200007064617465496E74657276616C49642995
:103210003B757064617465496E74657276616C4962
:10322000643D736574496E74657276616C2875705F
:10323000646174655374617475732C333030302954
:103240003B7D00666F72286C657420693D303B6978
:103250003C646174612E647331386232302E6C6567
:103260006E6774683B692B2B297B6C657420736EC9
:10327000456C656D3D646F63756D656E742E676535
:1032800074456C656D656E74427949642827647372
:1032900031386232305F736E272B28692B31292930
:1032A0003B6C65742074656D70456C656D3D646F35
:1032B00063756D656E742E676574456C656D656EBE
:1032C00074427949642827647331386232305F74FC
:1032D000656D70272B28692B3129293B6966287376
:1032E0006E456C656D262674656D70456C656D293F
:1032F0007B736E456C656D2E74657874436F6E7468
:10330000656E743D646174612E647331386232306D
:103310005B695D2E736E3B74656D70456C656D2EDB
:1033200074657874436F6E74656E743D6461746126
:103330002E647331386232305B695D2E74656D7056
:103340002B2743273B7D7D00666F72286C657420B8
:10335000693D303B693C646174612E64733234337F
:10336000382E6C656E6774683B692B2B297B6C6506
:103370007420736E456C656D3D646F63756D656E2D
:10338000742E676574456C656D656E744279496429
:1033900028276473323433385F736E272B28692BE8
:1033A0003129293B6C65742074656D70456C656DC1
:1033B0003D646F63756D656E742E676574456C65ED
:1033C0006D656E74427949642827647332343338EA
:1033D0005F74656D70272B28692B3129293B6C653B
:1033E0007420766164456C656D3D646F63756D65D1
:1033F0006E742E676574456C656D656E74427949AF
:103400006428276473323433385F766164272B284D
:10341000692B3129293B6C6574207673656E734581
:103420006C656D3D646F63756D656E742E67657454
:10343000456C656D656E7442794964282764733202
:103440003433385F7673656E73272B28692B3129E7
:10345000293B696628736E456C656D262674656D1B
:1034600070456C656D2626766164456C656D262613
:103470007673656E73456C656D297B736E456C65FF
:103480006D2E74657874436F6E74656E743D6461FF
:1034900074612E6473323433385B695D2E736E3B16
:1034A00074656D70456C656D2E74657874436F6ED0
:1034B00074656E743D646174612E647332343338A4
:1034C0005B695D2E74656D702B2743273B766164C5
:1034D000456C656D2E74657874436F6E74656E749B
:1034E0003D646174612E6473323433385B695D2EE0
:1034F0007661642B2756273B7673656E73456C6542
:103500006D2E74657874436F6E74656E743D64617E
:1035100074612E6473323433385B695D2E76736563
:103520006E732B2756273B7D7D00666F72286C6576
:103530007420693D303B693C646174612E616E6149
:10354000496E707574732E6C656E6774683B692B79
:103550002B297B6C657420737461747573456C657D
:103560006D3D646F63756D656E742E676574456C33
:10357000656D656E7442794964282761695F73746B
:1035800061747573272B28692B3129293B696628BB
:10359000737461747573456C656D297374617475AA
:1035A00073456C656D2E74657874436F6E74656ECB
:1035B000743D646174612E616E61496E70757473DF
:1035C0005B695D2B272028272B646174612E616E57
:1035D00061496E70757473566F6C746167655B6971
:1035E0005D2E746F46697865642831292B2756292A
:1035F000273B7D00666F72286C657420693D303B07
:10360000693C646174612E646967496E7075747396
:103610002E6C656E6774683B692B2B297B6C657417
:1036200020737461747573456C656D3D646F63756B
:103630006D656E742E676574456C656D656E74425C
:10364000794964282764695F737461747573272BE3
:1036500028692B3129293B69662873746174757355
:10366000456C656D297B6C6574207374617475732A
:10367000546578743D646174612E646967496E7045
:103680007574735B695D3B696628646174612E7053
:10369000756C73654F6E262628693D3D3D397C7CEF
:1036A000693D3D3D31307C7C693D3D3D31312929CD
:1036B000737461747573546578742B3D2720286387
:1036C0006F756E743A20272B646174612E70756C6F
:1036D0007365436F756E74735B692D395D2B272994
:1036E000273B737461747573456C656D2E746578D2
:1036F00074436F6E74656E743D7374617475735446
:103700006578743B7D7D003B692B2B297B6C657450
:10371000206C73733D646F63756D656E742E6765A1
:1037200074456C656D656E744279496428276C73C5
:1037300073272B28692B3129293B6C6574206C7306
:103740007350574D3D646F63756D656E742E67657C
:1037500074456C656D656E744279496428276C7395
:103760007350574D272B28692B3129293B6966282F
:103770006C73732626646174612E6C7373262664E1
:103780006174612E6C73735B695D213D3D756E6480
:103790006566696E656426262170656E64696E676C
:1037A000436F6D6D616E64735B276C7373272B2899
:1037B000692B31295D296C73732E636865636B65B2
:1037C000643D646174612E6C73735B695D3D3D3D66
:1037D000313B6966286C737350574D2626646174BB
:1037E000612E6C737350574D2626646174612E6C84
:1037F000737350574D5B695D213D3D756E64656621
:10380000696E6564262677696E646F772E616374CE
:1038100069766550574D4669656C64213D3D276C5E
:10382000737350574D272B28692B3129296C7373DB
:1038300050574D2E76616C75653D646174612E6CD8
:10384000737350574D5B695D7C7C303B7D00666FC8
:1038500072286C657420693D303B693C003B692BE4
:103860002B297B6C6574206873733D646F63756D81
:10387000656E742E676574456C656D656E7442790E
:1038800049642827687373272B28692B3129293B22
:103890006C65742068737350574D3D646F63756D2C
:1038A000656E742E676574456C656D656E744279DE
:1038B0004964282768737350574D272B28692B318B
:1038C00029293B6966286873732626646174612E12
:1038D0006873732626646174612E6873735B695D17
:1038E000213D3D756E646566696E656426262170AE
:1038F000656E64696E67436F6D6D616E64735B279F
:10390000687373272B28692B31295D296873732EFF
:10391000636865636B65643D646174612E6873738D
:103920005B695D3D3D3D313B696628687373505767
:103930004D2626646174612E68737350574D262698
:10394000646174612E68737350574D5B695D213DEE
:103950003D756E646566696E6564262677696E647A
:103960006F772E61637469766550574D4669656C53
:1039700064213D3D2768737350574D272B28692BD1
:1039800031292968737350574D2E76616C75653DEA
:10399000646174612E68737350574D5B695D7C7C04
:1039A000303B7D00666F72286C657420693D303B4A
:1039B000693C003B692B2B297B6C65742072656C1C
:1039C00061793D646F63756D656E742E67657445CE
:1039D0006C656D656E7442794964282772656C6107
:1039E00079272B28692B3129293B69662872656C58
:1039F00061792972656C61792E636865636B6564B2
:103A00003D646174612E72656C6179735B695D3BC5
:103A10007D00666F72286C657420693D303B693C9F
:103A200000666574636828272F7374617475733F2B
:103A300074733D272B6E6577204461746528292EA9
:103A400067657454696D652829292E7468656E2828
:103A5000726573706F6E73653D3E726573706F6EE5
:103A600073652E6A736F6E2829292E7468656E2817
:103A7000646174613D3E7B0066756E6374696F6E50
:103A80002075706461746553746174757328297B43
:103A9000006C657420666972737455706461746536
:103AA0003D747275653B6C657420616374697665FD
:103AB00050574D4669656C643D6E756C6C3B6C652A
:103AC000742070656E64696E67436F6D6D616E64BE
:103AD000733D7B7D3B6C65742075706461746549D2
:103AE0006E74657276616C49643D6E756C6C3B00FA
:103AF0003C7363726970743E003C21444F435459D7
:103B000050452048544D4C3E3C68746D6C3E3C68BA
:103B10006561643E3C6D65746120636861727365C4
:103B2000743D225554462D38223E3C7469746C65B0
:103B30003E5261696C6475696E6F20436F6E74727A
:103B40006F6C3C2F7469746C653E3C7374796C6562
:103B50003E626F64797B666F6E742D66616D696C11
:103B6000793A417269616C2C73616E732D73657261
:103B700069663B666F6E742D73697A653A3134708D
:103B8000783B706F736974696F6E3A72656C6174BB
:103B90006976653B7D2E636F6E7461696E65727BBD
:103BA00077696474683A3131303070783B6D617296
:103BB00067696E3A30206175746F3B706F7369741A
:103BC000696F6E3A72656C61746976653B7D6831C8
:103BD0002C68322C68337B666F6E742D66616D695C
:103BE0006C793A417269616C2C73616E732D7365E7
:103BF0007269663B7D7461626C652E696E6E65727A
:103C00007B626F726465722D636F6C6C617073653B
:103C10003A636F6C6C617073653B77696474683A82
:103C2000313030253B7D7461626C652E6F75746533
:103C3000727B626F726465723A31707820736F6C58
:103C4000696420236363633B77696474683A313045
:103C500030253B7D74647B766572746963616C2D7D
:103C6000616C69676E3A6D6964646C653B666F6E22
:103C7000742D73697A653A313470783B706164648D
:103C8000696E673A3270783B7D696E7075742C731B
:103C9000656C6563747B666F6E742D73697A653AC3
:103CA000313470783B70616464696E673A32707861
:103CB0003B7D2E72657365742D627574746F6E7BB7
:103CC000706F736974696F6E3A6162736F6C75744B
:103CD000653B746F703A3070783B72696768743A0C
:103CE0003070783B7D2E72657365742D62757474C7
:103CF0006F6E20696E7075747B70616464696E6745
:103D00003A3570783B7D74727B6865696768743A90
:103D1000323670783B7D7461626C652E696E6E65BB
:103D2000722074643A66697273742D6368696C6496
:103D30007B77696474683A31303070783B7D7461A8
:103D4000626C652E696E6E65722074643A6E74687A
:103D50002D6368696C642832297B77696474683ADA
:103D6000383070783B7D7461626C652E6261736976
:103D7000632D696E666F2D7461626C652074643AA0
:103D800066697273742D6368696C647B77696474A7
:103D9000683A31383070783B7D7461626C652E6FA3
:103DA000746865722D73657474696E67732D7461C0
:103DB000626C652074643A66697273742D63686915
:103DC0006C647B77696474683A32303070783B7D1C
:103DD0007461626C652E6F6E65776972652D7461B2
:103DE000626C652074643A66697273742D636869E5
:103DF0006C647B77696474683A383070783B7D74A2
:103E000061626C652E6F6E65776972652D74616293
:103E10006C652074643A6E74682D6368696C6428FC
:103E200032297B77696474683A31333070783B7D2E
:103E30007461626C652E6F6E65776972652D746151
:103E4000626C652074643A6E74682D6368696C6492
:103E50002833292C7461626C652E6F6E65776972E8
:103E6000652D7461626C652074643A6E74682D63AC
:103E700068696C642834292C7461626C652E6F6EDD
:103E800065776972652D7461626C652074643A6E41
:103E900074682D6368696C642835297B776964745C
:103EA000683A343070783B7D2E6E6F2D626F72648D
:103EB00065727B626F726465723A6E6F6E653B7D90
:103EC0003C2F7374796C653E00436F6E6E6563744E
:103ED000696F6E3A20636C6F736500436F6E746533
:103EE0006E742D547970653A20746578742F6874F7
:103EF0006D6C3B20636861727365743D5554462D4B
:103F00003800485454502F312E3120323030204F59
:103F10004B002048545450003F6C6F636B3D003F92
:103F20006C6F636B3D00474554202F3F004745545D
:103F3000202F200072657365743D31002075706418
:103F4000617465643A2000416E616C6F67204F7543
:103F500074707574200020757064617465643A2013
:103F6000004C5353200020757064617465643A20DE
:103F700000485353200020757064617465643A20D2
:103F80000052656C6179200020757064617465640D
:103F90003A2000616C6961735F647331386232305A
:103FA0005F00616C6961735F647331386232305FE6
:103FB0000020757064617465643A2000616C696109
:103FC000735F6473323433385F00616C6961735FAF
:103FD0006473323433385F002075706461746564D3
:103FE0003A2000616C6961735F616E614F75745F47
:103FF00000616C6961735F616E614F75745F002071
:10400000757064617465643A2000616C6961735F06
:10401000616E61496E7075745F00616C6961735F98
:10402000616E61496E7075745F00207570646174B3
:1040300065643A2000616C6961735F646967496E09
:104040007075745F00616C6961735F646967496E64
:104050007075745F0020757064617465643A200047
:10406000616C6961735F6C73735F00616C6961732C
:104070005F6C73735F0020757064617465643A20CF
:1040800000616C6961735F6873735F00616C696183
:10409000735F6873735F0020757064617465643A60
:1040A0002000616C6961735F72656C61795F0061AA
:1040B0006C6961735F72656C61795F0064656275DC
:1040C00067456E61626C65642075706461746564D7
:1040D0003A20006465627567456E61626C65643D97
:1040E000006465627567456E61626C65643D007071
:1040F000756C73654F6E20757064617465643A20E9
:104100000070756C73654F6E3D0070756C73654F14
:104110006E3D00636865636B496E74657276616CB1
:1041200020757064617465643A2000636865636B30
:10413000496E74657276616C3D00636865636B49B6
:104140006E74657276616C3D0070756C7365536555
:104150006E644379636C6520757064617465643A5C
:10416000200070756C736553656E644379636C658C
:104170003D0070756C736553656E644379636C655F
:104180003D00616E61496E7075744379636C6520A2
:10419000757064617465643A2000616E61496E7087
:1041A00075744379636C653D00616E61496E70752D
:1041B000744379636C653D006F6E65576972654342
:1041C00079636C6520757064617465643A20006F72
:1041D0006E65576972654379636C653D006F6E6506
:1041E000576972654379636C653D0044657363721A
:1041F000697074696F6E20757064617465643A20CB
:10420000006465736372697074696F6E3D00646504
:10421000736372697074696F6E3D00536572696192
:104220006C206E756D626572207570646174656472
:104230003A200073657269616C4E756D6265723DFE
:104240000073657269616C4E756D6265723D004FF9
:104250004B00436F6E6E656374696F6E3A20636CDA
:104260006F736500436F6E74656E742D547970655D
:104270003A20746578742F706C61696E00485454EC
:10428000502F312E3120323030204F4B003C2F62E6
:104290006F64793E3C2F68746D6C3E003C2F6469FE
:1042A000763E000A202020203C68333E4164646949
:1042B00074696F6E616C204E6F7465733C2F683348
:1042C0003E0A202020203C7072653E0A436F6D62DA
:1042D000696E6174696F6E206F66203177697265EF
:1042E0002073656E736F7273206D757374206265D1
:1042F00020757020746F203130706373206D617889
:10430000696D756D202844533138423230206F7208
:1043100020445332343338290A5573696E6720526A
:104320005334383520746865205544502073796EB5
:10433000746178206D7573742068617665205C6E99
:104340002073796D626F6C206174207468652065DC
:104350006E64206F662074686520636F6D6D616E9A
:1043600064206C696E650A202020203C2F707265E5
:104370003E0A202020203C703E3C61206872656629
:104380003D272F273E4261636B20746F20436F6E81
:1043900074726F6C2050616E656C3C2F613E3C2FD7
:1043A000703E0A3C2F626F64793E0A3C2F68746D40
:1043B0006C3E0A000A202020204D4F4442555320D5
:1043C0005265676973746572204D61700A72656722
:1043D0006973746572206E756D626572202020208D
:1043E000202020202020202064657363726970746F
:1043F000696F6E0A302020202020202020202020DD
:10440000202020202020202020202020202020725A
:10441000656C6179206F75747075747320312D38F7
:104420000A31202020202020202020202020202091
:1044300020202020202020202020202072656C6158
:1044400079206F75747075747320392D31320A328A
:10445000202020202020202020202020202020205C
:10446000202020202020202020206469676974619A
:104470006C206F7574707574732048535320312D00
:10448000342C204C535320312D340A33202020204B
:10449000202020202020202020202020202020201C
:1044A0002020202020204853532050574D20766153
:1044B0006C756520312028302D323535290A34209D
:1044C00020202020202020202020202020202020EC
:1044D0002020202020202020204853532050574DBA
:1044E0002076616C756520322028302D32353529D3
:1044F0000A352020202020202020202020202020BD
:10450000202020202020202020202020485353201D
:1045100050574D2076616C756520332028302D3240
:104520003535290A36202020202020202020202058
:104530002020202020202020202020202020204853
:1045400053532050574D2076616C756520342028D8
:10455000302D323535290A372020202020202020F8
:10456000202020202020202020202020202020204B
:1045700020204C53532050574D2076616C75652098
:10458000312028302D323535290A382020202020AE
:10459000202020202020202020202020202020201B
:1045A00020202020204C53532050574D2076616C02
:1045B000756520322028302D323535290A392020E2
:1045C00020202020202020202020202020202020EB
:1045D00020202020202020204C53532050574D20B5
:1045E00076616C756520332028302D323535290AE7
:1045F000313020202020202020202020202020209A
:1046000020202020202020202020204C53532050E8
:10461000574D2076616C756520342028302D323559
:1046200035290A3131202020202020202020202060
:104630002020202020202020202020202020616EEB
:10464000616C6F67206F757470757420310A313238
:10465000202020202020202020202020202020205A
:10466000202020202020202020616E616C6F672098
:104670006F757470757420320A3133202020202029
:10468000202020202020202020202020202020202A
:10469000202020206469676974616C20696E7075E0
:1046A000747320312D380A3134202020202020201E
:1046B00020202020202020202020202020202020FA
:1046C00020206469676974616C20696E7075747309
:1046D00020392D31360A313520202020202020207D
:1046E00020202020202020202020202020202020CA
:1046F000206469676974616C20696E7075747320D9
:1047000031372D32340A313620202020202020203D
:104710002020202020202020202020202020202099
:1047200020616E616C6F6720696E70757420312036
:1047300020202020202020202020302D3130323316
:104740000A31372020202020202020202020202057
:10475000202020202020202020202020616E616C3D
:104760006F6720696E707574203220202020202011
:104770002020202020302D313032330A31382020C3
:104780002020202020202020202020202020202029
:104790002020202020202073657276696365202DFB
:1047A00020726573657420286269742030290A318B
:1047B00039202020202020202020202020202020E0
:1047C00020202020202020202020317374204453DA
:1047D000323433382054656D70202876616C7565ED
:1047E000206D756C7469706C696564206279203124
:1047F0003030290A32302020202020202020202084
:104800002020202020202020202020202020203197
:104810007374204453323433382056616420287630
:10482000616C7565206D756C7469706C6965642068
:10483000627920313030290A323120202020202096
:104840002020202020202020202020202020202068
:10485000202020317374204453323433382056736F
:10486000656E73202876616C7565206D756C746952
:10487000706C69656420627920313030290A2D20FE
:104880002020202020202020202020202020202028
:1048900020202020202020200A3436202020202004
:1048A0002020202020202020202020202020202008
:1048B000202020204453323433382076616C7565D3
:1048C000732028757020746F2031302073656E73EB
:1048D0006F7273290A34372D35372020202020208D
:1048E00020202020202020202020202020202020C8
:1048F000445331384232302054656D7065726174B2
:104900007572652028757020746F203130207365B2
:104910006E736F727329202876616C7565206D75D2
:104920006C7469706C69656420627920313030295B
:104930000A000A202020203C68333E4D4F44425557
:104940005320436F6D6D616E64733C2F68333E0A74
:10495000202020203C7072653E0A4D4F4442555342
:104960002054435020636F6D6D616E64733A20462E
:104970004331202D20464331360A4D4F4442555392
:104980002052545520636F6D6D616E64733A2046FA
:1049900043332C204643362C20464331360A202010
:1049A00020203C2F7072653E0A000A636F6D6D61B6
:1049B0006E64733A0A202072656C6179206F6E20F4
:1049C000636F6D6D616E643A2020202020202020CE
:1049D000202020202020207261696C3120726F31EC
:1049E00032206F6E0A202072656C6179206F6666D6
:1049F00020636F6D6D616E643A202020202020209E
:104A0000202020202020207261696C3120726F35B7
:104A1000206F66660A20206869676820736964658C
:104A200020737769746368206F6E20636F6D6D61AA
:104A30006E643A202020207261696C3120686F32E8
:104A4000206F6E0A2020686967682073696465209A
:104A5000737769746368206F666620636F6D6D613C
:104A60006E643A2020207261696C3120686F3420B6
:104A70006F66660A2020686967682073696465202C
:104A80007377697463682050574D20636F6D6D6153
:104A90006E643A2020207261696C3120686F315F4A
:104AA00070776D203138300A20206C6F7720736961
:104AB000646520737769746368206F6E20636F6D1F
:104AC0006D616E643A20202020207261696C312073
:104AD0006C6F31206F6E0A20206C6F7720736964D1
:104AE0006520737769746368206F666620636F6DF5
:104AF0006D616E643A202020207261696C31206CF7
:104B00006F32206F66660A20206C6F7720736964AD
:104B100065207377697463682050574D20636F6D0B
:104B20006D616E643A202020207261696C31206CC6
:104B30006F315F70776D203138300A2020616E61EF
:104B40006C6F67206F757470757420636F6D6D6125
:104B50006E643A20202020202020202020726169CD
:104B60006C3120616F31203138300A20207265733A
:104B7000657420636F6D6D616E643A202020202083
:104B80002020202020202020202020202072616949
:104B90006C31207273740A64656661756C7420737D
:104BA00063616E206379636C65733A0A2020317704
:104BB000697265206379636C653A2020202020208B
:104BC00020202020202020202020202020203330C2
:104BD000303030206D730A2020616E616C6F672069
:104BE000696E707574206379636C653A20202020AB
:104BF0002020202020202020203130303030206D17
:104C0000730A000A202020203C68333E554450207F
:104C100053796E7461783C2F68333E0A202020203F
:104C20003C7072653E0A7369676E616C733A0A2064
:104C30002044533138423230203177697265207315
:104C4000656E736F72207061636B65743A2020200B
:104C5000207261696C3120317720323836346663D6
:104C6000333030383038322032352E34340A202078
:104C70004453323433382031776972652073656E5E
:104C8000736F72207061636B65743A20202020205E
:104C90007261696C312031772032363132633331C1
:104CA0003032303034662032352E343420312E32DA
:104CB0003320302E31320A20206469676974616CB8
:104CC00020696E7075742073746174653A202020B9
:104CD0002020202020202020207261696C31206457
:104CE000693120310A2020616E616C6F6720696E26
:104CF0007075742073746174653A20202020202020
:104D0000202020202020207261696C3120616931CF
:104D100020313032300A000A3C21444F435459506C
:104D2000452048544D4C3E0A3C68746D6C3E0A3C2C
:104D3000686561643E0A202020203C7469746C65BB
:104D40003E5261696C6475696E6F20446F63756D66
:104D5000656E746174696F6E3C2F7469746C653E26
:104D60000A202020203C7374796C653E0A202020A4
:104D70002020202020626F6479207B20666F6E7473
:104D80002D66616D696C793A20417269616C2C20E5
:104D900073616E732D73657269663B20666F6E7406
:104DA0002D73697A653A20313470783B206D6172D9
:104DB00067696E3A20323070783B207D0A202020CF
:104DC00020202020202E636F6E7461696E65722032
:104DD0007B2077696474683A203131303070783BD9
:104DE000206D617267696E3A2030206175746F3B87
:104DF00020706F736974696F6E3A2072656C6174AC
:104E00006976653B207D0A20202020202020206814
:104E1000322C206833207B20666F6E742D66616DA6
:104E2000696C793A20417269616C2C2073616E73F0
:104E30002D73657269663B207D0A2020202020208A
:104E40002020707265207B206261636B67726F75D2
:104E50006E643A20236634663466343B20706164A5
:104E600064696E673A20313070783B20626F7264FB
:104E700065723A2031707820736F6C696420236307
:104E800063633B2077686974652D73706163653A6D
:104E9000207072652D777261703B207D0A20202082
:104EA000202020202061207B20636F6C6F723A20CD
:104EB000233030363663633B20746578742D646527
:104EC000636F726174696F6E3A206E6F6E653B201E
:104ED0007D0A2020202020202020613A686F7665FE
:104EE00072207B20746578742D6465636F726174C1
:104EF000696F6E3A20756E6465726C696E653B20F1
:104F00007D0A202020203C2F7374796C653E0A3C7A
:104F10002F686561643E0A3C626F64793E0A202016
:104F200020203C64697620636C6173733D27636F56
:104F30006E7461696E6572273E0A202020203C68ED
:104F4000323E5261696C6475696E6F204669726D9C
:104F50007761726520446F63756D656E7461746905
:104F60006F6E3C2F68323E0A202020203C703E3C71
:104F70006120687265663D272F273E4261636B2082
:104F8000746F20436F6E74726F6C2050616E656C2D
:104F90003C2F613E3C2F703E0A00436F6E6E65638E
:104FA00074696F6E3A20636C6F736500436F6E7443
:104FB000656E742D547970653A20746578742F6825
:104FC000746D6C00485454502F312E3120323030E3
:104FD000204F4B003C2F626F64793E3C2F68746D0C
:104FE0006C3E003C7363726970743E7365745469FF
:104FF0006D656F75742866756E6374696F6E2829A8
:105000007B77696E646F772E6C6F636174696F6E06
:105010002E687265663D272F273B7D2C203530306A
:1050200030293B3C2F7363726970743E003C6833D7
:105030003E5265626F6F74696E672E2E2E3C2F682C
:10504000333E003C68746D6C3E3C626F64793E0098
:105050003C21444F43545950452048544D4C3E0048
:10506000436F6E6E656374696F6E3A20636C6F7325
:105070006500436F6E74656E742D547970653A20C7
:10508000746578742F68746D6C00485454502F31D7
:105090002E3120323030204F4B007D005D005D000E
:1050A0002C002200220022616C6961735F647331FD
:1050B00038623230223A5B005D2C005D2C002C00FF
:1050C0002200220022616C6961735F6473323433A1
:1050D00038223A5B005D2C002C0022002200226165
:1050E0006C6961735F616E614F757473223A5B0026
:1050F0005D2C002C002200220022616C6961735F2C
:10510000616E61496E70757473223A5B005D2C00AC
:105110002C002200220022616C6961735F64696760
:10512000496E70757473223A5B005D2C002C00226E
:1051300000220022616C6961735F6C7373223A5BB9
:10514000005D2C002C002200220022616C6961733A
:105150005F687373223A5B005D2C002C00220022F2
:105160000022616C6961735F72656C617973223AC8
:105170005B005D2C002C0022616E614F75747356CC
:105180006F6C74616765223A5B005D2C002C002215
:10519000616E61496E70757473566F6C746167658A
:1051A000223A5B00222C002264657363726970747A
:1051B000696F6E223A22002C002273657269616C5D
:1051C0004C6F636B6564223A00222C002273657277
:1051D00069616C4E756D626572223A22002C002264
:1051E0006465627567456E61626C6564223A002C85
:1051F0000022636865636B496E74657276616C2228
:105200003A002C002270756C736553656E644379A7
:10521000636C65223A002C002270756C73654F6ECA
:10522000223A002C0022616E61496E7075744379D8
:10523000636C65223A002C00226F6E6557697265B7
:105240004379636C65223A005D2C002C002C00220F
:1052500070756C7365436F756E7473223A5B005D95
:105260002C005D2C002C007D00222C2274656D70BA
:10527000223A007B22736E223A2200226473313874
:10528000623230223A5B005D2C005D2C002C007DE8
:10529000002C227673656E73223A002C22766164AC
:1052A000223A00222C2274656D70223A007B227310
:1052B0006E223A220022647332343338223A5B0081
:1052C0005D2C002C0022616E61496E707574732232
:1052D0003A5B005D2C002C0022646967496E707592
:1052E0007473223A5B005D2C002C0022616E614FCA
:1052F000757473223A5B005D2C002C00226C737372
:1053000050574D223A5B005D2C002C0022687373CD
:1053100050574D223A5B005D2C002C00226C7373B9
:10532000223A5B005D2C002C0022687373223A5BEA
:10533000005D2C002C002272656C617973223A5B4F
:10534000007B00485454502F312E31203230302011
:105350004F4B0A436F6E74656E742D547970653AC5
:10536000206170706C69636174696F6E2F6A736F0E
:105370006E0A436F6E6E656374696F6E3A20636C7C
:105380006F73650A00454550524F4D20696E697430
:1053900069616C697A656420776974682064656600
:1053A00061756C742076616C756573005761726EFF
:1053B000696E673A204C53532034202870696E2060
:1053C00031382920646F6573206E6F742073757097
:1053D000706F72742050574D2C2069676E6F726920
:1053E0006E672076616C7565200045746865726E25
:1053F000657420636F6E6E656374696F6E2066619D
:10540000696C65642C20726573657474696E672EAF
:105410000045746865726E657420636F6E6E6563B7
:1054200074696F6E206C6F73742C20726573657471
:1054300074696E672E00207365743A2000414F2016
:10544000002073657420746F20004C535320505714
:105450004D2000204F4646004C53532000204F4E15
:10546000004C535320002073657420746F20004853
:1054700053532050574D2000204F46460048535369
:105480002000204F4E004853532000204F46460036
:1054900052656C61792000204F4E0052656C617935
:1054A0002000444843502072656E6577206661692C
:1054B0006C004448435020726562696E64206F6BD3
:1054C000004448435020726562696E6420666169D9
:1054D0006C00444843502072656E6577206F6B0006
:1054E00000002100240027002A002D003000330096
:1054F00001010000040107010A0100000A0B020972
:105500000C0D0E080703040100000000000000005D
:10551000000000000000000000000000000000008B
:105520000000000000001211100000000000000048
:10553000000000000000000000000000000000006B
:10554000005EBCE2613FDD83C29C7E20A3FD1F4163
:105550009DC3217FFCA2401E5F01E3BD3E6082DC53
:10556000237D9FC1421CFEA0E1BF5D0380DE3C6243
:10557000BEE0025CDF81633D7C22C09E1D43A1FF33
:105580004618FAA427799BC584DA3866E5BB590723
:10559000DB856739BAE406581947A5FB7826C49A13
:1055A000653BD987045AB8E6A7F91B45C6987A2403
:1055B000F8A6441A99C7257B3A6486D85B05E7B9F3
:1055C0008CD2306EEDB3510F4E10F2AC2F7193CDE3
:1055D000114FADF3702ECC92D38D6F31B2EC0E50D3
:1055E000AFF1134DCE90722C6D33D18F0C52B0EEC3
:1055F000326C8ED0530DEFB1F0AE4C1291CF2D73B3
:10560000CA947628ABF517490856B4EA6937D58BA2
:105610005709EBB536688AD495CB2977F4AA481692
:10562000E9B7550B88D6346A2B7597C94A14F6A882
:10563000742AC896154BA9F7B6E80A54D7896B3572
:1056400000002200250028002B002E00310034002D
:1056500002010000050108010B01000020002300E9
:10566000260029002C002F00320000010000030159
:1056700006010901050505050705080808080202D5
:1056800002020A0A080804040404010101010101DC
:1056900001010303030303030303040707070C0CBF
:1056A0000C0C0C0C0C0C0202020206060606060686
:1056B00006060B0B0B0B0B0B0B0B0102102020082B
:1056C000081020401020408002010201080402015D
:1056D00001020408102040808040201008040201CC
:1056E0008004020180402010080402010804020125
:1056F00001020408102040800102040810204080AC
:10570000E77F469211241FBECFEFD1E2DEBFCDBFAF
:1057100000E00CBF15E0A0E0B2E0E6E9FAE301E04A
:105720000BBF02C007900D92A43BB107D9F72CE143
:10573000A4EBB5E001C01D92A932B207E1F71BE26C
:10574000C1E8DBE200E006C021970109802FFE01DD
:105750000E94AE9AC038D10780E00807A9F70E94DE
:10576000CC820C94399D0C940000CF92DF92EF9282
:10577000FF92CF93DF93EC016A017B01E889F989FD
:1057800082E08083C11481EED806E104F104A1F027
:1057900060E079E08DE390E0A70196010E943399E3
:1057A000215031094109510956954795379527955B
:1057B000211580E1380798F0E889F989108260E8BE
:1057C00074E88EE190E0A70196010E943399215080
:1057D0003109410951095695479537952795EC852B
:1057E000FD853083EE85FF852083188EEC89FD8949
:1057F00086E08083EA89FB89808180618083EA89F1
:10580000FB89808188608083EA89FB898081806848
:105810008083EA89FB8980818F7D8083DF91CF91AE
:10582000FF90EF90DF90CF900895209106152223EE
:1058300061F02FB7F89430910615313049F43DB33B
:10584000309305153DB33DBB2FBF8CBD9DBD089565
:1058500020930515FACF20E3FC0120833296862F92
:1058600082958F706F706A3030F4605D6293682F3C
:105870008111F5CF0895695CF9CFCF93DF93D62FCF
:105880009C0164E0369527956A95E1F7C1E02138DF
:105890004CE034070CF4C0E021384CE03407F8F455
:1058A000F901EE0FFF1FEA54F94EA081B18154E0D7
:1058B000220F331F5A95E1F7821B930B41E050E012
:1058C00060E070E004C0440F551F661F771F8A9583
:1058D000D2F7DD2341F04A2B5B2B518340838C2F81
:1058E000DF91CF910895409550954A235B23F5CFE2
:1058F000FC01818D928D089508958150823108F0C8
:105900005AC0E82FF0E08827E757F34D8F4F0C94EB
:10591000AE9AA92CAD2C9B2CA12CA52CDB2CB02C49
:10592000B62CBA2CC02CC42CC82CCE2CD22CDB2CE0
:10593000D62CDC2CE02C809180008F778093800027
:105940000895809180008F7DF9CF80918000877FBE
:10595000F5CF84B58F7784BD089584B58F7DFBCF57
:105960008091B0008F778093B00008958091B0004F
:105970008F7DF9CF809190008F778093900008956C
:10598000809190008F7DF9CF80919000877FF5CF37
:105990008091A0008F778093A00008958091A0004F
:1059A0008F7DF9CF8091A000877FF5CF8091200176
:1059B0008F77809320010895809120018F7DF9CF0A
:1059C00080912001877FF5CFCF93DF93282F30E0A0
:1059D000F901E650FB4A8491F901E654F94AD49161
:1059E000F901EC58F94AC491CC23A1F081110E942D
:1059F0007D2CEC2FF0E0EE0FFF1FE65AF94AA5913F
:105A0000B491EC91ED2381E090E009F480E0DF9126
:105A1000CF91089580E090E0FACF1F93CF93DF936A
:105A2000282F30E0F901E650FB4A8491F901E65451
:105A3000F94AD491F901EC58F94AC491CC23A9F060
:105A4000162F81110E947D2CEC2FF0E0EE0FFF1F2E
:105A5000E05CF94AA591B4918FB7F894EC911111DB
:105A600008C0D095DE23DC938FBFDF91CF911F91CB
:105A70000895DE2BF8CFCF93DF9390E0FC01E6543E
:105A8000F94A24918C58994AFC0184918823D1F0D9
:105A900090E0880F991FFC01E052FB4AA591B49158
:105AA000FC01E05CF94AC591D49161110EC09FB729
:105AB000F8948C91E22FE0958E238C932881E22339
:105AC000E8839FBFDF91CF9108958FB7F894EC9151
:105AD000E22BEC938FBFF6CF1F93CF93DF93182F5A
