:100000000C947F020C94B0020C94B0020C94B002D9
:100010000C94B0020C94B0020C94B0020C94B00298
:100020000C94B0020C94B0020C94B0020C94B00288
:100030000C94B0020C94B0020C94B0020C94B00278
:100040000C94B0020C94B0020C94B0020C94B00268
:100050000C94B0020C94B0020C94B0020C945B1D92
:100060000C94B0020C94251D0C94FB1C0C94B00253
:100070000C94B0020C94B0020C94B0020C94B00238
:100080000C94B0020C94B0020C94B0020C94B00228
:100090000C94C51C0C949B1C0C94B0020C94B002E4
:1000A0000C94B0020C94B0020C94B0020C94B00208
:1000B0000C94B0020C94B0020C94B0020C94B002F8
:1000C0000C94B0020C94B0020C94B0020C94B002E8
:1000D0000C94B0020C94B0020C94B0020C94B002D8
:1000E0000C94B0020C94BF090C94F1280C94460CAB
:1000F0000C9453040C9445040C941F170C94AB09F6
:100100000C945B040C9449040C94F6280C94C609D6
:100110000C943B040C949B290C9402290C948F2979
:100120000C94DE280C947F0F0C94390C0C9468030B
:100130000C94C8020C9436290C9442290C94A51DE9
:100140000C9404030C9420040C94E5100C942A29BC
:100150000C9477290C940E290C9465040C94B50327
:100160000C9422290C945F290C942E040C944D04B9
:100170000C94DB060C941A290C9426030C942A0484
:100180000C9461040C94812C0C94AF090C948A118A
:100190000C94570E0C9426040C94C6100C94F50283
:1001A0000C94F1060C9483290C9435040C9460048F
:1001B0000C9457040C944E290C944F120C94DA06AC
:1001C0000C946B290C9410130C94FD060C943F04B2
:1001D0000C940F110C94A7090C9432040C9418037E
:1001E00000407A10F35A00A0724E18090010A5D4EE
:1001F000E80000E87648170000E40B54020000CA4B
:100200009A3B000000E1F505000080969800000090
:1002100040420F000000A0860100000010270000EF
:100220000000E803000000006400000000000A0075
:10023000000000000100000000002C76D888DC6778
:100240004F0823DFC1DFAE59E1B1B796E5E3E453D0
:10025000C63AE651997696E8E6C28426EB898C9BED
:1002600062ED407C6FFCEFBC9C9F40F2BAA56FA58D
:10027000F490055A2AF75C936B6CF9676DC11BFC0F
:10028000E0E40D47FEF520E6B500D0ED902E03002A
:10029000943577050080841E080000204E0A000077
:1002A00000C80C333333330F986E12831141EF8D36
:1002B0002114893BE65516CFFEE6DB18D1844B3876
:1002C0001BF77C1D901DA4BBE424203284725E22A7
:1002D0008100C9F124ECA1E53D27000021002400A4
:1002E00027002A002D003000330001010000040126
:1002F00007010A0100002200250028002B002E0023
:100300003100340002010000050108010B0100006A
:100310000A0B02090C0D0E0807030401000000007F
:1003200000000000000000000000000000000000CD
:10033000000000000000000000001211100000008A
:1003400000000000000000000000000000000000AD
:1003500000000000005EBCE2613FDD83C29C7E20A5
:10036000A3FD1F419DC3217FFCA2401E5F01E3BD91
:100370003E6082DC237D9FC1421CFEA0E1BF5D0385
:1003800080DE3C62BEE0025CDF81633D7C22C09E79
:100390001D43A1FF4618FAA427799BC584DA386665
:1003A000E5BB5907DB856739BAE406581947A5FB51
:1003B0007826C49A653BD987045AB8E6A7F91B4545
:1003C000C6987A24F8A6441A99C7257B3A6486D839
:1003D0005B05E7B98CD2306EEDB3510F4E10F2AC25
:1003E0002F7193CD114FADF3702ECC92D38D6F3111
:1003F000B2EC0E50AFF1134DCE90722C6D33D18F05
:100400000C52B0EE326C8ED0530DEFB1F0AE4C12F8
:1004100091CF2D73CA947628ABF517490856B4EAE4
:100420006937D58B5709EBB536688AD495CB2977D0
:10043000F4AA4816E9B7550B88D6346A2B7597C9C4
:100440004A14F6A8742AC896154BA9F7B6E80A54B8
:10045000D7896B35000020002300260029002C00DE
:100460002F0032000001000003010601090105050B
:100470000505070508080808020202020A0A08081A
:100480000404040401010101010101010303030348
:1004900003030303040707070C0C0C0C0C0C0C0CD7
:1004A0000202020206060606060606060B0B0B0BE8
:1004B0000B0B0B0B0102102020080810204010200D
:1004C0004080020102010804020101020408102018
:1004D0004080804020100804020180040201804016
:1004E000201008040201080402010102040810207F
:1004F00040800102040810204080A51D812C112499
:100500001FBECFEFD1E2DEBFCDBF00E00CBF12E0D7
:10051000A0E0B2E0E2E0FAE600E00BBF02C0079024
:100520000D92A23FB107D9F728E0A2EFB2E001C0D7
:100530001D92A63BB207E1F712E0CEE7D2E000E061
:1005400006C021970109802FFE010E946432CD3739
:10055000D10780E00807A9F70E94AB1F0C94EF3485
:100560000C9400008CBD9DBD089520E3FC01208308
:100570003296862F82958F706F706A3030F4605D8E
:100580006293682F8111F5CF0895695CF9CF0895C2
:10059000AF92BF92CF92DF92EF92FF920F931F9391
:1005A000CF93DF936C017B018B01040F151FEB01CF
:1005B0005E01AE18BF08C017D10759F06991D60186
:1005C000ED91FC910190F081E02DC6011995892BE8
:1005D00079F7C501DF91CF911F910F91FF90EF90B7
:1005E000DF90CF90BF90AF900895FC01538D448D64
:1005F000252F30E0842F90E0821B930B541710F0CE
:10060000CF96089501970895FC01918D828D9817DA
:1006100061F0A28DAE0FBF2FB11D5D968C91928DB2
:100620009F5F9F73928F90E008958FEF9FEF0895E3
:10063000FC01918D828D981731F0828DE80FF11DAC
:10064000858D90E008958FEF9FEF0895FC01918DC7
:10065000228D892F90E0805C9F4F821B91098F73C0
:100660009927089582E695E00E94260321E0892BD0
:1006700009F420E0822F08958FEF95E00E94260371
:1006800021E0892B09F420E0822F0895FC01A48D3C
:10069000A80FB92FB11DA35ABF4F2C91848D90E0A4
:1006A00001968F739927848FA689B7892C93A08987
:1006B000B1898C91837080648C93938D848D981311
:1006C00006C00288F389E02D80818F7D80830895A4
:1006D000EF92FF920F931F93CF93DF93EC0181E092
:1006E000888F9B8D8C8D98131AC0E889F989808139
:1006F00085FF15C09FB7F894EE89FF896083E8896C
:10070000F98980818370806480839FBF81E090E05D
:10071000DF91CF911F910F91FF90EF900895F62EEA
:100720000B8D10E00F5F1F4F0F731127E02E8C8D84
:100730008E110CC00FB607FCFACFE889F9898081C9
:1007400085FFF5CFCE010E944603F1CFEB8DEC0F74
:10075000FD2FF11DE35AFF4FF0829FB7F8940B8FE6
:10076000EA89FB8980818062CFCFCF93DF93EC0150
:10077000888D8823B9F0AA89BB89E889F9898C9189
:1007800085FD03C0808186FD0DC00FB607FCF7CF45
:100790008C9185FFF2CF808185FFEDCFCE010E9445
:1007A0004603E9CFDF91CF91089580E090E0892B57
:1007B00029F00E943C0381110E94000080E090E03B
:1007C000892B29F00E94320381110E94000080E0F1
:1007D00090E0892B49F080E090E0892B29F00E947D
:1007E000000081110E94000080E090E0892B49F018
:1007F00080E090E0892B29F00E94000081110C9488
:10080000000008958150823108F05AC0E82FF0E0CE
:100810008827E25FFB4F8F4F0C9464322E04320422
:10082000200426042A04600435043B043F044504E4
:1008300049044D045304570460045B0461046504D7
:10084000809180008F778093800008958091800050
:100850008F7DF9CF80918000877FF5CF84B58F772A
:1008600084BD089584B58F7DFBCF8091B0008F77D4
:100870008093B00008958091B0008F7DF9CF809172
:1008800090008F77809390000895809190008F7DE5
:10089000F9CF80919000877FF5CF8091A0008F776E
:1008A0008093A00008958091A0008F7DF9CF809162
:1008B000A000877FF5CF809120018F778093200162
:1008C0000895809120018F7DF9CF80912001877F4D
:1008D000F5CFCF93DF93282F30E0F901E25FFC4F93
:1008E0008491F901EC54FB4FD491F901E259FB4F8B
:1008F000C491CC23A1F081110E940204EC2FF0E0FE
:10090000EE0FFF1FEC5AFB4FA591B491EC91ED2334
:1009100081E090E009F480E0DF91CF91089580E0DC
:1009200090E0FACF1F93CF93DF93282F30E0F901A7
:10093000E25FFC4F8491F901EC54FB4FD491F90133
:10094000E259FB4FC491CC23A9F0162F81110E94CC
:100950000204EC2FF0E0EE0FFF1FEC50FD4FA591CD
:10096000B4918FB7F894EC91111108C0D095DE23A3
:10097000DC938FBFDF91CF911F910895DE2BF8CFCD
:10098000CF93DF9390E0FC01EC54FB4F249182590C
:100990009B4FFC0184918823C9F090E0880F991F38
:1009A000FC01E652FD4FA591B491FC01EC50FD4FC6
:1009B000C591D49161110DC09FB7F8948C91209589
:1009C00082238C938881282328839FBFDF91CF9136
:1009D0000895623051F49FB7F8943C91822F80952E
:1009E00083238C93E8812E2BEFCF8FB7F894EC9173
:1009F0002E2B2C938FBFEACF3FB7F89480916003E2
:100A000090916103A0916203B091630326B5A89B06
:100A100005C02F3F19F00196A11DB11D3FBFBA2F90
:100A2000A92F982F8827BC01CD01620F711D811D50
:100A3000911D42E0660F771F881F991F4A95D1F7D5
:100A400008958F929F92AF92BF92CF92DF92EF92D2
:100A5000FF924B015C010E94FC046B017C010E942F
:100A6000FC046C197D098E099F09683E734081055D
:100A70009105A8F321E0821A9108A108B10888EE37
:100A8000C80E83E0D81EE11CF11C81149104A1045E
:100A9000B10429F7FF90EF90DF90CF90BF90AF9017
:100AA0009F908F9008952FB7F89460915C03709198
:100AB0005D0380915E0390915F032FBF08950F93B4
:100AC0001F930E94530560936A0570936B05809392
:100AD0006C0590936D0582E695E00E94040397FFF4
:100AE0001DC00E94530500916A0510916B0520916D
:100AF0006C0530916D05601B710B820B930B00919F
:100B000066051091670520916805309169056017A9
:100B1000710782079307F8F28FEF9FEF1F910F91F4
:100B20000895FC0120812EBD9B012150310941F027
:100B300051810DB407FEFDCF4EB55EBD4193F5CF9B
:100B400061507109860F971F0DB407FEFDCF2EB5BA
:100B5000FC0120830895E0915703F09158038081B0
:100B600090915603892B80830895E0915703F0916B
:100B7000580390818091560380958923808308953E
:100B80008EBD00000DB407FEFDCF8EB50895AF9267
:100B9000BF92CF92DF92EF92FF920F931F93CF936A
:100BA000DF9300D000D01F921F92CDB7DEB78C012B
:100BB0007B016A01809160058333E1F45801A40E42
:100BC000B51EA016B10609F46FC00E94B50580EFEE
:100BD0000E94C005812F0E94C005802F0E94C00581
:100BE0000F5F1F4FF70181917F010E94C0050E9496
:100BF000AB05E7CF5B01A40EB51E8433C1F40E94A0
:100C0000B50519830A838D2D80688B83CC8264E0BF
:100C100070E0CE0101960E949105AE14BF0409F464
:100C200041C0F70181917F010E94C005F6CF0E946B
:100C3000B5050F3F110509F028F419820A8384E0F5
:100C40008B830CC017FD17C019820A8333E01695F9
:100C500007953A95E1F7007E0C600B8386E0C81695
:100C6000D104A0F5F701DE011496EA15FB0599F011
:100C700081918D93FACFC80126E0969587952A95A4
:100C8000E1F7807E19830A830115104C10F484610A
:100C9000D7CF8C61D5CFB6016D5F7F4FCE01019666
:100CA0000E9491050E94AB05C60128960FB6F894E4
:100CB000DEBF0FBECDBFDF91CF911F910F91FF908F
:100CC000EF90DF90CF90BF90AF90089563E070E019
:100CD000CE0101960E949105F70181917F010E944A
:100CE000C005AE14BF04C1F7DDCFCF93DF931F92D1
:100CF000CDB7DEB7898341E050E0BE016F5F7F4F23
:100D000090E080E00E94C7050F90DF91CF91089599
:100D100090E020916005233339F40C96982F990FB9
:100D2000990F990F80E008954896F8CFDA01E09185
:100D30005A03F0E0FE2FEE27E60FF71F90E0982F02
:100D40008827A901BD018E0F9F1F0C94C705CF9363
:100D5000DF931F921F92CDB7DEB779836A8322E0BB
:100D600030E0AE014F5F5F4F64E070E00E94960696
:100D70000F900F90DF91CF910895CF93DF931F9243
:100D8000CDB7DEB720915A0330E0322F2227260F4D
:100D9000371F90E0982F8827498341E050E0BE013B
:100DA0006F5F7F4F820F931F0E94C7050F90DF91E7
:100DB000CF9108950895CF93DF931F92CDB7DEB7FB
:100DC0006983DC01ED91FC910280F381E02D41E02B
:100DD00050E0BE016F5F7F4F19950F90DF91CF916B
:100DE0000895FC01818D928D089544E050E0BC018E
:100DF0008FE090E00C94C7050895DF92EF92FF9288
:100E00000F931F93CF93DF931F921F92CDB7DEB73F
:100E1000FB01DC0157961C921E92569722812111EC
:100E200009C02381211106C02481211103C025811D
:100E3000222369F14115510551F17A018F01FC011D
:100E4000D08C80E591E00E94B202A8014E5F5F4F16
:100E500024E030E06CE070E08D2D0E949606F9826F
:100E6000EA8222E030E0AE014F5F5F4F60E170E068
:100E70008D2D0E94960681E090E00F900F90DF91FB
:100E8000CF911F910F91FF90EF90DF90089580E038
:100E9000F3CFDC012C911196ED91FC91F8948181B6
:100EA000822B81839281322F30959323928387E026
:100EB00090E00197F1F781818323818383E290E0C1
:100EC0000197F1F790817894EFECF0E03197F1F72A
:100ED000922381E009F480E00895FC019081018073
:100EE000F281E02D292F209560FF14C0F8948281B3
:100EF000822382838181892B8183A3E2B0E01197D1
:100F0000F1F78281982B9283789487ED90E0019796
:100F1000F1F70895F8948281822382838181892B5D
:100F20008183AFEFB0E01197F1F78281982B928324
:100F300078948FE090E0EBCFDF92EF92FF920F93E7
:100F40001F93CF93DF93EC01D62EE42E08E010E040
:100F5000FF24F39461E08D2D8F2109F460E0CE0130
:100F60000E946D07FF0C01501109A1F7E11010C09C
:100F7000F894E981FA819181888180958923818320
:100F8000E981FA819281888180958923828378948E
:100F9000DF91CF911F910F91FF90EF90DF90089517
:100FA000EF92FF920F931F93CF93DF938C017B01FE
:100FB00040E065E50E949C07E70188E0E80EF11C2F
:100FC000699140E0C8010E949C07CE15DF05C1F77A
:100FD000DF91CF911F910F91FF90EF900895FC0149
:100FE00090810180F281E02DF8948181292F209554
:100FF0008223818378943DE743E050E0315029F12A
:10100000DA011197F1F780818923C1F3F894828185
:10101000822382838181892B81837894ABECB7E032
:101020001197F1F7F894818182238183ABE3B1E0DA
:101030001197F1F78081982381E009F080E078949E
:10104000EBE8F6E03197F1F7089580E008956F92AC
:101050007F928F929F92AF92BF92CF92DF92EF9248
:10106000FF920F931F93CF93DF93EC017093D506FC
:101070006093D4068091D2069091D3060E94EF0728
:101080006091D4067091D5068091D2069091D306D6
:101090000E94D00740E068EB8091D2069091D30681
:1010A0000E949C0740E060E08091D2069091D306B8
:1010B0000E949C078091D2069091D3060E94EF0770
:1010C0006091D4067091D5068091D2069091D30696
:1010D0000E94D00740E06EEB8091D2069091D3063B
:1010E0000E949C0740E060E08091D2069091D30678
:1010F0000E949C078E016E0189E0C80ED11C7E0102
:10110000A090D206B090D30688E0882E912C712C46
:1011100066246394C5010E94490781117628660CF4
:10112000A1E08A1A9108B1F7F70171927F01EC15DD
:10113000FD0531F789E090E0815049F0D801ED914B
:101140008D01E927F0E0EC5AFC4F9491F5CF81E056
:101150002885291380E0DF91CF911F910F91FF9097
:10116000EF90DF90CF90BF90AF909F908F907F9047
:101170006F900895CF92DF92EF92FF920F931F939B
:10118000CF93DF9300D000D000D0CDB7DEB78C0175
:10119000E62E5093D5064093D406BA01CE010196AF
:1011A0000E942708F82E882309F499C0898101300C
:1011B000110509F0A4C0886089838091D2069091BE
:1011C000D3060E94EF076091D4067091D5068091F6
:1011D000D2069091D3060E94D00740E06EE4809141
:1011E000D2069091D3060E949C0740E060E0809177
:1011F000D2069091D3060E949C078E010F5F1F4F6D
:101200006E0189E0C80ED11CF80161918F0140E0A8
:101210008091D2069091D3060E949C070C151D0563
:1012200099F78091D2069091D3060E94EF076091C2
:10123000D4067091D5068091D2069091D3060E9473
:10124000D00740E068E48091D2069091D3060E94D6
:101250009C0740E060E08091D2069091D3060E9406
:101260009C078091D2069091D3060E94EF0760916F
:10127000D4067091D5068091D2069091D3060E9433
:10128000D007EE20F1F040E064E48091D206909126
:10129000D3060E949C076AE070E080E090E00E9424
:1012A00021058091D2069091D3060E94EF076091AC
:1012B000D4067091D5068091D2069091D3060E94F3
:1012C000D00740E064EB8091D2069091D3060E9453
:1012D0009C0768E070E080E090E00E9421058F2D7F
:1012E00029960FB6F894DEBF0FBECDBFDF91CF9128
:1012F0001F910F91FF90EF90DF90CF900895877F1F
:101300005BCF0F931F93CF93DF93EC010E945305A4
:10131000088119812A813B81601B710B820B930B21
:101320000C811D812E813F81601771078207930711
:1013300060F00E945305688379838A839B8381E0F0
:10134000DF91CF911F910F91089580E0F9CFFC01BB
:10135000848595850895FC0184899589089526EBF7
:1013600032E0FC0131832083FB014089518962898D
:101370007389FC0142835383648375830895DC0180
:10138000ED91FC91048CF58DE02D199490E080E0B6
:101390000895DC0186EB92E08D939D9384E0FB0140
:1013A00001900D928A95E1F708952F923F924F9206
:1013B0005F926F927F928F929F92AF92BF92CF92E5
:1013C000DF92EF92FF920F931F93CF93DF9300D0A2
:1013D0001F92CDB7DEB7FC01648075806114710483
:1013E00009F418C1809062089090630881149104F8
:1013F00009F410C17B019C838B83FB01C480D580E1
:10140000C818D908FC0100811181C114D104C1F4AC
:1014100060915E0870915F08C8010E94D5348C010C
:10142000009709F4F7C0F70160817181448155810B
:101430000E948634F70184819581080F191FE8CF37
:10144000D7FC11C040905E0850905F085301C8015E
:10145000B2010E94D534009709F450C0880D991D3F
:10146000AC0CBD1CF5CF580160915E0870915F080F
:10147000C8010E94D5343C01009731F14C01801A1B
:10148000910AA401B801C5010E948634A80CB91CB8
:10149000F7016081718144815581C5010E948634C4
:1014A000F70184819581A80EB91E00916208109100
:1014B0006308060D171DEB81FC81848195818C0DDD
:1014C0009D1D95838483D0CFB801C5010F900F90E7
:1014D0000F900F90DF91CF911F910F91FF90EF90A0
:1014E000DF90CF90BF90AF909F908F907F906F9044
:1014F0005F904F903F902F900C94B1346A147B040E
:1015000009F488C0EB81FC81828193818A159B0557
:1015100078F4B5016F5F7F4FC8010E949833009740
:1015200009F478C0EB81FC8191838083B382A2822D
:10153000EB81FC81048115810150110917FD6AC0FE
:10154000480140906208509063084114510409F426
:1015500061C0EB81FC81A480B580A114B10409F4C1
:1015600059C0A414B50408F455C00A151B0520F091
:101570004501F1E08F1A9108EB81FC816080718058
:1015800080915E0890915F089A838983C3010FEF71
:101590001FEF1301280C391C2816390680F06981C9
:1015A0007A810E94D534009751F09C0126193709A1
:1015B0008216930608F4980101968901EDCF17FD74
:1015C00029C0400E511EC301840D951DA50144196B
:1015D0005509BC018C0D9D1D0E948F34EB81FC814F
:1015E000848195818C0D9D1D95838483208131811B
:1015F000820F931FFC011082EB81FC81808191811D
:10160000F7016081718144815581800F911F0E9493
:10161000863492CF0F900F900F900F90DF91CF9163
:101620001F910F91FF90EF90DF90CF90BF90AF9000
:101630009F908F907F906F905F904F903F902F90F2
:1016400008950F931F93CF93DF93EC0188819981C5
:10165000009759F02A813B812617370730F081E047
:10166000DF91CF911F910F9108958B016F5F7F4F95
:101670000E949833009759F0998388831B830A83CB
:101680002C813D81232B59F7FC011082E8CF80E0AB
:10169000E7CFEF92FF920F931F93CF93DF936115E4
:1016A000710541F480E0DF91CF911F910F91FF9080
:1016B000EF90089541155105B1F07B01EC010C81CB
:1016C0001D81040F151FB8010E94210B882351F3BF
:1016D000288139818C819D81B701820F931F0E94DF
:1016E000B1341D830C8381E0DECFAF92BF92CF92E5
:1016F000DF92EF92FF920F931F93CF93DF9300D06F
:101700001F92CDB7DEB78C016B017A018091600525
:101710008333E9F45B016801C40ED51EC016D106FF
:10172000A9F10E94B5058FE00E94C005812F0E949B
:10173000C005802F0E94C0050F5F1F4F80E00E94F0
:10174000C005F50181935F010E94AB05E7CF8433AB
:1017500069F50E94B50519830A838F2D8F778B83D6
:10176000EC8264E070E0CE0101960E949105A70131
:1017700070E060E0C6010E94A134E114F10421F0A0
:10178000B701C6010E9491050E94AB05C7010F90E9
:101790000F900F900F90DF91CF911F910F91FF90BD
:1017A000EF90DF90CF90BF90AF9008950E94B50565
:1017B0000F3F110509F030F419820A831B8263E0A0
:1017C00070E0D1CF17FD0BC019820A8333E0169564
:1017D00007953A95E1F7007E08600B83F0CFC801CA
:1017E00026E0969587952A95E1F7807E19830A83EE
:1017F0000115104C18F480618B83E1CF8861FCCF18
:10180000CF93DF931F92CDB7DEB720915A0330E01C
:10181000322F2227260F371F90E0982F882741E08C
:1018200050E0BE016F5F7F4F820F931F0E94750BC8
:1018300089810F90DF91CF910895CF93C82F462FC4
:1018400061E070E00E94BD0661E070E08C2F0E94B4
:10185000000C8111F9CFCF910895CF93C82F80E567
:1018600091E00E94B20260E170E08C2FCF910C9465
:101870001D0CCF93DF93EC01888D883020F40E94FB
:101880002D0C88E0888FDF91CF910895CF93FC01D4
:10189000C08D80E591E00E94B20260E270E08C2F82
:1018A0000E941D0C62E070E08C2F0E94000C84FDF1
:1018B00016C062E070E08C2F0E94000C83FF0AC00B
:1018C00048E162E070E08C2F0E94BD0680E090E06D
:1018D000CF91089580E591E00E94B202E3CF40E10C
:1018E00062E070E08C2F0E94BD0681E0F0CFCF93C4
:1018F000DF931F92CDB7DEB741E050E0BE016F5FCE
:101900007F4F90E080E00E94750B89810F90DF91FE
:10191000CF910895CF93DF93C4E1D0E00E94770C7C
:10192000882361F061E070E080E090E00E94210592
:101930002197A1F780E0DF91CF91089581E0FBCF5F
:101940001F93CF93DF931F921F92CDB7DEB760E353
:1019500072E080E090E00E9421051FB7F89480912A
:101960005903811127C0E3EAF4E08491E9EEF4E041
:101970009491E82FF0E0EE0FFF1FE652FD4FA59186
:10198000B491EC91E92321F461E085E30E94920493
:1019900061E085E30E94C0048CB580618CBD8CB58C
:1019A00080648CBD61E084E30E94C00461E083E355
:1019B0000E94C004809159038F5F809359031FBF19
:1019C000E8E7F4E0E491F0E0EE0FFF1FEC50FD4F8C
:1019D000859194919093580380935703EEEBF4E034
:1019E000E491E093560361E08AE00E94C0040E9403
:1019F000AB0580E591E00E94B20284E3809360052C
:101A000080E80E9475060E948A0C8823C1F188E054
:101A10000E9475060E94770C883089F580E10E944B
:101A200075060E94770C803151F580E00E947506A2
:101A30000E94770C182F811122C041E050E0BE01B6
:101A40006F5F7F4F8FE190E00E94750B898183303B
:101A5000B1F480E480935A0342E06EE170E0812F9C
:101A60000E94BD0642E06FE170E0812F0E94BD063A
:101A70001F5F183089F781E0809361056AC087E3B2
:101A80008093600580E80E9475060E948A0C882376
:101A900029F188E00E9475060E94770C8830F1F4E5
:101AA00080E10E9475060E94770C182F8031B1F4F6
:101AB00080E00E9475060E94770C81110FC041E002
:101AC00050E0BE016F5F7F4F89E390E00E94750B8D
:101AD0008981843019F410935A03CDCF83E3809326
:101AE000600580E80E9475060E948A0C882371F1C7
:101AF00080E10E9475060E94770C803139F582E101
:101B00000E9475060E94770C823101F580E00E94E8
:101B100075060E94770C811119C084E080935A03E6
:101B200015E51A8341E050E0BE016E5F7F4F8BE107
:101B300090E00E94C705198341E050E0BE016F5F4D
:101B40007F4F8AE190E00E94C70595CF1092600513
:101B500080E00F900F90DF91CF911F910895CF9269
:101B6000DF92EF92FF92CF93DF93CDB7DEB7C254EF
:101B7000D1090FB6F894DEBF0FBECDBFFC01428184
:101B800053816481758123964CAF5DAF6EAF7FAF9B
:101B9000239781E023968FAF23972396CCACDDACBF
:101BA000EEACFFAC2397CBAADCAAEDAAFEAA4DA708
:101BB0005EA76FA778AB88ABCDA4DEA4EFA4F8A88E
:101BC000CFA2D8A6E9A6FAA68EABCBA8DCA8EDA832
:101BD000FEA8C9A2DAA2EBA2FCA226EB32E03C8B63
:101BE0002B8B9FEF9D8B9E8B9F8B188E3E872D8717
:101BF0008AA7CFA0D8A4E9A4FAA4CF86D88AE98A74
:101C0000FA8A8CA389A19AA1ABA1BCA189879A87E2
:101C1000AB87BC873A8329834B835C836D837E8348
:101C2000809161058823F1F180E591E00E94B20284
:101C300046E050E062E072E089E090E00E94C70573
:101C4000CE0103960E94F50644E050E0BE01615FBC
:101C50007F4F81E090E00E94C70544E050E0BE0164
:101C60006B5E7F4F85E090E00E94C70581E08C8726
:101C700089859A85AB85BC858093BC069093BD060B
:101C8000A093BE06B093BF06CE5BDF4F0FB6F894AD
:101C9000DEBF0FBECDBFDF91CF91FF90EF90DF9001
:101CA000CF9008950E94A00C882371F3BDCF1F939D
:101CB000CF93DF931F92CDB7DEB7FC01108D1830A4
:101CC00020F5818D928D892B01F180E591E00E94B4
:101CD000B202812F0E94880627E0129FF001112492
:101CE000E85DFA4F22813381377041E050E0BE0158
:101CF0006F5F7F4F820F931F0E94750B898190E069
:101D00000F90DF91CF911F9108958FEF9FEFF8CF44
:101D1000DA01E0915A03F0E0FE2FEE27E60FF71FFD
:101D200090E0982F8827A901BD018E0F9F1F0C946A
:101D3000750B8F929F92AF92BF92CF92DF92EF92EC
:101D4000FF920F931F93CF93DF93CDB7DEB76097CA
:101D50000FB6F894DEBF0FBECDBF7C019091600539
:101D6000911115C018E0812F60960FB6F894DEBF70
:101D70000FBECDBFDF91CF911F910F91FF90EF90DC
:101D8000DF90CF90BF90AF909F908F90089508E024
:101D9000933309F404E06B0180E591E00E94B20204
:101DA0009E012F5F3F4F5901490110E063E070E051
:101DB000812F0E94000CF40181934F018823C1F010
:101DC0001F5F0113F3CF00E0F50181915F018D31B9
:101DD00049F0883139F08A51823020F00F5F1013BA
:101DE000F3CFC0CF60E170E0802F0E941D0C102F58
:101DF000A12EB12C83EE93E00197F1F742E870E059
:101E000060E0812F0E94BD064FEF62E070E0812FFD
:101E10000E94BD06B601C114D10491F48091000264
:101E20009091010201968115F0EC9F0708F464C0BF
:101E30009093010280930002609100027091010270
:101E4000812F0E94A70686E0E2E1F2E0DE0119960A
:101E500001900D928A95E1F7F70183818F778C8746
:101E600084818D8785818E87A7014E5F5F4F24E037
:101E700030E06CE070E0812F0E949606DF86C88A11
:101E800022E030E0AE01415F5F4F60E170E0812F02
:101E90000E94960626E030E0AE01475F5F4F66E0A5
:101EA00070E0812F0E94960661E070E0812F0E9411
:101EB0001D0C27E02A9DC0012B9D900D11249C0133
:101EC000285D3A4F7901F9011182108222E030E059
:101ED000AE01415F5F4F68E270E0812F0E94880E83
:101EE0008F859889982789279827F701938382837C
:101EF00016821582148237CF80E090EC99CFCF9272
:101F0000DF92EF92FF920F931F93CF93DF9300D056
:101F100000D0CDB7DEB78C016B017A01FC01808D5A
:101F2000883010F40E942D0C86EB92E09A8389830E
:101F3000F60182819381A481B5818B839C83AD83DB
:101F4000BE83B701CE0101960E94990EF801808FE1
:101F50008830A0F4F586E486128E118E81E02696F4
:101F60000FB6F894DEBF0FBECDBFDF91CF911F91AA
:101F70000F91FF90EF90DF90CF90089580E0EFCF2A
:101F8000FF920F931F93CF93DF931F921F92CDB7B2
:101F9000DEB7F82E22E030E0AE014F5F5F4F66E221
:101FA00070E00E94880E09811A81102701271027EE
:101FB00022E030E0AE014F5F5F4F66E270E08F2DB0
:101FC0000E94880E89819A81982789279827081767
:101FD000190749F4C8010F900F90DF91CF911F911D
:101FE0000F91FF9008958C01E3CF4F925F927F9203
:101FF0008F929F92AF92BF92CF92DF92EF92FF9219
:102000000F931F93CF93DF931F921F92CDB7DEB72D
:10201000782E6B014A01A82EB12C27E0829FC001C7
:102020001124FC01E85DFA4F7F010081118180E5F8
:1020300091E00E94B2020815190554F4872D0E9400
:10204000C00FF70126818C01021B11091183008347
:102050000115110529F563E070E0872D0E94000C41
:10206000843159F0882349F001E010E08C3111F4FB
:1020700010E000E0119501951109C8010F900F9033
:10208000DF91CF911F910F91FF90EF90DF90CF9054
:10209000BF90AF909F908F907F905F904F900895EA
:1020A000801691060CF4840187E08A9DF0018B9DD7
:1020B000F00D1124E85DFA4FE280F380C114D104E1
:1020C00051F12701F7E05F22872D0E948806840DD9
:1020D000951D20916005273309F453C09801240D04
:1020E000351D2130384008F44CC020E038E049016B
:1020F00084189508A401B6010E94750B2601480CAE
:10210000591C6801C818D908872D0E948806A601A5
:10211000B2010E94750BE00EF11E87E08A9DF0016E
:102120008B9DF00D1124E85DFA4FF382E28220814D
:102130003181201B310B318320838681800F912FC9
:10214000911D8A3F910510F4232BF1F487E08A9DBD
:10215000F0018B9DF00D1124E85DFA4F1682F98293
:10216000EA8222E030E0AE014F5F5F4F68E270E04C
:10217000872D0E94960660E470E0872D0E941D0C5A
:102180007CCFA801B601C5CF868377CFCF93DF93ED
:10219000FC01218D328D2115310529F48FEF9FEF40
:1021A000DF91CF910895EC01808D4217530708F01D
:1021B000A9010E94F50F1816190684F7298D3A8D8A
:1021C000281B390B3A8F298FEBCF0F931F93CF9397
:1021D000DF931F92CDB7DEB7FC01218D328D232B0B
:1021E00041F48FEF9FEF0F90DF91CF911F910F91EF
:1021F00008958C0141E050E0BE016F5F7F4FFC010C
:10220000808D0E94F50F181619065CF7F801818D74
:10221000928D0197928F818F898190E0E4CFDF9238
:10222000EF92FF920F931F93CF93DF9300D000D0D4
:102230001F921F92CDB7DEB78C01D80159964D91F0
:102240005C915A974115510551F0ED91FC91048C28
:10225000F58DE02D70E060E0C8011995EECFF80132
:10226000D08CF7E0DF9EC00111249C01285D3A4F1D
:102270007901D9018D919C91892B59F148E050E069
:10228000BE016F5F7F4FF801808D0E94F50F181619
:10229000190694F5D801509684E0FE01319601901C
:1022A0000D928A95E1F78D8190E0982F88272E81F5
:1022B000820F911DF801958B848B8F81282F30E040
:1022C000322F22278885820F932F911D928F818F25
:1022D00013C080E591E00E94B2028D2D0E94C00FD4
:1022E000D70116962C911697821B91098D939C937A
:1022F000892B21F690E080E028960FB6F894DEBF97
:102300000FBECDBFDF91CF911F910F91FF90EF9046
:10231000DF9008953F924F925F926F927F928F92DB
:102320009F92AF92BF92CF92DF92EF92FF920F9364
:102330001F93CF93DF931F921F92CDB7DEB75C013F
:102340004B01342E452EFC0166887788508C80E541
:1023500091E00E94B20222E030E0AE014F5F5F4F99
:1023600060E270E0852D0E94880EC980DA80DC244E
:10237000CD24DC2422E030E0AE014F5F5F4F60E20D
:1023800070E0852D0E94880E89819A81982789277F
:102390009827C816D90609F079C0E52CF12C67E01A
:1023A000569EF0011124E85DFA4FD582C482032DB8
:1023B000142DC016D10608F4860122E030E0AE01EB
:1023C0004F5F5F4F64E270E0852D0E94880E898127
:1023D0009A81982789279827680E791E930137706C
:1023E00040916005433309F053C088E0E80EF11CCA
:1023F000FE2CEE24FF0CFF0CFF0CC9018E0D9F1D5F
:10240000473309F449C0A901400F511F41305840DA
:1024100008F442C060E078E06B01C21AD30AA6015A
:10242000B4010E94C705A8014C195D09B4016C0DE7
:102430007D1DC7010E94C705600E711E79826A82E8
:1024400022E030E0AE014F5F5F4F64E270E0852D27
:102450000E949606F50186899789800F911F978BB8
:10246000868BC8010F900F90DF91CF911F910F9134
:10247000FF90EF90DF90CF90BF90AF909F908F90A4
:102480007F906F905F904F903F9008956C0172CF56
:10249000E0E1EE0EF11CACCFA801B401CBCF8F92DE
:1024A0009F92AF92BF92CF92DF92EF92FF920F93E3
:1024B0001F93CF93DF9300D000D000D01F92CDB7F1
:1024C000DEB76C015B01FC01808D883010F40E9446
:1024D0002D0C80916005811117C088E0F601808F76
:1024E00080E02A960FB6F894DEBF0FBECDBFDF9115
:1024F000CF911F910F91FF90EF90DF90CF90BF9001
:10250000AF909F908F90089508E0833309F404E022
:1025100080E591E00E94B2029E012F5F3F4F49018A
:10252000790110E063E070E0812F0E94000CF70158
:1025300081937F018823C1F01F5F0113F3CFF12C3A
:10254000F40181914F018D3149F0883139F08A5180
:10255000823020F0F3941F11F3CFBFCF60E170E021
:102560008F2D0E941D0C1F2DE12EF12C83EE93E088
:102570000197F1F742E070E060E0812F0E94BD0614
:102580004FEF62E070E0812F0E94BD06B501A114FB
:10259000B10489F4809100029091010201968115A5
:1025A000F0EC9F07D0F190930102809300026091BC
:1025B000000270910102812F0E94A70661E070E085
:1025C000812F0E941D0C27E02E9DC0012F9D900D94
:1025D00011249C01285D3A4F7901F9011182108282
:1025E00022E030E0AE01475F5F4F68E270E0812F8C
:1025F0000E94880E89859A85982789279827F70150
:1026000093838283168215821482F601108FB58619
:10261000A486128E118E81E064CF80E090ECC3CF4F
:102620006F927F928F929F92AF92BF92CF92DF92E2
:10263000EF92FF920F931F93CF93DF93CDB7DEB747
:10264000EC970FB6F894DEBF0FBECDBF4C018B01E7
:102650003A0186EB92E09A8389831C861B8648EEBA
:1026600053E060E070E04D875E876F87788B2CE8E1
:1026700032E03A872987988F8F8B198E1A8E1B8E9E
:102680001C8E28E029A399AB88AB1AAA1BAA1CAA06
:102690001DAA8091BC069091BD06A091BE06B09186
:1026A000BF068EA39FA3A8A7B9A78B839C83AD83E6
:1026B000BE8318861F82F80120E090E080E06AE087
:1026C0003191332309F47AC040ED430F4A3008F0CA
:1026D00064C0689FA001699F500D1124CA01C09772
:1026E000830F911D37FD9A958F3F910549F340F374
:1026F0004B815C816D817E818091C8069091C90675
:10270000A091CA06B091CB06481759076A077B0704
:1027100009F428C20E9453056F7077277C5FCE01B1
:1027200009960E944F12813009F01FC286EB92E099
:102730009DA38CA38B819C81AD81BE818EA39FA321
:10274000A8A7B9A745E350E0BE016C5D7F4FCE015D
:1027500009960E94FD06892B09F04EC010E000E0AA
:10276000CE0109960E94390C0130110559F1C801BA
:10277000EC960FB6F894DEBF0FBECDBFDF91CF91C0
:102780001F910F91FF90EF90DF90CF90BF90AF908F
:102790009F908F907F906F9008953E3209F0A8CF60
:1027A000233009F4A5CFA2E3B0E0AC0FBD1FA20F08
:1027B000B11D8C932F5F90E080E082CF233009F031
:1027C00097CF8DABD401ED91FC910488F589E02D74
:1027D00086EB92E09DA38CA38AA99BA9ACA9BDA975
:1027E0008EA39FA3A8A7B9A7A301BE016C5D7F4FCD
:1027F000C40119958C01BBCF0E94530578876F8364
:1028000042E050E0BE01695F7F4FCE0109960E9411
:102810008A1181E090E09DA38CA342E050E0BE01CC
:102820006C5D7F4FCE0109960E948A1180E091E095
:102830009DA38CA342E050E0BE016C5D7F4FCE01B2
:1028400009960E948A111DA21CA242E050E0BE011E
:102850006C5D7F4FCE0109960E948A1142E050E0E4
:10286000BE016C5D7F4FCE0109960E948A1142E045
:1028700050E0BE016C5D7F4FCE0109960E948A1127
:102880007801D8018C91882311F18701F801819199
:102890006F01882311F08E32C1F45801AE18BF08C1
:1028A0001A141B0484F4AEAA41E050E0BE016A5C35
:1028B0007F4FCE0109960E948A11A501B701CE0172
:1028C00009960E948A117601DCCF8601DFCF1EAA0D
:1028D00041E050E0BE016A5C7F4FCE0109960E9444
:1028E0008A1100E011E01DA30CA342E050E0BE01FC
:1028F0006C5D7F4FCE0109960E948A111DA30CA327
:1029000042E050E0BE016C5D7F4FCE0109960E940F
:102910008A11CE0109960E94460C892B09F41ECF1C
:1029200083E0E82EF12CD7C04B815C816D817E81E4
:10293000898D9A8DAB8DBC8D481759076A077B0727
:1029400009F00AC18D8D9E8DC59709F005C18AA138
:102950009BA10DEF1FEF0C970CF4B4C04CE050E0BE
:10296000BE016C5D7F4FCE0109960E94C6108EA1FC
:102970009FA19827892798279BAF8AAF4F815885B9
:102980002CA13DA14217530709F0E9C097FFE7C00A
:102990008F7092700BEF1FEF892B09F093C0AAA4E0
:1029A000BBA4BA24AB24BA240AEF1FEFA114B104CC
:1029B00009F488C010E000E088A599A59827892728
:1029C00098270817190708F541E050E0BE016A5C36
:1029D0007F4FCE0109960E94C6104EA9442339F0BC
:1029E00050E070E060E0CE0109960E94C6108EA90A
:1029F0008111EACF44E050E070E060E0CE0109963A
:102A00000E94C6100F5F1F4FD7CFD12CC12C41E0C1
:102A100050E0BE01645C7F4FCE0109960E94C61053
:102A20004CAD842F807C09F074C0442339F050E011
:102A300070E060E0CE0109960E94C6108CAD811155
:102A4000E6CF42E050E0BE01685C7F4FCE010996C0
:102A50000E94C61042E050E0BE016A5C7F4FCE018A
:102A600009960E94C61044E050E070E060E0CE019C
:102A700009960E94C61042E050E0BE01665C7F4F9E
:102A8000CE0109960E94C61088AD99AD4AAD5BADE6
:102A90008115914009F047C00EA91FA910270127F1
:102AA00010270130110509F03EC04115544009F0CE
:102AB0004DC044E050E0BE016E5C7F4FCE010996F0
:102AC0000E94C610F1E0EF1AF10809F449CE0F3F59
:102AD000100709F045CE0E9453055B016C01CE0141
:102AE00009960E940F11181619060CF41DCF0E94AA
:102AF00053056A197B098C099D0969387341810561
:102B0000910538F562E370E080E090E00E942105D5
:102B1000E6CF41E050E070E060E0CE0109960E940F
:102B2000C6101CAE8BCF54274527542770E060E0B9
:102B3000CE0109960E94C610EFEFCE1ADE0AAC1441
:102B4000BD0409F064CF06EF1FEFBCCF07EF1FEF06
:102B5000B9CF0FEF1FEFB6CF0EEF1FEFB3CF0CEFD4
:102B60001FEFB0CF0EEF1FEF02CE10E000E0FFCD61
:102B70007F928F929F92AF92BF92CF92DF92EF920D
:102B8000FF920F931F93CF93DF93CDB7DEB7A69736
:102B90000FB6F894DEBF0FBECDBF8C01762E942EFB
:102BA000852E20E2A22ECE0101967C01DC01EA2DC9
:102BB0001D92EA95E9F76801F3E4CF0ED11C86EB8C
:102BC00092E09AA389A38FEF8BA38CA38DA38EA3EE
:102BD00043E450E0BE016F5D7F4FC6010E94FD06D9
:102BE000019609F4BFC081E089838A8386E0B82E0C
:102BF000BB821C82D80114966D917D918D919C9120
:102C000017970E946C326D837E838F8398878986A5
:102C10009A8680E890E09C878B874CE150E0B70172
:102C2000C6010E948A11FE0137968AE1DF011D92DA
:102C30008A95E9F74801B8E08B0E911CF401D701A1
:102C400001900D92BA94E1F740E150E0B701C6015E
:102C50000E948A11F7011192AA94E9F796E0A92E31
:102C6000B12C40E250E0B701C6010E948A11F1E0A8
:102C7000AF1AB108B1F783E6898392E89A8393E5A6
:102C80009B838C8385E38D8381E08E837F829DE3AC
:102C9000988797E099878A8786E0F401DE011B9682
:102CA00001900D928A95E1F78CE0898B8A8B68EB15
:102CB00072E0CE0143960E94B134D8011B966C910C
:102CC000CE0149960E94B502F8016485CE014B966B
:102CD0000E94B502D8011D966C91CE014D960E94BE
:102CE000B5024EE150E0B701C6010E948A11B3E07F
:102CF0007B121EC082E3898384E08A83F801968573
:102D00009B8397859C8390899D8391899E8396E37D
:102D10009F838887828D8987838D8A87848D8B871F
:102D2000858D8C874CE050E0B701C6010E948A1166
:102D300087E3898386E08A8391E09B8393E09C8389
:102D40008D838FE08E838AE38F838BE388878FEF79
:102D5000898749E050E0B701C6010E948A11C60187
:102D60000E94460CA6960FB6F894DEBF0FBECDBFEC
:102D7000DF91CF911F910F91FF90EF90DF90CF9057
:102D8000BF90AF909F908F907F9008958F929F9269
:102D9000AF92BF92EF92FF920F931F93CF93DF9367
:102DA000CDB7DEB7A1970FB6F894DEBF0FBECDBF8B
:102DB0007C01FA01CB0119A2223008F42AE08E012D
:102DC0000F5D1F4F822E912CB12CA12CBF01A501AC
:102DD00094010E94C131F901CA016A3074F5605D45
:102DE000D8016E938D01232B242B252B79F790E0AE
:102DF00080E0109789F0FD0101900020E9F73197FC
:102E0000AF014A1B5B0BD701ED91FC910280F3816E
:102E1000E02DB801C7011995A1960FB6F894DEBF51
:102E20000FBECDBFDF91CF911F910F91FF90EF901B
:102E3000BF90AF909F908F900895695CD1CF8F9293
:102E40009F92AF92BF92CF92DF92EF92FF920F9339
:102E50001F93CF93DF937C01EB016C0182E0C80EDE
:102E6000D11C4701E5E08E0E911C10E000E0F60158
:102E700041916F0150E070E060E02AE0CE010E94D5
:102E8000C6165C01E881F9810190F081E02D6EE2C7
:102E9000CE0119958A0D9B1D080F191FC814D9045E
:102EA00031F7F701458150E070E060E02AE0CE01A3
:102EB0000E94C616800F911FDF91CF911F910F9135
:102EC000FF90EF90DF90CF90BF90AF909F908F904A
:102ED0000895AF92BF92CF92DF92EF92FF920F933D
:102EE0001F93CF93DF93DC01CD90DC901197C11439
:102EF000D10439F01496CD91DC918C0176012097A4
:102F000061F4DF91CF911F910F91FF90EF90DF90CF
:102F1000CF90BF90AF90089575015701BFEFAB1AE6
:102F2000BB0AF7018081082E000C990B0E944F30DC
:102F3000892B91F72197CC0DDD1D8881082E000C7F
:102F4000990B0E944F30892B29F0CE15DF0510F028
:102F50002197F3CFAE014F5F5F4F4E195F09D80144
:102F600015965C934E931497CE14DF0420F4B701AA
:102F7000C6010E948634D801ED91FC9111971496F8
:102F80008D919C91E80FF91F1082BBCFFB0144810A
:102F90005581FC01248135812417350778F0808123
:102FA0009181009759F0FB01608171816115710574
:102FB00029F00E94B83421E0892B09F020E0822F0B
:102FC0000895FC0124813581FB014481558124173A
:102FD0003507E1F4FC0180819181FB016081718101
:102FE0000097D1F061157105A1F4232BC1F0FC010C
:102FF000808190E008C0232B91F0FB01808190E05C
:1030000091958195910921E0892B09F020E0822F8B
:1030100008950E94A834F7CF6115710561F721E08A
:10302000F6CF0F931F93CF93DF938C01EB01FC013D
:10303000808191810097E1F0688179816115710546
:10304000A9F0428153812C813D814217530770F0D2
:103050000E94B1348C819D81F801958384831D8207
:103060001C82DF91CF911F910F9108950E940F3321
:1030700088819981F801918380838A819B819383E0
:1030800082838C819D8195838483198218821B821F
:103090001A82E5CFCF93DF93EC0188819981009765
:1030A00011F00E940F33198218821D821C821B822C
:1030B0001A82DF91CF910895CF93DF93EC01FB014A
:1030C00001900020E9F73197AF01461B570B0E9492
:1030D000490B811103C0CE010E944A18CE01DF9135
:1030E000CF910895CF93DF93EC01FB01448155818B
:1030F000608171810E94490B811103C0CE010E9441
:103100004A18CE01DF91CF910895EF92FF920F936D
:103110001F93CF93DF93EC017B018A01BA010E94D8
:10312000210B81110BC0CE010E944A18CE01DF9104
:10313000CF911F910F91FF90EF9008951D830C8305
:10314000B701888199810E94B134F0CFFB010190D1
:103150000020E9F73197AF01461B570B0C948518F7
:103160000F931F93CF93DF93CDB7DEB762970FB660
:10317000F894DEBF0FBECDBF8C01CB01F8011182E8
:10318000108213821282158214824AE0BE016F5FA0
:103190007F4F0E94C42DBE016F5F7F4FC8010E9408
:1031A000A61862960FB6F894DEBF0FBECDBFDF91B2
:1031B000CF911F910F910895CF93DF93EC01FB0105
:1031C0008617970749F0608171816115710541F09B
:1031D000448155810E948518CE01DF91CF910895D9
:1031E0000E944A18F9CFFC011182108213821282C8
:1031F000158214820C94DC18FC0111821082138257
:10320000128215821482FB0101900020E9F73197A8
:10321000AF01461B570B0C948518AF92BF92CF920B
:10322000DF92EF92FF920F931F93CF93DF936C0186
:103230005B017A0189012417350720F48F2D79016C
:10324000042F182F60EC72E0C6010E94FC18D50113
:103250001496CD91DC91EC16FD06E0F40C171D07D9
:1032600008F4E801D501ED91FC911197EC0FFD1FD9
:10327000108110826D917C916E0D7F1DC6016115CC
:103280007105A1F00E94A618F50180819181C80FF7
:10329000D91F1883C601DF91CF911F910F91FF9025
:1032A000EF90DF90CF90BF90AF9008950E944A18A2
:1032B000EBCFFC0180819181009711F00C940F33CA
:1032C0000895EF92FF920F931F93CF93DF93CDB7A3
:1032D000DEB7A1970FB6F894DEBF0FBECDBF7C015D
:1032E000CB01BA01F701118210821382128215827A
:1032F000148242E0420F8E010F5F1F4F0E94DB2CB1
:10330000009789F0BC01C7010E94A618A1960FB6CC
:10331000F894DEBF0FBECDBFDF91CF911F910F910B
:10332000FF90EF900895C7010E944A18EFCF3F9297
:103330004F925F926F927F928F929F92AF92BF92C5
:10334000CF92DF92EF92FF920F931F93CF93DF9371
:10335000CDB7DEB7EA970FB6F894DEBF0FBECDBF8C
:103360007C012A013B0169010E9453054B015C016C
:1033700087010D5B1F4FC8010E940F111816190617
:103380009CF00E945305681979098A099B09461621
:1033900057066806790608F466C162E370E080E0CB
:1033A00090E00E942105E7CF42E250E0BE016F5F4E
:1033B0007F4FC8010E94C61089818230D1F0312C24
:1033C000832DEA960FB6F894DEBF0FBECDBFDF9116
:1033D000CF911F910F91FF90EF90DF90CF90BF9012
:1033E000AF909F908F907F906F905F904F903F90A5
:1033F0000895F801848995898334910501F76D81D9
:103400007E818F8198850E946C324B015C01F601B0
:1034100080829182A282B38246E050E0B701685F69
:103420007F4FCE014D960E947934892B41F6F701EA
:1034300080819181A281B38188169906AA06BB0674
:1034400008F4BDCF84819581A681B781881599053F
:10345000AA05BB0508F4B3CF89899A89AB89BC89D1
:1034600086879787A08BB18B4EEC50E070E060E0D0
:10347000C8010E94C610312CC701829698AB8FA755
:10348000F701B696FAABE9AB08969CAB8BAB67013C
:103490009AE1C90ED11CBD96FEABEDABC7014296B9
:1034A00098AF8FABFD97FAAFE9AF4701FEE18F0E02
:1034B000911CF801818D928D181619060CF080CFA1
:1034C000C8010E94E5108333910509F4B2C014F5D8
:1034D0008130910509F464C044F4892B51F3C8018B
:1034E0000E94E510AC01552775C08330910509F4A1
:1034F00062C00697A1F7C8010E94E510B82E44E00B
:1035000050E0B401C8010E94C610EB2DE450FF0B3F
:10351000AF0160C08A33910509F45FC084F585333B
:103520009105B1F1C697D9F6C8010E94E5105C017A
:10353000B601CE0189960E94C9098BA59CA5ADA5AF
:10354000BEA5892B8A2B8B2BB1F0EDA9FEA940805B
:10355000518062807380B601CE0183960E94C909B2
:103560008DA19EA1AFA1B8A5A501481659066A066E
:103570007B0609F0B8CF44E050E0B60118C08B33A9
:10358000910509F440C08F3F910509F492CFA7CF70
:10359000C8010E94E510C8010E94E510382E89CFAD
:1035A000C8010E94E51044E050E06FA978ADC80161
:1035B0000E94C6107ECFC8010E94E510B82E44E0DC
:1035C00050E069AD7AADC8010E94C6108B2D8450C1
:1035D000990BAC0170E060E0EACFC8010E94E510F1
:1035E00044E050E069A97AA9C8010E94C610F70119
:1035F00066A177A180A591A50E946C3266A377A3EE
:1036000080A791A756CFC8010E94E51044E050E082
:103610006BA97CA9C8010E94C610F70162A573A519
:1036200084A595A50E946C3262A773A784A795A76D
:1036300040CFC8010E94E51044E050E06FA578A992
:10364000C8010E94C610F70162A173A184A195A1CF
:103650000E946C3262A373A384A395A366A777A785
:1036600080AB91AB26CF33243A94AACEEF92FF924F
:103670000F931F93CF93DF9300D000D0CDB7DEB769
:103680007C0168E578E0CE0101960E94F31864E6BB
:1036900078E0CE0101960E94721860EF72E00E94FD
:1036A0005C18B7010E947218BC01C7010E94DC18A7
:1036B000CE0101960E945919F70104811581011567
:1036C000110509F05BC01092F20286EB92E09A833A
:1036D00089838091A2089091A308A091A408B09139
:1036E000A5088B839C83AD83BE8343E059EDBE0167
:1036F0006F5F7F4F8AE698E00E94FD06F7014481E4
:10370000558162EF72E08AE698E00E948A118AE6AB
:1037100098E00E94460C61E088E00E949204B701A4
:10372000CE0101960E94F3186FEB72E0CE01019674
:103730000E945C18FC01448155816081718182E6A0
:1037400095E00E94C802CE0101960E9459196AE0D4
:1037500070E080E090E00E94210560E088E00E9437
:10376000920426960FB6F894DEBF0FBECDBFDF9150
:10377000CF911F910F91FF90EF900895033611059F
:1037800010F003E610E0F70160817181A80182EF7B
:1037900092E00E94C634F801EE50FD4F108295CFA2
:1037A000CF93DF93CDB7DEB762970FB6F894DEBF45
:1037B0000FBECDBFBC01CE0107960E94B01862E5D6
:1037C00078E0CE0101960E94F318BE01695F7F4F39
:1037D000CE0101960E94721861EC72E00E945C18A2
:1037E000BC01CE010D960E94F318CE010D960E94E9
:1037F000361BCE010D960E945919CE0101960E94EA
:103800005919CE0107960E94591962960FB6F8947D
:10381000DEBF0FBECDBFDF91CF910895CF93DF9371
:10382000CDB7DEB762970FB6F894DEBF0FBECDBF3F
:10383000BC01CE0107960E94B01862E578E0CE0187
:1038400001960E94F318BE01695F7F4FCE01019679
:103850000E94721864EC72E00E945C18BC01CE01F8
:103860000D960E94F318CE010D960E94361BCE01D4
:103870000D960E945919CE0101960E945919CE0148
:1038800007960E94591962960FB6F894DEBF0FBED4
:10389000CDBFDF91CF910895CF92DF92EF92FF924B
:1038A0000F931F93CF93DF93CDB7DEB72F970FB64C
:1038B000F894DEBF0FBECDBF7C016B0160EC72E0FF
:1038C0000E94FC18860188E0C80ED11CF801819185
:1038D0008F011B861A861D861C861F861E8640E168
:1038E000BE016F5F7F4F90E00E94E42DBE016F5FCD
:1038F0007F4FCE010A960E94A6184E855F856A8585
:103900007B85C7010E94490BCE010A960E94591976
:103910000C151D05D9F6C7012F960FB6F894DEBF1A
:103920000FBECDBFDF91CF911F910F91FF90EF9010
:10393000DF90CF9008951F920F920FB60F9211242F
:103940000BB60F922F933F934F935F936F937F9399
:103950008F939F93AF93BF93EF93FF9382E695E08E
:103960000E944603FF91EF91BF91AF919F918F917C
:103970007F916F915F914F913F912F910F900BBE6F
:103980000F900FBE0F901F9018951F920F920FB6B9
:103990000F9211240BB60F922F938F939F93EF9357
:1039A000FF93E0917205F09173058081E0917805B5
:1039B000F091790582FD1DC0908180917B058F5F1C
:1039C0008F7320917C05821741F0E0917B05F0E038
:1039D000EE59FA4F958F80937B05FF91EF919F9160
:1039E0008F912F910F900BBE0F900FBE0F901F90D5
:1039F00018958081F2CF1F920F920FB60F9211246B
:103A00000BB60F922F933F934F935F936F937F93D8
:103A10008F939F93AF93BF93EF93FF938FEF95E0B7
:103A20000E944603FF91EF91BF91AF919F918F91BB
:103A30007F916F915F914F913F912F910F900BBEAE
:103A40000F900FBE0F901F9018951F920F920FB6F8
:103A50000F9211240BB60F922F938F939F93EF9396
:103A6000FF93E0910F06F09110068081E09115061A
:103A7000F091160682FD1DC09081809118068F5F1F
:103A80008F7320911906821741F0E0911806F0E03B
:103A9000E150FA4F958F80931806FF91EF919F9117
:103AA0008F912F910F900BBE0F900FBE0F901F9014
:103AB00018958081F2CF1F920F920FB60F921124AA
:103AC0002F933F938F939F93AF93BF9380915C030A
:103AD00090915D03A0915E03B0915F0330915B0311
:103AE00023E0230F2D3758F50196A11DB11D20931A
:103AF0005B0380935C0390935D03A0935E03B0939C
:103B00005F038091600390916103A0916203B09183
:103B100063030196A11DB11D80936003909361031F
:103B2000A0936203B0936303BF91AF919F918F9174
:103B30003F912F910F900FBE0F901F90189526E880
:103B4000230F0296A11DB11DD2CF0F931F93CF93C8
:103B5000DF93109265051092640548EE53E060E033
:103B600070E0409366055093670560936805709315
:103B700069058AE792E090936305809362052DECD6
:103B800030E030936F0520936E052CEC30E03093DD
:103B900071052093700528EC30E030937305209375
:103BA000720529EC30E030937505209374052AECFA
:103BB00030E030937705209376052EEC30E030939B
:103BC00079052093780510927B0510927C05109260
:103BD0007D0510927E051092020610920106409318
:103BE00003065093040660930506709306069093AF
:103BF00000068093FF0585EC90E090930C0680937F
:103C00000B0684EC90E090930E0680930D0680ECFA
:103C100090E09093100680930F0681EC90E09093D3
:103C200012068093110682EC90E090931406809324
:103C3000130686EC90E0909316068093150610927A
:103C400018061092190610921A0610921B0686EB9F
:103C500092E090939D0680939C0610929E0610928F
:103C60009F061092A0061092A1069093A30680933F
:103C7000A2061092A4061092A5061092A606109213
:103C8000A7069093A9068093A8061092AA06109200
:103C9000AB061092AC061092AD069093AF068093DF
:103CA000AE061092B0061092B1061092B2061092B3
:103CB000B3069093B5068093B4061092B6061092A0
:103CC000B7061092B8061092B9069093C106809379
:103CD000C0061092C2061092C3061092C40610923B
:103CE000C5069093BB068093BA061092BC0610924C
:103CF000BD061092BE061092BF069093C706809331
:103D0000C6061092C8061092C9061092CA061092F2
:103D1000CB069093CD068093CC061092CE061092DF
:103D2000CF061092D0061092D1069093AD088093E2
:103D3000AC081092AE081092AF081092B008109222
:103D4000B1089093A7088093A6081092A808109233
:103D5000A9081092AA081092AB089093A10880932A
:103D6000A0082FEF2093A2082093A3082093A40873
:103D70002093A5081092880810928708409389081C
:103D800050938A0860938B0870938C08ECE8F2E0FB
:103D9000F0938608E09385089093940880939308A5
:103DA0001092950810929608109297081092980811
:103DB00028E020939D0810926D0810926C084093A3
:103DC0006E0850936F086093700870937108F093B9
:103DD0006B08E0936A0890937908809378081092B2
:103DE0007A0810927B0810927C0810927D0820932C
:103DF000820860EC72E084E698E00E94FC1860ECB7
:103E000072E08EE598E00E94FC1867EC72E088E5AD
:103E100098E00E94FC186CEC72E082E598E00E9449
:103E2000FC186FEC72E08CE498E00E94FC1862EDE4
:103E300072E086E498E00E94FC1865ED72E080E490
:103E400098E00E94FC1869ED72E08AE398E00E9415
:103E5000FC186EED72E084E398E00E94FC1862EEBC
:103E600072E08EE298E00E94FC18C6EED7E00EE207
:103E700018E060EC72E0CE010E94FC1826960C1748
:103E80001D07B9F7CEE9D7E006EE17E060EC72E067
:103E9000CE010E94FC1826960C171D07B9F7CEE03C
:103EA000D7E060EC72E0CE010E94FC18269687E015
:103EB000CE39D807B1F760EC72E086EF96E00E9449
:103EC000FC1860EC72E08CEF96E00E94FC1860EC4D
:103ED00072E082E097E00E94FC1860EC72E088E0FB
:103EE00097E00E94FC1860E089E00E94C004EDEBBE
:103EF000F4E0E491E093E806E7E7F4E0E491F0E031
:103F0000EE0FFF1FEC5AFB4F859194919093EA06B8
:103F10008093E9061092F3061092F5061092F406CB
:103F20001092F2061092F1061092F0061092EF062F
:103F30001092EE061092ED061092EC061092EB062F
:103F400088EE96E09093D3068093D206DF91CF91CE
:103F50001F910F910895CF93DF93CDB7DEB7C8556A
:103F6000D1090FB6F894DEBF0FBECDBF789484B5EB
:103F7000826084BD84B5816084BD85B5826085BD65
:103F800085B5816085BD80916E00816080936E00F3
:103F900010928100809181008260809381008091E5
:103FA0008100816080938100809180008160809396
:103FB00080008091B10084608093B1008091B00056
:103FC00081608093B0008091910082608093910025
:103FD0008091910081608093910080919000816038
:103FE000809390008091A10082608093A1008091D5
:103FF000A10081608093A1008091A00081608093E6
:10400000A000809121018260809321018091210193
:104010008160809321018091200181608093200143
:1040200080917A00846080937A0080917A00826027
:1040300080937A0080917A00816080937A008091E9
:104040007A00806880937A001092C100E0910F0698
:10405000F091100622E02083E0910B06F0910C060F
:104060001082E0910D06F0910E068FEC8083109285
:104070001706E0911306F091140696E09083E09104
:104080001106F0911206808180618083E091110613
:10409000F0911206808188608083E0911106F09192
:1040A0001206808180688083E0911106F0911206EB
:1040B00080818F7D8083E0917205F091730520836C
:1040C000E0916E05F0916F051082E0917005F0911E
:1040D000710580E1808310927A05E0917605F09178
:1040E00077059083E0917405F0917505808180617A
:1040F0008083E0917405F0917505808188608083EC
:10410000E0917405F0917505808180688083E0916D
:104110007405F091750580818F7D808382E390E046
:10412000A0E0B0E08093660590936705A0936805D2
:10413000B09369055EE0E52E57E0F52E6EE2662E3F
:1041400064E0762E74E8A72E74E0B72EE0E2CE2E5F
:10415000E2E0DE2E10E000E088248394912CD6016A
:104160008C91B2E0CB0ED11C62E00E94C004F5013C
:10417000819291925F01D3011D921D923D010F5FCB
:104180001F4FB801CE0101960E94B0186AE378E093
:10419000CE010F960E94F318BE016F5F7F4FCE01D4
:1041A0000F960E947218BC01C7010E94DC18CE0154
:1041B0000F960E945919CE0101960E945919B6E036
:1041C000EB0EF11C0831110551F662E083E00E940C
:1041D000C0042EE9E22E27E0F22E36EEC32E37E0A1
:1041E000D32E46E5A42E42E0B42E10E000E0F50107
:1041F0009080F2E0AF0EB11C61E0892D0E94C004F6
:104200000F5F1F4FB801CE0101960E94B01866E4FF
:1042100078E0CE010F960E94F318BE016F5F7F4FCA
:10422000CE010F960E94721865EE72E00E945C1833
:10423000BC01C6010E94DC18CE010F960E945919DC
:10424000CE0101960E945919B801CE0101960E9433
:10425000B01866E478E0CE010F960E94F318BE0114
:104260006F5F7F4FCE010F960E94721869EE72E069
:104270000E945C18BC01C7010E94DC18CE010F9699
:104280000E945919CE0101960E94591960E0892DAA
:104290000E94920426E0C20ED11C36E0E30EF11C0F
:1042A0000C30110509F0A3CF16EFE12E16E0F12E28
:1042B0000EE6A02E02E0B02E10E000E0D501DC906A
:1042C000B2E0AB0EB11C61E08D2D0E94C0040F5F07
:1042D0001F4FB801CE0101960E94B01860E478E04B
:1042E000CE010F960E94F318BE016F5F7F4FCE0183
:1042F0000F960E947218BC01C7010E94DC18CE0103
:104300000F960E945919CE0101960E94591961E039
:104310008D2D0E94C00460E08D2D0E949204E6E085
:10432000EE0EF11C0430110549F660E08AE30E94AC
:10433000C00460E08BE30E94C00460E08EE30E9452
:10434000C00480E395E7A0E0B0E080936804909318
:104350006904A0936A04B0936B040E9453056093B0
:10436000640470936504809366049093670480E608
:104370009AEEA0E0B0E08093FA039093FB03A09341
:10438000FC03B093FD030E9453056093F603709302
:10439000F7038093F8039093F90361E080E20E94B1
:1043A000C00482E390E0A0E0B0E080931C0590930D
:1043B0001D05A0931E05B0931F050E945305609331
:1043C00018057093190580931A0590931B058EEDBF
:1043D00093E0A0E0B0E08093240590932505A0939E
:1043E0002605B09327050E9453056093200570931E
:1043F0002105809322059093230588E1E82E82E031
:10440000F82E10E000E0CC24C394D12CD701BC904E
:10441000B2E0EB0EF11C60E08B2D0E94C0048B2DEE
:104420000E9469042091F4033091F503892B69F40B
:10443000C601002E02C0880F991F0A94E2F7822B52
:10444000932B9093F5038093F4030F5F1F4F043079
:104450001105E1F66091F4037091F503CE01019628
:104460000E94B018BE016F5F7F4F84E698E00E9403
:104470001118CE0101960E9459196091F4037091B0
:10448000F503CE0101960E94B01868E578E0CE01F0
:104490000F960E94F318BE016F5F7F4FCE010F96FB
:1044A0000E947218BC018EE598E00E94DC18CE01D3
:1044B0000F960E945919CE0101960E9459198091B8
:1044C000F4039DEE980F9093070290EC9093A80848
:1044D00098EA9093A90896E99093AA088A5680933F
:1044E000AB088091C40381112AC01092AC031092D2
:1044F000AB0388EE93E0A0E0B0E08093AD0390932F
:10450000AE03A093AF03B093B0038CE892E0909316
:10451000AA038093A90386EB92E09093B80380935B
:10452000B7031092B9031092BA031092BB03109212
:10453000BC0388E08093C10381E08093C40386E6D6
:1045400093E09093650380936403809161058823D1
:1045500009F497C180E591E00E94B20246E050E084
:1045600062E072E089E090E00E94C70586EB92E08D
:104570009A8389831B821C821D821E82CE01039630
:104580000E94F506109288031092890310928A0304
:1045900010928B0310928C0310928D0310928E0355
:1045A00010928F0310929003109291031092920335
:1045B0001092930380E69AEEA0E0B0E080939C0313
:1045C00090939D03A0939E03B0939F0380EA9FE086
:1045D000A0E0B0E08093A0039093A103A093A20376
:1045E000B093A303E4E7F3E084E1DF011D928A9531
:1045F000E9F786E0E2E0F2E0AEE6B3E001900D928A
:104600008A95E1F71092A8030E94452D2FEC37E020
:1046100040E050E00E948F31DC01CB010196A11DEA
:10462000B11D80936A0390936B03A0936C03B093C6
:104630006D038093660390936703A0936803B09320
:10464000690389EA93E00E94390C64E470E089EA26
:1046500093E00E944F12882309F417C10E9453056A
:104660006B017C01A8EE4A2EA3E05A2E612C712C1E
:10467000B3E09B2E02E0B12CA12C8091A8038330E3
:1046800009F440C0811116C180916A0390916B03B7
:10469000A0916C03B0916D030196A11DB11D809393
:1046A0006A0390936B03A0936C03B0936D030E9415
:1046B00053056C197D098E099F09A30192010E947F
:1046C000C131A90161E086E693E00E94B81581E05E
:1046D0008093A80391E0A916B10479F20E945305D2
:1046E0006C197D098E099F0920919C0330919D03CF
:1046F00040919E0350919F0326173707480759079B
:1047000008F0B9CF89EA93E00E94390C80916A03DE
:1047100090916B03A0916C03B0916D030196A11D64
:10472000B11D80936A0390936B03A0936C03B093C5
:104730006D030E9453056093A4037093A5038093B7
:10474000A6039093A703AA94AB2809F09EC080E526
:1047500091E00E94B2020091640310916503B801D8
:10476000625F7F4FCE0101960E94C909CE01039678
:104770000E94F506B8016A5E7F4FCE0101960E9445
:10478000C90944E050E0BE016D5F7F4F81E090E0D9
:104790000E94C705B8016E5E7F4FCE0101960E9450
:1047A000C90944E050E0BE016D5F7F4F85E090E0B5
:1047B0000E94C705B801625E7F4FCE0101960E943C
:1047C000C9098B819C81AD81BE818093BC06909389
:1047D000BD06A093BE06B093BF060E94FC047F7383
:1047E000809100029091010268277927709301025D
:1047F000609300026CE97DEA85E898E00E944F1220
:1048000062E079ED8AE698E00E944F1261E088E06C
:104810000E94C00460E088E00E9492042CECE22E2A
:1048200023E0F22EA12CB12C99249394670170906F
:10483000F506772009F440C11092F3061092F506B0
:104840001092F40680E0EBEEF6E09701285F3F4F10
:1048500087019191D8019D938D012A173B07C9F7D4
:10486000882309F435C198E080E0915009F4ABC287
:10487000D701ED917D01E827F0E0EC5AFC4F8491DF
:10488000F4CF0E94A00C811165CE86EB92E09A8352
:1048900089838091A8089091A908A091AA08B09155
:1048A000AB088B839C83AD83BE83CE0101960E94AF
:1048B000AF0DA0CF843031F580916A0390916B03E6
:1048C000A0916C03B0916D030196A11DB11D809361
:1048D0006A0390936B03A0936C03B0936D030E94E3
:1048E00053056C197D098E099F09A30192010E944D
:1048F000C131A90163E086E693E00E94B8150093F8
:10490000A803E8CE813091F54091A0035091A10316
:104910006091A2037091A3039E012F5F3F4F86E633
:1049200093E00E949719182F823009F0C1C0898145
:104930009A81AB81BC8180936A0390936B03A093AF
:104940006C03B0936D030E9453056C197D098E09A9
:104950009F09A30192010E94C131A90163E086E68B
:1049600093E00E94B8151093A803B4CE823009F0EA
:10497000B1CE4091A0035091A1036091A203709128
:10498000A3039E012F5F3F4F86E693E00E94971995
:10499000182F853009F087C09092A8038091880372
:1049A00090918903A0918A03B0918B03892B8A2B64
:1049B0008B2B61F484E893E0A0E0B0E0809388035F
:1049C00090938903A0938A03B0938B0380918C0307
:1049D00090918D03A0918E03B0918F03892B8A2B28
:1049E0008B2BA1F48091880390918903A0918A0375
:1049F000B0918B03B695A7959795879580938C0377
:104A000090938D03A0938E03B0938F0380919003B6
:104A100090919103A0919203B0919303892B8A2BDB
:104A20008B2BE9F48091880390918903A0918A03EC
:104A3000B0918B03AC01BD01E3E076956795579586
:104A40004795EA95D1F7841B950BA60BB70B80937E
:104A5000900390939103A0939203B093930380915A
:104A60008C0390918D03A0918E03B0918F0380935E
:104A7000940390939503A0939603B093970380912A
:104A8000900390919103A0919203B091930380932E
:104A9000980390939903A0939A03B0939B03AA243D
:104AA000A394B12C17CE863019F41092A80312CE1D
:104AB0001F3F09F00FCEF9CF88EE96E00E94EF0776
:104AC000811123C11092F3061092F5061092F4069C
:104AD000B0920505A092DC0490E3492E95E7592E8B
:104AE000612C712C0E94530569967FAF6EAF699758
:104AF0001EEFC12E13E0D12E00E2802E02E0902E98
:104B00008EE2E82E84E0F82E24E834E067963FAF8A
:104B10002EAF679710E000E06796AEADBFAD679728
:104B20002D903D906796BFAFAEAF6797F701A0801D
:104B3000B180D4018C91B2E08B0E911C0E9469046B
:104B40000F5F1F4F2A143B0409F4C5C1A816B9060C
:104B500009F4A5C1F7019183808332E0E30EF11CD3
:104B600082E0C80ED11C08311105B1F684E694E04C
:104B70000E948109882309F4A0C0409268045092E1
:104B8000690460926A0470926B040E9453056093FA
:104B90006404709365048093660490936704A0E5B1
:104BA000AA2EA2E0BA2EBEE52B2EB4E03B2E10E0DA
:104BB00000E0D5018C91B2E0AB0EB11C863308F059
:104BC000865320917B00982F9870277F922B90938B
:104BD0007B008770806480937C0080917A00806481
:104BE00080937A0080917A0086FDFCCF80907800D7
:104BF00080917900982EB401092C000C880B990B38
:104C00000E946F306B017C01F101619171911F0174
:104C10003297918280820F5F1F4F072E000C880B06
:104C2000990B0E946F309B01AC01C701B6010E9435
:104C300068308823F1F122E0B701A601CE01C796C2
:104C40000E946119B801CE01CD960E94B0186CE4A3
:104C500078E0CE018D5B9F4F0E94F318BE01635C2C
:104C60007F4FCE018D5B9F4F0E94721860EF72E004
:104C70000E945C18BE01695C7F4F0E947218BC01E3
:104C8000CE018B960E94F318CE018B960E94361BA4
:104C9000CE018B960E945919CE018D5B9F4F0E94C9
:104CA0005919CE01CD960E945919CE01C7960E947E
:104CB00059190330110509F07CCF60EC72E0CE0188
:104CC000CD960E94FC1882E695E00E9426031816F5
:104CD00019060CF05FC160EC72E0CE018B960E9469
:104CE000FC180E945F0597FD05C18A30910509F403
:104CF00001C18FAB18AE41E050E0BE01695C7F4F4F
:104D0000CE018B960E94490BECCF40E060EF88EE1D
:104D100096E00E949C07612C01E011E088EE96E08D
:104D20000E944907882E88EE96E00E944907B1E06C
:104D30008B1212C0813079F5113408F47DCD709258
:104D4000F306711002C09092F5068091EB0688235D
:104D500009F472CD81E077CDE62DF0E0881211C024
:104D60008091F3061817A8F4DF01A851B94F1396E4
:104D70008C91802381F4812C193010F41093F40667
:104D8000712EE851F94F8381902F90958923838369
:104D90000BC08113F0CFE62DF0E0E851F94F83818D
:104DA000802B838388248394682D88EE96E00E946C
:104DB0006D071F5F000F11F4639401E0E7E0E61553
:104DC00008F0ACCFB9CF21E030E0882311F030E01B
:104DD00020E0F60187818217130611F4780126CDB1
:104DE00080818632B1F4B8E0BB9EA001112490E02E
:104DF00080E0FA01E80FF91FE352FB4FD601A80F3C
:104E0000B91F2C91208301968830910591F7B394B6
:104E1000E5CFE8E0AE9EA001112490E080E0FC0127
:104E2000E40FF51FEC54FB4FD601A80FB91F2C91CE
:104E3000208301968830910591F7A3948EE0E8EEE7
:104E4000F6E0DE015D9601900D928A95E1F7CE01C4
:104E50004D960E94EF07B601CE014D960E94D007F5
:104E600040E06EE4CE014D960E949C0740E060E079
:104E7000CE014D960E949C0740E060E0CE014D9629
:104E80000E949C0740E06FE5CE014D960E949C0772
:104E900040E068E4CE014D960E949C079FCFD6016A
:104EA0008D919C916996EEADFFAD6997E81BF90B6A
:104EB00036970CF452CE6796EEADFFAD67973297FA
:104EC000B182A082C801AB2819F40E940E1C45CE05
:104ED0000E94D01B42CE2816390609F43ECED701D7
:104EE0008D939C9369962EAD3FAD6997F601318302
:104EF000208333CEBE01655D7F4FCE01CD960E94EB
:104F00001118CE018B960E9459196EE578E0CE01FA
:104F1000CD960E94C617882309F4D5CE60EC72E0C6
:104F2000CE018B960E94FC18BE01655D7F4FCE01BD
:104F3000CD960E94D509CE018B960E945919CE01BB
:104F4000CD960E94691766E478E0CE01CD960E9466
:104F5000C617882309F4ADC0F6E5EF2EF2E0FF2E68
:104F600010E000E0B8016A51784FCE01CD960E9462
:104F7000E117882309F48FC061E0F70180810E9466
:104F80009204B2E0EB0EF11C0A5F1F4F08341105CA
:104F900049F72DC085E898E00E940F11892B39F15F
:104FA000ECE6F4E088E1DF011D928A95E9F748E13B
:104FB00050E0BF0185E898E00E94BF096CE674E00C
:104FC000CE018B960E94FC18BE01655D7F4FCE011D
:104FD000CD960E941118CE018B960E9459196EE54C
:104FE00078E0CE01CD960E94C617811197CFCE01F1
:104FF000CD960E94591910911705113009F428C255
:1050000008F4F1C1123009F4B4C3133009F4E3C356
:1050100080E295E00E948109882381F182E390E09B
:10502000A0E0B0E080931C0590931D05A0931E05A1
:10503000B0931F050E9453056093180570931905DE
:1050400080931A0590931B058EED93E0A0E0B0E0ED
:105050008093240590932505A0932605B0932705FA
:105060000E945305609320057093210580932205CB
:105070009093230561E080E20E94920488E195E02C
:105080000E948109882321F060E080E20E9492045E
:105090000E94D50327CDB8016256784FCE01CD9638
:1050A0000E94E117882309F46CCF60E0D7018C914E
:1050B00066CF60E478E0CE01CD960E94C6178823C3
:1050C00009F43FC123962EAD3FAD2397409144088C
:1050D000509145084E5F5F4FBE01635C7F4FCE012C
:1050E000C7960E940D196EE0262E67E0362E7EE6EA
:1050F000872E72E0972EE6EFCE2EE6E0DE2E209190
:105100004408309145082F5F3F4F50E040E0BE011A
:10511000635C7F4FCE018B960E940D19B601CE01C4
:105120008B960E94E117182FCE018B960E94591979
:10513000112309F447C08FA998ADB12CA12C009779
:1051400021F00E949D2DB62EA72EEB2CFA2CF401F7
:105150000081118161E0802F0E94C004E114F104FC
:1051600029F460E0802F0E9492042CC0FFEFEF161C
:10517000F10411F461E0F6CFF801FF27E25FFC4F84
:10518000E491E150E23108F0D6C0F0E08827E45322
:10519000F74D8F4F0C946432DE28F128F62802294F
:1051A0000E299B291A2922292A29362942294E29E2
:1051B0005F296B299B29772983298F2984B58068EA
:1051C00084BDB7BC36E0C30ED11C82E0880E911CB2
:1051D0002C143D0409F093CFCE01C7960E945919B3
:1051E00006CF84B5806284BDB8BCECCF80918000CE
:1051F0008068809380008B2D9A2D909389008093F6
:105200008800E0CF809180008062809380008B2DA9
:105210009A2D90938B0080938A00D4CF8091800048
:105220008860809380008B2D9A2D90938D008093C1
:105230008C00C8CF8091B00080688093B000B0929D
:10524000B300C0CF8091B00080628093B000B09274
:10525000B400B8CF809190008068809390008B2D2F
:105260009A2D9093990080939800ACCF80919000F4
:105270008062809390008B2D9A2D90939B00809359
:105280009A00A0CF809190008860809390008B2D31
:105290009A2D90939D0080939C0094CF8091A000C4
:1052A00080688093A0008091A0008F7B8093A000F5
:1052B0008B2D9A2D9093A9008093A80083CF809185
:1052C000A00080628093A0008B2D9A2D9093AB005C
:1052D0008093AA0077CF8091A00088608093A0007F
:1052E0008B2D9A2D9093AD008093AC006BCF809165
:1052F00020018068809320018B2D9A2D90932901A5
:10530000809328015FCF80912001806280932001EB
:105310008B2D9A2D90932B0180932A0153CF80914E
:1053200020018860809320018B2D9A2D90932D0170
:1053300080932C0147CF20E8E216F1040CF01ACF3D
:1053400010CF6AE378E0CE01CD960E94C61788237D
:10535000E9F144E8C42E44E0D42E5EE0E52E57E0A7
:10536000F52E10E000E020913E0830913F082E5FBE
:105370003F4F50E040E0BE01635C7F4FCE018B9613
:105380000E940D19B701CE018B960E94E117B82E2D
:10539000CE018B960E9459190F5F1F4FBB2041F021
:1053A000D6018D919C91892B69F4C8010E940E1C35
:1053B000B6E0EB0EF11CE2E0CE0ED11C0831110577
:1053C00091F615CEC8010E94D01BF2CF64E378E0BD
:1053D000CE01CD960E94C617882309F408CEF0E0CE
:1053E000E0E0199504CE8FE095E00E9481098823C2
:1053F00009F40ECE409213055092140560921505E3
:10540000709216050E94530560930F057093100566
:10541000809311059093120588E893E1A0E0B0E035
:1054200080930B0590930C05A0930D05B0930E058A
:105430000E94530560930705709308058093090542
:1054400090930A051092060581E080931705E0CD40
:1054500087E095E00E948109882309F4D9CD8091E5
:10546000060590910505891708F07FC197E0909394
:10547000D6061092D7061092D8061092D90610922E
:10548000DA061092DB061092DC061092DD0610920E
:10549000DE061092DF061092E0061092E1061092EE
:1054A000E2061093E7061092E3061092E4061092CB
:1054B000E5061092E606A8E08A9FC00111248352F7
:1054C0009B4F9093D5068093D4060E94530560931A
:1054D000E3067093E4068093E5069093E6068091D8
:1054E000D60680FD03C0843009F058C04091D40630
:1054F0005091D50661E0182F147082FF60E090E0B3
:1055000080E00E94BA08882309F4A0C06091D40604
:105510007091D506CE018B960E942708882309F446
:1055200095C01123D9F06CA57DA533E075956795DD
:105530003A95E1F7072E000C880B990B0E946F300B
:1055400020E030E040E05DE30E94CE306093D7067B
:105550007093D8068093D9069093DA068091D60688
:1055600080FF1CC06FA570E0762F662766277370DA
:105570008EA5682B072E000C880B990B0E946F30AC
:1055800020E030E048EC52E40E94F2316093DB0608
:105590007093DC068093DD069093DE061091D606AC
:1055A00011FF52C012FFDFC0109511704091D40658
:1055B0005091D506612F81E090E00E94BA088823BF
:1055C00009F444C06091D4067091D506CE018B9643
:1055D0000E9427088823D1F11123D9F06CA57DA55D
:1055E00093E0759567959A95E1F7072E000C880B67
:1055F000990B0E946F3020E030E040E05DE30E94B4
:10560000CE306093D7067093D8068093D9069093D6
:10561000DA0668A979A977FF03C0719561957109C8
:10562000072E000C880B990B0E946F3020E030E0B1
:1056300040E859E30E94CE306093DF067093E006A5
:105640008093E1069093E2061092E7068091E706C8
:10565000811183C04091DF065091E0066091E10620
:105660007091E20623E0CE01C7960E946119409135
:10567000DB065091DC066091DD067091DE0622E0CB
:10568000CE01CD960E9461194091D7065091D8065F
:105690006091D9067091DA0622E0CE018D5B9F4FB2
:1056A0000E94611960910605B8E06B9FB00111245A
:1056B00063527B4FCE01875B9F4F0E944C1C6EEE66
:1056C00072E0CE01815B9F4F0E94FC18BE01675BB8
:1056D0007F4FCE01815B9F4F0E94721860EF72E096
:1056E0000E945C18BE016D5B7F4F0E94721860EFD4
:1056F00072E00E945C18BE01635C7F4F0E947218CA
:1057000060EF72E00E945C18BE01695C7F4F0E94EE
:105710007218BC01CE018B960E94F318CE018B96B5
:105720000E94361BCE018B960E945919CE01815BD7
:105730009F4F0E945919CE01875B9F4F0E945919B4
:10574000CE018D5B9F4F0E945919CE01CD960E94CC
:105750005919CE01C7960E945919809106058F5F8D
:105760008093060555CC10E021CF1092060582E00B
:105770006CCE87E095E00E948109882309F448CC2B
:10578000109106058091DC04181708F58EE0E8EE0C
:10579000F6E0DE011F9601900D928A95E1F7CE01A9
:1057A0000F960E94EF07E8E01E9FB00111246C5491
:1057B0007B4FCE010F960E94D00741E064E4CE01FA
:1057C0000F960E949C071F5F1093060521CC109234
:1057D000060583E03ACE87E095E00E9481098823A0
:1057E00009F416CC109106058091DC04181708F016
:1057F00085C08EE0E8EEF6E0DE01119601900D9294
:105800008A95E1F7CE0101960E94EF07F8E01F9F0D
:10581000B00111246C547B4FCE0101960E94D00739
:1058200040E06EEBCE0101960E949C078E01055D63
:105830001F4F7E0124E3E20EF11C580188E0C82EC0
:10584000D12C912C88248394CE0101960E94490783
:1058500081119828880C31E0C31AD108A9F7D80122
:105860009D928D01EA16FB0649F76BA57CA5072ED4
:10587000000C880B990B0E946F3020E030E040E86C
:105880005DE30E94CE30AB01BC0122E0CE01C796A1
:105890000E94611960910605B8E06B9FB001112468
:1058A0006C547B4FCE01CD960E944C1C6EEE72E084
:1058B000CE018D5B9F4F0E94FC18BE01635C7F4F41
:1058C000CE018D5B9F4F0E94721860EF72E00E94C4
:1058D0005C18BE01695C7F4F0E947218BC01C50153
:1058E0000E94F318C5010E94361BC5010E94591978
:1058F000CE018D5B9F4F0E94591927CF109217053B
:1059000087CBCF93DF9388E097E00E94591982E01C
:1059100097E00E9459198CEF96E00E94591986EF82
:1059200096E00E945919CEE9D7E02697CE010E9451
:10593000591987E0CE30D807C1F7C6EED7E02697D1
:10594000CE010E94591987E0CE39D807C1F7CEE2BF
:10595000D8E02697CE010E94591987E0C63ED807A5
:10596000C1F78EE298E00E94591984E398E00E9402
:1059700059198AE398E00E94591980E498E00E943E
:10598000591986E498E00E9459198CE498E00E9425
:10599000591982E598E00E94591988E598E00E941B
:1059A00059198EE598E00E94591984E698E0DF9134
:1059B000CF910C945919EF920F931F93CF93DF93CC
:1059C000E80134E047FD34E1042E000C550B57FF8D
:1059D00003C0519541955109E32E022F242FAE01AA
:1059E0000E94FE2DCE01DF91CF911F910F91EF907C
:1059F00008958F929F92AF92BF92CF92DF92EF92D3
:105A0000FF92CF93DF93EC01688179818A819B813A
:105A1000611571058105910521F464E279ED8BE54D
:105A200097E02DE133EF41E050E00E948F314901D2
:105A30005A019B01AC01A7EAB1E40E94AE316B01AF
:105A40007C01ACEEB4EFA50194010E94BC31C60EFE
:105A5000D71EE81EF91EF7FE06C081E0C81AD1085D
:105A6000E10880E8F80AC882D982EA82FB82C7018D
:105A7000B6019F77DF91CF91FF90EF90DF90CF90AD
:105A8000BF90AF909F908F9008958F929F92AF920A
:105A9000BF92CF92DF92EF92FF92609108027091D5
:105AA000090280910A0290910B026115710581052E
:105AB000910521F464E279ED8BE597E02DE133EF78
:105AC00041E050E00E948F3149015A019B01AC0135
:105AD000A7EAB1E40E94AE316B017C01ACEEB4EFF9
