:100000000C948D2B0C946B7E0C94407E0C94157E7E
:100010000C94EA7D0C94BF7D0C94947D0C94697DC6
:100020000C943E7D0C94BE2B0C94BE2B0C94BE2BDA
:100030000C94BE2B0C94BE2B0C94BE2B0C94BE2B9C
:100040000C94BE2B0C94BE2B0C94BE2B0C94BE2B8C
:100050000C94BE2B0C94BE2B0C94BE2B0C94F47CF5
:100060000C94BE2B0C94207F0C94F67E0C94BE2B2B
:100070000C94BE2B0C94BE2B0C94BE2B0C94BE2B5C
:100080000C94BE2B0C94BE2B0C94BE2B0C94BE2B4C
:100090000C94BE2B0C94BE2B0C94BE2B0C94BE2B3C
:1000A0000C94BE2B0C94BE2B0C94BE2B0C94BE2B2C
:1000B0000C94BE2B0C94BE2B0C94BE2B0C94BE2B1C
:1000C0000C94BE2B0C94BE2B0C94BE2B0C94BE2B0C
:1000D0000C94BE2B0C94BE2B0C94C07E0C94967E7C
:1000E0000C94BE2B0C94A62C0C9460380C94832C8E
:1000F0000C94DA2D0C94082E0C94633D0C94EB2C8C
:100100000C94F3360C9483360C946E300C94E72CDC
:100110000C94E22D0C94B2430C94673B0C94203564
:100120000C940C350C94212E0C94E0360C94EE3685
:100130000C943D3E0C94E4360C9435400C943F2EC8
:100140000C94172E0C94F2370C943E380C94B02C6F
:100150000C94FB360C9400370C94B42C0C942B2E7E
:100160000C94F0360C94523B0C94B73F0C94B12E87
:100170000C94AC2C0C94D02D0C94492E0C94B940BA
:100180000C94F42D0C94DD2C0C941F2F0C94C12E88
:100190000C94D92C0C9462400C94612F0C94863EE4
:1001A0000C94AE2F0C94A5300C943D920C94A03E70
:1001B0000C94CF2C0C9402350C949A4C0C94ED3B7F
:1001C0000C94BB2C0C94EE2E0C9421390C945C3EB8
:1001D0000C94D23B0C9402470C94E62C0C94B72D53
:1001E0000C94833F0C9412380C940C3D0C94B22E5A
:1001F0000C94D32C0C94BC2D0C94352E0C941635E9
:100200000C9404370C94C62D0C94E12C0C94C12C46
:100210000C94C52C0C94FC360C94112F0C94FD2ED0
:100220000C94413A0C94872C0C942A350C94B82CDD
:100230000C94F27F0C94F6400C9434350C941437E3
:100240000C9430390C9484300C9499380C94CB2C49
:100250000C94653F0C94FE2D0C941B370C94254494
:100260000C949A300C94EA2D0C94AF2D00407A1027
:10027000F35A00A0724E18090010A5D4E80000E857
:100280007648170000E40B54020000CA9A3B0000B5
:1002900000E1F505000080969800000040420F0044
:1002A0000000A08601000000102700000000E80305
:1002B000000000006400000000000A0000000000D0
:1002C0000100000000002C76D888DC674F0823DF8F
:1002D000C1DFAE59E1B1B796E5E3E453C63AE65162
:1002E000997696E8E6C28426EB898C9B62ED407C89
:1002F0006FFCEFBC9C9F40F2BAA56FA5F490055A25
:100300002AF75C936B6CF9676DC11BFCE0E40D4749
:10031000FEF520E6B500D0ED902E0300943577056C
:100320000080841E080000204E0A000000C80C3324
:100330003333330F986E12831141EF8D2114893BB3
:10034000E65516CFFEE6DB18D1844B381BF77C1D33
:10035000901DA4BBE424203284725E228100C9F186
:1003600024ECA1E53D27343034204E6F7420466FD5
:10037000756E6400436F6E6E656374696F6E3A20CC
:10038000636C6F736500436F6E74656E742D547982
:1003900070653A20746578742F706C61696E0048DE
:1003A0005454502F312E3120343034204E6F74206D
:1003B000466F756E64003C2F74626F64793E3C2F0B
:1003C0007461626C653E3C2F74643E3C2F74723ED7
:1003D0003C2F7461626C653E3C2F6469763E3C2F15
:1003E0006469763E3C2F626F64793E3C2F68746D81
:1003F0006C3E003C2F74643E3C2F74723E00222CF5
:10040000656E636F6465555249436F6D706F6E65BD
:100410006E7428746869732E76616C756529292756
:100420003E0027206F6E6368616E67653D277365C8
:100430006E64436F6D6D616E642822616C696173D7
:100440005F647331386232305F00272076616C75EB
:10045000653D270027206E616D653D27616C6961F0
:10046000735F647331386232305F00273E3C2F7413
:10047000643E3C74643E3C696E707574207479709F
:10048000653D2774657874272069643D27616C6930
:1004900061735F647331386232305F003C2F746483
:1004A0003E3C74642069643D2764733138623230A5
:1004B0005F74656D7000273E003C2F74643E3C7491
:1004C000642069643D27647331386232305F736E33
:1004D000003C74723E3C74643E44533138423230C6
:1004E0002D003C2F74626F64793E3C2F7461626C06
:1004F000653E3C2F74643E3C746420776964746884
:100500003D27353025273E3C68333E312D576972F3
:10051000652053656E736F727320445331384232D5
:10052000303C2F68333E3C7461626C6520636C61C3
:1005300073733D276F6E65776972652D7461626CA8
:1005400065272069643D2764733138623230546115
:10055000626C65273E3C74626F64793E003C2F7488
:10056000643E3C2F74723E00222C656E636F64659E
:10057000555249436F6D706F6E656E74287468696B
:10058000732E76616C75652929273E0027206F6ED2
:100590006368616E67653D2773656E64436F6D6D5B
:1005A000616E642822616C6961735F6473323433F5
:1005B000385F00272076616C75653D270027206E27
:1005C000616D653D27616C6961735F6473323433BB
:1005D000385F00273E3C2F74643E3C74643E3C69A7
:1005E0006E70757420747970653D27746578742712
:1005F0002069643D27616C6961735F6473323433D1
:10060000385F00273E3C2F74643E3C74642069646C
:100610003D276473323433385F7673656E73002719
:100620003E3C2F74643E3C74642069643D276473CF
:10063000323433385F766164003C2F74643E3C741E
:10064000642069643D276473323433385F74656DA8
:100650007000273E003C2F74643E3C746420696443
:100660003D276473323433385F736E003C74723EDE
:100670003C74643E4453323433382D003C64697614
:10068000207374796C653D27626F726465723A31CC
:10069000707820736F6C696420236363633B6D61C2
:1006A0007267696E2D626F74746F6D3A3130707855
:1006B0003B273E3C7461626C6520636C6173733DE3
:1006C000276F75746572273E3C74723E3C746420DB
:1006D00077696474683D27353025273E3C68333E92
:1006E000312D576972652053656E736F72732044A4
:1006F00053323433383C2F68333E3C7461626C654E
:1007000020636C6173733D276F6E65776972652D29
:100710007461626C65272069643D276473323433E9
:10072000385461626C65273E3C74626F64793E00A8
:100730003C2F7461626C653E3C2F74643E3C2F74A8
:10074000723E3C2F7461626C653E3C2F6469763E5C
:10075000003C2F74643E3C2F74723E00222C656E68
:10076000636F6465555249436F6D706F6E656E744B
:1007700028746869732E76616C75652929273E0097
:1007800027206F6E6368616E67653D2773656E64D1
:10079000436F6D6D616E642822616C6961735F6186
:1007A0006E614F75745F00272076616C75653D271B
:1007B0000027206E616D653D27616C6961735F6123
:1007C0006E614F75745F0056293C2F74643E3C7413
:1007D000643E3C696E70757420747970653D277451
:1007E000657874272069643D27616C6961735F6176
:1007F0006E614F75745F00273E28003C2F74643E85
:100800003C74642069643D27616E614F7574566F56
:100810006C7461676500222C746869732E76616C54
:10082000756529273E0027206F6E6368616E6765D6
:100830003D2773656E64436F6D6D616E6428226140
:100840006E614F75740027206D696E3D273027203B
:100850006D61783D27323535272076616C75653DB1
:10086000270027206E616D653D27616E614F7574AD
:10087000003C2F74643E3C74643E3C696E70757439
:1008800020747970653D276E756D626572272069E9
:10089000643D27616E614F7574003C74723E3C7418
:1008A000643E414F20003C2F74626F64793E3C2FC0
:1008B0007461626C653E3C2F74643E3C74642077C6
:1008C000696474683D27353025273E3C68333E41D6
:1008D0006E616C6F67204F7574707574732028306B
:1008E0002D323535203D20302D313056293C2F68B2
:1008F000333E3C7461626C6520636C6173733D27A9
:10090000696E6E6572273E003C2F74643E3C2F7406
:10091000723E00222C656E636F6465555249436FC9
:100920006D706F6E656E7428746869732E76616C75
:1009300075652929273E0027206F6E6368616E6701
:10094000653D2773656E64436F6D6D616E6428222B
:10095000616C6961735F616E61496E7075745F008F
:10096000272076616C75653D270027206E616D65D7
:100970003D27616C6961735F616E61496E7075746A
:100980005F003C2F74643E3C74643E3C696E70753D
:100990007420747970653D277465787427206964C4
:1009A0003D27616C6961735F616E61496E7075743A
:1009B0005F00273E003C2F74643E3C7464206964F1
:1009C0003D2761695F737461747573003C74723E96
:1009D0003C74643E414920003C646976207374791C
:1009E0006C653D27626F726465723A31707820736E
:1009F0006F6C696420236363633B6D617267696E2A
:100A00002D626F74746F6D3A313070783B273E3CC5
:100A10007461626C6520636C6173733D276F7574DC
:100A20006572273E3C74723E3C746420776964743E
:100A3000683D27353025273E3C68333E416E616C6A
:100A40006F6720496E707574732028302D313032F5
:100A500034203D20302D313056293C2F68333E3C28
:100A60007461626C6520636C6173733D27696E6E9F
:100A70006572272069643D27616E61496E707574E7
:100A8000735461626C65273E3C74626F64793E000A
:100A90003C2F74626F64793E3C2F7461626C653EDA
:100AA0003C2F74643E3C2F74723E3C2F7461626C28
:100AB000653E3C2F6469763E003C2F74643E3C2FBB
:100AC00074723E00222C656E636F64655552494313
:100AD0006F6D706F6E656E7428746869732E7661C1
:100AE0006C75652929273E0027206F6E6368616E4B
:100AF00067653D2773656E64436F6D6D616E642835
:100B000022616C6961735F646967496E7075745FB7
:100B100000272076616C75653D270027206E616D8A
:100B2000653D27616C6961735F646967496E7075C3
:100B3000745F003C2F74643E3C74643E3C696E708C
:100B4000757420747970653D277465787427206901
:100B5000643D27616C6961735F646967496E707594
:100B6000745F00273E003C2F74643E3C746420692F
:100B7000643D2764695F737461747573003C7472BB
:100B80003E3C74643E444920003C2F74626F64799B
:100B90003E3C2F7461626C653E3C2F74643E3C7435
:100BA000642077696474683D27353025273E3C68AA
:100BB0003320636C6173733D276469672D696E70C0
:100BC0007574732D7469746C65273E446967697424
:100BD000616C20496E707574732031332D32343C52
:100BE0002F68333E3C7461626C6520636C61737383
:100BF0003D27696E6E6572272069643D27646967C9
:100C0000496E707574735461626C6532273E3C7432
:100C1000626F64793E003C2F74643E3C2F74723ED8
:100C200000222C656E636F6465555249436F6D7089
:100C30006F6E656E7428746869732E76616C756565
:100C40002929273E0027206F6E6368616E67653D26
:100C50002773656E64436F6D6D616E642822616CED
:100C60006961735F646967496E7075745F002720FE
:100C700076616C75653D270027206E616D653D27A7
:100C8000616C6961735F646967496E7075745F0058
:100C90003C2F74643E3C74643E3C696E70757420F5
:100CA000747970653D2774657874272069643D27E1
:100CB000616C6961735F646967496E7075745F0028
:100CC000273E003C2F74643E3C74642069643D27D9
:100CD00064695F737461747573003C74723E3C7434
:100CE000643E444920003C646976207374796C65E5
:100CF0003D27626F726465723A31707820736F6C51
:100D0000696420236363633B6D617267696E2D6262
:100D10006F74746F6D3A313070783B273E3C74616C
:100D2000626C6520636C6173733D276F75746572C7
:100D3000273E3C74723E3C74642077696474683D5D
:100D400027353025273E3C683320636C6173733D43
:100D5000276469672D696E707574732D7469746C7E
:100D600065273E4469676974616C20496E707574CB
:100D70007320312D31323C2F68333E3C7461626CFC
:100D80006520636C6173733D27696E6E6572272001
:100D900069643D27646967496E7075747354616254
:100DA0006C6531273E3C74626F64793E003C2F7461
:100DB00061626C653E3C2F74643E3C2F74723E3C15
:100DC0002F7461626C653E3C2F74643E3C2F7472DC
:100DD0003E3C2F7461626C653E3C2F6469763E0038
:100DE0003C2F74643E3C2F74723E00222C656E636F
:100DF0006F6465555249436F6D706F6E656E7428F0
:100E0000746869732E76616C75652929273E002701
:100E1000206F6E6368616E67653D2773656E64431E
:100E20006F6D6D616E642822616C6961735F6C73B4
:100E3000735F00272076616C75653D270027206E63
:100E4000616D653D27616C6961735F6C73735F00F1
:100E50003C2F74643E3C74643E3C696E7075742033
:100E6000747970653D2774657874272069643D271F
:100E7000616C6961735F6C73735F002D00222C7469
:100E80006869732E76616C756529273E0027206F8F
:100E90006E6368616E67653D2773656E64436F6D51
:100EA0006D616E6428226C73730027206D696E3D3E
:100EB000273027206D61783D273235352720766130
:100EC0006C75653D270027206E616D653D276C734D
:100ED0007350574D003C696E70757420747970655D
:100EE0003D276E756D626572272069643D276C73BE
:100EF0007350574D003E3C2F74643E3C74643E007A
:100F000020636865636B656400222C746869732EC6
:100F1000636865636B65643F313A30292700272099
:100F20006F6E6368616E67653D2773656E64436FBE
:100F30006D6D616E6428226C73730027206E616D85
:100F4000653D276C7373003C2F74643E3C74643EB3
:100F50003C696E70757420747970653D27636865AF
:100F6000636B626F78272069643D276C7373003C64
:100F700074723E3C74643E4C535320003C2F7461A9
:100F8000626C653E3C2F74643E3C2F74723E3C7430
:100F9000723E3C74643E3C68333E4C6F772D53691F
:100FA0006465205377697463686573205374617452
:100FB00075732028302D323535203D20302D562BAD
:100FC000293C2F68333E3C7461626C6520636C6120
:100FD00073733D27696E6E6572273E003C2F746403
:100FE0003E3C2F74723E00222C656E636F64655523
:100FF0005249436F6D706F6E656E742874686973C3
:101000002E76616C75652929273E0027206F6E6357
:1010100068616E67653D2773656E64436F6D6D61D2
:101020006E642822616C6961735F6873735F002767
:101030002076616C75653D270027206E616D653DEA
:1010400027616C6961735F6873735F003C2F746420
:101050003E3C74643E3C696E7075742074797065B2
:101060003D2774657874272069643D27616C696148
:10107000735F6873735F00222C746869732E7661E6
:101080006C756529273E0027206F6E6368616E6767
:10109000653D2773656E64436F6D6D616E642822D4
:1010A0006873730027206D696E3D273027206D61BE
:1010B000783D27323535272076616C75653D2700F0
:1010C00027206E616D653D2768737350574D003E54
:1010D0003C2F74643E3C74643E3C696E70757420B1
:1010E000747970653D276E756D626572272069643D
:1010F0003D2768737350574D0020636865636B65C7
:101100006400222C746869732E636865636B656480
:101110003F313A3029270027206F6E6368616E6780
:10112000653D2773656E64436F6D6D616E64282243
:101130006873730027206E616D653D2768737300C7
:101140003C2F74643E3C74643E3C696E7075742040
:10115000747970653D27636865636B626F782720DB
:1011600069643D27687373003C74723E3C74643E4E
:1011700048535320003C7461626C6520636C61735A
:10118000733D27696E6E6572273E3C74723E3C74F7
:10119000643E3C68333E486967682D536964652046
:1011A0005377697463686573205374617475732031
:1011B00028302D323535203D20302D562B293C2F1F
:1011C00068333E3C7461626C6520636C6173733D8F
:1011D00027696E6E6572273E003C2F7461626C65F4
:1011E0003E3C2F74643E3C74642077696474683DAF
:1011F00027353025273E003C2F74643E3C2F747207
:101200003E00222C656E636F6465555249436F6DD5
:10121000706F6E656E7428746869732E76616C7574
:10122000652929273E0027206F6E6368616E676518
:101230003D2773656E64436F6D6D616E6428226136
:101240006C6961735F72656C61795F0027207661FC
:101250006C75653D270027206E616D653D27616CCB
:101260006961735F72656C61795F003E3C2F7464E5
:101270003E3C74643E3C696E707574207479706590
:101280003D2774657874272069643D27616C696126
:10129000735F72656C61795F0020636865636B657D
:1012A0006400222C746869732E636865636B6564DF
:1012B0003F313A3029270027206F6E6368616E67DF
:1012C000653D2773656E64436F6D6D616E642822A2
:1012D00072656C61790027206E616D653D277265CE
:1012E0006C6179003C2F74643E3C74643E3C696ED2
:1012F00070757420747970653D27636865636B62EF
:101300006F78272069643D2772656C6179003C74B1
:10131000723E3C74643E52656C617920003C6469A5
:1013200076207374796C653D27626F726465723ADA
:1013300031707820736F6C696420236363633B6D45
:10134000617267696E2D626F74746F6D3A313070BF
:10135000783B273E3C7461626C6520636C617373FB
:101360003D276F75746572273E3C74723E3C746411
:101370002077696474683D27353025273E3C683303
:101380003E52656C6179205374617475733C2F68AB
:10139000333E3C7461626C6520636C6173733D27FE
:1013A000696E6E6572273E003E4F6E3C2F6F707403
:1013B000696F6E3E3C2F73656C6563743E3C2F74A1
:1013C000643E3C2F74723E3C2F7461626C653E3CFF
:1013D0002F74643E3C2F74723E3C2F7461626C65C6
:1013E0003E3C2F6469763E0073656C65637465648A
:1013F000003E4F66663C2F6F7074696F6E3E3C6FA7
:101400007074696F6E2076616C75653D2731272099
:101410000073656C6563746564003C6F7074696F1C
:101420006E2076616C75653D27302720003E4F6E3B
:101430003C2F6F7074696F6E3E3C2F73656C6563F3
:10144000743E3C2F74643E3C2F74723E3C74723E7A
:101450003C74643E53657269616C204465627567D3
:101460002028313135323030204264293C2F7464D9
:101470003E3C74643E3C73656C6563742069643DF6
:10148000276465627567456E61626C656427206FCD
:101490006E6368616E67653D2773656E64436F6D4B
:1014A0006D616E6428226465627567456E61626C69
:1014B0006564222C746869732E76616C75652927C2
:1014C0003E0073656C6563746564003E4F66663C00
:1014D0002F6F7074696F6E3E3C6F7074696F6E2011
:1014E00076616C75653D273127200073656C6563F7
:1014F000746564003C6F7074696F6E2076616C7502
:10150000653D273027200027206F6E6368616E6776
:10151000653D2773656E64436F6D6D616E6428224F
:10152000636865636B496E74657276616C222C74B6
:101530006869732E76616C756529273E206D733C52
:101540002F74643E3C2F74723E3C74723E3C746453
:101550003E50756C7365732053656E73696E6720BA
:101560002844492031302C31312C3132293C2F7420
:10157000643E3C74643E3C73656C656374206964CE
:101580003D2770756C73654F6E27206F6E636861C1
:101590006E67653D2773656E64436F6D6D616E6444
:1015A000282270756C73654F6E222C746869732ED7
:1015B00076616C756529273E0027206F6E63686130
:1015C0006E67653D2773656E64436F6D6D616E6414
:1015D000282270756C736553656E644379636C651E
:1015E000222C746869732E76616C756529273E20FC
:1015F0006D733C2F74643E3C2F74723E3C74723E9B
:101600003C74643E50696E672044484350204379DF
:10161000636C653C2F74643E3C74643E3C696E7040
:10162000757420747970653D276E756D62657227DB
:101630002069643D27636865636B496E74657276E3
:10164000616C27206D696E3D273230303027206D68
:1016500061783D27363030303027207374796C65DF
:101660003D2777696474683A383070783B27207674
:10167000616C75653D270027206F6E6368616E673A
:10168000653D2773656E64436F6D6D616E642822DE
:10169000616E61496E7075744379636C65222C7458
:1016A0006869732E76616C756529273E206D733CE1
:1016B0002F74643E3C2F74723E3C74723E3C7464E2
:1016C0003E50756C7365732053656E642043796377
:1016D0006C653C2F74643E3C74643E3C696E70756E
:1016E0007420747970653D276E756D626572272070
:1016F00069643D2770756C736553656E64437963E7
:101700006C6527206D696E3D27323030302720739D
:1017100074796C653D2777696474683A38307078FD
:101720003B272076616C75653D270027206F6E632F
:1017300068616E67653D2773656E64436F6D6D61AB
:101740006E6428226F6E65576972654379636C65B4
:10175000222C746869732E76616C756529273E208A
:101760006D733C2F74643E3C2F74723E3C74723E29
:101770003C74643E416E616C6F6720496E70757495
:10178000204379636C653C2F74643E3C74643E3C3A
:10179000696E70757420747970653D276E756D6221
:1017A0006572272069643D27616E61496E707574AA
:1017B0004379636C6527206D696E3D273230303088
:1017C00027207374796C653D2777696474683A38AB
:1017D0003070783B272076616C75653D27002720A7
:1017E0006F6E6368616E67653D2773656E64436FF6
:1017F0006D6D616E64282273657269616C4E756DE2
:10180000626572222C746869732E76616C75652925
:10181000273E3C2F74643E3C2F74723E3C2F746113
:10182000626C653E3C2F74643E3C7464207769644E
:1018300074683D27353025273E3C68333E4F746839
:1018400065722073657474696E67733C2F68333EEC
:101850003C7461626C6520636C6173733D276F74C7
:101860006865722D73657474696E67732D74616237
:101870006C65273E3C74723E3C74643E312D576962
:101880007265204379636C653C2F74643E3C7464DC
:101890003E3C696E70757420747970653D276E7575
:1018A0006D626572272069643D276F6E65576972A6
:1018B000654379636C6527206D696E3D273530304F
:1018C0003027207374796C653D2777696474683AB2
:1018D000383070783B272076616C75653D2700278E
:1018E000206F6E6368616E67653D27666574636827
:1018F00028222F636F6D6D616E643F646573637240
:10190000697074696F6E3D222B656E636F646555F7
:101910005249436F6D706F6E656E74287468697399
:101920002E76616C75652929273E3C2F74643E3CF8
:101930002F74723E3C74723E3C74643E536572690F
:10194000616C204E756D6265723C2F74643E3C7410
:10195000643E3C696E70757420747970653D2774BF
:10196000657874272069643D2773657269616C4EE0
:10197000756D62657227206D61786C656E6774683D
:101980003D273230272076616C75653D27003C2F5E
:1019900074643E3C2F74723E3C74723E3C74643EF0
:1019A0004465736372697074696F6E3C2F74643E32
:1019B0003C74643E3C696E70757420747970653D4A
:1019C0002774657874272069643D276465736372A2
:1019D000697074696F6E27206D61786C656E6774CD
:1019E000683D273230272076616C75653D27003AC7
:1019F0000030003C2F74643E3C2F74723E3C747285
:101A00003E3C74643E4D414320416464726573738F
:101A10003C2F74643E3C74643E003C2F74643E3C36
:101A20002F74723E3C74723E3C74643E4761746530
:101A30007761793C2F74643E3C74643E003C2F74A3
:101A4000643E3C2F74723E3C74723E3C74643E496A
:101A500050204164647265737320284448435029C0
:101A60003C2F74643E3C74643E003C646976207391
:101A700074796C653D27626F726465723A31707873
:101A800020736F6C696420236363633B6D617267CD
:101A9000696E2D626F74746F6D3A313070783B27C8
:101AA0003E3C7461626C6520636C6173733D276FAB
:101AB00075746572273E3C74723E3C74642077698D
:101AC0006474683D27353025273E3C68333E4261CB
:101AD00073696320496E666F726D6174696F6E3CE5
:101AE0002F68333E3C7461626C6520636C61737374
:101AF0003D2762617369632D696E666F2D74616243
:101B00006C65273E3C74723E3C74643E44495020F0
:101B100053776974636820416464726573733C2F02
:101B200074643E3C74643E0020436F6E74726F6C4C
:101B30002050616E656C3C2F68323E003C626F64E1
:101B4000793E3C64697620636C6173733D27636FF3
:101B50006E7461696E6572273E3C64697620636CC1
:101B60006173733D2772657365742D627574746F4C
:101B70006E273E3C696E70757420747970653D27E0
:101B8000627574746F6E27206F6E636C69636B3D52
:101B900022736176654368616E6765732829222028
:101BA00076616C75653D2753617665206368616E6B
:101BB000676573273E3C696E707574207479706533
:101BC0003D27627574746F6E27206F6E636C696356
:101BD0006B3D2277696E646F772E6C6F63617469F9
:101BE0006F6E2E687265663D272F696E666F2722BD
:101BF0002076616C75653D275669657720446F6373
:101C000073273E3C696E70757420747970653D274A
:101C1000627574746F6E27206F6E636C69636B3DC1
:101C200022696628636F6E6669726D28275468653D
:101C3000206D6F64756C652077696C6C20726562CD
:101C40006F6F742E20436F6E74696E75653F272920
:101C5000292077696E646F772E6C6F636174696F8A
:101C60006E2E687265663D272F7265626F6F7427EE
:101C7000222076616C75653D275265626F6F74270F
:101C80003E3C2F6469763E3C68323E5261696C642A
:101C900075696E6F20003C2F7363726970743E3CEF
:101CA0002F686561643E0066756E6374696F6E20AF
:101CB000736176654368616E6765732829207B765A
:101CC000617220706172616D73203D2027273B7621
:101CD00061722073657269616C203D20646F637569
:101CE0006D656E742E676574456C656D656E7442C6
:101CF000794964282773657269616C4E756D6265F8
:101D00007227292E76616C75653B6966202873659C
:101D10007269616C2920706172616D73202B3D20A6
:101D20002773657269616C4E756D6265723D27201F
:101D30002B20656E636F6465555249436F6D706FFC
:101D40006E656E742873657269616C29202B20277B
:101D500026273B7661722064657363203D20646FA3
:101D600063756D656E742E676574456C656D656E23
:101D70007442794964282764657363726970746971
:101D80006F6E27292E76616C75653B696620286425
:101D90006573632920706172616D73202B3D20276C
:101DA0006465736372697074696F6E3D27202B20C0
:101DB000656E636F6465555249436F6D706F6E65F4
:101DC0006E74286465736329202B202726273B76B1
:101DD0006172206F6E6557697265203D20646F6384
:101DE000756D656E742E676574456C656D656E7492
:101DF0004279496428276F6E655769726543796334
:101E00006C6527292E76616C75653B696620286FA5
:101E10006E65576972652920706172616D73202B40
:101E20003D20276F6E65576972654379636C653D28
:101E300027202B206F6E6557697265202B2027267F
:101E4000273B76617220616E61496E707574203D2A
:101E500020646F63756D656E742E676574456C657F
:101E60006D656E74427949642827616E61496E70B0
:101E700075744379636C6527292E76616C75653BB3
:101E800069662028616E61496E70757429207061E1
:101E900072616D73202B3D2027616E61496E7075F4
:101EA000744379636C653D27202B20616E61496E18
:101EB000707574202B202726273B76617220707561
:101EC0006C736553656E64203D20646F63756D654A
:101ED0006E742E676574456C656D656E74427949E4
:101EE00064282770756C736553656E644379636C01
:101EF0006527292E76616C75653B696620287075AB
:101F00006C736553656E642920706172616D732016
:101F10002B3D202770756C736553656E6443796340
:101F20006C653D27202B2070756C736553656E645E
:101F3000202B202726273B76617220636865636B20
:101F4000496E74203D20646F63756D656E742E67F5
:101F50006574456C656D656E7442794964282763C4
:101F60006865636B496E74657276616C27292E769D
:101F7000616C75653B69662028636865636B496EB3
:101F8000742920706172616D73202B3D2027636876
:101F900065636B496E74657276616C3D27202B20FA
:101FA000636865636B496E74202B202726273B7678
:101FB00061722070756C73654F6E496E7075742018
:101FC0003D20646F63756D656E742E676574456C36
:101FD000656D656E7442794964282770756C736508
:101FE0004F6E27293B6966202870756C73654F6EAC
:101FF000496E7075742026262070756C73654F6E5F
:10200000496E7075742E76616C75652920706172E9
:10201000616D73202B3D202770756C73654F6E3D8D
:1020200027202B2070756C73654F6E496E70757428
:102030002E76616C7565202B202726273B766172F2
:10204000206465627567496E707574203D20646F09
:1020500063756D656E742E676574456C656D656E30
:10206000744279496428276465627567456E6162C8
:102070006C656427293B6966202864656275674939
:102080006E707574202626206465627567496E70CF
:1020900075742E76616C75652920706172616D733F
:1020A000202B3D20276465627567456E61626C6513
:1020B000643D27202B206465627567496E707574D6
:1020C0002E76616C7565202B202726273B666F7264
:1020D00020287661722069203D20313B2069203C18
:1020E0003D2031323B20692B2B29207B202076613B
:1020F000722072656C6179416C696173203D206466
:102100006F63756D656E742E676574456C656D657E
:102110006E74427949642827616C6961735F7265E6
:102120006C61795F27202B2069292E76616C75659B
:102130003B20206966202872656C6179416C696179
:10214000732920706172616D73202B3D2027616CB3
:102150006961735F72656C61795F27202B2069204C
:102160002B20273D27202B20656E636F6465555219
:1021700049436F6D706F6E656E742872656C61791E
:10218000416C69617329202B202726273B7D666FD0
:102190007220287661722069203D20313B20692021
:1021A0003C3D20343B20692B2B29207B202076616D
:1021B0007220687373416C696173203D20646F63A2
:1021C000756D656E742E676574456C656D656E74AE
:1021D000427949642827616C6961735F6873735F32
:1021E00027202B2069292E76616C75653B2020699C
:1021F000662028687373416C69617329207061726D
:10220000616D73202B3D2027616C6961735F68737A
:10221000735F27202B2069202B20273D27202B2090
:10222000656E636F6465555249436F6D706F6E657F
:102230006E7428687373416C69617329202B2027A1
:1022400026273B7D666F7220287661722069203DCB
:1022500020313B2069203C3D20343B20692B2B2939
:10226000207B2020766172206C7373416C696173EE
:10227000203D20646F63756D656E742E67657445CF
:102280006C656D656E74427949642827616C69617B
:10229000735F6C73735F27202B2069292E76616C26
:1022A00075653B2020696620286C7373416C6961F9
:1022B000732920706172616D73202B3D2027616C42
:1022C0006961735F6C73735F27202B2069202B205B
:1022D000273D27202B20656E636F64655552494367
:1022E0006F6D706F6E656E74286C7373416C69618D
:1022F0007329202B202726273B7D666F72202876A6
:1023000061722069203D20313B2069203C3D203214
:10231000343B20692B2B29207B202076617220649E
:102320006967496E707574416C696173203D206402
:102330006F63756D656E742E676574456C656D654C
:102340006E74427949642827616C6961735F6469BE
:1023500067496E7075745F27202B2069292E76617E
:102360006C75653B202069662028646967496E703A
:102370007574416C6961732920706172616D73209D
:102380002B3D2027616C6961735F646967496E70DA
:1023900075745F27202B2069202B20273D27202BB9
:1023A00020656E636F6465555249436F6D706F6E43
:1023B000656E7428646967496E707574416C6961F3
:1023C0007329202B202726273B7D666F72202876D5
:1023D00061722069203D20313B2069203C3D203244
:1023E0003B20692B2B29207B202076617220616E97
:1023F00061496E707574416C696173203D20646F32
:1024000063756D656E742E676574456C656D656E7C
:1024100074427949642827616C6961735F616E61F8
:10242000496E7075745F27202B2069292E76616CA8
:1024300075653B202069662028616E61496E707564
:1024400074416C6961732920706172616D73202B16
:102450003D2027616C6961735F616E61496E7075C3
:10246000745F27202B2069202B20273D27202B203D
:10247000656E636F6465555249436F6D706F6E652D
:102480006E7428616E61496E707574416C69617318
:1024900029202B202726273B7D666F722028766116
:1024A000722069203D20313B2069203C3D20323B99
:1024B00020692B2B29207B202076617220616E61A0
:1024C0004F7574416C696173203D20646F63756D55
:1024D000656E742E676574456C656D656E744279C2
:1024E00049642827616C6961735F616E614F75741F
:1024F0005F27202B2069292E76616C75653B202093
:1025000069662028616E614F7574416C6961732939
:1025100020706172616D73202B3D2027616C6961B1
:10252000735F616E614F75745F27202B2069202BCC
:1025300020273D27202B20656E636F646555524927
:10254000436F6D706F6E656E7428616E614F757448
:10255000416C69617329202B202726273B7D666FFC
:102560007220287661722069203D20313B2069204D
:102570003C3D2031303B20692B2B29207B202076CD
:10258000617220647332343338416C696173496E0F
:10259000707574203D20646F63756D656E742E6771
:1025A0006574456C656D656E744279496428276170
:1025B0006C6961735F6473323433385F27202B207A
:1025C00069293B20206966202864733234333841FE
:1025D0006C696173496E70757420262620647332AD
:1025E000343338416C696173496E7075742E76614D
:1025F0006C75652920706172616D73202B3D2027F9
:10260000616C6961735F6473323433385F27202BE8
:102610002069202B20273D27202B20656E636F64C7
:1026200065555249436F6D706F6E656E74286473A3
:1026300032343338416C696173496E7075742E762B
:10264000616C756529202B202726273B7D666F72DC
:1026500020287661722069203D20313B2069203C92
:102660003D2031303B20692B2B29207B20207661B7
:10267000722064733138623230416C696173496E23
:10268000707574203D20646F63756D656E742E6780
:102690006574456C656D656E74427949642827617F
:1026A0006C6961735F647331386232305F27202B4D
:1026B0002069293B20206966202864733138623202
:1026C00030416C696173496E7075742026262064F0
:1026D000733138623230416C696173496E70757460
:1026E0002E76616C75652920706172616D73202B87
:1026F0003D2027616C6961735F64733138623230E9
:102700005F27202B2069202B20273D27202B2065A9
:102710006E636F6465555249436F6D706F6E656E81
:10272000742864733138623230416C696173496E68
:102730007075742E76616C756529202B20272627ED
:102740003B7D76617220786872203D206E6577202F
:10275000584D4C48747470526571756573742829AE
:102760003B7868722E6F70656E2827474554272C7A
:1027700020272F636F6D6D616E643F27202B2070C3
:102780006172616D732C2074727565293B78687273
:102790002E6F6E72656164797374617465636861CC
:1027A0006E6765203D2066756E6374696F6E2829BB
:1027B000207B2020696620287868722E726561640B
:1027C000795374617465203D3D203420262620789D
:1027D00068722E737461747573203D3D2032303001
:1027E00029207B20202020616C657274282753618A
:1027F0007665642127293B20207D7D3B7868722EF9
:1028000073656E6428293B7D0066756E6374696F1D
:102810006E2073656E64436F6D6D616E64287061C8
:1028200072616D2C76616C7565297B6966287061B3
:1028300072616D2E7374617274735769746828279E
:1028400068737327297C7C706172616D2E7374616B
:102850007274735769746828276C737327292970F9
:10286000656E64696E67436F6D6D616E64735B70F6
:102870006172616D5D3D747275653B666574636818
:1028800028272F636F6D6D616E643F272B70617217
:10289000616D2B273D272B76616C7565292E746839
:1028A000656E28726573706F6E73653D3E726573F9
:1028B000706F6E73652E746578742829292E74687C
:1028C000656E28646174613D3E7B69662870617243
:1028D000616D2E7374617274735769746828276808
:1028E000737327297C7C706172616D2E73746172C1
:1028F00074735769746828276C7373272929646572
:102900006C6574652070656E64696E67436F6D6D8C
:10291000616E64735B706172616D5D3B7570646163
:10292000746553746174757328293B7D293B7D64FC
:102930006F63756D656E742E6164644576656E7443
:102940004C697374656E65722827444F4D436F6EF2
:1029500074656E744C6F61646564272C7570646176
:102960007465537461747573293B00666F72286CCB
:10297000657420693D303B693C646174612E616C13
:102980006961735F6473323433382E6C656E6774BB
:10299000683B692B2B297B6C657420616C696173C2
:1029A000496E7075743D646F63756D656E742E67E6
:1029B0006574456C656D656E74427949642827615C
:1029C0006C6961735F6473323433385F272B286915
:1029D0002B3129293B696628616C696173496E70E6
:1029E000757429616C696173496E7075742E7661B6
:1029F0006C75653D646174612E616C6961735F64BF
:102A000073323433385B695D7C7C27273B7D666F8E
:102A100072286C657420693D303B693C6461746167
:102A20002E616C6961735F647331386232302E6C71
:102A3000656E6774683B692B2B297B6C657420611C
:102A40006C696173496E7075743D646F63756D6513
:102A50006E742E676574456C656D656E7442794958
:102A6000642827616C6961735F6473313862323046
:102A70005F272B28692B3129293B696628616C69FE
:102A80006173496E70757429616C696173496E7008
:102A900075742E76616C75653D646174612E616C30
:102AA0006961735F647331386232305B695D7C7C6D
:102AB00027273B7D6C6574206465627567456E6190
:102AC000626C65643D646F63756D656E742E6765D9
:102AD00074456C656D656E74427949642827646538
:102AE000627567456E61626C656427293B6966287B
:102AF0006465627567456E61626C656429646562D0
:102B00007567456E61626C65642E76616C75653DB6
:102B1000646174612E6465627567456E61626C659F
:102B2000642E746F537472696E6728293B6C6574E8
:102B30002073657269616C4E756D626572496E7065
:102B400075743D646F63756D656E742E676574454D
:102B50006C656D656E744279496428277365726986
:102B6000616C4E756D62657227293B6966287365D5
:102B70007269616C4E756D626572496E707574290B
:102B800073657269616C4E756D626572496E7075C0
:102B9000742E76616C75653D646174612E73657227
:102BA00069616C4E756D6265727C7C27273B696636
:102BB0002873657269616C4E756D626572496E70DD
:102BC0007574297B696628646174612E7365726906
:102BD000616C4C6F636B65642973657269616C4EDF
:102BE000756D626572496E7075742E636C61737376
:102BF0004C6973742E61646428276E6F2D626F7246
:102C000064657227293B656C736520736572696121
:102C10006C4E756D626572496E7075742E636C6171
:102C200073734C6973742E72656D6F766528276EA9
:102C30006F2D626F7264657227293B7D66697273BE
:102C4000745570646174653D66616C73653B7D7D30
:102C5000293B7D003B692B2B297B6C657420616CC3
:102C6000696173496E7075743D646F63756D656EEF
:102C7000742E676574456C656D656E744279496440
:102C80002827616C6961735F616F5F272B28692B4F
:102C90003129293B696628616C696173496E7075D9
:102CA0007429616C696173496E7075742E76616CFC
:102CB00075653D646174612E616C6961735F616EFD
:102CC000614F7574735B695D7C7C27273B7D006673
:102CD0006F72286C657420693D303B693C003B692C
:102CE0002B2B297B6C657420616C696173496E7054
:102CF00075743D646F63756D656E742E676574459C
:102D00006C656D656E74427949642827616C6961F0
:102D1000735F6C73735F272B28692B3129293B69FB
:102D20006628616C696173496E70757429616C699C
:102D30006173496E7075742E76616C75653D646162
:102D400074612E616C6961735F6C73735B695D7C28
:102D50007C27273B7D00666F72286C657420693D77
:102D6000303B693C003B692B2B297B6C65742061EF
:102D70006C696173496E7075743D646F63756D65E0
:102D80006E742E676574456C656D656E7442794925
:102D9000642827616C6961735F6873735F272B28F0
:102DA000692B3129293B696628616C696173496E19
:102DB00070757429616C696173496E7075742E76D3
:102DC000616C75653D646174612E616C6961735FEE
:102DD0006873735B695D7C7C27273B7D00666F723F
:102DE000286C657420693D303B693C003B692B2BA6
:102DF000297B6C657420616C696173496E707574B0
:102E00003D646F63756D656E742E676574456C65A2
:102E10006D656E74427949642827616C6961735FDE
:102E200072656C61795F272B28692B3129293B69F1
:102E30006628616C696173496E70757429616C698B
:102E40006173496E7075742E76616C75653D646151
:102E500074612E616C6961735F72656C6179735B1B
:102E6000695D7C7C27273B7D00666F72286C6574EA
:102E700020693D303B693C003B692B2B297B6C650D
:102E80007420616E614F75743D646F63756D656E1E
:102E9000742E676574456C656D656E74427949641E
:102EA0002827616E614F75745F272B28692B3129A4
:102EB000293B696628616E614F757429616E614FA7
:102EC00075742E76616C75653D646174612E616EFA
:102ED000614F7574735B695D7C7C303B6C657420FD
:102EE000616E614F7574566F6C746167653D646F98
:102EF00063756D656E742E676574456C656D656E82
:102F000074427949642827616E614F7574566F6CFD
:102F100074616765272B28692B3129293B6966284D
:102F2000616E614F7574566F6C7461676529616E6F
:102F3000614F7574566F6C746167652E7465787433
:102F4000436F6E74656E743D2728272B646174612E
:102F50002E616E614F757473566F6C746167655B3B
:102F6000695D2E746F46697865642831292B275670
:102F700029273B7D00666F72286C657420693D309F
:102F80003B693C00696628666972737455706461B8
:102F90007465297B6C6574206F6E65576972654333
:102FA00079636C653D646F63756D656E742E6765DE
:102FB00074456C656D656E744279496428276F6E3F
:102FC00065576972654379636C6527293B69662893
:102FD0006F6E65576972654379636C65296F6E65BD
:102FE000576972654379636C652E76616C75653DD2
:102FF000646174612E6F6E65576972654379636CA5
:10300000657C7C33303030303B6C657420616E61A0
:10301000496E7075744379636C653D646F63756D5B
:10302000656E742E676574456C656D656E74427966
:1030300049642827616E61496E7075744379636CC9
:103040006527293B696628616E61496E7075744316
:1030500079636C6529616E61496E7075744379633B
:103060006C652E76616C75653D646174612E616E70
:1030700061496E7075744379636C657C7C31303066
:1030800030303B6C65742070756C73654F6E3D64B9
:103090006F63756D656E742E676574456C656D65DF
:1030A0006E7442794964282770756C73654F6E277A
:1030B000293B69662870756C73654F6E2970756C55
:1030C00073654F6E2E76616C75653D646174612E1B
:1030D00070756C73654F6E2E746F537472696E6782
:1030E00028293B6C65742070756C736553656E643C
:1030F0004379636C653D646F63756D656E742E67AF
:103100006574456C656D656E7442794964282770F5
:10311000756C736553656E644379636C6527293BF1
:1031200069662870756C736553656E644379636C6A
:10313000652970756C736553656E644379636C655E
:103140002E76616C75653D646174612E70756C736B
:103150006553656E644379636C657C7C31303030D7
:10316000303B6C657420636865636B496E7465728F
:1031700076616C3D646F63756D656E742E67657402
:10318000456C656D656E744279496428276368658E
:10319000636B496E74657276616C27293B6966289A
:1031A000636865636B496E74657276616C297B63D5
:1031B0006865636B496E74657276616C2E76616CBE
:1031C00075653D646174612E636865636B496E74F7
:1031D000657276616C7C7C31303030303B696628BA
:1031E000757064617465496E74657276616C49646A
:1031F00029636C656172496E74657276616C2875BD
:103200007064617465496E74657276616C49642995
:103210003B757064617465496E74657276616C4962
:10322000643D736574496E74657276616C2875705F
:10323000646174655374617475732C646174612E78
:10324000636865636B496E74657276616C7C7C3112
:1032500030303030293B7D00666F72286C657420F9
:10326000693D303B693C646174612E64733138623E
:1032700032302E6C656E6774683B692B2B297B6C32
:10328000657420736E456C656D3D646F63756D6527
:103290006E742E676574456C656D656E7442794910
:1032A000642827647331386232305F736E272B28AD
:1032B000692B3129293B6C65742074656D70456CF0
:1032C000656D3D646F63756D656E742E67657445DD
:1032D0006C656D656E744279496428276473313872
:1032E0006232305F74656D70272B28692B31292974
:1032F0003B696628736E456C656D262674656D7036
:10330000456C656D297B736E456C656D2E746578B3
:1033100074436F6E74656E743D646174612E647382
:1033200031386232305B695D2E736E3B74656D704F
:10333000456C656D2E74657874436F6E74656E743C
:103340003D646174612E647331386232305B695D53
:103350002E74656D702B2743273B7D7D00666F7251
:10336000286C657420693D303B693C646174612E52
:103370006473323433382E6C656E6774683B692B26
:103380002B297B6C657420736E456C656D3D646F95
:1033900063756D656E742E676574456C656D656EDD
:1033A000744279496428276473323433385F736E0A
:1033B000272B28692B3129293B6C65742074656D96
:1033C00070456C656D3D646F63756D656E742E67D9
:1033D0006574456C656D656E74427949642827642F
:1033E00073323433385F74656D70272B28692B3145
:1033F00029293B6C657420766164456C656D3D647C
:103400006F63756D656E742E676574456C656D656B
:103410006E744279496428276473323433385F7696
:103420006164272B28692B3129293B6C6574207630
:1034300073656E73456C656D3D646F63756D656E28
:10344000742E676574456C656D656E744279496468
:1034500028276473323433385F7673656E73272B95
:1034600028692B3129293B696628736E456C656D87
:10347000262674656D70456C656D262676616445FB
:103480006C656D26267673656E73456C656D297B5C
:10349000736E456C656D2E74657874436F6E7465DC
:1034A0006E743D646174612E6473323433385B69C9
:1034B0005D2E736E3B74656D70456C656D2E746525
:1034C0007874436F6E74656E743D646174612E64CC
:1034D00073323433385B695D2E74656D702B27430E
:1034E000273B766164456C656D2E74657874436F17
:1034F0006E74656E743D646174612E64733234332E
:10350000385B695D2E7661642B2756273B767365A1
:103510006E73456C656D2E74657874436F6E74655B
:103520006E743D646174612E6473323433385B6948
:103530005D2E7673656E732B2756273B7D7D006667
:103540006F72286C657420693D303B693C6461741E
:10355000612E616E61496E707574732E6C656E6755
:1035600074683B692B2B297B6C65742073746174C0
:103570007573456C656D3D646F63756D656E742E16
:10358000676574456C656D656E744279496428277A
:1035900061695F737461747573272B28692B3129F6
:1035A000293B696628737461747573456C656D2970
:1035B000737461747573456C656D2E7465787443AE
:1035C0006F6E74656E743D646174612E616E6149E5
:1035D0006E707574735B695D2B272028272B6461DF
:1035E00074612E616E61496E70757473566F6C7480
:1035F0006167655B695D2E746F4669786564283123
:10360000292B275629273B7D00666F72286C65742D
:1036100020693D303B693C646174612E646967498F
:103620006E707574732E6C656E6774683B692B2BB6
:10363000297B6C657420737461747573456C656D5A
:103640003D646F63756D656E742E676574456C655A
:103650006D656E7442794964282764695F7374618B
:10366000747573272B28692B3129293B69662873C8
:103670007461747573456C656D297B6C657420731A
:103680007461747573546578743D646174612E64FB
:103690006967496E707574735B695D3B6966286420
:1036A0006174612E70756C73654F6E262628693DB6
:1036B0003D3D397C7C693D3D3D31307C7C693D3D03
:1036C0003D31312929737461747573546578742B95
:1036D0003D272028636F756E743A20272B64617430
:1036E000612E70756C7365436F756E74735B692DB5
:1036F000395D2B2729273B737461747573456C659D
:103700006D2E74657874436F6E74656E743D73745A
:1037100061747573546578743B7D7D003B692B2B18
:10372000297B6C6574206C73733D646F63756D6584
:103730006E742E676574456C656D656E744279496B
:103740006428276C7373272B28692B3129293B6C3C
:103750006574206C737350574D3D646F63756D6570
:103760006E742E676574456C656D656E744279493B
:103770006428276C737350574D272B28692B3129E8
:10378000293B6966286C73732626646174612E6C0C
:1037900073732626646174612E6C73735B695D219B
:1037A0003D3D756E646566696E65642626217065AB
:1037B0006E64696E67436F6D6D616E64735B276CD9
:1037C0007373272B28692B31295D296C73732E6342
:1037D0006865636B65643D646174612E6C73735BD3
:1037E000695D3D3D3D313B6966286C737350574DB3
:1037F0002626646174612E6C737350574D262664BF
:103800006174612E6C737350574D5B695D213D3D52
:10381000756E646566696E6564262677696E646F89
:10382000772E61637469766550574D4669656C649F
:10383000213D3D276C737350574D272B28692B3141
:1038400029296C737350574D2E76616C75653D64F4
:103850006174612E6C737350574D5B695D7C7C3075
:103860003B7D00666F72286C657420693D303B6952
:103870003C003B692B2B297B6C6574206873733D7E
:10388000646F63756D656E742E676574456C656DE8
:10389000656E74427949642827687373272B2869F9
:1038A0002B3129293B6C65742068737350574D3D4B
:1038B000646F63756D656E742E676574456C656DB8
:1038C000656E7442794964282768737350574D2791
:1038D0002B28692B3129293B6966286873732626B2
:1038E000646174612E6873732626646174612E6846
:1038F00073735B695D213D3D756E646566696E65D8
:103900006426262170656E64696E67436F6D6D6114
:103910006E64735B27687373272B28692B31295DCD
:10392000296873732E636865636B65643D646174B5
:10393000612E6873735B695D3D3D3D313B6966286F
:1039400068737350574D2626646174612E687373D3
:1039500050574D2626646174612E68737350574D1D
:103960005B695D213D3D756E646566696E656426C3
:103970002677696E646F772E616374697665505738
:103980004D4669656C64213D3D2768737350574D02
:10399000272B28692B31292968737350574D2E76B0
:1039A000616C75653D646174612E68737350574D29
:1039B0005B695D7C7C303B7D00666F72286C657452
:1039C00020693D303B693C003B692B2B297B6C65B2
:1039D000742072656C61793D646F63756D656E749A
:1039E0002E676574456C656D656E7442794964280F
:1039F0002772656C6179272B28692B3129293B694E
:103A0000662872656C61792972656C61792E6368CC
:103A100065636B65643D646174612E72656C617988
:103A2000735B695D3B7D00666F72286C657420690D
:103A30003D303B693C00666574636828272F7374CA
:103A4000617475733F74733D272B6E6577204461F5
:103A5000746528292E67657454696D652829292E97
:103A60007468656E28726573706F6E73653D3E7223
:103A70006573706F6E73652E6A736F6E2829292EB9
:103A80007468656E28646174613D3E7B0066756E86
:103A90006374696F6E2075706461746553746174CA
:103AA000757328297B006C65742066697273745580
:103AB00070646174653D747275653B6C65742061FA
:103AC000637469766550574D4669656C643D6E75E3
:103AD0006C6C3B6C65742070656E64696E67436FD7
:103AE0006D6D616E64733D7B7D3B6C65742075709C
:103AF00064617465496E74657276616C49643D6E8B
:103B0000756C6C3B003C7363726970743E003C21C1
:103B1000444F43545950452048544D4C3E3C6874E2
:103B20006D6C3E3C686561643E3C6D65746120630C
:103B30006861727365743D225554462D38223E3CAF
:103B40007469746C653E5261696C6475696E6F204E
:103B5000436F6E74726F6C3C2F7469746C653E3C7D
:103B60007374796C653E626F64797B666F6E742DD9
:103B700066616D696C793A417269616C2C73616E32
:103B8000732D73657269663B666F6E742D73697A07
:103B9000653A313470783B706F736974696F6E3A4F
:103BA00072656C61746976653B7D2E636F6E7461BE
:103BB000696E65727B77696474683A313130307050
:103BC000783B6D617267696E3A30206175746F3B46
:103BD000706F736974696F6E3A72656C617469763F
:103BE000653B7D68312C68322C68337B666F6E7460
:103BF0002D66616D696C793A417269616C2C7361F3
:103C00006E732D73657269663B7D7461626C652E9F
:103C1000696E6E65727B626F726465722D636F6C24
:103C20006C617073653A636F6C6C617073653B7740
:103C3000696474683A313030253B7D7461626C652B
:103C40002E6F757465727B626F726465723A317043
:103C50007820736F6C696420236363633B776964C6
:103C600074683A313030253B7D74647B76657274BC
:103C70006963616C2D616C69676E3A6D6964646C2F
:103C8000653B666F6E742D73697A653A313470786E
:103C90003B70616464696E673A3270783B7D696E2F
:103CA0007075742C73656C6563747B666F6E742DB0
:103CB00073697A653A313470783B70616464696E17
:103CC000673A3270783B7D2E72657365742D62752C
:103CD00074746F6E7B706F736974696F6E3A616232
:103CE000736F6C7574653B746F703A3070783B72AB
:103CF000696768743A3070783B7D2E7265736574BD
:103D00002D627574746F6E20696E7075747B70614E
:103D10006464696E673A3570783B7D74727B686560
:103D2000696768743A323670783B7D7461626C659D
:103D30002E696E6E65722074643A66697273742DB2
:103D40006368696C647B77696474683A3130307099
:103D5000783B7D7461626C652E696E6E657220744D
:103D6000643A6E74682D6368696C642832297B77C5
:103D7000696474683A383070783B7D7461626C6550
:103D80002E62617369632D696E666F2D7461626C5A
:103D9000652074643A66697273742D6368696C6433
:103DA0007B77696474683A31383070783B7D746130
:103DB000626C652E6F746865722D73657474696EBC
:103DC00067732D7461626C652074643A66697273FE
:103DD000742D6368696C647B77696474683A323007
:103DE0003070783B7D7461626C652E6F6E657769AB
:103DF00072652D7461626C652074643A66697273D1
:103E0000742D6368696C647B77696474683A3830D0
:103E100070783B7D7461626C652E6F6E6577697238
:103E2000652D7461626C652074643A6E74682D63EC
:103E300068696C642832297B77696474683A313325
:103E40003070783B7D7461626C652E6F6E6577694A
:103E500072652D7461626C652074643A6E74682DAD
:103E60006368696C642833292C7461626C652E6FF9
:103E70006E65776972652D7461626C652074643A51
:103E80006E74682D6368696C642834292C746162CF
:103E90006C652E6F6E65776972652D7461626C65F5
:103EA0002074643A6E74682D6368696C64283529DF
:103EB0007B77696474683A343070783B7D2E6E6F1E
:103EC0002D626F726465727B626F726465723A6EA6
:103ED0006F6E653B7D3C2F7374796C653E00436F5C
:103EE0006E6E656374696F6E3A20636C6F73650004
:103EF000436F6E74656E742D547970653A207465E5
:103F000078742F68746D6C3B20636861727365749C
:103F10003D5554462D3800485454502F312E3120F1
:103F2000323030204F4B002048545450003F6C6FCB
:103F3000636B3D003F6C6F636B3D00474554202F22
:103F40003F00474554202F200072657365743D3152
:103F50000020757064617465643A2000416E616C84
:103F60006F67204F757470757420002075706461E0
:103F70007465643A20004C535320002075706461CE
:103F80007465643A200048535320002075706461C2
:103F90007465643A200052656C6179200020757068
:103FA00064617465643A2000616C6961735F647375
:103FB00031386232305F00616C6961735F64733104
:103FC000386232305F0020757064617465643A2035
:103FD00000616C6961735F6473323433385F006110
:103FE0006C6961735F6473323433385F00207570BD
:103FF00064617465643A2000616C6961735F616E2D
:10400000614F75745F00616C6961735F616E614FD0
:1040100075745F0020757064617465643A20006196
:104020006C6961735F616E61496E7075745F006188
:104030006C6961735F616E61496E7075745F0020B9
:10404000757064617465643A2000616C6961735FC6
:10405000646967496E7075745F00616C6961735F54
:10406000646967496E7075745F002075706461746F
:1040700065643A2000616C6961735F6C73735F0003
:10408000616C6961735F6C73735F0020757064614C
:104090007465643A2000616C6961735F6873735F73
:1040A00000616C6961735F6873735F002075706491
:1040B000617465643A2000616C6961735F72656C5C
:1040C00061795F00616C6961735F72656C61795FD2
:1040D000006465627567456E61626C656420757029
:1040E00064617465643A20006465627567456E6159
:1040F000626C65643D006465627567456E61626C03
:1041000065643D0070756C73654F6E2075706461F9
:104110007465643A200070756C73654F6E3D007075
:10412000756C73654F6E3D00636865636B496E74B3
:10413000657276616C20757064617465643A200004
:10414000636865636B496E74657276616C3D00638C
:104150006865636B496E74657276616C3D0070755D
:104160006C736553656E644379636C652075706428
:10417000617465643A200070756C736553656E6494
:104180004379636C653D0070756C736553656E644F
:104190004379636C653D00616E61496E707574436F
:1041A00079636C6520757064617465643A200061A0
:1041B0006E61496E7075744379636C653D00616E24
:1041C00061496E7075744379636C653D006F6E650F
:1041D000576972654379636C6520757064617465B5
:1041E000643A20006F6E65576972654379636C6548
:1041F0003D006F6E65576972654379636C653D007C
:104200004465736372697074696F6E207570646160
:104210007465643A20006465736372697074696FD1
:104220006E3D006465736372697074696F6E3D0002
:1042300053657269616C206E756D62657220757070
:1042400064617465643A200073657269616C4E75CF
:104250006D6265723D0073657269616C4E756D6269
:1042600065723D004F4B00436F6E6E656374696FFE
:104270006E3A20636C6F736500436F6E74656E7485
:104280002D547970653A20746578742F706C61696B
:104290006E00485454502F312E3120323030204F90
:1042A0004B003C2F626F64793E3C2F68746D6C3E0E
:1042B000003C2F6469763E000A202020203C6833B1
:1042C0003E4164646974696F6E616C204E6F746501
:1042D000733C2F68333E0A202020203C7072653EDC
:1042E0000A436F6D62696E6174696F6E206F66203C
:1042F00031776972652073656E736F7273206D75A7
:10430000737420626520757020746F203130706383
:1043100073206D6178696D756D2028445331384282
:104320003230206F7220445332343338290A5573A7
:10433000696E6720525334383520746865205544BF
:10434000502073796E746178206D75737420686184
:104350007665205C6E2073796D626F6C20617420CD
:1043600074686520656E64206F66207468652063DC
:104370006F6D6D616E64206C696E650A202020206F
:104380003C2F7072653E0A202020203C703E3C612C
:1043900020687265663D272F273E4261636B20745B
:1043A0006F20436F6E74726F6C2050616E656C3C51
:1043B0002F613E3C2F703E0A3C2F626F64793E0AAB
:1043C0003C2F68746D6C3E0A000A202020204D4F5F
:1043D00044425553205265676973746572204D617C
:1043E000700A7265676973746572206E756D6265B7
:1043F000722020202020202020202020206465738F
:104400006372697074696F6E0A302020202020204A
:10441000202020202020202020202020202020209C
:104420002020202072656C6179206F75747075741E
:104430007320312D380A31202020202020202020F8
:10444000202020202020202020202020202020206C
:104450002072656C6179206F757470757473203982
:104460002D31320A32202020202020202020202020
:1044700020202020202020202020202020202064F8
:1044800069676974616C206F757470757473204806
:10449000535320312D342C204C535320312D340ACA
:1044A00033202020202020202020202020202020F9
:1044B000202020202020202020202048535320503E
:1044C000574D2076616C756520312028302D3235AE
:1044D00035290A34202020202020202020202020C0
:1044E0002020202020202020202020202020485371
:1044F000532050574D2076616C756520322028304E
:104500002D323535290A352020202020202020205A
:10451000202020202020202020202020202020209B
:10452000204853532050574D2076616C75652033D9
:104530002028302D323535290A3620202020202011
:10454000202020202020202020202020202020206B
:10455000202020204853532050574D2076616C7501
:104560006520342028302D323535290A3720202087
:10457000202020202020202020202020202020203B
:10458000202020202020204C53532050574D2076AF
:10459000616C756520312028302D323535290A3877
:1045A000202020202020202020202020202020200B
:1045B000202020202020202020204C535320505702
:1045C0004D2076616C756520322028302D323535CE
:1045D000290A3920202020202020202020202020CF
:1045E000202020202020202020202020204C535339
:1045F0002050574D2076616C756520332028302D72
:10460000323535290A31302020202020202020205A
:10461000202020202020202020202020202020209A
:104620004C53532050574D2076616C7565203420D3
:1046300028302D323535290A313120202020202004
:10464000202020202020202020202020202020206A
:10465000202020616E616C6F67206F7574707574B7
:1046600020310A313220202020202020202020202C
:104670002020202020202020202020202020616EAB
:10468000616C6F67206F757470757420320A3133F6
:10469000202020202020202020202020202020201A
:1046A0002020202020202020206469676974616C0C
:1046B00020696E7075747320312D380A31342020D2
:1046C00020202020202020202020202020202020EA
:1046D000202020202020206469676974616C206993
:1046E0006E7075747320392D31360A3135202020D3
:1046F00020202020202020202020202020202020BA
:104700002020202020206469676974616C20696E14
:10471000707574732031372D32340A3136202020E1
:104720002020202020202020202020202020202089
:10473000202020202020616E616C6F6720696E70E0
:10474000757420312020202020202020202020309F
:104750002D313032330A31372020202020202020F4
:104760002020202020202020202020202020202049
:1047700020616E616C6F6720696E707574203220E5
:1047800020202020202020202020302D31303233C6
:104790000A31382020202020202020202020202006
:1047A00020202020202020202020202073657276C9
:1047B000696365202D2072657365742028626974B1
:1047C0002030290A313920202020202020202020BC
:1047D00020202020202020202020202020202031C8
:1047E0007374204453323433382054656D7020285C
:1047F00076616C7565206D756C7469706C69656443
:1048000020627920313030290A32302020202020C7
:104810002020202020202020202020202020202098
:1048200020202020317374204453323433382056F2
:104830006164202876616C7565206D756C74697093
:104840006C69656420627920313030290A32312068
:104850002020202020202020202020202020202058
:104860002020202020202020317374204453323413
:104870003338205673656E73202876616C75652019
:104880006D756C7469706C69656420627920313073
:1048900030290A2D20202020202020202020202008
:1048A000202020202020202020202020200A3436F4
:1048B00020202020202020202020202020202020F8
:1048C0002020202020202020204453323433382040
:1048D00076616C7565732028757020746F20313097
:1048E0002073656E736F7273290A34372D35372044
:1048F00020202020202020202020202020202020B8
:104900002020202020445331384232302054656D1D
:1049100070657261747572652028757020746F20DF
:1049200031302073656E736F727329202876616C45
:104930007565206D756C7469706C69656420627949
:1049400020313030290A000A202020203C68333EE4
:104950004D4F4442555320436F6D6D616E64733CFF
:104960002F68333E0A202020203C7072653E0A4D9D
:104970004F444255532054435020636F6D6D616E18
:1049800064733A20464331202D20464331360A4D88
:104990004F444255532052545520636F6D6D616EE4
:1049A00064733A204643332C204643362C2046433A
:1049B00031360A202020203C2F7072653E0A000A02
:1049C000636F6D6D616E64733A0A202072656C616D
:1049D00079206F6E20636F6D6D616E643A202020C8
:1049E0002020202020202020202020207261696C9F
:1049F0003120726F3132206F6E0A202072656C6137
:104A000079206F666620636F6D6D616E643A202059
:104A10002020202020202020202020207261696C6E
:104A20003120726F35206F66660A202068696768DA
:104A3000207369646520737769746368206F6E20E2
:104A4000636F6D6D616E643A202020207261696C25
:104A50003120686F32206F6E0A20206869676820F5
:104A60007369646520737769746368206F66662074
:104A7000636F6D6D616E643A2020207261696C31E4
:104A800020686F34206F66660A2020686967682096
:104A900073696465207377697463682050574D208B
:104AA000636F6D6D616E643A2020207261696C31B4
:104AB00020686F315F70776D203138300A20206CAC
:104AC0006F77207369646520737769746368206FFA
:104AD0006E20636F6D6D616E643A2020202020721D
:104AE00061696C31206C6F31206F6E0A20206C6F11
:104AF00077207369646520737769746368206F66D3
:104B00006620636F6D6D616E643A202020207261B3
:104B1000696C31206C6F32206F66660A20206C6FE2
:104B200077207369646520737769746368205057D0
:104B30004D20636F6D6D616E643A2020202072619C
:104B4000696C31206C6F315F70776D203138300ABD
:104B50002020616E616C6F67206F757470757420B2
:104B6000636F6D6D616E643A20202020202020202C
:104B700020207261696C3120616F31203138300A38
:104B80002020726573657420636F6D6D616E643A89
:104B90002020202020202020202020202020202015
:104BA00020207261696C31207273740A64656661D9
:104BB000756C74207363616E206379636C65733AFE
:104BC0000A20203177697265206379636C653A2029
:104BD00020202020202020202020202020202020D5
:104BE0002020203330303030206D730A2020616E59
:104BF000616C6F6720696E707574206379636C6592
:104C00003A20202020202020202020202020313069
:104C1000303030206D730A000A202020203C683399
:104C20003E5544502053796E7461783C2F68333E72
:104C30000A202020203C7072653E0A7369676E610D
:104C40006C733A0A20204453313842323020317795
:104C50006972652073656E736F72207061636B6536
:104C6000743A202020207261696C31203177203223
:104C70003836346663333030383038322032352EAF
:104C800034340A2020445332343338203177697267
:104C9000652073656E736F72207061636B65743A23
:104CA00020202020207261696C312031772032363B
:104CB00031326333313032303034662032352E3485
:104CC0003420312E323320302E31320A20206469D4
:104CD000676974616C20696E707574207374617497
:104CE000653A2020202020202020202020207261D2
:104CF000696C312064693120310A2020616E616C59
:104D00006F6720696E7075742073746174653A20E2
:104D10002020202020202020202020207261696C6B
:104D2000312061693120313032300A000A3C21449F
:104D30004F43545950452048544D4C3E0A3C6874EA
:104D40006D6C3E0A3C686561643E0A202020203C70
:104D50007469746C653E5261696C6475696E6F202C
:104D6000446F63756D656E746174696F6E3C2F740A
:104D700069746C653E0A202020203C7374796C6550
:104D80003E0A2020202020202020626F6479207B92
:104D900020666F6E742D66616D696C793A20417280
:104DA00069616C2C2073616E732D73657269663B4B
:104DB00020666F6E742D73697A653A20313470788D
:104DC0003B206D617267696E3A20323070783B200B
:104DD0007D0A20202020202020202E636F6E746109
:104DE000696E6572207B2077696474683A2031317E
:104DF000303070783B206D617267696E3A203020E8
:104E00006175746F3B20706F736974696F6E3A20BF
:104E100072656C61746976653B207D0A20202020D4
:104E20002020202068322C206833207B20666F6E83
:104E3000742D66616D696C793A20417269616C2CE0
:104E40002073616E732D73657269663B207D0A2045
:104E500020202020202020707265207B206261634A
:104E60006B67726F756E643A2023663466346634FD
:104E70003B2070616464696E673A20313070783B22
:104E800020626F726465723A2031707820736F6CA3
:104E9000696420236363633B2077686974652D73BD
:104EA000706163653A207072652D777261703B2086
:104EB0007D0A202020202020202061207B20636F7D
:104EC0006C6F723A20233030363663633B20746552
:104ED00078742D6465636F726174696F6E3A206EC9
:104EE0006F6E653B207D0A2020202020202020613D
:104EF0003A686F766572207B20746578742D6465DE
:104F0000636F726174696F6E3A20756E6465726C5E
:104F1000696E653B207D0A202020203C2F73747928
:104F20006C653E0A3C2F686561643E0A3C626F64B2
:104F3000793E0A202020203C64697620636C6173EE
:104F4000733D27636F6E7461696E6572273E0A2038
:104F50002020203C68323E5261696C6475696E6F36
:104F6000204669726D7761726520446F63756D6567
:104F70006E746174696F6E3C2F68323E0A20202087
:104F8000203C703E3C6120687265663D272F273EBD
:104F90004261636B20746F20436F6E74726F6C207C
:104FA00050616E656C3C2F613E3C2F703E0A0043A1
:104FB0006F6E6E656374696F6E3A20636C6F7365B4
:104FC00000436F6E74656E742D547970653A207469
:104FD0006578742F68746D6C00485454502F312ECE
:104FE0003120323030204F4B003C2F626F64793ECD
:104FF0003C2F68746D6C3E003C7363726970743E44
:1050000073657454696D656F75742866756E637425
:10501000696F6E28297B77696E646F772E6C6F637A
:105020006174696F6E2E687265663D272F273B7D20
:105030002C2035303030293B3C2F736372697074FB
:105040003E003C68333E5265626F6F74696E672E36
:105050002E2E3C2F68333E003C68746D6C3E3C62E3
:105060006F64793E003C21444F43545950452048D9
:10507000544D4C3E00436F6E6E656374696F6E3ABB
:1050800020636C6F736500436F6E74656E742D548E
:105090007970653A20746578742F68746D6C004877
:1050A0005454502F312E3120323030204F4B007D60
:1050B000005D005D002C002200220022616C69610D
:1050C000735F64733138623230223A5B005D2C00CA
:1050D0005D2C002C002200220022616C6961735F4C
:1050E000647332343338223A5B005D2C002C00228A
:1050F00000220022616C6961735F616E614F75749B
:1051000073223A5B005D2C002C00220022002261F9
:105110006C6961735F616E61496E70757473223A78
:105120005B005D2C002C002200220022616C696172
:10513000735F646967496E70757473223A5B005DD2
:105140002C002C002200220022616C6961735F6CCC
:105150007373223A5B005D2C002C00220022002297
:10516000616C6961735F687373223A5B005D2C0048
:105170002C002200220022616C6961735F72656CF1
:10518000617973223A5B005D2C002C0022616E6114
:105190004F757473566F6C74616765223A5B005D7E
:1051A0002C002C0022616E61496E70757473566F0D
:1051B0006C74616765223A5B00222C00226465737F
:1051C0006372697074696F6E223A22002C00227338
:1051D000657269616C4C6F636B6564223A00222CC6
:1051E000002273657269616C4E756D626572223A58
:1051F00022002C00226465627567456E61626C65F1
:1052000064223A002C0022636865636B496E746502
:105210007276616C223A002C002270756C736553B3
:10522000656E644379636C65223A002C00227075C8
:105230006C73654F6E223A002C0022616E61496EDC
:105240007075744379636C65223A002C00226F6E8E
:1052500065576972654379636C65223A005D2C007D
:105260002C002C002270756C7365436F756E74731F
:10527000223A5B005D2C005D2C002C007D00222C6E
:105280002274656D70223A007B22736E223A2200EE
:105290002264733138623230223A5B005D2C005D4B
:1052A0002C002C007D002C227673656E73223A0050
:1052B0002C22766164223A00222C2274656D7022C1
:1052C0003A007B22736E223A220022647332343316
:1052D00038223A5B005D2C002C0022616E61496E21
:1052E00070757473223A5B005D2C002C0022646997
:1052F00067496E70757473223A5B005D2C002C0058
:1053000022616E614F757473223A5B005D2C002C34
:1053100000226C737350574D223A5B005D2C002CB9
:10532000002268737350574D223A5B005D2C002CAD
:1053300000226C7373223A5B005D2C002C00226803
:105340007373223A5B005D2C002C002272656C6145
:105350007973223A5B007B00485454502F312E3130
:1053600020323030204F4B0A436F6E74656E742DBF
:10537000547970653A206170706C69636174696F0B
:105380006E2F6A736F6E0A436F6E6E656374696F1A
:105390006E3A20636C6F73650A00454550524F4D5D
:1053A00020696E697469616C697A656420776974D3
:1053B000682064656661756C742076616C756573D0
:1053C000005761726E696E673A204C535320342047
:1053D0002870696E2031382920646F6573206E6FE4
:1053E0007420737570706F72742050574D2C206943
:1053F000676E6F72696E672076616C756520004517
:10540000746865726E657420636F6E6E656374692F
:105410006F6E206661696C65642C207265736574BB
:1054200074696E672E0045746865726E65742063DA
:105430006F6E6E656374696F6E206C6F73742C2071
:10544000726573657474696E672E00207365743AB3
:105450002000414F20002073657420746F20004CA1
:1054600053532050574D2000204F4646004C535375
:105470002000204F4E004C535320002073657420B1
:10548000746F20004853532050574D2000204F4642
:1054900046004853532000204F4E004853532000ED
:1054A000204F46460052656C61792000204F4E0027
:1054B00052656C61792000444843502072656E65E6
:1054C00077206661696C00444843502072656269C8
:1054D0006E64206F6B004448435020726562696EB1
:1054E00064206661696C00444843502072656E65B3
:1054F00077206F6B0000002100240027002A002D78
:10550000003000330001010000040107010A01001E
:10551000000A0B02090C0D0E08070304010000002D
:10552000000000000000000000000000000000007B
:105530000000000000000000000000121110000038
:10554000000000000000000000000000000000005B
:105550000000000000005EBCE2613FDD83C29C7E73
:1055600020A3FD1F419DC3217FFCA2401E5F01E3DC
:10557000BD3E6082DC237D9FC1421CFEA0E1BF5D79
:105580000380DE3C62BEE0025CDF81633D7C22C0C2
:105590009E1D43A1FF4618FAA427799BC584DA38DB
:1055A00066E5BB5907DB856739BAE406581947A594
:1055B000FB7826C49A653BD987045AB8E6A7F91B3D
:1055C00045C6987A24F8A6441A99C7257B3A64867A
:1055D000D85B05E7B98CD2306EEDB3510F4E10F2A7
:1055E000AC2F7193CD114FADF3702ECC92D38D6F44
:1055F00031B2EC0E50AFF1134DCE90722C6D33D111
:105600008F0C52B0EE326C8ED0530DEFB1F0AE4C29
:105610001291CF2D73CA947628ABF517490856B46A
:10562000EA6937D58B5709EBB536688AD495CB290B
:1056300077F4AA4816E9B7550B88D6346A2B7597C4
:10564000C94A14F6A8742AC896154BA9F7B6E80AF1
:1056500054D7896B3500002200250028002B002E2E
:10566000003100340002010000050108010B0100B7
:105670000020002300260029002C002F003200000B
:1056800001000003010601090105050505070508DC
:10569000080808020202020A0A08080404040401B5
:1056A00001010101010101030303030303030304D7
:1056B0000707070C0C0C0C0C0C0C0C020202020667
:1056C000060606060606060B0B0B0B0B0B0B0B0157
:1056D0000210202008081020401020408002010203
:1056E00001080402010102040810204080804020CB
:1056F0001008040201800402018040201008040206
:105700000108040201010204081020408001020483
:10571000081020408000F27F3D9211241FBECFEF81
:10572000D1E2DEBFCDBF00E00CBF15E0A0E0B2E0EB
:10573000E4E8FAE301E00BBF02C007900D92A43B3E
:10574000B107D9F72CE1A4EBB5E001C01D92A3325B
:10575000B207E1F71BE2CCE8DBE200E006C02197EC
:105760000109802FFE010E94A59ACB38D10780E065
:105770000807A9F70E94D7820C94309D0C94000072
:10578000CF92DF92EF92FF92CF93DF93EC016A0109
:105790007B01E889F98982E08083C11481EED80613
:1057A000E104F104A1F060E079E08DE390E0A7016D
:1057B00096010E942A9921503109410951095695B3
:1057C000479537952795211580E1380798F0E889A6
:1057D000F989108260E874E88EE190E0A7019601F3
:1057E0000E942A992150310941095109569547953E
:1057F00037952795EC85FD853083EE85FF852083E1
:10580000188EEC89FD8986E08083EA89FB89808196
:1058100080618083EA89FB89808188608083EA894E
:10582000FB89808180688083EA89FB8980818F7D04
:105830008083DF91CF91FF90EF90DF90CF9008951C
:1058400020910015222361F02FB7F89430910015B4
:10585000313049F43DB33093FF143DB33DBB2FBF0E
:105860008CBD9DBD08952093FF14FACF20E3FC0169
:1058700020833296862F82958F706F706A3030F455
:10588000605D6293682F8111F5CF0895695CF9CF4F
:10589000CF93DF93D62F9C0164E0369527956A95C8
:1058A000E1F7C1E021384CE034070CF4C0E02138C6
:1058B0004CE03407F8F4F901EE0FFF1FE055F94E04
:1058C000A081B18154E0220F331F5A95E1F7821B6A
:1058D000930B41E050E060E070E004C0440F551FBE
:1058E000661F771F8A95D2F7DD2341F04A2B5B2B89
:1058F000518340838C2FDF91CF910895409550952F
:105900004A235B23F5CFFC01818D928D0895089584
:105910008150823108F05AC0E82FF0E08827EC5619
:10592000F34D8F4F0C94A59AB42CB82CA62CAC2C0C
:10593000B02CE62CBB2CC12CC52CCB2CCF2CD32CC3
:10594000D92CDD2CE62CE12CE72CEB2C809180006F
:105950008F77809380000895809180008F7DF9CFAC
:1059600080918000877FF5CF84B58F7784BD0895BF
:1059700084B58F7DFBCF8091B0008F778093B0008E
:1059800008958091B0008F7DF9CF809190008F773E
:10599000809390000895809190008F7DF9CF809141
:1059A0009000877FF5CF8091A0008F778093A00033
:1059B00008958091A0008F7DF9CF8091A000877F0E
:1059C000F5CF809120018F778093200108958091F9
:1059D00020018F7DF9CF80912001877FF5CFCF9374
:1059E000DF93282F30E0F901E15FFA4A8491F90151
:1059F000E153F94AD491F901E757F94AC491CC230C
:105A0000A1F081110E94882CEC2FF0E0EE0FFF1F17
:105A1000E159F94AA591B491EC91ED2381E090E030
:105A200009F480E0DF91CF91089580E090E0FACF13
:105A30001F93CF93DF93282F30E0F901E15FFA4AFB
:105A40008491F901E153F94AD491F901E757F94AF0
:105A5000C491CC23A9F0162F81110E94882CEC2F21
:105A6000F0E0EE0FFF1FEB5AF94AA591B4918FB702
:105A7000F894EC91111108C0D095DE23DC938FBF10
:105A8000DF91CF911F910895DE2BF8CFCF93DF9355
:105A900090E0FC01E153F94A24918757994AFC01AF
:105AA00084918823D1F090E0880F991FFC01EB507E
:105AB000FB4AA591B491FC01EB5AF94AC591D491E6
:105AC00061110EC09FB7F8948C91E22FE0958E2360
:105AD0008C932881E223E8839FBFDF91CF910895C3
