:100000000C943A240C94506C0C94256C0C94FA6B60
:100010000C94CF6B0C94A46B0C94796B0C944E6B7A
:100020000C94236B0C946B240C946B240C946B2415
:100030000C946B240C946B240C946B240C946B2404
:100040000C946B240C946B240C946B240C946B24F4
:100050000C946B240C946B240C946B240C94D96A30
:100060000C946B240C94056D0C94DB6C0C946B2439
:100070000C946B240C946B240C946B240C946B24C4
:100080000C946B240C946B240C946B240C946B24B4
:100090000C946B240C946B240C946B240C946B24A4
:1000A0000C946B240C946B240C946B240C946B2494
:1000B0000C946B240C946B240C946B240C946B2484
:1000C0000C946B240C946B240C946B240C946B2474
:1000D0000C946B240C946B240C94A56C0C947B6C8A
:1000E0000C946B240C94912F0C948E250C949B2FC4
:1000F0000C9494250C948F260C945D250C94B935A2
:100100000C94AD3F0C945B280C94DC850C945E271A
:100110000C94A82F0C9412380C9461250C94E226B0
:100120000C94AB260C944D370C9464380C946426D4
:100130000C94A02F0C94A3390C94E12D0C94B12FA6
:100140000C94C32D0C945F3C0C940D310C94302F07
:100150000C94AD2F0C94CE260C9487260C94652518
:100160000C9468250C94D76D0C947C250C94FF336B
:100170000C94E2380C9431290C9473260C940E28BC
:100180000C9497260C9410360C9452290C945F27EB
:100190000C947D260C9447290C9466390C943038C5
:1001A0000C9493250C949B270C9486250C9459252C
:1001B0000C9453250C94D8260C94CD2D0C949D2F83
:1001C0000C94DD310C94AA270C94B92D0C94EA36CA
:1001D0000C94BE270C946E270C94A92F0C94143405
:1001E0000C9480250C948D2F0C946E250C94463124
:1001F0000C949F300C9433370C94AF2D0C94EB304F
:100200000C94E5440C941B290C9434250C94EE3288
:100210000C94B5260C94A1260C94C82F0C947F3412
:100220000C9478250C94F6260C949A340C948A2518
:100230000C94C4260C94D72D0C94BF300C940F3919
:100240000C94D23C0C9472250C94C12F0C94CE319A
:100250000C94EC260C9409370C94CC270C9498251C
:100260000C9469260C9430250C945C2600407A107E
:10027000F35A00A0724E18090010A5D4E80000E857
:100280007648170000E40B54020000CA9A3B0000B5
:1002900000E1F505000080969800000040420F0044
:1002A0000000A08601000000102700000000E80305
:1002B000000000006400000000000A0000000000D0
:1002C0000100000000002C76D888DC674F0823DF8F
:1002D000C1DFAE59E1B1B796E5E3E453C63AE65162
:1002E000997696E8E6C28426EB898C9B62ED407C89
:1002F0006FFCEFBC9C9F40F2BAA56FA5F490055A25
:100300002AF75C936B6CF9676DC11BFCE0E40D4749
:10031000FEF520E6B500D0ED902E0300943577056C
:100320000080841E080000204E0A000000C80C3324
:100330003333330F986E12831141EF8D2114893BB3
:10034000E65516CFFEE6DB18D1844B381BF77C1D33
:10035000901DA4BBE424203284725E228100C9F186
:1003600024ECA1E53D27343034204E6F7420466FD5
:10037000756E6400436F6E6E656374696F6E3A20CC
:10038000636C6F736500436F6E74656E742D547982
:1003900070653A20746578742F706C61696E0048DE
:1003A0005454502F312E3120343034204E6F74206D
:1003B000466F756E64003C2F74626F64793E3C2F0B
:1003C0007461626C653E3C2F74643E3C2F74723ED7
:1003D0003C2F7461626C653E3C2F6469763E3C2F15
:1003E0006469763E3C2F626F64793E3C2F68746D81
:1003F0006C3E003C2F74643E3C2F74723E00222CF5
:10040000656E636F6465555249436F6D706F6E65BD
:100410006E7428746869732E76616C756529292756
:100420003E0027206F6E6368616E67653D277365C8
:100430006E64436F6D6D616E642822616C696173D7
:100440005F6473313862323000272076616C7565E5
:100450003D270027206E616D653D27616C696173E2
:100460005F6473313862323000273E3C2F74643E43
:100470003C74643E3C696E70757420747970653D9F
:100480002774657874272069643D27616C696173FE
:100490005F647331386232305F003C2F74643E3CDD
:1004A00074642069643D27647331386232305F744C
:1004B000656D7000273E003C2F74643E3C746420E0
:1004C00069643D27647331386232305F736E003C7B
:1004D00074723E3C74643E445331384232302D00D5
:1004E0003C2F74626F64793E3C2F7461626C653E90
:1004F0003C2F74643E3C74642077696474683D27C3
:10050000353025273E3C68333E312D5769726520D2
:1005100053656E736F727320445331384232303CEE
:100520002F68333E3C7461626C6520636C61737349
:100530003D276F6E65776972652D7461626C652702
:100540002069643D27647331386232305461626CD3
:1005500065273E3C74626F64793E003C2F74643EB4
:100560003C2F74723E00222C656E636F6465555299
:1005700049436F6D706F6E656E7428746869732E71
:1005800076616C75652929273E0027206F6E6368A8
:10059000616E67653D2773656E64436F6D6D616E57
:1005A000642822616C6961735F647332343338008C
:1005B000272076616C75653D270027206E616D658B
:1005C0003D27616C6961735F64733234333800278F
:1005D0003E3C2F74643E3C74643E3C696E7075749E
:1005E00020747970653D2774657874272069643DAF
:1005F00027616C6961735F6473323433385F00273D
:100600003E3C2F74643E3C74642069643D276473EF
:10061000323433385F7673656E7300273E3C2F7437
:10062000643E3C74642069643D276473323433381B
:100630005F766164003C2F74643E3C74642069649E
:100640003D276473323433385F74656D7000273E24
:10065000003C2F74643E3C74642069643D276473DD
:10066000323433385F736E003C74723E3C74643EC7
:100670004453323433382D003C64697620737479E6
:100680006C653D27626F726465723A3170782073D1
:100690006F6C696420236363633B6D617267696E8D
:1006A0002D626F74746F6D3A313070783B273E3C29
:1006B0007461626C6520636C6173733D276F757440
:1006C0006572273E3C74723E3C74642077696474A2
:1006D000683D27353025273E3C68333E312D57692C
:1006E00072652053656E736F7273204453323433D6
:1006F000383C2F68333E3C7461626C6520636C61EA
:1007000073733D276F6E65776972652D7461626CD6
:1007100065272069643D276473323433385461623D
:100720006C65273E3C74626F64793E003C2F7461B7
:10073000626C653E3C2F74643E3C2F74723E3C2FCD
:100740007461626C653E3C2F6469763E003C2F7498
:10075000643E3C2F74723E00222C656E636F6465AC
:10076000555249436F6D706F6E656E742874686979
:10077000732E76616C75652929273E0027206F6EE0
:100780006368616E67653D2773656E64436F6D6D69
:10079000616E642822616C6961735F616E614F757F
:1007A000747300272076616C75653D270027206EE5
:1007B000616D653D27616C6961735F616E614F7545
:1007C00074730056293C2F74643E3C74643E3C694B
:1007D0006E70757420747970653D27746578742720
:1007E0002069643D27616C6961735F616E614F755B
:1007F000747300273E28003C2F74643E3C746420D0
:1008000069643D27616E614F7574566F6C746167E2
:100810006500222C746869732E76616C75652927D2
:100820003E0027206F6E6368616E67653D277365C4
:100830006E64436F6D6D616E642822616E614F75E9
:10084000740027206D696E3D273027206D61783D4B
:1008500027323535272076616C75653D27002720C6
:100860006E616D653D27616E614F7574003C2F743C
:10087000643E3C74643E3C696E707574207479709B
:10088000653D276E756D626572272069643D27613D
:100890006E614F7574003C74723E3C74643E414F0F
:1008A00020003C2F74626F64793E3C2F7461626C4F
:1008B000653E3C2F74643E3C7464207769647468C0
:1008C0003D27353025273E3C68333E416E616C6FD5
:1008D00067204F7574707574732028302D3235354C
:1008E000203D20302D313056293C2F68333E3C745A
:1008F00061626C6520636C6173733D27696E6E6520
:1009000072273E003C2F74643E3C2F74723E0022DE
:100910002C656E636F6465555249436F6D706F6EE1
:10092000656E7428746869732E76616C7565292903
:10093000273E0027206F6E6368616E67653D2773F1
:10094000656E64436F6D6D616E642822616C6961D0
:10095000735F616E61496E707574730027207661F4
:100960006C75653D270027206E616D653D27616CC4
:100970006961735F616E61496E70757473003C2FBD
:1009800074643E3C74643E3C696E70757420747986
:1009900070653D2774657874272069643D27616C14
:1009A0006961735F616E61496E7075747300273E93
:1009B000003C2F74643E3C74642069643D27616987
:1009C0005F737461747573003C74723E3C74643E72
:1009D000414920003C646976207374796C653D2739
:1009E000626F726465723A31707820736F6C6964FB
:1009F00020236363633B6D617267696E2D626F7460
:100A0000746F6D3A313070783B273E3C7461626C94
:100A10006520636C6173733D276F75746572273E43
:100A20003C74723E3C74642077696474683D273579
:100A30003025273E3C68333E416E616C6F6720492C
:100A40006E707574732028302D31303234203D2083
:100A5000302D313056293C2F68333E3C7461626C36
:100A60006520636C6173733D27696E6E6572272024
:100A700069643D27616E61496E707574735461627B
:100A80006C65273E3C74626F64793E003C2F746253
:100A90006F64793E3C2F7461626C653E3C2F7464D8
:100AA0003E3C2F74723E3C2F7461626C653E3C2F5D
:100AB0006469763E003C2F74643E3C2F74723E00A5
:100AC000222C656E636F6465555249436F6D706F7C
:100AD0006E656E7428746869732E76616C7565290D
:100AE00029273E0027206F6E6368616E67653D278A
:100AF00073656E64436F6D6D616E642822616C690D
:100B000061735F646967496E70757473002720763E
:100B1000616C75653D270027206E616D653D27611D
:100B20006C6961735F646967496E70757473003CCA
:100B30002F74643E3C74643E3C696E70757420741E
:100B40007970653D2774657874272069643D276155
:100B50006C6961735F646967496E707574730027AF
:100B60003E003C2F74643E3C74642069643D2764FD
:100B7000695F737461747573003C74723E3C746495
:100B80003E444920003C2F74626F64793E3C2F74D0
:100B900061626C653E3C2F74643E3C7464207769EE
:100BA0006474683D27353025273E3C683320636CEC
:100BB0006173733D276469672D696E707574732D59
:100BC0007469746C65273E4469676974616C204977
:100BD0006E707574732031332D32343C2F68333E80
:100BE0003C7461626C6520636C6173733D27696E50
:100BF0006E6572272069643D27646967496E707568
:100C000074735461626C6532273E3C74626F647920
:100C10003E003C2F74643E3C2F74723E00222C65D3
:100C20006E636F6465555249436F6D706F6E656E8C
:100C30007428746869732E76616C75652929273E5E
:100C40000027206F6E6368616E67653D2773656E70
:100C500064436F6D6D616E642822616C6961735FBE
:100C6000646967496E7075747300272076616C75CE
:100C7000653D270027206E616D653D27616C6961C8
:100C8000735F646967496E70757473003C2F746498
:100C90003E3C74643E3C696E707574207479706576
:100CA0003D2774657874272069643D27616C69610C
:100CB000735F646967496E7075747300273E003C0A
:100CC0002F74643E3C74642069643D2764695F73DB
:100CD0007461747573003C74723E3C74643E4449A4
:100CE00020003C646976207374796C653D27626FDF
:100CF000726465723A31707820736F6C6964202376
:100D00006363633B6D617267696E2D626F74746FAC
:100D10006D3A313070783B273E3C7461626C6520DF
:100D2000636C6173733D276F75746572273E3C7405
:100D3000723E3C74642077696474683D27353025C1
:100D4000273E3C683320636C6173733D2764696799
:100D50002D696E707574732D7469746C65273E44CB
:100D600069676974616C20496E7075747320312DE8
:100D700031323C2F68333E3C7461626C6520636C99
:100D80006173733D27696E6E6572272069643D2724
:100D9000646967496E707574735461626C6531275C
:100DA0003E3C74626F64793E003C2F7461626C65F6
:100DB0003E3C2F74643E3C2F74723E3C2F74616243
:100DC0006C653E3C2F74643E3C2F74723E3C2F7425
:100DD00061626C653E3C2F6469763E003C2F746412
:100DE0003E3C2F74723E00222C656E636F64655525
:100DF0005249436F6D706F6E656E742874686973C5
:100E00002E76616C75652929273E0027206F6E6359
:100E100068616E67653D2773656E64436F6D6D61D4
:100E20006E642822616C6961735F6C7373002720A4
:100E300076616C75653D270027206E616D653D27E5
:100E4000616C6961735F6C7373003C2F74643E3C2A
:100E500074643E3C696E70757420747970653D27CA
:100E600074657874272069643D27616C6961735FDC
:100E70006C7373002D00222C746869732E76616C7C
:100E8000756529273E0027206F6E6368616E676570
:100E90003D2773656E64436F6D6D616E6428226CCF
:100EA00073730027206D696E3D273027206D6178B0
:100EB0003D27323535272076616C75653D27002743
:100EC000206E616D653D276C737350574D003C6912
:100ED0006E70757420747970653D276E756D6265EE
:100EE00072272069643D276C737350574D003E3C58
:100EF0002F74643E3C74643E0020636865636B65D8
:100F00006400222C746869732E636865636B656482
:100F10003F313A3029270027206F6E6368616E6782
:100F2000653D2773656E64436F6D6D616E64282245
:100F30006C73730027206E616D653D276C737300C1
:100F40003C2F74643E3C74643E3C696E7075742042
:100F5000747970653D27636865636B626F782720DD
:100F600069643D276C7373003C74723E3C74643E4C
:100F70004C535320003C2F7461626C653E3C2F74CF
:100F8000643E3C2F74723E3C74723E3C74643E3C42
:100F900068333E4C6F772D536964652053776974CD
:100FA00063686573205374617475732028302D3223
:100FB0003535203D20302D562B293C2F68333E3CC3
:100FC0007461626C6520636C6173733D27696E6E3A
:100FD0006572273E003C2F74643E3C2F74723E00C5
:100FE000222C656E636F6465555249436F6D706F57
:100FF0006E656E7428746869732E76616C756529E8
:1010000029273E0027206F6E6368616E67653D2764
:1010100073656E64436F6D6D616E642822616C69E7
:1010200061735F68737300272076616C75653D2777
:101030000027206E616D653D27616C6961735F6893
:101040007373003C2F74643E3C74643E3C696E7064
:10105000757420747970653D2774657874272069EC
:10106000643D27616C6961735F68737300222C743F
:101070006869732E76616C756529273E0027206F9D
:101080006E6368616E67653D2773656E64436F6D5F
:101090006D616E6428226873730027206D696E3D50
:1010A000273027206D61783D27323535272076613E
:1010B0006C75653D270027206E616D653D2768735F
:1010C0007350574D003E3C2F74643E3C74643E3C6C
:1010D000696E70757420747970653D276E756D62E8
:1010E0006572272069643D2768737350574D00204F
:1010F000636865636B656400222C746869732E6392
:101100006865636B65643F313A3029270027206F9B
:101110006E6368616E67653D2773656E64436F6DCE
:101120006D616E6428226873730027206E616D659F
:101130003D27687373003C2F74643E3C74643E3CEE
:10114000696E70757420747970653D276368656396
:101150006B626F78272069643D27687373003C7465
:10116000723E3C74643E48535320003C7461626C90
:101170006520636C6173733D27696E6E6572273EEF
:101180003C74723E3C74643E3C68333E4869676818
:101190002D536964652053776974636865732053C0
:1011A00074617475732028302D323535203D203020
:1011B0002D562B293C2F68333E3C7461626C6520B0
:1011C000636C6173733D27696E6E6572273E003CE8
:1011D0002F7461626C653E3C2F74643E3C746420E5
:1011E00077696474683D27353025273E003C2F74AD
:1011F000643E3C2F74723E00222C656E636F646502
:10120000555249436F6D706F6E656E7428746869CE
:10121000732E76616C75652929273E0027206F6E35
:101220006368616E67653D2773656E64436F6D6DBE
:10123000616E642822616C6961735F72656C6179AB
:1012400000272076616C75653D270027206E616D53
:10125000653D27616C6961735F72656C6179003E01
:101260003C2F74643E3C74643E3C696E707574201F
:10127000747970653D2774657874272069643D270B
:10128000616C6961735F72656C6179002063686588
:10129000636B656400222C746869732E63686563F0
:1012A0006B65643F313A3029270027206F6E6368F1
:1012B000616E67653D2773656E64436F6D6D616E2A
:1012C00064282272656C61790027206E616D653D2E
:1012D0002772656C6179003C2F74643E3C74643EF7
:1012E0003C696E70757420747970653D276368651C
:1012F000636B626F78272069643D2772656C617942
:10130000003C74723E3C74643E52656C617920000E
:101310003C646976207374796C653D27626F7264F2
:1013200065723A31707820736F6C6964202363634F
:10133000633B6D617267696E2D626F74746F6D3A95
:10134000313070783B273E3C7461626C6520636C81
:101350006173733D276F75746572273E3C74723EEE
:101360003C74642077696474683D27353025273ED6
:101370003C68333E52656C617920537461747573B7
:101380003C2F68333E3C7461626C6520636C617312
:10139000733D27696E6E6572273E003E4F6E3C2F8F
:1013A0006F7074696F6E3E3C2F73656C6563743E3D
:1013B0003C2F74643E3C2F74723E3C2F7461626C0F
:1013C000653E3C2F74643E3C2F74723E3C2F74612A
:1013D000626C653E3C2F6469763E0073656C6563A4
:1013E000746564003E4F66663C2F6F7074696F6E63
:1013F0003E3C6F7074696F6E2076616C75653D2739
:101400003127200073656C6563746564003C6F7000
:1014100074696F6E2076616C75653D2730272000FA
:101420003E4F6E3C2F6F7074696F6E3E3C2F73653C
:101430006C6563743E3C2F74643E3C2F74723E3C7A
:1014400074723E3C74643E53657269616C204465FD
:101450006275672028313135323030204264293CB2
:101460002F74643E3C74643E3C73656C6563742009
:1014700069643D276465627567456E61626C656489
:1014800027206F6E6368616E67653D2773656E64C4
:10149000436F6D6D616E6428226465627567456E89
:1014A00061626C6564222C746869732E76616C7558
:1014B0006529273E0073656C6563746564003E4F63
:1014C00066663C2F6F7074696F6E3E3C6F70746916
:1014D0006F6E2076616C75653D273127200073653E
:1014E0006C6563746564003C6F7074696F6E207620
:1014F000616C75653D273027200027206F6E63687B
:10150000616E67653D2773656E64436F6D6D616ED7
:10151000642822636865636B496E74657276616CDA
:10152000222C746869732E76616C756529273E20BC
:101530006D733C2F74643E3C2F74723E3C74723E5B
:101540003C74643E50756C7365732053656E7369AB
:101550006E67202844492031302C31312C3132291A
:101560003C2F74643E3C74643E3C73656C656374EC
:101570002069643D2770756C73654F6E27206F6E10
:101580006368616E67653D2773656E64436F6D6D5B
:10159000616E64282270756C73654F6E222C7468BE
:1015A00069732E76616C756529273E0027206F6E62
:1015B0006368616E67653D2773656E64436F6D6D2B
:1015C000616E64282270756C736553656E6443792F
:1015D000636C65222C746869732E76616C7565295D
:1015E000273E206D733C2F74643E3C2F74723E3C4A
:1015F00074723E3C74643E50696E672044484350A8
:10160000204379636C653C2F74643E3C74643E3CBB
:10161000696E70757420747970653D276E756D62A2
:101620006572272069643D27636865636B496E7442
:10163000657276616C27206D696E3D2732303030DF
:1016400027206D61783D2736303030302720737485
:10165000796C653D2777696474683A383070783BF7
:10166000272076616C75653D270027206F6E6368C3
:10167000616E67653D2773656E64436F6D6D616E66
:10168000642822616E61496E7075744379636C657C
:10169000222C746869732E76616C756529273E204B
:1016A0006D733C2F74643E3C2F74723E3C74723EEA
:1016B0003C74643E50756C7365732053656E642092
:1016C0004379636C653C2F74643E3C74643E3C69B2
:1016D0006E70757420747970653D276E756D6265E6
:1016E00072272069643D2770756C736553656E645D
:1016F0004379636C6527206D696E3D273230303049
:1017000027207374796C653D2777696474683A386B
:101710003070783B272076616C75653D2700272067
:101720006F6E6368616E67653D2773656E64436FB6
:101730006D6D616E6428226F6E65576972654379BD
:10174000636C65222C746869732E76616C756529EB
:10175000273E206D733C2F74643E3C2F74723E3CD8
:1017600074723E3C74643E416E616C6F6720496EDA
:10177000707574204379636C653C2F74643E3C74CF
:10178000643E3C696E70757420747970653D276E97
:10179000756D626572272069643D27616E61496ECF
:1017A0007075744379636C6527206D696E3D2732CF
:1017B00030303027207374796C653D277769647405
:1017C000683A383070783B272076616C75653D2724
:1017D0000027206F6E6368616E67653D2773656ED5
:1017E00064436F6D6D616E64282273657269616C0C
:1017F0004E756D626572222C746869732E76616C09
:10180000756529273E3C2F74643E3C2F74723E3C24
:101810002F7461626C653E3C2F74643E3C7464209E
:1018200077696474683D27353025273E3C68333E30
:101830004F746865722073657474696E67733C2FAA
:1018400068333E3C7461626C6520636C6173733D08
:10185000276F746865722D73657474696E67732D74
:101860007461626C65273E3C74723E3C74643E3128
:101870002D57697265204379636C653C2F74643E13
:101880003C74643E3C696E70757420747970653D7B
:10189000276E756D626572272069643D276F6E65DE
:1018A000576972654379636C6527206D696E3D27C2
:1018B0003530303027207374796C653D2777696443
:1018C00074683A383070783B272076616C75653DD6
:1018D000270027206F6E6368616E67653D27666528
:1018E00074636828222F636F6D6D616E643F646559
:1018F000736372697074696F6E3D222B656E636FDE
:101900006465555249436F6D706F6E656E742874CF
:101910006869732E76616C75652929273E3C2F74A2
:10192000643E3C2F74723E3C74723E3C74643E5381
:10193000657269616C204E756D6265723C2F7464CE
:101940003E3C74643E3C696E7075742074797065B9
:101950003D2774657874272069643D277365726933
:10196000616C4E756D62657227206D61786C656E75
:101970006774683D273230272076616C75653D2796
:10198000003C2F74643E3C2F74723E3C74723E3CAB
:1019900074643E4465736372697074696F6E3C2F42
:1019A00074643E3C74643E3C696E70757420747956
:1019B00070653D277465787427206D61786C656E5D
:1019C0006774683D273230272076616C75653D2746
:1019D000003A0030003C2F74643E3C2F74723E3C51
:1019E00074723E3C74643E4D4143204164647265B0
:1019F00073733C2F74643E3C74643E003C2F7464EB
:101A00003E3C2F74723E3C74723E3C74643E4761AF
:101A100074657761793C2F74643E3C74643E003C8D
:101A20002F74643E3C2F74723E3C74723E3C74646E
:101A30003E495020416464726573732028444843D2
:101A400050293C2F74643E3C74643E003C646976CB
:101A5000207374796C653D27626F726465723A31E8
:101A6000707820736F6C696420236363633B6D61DE
:101A70007267696E2D626F74746F6D3A3130707871
:101A80003B273E3C7461626C6520636C6173733DFF
:101A9000276F75746572273E3C74723E3C746420F7
:101AA00077696474683D27353025273E3C68333EAE
:101AB000426173696320496E666F726D6174696F0C
:101AC0006E3C2F68333E3C7461626C6520636C61D0
:101AD00073733D2762617369632D696E666F2D7440
:101AE00061626C65273E3C74723E3C74643E4449BE
:101AF000502053776974636820416464726573731E
:101B00003C2F74643E3C74643E0020436F6E7472DC
:101B10006F6C2050616E656C3C2F68323E003C62F9
:101B20006F64793E3C64697620636C6173733D2712
:101B3000636F6E7461696E6572273E3C64697620DE
:101B4000636C6173733D2772657365742D62757480
:101B5000746F6E273E3C696E707574207479706581
:101B60003D27627574746F6E27206F6E636C6963B6
:101B70006B3D2277696E646F772E6C6F6361746959
:101B80006F6E2E687265663D272F696E666F27221D
:101B90002076616C75653D275669657720446F63D3
:101BA00073273E3C696E70757420747970653D27AB
:101BB000627574746F6E272076616C75653D27526F
:101BC00065626F6F7427206F6E636C69636B3D276E
:101BD000696628636F6E6669726D2822506F207384
:101BE0007469736B7520746C61C48DC3AD746B6163
:101BF00020726573657420646F6A6465206B20725F
:101C00006573657475206D6F64756C752E20506FEB
:101C10006B7261C48D6F7661743F222929207365D0
:101C20006E64436F6D6D616E6428227265736574B6
:101C3000222C3129273E3C2F6469763E3C68323E97
:101C40005261696C6475696E6F20003C2F7363721A
:101C50006970743E3C2F686561643E0066756E6312
:101C600074696F6E2073656E64436F6D6D616E6431
:101C700028706172616D2C76616C7565297B69666F
:101C800028706172616D2E73746172747357697418
:101C900068282768737327297C7C706172616D2EB8
:101CA0007374617274735769746828276C7373272F
:101CB000292970656E64696E67436F6D6D616E642E
:101CC000735B706172616D5D3D747275653B6665D5
:101CD00074636828272F636F6D6D616E643F272BD7
:101CE000706172616D2B273D272B76616C756529BC
:101CF0002E7468656E28726573706F6E73653D3EF5
:101D0000726573706F6E73652E74657874282929F7
:101D10002E7468656E28646174613D3E7B69662837
:101D2000706172616D2E7374617274735769746837
:101D3000282768737327297C7C706172616D2E730C
:101D400074617274735769746828276C73732729D8
:101D50002964656C6574652070656E64696E67439F
:101D60006F6D6D616E64735B706172616D5D3B750B
:101D7000706461746553746174757328293B7D299F
:101D80003B7D646F63756D656E742E61646445762A
:101D9000656E744C697374656E65722827444F4D87
:101DA000436F6E74656E744C6F61646564272C7547
:101DB0007064617465537461747573293B00666F58
:101DC00072286C657420693D303B693C64617461C4
:101DD0002E616C6961735F6473323433382E6C65C5
:101DE0006E6774683B692B2B297B6C657420616C72
:101DF000696173496E7075743D646F63756D656E6E
:101E0000742E676574456C656D656E7442794964BE
:101E10002827616C6961735F6473323433385F27DC
:101E20002B28692B3129293B696628616C6961730C
:101E3000496E70757429616C696173496E7075744F
:101E40002E76616C75653D646174612E616C6961AB
:101E5000735F6473323433385B695D7C7C27273B66
:101E60007D666F72286C657420693D303B693C6407
:101E70006174612E616C6961735F647331386232C1
:101E8000302E6C656E6774683B692B2B297B6C6503
:101E90007420616C696173496E7075743D646F6321
:101EA000756D656E742E676574456C656D656E74D1
:101EB000427949642827616C6961735F64733138C2
:101EC0006232305F272B28692B3129293B6966282C
:101ED000616C696173496E70757429616C696173B5
:101EE000496E7075742E76616C75653D64617461C0
:101EF0002E616C6961735F647331386232305B6983
:101F00005D7C7C27273B7D6C65742064656275670A
:101F1000456E61626C65643D646F63756D656E747A
:101F20002E676574456C656D656E744279496428E9
:101F3000276465627567456E61626C656427293B3D
:101F40006966286465627567456E61626C656429BF
:101F50006465627567456E61626C65642E76616C5E
:101F600075653D646174612E6465627567456E6177
:101F7000626C65642E746F537472696E6728293BB6
:101F80006C65742073657269616C4E756D62657203
:101F9000496E7075743D646F63756D656E742E6700
:101FA0006574456C656D656E744279496428277364
:101FB000657269616C4E756D62657227293B696651
:101FC0002873657269616C4E756D626572496E70D9
:101FD00075742973657269616C4E756D62657249BD
:101FE0006E7075742E76616C75653D646174612EDA
:101FF00073657269616C4E756D6265727C7C2727B2
:102000003B69662873657269616C4E756D626572B5
:10201000496E707574297B696628646174612E73DA
:10202000657269616C4C6F636B6564297365726975
:10203000616C4E756D626572496E7075742E636C5D
:102040006173734C6973742E61646428276E6F2DFD
:10205000626F7264657227293B656C7365207365D6
:102060007269616C4E756D626572496E7075742E21
:10207000636C6173734C6973742E72656D6F7665F2
:1020800028276E6F2D626F7264657227293B7D660B
:10209000697273745570646174653D66616C7365D3
:1020A0003B7D7D293B7D003B692B2B297B6C657437
:1020B00020616C696173496E7075743D646F6375FE
:1020C0006D656E742E676574456C656D656E7442E2
:1020D0007949642827616C6961735F616F272B28D8
:1020E000692B3129293B696628616C696173496EE6
:1020F00070757429616C696173496E7075742E76A0
:10210000616C75653D646174612E616C6961735FBA
:10211000616E614F7574735B695D7C7C27273B7DC5
:1021200000666F72286C657420693D303B693C0025
:102130003B692B2B297B6C657420616C6961734949
:102140006E7075743D646F63756D656E742E676532
:1021500074456C656D656E74427949642827616CBD
:102160006961735F6C7373272B28692B3129293BB5
:10217000696628616C696173496E70757429616C58
:10218000696173496E7075742E76616C75653D6416
:102190006174612E616C6961735F6C73735B695DFF
:1021A0007C7C27273B7D00666F72286C65742069F4
:1021B0003D303B693C003B692B2B297B6C657420CF
:1021C000616C696173496E7075743D646F63756DA0
:1021D000656E742E676574456C656D656E744279C5
:1021E00049642827616C6961735F687373272B28C2
:1021F000692B3129293B696628616C696173496ED5
:1022000070757429616C696173496E7075742E768E
:10221000616C75653D646174612E616C6961735FA9
:102220006873735B695D7C7C27273B7D00666F72FA
:10223000286C657420693D303B693C003B692B2B61
:10224000297B6C657420616C696173496E7075746B
:102250003D646F63756D656E742E676574456C655E
:102260006D656E74427949642827616C6961735F9A
:1022700072656C6179272B28692B3129293B6966A6
:1022800028616C696173496E70757429616C69614C
:1022900073496E7075742E76616C75653D646174FA
:1022A000612E616C6961735F72656C6179735B69E2
:1022B0005D7C7C27273B7D00666F72286C657420EF
:1022C000693D303B693C003B692B2B297B6C657475
:1022D00020616E614F75743D646F63756D656E74DA
:1022E0002E676574456C656D656E74427949642826
:1022F00027616E614F7574272B28692B3129293B83
:10230000696628616E614F757429616E614F7574DD
:102310002E76616C75653D646174612E616E614FEE
:102320007574735B695D7C7C303B6C657420616E99
:10233000614F7574566F6C746167653D646F63754A
:102340006D656E742E676574456C656D656E74425F
:102350007949642827616E614F7574566F6C74619A
:102360006765272B28692B3129293B696628616E0F
:10237000614F7574566F6C7461676529616E614F4A
:102380007574566F6C746167652E74657874436FED
:102390006E74656E743D2728272B646174612E610D
:1023A0006E614F757473566F6C746167655B695DC0
:1023B0002E746F46697865642831292B27562927A2
:1023C0003B7D00666F72286C657420693D303B6907
:1023D0003C0069662866697273745570646174653F
:1023E000297B6C6574206F6E6557697265437963EC
:1023F0006C653D646F63756D656E742E67657445BD
:102400006C656D656E744279496428276F6E6557F7
:102410006972654379636C6527293B6966286F6E2D
:1024200065576972654379636C65296F6E65576995
:1024300072654379636C652E76616C75653D646188
:1024400074612E6F6E65576972654379636C657C44
:102450007C353030303B6C657420616E61496E7044
:1024600075744379636C653D646F63756D656E74F7
:102470002E676574456C656D656E74427949642894
:1024800027616E61496E7075744379636C652729A5
:102490003B696628616E61496E7075744379636C3F
:1024A0006529616E61496E7075744379636C652E40
:1024B00076616C75653D646174612E616E61496E13
:1024C0007075744379636C657C7C313030303B6C63
:1024D00065742070756C73654F6E3D646F63756DC8
:1024E000656E742E676574456C656D656E744279B2
:1024F0004964282770756C73654F6E27293B6966A0
:102500002870756C73654F6E2970756C73654F6EAE
:102510002E76616C75653D646174612E70756C73A7
:10252000654F6E2E746F537472696E6728293B6C09
:1025300065742070756C736553656E644379636C64
:10254000653D646F63756D656E742E676574456C6B
:10255000656D656E7442794964282770756C736582
:1025600053656E644379636C6527293B69662870FF
:10257000756C736553656E644379636C652970751A
:102580006C736553656E644379636C652E76616C1C
:1025900075653D646174612E70756C736553656E0D
:1025A000644379636C657C7C323030303B6C65749D
:1025B00020636865636B496E74657276616C3D6417
:1025C0006F63756D656E742E676574456C656D65BA
:1025D0006E74427949642827636865636B496E7439
:1025E000657276616C27293B696628636865636B51
:1025F000496E74657276616C297B636865636B49AB
:102600006E74657276616C2E76616C75653D646181
:1026100074612E636865636B496E74657276616C74
:102620007C7C313030303B6966287570646174653C
:10263000496E74657276616C496429636C65617278
:10264000496E74657276616C287570646174654951
:102650006E74657276616C4964293B75706461744F
:1026600065496E74657276616C49643D7365744941
:102670006E74657276616C287570646174655374EC
:10268000617475732C646174612E636865636B4952
:102690006E74657276616C7C7C31303030293B7DA4
:1026A00000666F72286C657420693D303B693C643C
:1026B0006174612E647331386232302E6C656E67DE
:1026C00074683B692B2B297B6C657420736E456C99
:1026D000656D3D646F63756D656E742E67657445D9
:1026E0006C656D656E74427949642827647331386E
:1026F0006232305F736E272B28692B3129293B6C9E
:1027000065742074656D70456C656D3D646F6375AF
:102710006D656E742E676574456C656D656E74428B
:102720007949642827647331386232305F74656D8B
:1027300070272B28692B3129293B696628736E4540
:102740006C656D262674656D70456C656D297B73AF
:102750006E456C656D2E74657874436F6E74656E2E
:10276000743D646174612E647331386232305B6928
:102770005D2E736E3B74656D70456C656D2E746572
:102780007874436F6E74656E743D646174612E6419
:102790007331386232305B695D2E74656D702B2742
:1027A00043273B7D7D00666F72286C657420693D10
:1027B000303B693C646174612E6473323433382E6B
:1027C0006C656E6774683B692B2B297B6C65742084
:1027D000736E456C656D3D646F63756D656E742ECB
:1027E000676574456C656D656E7442794964282728
:1027F0006473323433385F736E272B28692B312989
:10280000293B6C65742074656D70456C656D3D6425
:102810006F63756D656E742E676574456C656D6567
:102820006E744279496428276473323433385F7494
:10283000656D70272B28692B3129293B6C65742025
:10284000766164456C656D3D646F63756D656E742E
:102850002E676574456C656D656E744279496428B0
:10286000276473323433385F766164272B28692BF1
:102870003129293B6C6574207673656E73456C65F0
:102880006D3D646F63756D656E742E676574456C20
:10289000656D656E744279496428276473323433F8
:1028A000385F7673656E73272B28692B3129293B96
:1028B000696628736E456C656D262674656D704576
:1028C0006C656D2626766164456C656D262676738B
:1028D000656E73456C656D297B736E456C656D2EF9
:1028E00074657874436F6E74656E743D6461746171
:1028F0002E6473323433385B695D2E736E3B7465BE
:102900006D70456C656D2E74657874436F6E74657B
:102910006E743D646174612E6473323433385B6964
:102920005D2E74656D702B2743273B766164456C83
:10293000656D2E74657874436F6E74656E743D6456
:102940006174612E6473323433385B695D2E766155
:10295000642B2756273B7673656E73456C656D2E29
:1029600074657874436F6E74656E743D64617461F0
:102970002E6473323433385B695D2E7673656E7303
:102980002B2756273B7D7D00666F72286C6574206F
:10299000693D303B693C646174612E616E61496ED2
:1029A000707574732E6C656E6774683B692B2B2988
:1029B0007B6C657420737461747573456C656D3DD3
:1029C000646F63756D656E742E676574456C656DB7
:1029D000656E7442794964282761695F7374617414
:1029E0007573272B28692B3129293B696628737455
:1029F00061747573456C656D297374617475734585
:102A00006C656D2E74657874436F6E74656E743D7D
:102A1000646174612E616E61496E707574735B6977
:102A20005D2B272028272B646174612E616E61491C
:102A30006E70757473566F6C746167655B695D2E3B
:102A4000746F46697865642831292B275629273BFE
:102A50007D00666F72286C657420693D303B693C6F
:102A6000646174612E646967496E707574732E6C4D
:102A7000656E6774683B692B2B297B6C65742073CA
:102A80007461747573456C656D3D646F63756D65D8
:102A90006E742E676574456C656D656E7442794918
:102AA00064282764695F737461747573272B2869C0
:102AB0002B3129293B696628737461747573456CE1
:102AC000656D297B6C6574207374617475735465CE
:102AD00078743D646174612E646967496E707574C1
:102AE000735B695D3B696628646174612E70756C07
:102AF00073654F6E262628693D3D3D397C7C693DD6
:102B00003D3D31307C7C693D3D3D31312929737437
:102B100061747573546578742B3D272028636F7535
:102B20006E743A20272B646174612E70756C736526
:102B3000436F756E74735B692D395D2B2729273BB5
:102B4000737461747573456C656D2E746578744328
:102B50006F6E74656E743D737461747573546578CB
:102B6000743B7D7D003B692B2B297B6C6574206C4D
:102B700073733D646F63756D656E742E6765744520
:102B80006C656D656E744279496428276C73732790
:102B90002B28692B3129293B6C6574206C73735089
:102BA000574D3D646F63756D656E742E6765744532
:102BB0006C656D656E744279496428276C73735037
:102BC000574D272B28692B3129293B6966286C73BF
:102BD000732626646174612E6C7373262664617497
:102BE000612E6C73735B695D213D3D756E64656636
:102BF000696E656426262170656E64696E67436F31
:102C00006D6D616E64735B276C7373272B28692B62
:102C100031295D296C73732E636865636B65643D50
:102C2000646174612E6C73735B695D3D3D3D313B46
:102C30006966286C737350574D2626646174612E43
:102C40006C737350574D2626646174612E6C7373D8
:102C500050574D5B695D213D3D756E646566696EDB
:102C60006564262677696E646F772E616374697672
:102C70006550574D4669656C64213D3D276C737303
:102C800050574D272B28692B3129296C73735057C6
:102C90004D2E76616C75653D646174612E6C737345
:102CA00050574D5B695D7C7C303B7D00666F7228C0
:102CB0006C657420693D303B693C003B692B2B29D6
:102CC0007B6C6574206873733D646F63756D656EAE
:102CD000742E676574456C656D656E7442794964E0
:102CE0002827687373272B28692B3129293B6C65AA
:102CF000742068737350574D3D646F63756D656ED6
:102D0000742E676574456C656D656E7442794964AF
:102D1000282768737350574D272B28692B31292991
:102D20003B6966286873732626646174612E687334
:102D3000732626646174612E6873735B695D213D3F
:102D40003D756E646566696E656426262170656EE4
:102D500064696E67436F6D6D616E64735B27687342
:102D600073272B28692B31295D296873732E6368BB
:102D700065636B65643D646174612E6873735B6940
:102D80005D3D3D3D313B69662868737350574D2664
:102D900026646174612E68737350574D26266461F2
:102DA00074612E68737350574D5B695D213D3D75AD
:102DB0006E646566696E6564262677696E646F77F2
:102DC0002E61637469766550574D4669656C642160
:102DD0003D3D2768737350574D272B28692B3129A8
:102DE0002968737350574D2E76616C75653D64612B
:102DF00074612E68737350574D5B695D7C7C303B0A
:102E00007D00666F72286C657420693D303B693CBB
:102E1000003B692B2B297B6C65742072656C617992
:102E20003D646F63756D656E742E676574456C6582
:102E30006D656E7442794964282772656C617927E3
:102E40002B28692B3129293B69662872656C6179C9
:102E50002972656C61792E636865636B65643D6496
:102E60006174612E72656C6179735B695D3B7D0095
:102E7000666F72286C657420693D303B693C006662
:102E80006574636828272F7374617475733F747356
:102E90003D272B6E6577204461746528292E676570
:102EA0007454696D652829292E7468656E287265C9
:102EB00073706F6E73653D3E726573706F6E736590
:102EC0002E6A736F6E2829292E7468656E286461D6
:102ED00074613D3E7B0066756E6374696F6E20752C
:102EE000706461746553746174757328297B006C18
:102EF00065742066697273745570646174653D749D
:102F00007275653B6C6574206163746976655057B2
:102F10004D4669656C643D6E756C6C3B6C657420E8
:102F200070656E64696E67436F6D6D616E64733D4D
:102F30007B7D3B6C657420757064617465496E744B
:102F4000657276616C49643D6E756C6C3B003C73D8
:102F500063726970743E003C21444F43545950459C
:102F60002048544D4C3E3C68746D6C3E3C68656135
:102F7000643E3C7469746C653E5261696C64756949
:102F80006E6F20436F6E74726F6C3C2F7469746C3B
:102F9000653E3C7374796C653E626F64797B666FE5
:102FA0006E742D66616D696C793A417269616C2C41
:102FB00073616E732D73657269663B666F6E742DF7
:102FC00073697A653A313470783B706F73697469EC
:102FD0006F6E3A72656C61746976653B7D2E636FC6
:102FE0006E7461696E65727B77696474683A3131B9
:102FF000303070783B6D617267696E3A3020617570
:10300000746F3B706F736974696F6E3A72656C614F
:10301000746976653B7D68312C68322C68337B6639
:103020006F6E742D66616D696C793A417269616C7D
:103030002C73616E732D73657269663B7D7461627A
:103040006C652E696E6E65727B626F726465722D3F
:10305000636F6C6C617073653A636F6C6C617073F5
:10306000653B77696474683A313030253B7D746123
:10307000626C652E6F757465727B626F72646572C7
:103080003A31707820736F6C696420236363633B0B
:1030900077696474683A313030253B7D74647B769F
:1030A0006572746963616C2D616C69676E3A6D69F4
:1030B00064646C653B666F6E742D73697A653A3132
:1030C0003470783B70616464696E673A3270783B43
:1030D0007D696E7075742C73656C6563747B666F47
:1030E0006E742D73697A653A313470783B7061641F
:1030F00064696E673A3270783B7D2E7265736574D1
:103100002D627574746F6E7B706F736974696F6E06
:103110003A6162736F6C7574653B746F703A3070AE
:10312000783B72696768743A3070783B7D2E7265BF
:103130007365742D627574746F6E20696E7075742A
:103140007B70616464696E673A3570783B7D747238
:103150007B6865696768743A323670783B7D746164
:10316000626C652E696E6E65722074643A6669726F
:1031700073742D6368696C647B77696474683A3131
:10318000303070783B7D7461626C652E696E6E655F
:10319000722074643A6E74682D6368696C642832B6
:1031A000297B77696474683A383070783B7D746144
:1031B000626C652E62617369632D696E666F2D7432
:1031C00061626C652074643A66697273742D636819
:1031D000696C647B77696474683A31383070783B25
:1031E0007D7461626C652E6F746865722D73657491
:1031F00074696E67732D7461626C652074643A66DD
:10320000697273742D6368696C647B776964746830
:103210003A32303070783B7D7461626C652E6F6E2F
:1032200065776972652D7461626C652074643A66B5
:10323000697273742D6368696C647B776964746800
:103240003A383070783B7D7461626C652E6F6E65C4
:10325000776972652D7461626C652074643A6E746E
:10326000682D6368696C642832297B7769647468A7
:103270003A31333070783B7D7461626C652E6F6ECD
:1032800065776972652D7461626C652074643A6E4D
:1032900074682D6368696C642833292C7461626CCE
:1032A000652E6F6E65776972652D7461626C65203D
:1032B00074643A6E74682D6368696C642834292CD0
:1032C0007461626C652E6F6E65776972652D7461CD
:1032D000626C652074643A6E74682D6368696C640E
:1032E0002835297B77696474683A343070783B7D7F
:1032F0002E6E6F2D626F726465727B626F72646591
:10330000723A6E6F6E653B7D3C2F7374796C653ECF
:1033100000485454502F312E3120323030204F4B42
:103320000A436F6E74656E742D547970653A20741B
:103330006578742F68746D6C0A436F6E6E65637484
:10334000696F6E3A20636C6F73650A0020485454AD
:1033500050003F6C6F636B3D003F6C6F636B3D00D3
:10336000474554202F3F00474554202F2000616CD3
:103370006961735F6473313862323000616C696116
:10338000735F64733234333800616C6961735F61F9
:103390006E614F75747300616C6961735F616E611A
:1033A000496E7075747300616C6961735F646967FD
:1033B000496E7075747300616C6961735F6C7373CF
:1033C00000616C6961735F68737300616C6961733C
:1033D0005F72656C61790072657365743D3100449C
:1033E000656275672064697361626C65642E006450
:1033F00065627567456E61626C65643D0064656217
:103400007567456E61626C65643D00636865636BFA
:10341000496E74657276616C3D00636865636B49E3
:103420006E74657276616C3D0070756C7365536582
:103430006E644379636C653D0070756C73655365AC
:103440006E644379636C653D0070756C73654F6E97
:103450003D0070756C73654F6E3D00616E61496E25
:103460007075744379636C653D00616E61496E707F
:1034700075744379636C653D006F6E65576972655D
:103480004379636C653D006F6E655769726543797A
:10349000636C653D006465736372697074696F6E17
:1034A0003D006465736372697074696F6E3D00738B
:1034B000657269616C4E756D6265723D007365720F
:1034C00069616C4E756D6265723D00485454502FB1
:1034D000312E3120323030204F4B0A436F6E7465ED
:1034E0006E742D547970653A20746578742F706C01
:1034F00061696E0A436F6E6E656374696F6E3A2020
:10350000636C6F73650A0A4F4B003C2F626F6479DE
:103510003E3C2F68746D6C3E003C2F6469763E0023
:103520000A202020203C68333E4164646974696F3E
:103530006E616C204E6F7465733C2F68333E0A20B9
:103540002020203C7072653E0A436F6D62696E6197
:1035500074696F6E206F66203177697265207365BC
:103560006E736F7273206D75737420626520757051
:1035700020746F203130706373206D6178696D75D0
:103580006D202844533138423230206F722044532A
:1035900032343338290A5573696E672052533438F0
:1035A0003520746865205544502073796E746178B5
:1035B000206D7573742068617665205C6E20737968
:1035C0006D626F6C2061742074686520656E642084
:1035D0006F662074686520636F6D6D616E64206C2A
:1035E000696E650A202020203C2F7072653E0A20FB
:1035F0002020203C703E3C6120687265663D272F8C
:10360000273E4261636B20746F20436F6E74726F4C
:103610006C2050616E656C3C2F613E3C2F703E0A01
:103620003C2F626F64793E0A3C2F68746D6C3E0AD1
:10363000000A202020204D4F4442555320526567F8
:103640006973746572204D61700A7265676973747D
:103650006572206E756D626572202020202020200A
:1036600020202020206465736372697074696F6E16
:103670000A30202020202020202020202020202050
:1036800020202020202020202020202072656C6116
:1036900079206F75747075747320312D380A31205C
:1036A000202020202020202020202020202020201A
:1036B00020202020202020202072656C6179206F3E
:1036C00075747075747320392D31320A32202020C0
:1036D00020202020202020202020202020202020EA
:1036E000202020202020206469676974616C206F8D
:1036F0007574707574732048535320312D342C2009
:103700004C535320312D340A3320202020202020F8
:1037100020202020202020202020202020202020A9
:103720002020204853532050574D2076616C7565FA
:1037300020312028302D323535290A342020202010
:103740002020202020202020202020202020202079
:103750002020202020204853532050574D207661B0
:103760006C756520322028302D323535290A3520F8
:103770002020202020202020202020202020202049
:103780002020202020202020204853532050574D17
:103790002076616C756520332028302D323535292F
:1037A0000A36202020202020202020202020202019
:1037B000202020202020202020202020485353207B
:1037C00050574D2076616C756520342028302D329D
:1037D0003535290A372020202020202020202020B5
:1037E0002020202020202020202020202020204CAD
:1037F00053532050574D2076616C75652031202839
:10380000302D323535290A38202020202020202054
:1038100020202020202020202020202020202020A8
:1038200020204C53532050574D2076616C756520F5
:10383000322028302D323535290A39202020202009
:103840002020202020202020202020202020202078
:1038500020202020204C53532050574D2076616C5F
:10386000756520332028302D323535290A31302036
:103870002020202020202020202020202020202048
:1038800020202020202020204C53532050574D2012
:1038900076616C756520342028302D323535290A43
:1038A00031312020202020202020202020202020F6
:1038B0002020202020202020202020616E616C6F9D
:1038C00067206F757470757420310A3132202020A2
:1038D00020202020202020202020202020202020E8
:1038E000202020202020616E616C6F67206F75742E
:1038F00070757420320A31332020202020202020AF
:1039000020202020202020202020202020202020B7
:10391000206469676974616C20696E7075747320C6
:10392000312D380A31342020202020202020202052
:103930002020202020202020202020202020206443
:1039400069676974616C20696E7075747320392DB4
:1039500031360A3135202020202020202020202030
:1039600020202020202020202020202020206469CA
:10397000676974616C20696E707574732031372DBE
:1039800032340A3136202020202020202020202000
:103990002020202020202020202020202020616E98
:1039A000616C6F6720696E70757420312020202053
:1039B00020202020202020302D313032330A313792
:1039C00020202020202020202020202020202020F7
:1039D000202020202020202020616E616C6F672035
:1039E000696E707574203220202020202020202035
:1039F0002020302D313032330A3138202020202051
:103A000020202020202020202020202020202020B6
:103A10002020202073657276696365202D207265F1
:103A200073657420286269742030290A3139202096
:103A30002020202020202020202020202020202086
:103A4000202020202020203173742044533234332E
:103A5000382054656D70202876616C7565206D7511
:103A60006C7469706C69656420627920313030292A
:103A70000A3230202020202020202020202020203A
:103A8000202020202020202020202020317374207E
:103A900044533234333820566164202876616C7583
:103AA00065206D756C7469706C696564206279203D
:103AB000313030290A3231202020202020202020BF
:103AC00020202020202020202020202020202020F6
:103AD00031737420445332343338205673656E7317
:103AE000202876616C7565206D756C7469706C69E1
:103AF000656420627920313030290A2D2020202071
:103B000020202020202020202020202020202020B5
:103B100020202020200A3436202020202020202091
:103B20002020202020202020202020202020202095
:103B3000204453323433382076616C756573202805
:103B4000757020746F2031302073656E736F7273DF
:103B5000290A34372D35372020202020202020200E
:103B600020202020202020202020202020445331ED
:103B7000384232302054656D7065726174757265BB
:103B80002028757020746F2031302073656E736F3C
:103B9000727329202876616C7565206D756C746967
:103BA000706C69656420627920313030290A000A1E
:103BB000202020203C68333E4D4F44425553204343
:103BC0006F6D6D616E64733C2F68333E0A20202058
:103BD000203C7072653E0A4D4F4442555320544379
:103BE0005020636F6D6D616E64733A2046433120DF
:103BF0002D20464331360A4D4F44425553205254EE
:103C00005520636F6D6D616E64733A204643332CAB
:103C1000204643362C20464331360A202020203CC3
:103C20002F7072653E0A000A636F6D6D616E64737A
:103C30003A0A202072656C6179206F6E20636F6D87
:103C40006D616E643A20202020202020202020203A
:103C5000202020207261696C3120726F3132206F18
:103C60006E0A202072656C6179206F666620636F32
:103C70006D6D616E643A20202020202020202020BD
:103C8000202020207261696C3120726F35206F66B0
:103C9000660A202068696768207369646520737705
:103CA00069746368206F6E20636F6D6D616E643A36
:103CB000202020207261696C3120686F32206F6E85
:103CC0000A202068696768207369646520737769D2
:103CD000746368206F666620636F6D6D616E643A11
:103CE0002020207261696C3120686F34206F666615
:103CF0000A202068696768207369646520737769A2
:103D00007463682050574D20636F6D6D616E643A27
:103D10002020207261696C3120686F315F70776D8F
:103D2000203138300A20206C6F7720736964652059
:103D3000737769746368206F6E20636F6D6D616E59
:103D4000643A20202020207261696C31206C6F3130
:103D5000206F6E0A20206C6F772073696465207372
:103D60007769746368206F666620636F6D6D616E3E
:103D7000643A202020207261696C31206C6F3220FF
:103D80006F66660A20206C6F772073696465207304
:103D900077697463682050574D20636F6D6D616E55
:103DA000643A202020207261696C31206C6F315F91
:103DB00070776D203138300A2020616E616C6F673A
:103DC000206F757470757420636F6D6D616E643AE9
:103DD000202020202020202020207261696C3120AA
:103DE000616F31203138300A20207265736574208C
:103DF000636F6D6D616E643A2020202020202020AA
:103E0000202020202020202020207261696C312079
:103E10007273740A64656661756C74207363616E95
:103E2000206379636C65733A0A2020317769726583
:103E3000206379636C653A202020202020202020F8
:103E4000202020202020202020202033303030301F
:103E5000206D730A2020616E616C6F6720696E703F
:103E60007574206379636C653A202020202020201F
:103E70002020202020203130303030206D730A0087
:103E80000A202020203C68333E5544502053796E50
:103E90007461783C2F68333E0A202020203C7072E9
:103EA000653E0A7369676E616C733A0A2020445359
:103EB00031384232302031776972652073656E7314
:103EC0006F72207061636B65743A202020207261EC
:103ED000696C3120317720323836346663333030C4
:103EE000383038322032352E34340A2020445332D0
:103EF0003433382031776972652073656E736F7261
:103F0000207061636B65743A202020202072616903
:103F10006C312031772032363132633331303230F8
:103F20003034662032352E343420312E3233203076
:103F30002E31320A20206469676974616C20696ED1
:103F40007075742073746174653A202020202020DD
:103F50002020202020207261696C3120646931208A
:103F6000310A2020616E616C6F6720696E70757414
:103F70002073746174653A202020202020202020A6
:103F8000202020207261696C31206169312031303C
:103F900032300A000A3C21444F43545950452048CE
:103FA000544D4C3E0A3C68746D6C3E0A3C68656139
:103FB000643E0A202020203C7469746C653E526186
:103FC000696C6475696E6F20446F63756D656E749E
:103FD0006174696F6E3C2F7469746C653E0A2020B1
:103FE00020203C7374796C653E0A2020202020201C
:103FF0002020626F6479207B20666F6E742D66616D
:104000006D696C793A20417269616C2C2073616E24
:10401000732D73657269663B20666F6E742D7369CC
:104020007A653A20313470783B206D617267696E31
:104030003A20323070783B207D0A2020202020203A
:1040400020202E636F6E7461696E6572207B20770D
:10405000696474683A203131303070783B206D618A
:104060007267696E3A2030206175746F3B20706F03
:10407000736974696F6E3A2072656C6174697665F4
:104080003B207D0A202020202020202068322C2068
:104090006833207B20666F6E742D66616D696C7964
:1040A0003A20417269616C2C2073616E732D7365C7
:1040B0007269663B207D0A2020202020202020706D
:1040C0007265207B206261636B67726F756E643A04
:1040D00020236634663466343B2070616464696E04
:1040E000673A20313070783B20626F726465723AB3
:1040F0002031707820736F6C696420236363633BA5
:104100002077686974652D73706163653A207072F9
:10411000652D777261703B207D0A202020202020B1
:10412000202061207B20636F6C6F723A2023303037
:10413000363663633B20746578742D6465636F72F3
:104140006174696F6E3A206E6F6E653B207D0A2048
:1041500020202020202020613A686F766572207B25
:1041600020746578742D6465636F726174696F6E15
:104170003A20756E6465726C696E653B207D0A201D
:104180002020203C2F7374796C653E0A3C2F6865B3
:1041900061643E0A3C626F64793E0A202020203C24
:1041A00064697620636C6173733D27636F6E74611D
:1041B000696E6572273E0A202020203C68323E52FC
:1041C00061696C6475696E6F204669726D776172A2
:1041D0006520446F63756D656E746174696F6E3CC4
:1041E0002F68323E0A202020203C703E3C6120682F
:1041F0007265663D272F273E4261636B20746F20F6
:10420000436F6E74726F6C2050616E656C3C2F61F1
:104210003E3C2F703E0A00436F6E6E656374696F9B
:104220006E3A20636C6F736500436F6E74656E74D5
:104230002D547970653A20746578742F68746D6CAC
:1042400000485454502F312E3120323030204F4B03
:10425000007D005D2C005D002C0022002200226108
:104260006C6961735F64733138623230223A5B008B
:104270005D2C005D2C002C002200220022616C6964
:1042800061735F647332343338223A5B005D2C0013
:104290002C002200220022616C6961735F616E61F3
:1042A0004F757473223A5B005D2C002C00220022B3
:1042B0000022616C6961735F616E61496E70757433
:1042C00073223A5B005D2C002C0022002200226148
:1042D0006C6961735F646967496E70757473223AC3
:1042E0005B005D2C002C002200220022616C6961C1
:1042F000735F6C7373223A5B005D2C002C0022000C
:10430000220022616C6961735F687373223A5B00FB
:104310005D2C002C002200220022616C6961735F19
:1043200072656C617973223A5B005D2C002C00226F
:10433000616E614F757473566F6C74616765223A74
:104340005B005D2C002C0022616E61496E707574FB
:1043500073566F6C74616765223A5B00222C0022F1
:104360006465736372697074696F6E223A22002CFF
:10437000002273657269616C4C6F636B6564223AED
:1043800000222C002273657269616C4E756D626546
:1043900072223A22002C00226465627567456E61C4
:1043A000626C6564223A002C0022636865636B4985
:1043B0006E74657276616C223A002C002270756C06
:1043C000736553656E644379636C65223A002C0013
:1043D0002270756C73654F6E223A002C0022616E5C
:1043E00061496E7075744379636C65223A002C00E4
:1043F000226F6E65576972654379636C65223A0076
:104400005D2C002C002C002270756C7365436F7559
:104410006E7473223A5B005D2C005D2C002C007DD5
:1044200000222C2274656D70223A007B22736E226A
:104430003A22002264733138623230223A5B005DE6
:104440002C005D2C002C007D002C227673656E7391
:10445000223A002C22766164223A00222C227465D2
:104460006D70223A007B22736E223A22002264731E
:1044700032343338223A5B005D2C002C0022616E0E
:1044800061496E70757473223A5B005D2C002C00DC
:1044900022646967496E70757473223A5B005D2C03
:1044A000002C0022616E614F757473223A5B005DCF
:1044B0002C002C00226C737350574D223A5B005D28
:1044C0002C002C002268737350574D223A5B005D1C
:1044D0002C002C00226C7373223A5B005D2C002CA4
:1044E0000022687373223A5B005D2C002C0022725C
:1044F000656C617973223A5B007B00485454502FFD
:10450000312E3120323030204F4B0A436F6E7465AC
:104510006E742D547970653A206170706C696361B6
:1045200074696F6E2F6A736F6E0A436F6E6E656388
:1045300074696F6E3A20636C6F73650A005761721D
:104540006E696E673A204C53532034202870696E90
:104550002031382920646F6573206E6F7420737565
:1045600070706F72742050574D2C2069676E6F7297
:10457000696E672076616C756520004574686572A8
:104580006E657420636F6E6E656374696F6E20660E
:1045900061696C65642C20726573657474696E67FB
:1045A0002E0045746865726E657420636F6E6E656B
:1045B0006374696F6E206C6F73742C207265736501
:1045C0007474696E672E002073657420746F200008
:1045D0004C53532050574D2000204F4646004C531B
:1045E000532000204F4E004C53532000207365741D
:1045F00020746F20004853532050574D2000204F07
:104600004646004853532000204F4E004853532045
:1046100000444843502072656E6577206661696C7E
:10462000004448435020726562696E64206F6B00DD
:104630004448435020726562696E64206661696C0B
:1046400000444843502072656E6577206F6B000010
:10465000002100240027002A002D00300033000133
:10466000010000040107010A0100000A0B02090C05
:104670000D0E080703040100000000000000000008
:10468000000000000000000000000000000000002A
:1046900000000000001211100000000000000000E7
:1046A000000000000000000000000000000000000A
:1046B0005EBCE2613FDD83C29C7E20A3FD1F419D65
:1046C000C3217FFCA2401E5F01E3BD3E6082DC236C
:1046D0007D9FC1421CFEA0E1BF5D0380DE3C62BE47
:1046E000E0025CDF81633D7C22C09E1D43A1FF464A
:1046F00018FAA427799BC584DA3866E5BB5907DB2D
:10470000856739BAE406581947A5FB7826C49A6527
:104710003BD987045AB8E6A7F91B45C6987A24F80E
:10472000A6441A99C7257B3A6486D85B05E7B98CFD
:10473000D2306EEDB3510F4E10F2AC2F7193CD11FC
:104740004FADF3702ECC92D38D6F31B2EC0E50AFD3
:10475000F1134DCE90722C6D33D18F0C52B0EE32DE
:104760006C8ED0530DEFB1F0AE4C1291CF2D73CAB9
:10477000947628ABF517490856B4EA6937D58B57B4
:1047800009EBB536688AD495CB2977F4AA4816E99F
:10479000B7550B88D6346A2B7597C94A14F6A87496
:1047A0002AC896154BA9F7B6E80A54D7896B350085
:1047B000002200250028002B002E003100340002CA
:1047C000010000050108010B010000200023002664
:1047D0000029002C002F0032000001000003010618
:1047E0000109010505050507050808080802020278
:1047F000020A0A080804040404010101010101017C
:10480000010303030303030303040707070C0C0C52
:104810000C0C0C0C0C02020202060606060606062A
:10482000060B0B0B0B0B0B0B0B01021020200808C7
:104830001020401020408002010201080402010102
:1048400002040810204080804020100804020180EB
:104850000402018040201008040201080402010142
:10486000020408102040800102040810204080004B
:10487000D76DDC8511241FBECFEFD1E2DEBFCDBFE7
:1048800000E00CBF15E0A0E0B2E0EAECF1E201E0EC
:104890000BBF02C007900D92A637B107D9F726E1EA
:1048A000A6E7B5E001C01D92AD36B207E1F714E20C
:1048B000C9E3D4E200E006C021970109802FFE0180
:1048C0000E94488EC833D10780E00807A9F70E94EC
:1048D000BC700C94D3900C940000CF92DF92EF92B6
:1048E000FF92CF93DF93EC016A017B01E889F9899C
:1048F00082E08083C11481EED806E104F104A1F0C6
:1049000060E079E08DE390E0A70196010E94CD8CF4
:1049100021503109410951095695479537952795F9
:10492000211580E1380798F0E889F989108260E85C
:1049300074E88EE190E0A70196010E94CD8C215091
:104940003109410951095695479537952795EC85C9
:10495000FD853083EE85FF852083188EEC89FD89E7
:1049600086E08083EA89FB89808180618083EA898F
:10497000FB89808188608083EA89FB8980818068E7
:104980008083EA89FB8980818F7D8083DF91CF914D
:10499000FF90EF90DF90CF90089520914A0F22234F
:1049A00061F02FB7F89430914A0F313049F43DB39C
:1049B0003093490F3DB33DBB2FBF8CBD9DBD0895C6
:1049C0002093490FFACF20E3FC0120833296862FF3
:1049D00082958F706F706A3030F4605D6293682FDB
:1049E0008111F5CF0895695CF9CFCF93DF93D62F6E
:1049F0009C0164E0369527956A95E1F7C1E021387E
:104A00004CE034070CF4C0E021384CE03407F8F4F3
:104A1000F901EE0FFF1FE650FF4EA081B18154E077
:104A2000220F331F5A95E1F7821B930B41E050E0B0
:104A300060E070E004C0440F551F661F771F8A9521
:104A4000D2F7DD2341F04A2B5B2B518340838C2F1F
:104A5000DF91CF910895409550954A235B23F5CF80
:104A6000FC01818D928D089508958150823108F066
:104A70005AC0E82FF0E08827EF5BFA4D8F4F0C9477
:104A8000488E61256525532559255D259325682583
:104A90006E25722578257C25802586258A259325F7
:104AA0008E2594259825809180008F7780938000B3
:104AB0000895809180008F7DF9CF80918000877F5D
:104AC000F5CF84B58F7784BD089584B58F7DFBCFF6
:104AD0008091B0008F778093B00008958091B000EE
:104AE0008F7DF9CF809190008F778093900008950B
:104AF000809190008F7DF9CF80919000877FF5CFD6
:104B00008091A0008F778093A00008958091A000ED
:104B10008F7DF9CF8091A000877FF5CF8091200114
:104B20008F77809320010895809120018F7DF9CFA8
:104B300080912001877FF5CFCF93DF93282F30E03E
:104B4000F901E759F94B8491F901E75DF74BD491ED
:104B5000F901ED51F84BC491CC23A1F081110E94D1
:104B60003525EC2FF0E0EE0FFF1FE753F84BA59132
:104B7000B491EC91ED2381E090E009F480E0DF91C5
:104B8000CF91089580E090E0FACF1F93CF93DF9309
:104B9000282F30E0F901E759F94B8491F901E75DDD
:104BA000F74BD491F901ED51F84BC491CC23A9F006
:104BB000162F81110E943525EC2FF0E0EE0FFF1F1C
:104BC000E155F84BA591B4918FB7F894EC91111180
:104BD00008C0D095DE23DC938FBFDF91CF911F916A
:104BE0000895DE2BF8CFCF93DF9390E0FC01E75DD3
:104BF000F74B24918D51984BFC0184918823D1F07F
:104C000090E0880F991FFC01E15BF94BA591B491ED
:104C1000FC01E155F84BC591D49161110EC09FB7CD
:104C2000F8948C91E22FE0958E238C932881E223D7
:104C3000E8839FBFDF91CF9108958FB7F894EC91EF
:104C4000E22BEC938FBFF6CF1F93CF93DF93182FF8
:104C5000EB0161E00E94F325209739F460E0812F99
:104C6000DF91CF911F910C94C525CF3FD10511F451
:104C700061E0F5CFE12FF0E0E759F94BE491E15025
:104C8000E23108F0B3C0F0E08827E65BF94D8F4FC2
:104C90000C94488E5C266426692673267D26F626AB
:104CA00087268F269726A126AB26B526C426CE2694
:104CB000F626D826E226EC2684B5806884BDC7BDDA
:104CC000DF91CF911F91089584B5806284BDC8BDE6
:104CD000F7CF80918000806880938000D093890016
:104CE000C0938800EDCF8091800080628093800027
:104CF000D0938B00C0938A00E3CF809180008860BE
:104D000080938000D0938D00C0938C00D9CF809188
:104D1000B00080688093B000C093B300D1CF809181
:104D2000B00080628093B000C093B400C9CF80917E
:104D30009000806880939000D0939900C093980071
:104D4000BFCF80919000806280939000D0939B00B1
:104D5000C0939A00B5CF80919000886080939000B6
:104D6000D0939D00C0939C00ABCF8091A000806841
:104D70008093A0008091A0008F7B8093A000D093AF
:104D8000A900C093A8009CCF8091A000806280936E
:104D9000A000D093AB00C093AA0092CF8091A00056
:104DA00088608093A000D093AD00C093AC0088CF02
:104DB00080912001806880932001D0932901C093C5
:104DC00028017ECF80912001806280932001D093C2
:104DD0002B01C0932A0174CF8091200188608093B9
:104DE0002001D0932D01C0932C016ACFC038D1058A
:104DF0000CF03ECF33CF3FB7F89480918F0E909157
:104E0000900EA091910EB091920E26B5A89B05C070
:104E10002F3F19F00196A11DB11D3FBFBA2FA92F39
:104E2000982F8827BC01CD01620F711D811D911D36
:104E300042E0660F771F881F991F4A95D1F70895A2
:104E40008F929F92AF92BF92CF92DF92EF92FF929A
:104E50004B015C010E94FB266B017C010E94FB263A
:104E60006C197D098E099F09683E73408105910583
:104E7000A8F321E0821A9108A108B10888EEC80EB3
:104E800083E0D81EE11CF11C81149104A104B1043B
:104E900029F7FF90EF90DF90CF90BF90AF909F9059
:104EA0008F9008952FB7F89460918B0E70918C0EAF
:104EB00080918D0E90918E0E2FBF089508950895C4
:104EC000DB0114964D915C9115976D917C91DC01FD
:104ED000ED91FC910280F381E02D1994AF92BF9285
:104EE000CF92DF92EF92FF920F931F93CF93DF93B6
:104EF0006C017B018B01040F151FEB015E01AE18E5
:104F0000BF08C017D10759F06991D601ED91FC9106
:104F10000190F081E02DC6011995892B79F7C50123
:104F2000DF91CF911F910F91FF90EF90DF90CF9085
:104F3000BF90AF900895FC01538D448D252F30E034
:104F4000842F90E0821B930B541710F0CF96089596
:104F500001970895FC01918D828D981761F0A28DC3
:104F6000AE0FBF2FB11D5D968C91928D9F5F9F7389
:104F7000928F90E008958FEF9FEF0895FC01918D3F
:104F8000828D981731F0828DE80FF11D858D90E0AC
:104F900008958FEF9FEF0895FC01918D228D892F49
:104FA00090E0805C9F4F821B91098F739927089531
:104FB0008BE49FE00E94CC2721E0892B09F420E0BC
:104FC000822F089588EE9FE00E94CC2721E0892B54
:104FD00009F420E0822F0895FC01A48DA80FB92FB9
:104FE000B11DA35ABF4F2C91848D90E001968F7311
:104FF0009927848FA689B7892C93A089B1898C9130
:10500000837080648C93938D848D981306C002887E
:10501000F389E02D80818F7D80830895EF92FF9248
:105020000F931F93CF93DF93EC0181E0888F9B8DCB
:105030008C8D98131AC0E889F989808185FF15C085
:105040009FB7F894EE89FF896083E889F9898081A8
:105050008370806480839FBF81E090E0DF91CF9177
:105060001F910F91FF90EF900895F62E0B8D10E099
:105070000F5F1F4F0F731127E02E8C8D8E110CC008
:105080000FB607FCFACFE889F989808185FFF5CF53
:10509000CE010E94EC27F1CFEB8DEC0FFD2FF11D1F
:1050A000E35AFF4FF0829FB7F8940B8FEA89FB8990
:1050B00080818062CFCFCF93DF93EC01888D8823EE
:1050C000B9F0AA89BB89E889F9898C9185FD03C06B
:1050D000808186FD0DC00FB607FCF7CF8C9185FF50
:1050E000F2CF808185FFEDCFCE010E94EC27E9CF82
:1050F000DF91CF91089580E090E0892B29F00E9404
:10510000E22781110E94000080E090E0892B49F0A5
:1051100080E090E0892B29F00E94000081110E941C
:10512000000080E090E0892B49F080E090E0892B3E
:1051300029F00E94000081110E94000080E090E0B0
:10514000892B29F00E94D82781110C940000089522
:10515000CF93CFB7F8948091BA06811127C0E8E1C8
:10516000F8E48491EEE5F8E49491E82FF0E0EE0F96
:10517000FF1FE15BF94BA591B491EC91E92321F478
:1051800061E085E30E94C52561E085E30E94F32587
:105190008CB580618CBD8CB580648CBD61E084E38E
:1051A0000E94F32561E083E30E94F3258091BA0613
:1051B0008F5F8093BA06CFBFCF910895FC01208105
:1051C0002EBD9B012150310941F051810DB407FEE4
:1051D000FDCF4EB55EBD4193F5CF61507109860F8D
:1051E000971F0DB407FEFDCF2EB5FC012083089557
:1051F000E091DC0EF091DD0E80819091DB0E892B29
:1052000080830895E091DC0EF091DD0E9081809115
:10521000DB0E809589238083089590E02091DE0E37
:10522000233339F40C96982F990F990F990F80E03A
:1052300008954896F8CFCF93DF931F92CDB7DEB78E
:105240006983DC01ED91FC910280F381E02D41E066
:1052500050E0BE016F5F7F4F19950F90DF91CF91A6
:105260000895CF93DF931F92CDB7DEB76983DC013A
:10527000ED91FC910280F381E02D41E050E0BE0110
:105280006F5F7F4F19950F90DF91CF910895FC01CB
:105290009485FB018485981303C081E0983008F061
:1052A00080E00895CF93DF931F92CDB7DEB7698377
:1052B000DC01ED91FC910280F381E02D41E050E0B2
:1052C000BE016F5F7F4F19950F90DF91CF910895C9
:1052D000EF92FF920F931F93CF93DF938C017B018B
:1052E000D0E0C0E0F701EC0FFD1F6491662339F0B8
:1052F000C8010E945229892B11F02196F3CFCE01CB
:10530000DF91CF911F910F91FF90EF9008958091C1
:105310004A0F882361F09FB7F89420914A0F80913B
:10532000490F213019F48DBB9FBF08958FBF089599
:10533000DC012C911196ED91FC91F8948181822BE6
:1053400081839281322F30959323928387E090E07E
:105350000197F1F781818323818383E290E00197B4
:10536000F1F790817894EFECF0E03197F1F7922328
:1053700081E009F480E00895FC0190810180F281D0
:10538000E02D292F209560FF14C0F894828182239C
:1053900082838181892B8183A3E2B0E01197F1F7A9
:1053A0008281982B9283789487ED90E00197F1F7B2
:1053B0000895F8948281822382838181892B81835D
:1053C000AFEFB0E01197F1F78281982B9283789438
:1053D0008FE090E0EBCFDF92EF92FF920F931F935D
:1053E000CF93DF93EC01D62EE42E08E010E0FF24EB
:1053F000F39461E08D2D8F2109F460E0CE010E94CD
:10540000BC29FF0C01501109A1F7E11010C0F8945C
:10541000E981FA8191818881809589238183E9815D
:10542000FA81928188818095892382837894DF91A3
:10543000CF911F910F91FF90EF90DF900895EF9221
:10544000FF920F931F93CF93DF938C017B0140E07A
:1054500065E50E94EB29E70188E0E80EF11C6991FF
:1054600040E0C8010E94EB29CE15DF05C1F7DF91AE
:10547000CF911F910F91FF90EF900895FC019081C3
:105480000180F281E02DF8948181292F20958223DB
:10549000818378943DE743E050E0315029F1DA010F
:1054A0001197F1F780818923C1F3F89482818223D7
:1054B00082838181892B81837894ABECB7E011974B
:1054C000F1F7F894818182238183ABE3B1E01197F6
:1054D000F1F78081982381E009F080E07894EBE88F
:1054E000F6E03197F1F7089580E008956F927F928A
:1054F0008F929F92AF92BF92CF92DF92EF92FF92E4
:105500000F931F93CF93DF93EC017093D9106093A7
:10551000D8108091D6109091D7100E943E2A6091A9
:10552000D8107091D9108091D6109091D7100E9408
:105530001F2A40E068EB8091D6109091D7100E940E
:10554000EB2940E060E08091D6109091D7100E9446
:10555000EB298091D6109091D7100E943E2A60913D
:10556000D8107091D9108091D6109091D7100E94C8
:105570001F2A40E06EEB8091D6109091D7100E94C8
:10558000EB2940E060E08091D6109091D7100E9406
:10559000EB298E016E0189E0C80ED11C7E01A0901E
:1055A000D610B090D71088E0882E912C712C6624EC
:1055B0006394C5010E94982981117628660CA1E0A8
:1055C0008A1A9108B1F7F70171927F01EC15FD0578
:1055D00031F789E090E0815049F0D801ED918D01DB
:1055E000E927F0E0E155F94B9491F5CF81E028856A
:1055F000291380E0DF91CF911F910F91FF90EF90E1
:10560000DF90CF90BF90AF909F908F907F906F90E2
:105610000895CF92DF92EF92FF920F931F93CF9353
:10562000DF9300D000D000D0CDB7DEB78C01E62EDE
:105630005093D9104093D810BA01CE0101960E9420
:10564000762AF82E882309F499C089810130110542
:1056500009F0A4C0886089838091D6109091D710FA
:105660000E943E2A6091D8107091D9108091D61076
:105670009091D7100E941F2A40E06EE48091D610CE
:105680009091D7100E94EB2940E060E08091D61005
:105690009091D7100E94EB298E010F5F1F4F6E0172
:1056A00089E0C80ED11CF80161918F0140E0809122
:1056B000D6109091D7100E94EB290C151D0599F773
:1056C0008091D6109091D7100E943E2A6091D810F8
:1056D0007091D9108091D6109091D7100E941F2AF6
:1056E00040E068E48091D6109091D7100E94EB2999
:1056F00040E060E08091D6109091D7100E94EB2995
:105700008091D6109091D7100E943E2A6091D810B7
:105710007091D9108091D6109091D7100E941F2AB5
:10572000EE20F1F040E064E48091D6109091D71023
:105730000E94EB296AE070E080E090E00E94202760
:105740008091D6109091D7100E943E2A6091D81077
:105750007091D9108091D6109091D7100E941F2A75
:1057600040E064EB8091D6109091D7100E94EB2915
:1057700068E070E080E090E00E9420278F2D29965D
:105780000FB6F894DEBF0FBECDBFDF91CF911F9152
:105790000F91FF90EF90DF90CF900895877F5BCFC0
:1057A0001F93CF93DF9300D000D000D0CDB7DEB7EA
:1057B0009093D9108093D81081E08093EB100E94D1
:1057C00052276093E7107093E8108093E91090934C
:1057D000EA108091DA1080FD03C0843009F058C0CF
:1057E0004091D8105091D91061E0182F147082FFA9
:1057F00060E090E080E00E94092B882309F4A0C0BB
:105800006091D8107091D910CE0101960E94762A2D
:10581000882309F495C01123D9F06A817B8123E0A4
:10582000759567952A95E1F7072E000C880B990B63
:105830000E948A8B20E030E040E05DE30E94E98B2B
:105840006093DB107093DC108093DD109093DE107A
:105850008091DA1080FF1CC06D8170E0762F662782
:10586000662773708C81682B072E000C880B990BB0
:105870000E948A8B20E030E048EC52E40E949D8D2B
:105880006093DF107093E0108093E1109093E2102A
:105890001091DA1011FF52C012FF5CC01095117008
:1058A0004091D8105091D910612F81E090E00E9472
:1058B000092B882309F444C06091D8107091D91045
:1058C000CE0101960E94762A8823D1F11123D9F0C6
:1058D0006A817B8183E0759567958A95E1F7072E4C
:1058E000000C880B990B0E948A8B20E030E040E08E
:1058F0005DE30E94E98B6093DB107093DC10809372
:10590000DD109093DE106E817F8177FF03C071956B
:1059100061957109072E000C880B990B0E948A8BE8
:1059200020E030E040E859E30E94E98B6093E31007
:105930007093E4108093E5109093E6101092EB10B2
:1059400029960FB6F894DEBF0FBECDBFDF91CF9181
:105950001F91089510E0A4CF0F931F93CF93DF936F
:10596000D82F61E08091BF060E94C52500E31EE0AC
:10597000C0E08091700E9091710EDC01ED91FC9170
:10598000CD1749F0D8016D918D010190F081E02D86
:105990001995CF5FEECF0680F781E02D19958091A4
:1059A000BB069091BC068230910538F0880F991F94
:1059B000880F991F05970197F1F760E08091BF0666
:1059C000DF91CF911F910F910C94C525E0E3FEE08C
:1059D00090E02FEF3FEF981791F04191242748E096
:1059E000B9016170772736952795672B21F051E033
:1059F000252750EA3527415099F79F5FECCF922F2A
:105A0000832F089520912A0E30912B0E2F5F3F4F48
:105A100030932B0E20932A0E9091290E911115C0D0
:105A20009091280E9093300E9091270E906890934D
:105A3000310E8093320E83E00E94E62C9093330E59
:105A40008093340E85E00C94AC2C0895843091053D
:105A5000C9F09B016230710540F4880F991FFC0169
:105A6000E85EFD4F80810C94C525225031092E3F00
:105A7000310540F4880F991FFC01E85EFD4F8081DD
:105A80000C9424260895AF92BF92CF92DF92EF92AA
:105A9000FF920F931F93CF93DF93CDB7DEB76A9733
:105AA0000FB6F894DEBF0FBECDBFCD86DE86EF8683
:105AB000F88A098B1A8B2B8B3C8B4D8B5E8B6F8BF3
:105AC000788F898F9A8FCE010D960E943E2AB5015C
:105AD000CE010D960E941F2A40E06EEBCE010D967E
