:100000000C9432030C9463030C9463030C94630309
:100010000C9463030C9463030C9463030C946303C8
:100020000C9463030C9463030C9463030C946303B8
:100030000C9463030C9463030C9463030C946303A8
:100040000C9463030C9463030C9463030C94630398
:100050000C9463030C9463030C9463030C942D4E73
:100060000C9463030C94F74D0C94CD4D0C946303E6
:100070000C9463030C9463030C9463030C94630368
:100080000C9463030C9463030C9463030C94630358
:100090000C9463030C9463030C9463030C94630348
:1000A0000C9463030C9463030C9463030C94630338
:1000B0000C9463030C9463030C9463030C94630328
:1000C0000C9463030C9463030C9463030C94630318
:1000D0000C9463030C9463030C94974D0C946D4D36
:1000E0000C94630307634236B79BD8A71A39685646
:1000F00018AEBAAB558C1D3CB7CC5763BD6DEDFD4A
:10010000753EF6177231BF000000803F05A84CCD48
:10011000B2D44EB93836A9020C50B9918688083C41
:10012000A6AAAA2ABE000000803F0C942A3A0C948A
:10013000942B0C94DC340C9425340C9454440C947F
:10014000DE5D0C94251D0C944D240C9421290C94F7
:10015000D5340C94393A0C94DA050C94CA5D0C949D
:100160000C5E0C94C1340C94E53C0C94D6050C94B4
:10017000B4260C94AB110C949A340C94D0440C9487
:10018000BF580C944D5E0C94DB320C94731F0C948E
:10019000473B0C94283F0C9468300C94025B0C9401
:1001A000DB1A0C94BF620C946A3C0C94A2370C943A
:1001B000575E0C945B370C9453040C94D0050C944C
:1001C0008E2B0C94FD370C94BF050C94925D0C940F
:1001D00026430C94100D0C94711F0C94C3050C94C1
:1001E000255E0C94E8050C9495040C946F5C0C94BB
:1001F000B7040C94E73F0C94A9110C94E4050C94FB
:10020000F05D0C94CD3F0C94F93D0C94271D0C949B
:1002100024440C94C4370C94012E0C94713F0C941C
:100220005F0F0C94265A0C94AE080C94503E0C941C
:100230002F5E0C94CC050C9476370C94E85D0C94EE
:10024000F1050C94EC050C9499430C94D91A0C9478
:10025000BB050C94345B0C948F180C94FB2D0C9400
:1002600057040C94D2080C94CA460C94C4080C94FD
:10027000D5320C941F330C9486040C9447240C94B0
:10028000473F0C94D45D0C94A8400C94435E0C94AE
:10029000C55D0C94F85D0C9458040C94D4080C942F
:1002A000425C0C94FB440C94D7080C9441160C94BB
:1002B00077080C948D080C94C6050C9436450C9464
:1002C000165E0C94CA3C0C94F5080C9428340C94DB
:1002D000B7050C9459040C94F7130C94553C0C94EA
:1002E000B1050C945D0F0C94774E0C946E300C9409
:1002F00027290C94DA210C94025E0C94DE050C94F0
:1003000043160C94A9040C94BA260C948D180C94E2
:10031000395E0C94C5340C94F6050C94F9040C94D5
:10032000F5130C94C8080C945A0F0C946F460C9457
:1003300046050C94A3080C94F2050C94BD340C945F
:10034000F8580C94E02100407A10F35A00A0724E45
:1003500018090010A5D4E80000E87648170000E46A
:100360000B54020000CA9A3B000000E1F5050000B2
:1003700080969800000040420F000000A086010017
:100380000000102700000000E803000000006400E7
:10039000000000000A000000000001000000000052
:1003A0002C76D888DC674F0823DFC1DFAE59E1B176
:1003B000B796E5E3E453C63AE651997696E8E6C285
:1003C0008426EB898C9B62ED407C6FFCEFBC9C9F8C
:1003D00040F2BAA56FA5F490055A2AF75C936B6CAE
:1003E000F9676DC11BFCE0E40D47FEF520E6B500A2
:1003F000D0ED902E0300943577050080841E080010
:1004000000204E0A000000C80C333333330F986EBF
:1004100012831141EF8D2114893BE65516CFFEE67C
:10042000DB18D1844B381BF77C1D901DA4BBE42442
:10043000203284725E228100C9F124ECA1E53D27BF
:1004400000002100240027002A002D003000330086
:1004500001010000040107010A010000220025003B
:1004600028002B002E00310034000201000005019D
:1004700008010B01000020002300260029002C00A9
:100480002F003200000100000301060109010505EB
:100490000505070508080808020202020A0A0808FA
:1004A0000404040401010101010101010303030328
:1004B00003030303040707070C0C0C0C0C0C0C0CB7
:1004C0000202020206060606060606060B0B0B0BC8
:1004D0000B0B0B0B010210202008081020401020ED
:1004E00040800201020108040201010204081020F8
:1004F00040808040201008040201800402018040F6
:10050000201008040201080402010102040810205E
:1005100040800102040810204080005EBCE2613F80
:10052000DD83C29C7E20A3FD1F419DC3217FFCA2D1
:10053000401E5F01E3BD3E6082DC237D9FC1421C03
:10054000FEA0E1BF5D0380DE3C62BEE0025CDF81B5
:10055000633D7C22C09E1D43A1FF4618FAA4277963
:100560009BC584DA3866E5BB5907DB856739BAE491
:1005700006581947A5FB7826C49A653BD987045AC3
:10058000B8E6A7F91B45C6987A24F8A6441A99C775
:10059000257B3A6486D85B05E7B98CD2306EEDB323
:1005A000510F4E10F2AC2F7193CD114FADF3702E51
:1005B000CC92D38D6F31B2EC0E50AFF1134DCE9083
:1005C000722C6D33D18F0C52B0EE326C8ED0530D35
:1005D000EFB1F0AE4C1291CF2D73CA947628ABF5E3
:1005E00017490856B4EA6937D58B5709EBB5366811
:1005F0008AD495CB2977F4AA4816E9B7550B88D643
:10060000346A2B7597C94A14F6A8742AC896154BF4
:10061000A9F7B6E80A54D7896B3500000A0B02091E
:100620000C0D0E080703040100000000000000008C
:1006300000000000000000000000000000000000BA
:100640000000000000001211100000000000000077
:10065000000000000000000000000000000000009A
:10066000774EBF6211241FBECFEFD1E2DEBFCDBFF8
:1006700000E00CBF14E0A0E0B2E0E8E3FAED00E037
:100680000BBF02C007900D92A834B107D9F720E143
:10069000A8E4B4E001C01D92A631B207E1F713E06F
:1006A000C1E3D3E000E006C021970109802FFE01DD
:1006B0000E945F6AC033D10780E00807A9F70E9453
:1006C00094500C940A6D0C940000CF92DF92EF923C
:1006D000FF92CF93DF93EC016A017B01E889F989EE
:1006E00082E08083C11481EED806E104F104A1F018
:1006F00060E079E08DE390E0A70196010E94BC677D
:10070000215031094109510956954795379527954B
:10071000211580E1380798F0E889F989108260E8AE
:1007200074E88EE190E0A70196010E94BC67215019
:100730003109410951095695479537952795EC851B
:10074000FD853083EE85FF852083188EEC89FD8939
:1007500086E08083EA89FB89808180618083EA89E1
:10076000FB89808188608083EA89FB898081806839
:100770008083EA89FB8980818F7D8083DF91CF919F
:10078000FF90EF90DF90CF9008958CBD9DBD0895B0
:10079000CF93DF93EC01E881F9810480F581E02DAE
:1007A00019958BE599E09B838A8381E090E09E8791
:1007B0008D87E881F9810284F385E02DCE011995BA
:1007C000009701F19C0150E040E060E472E48FE0AA
:1007D00090E00E948A6780919B0A90919C0AA09168
:1007E0009D0AB0919E0A82179307A407B50710F4DB
:1007F000DA01C90180939B0A90939C0AA0939D0AF9
:10080000B0939E0ACE01DF91CF91089520E3FC01C1
:1008100020833296862F82958F706F706A3030F405
:10082000605D6293682F8111F5CF0895695CF9CFFF
:10083000CF93DF93D62F9C0164E0369527956A9578
:10084000E1F7C1E021384CE034070CF4C0E0213876
:100850004CE03407F8F4F901EE0FFF1FE25CF44FAF
:10086000A081B18154E0220F331F5A95E1F7821B1A
:10087000930B41E050E060E070E004C0440F551F6E
:10088000661F771F8A95D2F7DD2341F04A2B5B2B39
:10089000518340838C2FDF91CF91089540955095DF
:1008A0004A235B23F5CFFC01818D928D0895089535
:1008B0000895AF92BF92CF92DF92EF92FF920F9383
:1008C0001F93CF93DF936C017B018B01040F151FE6
:1008D000EB015E01AE18BF08C017D10759F069914E
:1008E000D601ED91FC910190F081E02DC6011995A2
:1008F000892B79F7C501DF91CF911F910F91FF905F
:10090000EF90DF90CF90BF90AF900895FC01538D92
:10091000448D252F30E0842F90E0821B930B5417D9
:1009200010F0CF96089501970895FC01918D828D66
:10093000981761F0A28DAE0FBF2FB11D5D968C91FF
:10094000928D9F5F9F73928F90E008958FEF9FEF3E
:100950000895FC01918D828D981731F0828DE80FFA
:10096000F11D858D90E008958FEF9FEF0895FC01B4
:10097000918D228D892F90E0805C9F4F821B910981
:100980008F73992708958EE599E00E94B70421E0BE
:10099000892B09F420E0822F08958BEF99E00E94C3
:1009A000B70421E0892B09F420E0822F0895FC018F
:1009B000A48DA80FB92FB11DA35ABF4F2C91848DC0
:1009C00090E001968F739927848FA689B7892C931D
:1009D000A089B1898C91837080648C93938D848D70
:1009E000981306C00288F389E02D80818F7D808373
:1009F0000895EF92FF920F931F93CF93DF93EC0133
:100A000081E0888F9B8D8C8D98131AC0E889F989B5
:100A1000808185FF15C09FB7F894EE89FF896083B8
:100A2000E889F98980818370806480839FBF81E039
:100A300090E0DF91CF911F910F91FF90EF9008957B
:100A4000F62E0B8D10E00F5F1F4F0F731127E02E56
:100A50008C8D8E110CC00FB607FCFACFE889F9898E
:100A6000808185FFF5CFCE010E94D704F1CFEB8DB9
:100A7000EC0FFD2FF11DE35AFF4FF0829FB7F89462
:100A80000B8FEA89FB8980818062CFCFCF93DF9380
:100A9000EC01888D8823B9F0AA89BB89E889F98996
:100AA0008C9185FD03C0808186FD0DC00FB607FCCB
:100AB000F7CF8C9185FFF2CF808185FFEDCFCE01FE
:100AC0000E94D704E9CFDF91CF91089580E090E0B4
:100AD000892B29F00E94CD0481110E94000080E042
:100AE00090E0892B49F080E090E0892B29F00E946A
:100AF000000081110E94000080E090E0892B49F005
:100B000080E090E0892B29F00E94000081110E9472
:100B1000000080E090E0892B29F00E94C30481113D
:100B20000C94000008958150823108F05AC0E82FDB
:100B3000F0E08827E156FA4F8F4F0C945F6ABF05AB
:100B4000C305B105B705BB05F105C605CC05D00544
:100B5000D605DA05DE05E405E805F105EC05F20544
:100B6000F605809180008F778093800008958091B2
:100B700080008F7DF9CF80918000877FF5CF84B58D
:100B80008F7784BD089584B58F7DFBCF8091B000B1
:100B90008F778093B00008958091B0008F7DF9CF5A
:100BA000809190008F7780939000089580919000BD
:100BB0008F7DF9CF80919000877FF5CF8091A00045
:100BC0008F778093A00008958091A0008F7DF9CF4A
:100BD0008091A000877FF5CF809120018F7780934F
:100BE00020010895809120018F7DF9CF809120010F
:100BF000877FF5CFCF93DF93282F30E0F901E65EB2
:100C0000F94F8491F901EC52FB4FD491F901E2576D
:100C1000FB4FC491CC23A1F081110E949305EC2FCE
:100C2000F0E0EE0FFF1FEC58FB4FA591B491EC9153
:100C3000ED2381E090E009F480E0DF91CF91089509
:100C400080E090E0FACF1F93CF93DF93282F30E01E
:100C5000F901E65EF94F8491F901EC52FB4FD49112
:100C6000F901E257FB4FC491CC23A9F0162F811153
:100C70000E949305EC2FF0E0EE0FFF1FE65AFB4FAA
:100C8000A591B4918FB7F894EC91111108C0D0954B
:100C9000DE23DC938FBFDF91CF911F910895DE2B70
:100CA000F8CFCF93DF9390E0FC01EC52FB4F2491FF
:100CB00082579B4FFC0184918823D1F090E0880FEC
:100CC000991FFC01E05CFB4FA591B491FC01E65A31
:100CD000FB4FC591D49161110EC09FB7F8948C91D0
:100CE000E22FE0958E238C932881E223E8839FBF37
:100CF000DF91CF9108958FB7F894EC91E22BEC93AC
:100D00008FBFF6CF3FB7F8948091BA049091BB049F
:100D1000A091BC04B091BD0426B5A89B05C02F3F8F
:100D200019F00196A11DB11D3FBFBA2FA92F982F11
:100D30008827BC01CD01620F711D811D911D42E00C
:100D4000660F771F881F991F4A95D1F708958F92D4
:100D50009F92AF92BF92CF92DF92EF92FF926B0180
:100D60007C010E9482064B015C01C114D104E104A4
:100D7000F104B9F00E948206681979098A099B0971
:100D8000683E73408105910580F321E0C21AD108C5
:100D9000E108F10888EE880E83E0981EA11CB11CC2
:100DA000E4CFFF90EF90DF90CF90BF90AF909F90F7
:100DB0008F9008952FB7F8946091B6047091B7049E
:100DC0008091B8049091B9042FBF08950F931F9399
:100DD0000E94DA0660936609709367098093680938
:100DE000909369098EE599E00E94950497FF1DC0D4
:100DF0000E94DA060091660910916709209168093E
:100E000030916909601B710B820B930B0091620991
:100E10001091630920916409309165096017710789
:100E200082079307F8F28FEF9FEF1F910F910895BC
:100E3000FC0120812EBD9B012150310941F05181DF
:100E40000DB407FEFDCF4EB55EBD4193F5CF6150A9
:100E50007109860F971F0DB407FEFDCF2EB5FC015B
:100E600020830895E091B104F091B20480819091C3
:100E7000B004892B80830895E091B104F091B2040D
:100E800090818091B00480958923808308958EBDE0
:100E900000000DB407FEFDCF8EB50895AF92BF924E
:100EA000CF92DF92EF92FF920F931F93CF93DF9336
:100EB00000D000D01F921F92CDB7DEB78C017B010E
:100EC0006A01809159098333E1F45801A40EB51EDB
:100ED000A016B10609F46FC00E943C0780EF0E9483
:100EE0004707812F0E944707802F0E9447070F5F07
:100EF0001F4FF70181917F010E9447070E9432072F
:100F0000E7CF5B01A40EB51E8433C1F40E943C07F9
:100F100019830A838D2D80688B83CC8264E070E016
:100F2000CE0101960E941807AE14BF0409F441C017
:100F3000F70181917F010E944707F6CF0E943C078D
:100F40000F3F110509F028F419820A8384E08B838E
:100F50000CC017FD17C019820A8333E01695079558
:100F60003A95E1F7007E0C600B8386E0C816D10449
:100F7000A0F5F701DE011496EA15FB0599F08191C1
:100F80008D93FACFC80126E0969587952A95E1F7CB
:100F9000807E19830A830115104C10F48461D7CF29
:100FA0008C61D5CFB6016D5F7F4FCE0101960E9457
:100FB00018070E943207C60128960FB6F894DEBFC4
:100FC0000FBECDBFDF91CF911F910F91FF90EF909A
:100FD000DF90CF90BF90AF90089563E070E0CE01B6
:100FE00001960E941807F70181917F010E9447072F
:100FF000AE14BF04C1F7DDCFCF93DF931F92CDB7FF
:10100000DEB7898341E050E0BE016F5F7F4F90E023
:1010100080E00E944E070F90DF91CF91089590E0FD
:1010200020915909233339F40C96982F990F990F71
:10103000990F80E008954896F8CFDA01E091B40462
:10104000F0E0FE2FEE27E60FF71F90E0982F88279D
:10105000A901BD018E0F9F1F0C944E07CF93DF9304
:101060001F921F92CDB7DEB779836A8322E030E00A
:10107000AE014F5F5F4F60E170E00E941D080F906E
:101080000F90DF91CF910895CF93DF931F921F921E
:10109000CDB7DEB779836A8322E030E0AE014F5FDF
:1010A0005F4F64E070E00E941D080F900F90DF9189
:1010B000CF910895CF93DF931F92CDB7DEB72091E4
:1010C000B40430E0322F2227260F371F90E0982FEC
:1010D0008827498341E050E0BE016F5F7F4F820F58
:1010E000931F0E944E070F90DF91CF910895CF93E9
:1010F000DF931F92CDB7DEB76983DC01ED91FC91E0
:101100000280F381E02D41E050E0BE016F5F7F4F30
:1011100019950F90DF91CF910895CF93DF931F9290
:10112000CDB7DEB76983DC01ED91FC910280F381DC
:10113000E02D41E050E0BE016F5F7F4F19950F90A9
:10114000DF91CF910895FC019485FB01848598136C
:1011500003C081E0983008F080E00895CF93DF93DA
:101160001F92CDB7DEB76983DC01ED91FC9102805F
:10117000F381E02D41E050E0BE016F5F7F4F199594
:101180000F90DF91CF910895FC01768765870895D0
:10119000DC01ED91FC91068CF78DE02D199591E025
:1011A00089270895862F089581E08627089521E0F4
:1011B000FC018485883008F020E0822F089544E007
:1011C00050E0BC018FE090E00C944E0744E050E00A
:1011D000BC0185E090E00C944E0744E050E0BC0177
:1011E00081E090E00C944E070895FF920F931F93B7
:1011F000CF93DF93EB01FC01178A168A2A81211114
:1012000009C02B81211106C02C81211103C02D8121
:10121000222301F141155105E9F08A01FC01F08C0E
:1012200080E591E00E94C503AE014E5F5F4F24E070
:1012300030E06CE070E08F2D0E941D08B8018F2D0A
:101240000E942E0881E090E0DF91CF911F910F91D5
:10125000FF90089580E0F7CFDC012C911196ED917D
:10126000FC91F8948181822B81839281322F309579
:101270009323928387E090E00197F1F781818323A4
:10128000818383E290E00197F1F790817894EFEC0D
:10129000F0E03197F1F7922381E009F480E00895BE
:1012A000FC0190810180F281E02D292F209560FFC3
:1012B00014C0F8948281822382838181892B818367
:1012C000A3E2B0E01197F1F78281982B9283789492
:1012D00087ED90E00197F1F70895F89482818223D9
:1012E00082838181892B8183AFEFB0E01197F1F781
:1012F0008281982B928378948FE090E0EBCFDF92FD
:10130000EF92FF920F931F93CF93DF93EC01D62EB2
:10131000E42E08E010E0FF24F39461E08D2D8F218E
:1013200009F460E0CE010E945009FF0C0150110940
:10133000A1F7E11010C0F894E981FA8191818881C8
:10134000809589238183E981FA81928188818095C2
:10135000892382837894DF91CF911F910F91FF9021
:10136000EF90DF900895EF92FF920F931F93CF932A
:10137000DF938C017B0140E065E50E947F09E70176
:1013800088E0E80EF11C699140E0C8010E947F09E5
:10139000CE15DF05C1F7DF91CF911F910F91FF901F
:1013A000EF900895FC0190810180F281E02DF89486
:1013B0008181292F20958223818378943DE743E022
:1013C00050E0315029F1DA011197F1F7808189233A
:1013D000C1F3F8948281822382838181892B818366
:1013E0007894ABECB7E01197F1F7F8948181822300
:1013F0008183ABE3B1E01197F1F78081982381E01D
:1014000009F080E07894EBE8F6E03197F1F7089581
:1014100080E008954F925F926F927F928F929F9299
:10142000AF92BF92CF92DF92EF92FF920F931F93F2
:10143000CF93DF93EC018B015B834A838881998191
:101440000E94D2096A817B81888199810E94B309B7
:1014500040E068EB888199810E947F0940E060E06C
:10146000888199810E947F09888199810E94D2098F
:101470006A817B81888199810E94B30940E06EEB8B
:10148000888199810E947F0940E060E0888199818C
:101490000E947F094801580189E0A80EB11C78011B
:1014A0006880798088E0C82ED12C512C4424439444
:1014B000C3010E942C0981115428440CA1E0CA1ACE
:1014C000D108B1F7F70151927F01EA15FB0541F709
:1014D00089E090E0815049F0D401ED914D01E92778
:1014E000F0E0E65EFA4F9491F5CF81E0F8012085B7
:1014F000291380E0DF91CF911F910F91FF90EF9022
:10150000DF90CF90BF90AF909F908F907F906F9023
:101510005F904F900895AF92BF92CF92DF92EF927B
:10152000FF920F931F93CF93DF9300D000D000D092
:10153000CDB7DEB78C017B01C42EFC01338322833F
:10154000A901BE016F5F7F4F0E940A0AD82E88232F
:1015500009F482C08981EA94EF2809F08FC088607D
:101560008983F801808191810E94D209F80162810A
:101570007381808191810E94B30940E06EE4F8019B
:10158000808191810E947F0940E060E0F8018081C4
:1015900091810E947F09CE0101967C015E0199E054
:1015A000A90EB11CF70161917F0140E0F801808133
:1015B00091810E947F09EA14FB04A1F7F801808160
:1015C00091810E94D209F8016281738180819181A9
:1015D0000E94B30940E068E4F801808191810E9493
:1015E0007F0940E060E0F801808191810E947F09DD
:1015F000F801808191810E94D209F8016281738192
:10160000808191810E94B309CC20C9F040E064E45C
:10161000F801808191810E947F096AE070E080E09A
:1016200090E00E94A706F801808191810E94D20972
:10163000F80162817381808191810E94B30940E049
:1016400064EBF801808191810E947F0968E070E07D
:1016500080E090E00E94A7068D2D29960FB6F894A1
:10166000DEBF0FBECDBFDF91CF911F910F91FF90D5
:10167000EF90DF90CF90BF90AF900895877F70CFAD
:10168000FF920F931F93CF93DF9300D000D000D031
:10169000CDB7DEB78C01FC017383628381E0858B5B
:1016A0000E94DA06F801618B728B838B948B8481A4
:1016B00080FD03C0843009F054C0F80122813381D9
:1016C00041E0F82FF470FF2E82FF40E070E060E010
:1016D000C8010E948B0A882309F498C0F80142814E
:1016E0005381BE016F5F7F4FC8010E940A0A8823A1
:1016F00009F48CC0FF20C1F06A817B8123E07595DD
:1017000067952A95E1F7072E000C880B990B0E942C
:101710008E6620E030E040E05DE30E94C966F8019B
:101720006583768387839087F801848180FF19C061
:101730006D8170E0762F6627662773708C81682B29
:10174000072E000C880B990B0E948E6620E030E07B
:1017500048EC52E40E945A68F801618772878387D7
:101760009487F801F480F1FE4FC0F2FE5BC0F09464
:10177000FF2DF170FF2EF801228133814F2D61E0A2
:1017800070E0C8010E948B0A882309F43FC0F80169
:1017900042815381BE016F5F7F4FC8010E940A0AD8
:1017A0008823A1F1FF20C1F06A817B8183E07595D8
:1017B00067958A95E1F7072E000C880B990B0E941C
:1017C0008E6620E030E040E05DE30E94C966F801EB
:1017D00065837683878390876E817F8177FF03C0DF
:1017E000719561957109072E000C880B990B0E9469
:1017F0008E6620E030E040E859E30E94C966F801B7
:10180000658776878787908BF801158A29960FB6AA
:10181000F894DEBF0FBECDBFDF91CF911F910F9126
:10182000FF900895F12CA7CF1F93CF93DF93EC0186
:10183000162F60E0812F0E945106612F70E0FB019E
:10184000EC52FB4FE491E883FB01E257FB4FE4913C
:10185000F0E0EE0FFF1FEC58FB4F859194919A83B7
:1018600089831B861D861C861A86198618861F8208
:101870001E821D821C821B82DF91CF911F910895D1
:101880000F931F93CF93DF93D82F61E08091B80619
:101890000E94230602EC18E0C0E0809102099091BA
:1018A0000309DC01ED91FC91CD1749F0D8016D9150
:1018B0008D010190F081E02D1995CF5FEECF06806C
:1018C000F781E02D19958091B4069091B50682308C
:1018D000910538F0880F991F880F991F0597019778
:1018E000F1F760E08091B806DF91CF911F910F91E1
:1018F0000C942306E2ECF8E090E02FEF3FEF98170E
:1019000091F04191242748E0B9016170772736951D
:101910002795672B21F051E0252750EA35274150C4
:1019200099F79F5FECCF922F832F08952091BC08E9
:101930003091BD082F5F3F4F3093BD082093BC0806
:101940009091BB08911115C09091BA089093C2086C
:101950009091B90890689093C3088093C40883E07D
:101960000E947A0C9093C5088093C60885E00C9479
:10197000400C08950F931F93CF93DF932091AF04F2
:101980002F5F322F37703093AF0420FF2BC020E839
:1019900031FD2064347009F02062205FFC01EC010D
:1019A000239600E011E06485662329F070E0C80109
:1019B0000E944B6A6F5F6187322F369F030E30E0C3
:1019C000311D1124311110C01682662311F06150AF
:1019D00061873196EC17FD0731F7DF91CF911F91A9
:1019E0000F91089520E0D4CF31503683EECFCF93BE
:1019F000DF93EC010E94820679836883DF91CF91A7
:101A00000895CF93DF93EC010E94820628813981EB
:101A1000621B730B6A307105B8F3DF91CF910895A3
:101A20004F925F926F927F928F929F92AF92CF92DE
:101A3000DF92EF92FF920F931F93CF93DF93EB010F
:101A40000F962C010E94010DF894E881F98102B1F2
:101A5000006812B11F7712B9C9848E814C2D481BC2
:101A6000842F4E839F846A807B80FC84ED84DE8497
:101A7000F394E394D3949F8138858A84AB84408126
:101A8000D30120E0622F722F708144278894711156
:101A9000780F08F47FEF81958894F0FC470F479505
:101AA0008894F1FC470F47958894F2FC470F4795BF
:101AB0008894F3FC470F47958894F4FC470F4795AB
:101AC0008894F5FC470F47958894F6FC470F479597
:101AD0008894F7FC470F47958894272FF110242FFF
:101AE0008C0D422F002C02B900C000C047FF12B974
:101AF00071812227889400C0002C12B97111790FCE
:101B000000C0002C02B900C000C046FF12B908F4A2
:101B10007FEF9195889400C0002C12B9E0FC270F4C
:101B200000C0002C02B900C000C045FF12B92795C3
:101B30008894E1FC270F00C0002C12B927958894E7
:101B400000C0002C02B900C000C044FF12B9E2FC82
:101B5000270F2795889400C0002C12B9E3FC270FAB
:101B600000C0002C02B900C000C043FF12B9279585
:101B70008894E4FC270F00C0002C12B927958894A4
:101B800000C0002C02B900C000C042FF12B9E5FC41
:101B9000270F2795889400C0002C12B9E6FC270F68
:101BA00000C0002C02B900C000C041FF12B9279547
:101BB0008894E7FC270F00C0002C12B92795889461
:101BC00000C0002C02B900C000C040FF12B9472F6E
:101BD000E110422F980D00C0002C12B900C000C0C7
:101BE000002C02B900C000C047FF12B97281222741
:101BF000889400C0002C12B97111730F00C0002C22
:101C000002B900C000C046FF12B908F47FEFE90D29
:101C1000F11D00C0002C12B9D0FC270F00C0002C11
:101C200002B900C000C045FF12B927958894D1FCC5
:101C3000270F00C0002C12B92795889400C0002CF3
:101C400002B900C000C044FF12B9D2FC270F27958B
:101C5000889400C0002C12B9D3FC270F00C0002CC0
:101C600002B900C000C043FF12B927958894D4FC84
:101C7000270F00C0002C12B92795889400C0002CB3
:101C800002B900C000C042FF12B9D5FC270F27954A
:101C9000889400C0002C12B9D6FC270F00C0002C7D
:101CA00002B900C000C041FF12B927958894D7FC43
:101CB000270F00C0002C12B92795889400C0002C73
:101CC00002B900C000C040FF12B9472FD110422F07
:101CD000319500C0002C12B93A0D00C000C002B905
:101CE00000C000C047FF12B970812227889400C04D
:101CF000002C12B97111780F00C0002C02B900C07D
:101D000000C046FF12B908F47FEF8195889400C0A7
:101D1000002C12B9F0FC270F00C0002C02B900C043
:101D200000C045FF12B927958894F1FC270F00C029
:101D3000002C12B92795889400C0002C02B900C06D
:101D400000C044FF12B9F2FC270F2795889400C009
:101D5000002C12B9F3FC270F00C0002C02B900C000
:101D600000C043FF12B927958894F4FC270F00C0E8
:101D7000002C12B92795889400C0002C02B900C02D
:101D800000C042FF12B9F5FC270F2795889400C0C8
:101D9000002C12B9F6FC270F00C0002C02B900C0BD
:101DA00000C041FF12B927958894F7FC270F00C0A7
:101DB000002C12B92795889400C0002C02B900C0ED
:101DC00000C040FF12B9472FF110422F8C0D00C008
:101DD000002C12B9119709F086CE20EE31E0D30124
:101DE0000E946E6ADC01CB01F4E0B695A795979549
:101DF0008795FA95D1F730E020E0B901EAE96E9EC7
:101E0000060C611D7E9E600D711D1124670D711DF4
:101E1000860F971FA11DB11D893E43E09407A105C0
:101E2000B10508F434C0885E9340A109B10942E0CD
:101E3000B695A795979587954A95D1F747E0849FE2
:101E4000080E211D949F200D311D1124290F311DD5
:101E50006091AE0470E0860F971F820F931F409130
:101E6000B6045091B7046091B8047091B904292F59
:101E70003327420F531F611D711D4093B6045093C9
:101E8000B7046093B8047093B9048093AE04789457
:101E9000C201DF91CF911F910F91FF90EF90DF90E2
:101EA000CF90AF909F908F907F906F905F904F906A
:101EB0000C94F70C80E991E008950F9A08954F92E1
:101EC0005F926F927F928F929F92AF92CF92DF92AA
:101ED000EF92FF920F931F93CF93DF93EB010F9637
:101EE0002C010E94010DF894E881F98102B1006291
:101EF00012B11F7D12B9C9848E814C2D481B842FCD
:101F00004E839F846A807B80FC84ED84DE84F3941E
:101F1000E394D3949F8138858A84AB844081D30134
:101F200020E0622F722F7081442788947111780FFE
:101F300008F47FEF81958894F0FC470F47958894CB
:101F4000F1FC470F47958894F2FC470F479588941A
:101F5000F3FC470F47958894F4FC470F4795889406
:101F6000F5FC470F47958894F6FC470F47958894F2
:101F7000F7FC470F47958894272FF110242F8C0DDD
:101F8000422F002C02B900C000C047FF12B9718176
:101F90002227889400C0002C12B97111790F00C05B
:101FA000002C02B900C000C046FF12B908F47FEF50
:101FB0009195889400C0002C12B9E0FC270F00C056
:101FC000002C02B900C000C045FF12B927958894C3
:101FD000E1FC270F00C0002C12B92795889400C09F
:101FE000002C02B900C000C044FF12B9E2FC270F68
:101FF0002795889400C0002C12B9E3FC270F00C07D
:10200000002C02B900C000C043FF12B92795889484
:10201000E4FC270F00C0002C12B92795889400C05B
:10202000002C02B900C000C042FF12B9E5FC270F26
:102030002795889400C0002C12B9E6FC270F00C039
:10204000002C02B900C000C041FF12B92795889446
:10205000E7FC270F00C0002C12B92795889400C018
:10206000002C02B900C000C040FF12B9472FE11098
:10207000422F980D00C0002C12B900C000C0002CE7
:1020800002B900C000C047FF12B9728122278894AC
:1020900000C0002C12B97111730F00C0002C02B9DE
:1020A00000C000C046FF12B908F47FEFE90DF11D32
:1020B00000C0002C12B9D0FC270F00C0002C02B9C0
:1020C00000C000C045FF12B927958894D1FC270FA6
:1020D00000C0002C12B92795889400C0002C02B9CA
:1020E00000C000C044FF12B9D2FC270F2795889486
:1020F00000C0002C12B9D3FC270F00C0002C02B97D
:1021000000C000C043FF12B927958894D4FC270F64
:1021100000C0002C12B92795889400C0002C02B989
:1021200000C000C042FF12B9D5FC270F2795889444
:1021300000C0002C12B9D6FC270F00C0002C02B939
:1021400000C000C041FF12B927958894D7FC270F23
:1021500000C0002C12B92795889400C0002C02B949
:1021600000C000C040FF12B9472FD110422F319557
:1021700000C0002C12B93A0D00C000C002B900C066
:1021800000C047FF12B970812227889400C0002C3C
:1021900012B97111780F00C0002C02B900C000C044
:1021A00046FF12B908F47FEF8195889400C0002C97
:1021B00012B9F0FC270F00C0002C02B900C000C00B
:1021C00045FF12B927958894F1FC270F00C0002C19
:1021D00012B92795889400C0002C02B900C000C035
:1021E00044FF12B9F2FC270F2795889400C0002CF9
:1021F00012B9F3FC270F00C0002C02B900C000C0C8
:1022000043FF12B927958894F4FC270F00C0002CD7
:1022100012B92795889400C0002C02B900C000C0F4
:1022200042FF12B9F5FC270F2795889400C0002CB7
:1022300012B9F6FC270F00C0002C02B900C000C084
:1022400041FF12B927958894F7FC270F00C0002C96
:1022500012B92795889400C0002C02B900C000C0B4
:1022600040FF12B9472FF110422F8C0D00C0002CF7
:1022700012B9119709F086CE20EE31E0D3010E9409
:102280006E6ADC01CB01F4E0B695A795979587952A
:10229000FA95D1F730E020E0B901EAE96E9E060C2C
:1022A000611D7E9E600D711D1124670D711D860FCD
:1022B000971FA11DB11D893E43E09407A105B105FB
:1022C00008F434C0885E9340A109B10942E0B69594
:1022D000A795979587954A95D1F747E0849F080E73
:1022E000211D949F200D311D1124290F311D609156
:1022F000AE0470E0860F971F820F931F4091B604C3
:102300005091B7046091B8047091B904292F332714
:10231000420F531F611D711D4093B6045093B704C3
:102320006093B8047093B9048093AE047894C201AA
:10233000DF91CF911F910F91FF90EF90DF90CF90A1
:10234000AF909F908F907F906F905F904F900C9484
:10235000F70C0D9A08954F925F926F927F928F9231
:102360009F92AF92CF92DF92EF92FF920F931F93C3
:10237000CF93DF93EB010F962C010E94010DF8948F
:10238000E881F98102B1086012B1177F12B9C984DE
:102390008E814C2D481B842F4E839F846A807B80C6
:1023A000FC84ED84DE84F394E394D3949F81388598
:1023B0008A84AB844081D30120E0622F722F708128
:1023C000442788947111780F08F47FEF81958894E1
:1023D000F0FC470F47958894F1FC470F4795889488
:1023E000F2FC470F47958894F3FC470F4795889474
:1023F000F4FC470F47958894F5FC470F4795889460
:10240000F6FC470F47958894F7FC470F479588944B
:10241000272FF110242F8C0D422F002C02B900C061
:1024200000C047FF12B971812227889400C0002C98
:1024300012B97111790F00C0002C02B900C000C0A0
:1024400046FF12B908F47FEF9195889400C0002CE4
:1024500012B9E0FC270F00C0002C02B900C000C078
:1024600045FF12B927958894E1FC270F00C0002C86
:1024700012B92795889400C0002C02B900C000C092
:1024800044FF12B9E2FC270F2795889400C0002C66
:1024900012B9E3FC270F00C0002C02B900C000C035
:1024A00043FF12B927958894E4FC270F00C0002C45
:1024B00012B92795889400C0002C02B900C000C052
:1024C00042FF12B9E5FC270F2795889400C0002C25
:1024D00012B9E6FC270F00C0002C02B900C000C0F2
:1024E00041FF12B927958894E7FC270F00C0002C04
:1024F00012B92795889400C0002C02B900C000C012
:1025000040FF12B9472FE110422F980D00C0002C58
:1025100012B900C000C0002C02B900C000C047FFC3
:1025200012B972812227889400C0002C12B971114F
:10253000730F00C0002C02B900C000C046FF12B9E2
:1025400008F47FEFE90DF11D00C0002C12B9D0FC9A
:10255000270F00C0002C02B900C000C045FF12B90F
:1025600027958894D1FC270F00C0002C12B927951D
:10257000889400C0002C02B900C000C044FF12B90A
:10258000D2FC270F2795889400C0002C12B9D3FCE9
:10259000270F00C0002C02B900C000C043FF12B9D1
:1025A00027958894D4FC270F00C0002C12B92795DA
:1025B000889400C0002C02B900C000C042FF12B9CC
:1025C000D5FC270F2795889400C0002C12B9D6FCA3
:1025D000270F00C0002C02B900C000C041FF12B993
:1025E00027958894D7FC270F00C0002C12B9279597
:1025F000889400C0002C02B900C000C040FF12B98E
:10260000472FD110422F319500C0002C12B93A0D3E
:1026100000C000C002B900C000C047FF12B97081FD
:102620002227889400C0002C12B97111780F00C0C5
:10263000002C02B900C000C046FF12B908F47FEFB9
:102640008195889400C0002C12B9F0FC270F00C0BF
:10265000002C02B900C000C045FF12B9279588942C
:10266000F1FC270F00C0002C12B92795889400C0F8
:10267000002C02B900C000C044FF12B9F2FC270FC1
:102680002795889400C0002C12B9F3FC270F00C0D6
:10269000002C02B900C000C043FF12B927958894EE
:1026A000F4FC270F00C0002C12B92795889400C0B5
:1026B000002C02B900C000C042FF12B9F5FC270F80
:1026C0002795889400C0002C12B9F6FC270F00C093
:1026D000002C02B900C000C041FF12B927958894B0
:1026E000F7FC270F00C0002C12B92795889400C072
:1026F000002C02B900C000C040FF12B9472FF110F2
:10270000422F8C0D00C0002C12B9119709F086CE13
:1027100020EE31E0D3010E946E6ADC01CB01F4E0CF
:10272000B695A79597958795FA95D1F730E020E073
:10273000B901EAE96E9E060C611D7E9E600D711D59
:102740001124670D711D860F971FA11DB11D893EB4
:1027500043E09407A105B10508F434C0885E9340B6
:10276000A109B10942E0B695A795979587954A9535
:10277000D1F747E0849F080E211D949F200D311D45
:102780001124290F311D6091AE0470E0860F971F50
:10279000820F931F4091B6045091B7046091B80422
:1027A0007091B904292F3327420F531F611D711DEA
:1027B0004093B6045093B7046093B8047093B9047F
:1027C0008093AE047894C201DF91CF911F910F9155
:1027D000FF90EF90DF90CF90AF909F908F907F9081
:1027E0006F905F904F900C94F70C0B9A08954F9256
:1027F0005F926F927F928F929F92AF92CF92DF9271
:10280000EF92FF920F931F93CF93DF93EB010F96FD
:102810002C010E94010DF894E881F98102B1026057
:1028200012B11D7F12B9C9848E814C2D481B842F93
:102830004E839F846A807B80FC84ED84DE84F394E5
:10284000E394D3949F8138858A84AB844081D301FB
:1028500020E0622F722F7081442788947111780FC5
:1028600008F47FEF81958894F0FC470F4795889492
:10287000F1FC470F47958894F2FC470F47958894E1
:10288000F3FC470F47958894F4FC470F47958894CD
:10289000F5FC470F47958894F6FC470F47958894B9
:1028A000F7FC470F47958894272FF110242F8C0DA4
:1028B000422F002C02B900C000C047FF12B971813D
:1028C0002227889400C0002C12B97111790F00C022
:1028D000002C02B900C000C046FF12B908F47FEF17
:1028E0009195889400C0002C12B9E0FC270F00C01D
:1028F000002C02B900C000C045FF12B9279588948A
:10290000E1FC270F00C0002C12B92795889400C065
:10291000002C02B900C000C044FF12B9E2FC270F2E
:102920002795889400C0002C12B9E3FC270F00C043
:10293000002C02B900C000C043FF12B9279588944B
:10294000E4FC270F00C0002C12B92795889400C022
:10295000002C02B900C000C042FF12B9E5FC270FED
:102960002795889400C0002C12B9E6FC270F00C000
:10297000002C02B900C000C041FF12B9279588940D
:10298000E7FC270F00C0002C12B92795889400C0DF
:10299000002C02B900C000C040FF12B9472FE1105F
:1029A000422F980D00C0002C12B900C000C0002CAE
:1029B00002B900C000C047FF12B972812227889473
:1029C00000C0002C12B97111730F00C0002C02B9A5
:1029D00000C000C046FF12B908F47FEFE90DF11DF9
:1029E00000C0002C12B9D0FC270F00C0002C02B987
:1029F00000C000C045FF12B927958894D1FC270F6D
:102A000000C0002C12B92795889400C0002C02B990
:102A100000C000C044FF12B9D2FC270F279588944C
:102A200000C0002C12B9D3FC270F00C0002C02B943
:102A300000C000C043FF12B927958894D4FC270F2B
:102A400000C0002C12B92795889400C0002C02B950
:102A500000C000C042FF12B9D5FC270F279588940B
:102A600000C0002C12B9D6FC270F00C0002C02B900
:102A700000C000C041FF12B927958894D7FC270FEA
:102A800000C0002C12B92795889400C0002C02B910
:102A900000C000C040FF12B9472FD110422F31951E
:102AA00000C0002C12B93A0D00C000C002B900C02D
:102AB00000C047FF12B970812227889400C0002C03
:102AC00012B97111780F00C0002C02B900C000C00B
:102AD00046FF12B908F47FEF8195889400C0002C5E
:102AE00012B9F0FC270F00C0002C02B900C000C0D2
:102AF00045FF12B927958894F1FC270F00C0002CE0
:102B000012B92795889400C0002C02B900C000C0FB
:102B100044FF12B9F2FC270F2795889400C0002CBF
:102B200012B9F3FC270F00C0002C02B900C000C08E
:102B300043FF12B927958894F4FC270F00C0002C9E
:102B400012B92795889400C0002C02B900C000C0BB
:102B500042FF12B9F5FC270F2795889400C0002C7E
:102B600012B9F6FC270F00C0002C02B900C000C04B
:102B700041FF12B927958894F7FC270F00C0002C5D
:102B800012B92795889400C0002C02B900C000C07B
:102B900040FF12B9472FF110422F8C0D00C0002CBE
:102BA00012B9119709F086CE20EE31E0D3010E94D0
:102BB0006E6ADC01CB01F4E0B695A79597958795F1
:102BC000FA95D1F730E020E0B901EAE96E9E060CF3
:102BD000611D7E9E600D711D1124670D711D860F94
:102BE000971FA11DB11D893E43E09407A105B105C2
:102BF00008F434C0885E9340A109B10942E0B6955B
:102C0000A795979587954A95D1F747E0849F080E39
:102C1000211D949F200D311D1124290F311D60911C
:102C2000AE0470E0860F971F820F931F4091B60489
:102C30005091B7046091B8047091B904292F3327DB
:102C4000420F531F611D711D4093B6045093B7048A
:102C50006093B8047093B9048093AE047894C20171
:102C6000DF91CF911F910F91FF90EF90DF90CF9068
:102C7000AF909F908F907F906F905F904F900C944B
:102C8000F70C099A08954F925F926F927F928F92FC
:102C90009F92AF92CF92DF92EF92FF920F931F938A
:102CA000CF93DF93EB010F962C010E94010DF89456
:102CB000E881F9810BB101601BB11E7F1BB9C9848A
:102CC0008E814C2D481B842F4E839F846A807B808D
:102CD000FC84ED84DE84F394E394D3949F8138855F
:102CE0008A84AB844081D30120E0622F722F7081EF
:102CF000442788947111780F08F47FEF81958894A8
:102D0000F0FC470F47958894F1FC470F479588944E
:102D1000F2FC470F47958894F3FC470F479588943A
:102D2000F4FC470F47958894F5FC470F4795889426
:102D3000F6FC470F47958894F7FC470F4795889412
:102D4000272FF110242F8C0D422F002C0BB900C01F
:102D500000C047FF1BB971812227889400C0002C56
:102D60001BB97111790F00C0002C0BB900C000C055
:102D700046FF1BB908F47FEF9195889400C0002CA2
:102D80001BB9E0FC270F00C0002C0BB900C000C02D
:102D900045FF1BB927958894E1FC270F00C0002C44
:102DA0001BB92795889400C0002C0BB900C000C047
:102DB00044FF1BB9E2FC270F2795889400C0002C24
:102DC0001BB9E3FC270F00C0002C0BB900C000C0EA
:102DD00043FF1BB927958894E4FC270F00C0002C03
:102DE0001BB92795889400C0002C0BB900C000C007
:102DF00042FF1BB9E5FC270F2795889400C0002CE3
:102E00001BB9E6FC270F00C0002C0BB900C000C0A6
:102E100041FF1BB927958894E7FC270F00C0002CC1
:102E20001BB92795889400C0002C0BB900C000C0C6
:102E300040FF1BB9472FE110422F980D00C0002C16
:102E40001BB900C000C0002C0BB900C000C047FF78
:102E50001BB972812227889400C0002C1BB9711104
:102E6000730F00C0002C0BB900C000C046FF1BB997
:102E700008F47FEFE90DF11D00C0002C1BB9D0FC58
:102E8000270F00C0002C0BB900C000C045FF1BB9C4
:102E900027958894D1FC270F00C0002C1BB92795DB
:102EA000889400C0002C0BB900C000C044FF1BB9BF
:102EB000D2FC270F2795889400C0002C1BB9D3FCA7
:102EC000270F00C0002C0BB900C000C043FF1BB986
:102ED00027958894D4FC270F00C0002C1BB9279598
:102EE000889400C0002C0BB900C000C042FF1BB981
:102EF000D5FC270F2795889400C0002C1BB9D6FC61
:102F0000270F00C0002C0BB900C000C041FF1BB947
:102F100027958894D7FC270F00C0002C1BB9279554
:102F2000889400C0002C0BB900C000C040FF1BB942
:102F3000472FD110422F319500C0002C1BB93A0DFC
:102F400000C000C00BB900C000C047FF1BB97081B2
:102F50002227889400C0002C1BB97111780F00C083
:102F6000002C0BB900C000C046FF1BB908F47FEF6E
:102F70008195889400C0002C1BB9F0FC270F00C07D
:102F8000002C0BB900C000C045FF1BB927958894E1
:102F9000F1FC270F00C0002C1BB92795889400C0B6
:102FA000002C0BB900C000C044FF1BB9F2FC270F76
:102FB0002795889400C0002C1BB9F3FC270F00C094
:102FC000002C0BB900C000C043FF1BB927958894A3
:102FD000F4FC270F00C0002C1BB92795889400C073
:102FE000002C0BB900C000C042FF1BB9F5FC270F35
:102FF0002795889400C0002C1BB9F6FC270F00C051
:10300000002C0BB900C000C041FF1BB92795889464
:10301000F7FC270F00C0002C1BB92795889400C02F
:10302000002C0BB900C000C040FF1BB9472FF110A6
:10303000422F8C0D00C0002C1BB9119709F086CED1
:1030400020EE31E0D3010E946E6ADC01CB01F4E096
:10305000B695A79597958795FA95D1F730E020E03A
:10306000B901EAE96E9E060C611D7E9E600D711D20
:103070001124670D711D860F971FA11DB11D893E7B
:1030800043E09407A105B10508F434C0885E93407D
:10309000A109B10942E0B695A795979587954A95FC
:1030A000D1F747E0849F080E211D949F200D311D0C
:1030B0001124290F311D6091AE0470E0860F971F17
:1030C000820F931F4091B6045091B7046091B804E9
:1030D0007091B904292F3327420F531F611D711DB1
:1030E0004093B6045093B7046093B8047093B90446
:1030F0008093AE047894C201DF91CF911F910F911C
:10310000FF90EF90DF90CF90AF909F908F907F9047
:103110006F905F904F900C94F70C509A08954F92D7
:103120005F926F927F928F929F92AF92CF92DF9237
:10313000EF92FF920F931F93CF93DF93EB010F96C4
:103140002C010E94010DF894E881F9810BB1026015
:103150001BB11D7F1BB9C9848E814C2D481B842F48
:103160004E839F846A807B80FC84ED84DE84F394AC
:10317000E394D3949F8138858A84AB844081D301C2
:1031800020E0622F722F7081442788947111780F8C
:1031900008F47FEF81958894F0FC470F4795889459
:1031A000F1FC470F47958894F2FC470F47958894A8
:1031B000F3FC470F47958894F4FC470F4795889494
:1031C000F5FC470F47958894F6FC470F4795889480
:1031D000F7FC470F47958894272FF110242F8C0D6B
:1031E000422F002C0BB900C000C047FF1BB97181F2
:1031F0002227889400C0002C1BB97111790F00C0E0
:10320000002C0BB900C000C046FF1BB908F47FEFCB
:103210009195889400C0002C1BB9E0FC270F00C0DA
:10322000002C0BB900C000C045FF1BB9279588943E
:10323000E1FC270F00C0002C1BB92795889400C023
:10324000002C0BB900C000C044FF1BB9E2FC270FE3
:103250002795889400C0002C1BB9E3FC270F00C001
:10326000002C0BB900C000C043FF1BB92795889400
:10327000E4FC270F00C0002C1BB92795889400C0E0
:10328000002C0BB900C000C042FF1BB9E5FC270FA2
:103290002795889400C0002C1BB9E6FC270F00C0BE
:1032A000002C0BB900C000C041FF1BB927958894C2
:1032B000E7FC270F00C0002C1BB92795889400C09D
:1032C000002C0BB900C000C040FF1BB9472FE11014
:1032D000422F980D00C0002C1BB900C000C0002C6C
:1032E0000BB900C000C047FF1BB972812227889428
:1032F00000C0002C1BB97111730F00C0002C0BB95A
:1033000000C000C046FF1BB908F47FEFE90DF11DB6
:1033100000C0002C1BB9D0FC270F00C0002C0BB93B
:1033200000C000C045FF1BB927958894D1FC270F2A
:1033300000C0002C1BB92795889400C0002C0BB945
:1033400000C000C044FF1BB9D2FC270F279588940A
:1033500000C0002C1BB9D3FC270F00C0002C0BB9F8
:1033600000C000C043FF1BB927958894D4FC270FE9
:1033700000C0002C1BB92795889400C0002C0BB905
:1033800000C000C042FF1BB9D5FC270F27958894C9
:1033900000C0002C1BB9D6FC270F00C0002C0BB9B5
:1033A00000C000C041FF1BB927958894D7FC270FA8
:1033B00000C0002C1BB92795889400C0002C0BB9C5
:1033C00000C000C040FF1BB9472FD110422F3195DC
:1033D00000C0002C1BB93A0D00C000C00BB900C0E2
:1033E00000C047FF1BB970812227889400C0002CC1
:1033F0001BB97111780F00C0002C0BB900C000C0C0
:1034000046FF1BB908F47FEF8195889400C0002C1B
:103410001BB9F0FC270F00C0002C0BB900C000C086
:1034200045FF1BB927958894F1FC270F00C0002C9D
:103430001BB92795889400C0002C0BB900C000C0B0
:1034400044FF1BB9F2FC270F2795889400C0002C7D
:103450001BB9F3FC270F00C0002C0BB900C000C043
:1034600043FF1BB927958894F4FC270F00C0002C5C
:103470001BB92795889400C0002C0BB900C000C070
:1034800042FF1BB9F5FC270F2795889400C0002C3C
:103490001BB9F6FC270F00C0002C0BB900C000C000
:1034A00041FF1BB927958894F7FC270F00C0002C1B
:1034B0001BB92795889400C0002C0BB900C000C030
:1034C00040FF1BB9472FF110422F8C0D00C0002C7C
:1034D0001BB9119709F086CE20EE31E0D3010E948E
:1034E0006E6ADC01CB01F4E0B695A79597958795B8
:1034F000FA95D1F730E020E0B901EAE96E9E060CBA
:10350000611D7E9E600D711D1124670D711D860F5A
:10351000971FA11DB11D893E43E09407A105B10588
:1035200008F434C0885E9340A109B10942E0B69521
:10353000A795979587954A95D1F747E0849F080E00
:10354000211D949F200D311D1124290F311D6091E3
:10355000AE0470E0860F971F820F931F4091B60450
:103560005091B7046091B8047091B904292F3327A2
:10357000420F531F611D711D4093B6045093B70451
:103580006093B8047093B9048093AE047894C20138
:10359000DF91CF911F910F91FF90EF90DF90CF902F
:1035A000AF909F908F907F906F905F904F900C9412
:1035B000F70C519A08954F925F926F927F928F927B
:1035C0009F92AF92CF92DF92EF92FF920F931F9351
:1035D000CF93DF93EB010F962C010E94010DF8941D
:1035E000E881F9810BB104601BB11B7F1BB9C98451
:1035F0008E814C2D481B842F4E839F846A807B8054
:10360000FC84ED84DE84F394E394D3949F81388525
:103610008A84AB844081D30120E0622F722F7081B5
:10362000442788947111780F08F47FEF819588946E
:10363000F0FC470F47958894F1FC470F4795889415
:10364000F2FC470F47958894F3FC470F4795889401
:10365000F4FC470F47958894F5FC470F47958894ED
:10366000F6FC470F47958894F7FC470F47958894D9
:10367000272FF110242F8C0D422F002C0BB900C0E6
:1036800000C047FF1BB971812227889400C0002C1D
:103690001BB97111790F00C0002C0BB900C000C01C
:1036A00046FF1BB908F47FEF9195889400C0002C69
:1036B0001BB9E0FC270F00C0002C0BB900C000C0F4
:1036C00045FF1BB927958894E1FC270F00C0002C0B
:1036D0001BB92795889400C0002C0BB900C000C00E
:1036E00044FF1BB9E2FC270F2795889400C0002CEB
:1036F0001BB9E3FC270F00C0002C0BB900C000C0B1
:1037000043FF1BB927958894E4FC270F00C0002CC9
:103710001BB92795889400C0002C0BB900C000C0CD
:1037200042FF1BB9E5FC270F2795889400C0002CA9
:103730001BB9E6FC270F00C0002C0BB900C000C06D
:1037400041FF1BB927958894E7FC270F00C0002C88
:103750001BB92795889400C0002C0BB900C000C08D
:1037600040FF1BB9472FE110422F980D00C0002CDD
:103770001BB900C000C0002C0BB900C000C047FF3F
:103780001BB972812227889400C0002C1BB97111CB
:10379000730F00C0002C0BB900C000C046FF1BB95E
:1037A00008F47FEFE90DF11D00C0002C1BB9D0FC1F
:1037B000270F00C0002C0BB900C000C045FF1BB98B
:1037C00027958894D1FC270F00C0002C1BB92795A2
:1037D000889400C0002C0BB900C000C044FF1BB986
:1037E000D2FC270F2795889400C0002C1BB9D3FC6E
:1037F000270F00C0002C0BB900C000C043FF1BB94D
:1038000027958894D4FC270F00C0002C1BB927955E
:10381000889400C0002C0BB900C000C042FF1BB947
:10382000D5FC270F2795889400C0002C1BB9D6FC27
:10383000270F00C0002C0BB900C000C041FF1BB90E
:1038400027958894D7FC270F00C0002C1BB927951B
:10385000889400C0002C0BB900C000C040FF1BB909
:10386000472FD110422F319500C0002C1BB93A0DC3
:1038700000C000C00BB900C000C047FF1BB9708179
:103880002227889400C0002C1BB97111780F00C04A
:10389000002C0BB900C000C046FF1BB908F47FEF35
:1038A0008195889400C0002C1BB9F0FC270F00C044
:1038B000002C0BB900C000C045FF1BB927958894A8
:1038C000F1FC270F00C0002C1BB92795889400C07D
:1038D000002C0BB900C000C044FF1BB9F2FC270F3D
:1038E0002795889400C0002C1BB9F3FC270F00C05B
:1038F000002C0BB900C000C043FF1BB9279588946A
:10390000F4FC270F00C0002C1BB92795889400C039
:10391000002C0BB900C000C042FF1BB9F5FC270FFB
:103920002795889400C0002C1BB9F6FC270F00C017
:10393000002C0BB900C000C041FF1BB9279588942B
:10394000F7FC270F00C0002C1BB92795889400C0F6
:10395000002C0BB900C000C040FF1BB9472FF1106D
:10396000422F8C0D00C0002C1BB9119709F086CE98
:1039700020EE31E0D3010E946E6ADC01CB01F4E05D
:10398000B695A79597958795FA95D1F730E020E001
:10399000B901EAE96E9E060C611D7E9E600D711DE7
:1039A0001124670D711D860F971FA11DB11D893E42
:1039B00043E09407A105B10508F434C0885E934044
:1039C000A109B10942E0B695A795979587954A95C3
:1039D000D1F747E0849F080E211D949F200D311DD3
:1039E0001124290F311D6091AE0470E0860F971FDE
:1039F000820F931F4091B6045091B7046091B804B0
:103A00007091B904292F3327420F531F611D711D77
:103A10004093B6045093B7046093B8047093B9040C
:103A20008093AE047894C201DF91CF911F910F91E2
:103A3000FF90EF90DF90CF90AF909F908F907F900E
:103A40006F905F904F900C94F70C529A08954F929C
:103A50005F926F927F928F929F92AF92CF92DF92FE
:103A6000EF92FF920F931F93CF93DF93EB010F968B
:103A70002C010E94010DF894E881F9810BB10860D6
:103A80001BB1177F1BB9C9848E814C2D481B842F15
:103A90004E839F846A807B80FC84ED84DE84F39473
:103AA000E394D3949F8138858A84AB844081D30189
:103AB00020E0622F722F7081442788947111780F53
:103AC00008F47FEF81958894F0FC470F4795889420
:103AD000F1FC470F47958894F2FC470F479588946F
:103AE000F3FC470F47958894F4FC470F479588945B
:103AF000F5FC470F47958894F6FC470F4795889447
:103B0000F7FC470F47958894272FF110242F8C0D31
:103B1000422F002C0BB900C000C047FF1BB97181B8
:103B20002227889400C0002C1BB97111790F00C0A6
:103B3000002C0BB900C000C046FF1BB908F47FEF92
:103B40009195889400C0002C1BB9E0FC270F00C0A1
:103B5000002C0BB900C000C045FF1BB92795889405
:103B6000E1FC270F00C0002C1BB92795889400C0EA
:103B7000002C0BB900C000C044FF1BB9E2FC270FAA
:103B80002795889400C0002C1BB9E3FC270F00C0C8
:103B9000002C0BB900C000C043FF1BB927958894C7
:103BA000E4FC270F00C0002C1BB92795889400C0A7
:103BB000002C0BB900C000C042FF1BB9E5FC270F69
:103BC0002795889400C0002C1BB9E6FC270F00C085
:103BD000002C0BB900C000C041FF1BB92795889489
:103BE000E7FC270F00C0002C1BB92795889400C064
:103BF000002C0BB900C000C040FF1BB9472FE110DB
:103C0000422F980D00C0002C1BB900C000C0002C32
:103C10000BB900C000C047FF1BB9728122278894EE
:103C200000C0002C1BB97111730F00C0002C0BB920
:103C300000C000C046FF1BB908F47FEFE90DF11D7D
:103C400000C0002C1BB9D0FC270F00C0002C0BB902
:103C500000C000C045FF1BB927958894D1FC270FF1
:103C600000C0002C1BB92795889400C0002C0BB90C
:103C700000C000C044FF1BB9D2FC270F27958894D1
:103C800000C0002C1BB9D3FC270F00C0002C0BB9BF
:103C900000C000C043FF1BB927958894D4FC270FB0
:103CA00000C0002C1BB92795889400C0002C0BB9CC
:103CB00000C000C042FF1BB9D5FC270F2795889490
:103CC00000C0002C1BB9D6FC270F00C0002C0BB97C
:103CD00000C000C041FF1BB927958894D7FC270F6F
:103CE00000C0002C1BB92795889400C0002C0BB98C
:103CF00000C000C040FF1BB9472FD110422F3195A3
:103D000000C0002C1BB93A0D00C000C00BB900C0A8
:103D100000C047FF1BB970812227889400C0002C87
:103D20001BB97111780F00C0002C0BB900C000C086
:103D300046FF1BB908F47FEF8195889400C0002CE2
:103D40001BB9F0FC270F00C0002C0BB900C000C04D
:103D500045FF1BB927958894F1FC270F00C0002C64
:103D60001BB92795889400C0002C0BB900C000C077
:103D700044FF1BB9F2FC270F2795889400C0002C44
:103D80001BB9F3FC270F00C0002C0BB900C000C00A
:103D900043FF1BB927958894F4FC270F00C0002C23
:103DA0001BB92795889400C0002C0BB900C000C037
:103DB00042FF1BB9F5FC270F2795889400C0002C03
:103DC0001BB9F6FC270F00C0002C0BB900C000C0C7
:103DD00041FF1BB927958894F7FC270F00C0002CE2
:103DE0001BB92795889400C0002C0BB900C000C0F7
:103DF00040FF1BB9472FF110422F8C0D00C0002C43
:103E00001BB9119709F086CE20EE31E0D3010E9454
:103E10006E6ADC01CB01F4E0B695A795979587957E
:103E2000FA95D1F730E020E0B901EAE96E9E060C80
:103E3000611D7E9E600D711D1124670D711D860F21
:103E4000971FA11DB11D893E43E09407A105B1054F
:103E500008F434C0885E9340A109B10942E0B695E8
:103E6000A795979587954A95D1F747E0849F080EC7
:103E7000211D949F200D311D1124290F311D6091AA
:103E8000AE0470E0860F971F820F931F4091B60417
:103E90005091B7046091B8047091B904292F332769
:103EA000420F531F611D711D4093B6045093B70418
:103EB0006093B8047093B9048093AE047894C201FF
:103EC000DF91CF911F910F91FF90EF90DF90CF90F6
:103ED000AF909F908F907F906F905F904F900C94D9
:103EE000F70C539A08956F927F928F929F92AF92A0
:103EF000BF92CF92DF92EF92FF920F931F93CF93D7
:103F0000DF93EB010F963C010E94010DF894E881CC
:103F1000F98150910B01546040910B014B7F40930C
:103F20000B01E9848E812E2D281B822F2E83DF84A6
:103F3000AA81BB816C857D85FE846F5F7F5FF39472
:103F40009F813885BA84AB84108120E0C32E022F74
:103F5000322F3081112788943111380F08F43FEF48
:103F60008195889460FD130F1795889461FD130F58
:103F70001795889462FD130F1795889463FD130FAE
:103F80001795889464FD130F1795889465FD130F9A
:103F90001795889466FD130F1795889467FD130F86
:103FA00017958894232F6111212F8E0D122F002C2D
:103FB00050930B0100C0002C17FF40930B0131817F
:103FC0002227889400C040930B013111390F00C0A3
:103FD00050930B0100C0002C16FF40930B0108F416
:103FE0003FEF9195889400C040930B0170FD230F23
:103FF00000C050930B0100C0002C15FF40930B0133
:104000002795889471FD230F00C040930B012795DD
:10401000889400C050930B0100C0002C14FF409303
:104020000B0172FD230F2795889400C040930B016C
:1040300073FD230F00C050930B0100C0002C13FF31
:1040400040930B012795889474FD230F00C0409383
:104050000B012795889400C050930B0100C0002CE1
:1040600012FF40930B0175FD230F2795889400C024
:1040700040930B0176FD230F00C050930B0100C04D
:10408000002C11FF40930B012795889477FD230F97
:1040900000C040930B012795889400C050930B01FA
:1040A00000C0002C10FF40930B01132F7111122F31
:1040B0009B0D00C040930B0100C000C050930B014A
:1040C00000C0002C17FF40930B01328122278894F7
:1040D00000C040930B0131113C0D00C050930B0107
:1040E00000C0002C16FF40930B0108F43FEFED0DCC
:1040F000F11D00C040930B01F0FC230F00C0509352
:104100000B0100C0002C15FF40930B0127958894EC
:10411000F1FC230F00C040930B012795889400C049
:1041200050930B0100C0002C14FF40930B01F2FCD4
:10413000230F2795889400C040930B01F3FC230FB5
:1041400000C050930B0100C0002C13FF40930B01E3
:1041500027958894F4FC230F00C040930B0127950A
:10416000889400C050930B0100C0002C12FF4093B4
:104170000B01F5FC230F2795889400C040930B0199
:10418000F6FC230F00C050930B0100C0002C11FF60
:1041900040930B0127958894F7FC230F00C04093B0
:1041A0000B012795889400C050930B0100C0002C90
:1041B00010FF40930B01132FF110122FC19400C078
:1041C00040930B01CA0C00C0002C50930B0100C09F
:1041D000002C17FF40930B0130812227889400C0E8
:1041E00040930B013111380F00C050930B0100C0F8
:1041F000002C16FF40930B0108F43FEF8195889443
:1042000000C040930B0160FD230F00C050930B01D1
:1042100000C0002C15FF40930B012795889461FD89
:10422000230F00C040930B012795889400C0509342
:104230000B0100C0002C14FF40930B0162FD230F03
:104240002795889400C040930B0163FD230F00C0A5
:1042500050930B0100C0002C13FF40930B012795D6
:10426000889464FD230F00C040930B012795889428
:1042700000C050930B0100C0002C12FF40930B01B3
:1042800065FD230F2795889400C040930B0166FDC0
:10429000230F00C050930B0100C0002C11FF40936E
:1042A0000B012795889467FD230F00C040930B01F5
:1042B0002795889400C050930B0100C0002C10FF7C
:1042C00040930B01132F6111122F8E0D00C04093EC
:1042D0000B01119709F06CCE4A815B8120EE31E031
:1042E000DA010E946E6ADC01CB0164E0B695A79505
:1042F000979587956A95D1F730E020E0B901EAE912
:104300004E9F040E611D5E9F600D711D1124650F8F
:10431000711D860F971FA11DB11D893E43E09407B3
:10432000A105B10508F434C0885E9340A109B10924
:1043300042E0B695A795979587954A95D1F747E0BE
:10434000849F080E211D949F200D311D1124290FDB
:10435000311D6091AE0470E0860F971F280F391F42
:104360008091B6049091B704A091B804B091B904BB
:10437000432F5527840F951FA11DB11D8093B604AF
:104380009093B704A093B804B093B9042093AE04FB
:104390007894C301DF91CF911F910F91FF90EF901F
:1043A000DF90CF90BF90AF909F908F907F906F9055
:1043B0000C94F70CEAE0F1E080818460808308953A
:1043C0006F927F928F929F92AF92BF92CF92DF9225
:1043D000EF92FF920F931F93CF93DF93EB010F9612
:1043E0003C010E94010DF894E881F98150910B0184
:1043F000526040910B014D7F40930B01E9848E8107
:104400002E2D281B822F2E83DF84AA81BB816C85F1
:104410007D85FE846F5F7F5FF3949F813885BA84CA
:10442000AB84108120E0C32E022F322F3081112760
:1044300088943111380F08F43FEF8195889460FD1E
:10444000130F1795889461FD130F1795889462FDDB
:10445000130F1795889463FD130F1795889464FDC7
:10446000130F1795889465FD130F1795889466FDB3
:10447000130F1795889467FD130F17958894232FB2
:104480006111212F8E0D122F002C50930B0100C0B3
:10449000002C17FF40930B0131812227889400C024
:1044A00040930B013111390F00C050930B0100C034
:1044B000002C16FF40930B0108F43FEF9195889470
:1044C00000C040930B0170FD230F00C050930B01FF
:1044D00000C0002C15FF40930B012795889471FDB7
:1044E000230F00C040930B012795889400C0509380
:1044F0000B0100C0002C14FF40930B0172FD230F31
:104500002795889400C040930B0173FD230F00C0D2
:1045100050930B0100C0002C13FF40930B01279513
:10452000889474FD230F00C040930B012795889455
:1045300000C050930B0100C0002C12FF40930B01F0
:1045400075FD230F2795889400C040930B0176FDDD
:10455000230F00C050930B0100C0002C11FF4093AB
:104560000B012795889477FD230F00C040930B0122
:104570002795889400C050930B0100C0002C10FFB9
:1045800040930B01132F7111122F9B0D00C040930C
:104590000B0100C000C050930B0100C0002C17FF9E
:1045A00040930B0132812227889400C040930B0175
:1045B00031113C0D00C050930B0100C0002C16FFC0
:1045C00040930B0108F43FEFED0DF11D00C0409347
:1045D0000B01F0FC230F00C050930B0100C0002C16
:1045E00015FF40930B0127958894F1FC230F00C021
:1045F00040930B012795889400C050930B0100C095
:10460000002C14FF40930B01F2FC230F2795889494
:1046100000C040930B01F3FC230F00C050930B012B
:1046200000C0002C13FF40930B0127958894F4FCE5
:10463000230F00C040930B012795889400C050932E
:104640000B0100C0002C12FF40930B01F5FC230F5F
:104650002795889400C040930B01F6FC230F00C0FF
:1046600050930B0100C0002C11FF40930B012795C4
:104670008894F7FC230F00C040930B012795889482
:1046800000C050930B0100C0002C10FF40930B01A1
:10469000132FF110122FC19400C040930B01CA0CCC
:1046A00000C0002C50930B0100C0002C17FF40935A
:1046B0000B0130812227889400C040930B013111F7
:1046C000380F00C050930B0100C0002C16FF409320
:1046D0000B0108F43FEF8195889400C040930B01D3
:1046E00060FD230F00C050930B0100C0002C15FF8C
:1046F00040930B012795889461FD230F00C04093E0
:104700000B012795889400C050930B0100C0002C2A
:1047100014FF40930B0162FD230F2795889400C07E
:1047200040930B0163FD230F00C050930B0100C0A9
:10473000002C13FF40930B012795889464FD230FF1
:1047400000C040930B012795889400C050930B0143
:1047500000C0002C12FF40930B0165FD230F27952D
:10476000889400C040930B0166FD230F00C0509356
:104770000B0100C0002C11FF40930B01279588947A
:1047800067FD230F00C040930B012795889400C05C
:1047900050930B0100C0002C10FF40930B01132F0E
:1047A0006111122F8E0D00C040930B01119709F07B
:1047B0006CCE4A815B8120EE31E0DA010E946E6AA4
:1047C000DC01CB0164E0B695A795979587956A952E
:1047D000D1F730E020E0B901EAE94E9F040E611DF7
:1047E0005E9F600D711D1124650F711D860F971F4F
:1047F000A11DB11D893E43E09407A105B10508F450
:1048000034C0885E9340A109B10942E0B695A795EE
:10481000979587954A95D1F747E0849F080E211D0B
:10482000949F200D311D1124290F311D6091AE047C
:1048300070E0860F971F280F391F8091B604909162
:10484000B704A091B804B091B904432F5527840F41
:10485000951FA11DB11D8093B6049093B704A0933A
:10486000B804B093B9042093AE047894C301DF91E7
:10487000CF911F910F91FF90EF90DF90CF90BF905D
:10488000AF909F908F907F906F900C94F70CEAE020
:10489000F1E080818260808308956F927F928F9291
:1048A0009F92AF92BF92CF92DF92EF92FF920F93BF
:1048B0001F93CF93DF93EB010F963C010E94010DF4
:1048C000F894E881F98150910B01516040910B01FE
:1048D0004E7F40930B01E9848E812E2D281B822F61
:1048E0002E83DF84AA81BB816C857D85FE846F5F0A
:1048F0007F5FF3949F813885BA84AB84108120E078
:10490000C32E022F322F3081112788943111380F96
:1049100008F43FEF8195889460FD130F17958894F4
:1049200061FD130F1795889462FD130F17958894F6
:1049300063FD130F1795889464FD130F17958894E2
:1049400065FD130F1795889466FD130F17958894CE
:1049500067FD130F17958894232F6111212F8E0D5A
:10496000122F002C50930B0100C0002C17FF409316
:104970000B0131812227889400C040930B01311133
:10498000390F00C050930B0100C0002C16FF40935C
:104990000B0108F43FEF9195889400C040930B0100
:1049A00070FD230F00C050930B0100C0002C15FFB9
:1049B00040930B012795889471FD230F00C040930D
:1049C0000B012795889400C050930B0100C0002C68
:1049D00014FF40930B0172FD230F2795889400C0AC
:1049E00040930B0173FD230F00C050930B0100C0D7
:1049F000002C13FF40930B012795889474FD230F1F
:104A000000C040930B012795889400C050930B0180
:104A100000C0002C12FF40930B0175FD230F27955A
:104A2000889400C040930B0176FD230F00C0509383
:104A30000B0100C0002C11FF40930B0127958894B7
:104A400077FD230F00C040930B012795889400C089
:104A500050930B0100C0002C10FF40930B01132F4B
:104A60007111122F9B0D00C040930B0100C000C0BC
:104A700050930B0100C0002C17FF40930B013281B3
:104A80002227889400C040930B0131113C0D00C0D7
:104A900050930B0100C0002C16FF40930B0108F44B
:104AA0003FEFED0DF11D00C040930B01F0FC230F13
:104AB00000C050930B0100C0002C15FF40930B0168
:104AC00027958894F1FC230F00C040930B01279594
:104AD000889400C050930B0100C0002C14FF409339
:104AE0000B01F2FC230F2795889400C040930B0123
:104AF000F3FC230F00C050930B0100C0002C13FFE8
:104B000040930B0127958894F4FC230F00C0409339
:104B10000B012795889400C050930B0100C0002C16
:104B200012FF40930B01F5FC230F2795889400C0DA
:104B300040930B01F6FC230F00C050930B0100C003
:104B4000002C11FF40930B0127958894F7FC230F4D
:104B500000C040930B012795889400C050930B012F
:104B600000C0002C10FF40930B01132FF110122FE7
:104B7000C19400C040930B01CA0C00C0002C50939C
:104B80000B0100C0002C17FF40930B01308122273E
:104B9000889400C040930B013111380F00C050932E
:104BA0000B0100C0002C16FF40930B0108F43FEFEF
:104BB0008195889400C040930B0160FD230F00C0D5
:104BC00050930B0100C0002C15FF40930B0127955B
:104BD000889461FD230F00C040930B0127958894B2
:104BE00000C050930B0100C0002C14FF40930B0138
:104BF00062FD230F2795889400C040930B0163FD4D
:104C0000230F00C050930B0100C0002C13FF4093F2
:104C10000B012795889464FD230F00C040930B017E
:104C20002795889400C050930B0100C0002C12FF00
:104C300040930B0165FD230F2795889400C0409396
:104C40000B0166FD230F00C050930B0100C0002C28
:104C500011FF40930B012795889467FD230F00C037
:104C600040930B012795889400C050930B0100C01E
:104C7000002C10FF40930B01132F6111122F8E0D8A
:104C800000C040930B01119709F06CCE4A815B8103
:104C900020EE31E0DA010E946E6ADC01CB0164E0B3
:104CA000B695A795979587956A95D1F730E020E05E
:104CB000B901EAE94E9F040E611D5E9F600D711DF2
:104CC0001124650F711D860F971FA11DB11D893E0F
:104CD00043E09407A105B10508F434C0885E934011
:104CE000A109B10942E0B695A795979587954A9590
:104CF000D1F747E0849F080E211D949F200D311DA0
:104D00001124290F311D6091AE0470E0860F971FAA
:104D1000280F391F8091B6049091B704A091B80470
:104D2000B091B904432F5527840F951FA11DB11DC4
:104D30008093B6049093B704A093B804B093B904D9
:104D40002093AE047894C301DF91CF911F910F910E
:104D5000FF90EF90DF90CF90BF90AF909F908F909B
:104D60007F906F900C94F70CEAE0F1E08081816015
:104D7000808308956F927F928F929F92AF92BF929D
:104D8000CF92DF92EF92FF920F931F93CF93DF9317
:104D9000EB010F963C010E94010DF894E881F98126
:104DA000509108015068409108014F7740930801E5
:104DB000E9848E812E2D281B822F2E83DF84AA81E9
:104DC000BB816C857D85FE846F5F7F5FF3949F81DF
:104DD0003885BA84AB84108120E0C32E022F322F95
:104DE0003081112788943111380F08F43FEF8195F5
:104DF000889460FD130F1795889461FD130F179524
:104E0000889462FD130F1795889463FD130F17950F
:104E1000889464FD130F1795889465FD130F1795FB
:104E2000889466FD130F1795889467FD130F1795E7
:104E30008894232F6111212F8E0D122F002C509357
:104E4000080100C0002C17FF409308013181222780
:104E5000889400C0409308013111390F00C050936D
:104E6000080100C0002C16FF4093080108F43FEF32
:104E70009195889400C04093080170FD230F00C0F5
:104E80005093080100C0002C15FF4093080127959E
:104E9000889471FD230F00C04093080127958894E2
:104EA00000C05093080100C0002C14FF409308017B
:104EB00072FD230F2795889400C04093080173FD6D
:104EC000230F00C05093080100C0002C13FF409333
:104ED00008012795889474FD230F00C040930801B2
:104EE0002795889400C05093080100C0002C12FF41
:104EF0004093080175FD230F2795889400C04093C7
:104F0000080176FD230F00C05093080100C0002C5B
:104F100011FF409308012795889477FD230F00C067
:104F2000409308012795889400C05093080100C061
:104F3000002C10FF40930801132F7111122F9B0DAD
:104F400000C04093080100C000C05093080100C099
:104F5000002C17FF4093080132812227889400C05B
:104F60004093080131113C0D00C05093080100C06E
:104F7000002C16FF4093080108F43FEFED0DF11DE2
:104F800000C040930801F0FC230F00C050930801BB
:104F900000C0002C15FF4093080127958894F1FC70
:104FA000230F00C0409308012795889400C05093B8
:104FB000080100C0002C14FF40930801F2FC230FED
:104FC0002795889400C040930801F3FC230F00C08C
:104FD0005093080100C0002C13FF4093080127954F
:104FE0008894F4FC230F00C040930801279588940F
:104FF00000C05093080100C0002C12FF409308012C
:10500000F5FC230F2795889400C040930801F6FC17
:10501000230F00C05093080100C0002C11FF4093E3
:10502000080127958894F7FC230F00C040930801DE
:105030002795889400C05093080100C0002C10FFF1
:1050400040930801132FF110122FC19400C0409318
:105050000801CA0C00C0002C5093080100C0002CAD
:1050600017FF4093080130812227889400C04093A5
:1050700008013111380F00C05093080100C0002C06
:1050800016FF4093080108F43FEF8195889400C013
:105090004093080160FD230F00C05093080100C039
:1050A000002C15FF409308012795889461FD230F7C
:1050B00000C0409308012795889400C050930801D0
:1050C00000C0002C14FF4093080162FD230F2795B8
:1050D000889400C04093080163FD230F00C05093E3
:1050E000080100C0002C13FF409308012795889405
:1050F00064FD230F00C0409308012795889400C0E9
:105100005093080100C0002C12FF4093080165FD78
:10511000230F2795889400C04093080166FD230F54
:1051200000C05093080100C0002C11FF40930801FB
:105130002795889467FD230F00C0409308012795A9
:10514000889400C05093080100C0002C10FF4093C9
:105150000801132F6111122F8E0D00C0409308011A
:10516000119709F06CCE4A815B8120EE31E0DA01C3
:105170000E946E6ADC01CB0164E0B695A795979515
:1051800087956A95D1F730E020E0B901EAE94E9FB2
:10519000040E611D5E9F600D711D1124650F711D50
:1051A000860F971FA11DB11D893E43E09407A105FD
:1051B000B10508F434C0885E9340A109B10942E00A
:1051C000B695A795979587954A95D1F747E0849F1F
:1051D000080E211D949F200D311D1124290F311D12
:1051E0006091AE0470E0860F971F280F391F8091E1
:1051F000B6049091B704A091B804B091B904432FBC
:105200005527840F951FA11DB11D8093B60490935F
:10521000B704A093B804B093B9042093AE04789473
:10522000C301DF91CF911F910F91FF90EF90DF901D
:10523000CF90BF90AF909F908F907F906F900C9485
:10524000F70CE7E0F1E080818068808308956F9239
:105250007F928F929F92AF92BF92CF92DF92EF9206
:10526000FF920F931F93CF93DF93EB010F963C01B7
:105270000E94010DF894E881F98150910801506471
:10528000409108014F7B40930801E9848E812E2DC7
:10529000281B822F2E83DF84AA81BB816C857D85AC
:1052A000FE846F5F7F5FF3949F813885BA84AB84FF
:1052B000108120E0C32E022F322F308111278894D5
:1052C0003111380F08F43FEF8195889460FD130F7A
:1052D0001795889461FD130F1795889462FD130F3D
:1052E0001795889463FD130F1795889464FD130F29
:1052F0001795889465FD130F1795889466FD130F15
:105300001795889467FD130F17958894232F6111C3
:10531000212F8E0D122F002C5093080100C0002C5D
:1053200017FF4093080131812227889400C04093E1
:1053300008013111390F00C05093080100C0002C42
:1053400016FF4093080108F43FEF9195889400C040
:105350004093080170FD230F00C05093080100C066
:10536000002C15FF409308012795889471FD230FA9
:1053700000C0409308012795889400C0509308010D
:1053800000C0002C14FF4093080172FD230F2795E5
:10539000889400C04093080173FD230F00C0509310
:1053A000080100C0002C13FF409308012795889442
:1053B00074FD230F00C0409308012795889400C016
:1053C0005093080100C0002C12FF4093080175FDA6
:1053D000230F2795889400C04093080176FD230F82
:1053E00000C05093080100C0002C11FF4093080139
:1053F0002795889477FD230F00C0409308012795D7
:10540000889400C05093080100C0002C10FF409306
:105410000801132F7111122F9B0D00C0409308013A
:1054200000C000C05093080100C0002C17FF40933B
:10543000080132812227889400C04093080131116D
:105440003C0D00C05093080100C0002C16FF409393
:10545000080108F43FEFED0DF11D00C04093080175
:10546000F0FC230F00C05093080100C0002C15FF72
:105470004093080127958894F1FC230F00C04093C6
:1054800008012795889400C05093080100C0002CA3
:1054900014FF40930801F2FC230F2795889400C065
:1054A00040930801F3FC230F00C05093080100C093
:1054B000002C13FF4093080127958894F4FC230FD8
:1054C00000C0409308012795889400C050930801BC
:1054D00000C0002C12FF40930801F5FC230F279514
:1054E000889400C040930801F6FC230F00C050933D
:1054F000080100C0002C11FF4093080127958894F3
:10550000F7FC230F00C0409308012795889400C042
:105510005093080100C0002C10FF40930801132F86
:10552000F110122FC19400C040930801CA0C00C0B2
:10553000002C5093080100C0002C17FF4093080175
:1055400030812227889400C0409308013111380F20
:1055500000C05093080100C0002C16FF40930801C2
:1055600008F43FEF8195889400C04093080160FDE6
:10557000230F00C05093080100C0002C15FF40937A
:1055800008012795889461FD230F00C0409308010E
:105590002795889400C05093080100C0002C14FF88
:1055A0004093080162FD230F2795889400C0409323
:1055B000080163FD230F00C05093080100C0002CB8
:1055C00013FF409308012795889464FD230F00C0C2
:1055D000409308012795889400C05093080100C0AB
:1055E000002C12FF4093080165FD230F2795889436
:1055F00000C04093080166FD230F00C050930801CE
:1056000000C0002C11FF409308012795889467FD86
:10561000230F00C0409308012795889400C0509341
:10562000080100C0002C10FF40930801132F6111E6
:10563000122F8E0D00C040930801119709F06CCE17
:105640004A815B8120EE31E0DA010E946E6ADC0162
:10565000CB0164E0B695A795979587956A95D1F7A4
:1056600030E020E0B901EAE94E9F040E611D5E9F23
:10567000600D711D1124650F711D860F971FA11DEF
:10568000B11D893E43E09407A105B10508F434C07B
:10569000885E9340A109B10942E0B695A795979518
:1056A00087954A95D1F747E0849F080E211D949F66
:1056B000200D311D1124290F311D6091AE0470E0C1
:1056C000860F971F280F391F8091B6049091B70459
:1056D000A091B804B091B904432F5527840F951FAA
:1056E000A11DB11D8093B6049093B704A093B80494
:1056F000B093B9042093AE047894C301DF91CF91A5
:105700001F910F91FF90EF90DF90CF90BF90AF90DF
:105710009F908F907F906F900C94F70CE7E0F1E0F2
:1057200080818064808308956F927F928F929F9290
:10573000AF92BF92CF92DF92EF92FF920F931F939F
:10574000CF93DF93EB010F963C010E94010DF8947B
:10575000E881F981509108015062409108014F7D24
:1057600040930801E9848E812E2D281B822F2E83E1
:10577000DF84AA81BB816C857D85FE846F5F7F5F3E
:10578000F3949F813885BA84AB84108120E0C32EC6
:10579000022F322F3081112788943111380F08F4ED
:1057A0003FEF8195889460FD130F1795889461FDF4
:1057B000130F1795889462FD130F1795889463FD56
:1057C000130F1795889464FD130F1795889465FD42
:1057D000130F1795889466FD130F1795889467FD2E
:1057E000130F17958894232F6111212F8E0D122FDF
:1057F000002C5093080100C0002C17FF40930801B3
:1058000031812227889400C0409308013111390F5B
:1058100000C05093080100C0002C16FF40930801FF
:1058200008F43FEF9195889400C04093080170FD03
:10583000230F00C05093080100C0002C15FF4093B7
:1058400008012795889471FD230F00C0409308013B
:105850002795889400C05093080100C0002C14FFC5
:105860004093080172FD230F2795889400C0409350
:10587000080173FD230F00C05093080100C0002CE5
:1058800013FF409308012795889474FD230F00C0EF
:10589000409308012795889400C05093080100C0E8
:1058A000002C12FF4093080175FD230F2795889463
:1058B00000C04093080176FD230F00C050930801FB
:1058C00000C0002C11FF409308012795889477FDB4
:1058D000230F00C0409308012795889400C050937F
:1058E000080100C0002C10FF40930801132F711114
:1058F000122F9B0D00C04093080100C000C05093C0
:10590000080100C0002C17FF4093080132812227B4
:10591000889400C04093080131113C0D00C05093A1
:10592000080100C0002C16FF4093080108F43FEF67
:10593000ED0DF11D00C040930801F0FC230F00C0E5
:105940005093080100C0002C15FF409308012795D3
:105950008894F1FC230F00C0409308012795889498
:1059600000C05093080100C0002C14FF40930801B0
:10597000F2FC230F2795889400C040930801F3FCA4
:10598000230F00C05093080100C0002C13FF409368
:10599000080127958894F4FC230F00C04093080168
:1059A0002795889400C05093080100C0002C12FF76
:1059B00040930801F5FC230F2795889400C040937D
:1059C0000801F6FC230F00C05093080100C0002C12
:1059D00011FF4093080127958894F7FC230F00C01E
:1059E000409308012795889400C05093080100C097
:1059F000002C10FF40930801132FF110122FC194B7
:105A000000C040930801CA0C00C0002C509308014C
:105A100000C0002C17FF4093080130812227889492
:105A200000C0409308013111380F00C050930801A5
:105A300000C0002C16FF4093080108F43FEF819549
:105A4000889400C04093080160FD230F00C050936C
:105A5000080100C0002C15FF409308012795889489
:105A600061FD230F00C0409308012795889400C072
:105A70005093080100C0002C14FF4093080162FD00
:105A8000230F2795889400C04093080163FD230FDE
:105A900000C05093080100C0002C13FF4093080180
:105AA0002795889464FD230F00C040930801279533
:105AB000889400C05093080100C0002C12FF40934E
:105AC000080165FD230F2795889400C040930801C5
:105AD00066FD230F00C05093080100C0002C11FF89
