:100000000C94C12A0C943B7F0C94107F0C94E57ED9
:100010000C94BA7E0C948F7E0C94647E0C94397E82
:100020000C940E7E0C94F22A0C94F22A0C94F22A70
:100030000C94F22A0C94F22A0C94F22A0C94F22AD0
:100040000C94F22A0C94F22A0C94F22A0C94F22AC0
:100050000C94F22A0C94F22A0C94F22A0C94C47D8B
:100060000C94F22A0C94F07F0C94C67F0C94F22A24
:100070000C94F22A0C94F22A0C94F22A0C94F22A90
:100080000C94F22A0C94F22A0C94F22A0C94F22A80
:100090000C94F22A0C94F22A0C94F22A0C94F22A70
:1000A0000C94F22A0C94F22A0C94F22A0C94F22A60
:1000B0000C94F22A0C94F22A0C94F22A0C94F22A50
:1000C0000C94F22A0C94F22A0C94F22A0C94F22A40
:1000D0000C94F22A0C94F22A0C94907F0C94667F74
:1000E0000C94F22A0C9481950C94E02B0C941F2C08
:1000F0000C9413400C94E82B0C945E360C947D2DDC
:100100000C94F52B0C944A360C94C13A0C94732D34
:100110000C94F92B0C94FA2C0C947F430C94A32F81
:100120000C94B63D0C9455360C94EB2C0C94FF2B90
:100130000C940D2C0C944D360C946E360C943E366B
:100140000C946C370C94EC2B0C947B380C94462E4E
:100150000C942C3B0C94CF2F0C9475360C94864841
:100160000C94152C0C9456360C94DA2F0C9466349F
:100170000C94112C0C94072C0C940E2D0C947A34A6
:100180000C948A380C94B72B0C94E32E0C94542EB8
:100190000C945F2D0C94282D0C94BD3C0C94BA3714
:1001A0000C94663C0C94FA3D0C944B2D0C94EF800F
:1001B0000C94AC3A0C94BB2B0C94552D0C94692DDB
:1001C0000C94162D0C94F3370C94E62D0C945A369F
:1001D0000C94E32C0C941B2C0C943C2D0C94232E8F
:1001E0000C94032C0C94DD3E0C94F02C0C945C3499
:1001F0000C94DA2B0C94473B0C9484340C948E347E
:100200000C94113F0C9450400C94962E0C94E03DAD
:100210000C9498370C94EF2B0C941E2D0C94DD3518
:100220000C94BC3F0C940C430C94B92F0C94BF3E1F
:100230000C94E72D0C948F3F0C94973D0C94322E28
:100240000C941A2C0C944C370C94042D0C94322DD5
:100250000C943A360C94C4440C94E42B0C947034F3
:100260000C9448360C949B390C94F62D00407A106F
:10027000F35A00A0724E18090010A5D4E80000E857
:100280007648170000E40B54020000CA9A3B0000B5
:1002900000E1F505000080969800000040420F0044
:1002A0000000A08601000000102700000000E80305
:1002B000000000006400000000000A0000000000D0
:1002C0000100000000002C76D888DC674F0823DF8F
:1002D000C1DFAE59E1B1B796E5E3E453C63AE65162
:1002E000997696E8E6C28426EB898C9B62ED407C89
:1002F0006FFCEFBC9C9F40F2BAA56FA5F490055A25
:100300002AF75C936B6CF9676DC11BFCE0E40D4749
:10031000FEF520E6B500D0ED902E0300943577056C
:100320000080841E080000204E0A000000C80C3324
:100330003333330F986E12831141EF8D2114893BB3
:10034000E65516CFFEE6DB18D1844B381BF77C1D33
:10035000901DA4BBE424203284725E228100C9F186
:1003600024ECA1E53D27343034204E6F7420466FD5
:10037000756E6400436F6E6E656374696F6E3A20CC
:10038000636C6F736500436F6E74656E742D547982
:1003900070653A20746578742F706C61696E0048DE
:1003A0005454502F312E3120343034204E6F74206D
:1003B000466F756E64003C2F74626F64793E3C2F0B
:1003C0007461626C653E3C2F74643E3C2F74723ED7
:1003D0003C2F7461626C653E3C2F6469763E3C2F15
:1003E0006469763E3C2F626F64793E3C2F68746D81
:1003F0006C3E003C2F74643E3C2F74723E00222CF5
:10040000656E636F6465555249436F6D706F6E65BD
:100410006E7428746869732E76616C756529292756
:100420003E0027206F6E6368616E67653D277365C8
:100430006E64436F6D6D616E642822616C696173D7
:100440005F647331386232305F00272076616C75EB
:10045000653D270027206E616D653D27616C6961F0
:10046000735F647331386232305F00273E3C2F7413
:10047000643E3C74643E3C696E707574207479709F
:10048000653D277465787427206D61786C656E67AB
:1004900074683D273330272069643D27616C6961AA
:1004A000735F647331386232305F003C2F74643E96
:1004B0003C74642069643D27647331386232305F74
:1004C00074656D7000273E003C2F74643E3C74647C
:1004D0002069643D27647331386232305F736E0087
:1004E0002031772053455249414C5F4E554D42458E
:1004F000522054656D7027223E44533138423230C9
:100500002D000A5544503A20277261696C003C74F2
:10051000723E3C7464207469746C653D224D6F6456
:100520006275732072656720003C2F74626F647976
:100530003E3C2F7461626C653E3C2F74643E3C749B
:10054000642077696474683D27353025273E3C6810
:10055000333E312D576972652053656E736F727328
:1005600020445331384232303C2F68333E3C746172
:10057000626C6520636C6173733D276F6E6577698C
:1005800072652D7461626C65272069643D27647310
:1005900031386232305461626C65273E3C74626F60
:1005A00064793E003C2F74643E3C2F74723E0022FE
:1005B0002C656E636F6465555249436F6D706F6E45
:1005C000656E7428746869732E76616C7565292967
:1005D000273E0027206F6E6368616E67653D277355
:1005E000656E64436F6D6D616E642822616C696134
:1005F000735F6473323433385F00272076616C7523
:10060000653D270027206E616D653D27616C69613E
:10061000735F6473323433385F00273E3C2F746459
:100620003E3C74643E3C696E7075742074797065EC
:100630003D277465787427206D61786C656E6774EA
:10064000683D273330272069643D27616C696173F9
:100650005F6473323433385F00273E3C2F74643E4E
:100660003C74642069643D276473323433385F76A8
:1006700073656E7300273E3C2F74643E3C746420A7
:1006800069643D276473323433385F766164003CBB
:100690002F74643E3C74642069643D276473323473
:1006A00033385F74656D7000273E003C2F74643EE4
:1006B0003C74642069643D276473323433385F735B
:1006C0006E002031772053455249414C5F4E554DC5
:1006D0004245522054656D70205661642056736502
:1006E0006E7327223E4453323433382D000A55446A
:1006F000503A20277261696C002900343620285353
:10070000656E736F72200031392D323120285465A7
:100710006D702C205661642C205673656E73290011
:100720003C74723E3C7464207469746C653D224D67
:100730006F646275732072656720003C646976207F
:100740007374796C653D276D617267696E2D626F98
:1007500074746F6D3A313070783B273E3C7461623F
:100760006C6520636C6173733D276F7574657227C8
:100770003E3C74723E3C74642077696474683D2723
:10078000353025273E3C68333E312D576972652050
:1007900053656E736F7273204453323433383C2F79
:1007A00068333E3C7461626C6520636C6173733DB9
:1007B000276F6E65776972652D7461626C6527209D
:1007C00069643D276473323433385461626C652741
:1007D0003E3C74626F64793E003C2F7461626C65CC
:1007E0003E3C2F74643E3C2F74723E3C2F74616219
:1007F0006C653E3C2F6469763E003C2F74643E3C41
:100800002F74723E00222C656E636F6465555249E9
:10081000436F6D706F6E656E7428746869732E76A1
:10082000616C75652929273E0027206F6E6368611A
:100830006E67653D2773656E64436F6D6D616E64B1
:100840002822616C6961735F616E614F75745F002E
:10085000272076616C75653D270027206E616D65E8
:100860003D27616C6961735F616E614F75745F00F4
:1008700056293C2F74643E3C74643E3C696E70752E
:100880007420747970653D277465787427206D61D4
:10089000786C656E6774683D273330272069643D46
:1008A00027616C6961735F616E614F75745F0027CA
:1008B0003E28003C2F74643E3C74642069643D27EC
:1008C000616E614F7574566F6C7461676500222CA0
:1008D000746869732E76616C756529273E00272040
:1008E0006F6E6368616E67653D2773656E64436F05
:1008F0006D6D616E642822616E614F7574002720F2
:100900006D696E3D273027206D61783D2732353582
:10091000272076616C75653D270027206E616D6527
:100920003D27616E614F7574003C2F74643E3C74CA
:10093000643E3C696E70757420747970653D276EF5
:10094000756D626572272069643D27616E614F7520
:1009500074002056414C554527223E414F2000202F
:10096000616F000A5544503A20277261696C003C5F
:1009700074723E3C7464207469746C653D224D6FE2
:10098000646275732072656720003C2F74626F6427
:10099000793E3C2F7461626C653E3C2F74643E3C32
:1009A00074642077696474683D27353025273E3CA0
:1009B00068333E416E616C6F67204F75747075745B
:1009C000732028302D323535203D20302D313056E2
:1009D000293C2F68333E3C7461626C6520636C6116
:1009E00073733D27696E6E6572273E003C2F7464F9
:1009F0003E3C2F74723E00222C656E636F64655519
:100A00005249436F6D706F6E656E742874686973B8
:100A10002E76616C75652929273E0027206F6E634D
:100A200068616E67653D2773656E64436F6D6D61C8
:100A30006E642822616C6961735F616E61496E70DA
:100A400075745F00272076616C75653D270027204F
:100A50006E616D653D27616C6961735F616E6149AF
:100A60006E7075745F003C2F74643E3C74643E3C51
:100A7000696E70757420747970653D27746578743B
:100A800027206D61786C656E6774683D2733302769
:100A90002069643D27616C6961735F616E61496EB5
:100AA0007075745F00273E003C2F74643E3C746494
:100AB0002069643D2761695F7374617475730020F8
:100AC00056414C554527223E41492000206169008E
:100AD0000A5544503A20277261696C003C74723E9A
:100AE0003C7464207469746C653D224D6F6462755A
:100AF000732072656720003C646976207374796C9A
:100B0000653D276D617267696E2D626F74746F6DDC
:100B10003A313070783B273E3C7461626C652063EB
:100B20006C6173733D276F75746572273E3C7472F8
:100B30003E3C74642077696474683D27353025270E
:100B40003E3C68333E416E616C6F6720496E707544
:100B500074732028302D31303234203D20302D3137
:100B60003056293C2F68333E3C7461626C652063CB
:100B70006C6173733D27696E6E6572272069643DF1
:100B800027616E61496E707574735461626C65277C
:100B90003E3C74626F64793E003C2F74626F6479EE
:100BA0003E3C2F7461626C653E3C2F74643E3C2F6A
:100BB00074723E3C2F7461626C653E3C2F646976B2
:100BC0003E003C2F74643E3C2F74723E00222C6524
:100BD0006E636F6465555249436F6D706F6E656EDD
:100BE0007428746869732E76616C75652929273EAF
:100BF0000027206F6E6368616E67653D2773656EC1
:100C000064436F6D6D616E642822616C6961735F0E
:100C1000646967496E7075745F00272076616C7532
:100C2000653D270027206E616D653D27616C696118
:100C3000735F646967496E7075745F003C2F7464FC
:100C40003E3C74643E3C696E7075742074797065C6
:100C50003D277465787427206D61786C656E6774C4
:100C6000683D273330272069643D27616C696173D3
:100C70005F646967496E7075745F00273E003C2FA2
:100C800074643E3C74642069643D2764695F7374D6
:100C900061747573002056414C554527223E4449E6
:100CA0002000206469000A5544503A202772616987
:100CB0006C003135202D2062697420003134202DE4
:100CC0002062697420003C74723E3C746420746934
:100CD000746C653D224D6F64627573207265672088
:100CE000003C2F74626F64793E3C2F7461626C65C6
:100CF0003E3C2F74643E3C74642077696474683DA4
:100D000027353025273E3C683320636C6173733D83
:100D1000276469672D696E707574732D7469746CBE
:100D200065273E4469676974616C20496E7075740B
:100D3000732031332D32343C2F68333E3C74616272
:100D40006C6520636C6173733D27696E6E657227F5
:100D50002069643D27646967496E707574735461D6
:100D6000626C6532273E3C74626F64793E003C2FB2
:100D700074643E3C2F74723E00222C656E636F6477
:100D800065555249436F6D706F6E656E7428746857
:100D900069732E76616C75652929273E0027206FBF
:100DA0006E6368616E67653D2773656E64436F6D42
:100DB0006D616E642822616C6961735F6469674963
:100DC0006E7075745F00272076616C75653D270035
:100DD00027206E616D653D27616C6961735F646991
:100DE00067496E7075745F003C2F74643E3C746498
:100DF0003E3C696E70757420747970653D2774652A
:100E0000787427206D61786C656E6774683D273350
:100E100030272069643D27616C6961735F6469678D
:100E2000496E7075745F00273E003C2F74643E3C31
:100E300074642069643D2764695F737461747573B9
:100E4000002056414C554527223E4449200020644D
:100E500069000A5544503A20277261696C003134A8
:100E6000202D2062697420003133202D20626974A6
:100E700020003C74723E3C7464207469746C653D5F
:100E8000224D6F646275732072656720003C64694F
:100E900076207374796C653D276D617267696E2D7C
:100EA000626F74746F6D3A313070783B273E3C74DA
:100EB00061626C6520636C6173733D276F75746547
:100EC00072273E3C74723E3C746420776964746897
:100ED0003D27353025273E3C683320636C617373B2
:100EE0003D276469672D696E707574732D7469741C
:100EF0006C65273E4469676974616C20496E707542
:100F0000747320312D31323C2F68333E3C74616262
:100F10006C6520636C6173733D27696E6E65722723
:100F20002069643D27646967496E70757473546104
:100F3000626C6531273E3C74626F64793E003C2FE1
:100F40007461626C653E3C2F74643E3C2F74723E4B
:100F50003C2F7461626C653E3C2F74643E3C2F7480
:100F6000723E3C2F7461626C653E3C2F6469763E34
:100F7000003C2F74643E3C2F74723E00222C656E40
:100F8000636F6465555249436F6D706F6E656E7423
:100F900028746869732E76616C75652929273E006F
:100FA00027206F6E6368616E67653D2773656E64A9
:100FB000436F6D6D616E642822616C6961735F6C53
:100FC00073735F00272076616C75653D27002720CD
:100FD0006E616D653D27616C6961735F6C73735FF2
:100FE000003C2F74643E3C74643E3C696E707574C2
:100FF00020747970653D277465787427206D617859
:101000006C656E6774683D273330272069643D271F
:10101000616C6961735F6C73735F002D00222C74C7
:101020006869732E76616C756529273E0027206FED
:101030006E6368616E67653D2773656E64436F6DAF
:101040006D616E6428226C73730027206D696E3D9C
:10105000273027206D61783D27323535272076618E
:101060006C75653D270027206E616D653D276C73AB
:101070007350574D003C696E7075742074797065BB
:101080003D276E756D626572272069643D276C731C
:101090007350574D003E3C2F74643E3C74643E00D8
:1010A00020636865636B656400222C746869732E25
:1010B000636865636B65643F3235353A30292700D4
:1010C00027206F6E6368616E67653D2773656E6488
:1010D000436F6D6D616E6428226C73730027206E00
:1010E000616D653D276C7373003C2F74643E3C74E6
:1010F000643E3C696E70757420747970653D276339
:101100006865636B626F78272069643D276C737331
:1011100000223E4C535320005F70776D2056414CA7
:1011200055452700206C6F000A5544503A2027721D
:1011300061696C00206F66662700206C6F00206F6D
:101140006E270A5544503A20277261696C00206C62
:101150006F000A5544503A20277261696C003C7454
:10116000723E3C7464207469746C653D224D6F64FA
:10117000627573207265672032202D2062697420A9
:10118000003C2F7461626C653E3C2F74643E3C2FC2
:1011900074723E3C74723E3C74643E3C68333E4C18
:1011A0006F772D536964652053776974636865733D
:1011B000205374617475732028302D323535203DED
:1011C00020302D562B293C2F68333E3C7461626CD5
:1011D0006520636C6173733D27696E6E6572273E8F
:1011E000003C2F74643E3C2F74723E00222C656ECE
:1011F000636F6465555249436F6D706F6E656E74B1
:1012000028746869732E76616C75652929273E00FC
:1012100027206F6E6368616E67653D2773656E6436
:10122000436F6D6D616E642822616C6961735F68E4
:1012300073735F00272076616C75653D270027205A
:101240006E616D653D27616C6961735F6873735F83
:10125000003C2F74643E3C74643E3C696E7075744F
:1012600020747970653D277465787427206D6178E6
:101270006C656E6774683D273330272069643D27AD
:10128000616C6961735F6873735F00222C746869B5
:10129000732E76616C756529273E0027206F6E637B
:1012A00068616E67653D2773656E64436F6D6D6140
:1012B0006E6428226873730027206D696E3D2730A5
:1012C00027206D61783D27323535272076616C7592
:1012D000653D270027206E616D653D27687373505B
:1012E000574D003E3C2F74643E3C74643E3C696E36
:1012F00070757420747970653D276E756D626572C6
:10130000272069643D2768737350574D0020636838
:1013100065636B656400222C746869732E6368656D
:10132000636B65643F3235353A3029270027206FDB
:101330006E6368616E67653D2773656E64436F6DAC
:101340006D616E6428226873730027206E616D657D
:101350003D27687373003C2F74643E3C74643E3CCC
:10136000696E70757420747970653D276368656374
:101370006B626F78272069643D27687373005F7024
:10138000776D2056414C554527223E485353200047
:1013900020686F00206F6666270A5544503A202760
:1013A0007261696C0020686F00206F6E270A5544D7
:1013B000503A20277261696C0020686F000A55441A
:1013C000503A20277261696C003C74723E3C746430
:1013D000207469746C653D224D6F64627573207270
:1013E00065672032202D2062697420003C746162A0
:1013F0006C6520636C6173733D27696E6E6572273F
:101400003E3C74723E3C74643E3C68333E486967BF
:10141000682D536964652053776974636865732028
:101420005374617475732028302D323535203D207A
:10143000302D562B293C2F68333E3C7461626C651D
:1014400020636C6173733D27696E6E6572273E0081
:101450003C2F7461626C653E3C2F74643E3C746446
:101460002077696474683D27353025273E003C2F7E
:1014700074643E3C2F74723E00222C656E636F6470
:1014800065555249436F6D706F6E656E7428746850
:1014900069732E76616C75652929273E0027206FB8
:1014A0006E6368616E67653D2773656E64436F6D3B
:1014B0006D616E642822616C6961735F72656C6135
:1014C000795F00272076616C75653D270027206EC7
:1014D000616D653D27616C6961735F72656C6179EF
:1014E0005F003E3C2F74643E3C74643E3C696E7009
:1014F000757420747970653D277465787427206D44
:1015000061786C656E6774683D27333027206964A5
:101510003D27616C6961735F72656C61795F002062
:10152000636865636B656400222C746869732E635D
:101530006865636B65643F313A3029270027206F67
:101540006E6368616E67653D2773656E64436F6D9A
:101550006D616E64282272656C61790027206E616E
:101560006D653D2772656C6179003C2F74643E3C6B
:1015700074643E3C696E70757420747970653D27A3
:10158000636865636B626F78272069643D277265C5
:101590006C617900206F666627223E52656C617926
:1015A000200020726F00206F6E270A5544503A20A9
:1015B000277261696C0020726F000A5544503A200E
:1015C000277261696C00312C204269742000302C34
:1015D0002042697420003C74723E3C74642074693B
:1015E000746C653D224D6F64627573205265676946
:1015F0007374657220003C646976207374796C653D
:101600003D276D617267696E2D626F74746F6D3AFC
:10161000313070783B273E3C7461626C6520636CAE
:101620006173733D276F75746572273E3C74723E1B
:101630003C74642077696474683D27353025273E03
:101640003C68333E52656C617920537461747573E4
:101650003C2F68333E3C7461626C6520636C61733F
:10166000733D27696E6E6572273E003E4F6E3C2FBC
:101670006F7074696F6E3E3C2F73656C6563743E6A
:101680003C2F74643E3C2F74723E3C2F7461626C3C
:10169000653E3C2F74643E3C2F74723E3C2F746157
:1016A000626C653E3C2F6469763E0073656C6563D1
:1016B000746564003E4F66663C2F6F7074696F6E90
:1016C0003E3C6F7074696F6E2076616C75653D2766
:1016D0003127200073656C6563746564003C6F702E
:1016E00074696F6E2076616C75653D273027200028
:1016F0003E4F6E3C2F6F7074696F6E3E3C2F73656A
:101700006C6563743E3C2F74643E3C2F74723E3CA7
:1017100074723E3C74643E53657269616C2044652A
:101720006275672028313135323030204264293CDF
:101730002F74643E3C74643E3C73656C6563742036
:1017400069643D276465627567456E61626C6564B6
:1017500027206F6E6368616E67653D2773656E64F1
:10176000436F6D6D616E6428226465627567456EB6
:1017700061626C6564222C746869732E76616C7585
:101780006529273E0073656C6563746564003E4F90
:1017900066663C2F6F7074696F6E3E3C6F70746943
:1017A0006F6E2076616C75653D273127200073656B
:1017B0006C6563746564003C6F7074696F6E20764D
:1017C000616C75653D27302720003E4F6E3C2F6FC2
:1017D0007074696F6E3E3C2F73656C6563743E3C3C
:1017E0002F74643E3C2F74723E3C74723E3C7464B1
:1017F0003E4C414E2D525334383520476174657745
:1018000061793C2F74643E3C74643E3C73656C6546
:1018100063742069643D2767617465776179456EFB
:1018200061626C656427206F6E6368616E67653DF9
:101830002773656E64436F6D6D616E642822676106
:101840007465776179456E61626C6564222C746899
:1018500069732E76616C756529273E0073656C652A
:1018600063746564003E4F66663C2F6F7074696FE9
:101870006E3E3C6F7074696F6E2076616C75653D6D
:10188000273127200073656C6563746564003C6FC5
:101890007074696F6E2076616C75653D2730272006
:1018A000003E5544503C2F6F7074696F6E3E3C2F64
:1018B00073656C6563743E3C2F74643E3C2F747298
:1018C0003E3C74723E3C74643E50756C736573208C
:1018D00053656E73696E67202844492031302C317E
:1018E000312C3132293C2F74643E3C74643E3C738D
:1018F000656C6563742069643D2770756C73654F12
:101900006E27206F6E6368616E67653D2773656E35
:1019100064436F6D6D616E64282270756C73654FE2
:101920006E222C746869732E76616C756529273E6A
:101930000073656C6563746564003E4D6F64627529
:1019400073205443503C2F6F7074696F6E3E3C6F30
:101950007074696F6E2076616C75653D2731272044
:101960000073656C6563746564003C6F7074696FC7
:101970006E2076616C75653D27302720003C7472BF
:101980003E3C74643E4F75747075747320636F6E63
:1019900074726F6C2070726F746F636F6C3C2F7415
:1019A000643E3C74643E3C73656C6563742069649A
:1019B0003D277573655544506374726C27206F6EB4
:1019C0006368616E67653D2773656E64436F6D6D17
:1019D000616E6428227573655544506374726C227D
:1019E0002C746869732E76616C756529273E002713
:1019F000206F6E6368616E67653D2773656E644333
:101A00006F6D6D616E6428226261756452617465E8
:101A1000222C746869732E76616C756529273E20C7
:101A200042643C2F74643E3C2F74723E0027206F4A
:101A30006E6368616E67653D2773656E64436F6DA5
:101A40006D616E642822636865636B496E746572AC
:101A500076616C222C746869732E76616C756529C9
:101A6000273E206D733C2F74643E3C2F74723E3CC5
:101A700074723E3C74643E52533438352042617572
:101A80006420526174653C2F74643E3C74643E3C37
:101A9000696E70757420747970653D276E756D621E
:101AA0006572272069643D276261756452617465BF
:101AB00027207374796C653D2777696474683A38B8
:101AC0003070783B272076616C75653D27002720B4
:101AD0006F6E6368616E67653D2773656E64436F03
:101AE0006D6D616E64282270756C736553656E64EC
:101AF0004379636C65222C746869732E76616C750A
:101B00006529273E206D733C2F74643E3C2F747210
:101B10003E3C74723E3C74643E50696E672044489B
:101B20004350204379636C653C2F74643E3C74647D
:101B30003E3C696E70757420747970653D276E75D2
:101B40006D626572272069643D27636865636B4930
:101B50006E74657276616C27206D696E3D27323038
:101B6000303027206D61783D2736303030303027D7
:101B7000207374796C653D2777696474683A3830EE
:101B800070783B272076616C75653D270027206FB4
:101B90006E6368616E67653D2773656E64436F6D44
:101BA0006D616E642822616E61496E70757443794F
:101BB000636C65222C746869732E76616C75652977
:101BC000273E206D733C2F74643E3C2F74723E3C64
:101BD00074723E3C74643E50756C7365732053653B
:101BE0006E64204379636C653C2F74643E3C74647E
:101BF0003E3C696E70757420747970653D276E7512
:101C00006D626572272069643D2770756C7365533A
:101C1000656E644379636C6527206D696E3D27327C
:101C200030303027206D61783D273630303030300D
:101C300027207374796C653D2777696474683A3836
:101C40003070783B272076616C75653D2700272032
:101C50006F6E6368616E67653D2773656E64436F81
:101C60006D6D616E6428226F6E6557697265437988
:101C7000636C65222C746869732E76616C756529B6
:101C8000273E206D733C2F74643E3C2F74723E3CA3
:101C900074723E3C74643E416E616C6F6720496EA5
:101CA000707574204379636C653C2F74643E3C749A
:101CB000643E3C696E70757420747970653D276E62
:101CC000756D626572272069643D27616E61496E9A
:101CD0007075744379636C6527206D696E3D27329A
:101CE00030303027206D61783D273630303030304D
:101CF00027207374796C653D2777696474683A3876
:101D00003070783B272076616C75653D27003C2F4D
:101D100074643E3C2F74723E3C2F7461626C653E6D
:101D20003C2F74643E3C74642077696474683D277A
:101D3000353025273E3C68333E4F7468657220730A
:101D4000657474696E67733C2F68333E3C746162DE
:101D50006C6520636C6173733D276F746865722DC9
:101D600073657474696E67732D7461626C65273E68
:101D70003C74723E3C74643E312D57697265204359
:101D800079636C653C2F74643E3C74643E3C696EC0
:101D900070757420747970653D276E756D6265721B
:101DA000272069643D276F6E6557697265437963C3
:101DB0006C6527206D696E3D273530303027206DEA
:101DC00061783D2736303030303027207374796C9D
:101DD000653D2777696474683A383070783B27200E
:101DE00076616C75653D27003C2F74643E3C2F7412
:101DF000723E3C74723E3C74643E3C2F74643E3CC4
:101E000074643E3C74723E3C74643E3C2F74643E89
:101E10003C74643E3C2F74643E3C2F74723E003C24
:101E20002F74643E3C2F74723E3C74723E3C74646A
:101E30003E4669726D776172652076657273696F6F
:101E40006E3C2F74643E3C74643E0027206F6E63CA
:101E500068616E67653D2773656E64436F6D6D6184
:101E60006E64282273657269616C4E756D6265726D
:101E7000222C746869732E76616C756529273E3C47
:101E80002F74643E3C2F74723E3C74723E3C74640A
:101E90003E48617264776172652076657273696F1E
:101EA0006E3C2F74643E3C74643E0027206F6E636A
:101EB00068616E67653D2773656E64436F6D6D6124
:101EC0006E6428226465736372697074696F6E2230
:101ED0002C746869732E76616C756529273E3C2FDA
:101EE00074643E3C2F74723E3C74723E3C74643E9B
:101EF00053657269616C204E756D6265723C2F741A
:101F0000643E3C74643E3C696E70757420747970F4
:101F1000653D2774657874272069643D2773657271
:101F200069616C4E756D62657227206D61786C65B4
:101F30006E6774683D273330272076616C75653D88
:101F400027003C2F74643E3C2F74723E3C74723EFA
:101F50003C74643E4465736372697074696F6E3C6F
:101F60002F74643E3C74643E3C696E7075742074DA
:101F70007970653D2774657874272069643D27640E
:101F800065736372697074696F6E27206D61786C18
:101F9000656E6774683D273330272076616C756500
:101FA0003D27003A0030003C2F74643E3C2F747291
:101FB0003E3C74723E3C74643E4D41432041646437
:101FC000726573733C2F74643E3C74643E003C2F16
:101FD00074643E3C2F74723E3C74723E3C74643EAA
:101FE000476174657761793C2F74643E3C74643E4C
:101FF000003C2F74643E3C2F74723E3C74723E3C35
:1020000074643E49502041646472657373202844AF
:10201000484350293C2F74643E3C74643E003C6449
:102020006976207374796C653D276D617267696E9E
:102030002D626F74746F6D3A313070783B273E3C7F
:102040007461626C6520636C6173733D276F757496
:102050006572273E3C74723E3C74642077696474F8
:10206000683D27353025273E3C68333E4261736921
:102070006320496E666F726D6174696F6E3C2F6884
:10208000333E3C7461626C6520636C6173733D2701
:1020900062617369632D696E666F2D7461626C6530
:1020A000273E3C74723E3C74643E44495020537752
:1020B0006974636820416464726573733C2F74644F
:1020C0003E3C74643E003C626F64793E3C646976D9
:1020D00020636C6173733D27636F6E7461696E6515
:1020E00072273E3C64697620636C6173733D27728E
:1020F000657365742D627574746F6E273E3C696EEE
:1021000070757420747970653D27627574746F6E94
:1021100027206F6E636C69636B3D2277696E646F15
:10212000772E6C6F636174696F6E2E687265663DA1
:10213000272F696E666F27222076616C75653D27B3
:1021400050726F746F636F6C20446F6373273E2609
:102150006E6273703B3C696E707574207479706543
:102160003D27627574746F6E27206F6E636C6963B0
:102170006B3D2277696E646F772E6F70656E2827CE
:1021800068747470733A2F2F6769746875622E6370
:102190006F6D2F5061765365646C2F5241494C44EA
:1021A00055494E4F272C20275F626C616E6B2729A3
:1021B000222076616C75653D2747697468756227D2
:1021C0003E266E6273703B3C696E70757420747944
:1021D00070653D27627574746F6E27206F6E636C37
:1021E00069636B3D22696628636F6E6669726D284C
:1021F00027546865206D6F64756C652077696C6C19
:10220000207265626F6F742E20436F6E74696E75F5
:10221000653F2729292077696E646F772E6C6F637D
:102220006174696F6E2E687265663D272F726562F4
:102230006F6F7427222076616C75653D2753617638
:1022400065265265626F6F74273E3C2F6469763E47
:102250003C68323E5261696C6475696E6F20436FF1
:102260006E74726F6C2050616E656C3C2F68323EEC
:10227000003C2F7363726970743E3C2F6865616423
:102280003E0066756E6374696F6E2073656E64439D
:102290006F6D6D616E6428706172616D2C76616C1A
:1022A0007565297B696628706172616D2E73746132
:1022B00072747357697468282768737327297C7C44
:1022C000706172616D2E7374617274735769746892
:1022D00028276C737327292970656E64696E6743BC
:1022E0006F6D6D616E64735B706172616D5D3D7485
:1022F0007275653B666574636828272F636F6D6D23
:10230000616E643F272B706172616D2B273D272B17
:1023100076616C7565292E7468656E2872657370B8
:102320006F6E73653D3E726573706F6E73652E746C
:102330006578742829292E7468656E286461746133
:102340003D3E7B696628706172616D2E73746172A7
:10235000747357697468282768737327297C7C70A5
:102360006172616D2E737461727473576974682839
:10237000276C737327292964656C65746520706503
:102380006E64696E67436F6D6D616E64735B7061DF
:1023900072616D5D3B7570646174655374617475D1
:1023A0007328293B7D293B7D646F63756D656E7471
:1023B0002E6164644576656E744C697374656E65F0
:1023C000722827444F4D436F6E74656E744C6F6175
:1023D000646564272C7570646174655374617475E9
:1023E00073293B00666F72286C657420693D303B31
:1023F000693C646174612E616C6961735F647332FE
:102400003433382E6C656E6774683B692B2B297BDF
:102410006C657420616C696173496E7075743D649C
:102420006F63756D656E742E676574456C656D655B
:102430006E74427949642827616C6961735F6473C3
:10244000323433385F272B28692B3129293B6966C1
:1024500028616C696173496E70757429616C69617A
:1024600073496E7075742E76616C75653D64617428
:10247000612E616C6961735F6473323433385B69F8
:102480005D7C7C27273B7D666F72286C65742069B4
:102490003D303B693C646174612E616C6961735FBE
:1024A000647331386232302E6C656E6774683B69D4
:1024B0002B2B297B6C657420616C696173496E708C
:1024C00075743D646F63756D656E742E67657445D4
:1024D0006C656D656E74427949642827616C696129
:1024E000735F647331386232305F272B28692B3178
:1024F00029293B696628616C696173496E7075743E
:1025000029616C696173496E7075742E76616C75A2
:10251000653D646174612E616C6961735F647331E0
:10252000386232305B695D7C7C27273B7D6C65744B
:10253000206465627567456E61626C65643D646FB9
:1025400063756D656E742E676574456C656D656E3B
:10255000744279496428276465627567456E6162D3
:102560006C656427293B6966286465627567456EFA
:1025700061626C6564296465627567456E61626C51
:1025800065642E76616C75653D646174612E646569
:10259000627567456E61626C65642E746F53747208
:1025A000696E6728293B6C65742073657269616C7C
:1025B0004E756D626572496E7075743D646F6375BA
:1025C0006D656E742E676574456C656D656E7442DD
:1025D000794964282773657269616C4E756D62650F
:1025E0007227293B69662873657269616C4E756D47
:1025F000626572496E7075742973657269616C4E9B
:10260000756D626572496E7075742E76616C756554
:102610003D646174612E73657269616C4E756D62A3
:1026200065727C7C27273B69662873657269616CDB
:102630004E756D626572496E707574297B69662886
:10264000646174612E73657269616C4C6F636B6554
:10265000642973657269616C4E756D626572496E4D
:102660007075742E636C6173734C6973742E61643E
:102670006428276E6F2D626F7264657227293B652F
:102680006C73652073657269616C4E756D626572FD
:10269000496E7075742E636C6173734C6973742E1C
:1026A00072656D6F766528276E6F2D626F72646537
:1026B0007227293B7D666972737455706461746515
:1026C0003D66616C73653B7D7D293B7D003B692BDD
:1026D0002B297B6C657420616C696173496E707520
:1026E000743D646F63756D656E742E676574456CBB
:1026F000656D656E74427949642827616C69617300
:102700005F616F5F272B28692B3129293B69662878
:10271000616C696173496E70757429616C6961736C
:10272000496E7075742E76616C75653D6461746177
:102730002E616C6961735F616E614F7574735B6963
:102740005D7C7C27273B7D00666F72286C6574205A
:10275000693D303B693C003B692B2B297B6C6574E0
:1027600020616C696173496E7075743D646F637547
:102770006D656E742E676574456C656D656E74422B
:102780007949642827616C6961735F6C73735F2793
:102790002B28692B3129293B696628616C69617393
:1027A000496E70757429616C696173496E707574D6
:1027B0002E76616C75653D646174612E616C696132
:1027C000735F6C73735B695D7C7C27273B7D006660
:1027D0006F72286C657420693D303B693C003B6931
:1027E0002B2B297B6C657420616C696173496E7059
:1027F00075743D646F63756D656E742E67657445A1
:102800006C656D656E74427949642827616C6961F5
:10281000735F6873735F272B28692B3129293B6904
:102820006628616C696173496E70757429616C69A1
:102830006173496E7075742E76616C75653D646167
:1028400074612E616C6961735F6873735B695D7C31
:102850007C27273B7D00666F72286C657420693D7C
:10286000303B693C003B692B2B297B6C65742061F4
:102870006C696173496E7075743D646F63756D65E5
:102880006E742E676574456C656D656E744279492A
:10289000642827616C6961735F72656C61795F2779
:1028A0002B28692B3129293B696628616C69617382
:1028B000496E70757429616C696173496E707574C5
:1028C0002E76616C75653D646174612E616C696121
:1028D000735F72656C6179735B695D7C7C27273BF4
:1028E0007D00666F72286C657420693D303B693CE1
:1028F000003B692B2B297B6C657420616E614F75E1
:10290000743D646F63756D656E742E676574456C98
:10291000656D656E74427949642827616E614F75F3
:10292000745F272B28692B3129293B696628616E42
:10293000614F757429616E614F75742E76616C7587
:10294000653D646174612E616E614F7574735B697E
:102950005D7C7C303B6C657420616E614F75745694
:102960006F6C746167653D646F63756D656E742E21
:10297000676574456C656D656E7442794964282796
:10298000616E614F7574566F6C74616765272B2893
:10299000692B3129293B696628616E614F75745630
:1029A0006F6C7461676529616E614F7574566F6CE9
:1029B000746167652E74657874436F6E74656E74A8
:1029C0003D2728272B646174612E616E614F7574F9
:1029D00073566F6C746167655B695D2E746F4669D1
:1029E0007865642831292B275629273B7D00666F9F
:1029F00072286C657420693D303B693C006966282B
:102A00006669727374557064617465297B6C657452
:102A1000206F6E65576972654379636C653D646FBD
:102A200063756D656E742E676574456C656D656E56
:102A3000744279496428276F6E65576972654379D6
:102A4000636C6527293B6966286F6E6557697265F7
:102A50004379636C65296F6E655769726543796365
:102A60006C652E76616C75653D646174612E6F6E68
:102A700065576972654379636C657C7C33303030AF
:102A8000303B6C657420616E61496E70757443797A
:102A9000636C653D646F63756D656E742E676574F8
:102AA000456C656D656E74427949642827616E6175
:102AB000496E7075744379636C6527293B69662894
:102AC000616E61496E7075744379636C6529616EDE
:102AD00061496E7075744379636C652E76616C75AF
:102AE000653D646174612E616E61496E70757443F9
:102AF00079636C657C7C31303030303B6C657420A0
:102B00007573655544506374726C3D646F63756D85
:102B1000656E742E676574456C656D656E7442797B
:102B2000496428277573655544506374726C27296E
:102B30003B6966287573655544506374726C2975DA
:102B400073655544506374726C2E76616C75653D87
:102B5000646174612E7573655544506374726C2E94
:102B6000746F537472696E6728293B6C65742070AA
:102B7000756C73654F6E3D646F63756D656E742E15
:102B8000676574456C656D656E7442794964282784
:102B900070756C73654F6E27293B69662870756C7C
:102BA00073654F6E2970756C73654F6E2E76616C10
:102BB00075653D646174612E70756C73654F6E2E22
:102BC000746F537472696E6728293B6C6574206753
:102BD000617465776179456E61626C65643D646FAF
:102BE00063756D656E742E676574456C656D656E95
:102BF0007442794964282767617465776179456E05
:102C000061626C656427293B696628676174657732
:102C10006179456E61626C6564296761746577618D
:102C200079456E61626C65642E76616C75653D6494
:102C30006174612E67617465776179456E61626C5C
:102C400065642E746F537472696E6728293B6C65D6
:102C5000742070756C736553656E644379636C653D
:102C60003D646F63756D656E742E676574456C6544
:102C70006D656E7442794964282770756C7365536D
:102C8000656E644379636C6527293B6966287075B6
:102C90006C736553656E644379636C652970756CFC
:102CA000736553656E644379636C652E76616C75EC
:102CB000653D646174612E70756C736553656E64F7
:102CC0004379636C657C7C31303030303B6C6574AB
:102CD00020636865636B496E74657276616C3D64F0
:102CE0006F63756D656E742E676574456C656D6593
:102CF0006E74427949642827636865636B496E7412
:102D0000657276616C27293B696628636865636B29
:102D1000496E74657276616C29636865636B496E90
:102D200074657276616C2E76616C75653D64617454
:102D3000612E636865636B496E74657276616C7C45
:102D40007C31303030303B6C657420626175645288
:102D50006174653D646F63756D656E742E6765742F
:102D6000456C656D656E74427949642827626175AA
:102D7000645261746527293B6966286261756452F3
:102D80006174652962617564526174652E76616C47
:102D900075653D646174612E62617564526174652C
:102DA0007C7C3131353230303B6966287570646126
:102DB0007465496E74657276616C496429636C65EB
:102DC0006172496E74657276616C287570646174A5
:102DD00065496E74657276616C4964293B757064EF
:102DE000617465496E74657276616C49643D7365A2
:102DF00074496E74657276616C287570646174656F
:102E00005374617475732C32303030293B00666F17
:102E100072286C657420693D303B693C6461746163
:102E20002E647331386232302E6C656E6774683B85
:102E3000692B2B297B6C657420736E456C656D3D29
:102E4000646F63756D656E742E676574456C656D32
:102E5000656E744279496428276473313862323070
:102E60005F736E272B28692B3129293B6C657420F1
:102E700074656D70456C656D3D646F63756D656EF1
:102E8000742E676574456C656D656E74427949642E
:102E90002827647331386232305F74656D70272B78
:102EA00028692B3129293B696628736E456C656D4D
:102EB000262674656D70456C656D297B736E456C57
:102EC000656D2E74657874436F6E74656E743D64C1
:102ED0006174612E647331386232305B695D2E73C8
:102EE0006E3B74656D70456C656D2E7465787443CA
:102EF0006F6E74656E743D646174612E64733138F5
:102F00006232305B695D2E74656D702B2743273B01
:102F10007D7D00666F72286C657420693D303B6969
:102F20003C646174612E6473323433382E6C656E88
:102F30006774683B692B2B297B6C657420736E4525
:102F40006C656D3D646F63756D656E742E67657439
:102F5000456C656D656E74427949642827647332E7
:102F60003433385F736E272B28692B3129293B6C4A
:102F700065742074656D70456C656D3D646F637537
:102F80006D656E742E676574456C656D656E744213
:102F900079496428276473323433385F74656D70FF
:102FA000272B28692B3129293B6C657420766164B5
:102FB000456C656D3D646F63756D656E742E6765F8
:102FC00074456C656D656E74427949642827647335
:102FD000323433385F766164272B28692B312929F5
:102FE0003B6C6574207673656E73456C656D3D64EE
:102FF0006F63756D656E742E676574456C656D6580
:103000006E744279496428276473323433385F76AA
:1030100073656E73272B28692B3129293B69662834
:10302000736E456C656D262674656D70456C656DB7
:103030002626766164456C656D26267673656E730B
:10304000456C656D297B736E456C656D2E74657876
:1030500074436F6E74656E743D646174612E647345
:10306000323433385B695D2E736E3B74656D704529
:103070006C656D2E74657874436F6E74656E743D07
:10308000646174612E6473323433385B695D2E740D
:10309000656D702B2743273B766164456C656D2E0B
:1030A00074657874436F6E74656E743D64617461A9
:1030B0002E6473323433385B695D2E7661642B275E
:1030C00056273B7673656E73456C656D2E74657817
:1030D00074436F6E74656E743D646174612E6473C5
:1030E000323433385B695D2E7673656E732B2756E9
:1030F000273B7D7D003B692B2B297B6C6574206110
:103100006E614F75743D646F63756D656E742E6787
:103110006574456C656D656E7442794964282761F4
:103120006E614F75745F272B28692B3129293B6904
:103130006628616E614F757429616E614F75742EDA
:1031400076616C75653D646174612E616E614F7569
:1031500074735B695D7C7C303B6C657420616E616F
:103160004F7574566F6C746167653D646F63756D00
:10317000656E742E676574456C656D656E74427915
:1031800049642827616E614F7574566F6C7461676E
:1031900065272B28692B3129293B696628616E61D7
:1031A0004F7574566F6C7461676529616E614F75F8
:1031B00074566F6C746167652E74657874436F6EB6
:1031C00074656E743D2728272B646174612E616ECF
:1031D000614F757473566F6C746167655B695D2EC2
:1031E000746F46697865642831292B275629273B57
:1031F0007D00666F72286C657420693D303B693CC8
:1032000000666F72286C657420693D303B693C64D0
:103210006174612E616E61496E707574732E6C6598
:103220006E6774683B692B2B297B6C657420737403
:1032300061747573456C656D3D646F63756D656E26
:10324000742E676574456C656D656E74427949646A
:10325000282761695F737461747573272B28692B44
:103260003129293B696628737461747573456C65EF
:103270006D29737461747573456C656D2E74657812
:1032800074436F6E74656E743D646174612E616E1B
:1032900061496E707574735B695D2B272028272B3D
:1032A000646174612E616E61496E70757473566FDE
:1032B0006C746167655B695D2E746F4669786564DF
:1032C0002831292B275629273B7D00666F72286CF1
:1032D000657420693D303B693C646174612E6469AA
:1032E00067496E707574732E6C656E6774683B69A0
:1032F0002B2B297B6C657420737461747573456C1A
:10330000656D3D646F63756D656E742E676574459C
:103310006C656D656E7442794964282764695F73D2
:103320007461747573272B28692B3129293B6966D1
:1033300028737461747573456C656D297B6C657455
:1033400020737461747573546578743D646174613D
:103350002E646967496E707574735B695D3B69665D
:1033600028646174612E70756C73654F6E26262813
:10337000693D3D3D397C7C693D3D3D31307C7C691A
:103380003D3D3D31312929737461747573546578FD
:10339000742B3D272028636F756E743A20272B64A9
:1033A0006174612E70756C7365436F756E74735BB9
:1033B000692D395D2B2729273B737461747573451B
:1033C0006C656D2E74657874436F6E74656E743DB4
:1033D000737461747573546578743B7D7D003B69CB
:1033E0002B2B297B6C6574206C73733D646F637544
:1033F0006D656E742E676574456C656D656E74429F
:1034000079496428276C7373272B28692B31292964
:103410003B6C6574206C737350574D3D646F6375DE
:103420006D656E742E676574456C656D656E74426E
:1034300079496428276C737350574D272B28692BC3
:103440003129293B6966286C73732626646174618F
:103450002E6C73732626646174612E6C73735B69C2
:103460005D213D3D756E646566696E656426262145
:1034700070656E64696E67436F6D6D616E64735BDA
:10348000276C7373272B28692B31295D296C737383
:103490002E636865636B65643D646174612E6C7353
:1034A000735B695D3D3D3D313B6966286C737350CC
:1034B000574D2626646174612E6C737350574D26E8
:1034C00026646174612E6C737350574D5B695D2186
:1034D0003D3D756E646566696E6564262677696E26
:1034E000646F772E61637469766550574D466965E0
:1034F0006C64213D3D276C737350574D272B286911
:103500002B3129296C737350574D2E76616C75657C
:103510003D646174612E6C737350574D5B695D7CC3
:103520007C303B7D00666F72286C657420693D308D
:103530003B693C003B692B2B297B6C6574206873CD
:10354000733D646F63756D656E742E676574456C4D
:10355000656D656E74427949642827687373272BFB
:1035600028692B3129293B6C657420687373505787
:103570004D3D646F63756D656E742E676574456C43
:10358000656D656E74427949642827687373505776
:103590004D272B28692B3129293B696628687373CD
:1035A0002626646174612E687373262664617461D3
:1035B0002E6873735B695D213D3D756E6465666958
:1035C0006E656426262170656E64696E67436F6D53
:1035D0006D616E64735B27687373272B28692B31C9
:1035E000295D296873732E636865636B65643D6448
:1035F0006174612E6873735B695D3D3D3D313B696C
:10360000662868737350574D2626646174612E686E
:10361000737350574D2626646174612E687373501E
:10362000574D5B695D213D3D756E646566696E65EC
:1036300064262677696E646F772E61637469766598
:1036400050574D4669656C64213D3D276873735042
:10365000574D272B28692B31292968737350574DF3
:103660002E76616C75653D646174612E687373506C
:10367000574D5B695D7C7C303B7D00666F72286CCA
:10368000657420693D303B693C003B692B2B297BED
:103690006C65742072656C61793D646F63756D65EE
:1036A0006E742E676574456C656D656E74427949FC
:1036B00064282772656C6179272B28692B312929A9
:1036C0003B69662872656C61792972656C61792E37
:1036D000636865636B65643D646174612E72656CDB
:1036E0006179735B695D3B7D00666F72286C657400
:1036F00020693D303B693C00666574636828272F6C
:1037000073746174757327292E7468656E287265E9
:1037100073706F6E7365203D3E20726573706F6EBF
:1037200073652E6A736F6E2829292E7468656E285A
:1037300064617461203D3E207B0066756E63746930
:103740006F6E20757064617465537461747573284D
:10375000297B006C657420666972737455706461AE
:1037600074653D747275653B6C6574206163746942
:10377000766550574D4669656C643D6E756C6C3B63
:103780006C65742070656E64696E67436F6D6D6102
:103790006E64733D7B7D3B6C6574207570646174F1
:1037A00065496E74657276616C49643D6E756C6CCA
:1037B0003B003C7363726970743E003C21444F438C
:1037C000545950452048544D4C3E3C68746D6C3EF5
:1037D0003C686561643E3C6D65746120636861723C
:1037E0007365743D225554462D38223E3C746974ED
:1037F0006C653E5261696C6475696E6F20436F6ED3
:1038000074726F6C3C2F7469746C653E3C73747990
:103810006C653E626F64797B666F6E742D66616D58
:10382000696C793A417269616C2C73616E732D73A6
:10383000657269663B666F6E742D73697A653A319D
:103840003470783B706F736974696F6E3A72656C2F
:1038500061746976653B7D2E636F6E7461696E6518
:10386000727B77696474683A3130303070783B6DC0
:10387000617267696E3A30206175746F3B706F7367
:103880006974696F6E3A72656C61746976653B7DC7
:1038900068312C68322C68337B666F6E742D6661DC
:1038A0006D696C793A417269616C2C73616E732D2C
:1038B00073657269663B636F6C6F723A233434349C
:1038C0003B7D7461626C652E696E6E65727B626FA2
:1038D000726465722D636F6C6C617073653A636FAF
:1038E0006C6C617073653B77696474683A31303031
:1038F000253B6261636B67726F756E642D636F6CDD
:103900006F723A236638663966613B7D7461626C1A
:10391000652E6F757465727B626F726465723A3181
:10392000707820736F6C696420236363633B7769ED
:103930006474683A313030253B626F726465722D71
:103940007261646975733A3870783B6F7665726638
:103950006C6F773A68696464656E3B626F782D734B
:103960006861646F773A302034707820387078203E
:103970007267626128302C302C302C302E31293B7C
:103980006261636B67726F756E642D636F6C6F72CB
:103990003A236638663966613B70616464696E67B4
:1039A0003A302030203130707820313570787D7495
:1039B000647B766572746963616C2D616C69676E96
:1039C0003A6D6964646C653B666F6E742D73697AD9
:1039D000653A313470783B70616464696E673A327D
:1039E00070783B7D696E7075742C73656C6563745B
:1039F0007B666F6E742D73697A653A313470783BEB
:103A0000636F6C6F723A233535353B70616464695E
:103A10006E673A3370783B626F726465723A3170E8
:103A20007820736F6C696420236363633B626F72F9
:103A30006465722D7261646975733A3470783B62A3
:103A40006F782D736861646F773A696E736574205F
:103A500030203170782032707820726762612830AF
:103A60002C302C302C302E31293B7472616E7369EE
:103A700074696F6E3A616C6C20302E327320656110
:103A800073653B7D696E7075743A666F6375732CF0
:103A900073656C6563743A666F6375737B626F728E
:103AA0006465722D636F6C6F723A2338306264669E
:103AB000663B6F75746C696E653A6E6F6E653B62DE
:103AC0006F782D736861646F773A302030203570DD
:103AD00078207267626128302C3132332C323535D0
:103AE0002C302E35293B7D696E7075743A686F767F
:103AF00065722C73656C6563743A686F7665727B6A
:103B0000626F726465722D636F6C6F723A2339391C
:103B1000393B7D2E72657365742D627574746F6E9A
:103B20007B706F736974696F6E3A6162736F6C75E5
:103B300074653B746F703A3070783B726967687473
:103B40003A3070783B7D2E72657365742D627574A2
:103B5000746F6E20696E7075747B70616464696ED9
:103B6000673A3570783B7D74727B68656967687405
:103B70003A323670783B7D7461626C652E696E6E88
:103B800065722074643A66697273742D6368696C37
:103B9000647B77696474683A31303070783B7D7447
:103BA00061626C652E696E6E65722074643A666936
:103BB0007273742D6368696C643A686F7665727BA2
:103BC000637572736F723A20706F696E7465723BC1
:103BD0007D7461626C652E696E6E65722074643AE4
:103BE0006E74682D6368696C642832297B77696418
:103BF00074683A383070783B7D7461626C652E620F
:103C0000617369632D696E666F2D7461626C6520E6
:103C100074643A66697273742D6368696C647B7747
:103C2000696474683A31383070783B7D7461626CD5
:103C3000652E6F746865722D73657474696E677331
:103C40002D7461626C652074643A66697273742DB8
:103C50006368696C647B77696474683A3230307089
:103C6000783B7D7461626C652E6F6E6577697265F5
:103C70002D7461626C652074643A66697273742D88
:103C80006368696C647B77696474683A383070780B
:103C90003B666F6E742D73697A653A313370783B89
:103CA0007D7461626C652E6F6E65776972652D74C7
:103CB00061626C652074643A6E74682D6368696C27
:103CC000642832297B77696474683A3133307078BC
:103CD0003B666F6E742D73697A653A313370783B49
:103CE0007D7461626C652E6F6E65776972652D7487
:103CF00061626C652074643A6E74682D6368696CE7
:103D0000642833292C7461626C652E6F6E65776947
:103D100072652D7461626C652074643A6E74682DEE
:103D20006368696C642834292C7461626C652E6F39
:103D30006E65776972652D7461626C652074643A92
:103D40006E74682D6368696C642835297B776964B3
:103D500074683A343070783B666F6E742D73697A8C
:103D6000653A313370783B7D7461626C652E6F6E9D
:103D700065776972652D7461626C6520696E707516
:103D8000747B77696474683A31323070783B7D2E89
:103D90006E6F2D626F726465727B626F72646572A2
:103DA0003A6E6F6E653B7D3C2F7374796C653E0097
:103DB000436F6E6E656374696F6E3A20636C6F73E8
:103DC0006500436F6E74656E742D547970653A208A
:103DD000746578742F68746D6C3B206368617273CE
:103DE00065743D5554462D3800485454502F312E9B
:103DF0003120323030204F4B002048545450003F87
:103E00006C6F636B3D003F6C6F636B3D00474554C7
:103E1000202F3F00474554202F20007265736574A2
:103E20003D310020757064617465643A2000416E14
:103E3000616C6F67204F7574707574200020757009
:103E400064617465643A20004C53532000207570FF
:103E500064617465643A20004853532000207570F3
:103E600064617465643A200052656C6179200020B9
:103E7000757064617465643A2000616C6961735F98
:103E8000647331386232305F00616C6961735F6402
:103E90007331386232305F0020757064617465641C
:103EA0003A2000616C6961735F6473323433385F48
:103EB00000616C6961735F6473323433385F002072
:103EC000757064617465643A2000616C6961735F48
:103ED000616E614F75745F00616C6961735F616EE3
:103EE000614F75745F0020757064617465643A2079
:103EF00000616C6961735F616E61496E7075745FBA
:103F000000616C6961735F616E61496E7075745FA9
:103F10000020757064617465643A2000616C6961A9
:103F2000735F646967496E7075745F00616C696185
:103F3000735F646967496E7075745F0020757064A3
:103F4000617465643A2000616C6961735F6C7373BE
:103F50005F00616C6961735F6C73735F00207570E3
:103F600064617465643A2000616C6961735F6873B1
:103F7000735F00616C6961735F6873735F002075C4
:103F80007064617465643A2000616C6961735F728A
:103F9000656C61795F00616C6961735F72656C610A
:103FA000795F004F75747075747320636F6E7472EF
:103FB0006F6C2070726F746F636F6C206368616EDA
:103FC0006765643A20007573655544506374726C7C
:103FD0003D007573655544506374726C3D004761D4
:103FE000746577617920656E61626C6564207570B7
:103FF00064617465643A200067617465776179452E
:104000006E61626C65643D006761746577617945D6
:104010006E61626C65643D006465627567456E61E2
:10402000626C656420757064617465643A20006434
:1040300065627567456E61626C65643D00646562CA
:104040007567456E61626C65643D0070756C736583
:104050004F6E20757064617465643A200070756CF1
:1040600073654F6E3D0070756C73654F6E3D005209
:10407000533438352042617564207261746520754F
:104080007064617465643A200062617564526174A1
:10409000653D0062617564526174653D00636865E9
:1040A000636B496E74657276616C207570646174BF
:1040B00065643A2000636865636B496E7465727667
:1040C000616C3D00636865636B496E74657276610F
:1040D0006C3D0070756C736553656E644379636CF9
:1040E0006520757064617465643A200070756C7346
:1040F0006553656E644379636C653D0070756C73E0
:104100006553656E644379636C653D00616E61491A
:104110006E7075744379636C652075706461746545
:10412000643A2000616E61496E7075744379636C06
:10413000653D00616E61496E7075744379636C65AD
:104140003D006F6E65576972654379636C652075D4
:104150007064617465643A20006F6E6557697265BA
:104160004379636C653D006F6E655769726543798D
:10417000636C653D004465736372697074696F6E4A
:1041800020757064617465643A20006465736372BD
:10419000697074696F6E3D006465736372697074F1
:1041A000696F6E3D0053657269616C206E756D625A
:1041B000657220757064617465643A20007365727D
:1041C00069616C4E756D6265723D007365726961FF
:1041D0006C4E756D6265723D004F4B00436F6E6EA5
:1041E000656374696F6E3A20636C6F736500436F2B
:1041F0006E74656E742D547970653A2074657874A8
:104200002F706C61696E00485454502F312E31204C
:10421000323030204F4B003C2F626F64793E3C2F90
:1042200068746D6C3E003C2F6469763E000A202065
:1042300020203C68333E4164646974696F6E616C30
:10424000204E6F7465733C2F68333E0A2020202077
:104250003C7072653E0A436F6D62696E6174696F8E
:104260006E206F662031776972652073656E736F9B
:104270007273206D75737420626520757020746F81
:10428000203130706373206D6178696D756D202801
:1042900044533138423230206F7220445332343329
:1042A00038290A5573696E672052533438352074A3
:1042B0006865205544502073796E746178206D755F
:1042C00073742068617665205C6E2073796D626F0F
:1042D0006C2061742074686520656E64206F6620B0
:1042E00074686520636F6D6D616E64206C696E65C6
:1042F0000A202020203C2F7072653E0A3C2F626FFE
:1043000064793E0A3C2F68746D6C3E0A000A4D4F7A
:1043100044425553205265676973746572204D613C
:10432000700A0A7265676973746572206E756D62D2
:1043300065722028322062797465732920206465B3
:10434000736372697074696F6E0A30202D20626920
:10435000747320302D372020202020202020202082
:10436000202020202072656C6179206F7574707533
:10437000747320312D380A31202D20626974732026
:1043800031362D31392020202020202020202020CF
:10439000202072656C6179206F757470757473205C
:1043A000392D31320A32202D206269747320333264
:1043B0002D333920202020202020202020202020C4
:1043C0006469676974616C206F75747075747320AB
:1043D00048535320312D342C204C535320312D344D
:1043E0000A33202D204C534220627974652020200E
:1043F000202020202020202020202020485353202F
:1044000050574D2076616C756520312028302D3253
:104410003535290A34202D204C53422062797465A9
:104420002020202020202020202020202020204864
:1044300053532050574D2076616C756520322028EB
:10444000302D323535290A35202D204C534220623B
:10445000797465202020202020202020202020206A
:1044600020204853532050574D2076616C756520AD
:10447000332028302D323535290A36202D204C5353
:1044800042206279746520202020202020202020D6
:1044900020202020204853532050574D2076616C17
:1044A000756520342028302D323535290A37202DE6
:1044B000204C534220627974652020202020202047
:1044C00020202020202020204C53532050574D20C6
:1044D00076616C756520312028302D323535290AFA
:1044E00038202D204C5342206279746520202020F2
:1044F00020202020202020202020204C53532050FA
:10450000574D2076616C756520322028302D32356C
:1045100035290A39202D204C5342206279746520B8
:1045200020202020202020202020202020204C532C
:10453000532050574D2076616C756520332028300C
:104540002D323535290A3130202D204C534220623E
:104550007974652020202020202020202020202069
:10456000204C53532076616C756520342028302010
:104570006F7220323535290A3131202D204C5342BB
:1045800020627974652020202020202020202020F7
:10459000202020616E616C6F67206F757470757478
:1045A00020312028302D323535290A3132202D2076
:1045B0004C53422062797465202020202020202046
:1045C000202020202020616E616C6F67206F757441
:1045D00070757420322028302D323535290A313358
:1045E000202D2062697473203230382D323135200D
:1045F0002020202020202020206469676974616CBD
:1046000020696E7075747320312D380A3134202D75
:104610002062697473203232342D323331202020ED
:10462000202020202020206469676974616C206943
:104630006E7075747320392D31360A3135202D2076
:1046400062697473203234302D32343720202020B8
:104650002020202020206469676974616C20696EC5
:10466000707574732031372D32340A3136202D2085
:104670004C53422062797465202020202020202085
:10468000202020202020616E616C6F6720696E7091
:10469000757420312028302D31303233290A3137DA
:1046A000202D204C53422062797465202020202048
:1046B000202020202020202020616E616C6F672048
:1046C000696E70757420322028302D3130323329D4
:1046D0000A3138202D206269742032383820202099
:1046E000202020202020202020202020726573659B
:1046F00074200A3139202D204C5342206279746590
:104700002020202020202020202020202020317345
:1047100074204453323433382054656D7020287629
:10472000616C7565206D756C7469706C6965642069
:10473000627920313030290A3230202D204C53420A
:104740002062797465202020202020202020202035
:104750002020203173742044533234333820566182
:1047600064202876616C7565206D756C7469706C59
:1047700069656420627920313030290A3231202D78
:10478000204C534220627974652020202020202074
:1047900020202020202020317374204453323433D1
:1047A00038205673656E73202876616C7565206DB0
:1047B000756C7469706C6965642062792031303081
:1047C000290A2D20202020202020202020202020E9
:1047D0002020202020202020202020200A343620C5
:1047E0002D204C5342206279746520202020202007
:1047F00020202020202020204453323433382076BB
:10480000616C7565732028757020746F20313020BD
:1048100073656E736F7273290A34372D3537202014
:104820002020202020202020202020202020202088
:1048300020202020445331384232302054656D709E
:10484000657261747572652028757020746F2031EF
:10485000302073656E736F727329202876616C75D2
:1048600065206D756C7469706C696564206279206F
:10487000313030290A3C2F7072653E0A000A202030
:1048800020203C68333E4D4F444255533C2F683303
:104890003E0A202020203C7072653E0A4D4F444263
:1048A00055532054435020636F6D6D616E64733AAD
:1048B00020464331202D20464331360A4D4F444295
:1048C00055532052545520636F6D6D616E64733A79
:1048D000204643332C204643362C20464331360AAB
:1048E0000A5265676973746572732061726520325C
:1048F00020627974657320283136206269747329C7
:10490000202D206F6E6C79206C6561737420736943
:10491000676E69666963616E7420627974652028C8
:104920004C53422920697320757365640A20202046
:10493000200A000A636F6D6D616E64733A0A20206D
:1049400072656C6179206F6E20636F6D6D616E644E
:104950003A2020202020202020202020202020203D
:104960007261696C3120726F3132206F6E0A2020C3
:1049700072656C6179206F666620636F6D6D616E24
:10498000643A2020202020202020202020202020C9
:104990007261696C3120726F35206F66660A202063
:1049A00068696768207369646520737769746368F0
:1049B000206F6E20636F6D6D616E643A2020202041
:1049C0007261696C3120686F32206F6E0A20206836
:1049D0006967682073696465207377697463682008
:1049E0006F666620636F6D6D616E643A2020207281
:1049F00061696C3120686F34206F66660A20206818
:104A000069676820736964652073776974636820D7
:104A100050574D20636F6D6D616E643A2020207297
:104A200061696C3120686F315F70776D203138308B
:104A30000A20206C6F77207369646520737769742E
:104A40006368206F6E20636F6D6D616E643A202025
:104A50002020207261696C31206C6F31206F6E0AEA
:104A600020206C6F772073696465207377697463A5
:104A700068206F666620636F6D6D616E643A2020FA
:104A800020207261696C31206C6F32206F66660A7B
:104A900020206C6F77207369646520737769746375
:104AA000682050574D20636F6D6D616E643A202011
:104AB00020207261696C31206C6F315F70776D20DE
:104AC0003138300A2020616E616C6F67206F757419
:104AD00070757420636F6D6D616E643A20202020C4
:104AE0002020202020207261696C3120616F3120EC
:104AF0003138300A2020726573657420636F6D6DE4
:104B0000616E643A202020202020202020202020B8
:104B10002020202020207261696C31207273740A79
:104B200064656661756C74207363616E206379637C
:104B30006C65733A0A202031776972652063796366
:104B40006C653A20202020202020202020202020BA
:104B5000202020202020203330303030206D730A78
:104B60002020616E616C6F6720696E7075742063C0
:104B700079636C653A2020202020202020202020EE
:104B800020203130303030206D730A202020203C2E
:104B90002F7072653E0A000A202020203C68333EB8
:104BA0005544503C2F68333E0A202020203C707230
:104BB000653E0A7369676E616C733A0A202044533C
:104BC00031384232302031776972652073656E73F7
:104BD0006F72207061636B65743A202020207261CF
:104BE000696C3120317720323836346663333030A7
:104BF000383038322032352E34340A2020445332B3
:104C00003433382031776972652073656E736F7243
:104C1000207061636B65743A2020202020726169E6
:104C20006C312031772032363132633331303230DB
:104C30003034662032352E343420312E3233203059
:104C40002E31320A20206469676974616C20696EB4
:104C50007075742073746174653A202020202020C0
:104C60002020202020207261696C3120646931206D
:104C7000310A2020616E616C6F6720696E707574F7
:104C80002073746174653A20202020202020202089
:104C9000202020207261696C31206169312031301F
:104CA00032300A000A3C21444F43545950452048B1
:104CB000544D4C3E0A3C68746D6C3E0A3C6865611C
:104CC000643E0A202020203C7469746C653E526169
:104CD000696C6475696E6F2050726F746F636F6C6E
:104CE00020446F63756D656E746174696F6E3C2FDF
:104CF0007469746C653E0A202020203C7374796CC2
:104D0000653E0A2020202020202020626F64792028
:104D10007B20666F6E742D66616D696C793A2041F7
:104D20007269616C2C2073616E732D736572696694
:104D30003B20666F6E742D73697A653A203134704A
:104D4000783B206D617267696E3A20323070783B33
:104D5000207D0A20202020202020202E636F6E74CA
:104D600061696E6572207B2077696474683A2031CE
:104D700030303070783B206D617267696E3A203058
:104D8000206175746F3B20706F736974696F6E3A40
:104D90002072656C61746976653B207D0A20202055
:104DA000202020202068322C206833207B20666F52
:104DB0006E742D66616D696C793A20417269616C1F
:104DC0002C2073616E732D73657269663B207D0ABA
:104DD0002020202020202020707265207B2062610E
:104DE000636B67726F756E643A202366346634664F
:104DF000343B2070616464696E673A2031307078AA
:104E00003B20626F726465723A2031707820736F54
:104E10006C696420236363633B2077686974652D44
:104E200073706163653A207072652D777261703BB3
:104E3000207D0A202020203C2F7374796C653E0A67
:104E40003C2F686561643E0A3C626F64793E0A20CB
:104E50002020203C64697620636C6173733D276376
:104E60006F6E7461696E6572273E0A202020203CB7
:104E700068323E5261696C6475696E6F2046697272
:104E80006D7761726520446F63756D656E746174D2
:104E9000696F6E3C2F68323E0A00436F6E6E656329
:104EA00074696F6E3A20636C6F736500436F6E7444
:104EB000656E742D547970653A20746578742F6826
:104EC000746D6C00485454502F312E3120323030E4
:104ED000204F4B003C2F626F64793E3C2F68746D0D
:104EE0006C3E003C7363726970743E736574546900
:104EF0006D656F75742866756E6374696F6E2829A9
:104F00007B77696E646F772E6C6F636174696F6E07
:104F10002E687265663D272F273B7D2C203530306B
:104F200030293B3C2F7363726970743E003C6833D8
:104F30003E5265626F6F74696E672E2E2E3C2F682D
:104F4000333E003C68746D6C3E3C626F64793E0099
:104F50003C21444F43545950452048544D4C3E0049
:104F6000436F6E6E656374696F6E3A20636C6F7326
:104F70006500436F6E74656E742D547970653A20C8
:104F8000746578742F68746D6C00485454502F31D8
:104F90002E3120323030204F4B007D005D005D000F
:104FA0002C002200220022616C6961735F647331FE
:104FB00038623230223A5B005D2C005D2C002C0000
:104FC0002200220022616C6961735F6473323433A2
:104FD00038223A5B005D2C002C0022002200226166
:104FE0006C6961735F616E614F757473223A5B0027
:104FF0005D2C002C002200220022616C6961735F2D
:10500000616E61496E70757473223A5B005D2C00AD
:105010002C002200220022616C6961735F64696761
:10502000496E70757473223A5B005D2C002C00226F
:1050300000220022616C6961735F6C7373223A5BBA
:10504000005D2C002C002200220022616C6961733B
:105050005F687373223A5B005D2C002C00220022F3
:105060000022616C6961735F72656C617973223AC9
:105070005B005D2C002C0022616E614F75747356CD
:105080006F6C74616765223A5B005D2C002C002216
:10509000616E61496E70757473566F6C746167658B
:1050A000223A5B002C0022626175645261746522B1
:1050B0003A00222C00226465736372697074696F10
:1050C0006E223A22002C002273657269616C4C6F6B
:1050D000636B6564223A00222C0022736572696159
:1050E0006C4E756D626572223A22002C0022646556
:1050F000627567456E61626C6564223A002C00221D
:10510000636865636B496E74657276616C223A0000
:105110002C002267617465776179456E61626C6508
:1051200064223A002C002270756C736553656E64BE
:105130004379636C65223A002C002270756C7365AC
:105140004F6E223A002C00227573655544506374EB
:10515000726C223A002C0022616E61496E70757487
:105160004379636C65223A002C00226F6E655769A3
:1051700072654379636C65223A005D2C002C002C2B
:10518000002270756C7365436F756E7473223A5BA1
:10519000005D2C005D2C002C007D00222C2274650B
:1051A0006D70223A007B22736E223A2200226473D1
:1051B0003138623230223A5B005D2C005D2C002CCD
:1051C000007D002C227673656E73223A002C2276C5
:1051D0006164223A00222C2274656D70223A007BB1
:1051E00022736E223A220022647332343338223A18
:1051F0005B005D2C002C0022616E61496E7075743D
:1052000073223A5B005D2C002C0022646967496EB2
:1052100070757473223A5B005D2C002C0022616E65
:10522000614F757473223A5B005D2C002C00226C78
:10523000737350574D223A5B005D2C002C0022689E
:10524000737350574D223A5B005D2C002C00226C8A
:105250007373223A5B005D2C002C0022687373226A
:105260003A5B005D2C002C002272656C6179732220
:105270003A5B007B00485454502F312E312032309D
:1052800030204F4B0A436F6E74656E742D547970E5
:10529000653A206170706C69636174696F6E2F6A22
:1052A000736F6E0A436F6E6E656374696F6E3A203A
:1052B000636C6F73650A00454550524F4D20696E0F
:1052C000697469616C697A656420776974682064BF
:1052D000656661756C742076616C756573007261CA
:1052E000696C00444843502072656E6577206661A2
:1052F000696C004448435020726562696E64206F97
:105300006B004448435020726562696E6420666198
:10531000696C00444843502072656E6577206F6B5E
:105320000045746865726E657420636F6E6E6563A8
:1053300074696F6E206661696C65642C2072657398
:10534000657474696E672E00616900727374006120
:105350006F006C6F00686F00726F0064690000007E
:105360002100240027002A002D0030003300010115
:105370000000040107010A0100000A0B02090C0DDC
:105380000E080703040100000000000000000000F8
:10539000000000000000000000000000000000000D
:1053A00000000000121110000000000000000000CA
:1053B0000000000000000000000000000000005E8F
:1053C000BCE2613FDD83C29C7E20A3FD1F419DC3E3
:1053D000217FFCA2401E5F01E3BD3E6082DC237D95
:1053E0009FC1421CFEA0E1BF5D0380DE3C62BEE0C7
:1053F000025CDF81633D7C22C09E1D43A1FF4618F5
:10540000FAA427799BC584DA3866E5BB5907DB85A2
:105410006739BAE406581947A5FB7826C49A653B54
:10542000D987045AB8E6A7F91B45C6987A24F8A686
:10543000441A99C7257B3A6486D85B05E7B98CD2B4
:10544000306EEDB3510F4E10F2AC2F7193CD114F62
:10545000ADF3702ECC92D38D6F31B2EC0E50AFF114
:10546000134DCE90722C6D33D18F0C52B0EE326C46
:105470008ED0530DEFB1F0AE4C1291CF2D73CA9474
:105480007628ABF517490856B4EA6937D58B570922
:10549000EBB536688AD495CB2977F4AA4816E9B7D4
:1054A000550B88D6346A2B7597C94A14F6A8742A06
:1054B000C896154BA9F7B6E80A54D7896B35000092
:1054C0002200250028002B002E00310034000201AC
:1054D0000000050108010B01000020002300260048
:1054E00029002C002F0032000001000003010601FA
:1054F000090105050505070508080808020202025A
:105500000A0A08080404040401010101010101015F
:105510000303030303030303040707070C0C0C0C2A
:105520000C0C0C0C02020202060606060606060613
:105530000B0B0B0B0B0B0B0B0102102020080810A0
:1055400020401020408002010201080402010102F3
:1055500004081020408080402010080402018004CC
:105560000201804020100804020108040201010227
:105570000408102040800102040810204080EF80C1
:10558000819511241FBECFEFD1E2DEBFCDBF00E079
:105590000CBF16E0A0E0B2E0E4EEF5E401E00BBFE2
:1055A00002C007900D92AE35B107D9F721E1AEE503
:1055B000B6E001C01D92A031B207E1F71AE2C0ECDB
:1055C000DAE200E006C021970109802FFE010E9467
:1055D000549DCF3BD10780E00807A9F70E945D8268
:1055E0000C94E0A20C940000CF92DF92EF92FF9215
:1055F000CF93DF93EC016A017B01E889F98982E0AE
:105600008083C11481EED806E104F104A1F060E0CA
:1056100079E08DE390E0A70196010E94D99B21508B
:105620003109410951095695479537952795211517
:1056300080E1380798F0E889F989108260E874E819
:105640008EE190E0A70196010E94D99B215031097B
:10565000410951095695479537952795EC85FD8564
:105660003083EE85FF852083188EEC89FD8986E0E6
:105670008083EA89FB89808180618083EA89FB8954
:10568000808188608083EA89FB898081806880834B
:10569000EA89FB8980818F7D8083DF91CF91FF90A4
:1056A000EF90DF90CF90089520914F0B222361F06F
:1056B0002FB7F89430914F0B313049F43DB330930C
:1056C0004E0B3DB33DBB2FBF8CBD9DBD08952093B8
:1056D0004E0BFACF20E3FC0120833296862F829571
:1056E0008F706F706A3030F4605D6293682F811143
:1056F000F5CF0895695CF9CFCF93DF93D62F9C0146
:1057000064E0369527956A95E1F7C1E021384CE0D1
:1057100034070CF4C0E021384CE03407F8F4F90108
:10572000EE0FFF1FE150F34FA081B18154E0220F33
:10573000331F5A95E1F7821B930B41E050E060E084
:1057400070E004C0440F551F661F771F8A95D2F77B
:10575000DD2341F04A2B5B2B518340838C2FDF915B
:10576000CF910895409550954A235B23F5CFFC01D6
:10577000818D928D089508958150823108F05AC02C
:10578000E82FF0E08827E853F44D8F4F0C94549D98
:10579000E82BEC2BDA2BE02BE42B1A2CEF2BF52B40
:1057A000F92BFF2B032C072C0D2C112C1A2C152C4C
:1057B0001B2C1F2C809180008F7780938000089590
:1057C000809180008F7DF9CF80918000877FF5CF19
:1057D00084B58F7784BD089584B58F7DFBCF80918C
:1057E000B0008F778093B00008958091B0008F7DD6
:1057F000F9CF809190008F778093900008958091E9
:1058000090008F7DF9CF80919000877FF5CF8091B8
:10581000A0008F778093A00008958091A0008F7DD5
:10582000F9CF8091A000877FF5CF809120018F77FD
:10583000809320010895809120018F7DF9CF809180
:105840002001877FF5CFCF93DF93282F30E0F90138
:10585000E858FC4A8491F901E85CFA4AD491F901CC
:10586000EE50FB4AC491CC23A1F081110E94BC2BC5
:10587000EC2FF0E0EE0FFF1FE852FB4AA591B49128
:10588000EC91ED2381E090E009F480E0DF91CF918D
:10589000089580E090E0FACF1F93CF93DF93282FF5
:1058A00030E0F901E858FC4A8491F901E85CFA4AD1
:1058B000D491F901EE50FB4AC491CC23A9F0162FE4
:1058C00081110E94BC2BEC2FF0E0EE0FFF1FE25481
:1058D000FB4AA591B4918FB7F894EC91111108C0CF
:1058E000D095DE23DC938FBFDF91CF911F91089578
:1058F000DE2BF8CFCF93DF9390E0FC01E85CFA4A0F
:1059000024918E509B4AFC0184918823D1F090E031
:10591000880F991FFC01E25AFC4AA591B491FC0141
:10592000E254FB4AC591D49161110EC09FB7F8941F
:105930008C91E22FE0958E238C932881E223E883DB
:105940009FBFDF91CF9108958FB7F894EC91E22B30
:10595000EC938FBFF6CF1F93CF93DF93182FEB01FC
:1059600061E00E947A2C209739F460E0812FDF916A
:10597000CF911F910C944C2CCF3FD10511F461E0D5
:10598000F5CFE12FF0E0E858FC4AE491E150E23134
:1059900008F0B3C0F0E08827EF52F34D8F4F0C941E
:1059A000549DE32CEB2CF02CFA2C042D7D2D0E2D88
:1059B000162D1E2D282D322D3C2D4B2D552D7D2D98
:1059C0005F2D692D732D84B5806884BDC7BDDF91BF
:1059D000CF911F91089584B5806284BDC8BDF7CF73
:1059E00080918000806880938000D0938900C0936C
:1059F0008800EDCF80918000806280938000D093FA
:105A00008B00C0938A00E3CF8091800088608093F0
:105A10008000D0938D00C0938C00D9CF8091B000CE
:105A200080688093B000C093B300D1CF8091B00064
:105A300080628093B000C093B400C9CF8091900081
:105A4000806880939000D0939900C0939800BFCF56
:105A500080919000806280939000D0939B00C093CF
:105A60009A00B5CF80919000886080939000D09389
:105A70009D00C0939C00ABCF8091A0008068809374
:105A8000A0008091A0008F7B8093A000D093A900FC
:105A9000C093A8009CCF8091A00080628093A0005A
:105AA000D093AB00C093AA0092CF8091A0008860F1
:105AB0008093A000D093AD00C093AC0088CF8091BC
:105AC0002001806880932001D0932901C093280190
:105AD0007ECF80912001806280932001D0932B01A2
