:100000000C94B3020C94E4020C94E4020C94E40209
:100010000C94E4020C94E4020C94E4020C94E402C8
:100020000C94E4020C94E4020C94E4020C94E402B8
:100030000C94E4020C94E4020C94E4020C94E402A8
:100040000C94E4020C94E4020C94E4020C94E40298
:100050000C94E4020C94E4020C94E4020C946924E1
:100060000C94E4020C943D250C9413250C94E402AA
:100070000C94E4020C94E4020C94E4020C94E40268
:100080000C94E4020C94E4020C94E4020C94E40258
:100090000C94E4020C94E4020C94E4020C94E40248
:1000A0000C94E4020C94E4020C94E4020C94E40238
:1000B0000C94E4020C94E4020C94E4020C94E40228
:1000C0000C94E4020C94E4020C94E4020C94E40218
:1000D0000C94E4020C94E4020C94DD240C94B324FC
:1000E0000C94E4020C94073B0C943D120C943331B5
:1000F0000C94BE1D0C940B080C9420110C944B1303
:100100000C946C0E0C94DE300C9415080C949A032D
:100110000C947F050C94C3030C94B30B0C94FA035A
:100120000C9438080C94BB0B0C94EF140C94C01373
:100130000C9472300C941E160C943D310C94D40324
:100140000C94F30E0C942F110C9415310C94FE03A7
:100150000C94EE040C94BA300C94E6030C94C43066
:100160000C94E6070C9417080C941A080C94F003EE
:100170000C9446150C942C1C0C94BA070C94CE309D
:100180000C940E060C94F9030C94CE030C94CB0340
:100190000C94D6300C94BA0E0C9496030C94510E19
:1001A0000C94D8030C9407080C94BF030C94B70B61
:1001B0000C94B9030C941A1B0C94F4030C94F107DF
:1001C0000C941C1A0C94EF040C941F310C94EC0347
:1001D0000C94CB0B0C944A1B0C94D20B0C94C703BD
:1001E0000C9471050C941C050C94F2300C94C316FD
:1001F0000C942B050C949E170C94D0070C94C105FD
:100200000C94B0300C94AB300C9473250C94DB132D
:100210000C9429310C9467160C94DE030C94C61BC5
:100220000C94E2030C948F1A0C94F11B0C94601341
:100230000C94DD160C94FC300C94980E0C94E83061
:100240000C940B310C943D1600407A10F35A00A028
:10025000724E18090010A5D4E80000E8764817008F
:1002600000E40B54020000CA9A3B000000E1F505CF
:10027000000080969800000040420F000000A08619
:1002800001000000102700000000E803000000004B
:100290006400000000000A000000000001000000EF
:1002A00000002C76D888DC674F0823DFC1DFAE5909
:1002B000E1B1B796E5E3E453C63AE651997696E89C
:1002C000E6C28426EB898C9B62ED407C6FFCEFBC20
:1002D0009C9F40F2BAA56FA5F490055A2AF75C934B
:1002E0006B6CF9676DC11BFCE0E40D47FEF520E681
:1002F000B500D0ED902E0300943577050080841E64
:10030000080000204E0A000000C80C333333330FBE
:10031000986E12831141EF8D2114893BE65516CF5B
:10032000FEE6DB18D1844B381BF77C1D901DA4BB67
:10033000E424203284725E228100C9F124ECA1E51C
:100340003D2700002100240027002A002D00300056
:10035000330001010000040107010A01000022002E
:10036000250028002B002E0031003400020100007F
:10037000050108010B0100000A0B02090C0D0E0813
:10038000070304010000000000000000000000005E
:10039000000000000000000000000000000000005D
:1003A000000012111000000000000000000000001A
:1003B000000000000000000000000000005EBCE241
:1003C000613FDD83C29C7E20A3FD1F419DC3217F31
:1003D000FCA2401E5F01E3BD3E6082DC237D9FC125
:1003E000421CFEA0E1BF5D0380DE3C62BEE0025C19
:1003F000DF81633D7C22C09E1D43A1FF4618FAA405
:1004000027799BC584DA3866E5BB5907DB856739F0
:10041000BAE406581947A5FB7826C49A653BD987E4
:10042000045AB8E6A7F91B45C6987A24F8A6441AD8
:1004300099C7257B3A6486D85B05E7B98CD2306EC4
:10044000EDB3510F4E10F2AC2F7193CD114FADF3B0
:10045000702ECC92D38D6F31B2EC0E50AFF1134DA4
:10046000CE90722C6D33D18F0C52B0EE326C8ED098
:10047000530DEFB1F0AE4C1291CF2D73CA94762884
:10048000ABF517490856B4EA6937D58B5709EBB570
:1004900036688AD495CB2977F4AA4816E9B7550B64
:1004A00088D6346A2B7597C94A14F6A8742AC89658
:1004B000154BA9F7B6E80A54D7896B350000200020
:1004C0002300260029002C002F003200000100002C
:1004D00003010601090105050505070508080808C7
:1004E000020202020A0A08080404040401010101CC
:1004F00001010101030303030303030304070707C7
:100500000C0C0C0C0C0C0C0C02020202060606066B
:10051000060606060B0B0B0B0B0B0B0B0102102038
:100520002008081020401020408002010201080429
:1005300002010102040810204080804020100804BD
:100540000201800402018040201008040201080416
:10055000020101020408102040800102040810205A
:1005600040807325073B11241FBECFEFD1E2DEBFD1
:10057000CDBF00E00CBF13E0A0E0B2E0ECEEF7E886
:1005800000E00BBF02C007900D92A434B107D9F769
:100590002EE0A4E4B3E001C01D92A031B207E1F760
:1005A00012E0C2EBD2E000E006C021970109802FE3
:1005B000FE010E945941C13BD10780E00807A9F71D
:1005C0000E941E280C94E4430C940000CF92DF920A
:1005D000EF92FF92CF93DF93EC016A017B01E889F0
:1005E000F98982E08083C11481EED806E104F10428
:1005F000A1F060E079E08DE390E0A70196010E9410
:100600008740215031094109510956954795379541
:100610002795211580E1380798F0E889F98910823B
:1006200060E874E88EE190E0A70196010E9487409F
:10063000215031094109510956954795379527951C
:10064000EC85FD853083EE85FF852083188EEC894F
:10065000FD8986E08083EA89FB89808180618083CF
:10066000EA89FB89808188608083EA89FB898081AF
:1006700080688083EA89FB8980818F7D8083DF9118
:10068000CF91FF90EF90DF90CF9008958CBD9DBDEE
:10069000089520E3FC0120833296862F82958F7087
:1006A0006F706A3030F4605D6293682F8111F5CF0E
:1006B0000895695CF9CFCF93DF93D62F9C0164E056
:1006C000369527956A95E1F7C1E021384CE034076B
:1006D0000CF4C0E021384CE03407F8F4F901EE0FD7
:1006E000FF1FE85BF74FA081B18154E0220F331F59
:1006F0005A95E1F7821B930B41E050E060E070E017
:1007000004C0440F551F661F771F8A95D2F7DD235B
:1007100041F04A2B5B2B518340838C2FDF91CF918B
:100720000895409550954A235B23F5CFFC01818DB8
:10073000928D089508958150823108F05AC0E82FB3
:10074000F0E08827E955FC4F8F4F0C945941C703BF
:10075000CB03B903BF03C303F903CE03D403D80308
:10076000DE03E203E603EC03F003F903F403FA0308
:10077000FE03809180008F778093800008958091A0
:1007800080008F7DF9CF80918000877FF5CF84B581
:100790008F7784BD089584B58F7DFBCF8091B000A5
:1007A0008F778093B00008958091B0008F7DF9CF4E
:1007B000809190008F7780939000089580919000B1
:1007C0008F7DF9CF80919000877FF5CF8091A00039
:1007D0008F778093A00008958091A0008F7DF9CF3E
:1007E0008091A000877FF5CF809120018F77809343
:1007F00020010895809120018F7DF9CF8091200103
:10080000877FF5CFCF93DF93282F30E0F901EA58A7
:10081000FC4F8491F901E45EFA4FD491F901EA5258
:10082000FB4FC491CC23A1F081110E949B03EC2FBC
:10083000F0E0EE0FFF1FE454FB4FA591B491EC9153
:10084000ED2381E090E009F480E0DF91CF910895FD
:1008500080E090E0FACF1F93CF93DF93282F30E012
:10086000F901EA58FC4F8491F901E45EFA4FD49102
:10087000F901EA52FB4FC491CC23A9F0162F811144
:100880000E949B03EC2FF0E0EE0FFF1FE45AFC4F99
:10089000A591B4918FB7F894EC91111108C0D0953F
:1008A000DE23DC938FBFDF91CF911F910895DE2B64
:1008B000F8CFCF93DF9390E0FC01E45EFA4F2491F0
:1008C0008A529B4FFC0184918823D1F090E0880FDD
:1008D000991FFC01EE5BFC4FA591B491FC01E45A19
:1008E000FC4FC591D49161110EC09FB7F8948C91C3
:1008F000E22FE0958E238C932881E223E8839FBF2B
:10090000DF91CF9108958FB7F894EC91E22BEC939F
:100910008FBFF6CF3FB7F89480914B0690914C066D
:10092000A0914D06B0914E0626B5A89B05C02F3F5D
:1009300019F00196A11DB11D3FBFBA2FA92F982F05
:100940008827BC01CD01620F711D811D911D42E000
:10095000660F771F881F991F4A95D1F708958F92C8
:100960009F92AF92BF92CF92DF92EF92FF926B0174
:100970007C010E948A044B015C01C114D104E10492
:10098000F104B9F00E948A04681979098A099B095F
:10099000683E73408105910580F321E0C21AD108B9
:1009A000E108F10888EE880E83E0981EA11CB11CB6
:1009B000E4CFFF90EF90DF90CF90BF90AF909F90EB
:1009C0008F9008952FB7F89460914706709148066C
:1009D0008091490690914A062FBF08950895AF92DD
:1009E000BF92CF92DF92EF92FF920F931F93CF931C
:1009F000DF936C017B018B01040F151FEB015E017E
:100A0000AE18BF08C017D10759F06991D601ED9112
:100A1000FC910190F081E02DC6011995892B79F7A1
:100A2000C501DF91CF911F910F91FF90EF90DF9063
:100A3000CF90BF90AF900895FC01538D448D252F2A
:100A400030E0842F90E0821B930B541710F0CF9668
:100A5000089501970895FC01918D828D981761F09A
:100A6000A28DAE0FBF2FB11D5D968C91928D9F5FB1
:100A70009F73928F90E008958FEF9FEF08950F93EB
:100A80001F930E94E2046093A1067093A2068093D4
:100A9000A3069093A40689E996E00E942B0597FF90
:100AA0001DC00E94E2040091A1061091A2062091AF
:100AB000A3063091A406601B710B820B930B00916F
:100AC0009D0610919E0620919F063091A00660170A
:100AD000710782079307F8F28FEF9FEF1F910F9135
:100AE0000895FC01918D828D981731F0828DE80F69
:100AF000F11D858D90E008958FEF9FEF0895FC0123
:100B0000918D228D892F90E0805C9F4F821B9109EF
:100B10008F739927089589E996E00E947F0521E067
:100B2000892B09F420E0822F089586E397E00E9444
:100B30007F0521E0892B09F420E0822F0895FC0134
:100B4000A48DA80FB92FB11DA35ABF4F2C91848D2E
:100B500090E001968F739927848FA689B7892C938B
:100B6000A089B1898C91837080648C93938D848DDE
:100B7000981306C00288F389E02D80818F7D8083E1
:100B80000895EF92FF920F931F93CF93DF93EC01A1
:100B900081E0888F9B8D8C8D98131AC0E889F98924
:100BA000808185FF15C09FB7F894EE89FF89608327
:100BB000E889F98980818370806480839FBF81E0A8
:100BC00090E0DF91CF911F910F91FF90EF900895EA
:100BD000F62E0B8D10E00F5F1F4F0F731127E02EC5
:100BE0008C8D8E110CC00FB607FCFACFE889F989FD
:100BF000808185FFF5CFCE010E949F05F1CFEB8D5F
:100C0000EC0FFD2FF11DE35AFF4FF0829FB7F894D0
:100C10000B8FEA89FB8980818062CFCFCF93DF93EE
:100C2000EC01888D8823B9F0AA89BB89E889F98904
:100C30008C9185FD03C0808186FD0DC00FB607FC39
:100C4000F7CF8C9185FFF2CF808185FFEDCFCE016C
:100C50000E949F05E9CFDF91CF91089580E090E059
:100C6000892B29F00E94950581110E94000080E0E7
:100C700090E0892B49F080E090E0892B29F00E94D8
:100C8000000081110E94000080E090E0892B49F073
:100C900080E090E0892B29F00E94000081110E94E1
:100CA000000080E090E0892B29F00E948B058111E3
:100CB0000C9400000895FC0120812EBD9B01215061
:100CC000310941F051810DB407FEFDCF4EB55EBD37
:100CD0004193F5CF61507109860F971F0DB407FE40
:100CE000FDCF2EB5FC0120830895E091A903F0917A
:100CF000AA0380819091A803892B80830895E091B5
:100D0000A903F091AA0390818091A803809589237B
:100D1000808308958EBD00000DB407FEFDCF8EB513
:100D20000895AF92BF92CF92DF92EF92FF920F930E
:100D30001F93CF93DF9300D000D01F921F92CDB7A7
:100D4000DEB78C017B016A01809197068333E1F461
:100D50005801A40EB51EA016B10609F46FC00E947A
:100D60007F0680EF0E948A06812F0E948A06802FCC
:100D70000E948A060F5F1F4FF70181917F010E9439
:100D80008A060E947506E7CF5B01A40EB51E843368
:100D9000C1F40E947F0619830A838D2D80688B839E
:100DA000CC8264E070E0CE0101960E945B06AE1436
:100DB000BF0409F441C0F70181917F010E948A06B6
:100DC000F6CF0E947F060F3F110509F028F4198223
:100DD0000A8384E08B830CC017FD17C019820A8335
:100DE00033E0169507953A95E1F7007E0C600B838A
:100DF00086E0C816D104A0F5F701DE011496EA15C5
:100E0000FB0599F081918D93FACFC80126E0969564
:100E100087952A95E1F7807E19830A830115104C86
:100E200010F48461D7CF8C61D5CFB6016D5F7F4F51
:100E3000CE0101960E945B060E947506C6012896A7
:100E40000FB6F894DEBF0FBECDBFDF91CF911F91DB
:100E50000F91FF90EF90DF90CF90BF90AF900895EB
:100E600063E070E0CE0101960E945B06F70181917C
:100E70007F010E948A06AE14BF04C1F7DDCFCF9375
:100E8000DF931F92CDB7DEB7898341E050E0BE010A
:100E90006F5F7F4F90E080E00E9491060F90DF919E
:100EA000CF91089590E020919706233339F40C9662
:100EB000982F990F990F990F80E008954896F8CFD1
:100EC000DA01E091AC03F0E0FE2FEE27E60FF71F0A
:100ED00090E0982F8827A901BD018E0F9F1F0C94C9
:100EE0009106CF93DF931F921F92CDB7DEB7798320
:100EF0006A8322E030E0AE014F5F5F4F60E170E057
:100F00000E9460070F900F90DF91CF910895CF93CB
:100F1000DF931F921F92CDB7DEB779836A8322E0F9
:100F200030E0AE014F5F5F4F64E070E00E94600709
:100F30000F900F90DF91CF910895CF93DF931F9281
:100F4000CDB7DEB72091AC0330E0322F2227260F39
:100F5000371F90E0982F8827498341E050E0BE0179
:100F60006F5F7F4F820F931F0E9491060F90DF915A
:100F7000CF910895CF93DF931F92CDB7DEB76983EA
:100F8000DC01ED91FC910280F381E02D41E050E025
:100F9000BE016F5F7F4F19950F90DF91CF9108953C
:100FA000CF93DF931F92CDB7DEB76983DC01ED915C
:100FB000FC910280F381E02D41E050E0BE016F5FC3
:100FC0007F4F19950F90DF91CF910895FC01948583
:100FD000FB018485981303C081E0983008F080E01D
:100FE0000895CF93DF931F92CDB7DEB76983DC01FD
:100FF000ED91FC910280F381E02D41E050E0BE01D3
:101000006F5F7F4F19950F90DF91CF910895FC018D
:10101000768765870895DC01ED91FC91068CF78D4C
:10102000E02D199591E089270895862F089581E094
:101030008627089521E0FC018485883008F020E0AF
:10104000822F089544E050E0BC018FE090E00C94C2
:10105000910644E050E0BC0185E090E00C949106DC
:1010600044E050E0BC0181E090E00C9491060895CA
:10107000FF920F931F93CF93DF93EB01FC01178A2D
:10108000168A2A81211109C02B81211106C02C81C9
:10109000211103C02D81222301F141155105E9F0F1
:1010A0008A01FC01F08C80E591E00E944603AE01CC
:1010B0004E5F5F4F24E030E06CE070E08F2D0E94C7
:1010C0006007B8018F2D0E94710781E090E0DF91E9
:1010D000CF911F910F91FF90089580E0F7CFDC0131
:1010E0002C911196ED91FC91F8948181822B818352
:1010F0009281322F30959323928387E090E001977D
:10110000F1F781818323818383E290E00197F1F7F6
:1011100090817894EFECF0E03197F1F7922381E041
:1011200009F480E00895FC0190810180F281E02DB6
:10113000292F209560FF14C0F89482818223828336
:101140008181892B8183A3E2B0E01197F1F782813D
:10115000982B9283789487ED90E00197F1F70895AA
:10116000F8948281822382838181892B8183AFEFEE
:10117000B0E01197F1F78281982B928378948FE0F9
:1011800090E0EBCFDF92EF92FF920F931F93CF93FC
:10119000DF93EC01D62EE42E08E010E0FF24F39458
:1011A00061E08D2D8F2109F460E0CE010E9493084B
:1011B000FF0C01501109A1F7E11010C0F894E9816A
:1011C000FA8191818881809589238183E981FA81DF
:1011D000928188818095892382837894DF91CF9151
:1011E0001F910F91FF90EF90DF900895EF92FF9283
:1011F0000F931F93CF93DF938C017B0140E065E554
:101200000E94C208E70188E0E80EF11C699140E005
:10121000C8010E94C208CE15DF05C1F7DF91CF914A
:101220001F910F91FF90EF900895FC019081018034
:10123000F281E02DF8948181292F209582238183EA
:1012400078943DE743E050E0315029F1DA011197FD
:10125000F1F780818923C1F3F8948281822382830C
:101260008181892B81837894ABECB7E01197F1F7FA
:10127000F894818182238183ABE3B1E01197F1F788
:101280008081982381E009F080E07894EBE8F6E033
:101290003197F1F7089580E008956F927F928F92D1
:1012A0009F92AF92BF92CF92DF92EF92FF920F93F5
:1012B0001F93CF93DF93EC01709327086093260868
:1012C00080912408909125080E94150960912608B4
:1012D0007091270880912408909125080E94F608B3
:1012E00040E068EB80912408909125080E94C20894
:1012F00040E060E080912408909125080E94C20897
:1013000080912408909125080E9415096091260873
:101310007091270880912408909125080E94F60872
:1013200040E06EEB80912408909125080E94C2084D
:1013300040E060E080912408909125080E94C20856
:101340008E016E0189E0C80ED11C7E01A090240898
:10135000B090250888E0882E912C712C6624639427
:10136000C5010E946F0881117628660CA1E08A1AD7
:101370009108B1F7F70171927F01EC15FD0531F786
:1013800089E090E0815049F0D801ED918D01E92785
:10139000F0E0E454FC4F9491F5CF81E028852913C7
:1013A00080E0DF91CF911F910F91FF90EF90DF9040
:1013B000CF90BF90AF909F908F907F906F90089547
:1013C000CF92DF92EF92FF920F931F93CF93DF9311
:1013D00000D000D000D0CDB7DEB78C01E62E509300
:1013E000270840932608BA01CE0101960E944D09B4
:1013F000F82E882309F499C089810130110509F07C
:10140000A4C08860898380912408909125080E9457
:101410001509609126087091270880912408909101
:1014200025080E94F60840E06EE48091240890911F
:1014300025080E94C20840E060E080912408909155
:1014400025080E94C2088E010F5F1F4F6E0189E0C0
:10145000C80ED11CF80161918F0140E080912408F1
:10146000909125080E94C2080C151D0599F78091DE
:101470002408909125080E94150960912608709112
:10148000270880912408909125080E94F60840E0E2
:1014900068E480912408909125080E94C20840E0E9
:1014A00060E080912408909125080E94C2088091F4
:1014B0002408909125080E941509609126087091D2
:1014C000270880912408909125080E94F608EE20B4
:1014D000F1F040E064E480912408909125080E9496
:1014E000C2086AE070E080E090E00E94AF04809162
:1014F0002408909125080E94150960912608709192
:10150000270880912408909125080E94F60840E061
:1015100064EB80912408909125080E94C20868E03D
:1015200070E080E090E00E94AF048F2D29960FB606
:10153000F894DEBF0FBECDBFDF91CF911F910F9109
:10154000FF90EF90DF90CF900895877F5BCF0F9350
:101550001F93CF93DF93D82F61E0809117040E94EF
:101560002B040EEF15E0C0E080913E0690913F06FF
:10157000DC01ED91FC91CD1749F0D8016D918D0101
:101580000190F081E02D1995CF5FEECF0680F781B5
:10159000E02D1995809113049091140482309105E7
:1015A00038F0880F991F880F991F05970197F1F759
:1015B00060E080911704DF91CF911F910F910C94FF
:1015C0002B04EEEFF5E090E02FEF3FEF981791F04E
:1015D0004191242748E0B901617077273695279516
:1015E000672B21F051E0252750EA3527415099F724
:1015F0009F5FECCF922F832F08952091F8053091B3
:10160000F9052F5F3F4F3093F9052093F80590912E
:10161000F705911115C09091F6059093FE059091F4
:10162000F50590689093FF058093000683E00E9483
:10163000E10A909301068093020685E00C94A70AC4
:101640000895AF92BF92CF92DF92EF92FF920F93E5
:101650001F93CF93DF93CDB7DEB76A970FB6F89499
:10166000DEBF0FBECDBFCD86DE86EF86F88A098B42
:101670001A8B2B8B3C8B4D8B5E8B6F8B788F898F6E
:101680009A8FCE010D960E941509B501CE010D96D7
:101690000E94F60840E06EEBCE010D960E94C20853
:1016A0008E010F5F1F4F5E018AE0A80EB11C88E01B
:1016B000C82ED12CF12CEE24E394CE010D960E947D
:1016C0006F088111FE28EE0CE1E0CE1AD108A9F7CF
:1016D000F801F1928F01EA15FB0549F769817A81DA
:1016E000072E000C880B990B0E94353F20E030E05C
:1016F00040E85DE30E94943F6A960FB6F894DEBF1F
:101700000FBECDBFDF91CF911F910F91FF90EF9052
:10171000DF90CF90BF90AF9008950F931F93CF931A
:10172000DF93EC010E94E204088119812A813B8148
:10173000601B710B820B930B0C811D812E813F81ED
:10174000601771078207930760F00E94E2046883C4
:1017500079838A839B8381E0DF91CF911F910F91E1
:10176000089580E0F9CFFC01848595850895FC01FA
:1017700084899589089522E033E0FC013183208338
:10178000FB014089518962897389FC01428353833B
:10179000648375830895DC01ED91FC91048CF58DD3
:1017A000E02D199490E080E00895DC0182E093E060
:1017B0008D939D9384E0FB0101900D928A95E1F752
:1017C00008952F923F924F925F926F927F928F92E5
:1017D0009F92AF92BF92CF92DF92EF92FF920F93C0
:1017E0001F93CF93DF9300D01F92CDB7DEB7FC01DC
:1017F000648075806114710409F418C18090BC0D77
:101800009090BD0D8114910409F410C17B019C835B
:101810008B83FB01C480D580C818D908FC010081E6
:101820001181C114D104C1F46091B80D7091B90D4A
:10183000C8010E94CA438C01009709F4F7C0F70160
:1018400060817181448155810E947B43F7018481CD
:101850009581080F191FE8CFD7FC11C04090B80D33
:101860005090B90D5301C801B2010E94CA430097BC
:1018700009F450C0880D991DAC0CBD1CF5CF580162
:101880006091B80D7091B90DC8010E94CA433C0126
:10189000009731F14C01801A910AA401B801C501E9
:1018A0000E947B43A80CB91CF701608171814481BF
:1018B0005581C5010E947B43F70184819581A80E63
:1018C000B91E0091BC0D1091BD0D060D171DEB81C9
:1018D000FC81848195818C0D9D1D95838483D0CF5F
:1018E000B801C5010F900F900F900F90DF91CF912D
:1018F0001F910F91FF90EF90DF90CF90BF90AF902E
:101900009F908F907F906F905F904F903F902F901F
:101910000C94A6436A147B0409F488C0EB81FC8113
:10192000828193818A159B0578F4B5016F5F7F4FA3
:10193000C8010E948D42009709F478C0EB81FC81B8
:1019400091838083B382A282EB81FC810481158123
:101950000150110917FD6AC048014090BC0D50901C
:10196000BD0D4114510409F461C0EB81FC81A480D8
:10197000B580A114B10409F459C0A414B50408F445
:1019800055C00A151B0520F04501F1E08F1A91089A
:10199000EB81FC81608071808091B80D9091B90DD0
:1019A0009A838983C3010FEF1FEF1301280C391CA1
:1019B0002816390680F069817A810E94CA4300970F
:1019C00051F09C01261937098216930608F49801F4
:1019D00001968901EDCF17FD29C0400E511EC301AC
:1019E000840D951DA50144195509BC018C0D9D1D43
:1019F0000E948443EB81FC81848195818C0D9D1D27
:101A00009583848320813181820F931FFC01108292
:101A1000EB81FC8180819181F7016081718144813A
:101A20005581800F911F0E947B4392CF0F900F90A2
:101A30000F900F90DF91CF911F910F91FF90EF903A
:101A4000DF90CF90BF90AF909F908F907F906F90DE
:101A50005F904F903F902F9008950F931F93CF93D7
:101A6000DF93EC0188819981009759F02A813B81AD
:101A70002617370730F081E0DF91CF911F910F914A
:101A800008958B016F5F7F4F0E948D42009759F040
:101A9000998388831B830A832C813D81232B59F7EB
:101AA000FC011082E8CF80E0E7CFEF92FF920F9326
:101AB0001F93CF93DF936115710541F480E0DF91AF
:101AC000CF911F910F91FF90EF900895411551050F
:101AD000B1F07B01EC010C811D81040F151FB801D1
:101AE0000E942D0D882351F3288139818C819D819D
:101AF000B701820F931F0E94A6431D830C8381E0D0
:101B0000DECFAF92BF92CF92DF92EF92FF920F9310
:101B10001F93CF93DF9300D01F92CDB7DEB78C0118
:101B20006B017A01809197068333E9F45B016801C8
:101B3000C40ED51EC016D106A9F10E947F068FE003
:101B40000E948A06812F0E948A06802F0E948A06A0
:101B50000F5F1F4F80E00E948A06F50181935F01AD
:101B60000E947506E7CF843369F50E947F061983CA
:101B70000A838F2D8F778B83EC8264E070E0CE0137
:101B800001960E945B06A70170E060E0C6010E941A
:101B90009643E114F10421F0B701C6010E945B06EF
:101BA0000E947506C7010F900F900F900F90DF9164
:101BB000CF911F910F91FF90EF90DF90CF90BF904A
:101BC000AF9008950E947F060F3F110509F030F491
:101BD00019820A831B8263E070E0D1CF17FD0BC02E
:101BE00019820A8333E0169507953A95E1F7007E4E
:101BF00008600B83F0CFC80126E0969587952A955B
:101C0000E1F7807E19830A830115104C18F4806176
:101C10008B83E1CF8861FCCFCF93DF931F92CDB749
:101C2000DEB72091AC0330E0322F2227260F371F7A
:101C300090E0982F882741E050E0BE016F5F7F4F12
:101C4000820F931F0E94810D89810F90DF91CF91A8
:101C50000895CF93C82F462F61E070E00E949D0742
:101C600061E070E08C2F0E940C0E8111F9CFCF91B2
:101C70000895CF93C82F80E591E00E94460368E065
:101C800070E08C2FCF910C94290ECF93C82F80E554
:101C900091E00E94460360E170E08C2FCF910C949C
:101CA000290ECF93DF93EC01888D883020F40E94B9
:101CB000450E88E0888FDF91CF91089563E070E052
:101CC0000C940C0ECF93C82F80E591E00E94460340
:101CD0008C2FCF910C945E0EEF92FF920F931F9377
:101CE000CF93DF937C0180919706D4E0833309F092
:101CF000D8E007E816E0C0E0F801219131918F01AA
:101D0000F701848195812817390729F0CF5FDC130B
:101D1000F3CF80E006C08C2F0E94620E8431B1F7B1
:101D200081E0DF91CF911F910F91FF90EF90089587
:101D3000CF93DF93EC018C858830D0F40E94620E43
:101D4000843189F0882379F0883169F021E08C3181
:101D500059F4E881F9810084F185E02DCE011995CF
:101D600021E0892B09F420E0822FDF91CF910895A3
:101D700080E0FBCFCF92DF92EF92FF92CF93DF9381
:101D8000EC018C85883068F40E94390E0E94E204D0
:101D90006B017C018C850E94620E811109C088E074
:101DA0008C87DF91CF91FF90EF90DF90CF900895D7
:101DB00061E070E080E090E00E94AF040E94E204E5
:101DC000AB01BC014C195D096E097F098D859E85AB
:101DD000B0E0A0E0481759076A077B07D8F28C8566
:101DE0000E94450EDCCFCF93FC01C08D80E591E0D1
:101DF0000E94460360E270E08C2F0E94290E62E090
:101E000070E08C2F0E940C0E84FD16C062E070E022
:101E10008C2F0E940C0E83FF0AC048E162E070E044
:101E20008C2F0E949D0780E090E0CF91089580E57F
:101E300091E00E944603E3CF40E162E070E08C2F26
:101E40000E949D0781E0F0CFCF93DF931F92CDB723
:101E5000DEB741E050E0BE016F5F7F4F90E080E071
:101E60000E94810D89810F90DF91CF910895CF93CA
:101E7000DF93C4E1D0E00E94240F882361F061E089
:101E800070E080E090E00E94AF042197A1F780E02D
:101E9000DF91CF91089581E0FBCF1F93CF93DF9324
:101EA0001F921F92CDB7DEB760E372E080E090E052
:101EB0000E94AF041FB7F8948091AB03811127C033
:101EC000EBE0F5E08491E1E5F5E09491E82FF0E0B6
:101ED000EE0FFF1FEE5BFC4FA591B491EC91E9234F
:101EE00021F461E085E30E942B0461E085E30E9418
:101EF00059048CB580618CBD8CB580648CBD61E06B
:101F000084E30E94590461E083E30E9459048091B4
:101F1000AB038F5F8093AB031FBFE0EEF4E0E4916F
:101F2000F0E0EE0FFF1FE45AFC4F859194919093DF
:101F3000AA038093A903E6E2F5E0E491E093A80305
:101F400061E08AE00E9459040E94750680E591E0F4
:101F50000E94460384E38093970680E80E943F072F
:101F60000E94370F8823C1F188E00E943F070E943A
:101F7000240F883089F580E10E943F070E94240FDA
:101F8000803151F580E00E943F070E94240F182FF6
:101F9000811122C041E050E0BE016F5F7F4F8FE1B1
:101FA00090E00E94810D89818330B1F480E48093B8
:101FB000AC0342E06EE170E0812F0E949D0742E099
:101FC0006FE170E0812F0E949D071F5F183089F735
:101FD00081E0809398066AC087E38093970680E843
:101FE0000E943F070E94370F882329F188E00E9452
:101FF0003F070E94240F8830F1F480E10E943F07E0
:102000000E94240F182F8031B1F480E00E943F0716
:102010000E94240F81110FC041E050E0BE016F5FAC
:102020007F4F89E390E00E94810D8981843019F40B
:102030001093AC03CDCF83E38093970680E80E9492
:102040003F070E94370F882371F180E10E943F070C
:102050000E94240F803139F582E10E943F070E94DF
:10206000240F823101F580E00E943F070E94240F77
:10207000811119C084E08093AC0315E51A8341E017
:1020800050E0BE016E5F7F4F8BE190E00E949106B1
:10209000198341E050E0BE016F5F7F4F8AE190E01D
:1020A0000E94910695CF1092970680E00F900F90B6
:1020B000DF91CF911F910895CF92DF92EF92FF921F
:1020C000CF93DF93CDB7DEB7C254D1090FB6F894E2
:1020D000DEBF0FBECDBFFC0142815381648175819B
:1020E00023964CAF5DAF6EAF7FAF239781E0239611
:1020F0008FAF23972396CCACDDACEEACFFAC23972F
:10210000CBAADCAAEDAAFEAA4DA75EA76FA778AB63
:1021100088ABCDA4DEA4EFA4F8A8CFA2D8A6E9A6E8
:10212000FAA68EABCBA8DCA8EDA8FEA8C9A2DAA2BD
:10213000EBA2FCA222E033E03C8B2B8B9FEF9D8B2C
:102140009E8B9F8B188E3E872D878AA7CFA0D8A401
:10215000E9A4FAA4CF86D88AE98AFA8A8CA389A14D
:102160009AA1ABA1BCA189879A87AB87BC873A8328
:1021700029834B835C836D837E83809198068823BB
:10218000A1F180E591E00E94460346E050E062E064
:1021900072E089E090E00E949106CE0103960E94D1
:1021A0002208CE010F960E943008CE0145960E946B
:1021B000290881E08C8789859A85AB85BC858093C9
:1021C0000E0890930F08A0931008B0931108CE5BEF
:1021D000DF4F0FB6F894DEBF0FBECDBFDF91CF91BA
:1021E000FF90EF90DF90CF9008950E944D0F8823CD
:1021F00071F3C7CF1F93CF93DF931F92CDB7DEB795
:10220000182F80E591E00E944603812F0E9452071B
:1022100027E0129FF0011124E15BF94F2281338105
:10222000377041E050E0BE016F5F7F4F820F931F18
:102230000E94810D89810F90DF91CF911F910895A8
:10224000FC01808D883040F4218D328D232B21F0CC
:102250000E94FA1090E008958FEF9FEF0895CF93BA
:10226000DF93FC012485283028F08FEF9FEFDF916A
:10227000CF910895EC010190F081E02D0084F1856B
:10228000E02D1995892B89F38C850E94FA1090E036
:10229000EECFDA01E091AC03F0E0FE2FEE27E60F7F
:1022A000F71F90E0982F8827A901BD018E0F9F1F6F
:1022B0000C94810D8F929F92AF92BF92CF92DF923A
:1022C000EF92FF920F931F93CF93DF93CDB7DEB7BB
:1022D00060970FB6F894DEBF0FBECDBF7C01909122
:1022E0009706911115C018E0812F60960FB6F894EB
:1022F000DEBF0FBECDBFDF91CF911F910F91FF9039
:10230000EF90DF90CF90BF90AF909F908F90089507
:1023100008E0933309F404E06B0180E591E00E944A
:1023200046039E012F5F3F4F5901490110E0812F65
:102330000E945E0EF40181934F018823C1F01F5F5C
:102340000113F5CF00E0F50181915F018D3149F076
:10235000883139F08A51823020F00F5F1013F3CFAB
:10236000C2CF60E170E0802F0E94290E102FA12EB5
:10237000B12CF501EE0FFF1FE957F94F11821082C2
:1023800083EE93E00197F1F742E870E060E0812F7F
:102390000E949D074FEF62E070E0812F0E949D0731
:1023A000B601C114D10491F4809100029091010210
:1023B00001968115F0EC9F0708F45CC09093010230
:1023C000809300026091000270910102812F0E94AF
:1023D000870786E0E2E1F2E0DE01199601900D92B6
:1023E0008A95E1F7F70183818F778C8784818D87C8
:1023F00085818E87A7014E5F5F4F24E030E06CE05F
:1024000070E0812F0E946007B601812F0E94710742
:1024100026E030E0AE01475F5F4F66E070E0812F5D
:102420000E94600761E070E0812F0E94290E27E082
:102430002A9DC0012B9D900D11249C01215B394FD9
:102440007901F9011182108222E030E0AE01415F92
:102450005F4F68E270E0812F0E9449118F85988953
:10246000982789279827F7019383828316821582FC
:1024700014823ACF80E090ECA1CFCF92DF92EF921E
:10248000FF920F931F93CF93DF9300D000D0CDB76F
:10249000DEB78C016B017A01FC01808D883010F46D
:1024A0000E94450E82E093E09A838983F60182813F
:1024B0009381A481B5818B839C83AD83BE83B70157
:1024C000CE0101960E945A11F801808F8830A0F445
:1024D000F586E486128E118E81E026960FB6F8946A
:1024E000DEBF0FBECDBFDF91CF911F910F91FF9047
:1024F000EF90DF90CF90089580E0EFCF7F928F92A2
:102500009F92AF92BF92CF92DF92EF92FF920F9382
:102510001F93CF93DF931F921F92CDB7DEB7782E14
:102520008B014A01590122E030E0AE014F5F5F4F5D
:1025300064E270E00E944911E980FA80FE24EF24F1
:10254000FE24E00EF11E9701377040919706072D8B
:1025500010E0433309F042C0085F1F4F102F0027DF
:10256000110F110F110FC901800F911F4733C9F1CE
:10257000A9014A0D5B1D4130584098F160E078E0B8
:102580006B01C21AD30AA601B4010E949106A501EB
:102590004C195D09B4016C0D7D1DC8010E949106A6
:1025A000EA0CFB1CF982EA8222E030E0AE014F5FC8
:1025B0005F4F64E270E0872D0E9460070F900F90DC
:1025C000DF91CF911F910F91FF90EF90DF90CF900F
:1025D000BF90AF909F908F907F900895005F1F4FA6
:1025E000BDCFA501B401DACFEF92FF921F93CF9335
:1025F000DF931F921F92CDB7DEB7182F22E030E095
:10260000AE014F5F5F4F60E270E00E944911E980C8
:10261000FA80FE24EF24FE2422E030E0AE014F5F7A
:102620005F4F60E270E0812F0E94491189819A8199
:10263000982789279827E816F90689F487E0189FD4
:10264000F0011124E15BF94FF582E482C7010F909C
:102650000F90DF91CF911F91FF90EF9008957C0133
:10266000DBCF1F93CF93DF93182F80E591E00E947B
:102670004603812F0E94F412EC01812F0E945E0E0E
:10268000873121F08C3111F0D0E0C0E0CE01DF9134
:10269000CF911F910895CF93DF93EC018C85883003
:1026A00060F40E94620E873111F08C3131F48C8518
:1026B0000E9431138115984088F3DF91CF910895DE
:1026C000FC018485883010F40C94311390E080E094
:1026D0000895CF92DF92EF92FF921F93CF93DF93F3
:1026E000182F7B01EA014130584010F0C0E0D8E0DB
:1026F00080E591E00E944603812F0E94F4126C0154
:10270000812F0E945E0E873111F08C3121F5CC169D
:10271000DD0670F380E591E00E9446039E01A7016B
:1027200070E060E0812F0E947E1260E270E0812FF5
:102730000E94290E62E070E0812F0E940C0E84FD41
:102740000DC0812F0E945E0E8823B9F080E591E0D4
:102750000E944603EFCFD0E0C0E0DCCF40E162E072
:1027600070E0812F0E949D07CE01DF91CF911F91D4
:10277000FF90EF90DF90CF900895D0E0C0E0F4CFCD
:102780000F931F93CF93DF938C01EA01FC018485A3
:10279000883048F40E946913892B39F481E090E075
:1027A000F80193838283D0E0C0E0CE01DF91CF9126
:1027B0001F910F9108959F92AF92BF92CF92DF9297
:1027C000EF92FF920F931F93CF93DF938C015B01E6
:1027D000942EE52EFC01C688D788F08C80E591E028
:1027E0000E9446038F2D0E94F412C92DDE2D8C17F6
:1027F0009D0708F4EC019E01A501B6018F2D0E94F2
:102800007E12F801868997898C0F9D1F978B868B86
:10281000CE01DF91CF911F910F91FF90EF90DF904C
:10282000CF90BF90AF909F900895FF920F931F930A
:10283000CF93DF931F921F92CDB7DEB7F82E22E021
:1028400030E0AE014F5F5F4F66E270E00E944911D9
:1028500009811A8110270127102722E030E0AE01FC
:102860004F5F5F4F66E270E08F2D0E9449118981B2
:102870009A819827892798270817190749F4C801CA
:102880000F900F90DF91CF911F910F91FF900895BE
:102890008C01E3CF1F93CF93DF93182F87E0189F0E
:1028A000E0011124C15BD94F88819981009761F4BF
:1028B00080E591E00E944603812F0E9415142E812D
:1028C000821B910999838883DF91CF911F9108958D
:1028D0009F92AF92BF92CF92DF92EF92FF920F93AF
:1028E0001F93CF93DF93EC017B01809197068111B9
:1028F00021C01B821A8288EE93E0A0E0B0E08C83B6
:102900009D83AE83BF838AE992E09983888388E0C0
:102910008C8788EE93E09E878D87CE01DF91CF91E3
:102920001F910F91FF90EF90DF90CF90BF90AF90ED
:102930009F90089534E0932E833311F028E0922E77
:1029400087E8C82E86E0D82E10E098E0B92EA12C9A
:10295000D6012D913D916D01F70184819581281754
:10296000390791F4812F0E94620E082F873111F0F0
:102970008C3139F5812F0E944A14892B59F50C317D
:1029800019F4812F0E94390E1F5F9112E1CFA1101F
:1029900008C0D701ED91FC910084F185E02DC701BD
:1029A00019951B821A8288EE93E0A0E0B0E08C8338
:1029B0009D83AE83BF838AE992E099838883BC8636
:1029C000A8CF843149F08111DFCFF601329711820F
:1029D0001082DACFB12ED8CFAA24A394D5CF8F926C
:1029E0009F92AF92BF92CF92DF92EF92FF920F939E
:1029F0001F93CF93DF93CDB7DEB72F970FB6F89421
:102A0000DEBF0FBECDBF5C014B017A0180919706FE
:102A10008823C9F104E0833309F008E0B501CE0151
:102A200001960E94681487E8C82E86E0D82E10E030
:102A3000F601219131916F01F5018481958128176B
:102A4000390751F4812F0E94620E873129F4A701C2
:102A5000B401812F0E9469131F5F0113E9CFC701E1
:102A60002F960FB6F894DEBF0FBECDBFDF91CF918A
:102A70001F910F91FF90EF90DF90CF90BF90AF909C
:102A80009F908F900895F12CE12CE9CFFC01848573
:102A9000883010F40C944A1490E080E008954F922E
:102AA0005F927F928F929F92AF92BF92CF92DF926E
:102AB000EF92FF920F931F93CF93DF931F921F927A
:102AC000CDB7DEB7782E6B014A01A82EB12C27E0D6
:102AD000829FC0011124FC01E15BF94F7F0100815D
:102AE000118180E591E00E9446030815190554F410
:102AF000872D0E941514F70126818C01021B1109F4
:102B0000118300830115110519F5872D0E945E0EB2
:102B1000843159F0882349F001E010E08C3111F440
:102B200010E000E0119501951109C8010F900F9078
:102B3000DF91CF911F910F91FF90EF90DF90CF9099
:102B4000BF90AF909F908F907F905F904F9008952F
:102B5000801691060CF4840187E08A9DF0018B9D1C
:102B6000F00D1124E15BF94FE280F380C114D10430
:102B700051F12701F7E05F22872D0E945207840D53
:102B8000951D20919706273309F453C09801240D11
:102B9000351D2130384008F44CC020E038E04901B0
:102BA00084189508A401B6010E94810D2601480CE5
:102BB000591C6801C818D908872D0E945207A60120
:102BC000B2010E94810DE00EF11E87E08A9DF001A6
:102BD0008B9DF00D1124E15BF94FF382E28220819D
:102BE0003181201B310B318320838681800F912F0F
:102BF000911D8A3F910510F4232BF1F487E08A9D03
:102C0000F0018B9DF00D1124E15BF94F1682F982E2
:102C1000EA8222E030E0AE014F5F5F4F68E270E091
:102C2000872D0E94600760E470E0872D0E94290EC6
:102C30007CCFA801B601C5CF868377CFCF93DF9332
:102C4000FC01218D328D2115310529F48FEF9FEF85
:102C5000DF91CF910895EC01808D4217530708F062
:102C6000A9010E944F151816190684F7298D3A8D6F
:102C7000281B390B3A8F298FEBCF0F931F93CF93DC
:102C8000DF931F92CDB7DEB7FC01218D328D232B50
:102C900041F48FEF9FEF0F90DF91CF911F910F9134
:102CA00008958C0141E050E0BE016F5F7F4FFC0151
:102CB000808D0E944F15181619065CF7F801818D5A
:102CC000928D0197928F818F898190E0E4CF0F934D
:102CD0001F93CF93DF9300D000D01F921F92CDB7E8
:102CE000DEB78C01D80159964D915C915A974115E8
:102CF000510551F0ED91FC91048CF58DE02D70E0C3
:102D000060E0C8011995EECFF801808D0E944A1449
:102D1000892BB1F148E050E0BE016F5F7F4FD801D1
:102D200058968C910E944F1518161906F4F4D80184
:102D3000509684E0FE01319601900D928A95E1F75C
:102D40008D8190E0982F88272E81820F911DF801A8
:102D5000958B848B8F81282F30E0322F2227888516
:102D6000820F932F911D928F818F28960FB6F89422
:102D7000DEBF0FBECDBFDF91CF911F910F910895A0
:102D800090E080E0F2CFCF93DF931F92CDB7DEB714
:102D900041E050E0BE016F5F7F4FFC0184850E94DF
:102DA0004F151816190634F4898190E00F90DF91C1
:102DB000CF9108958FEF9FEFF9CFFC018485883084
:102DC00010F40C944F1590E080E008958F929F923C
:102DD000AF92BF92CF92DF92EF92FF920F931F9329
:102DE000CF93DF9300D000D000D01F92CDB7DEB7D5
:102DF00090919706911115C018E0812F2A960FB671
:102E0000F894DEBF0FBECDBFDF91CF911F910F9120
:102E1000FF90EF90DF90CF90BF90AF909F908F90FA
:102E2000089528E0F22E933311F494E0F92E6B010B
:102E3000082F80E591E00E9446039E012F5F3F4FDF
:102E40005901490110E0812F0E945E0EF401819327
:102E50004F018823C1F01F5FF112F5CFF12CF5016E
:102E600091915F019D3149F0983139F09A5192303A
:102E700020F0F3941F11F3CFBFCF60E170E08F2DEE
:102E80000E94290E1F2DE12EF12CF701EE0FFF1FDE
:102E9000E957F94F1182108283EE93E00197F1F721
:102EA000402F70E060E0812F0E949D074FEF62E0AD
:102EB00070E0812F0E949D07B601CD2889F4809192
:102EC00000029091010201968115F0EC9F0798F1A4
:102ED00090930102809300026091000270910102C0
:102EE000812F0E94870761E070E0812F0E94290EE8
:102EF00027E02E9DC0012F9D900D11249C01215B88
:102F0000394F7901F9011182108222E030E0AE01DF
:102F1000475F5F4F68E270E0812F0E944911898509
:102F20009A85982789279827F701938382831682A9
:102F30001582148262CF80E090ECCACF0F931F936A
:102F4000CF93DF93EC018B01888D883010F40E94C1
:102F5000450EB80182E00E94E616888F883050F452
:102F60001D870C871A8E198E81E0DF91CF911F91FA
:102F70000F91089580E0F9CF4F925F926F927F9208
:102F80008F929F92AF92BF92CF92DF92EF92FF9279
:102F90000F931F93CF93DF93CDB7DEB763970FB631
:102FA000F894DEBF0FBECDBF7C016B013A01FB017F
:102FB00020E090E080E06AE03191332309F461C0C1
:102FC00040ED430F4A3008F04DC0689FA001699F53
:102FD000500D1124CA01C097830F911D37FD9A959A
:102FE0008F3F910549F340F3F7014281538164819A
:102FF000758180911A0890911B08A0911C08B091CE
:103000001D08481759076A077B0709F40DC2870195
:10301000085F1F4F0E94E2046F7077277C5FC80132
:103020000E949E17813009F004C282E093E09A83E7
:103030008983F70182819381A481B5818B839C83ED
:10304000AD83BE8345E350E0BE016F5F7F4FC80193
:103050000E943808892BA9F5D12CC12CC8010E94E7
:10306000510E17C03E3209F0BFCF233009F4BCCF58
:10307000D301A20FB11D12968C932F5F90E080E0D8
:103080009BCF233009F0B0CFF3018583CC24C394C8
:10309000D12CC60163960FB6F894DEBF0FBECDBF2C
:1030A000DF91CF911F910F91FF90EF90DF90CF9024
:1030B000BF90AF909F908F907F906F905F904F9058
:1030C00008950E94E204F7017783668342E050E0AE
:1030D000B7016A5F7F4FC8010E94DB1381E090E077
:1030E0009A83898342E050E0BE016F5F7F4FC80141
:1030F0000E94DB1380E091E09A83898342E050E0F4
:10310000BE016F5F7F4FC8010E94DB131A821982D4
:1031100042E050E0BE016F5F7F4FC8010E94DB13A9
:1031200042E050E0BE016F5F7F4FC8010E94DB1399
:1031300042E050E0BE016F5F7F4FC8010E94DB1389
:103140005601F6018081882301F16501F601819124
:103150002F01882311F08E32B1F446018A189B08A2
:103160001814190474F48D8641E050E0BE01635FC9
:103170007F4FC8010E94DB13A401B501C8010E9462
:10318000DB135201DECF6201E1CF1D8641E050E04A
:10319000BE01635F7F4FC8010E94DB13C12CDD2499
:1031A000D394DA82C98242E050E0BE016F5F7F4F64
:1031B000C8010E94DB13DA82C98242E050E0BE01FE
:1031C0006F5F7F4FC8010E94DB13C8010E94F30E9E
:1031D000892B09F441CFF3E0AF2EB12C230122E07B
:1031E000420E511CD4C0F701428153816481758124
:1031F000808D918DA28DB38D481759076A077B0783
:1032000009F008C1848D958DC59709F003C181A18E
:1032100092A15DEFC52EDD24DA940C970CF4ADC0BD
:103220004CE050E0BE016F5F7F4FC8010E941E1648
:103230008B819C819827892798279A8B898BF70106
:103240004681578129813A814217530709F0E7C027
:1032500097FFE5C08F7092703BEFC32EDD24DA94A8
:10326000892B09F08AC06F807884762467247624BD
:103270002AEFC22EDD24DA946114710409F47DC0B2
:10328000D12CC12C8D819E81982789279827C8161B
:10329000D906F8F441E050E0BE01635F7F4FC801FA
:1032A0000E941E164D85442331F050E070E060E02E
:1032B000C8010E941E168D858111ECCF44E050E0BC
:1032C00070E060E0C8010E941E16FFEFCF1ADF0A0F
:1032D000D9CF912C812C41E050E0BE016D5E7F4F33
:1032E000C8010E941E164B89842F807C09F06CC097
:1032F000442331F050E070E060E0C8010E941E16E7
:103300008B898111E8CF42E050E0BE01615F7F4FC1
:10331000C8010E941E1642E050E0BE01635F7F4F6D
:10332000C8010E941E1644E050E070E060E0C80151
:103330000E941E1642E050E0BE016F5E7F4FC80142
:103340000E941E168F85988949895A898115914056
:1033500009F043C0CD84DE84DC24CD24DC2481E06C
:10336000C816D104D1F54115544009F04AC044E0D3
:1033700050E0B201C8010E941E1621E0A21AB10855
:1033800009F46CCEFFEFCF16DF0609F067CE0E947E
:10339000E2043B014C01C8010E9467161816190689
:1033A0000CF421CF0E94E204661977098809990973
:1033B000693873418105910548F562E370E080E06A
:1033C00090E00E94AF04E7CF41E050E070E060E0A1
:1033D000C8010E941E161B8A93CF542745275427E5
:1033E00070E060E0C8010E941E16FFEF8F1A9F0A6E
:1033F0006814790409F06FCF96EFC92EDD24DA94B2
:10340000BCCFE7EFCE2EDD24DA94B7CFCC24CA941C
:10341000DC2CB3CF6EEFC62EDD24DA94AECF4CEFAA
:10342000C42EDD24DA94A9CF8EEFC82EDD24DA94E1
:1034300030CED12CC12C2DCECF92DF92EF92FF92C5
:103440000F931F93CF93DF93CDB7DEB7AF970FB630
:10345000F894DEBF0FBECDBF7C016A0102E013E02D
:103460001A8309831C861B8688EE93E0A0E0B0E0F7
:103470008D879E87AF87B88B88ED92E09A87898782
:10348000188F0F8B198E1A8E1B8E1C8E88E089A3C5
:103490001BA70AA71CA61DA61EA61FA680910E0884
:1034A00090910F08A0911008B09111088EA39FA3CE
:1034B000A8A7B9A78B839C83AD83BE8318861F8280
:1034C000AE01465D5F4FCE0101960E94BC17813070
:1034D0009105B1F4D701ED91FC910488F589E02DB7
:1034E0001DA30CA38CA59DA5AEA5BFA58EA39FA3D0
:1034F000A8A7B9A7A601BE016C5D7F4FC7011995AA
:10350000AF960FB6F894DEBF0FBECDBFDF91CF915F
:103510001F910F91FF90EF90DF90CF900895CF9281
:10352000DF92EF92FF920F931F93CF93DF93CDB76C
:10353000DEB7AF970FB6F894DEBF0FBECDBF8C01DC
:103540006B017A0182E093E09A8389831B821C825B
:103550001D821E821C861B8648EE53E060E070E0F0
:103560004D875E876F87788B28ED32E03A87298711
:10357000988F8F8B198E1A8E1B8E1C8E28E029A394
:103580009BA78AA71CA61DA61EA61FA6D8011C962F
:103590008C91883060F40E94620E882321F0F8013B
:1035A00084850E94390E88E0D8011C968C93809106
:1035B0000E0890910F08A0911008B09111088EA3E9
:1035C0009FA3A8A7B9A78B839C83AD83BE831886CE
:1035D0001F82AE01465D5F4FB601CE0101960E948B
:1035E000BC170097C1F0D801ED91FC910684F785D6
:1035F000E02D82E093E09DA38CA38CA59DA5AEA5B4
:10360000BFA58EA39FA3A8A7B9A7A701BE016C5D04
:103610007F4FC8011995AF960FB6F894DEBF0FBE65
:10362000CDBFDF91CF911F910F91FF90EF90DF9071
:10363000CF9008950F931F93CF938C01FC01648169
:10364000758181E20E94E616C82F8830F8F480E583
:1036500091E00E9446038C2F0E945E0E833131F070
:103660008C2FCF911F910F910C94390E62E070E076
:103670008C2F0E94290EF80184819581EC2FF0E0B7
:10368000EE0FFF1FE957F94F91838083CF911F9170
:103690000F910895CF92DF92EF92FF921F93CF93F5
:1036A000DF93EC017B016A018C85883048F40E942D
:1036B000620E882319F08C850E94390E88E08C8771
:1036C000F70182819381A481B5810097A105B1059D
:1036D00051F490E080E0DF91CF911F91FF90EF9047
:1036E000DF90CF9008958F3F9F4FAF4FBF4F89F32B
:1036F00070E060E081E20E94E616182F8C87883027
:1037000040F780E591E00E944603A7014E5F5F4FBE
:1037100024E030E06CE070E0812F0E946007B60189
:10372000812F0E94710764E070E0812F0E94290EB2
:103730000E94E2046B017C018C850E94620E87313D
:1037400011F18C3101F1882321F20E94E204AB01D6
:10375000BC014C195D096E097F098D859E85B0E01D
:10376000A0E084179507A607B70738F061E070E07E
:1037700080E090E00E94AF04DFCF8C850E94450E70
:1037800088E08C87A6CF81E090E0A5CF0F931F93B0
:10379000CF93DF931F921F92CDB7DEB7FC01248534
:1037A0002830E0F48C0180E591E00E94460322E09D
:1037B00030E0AE014F5F5F4F60E170E0F80184855B
:1037C0000E94491189819A819827892798270F900B
:1037D0000F90DF91CF911F910F91089590E080E0BD
:1037E000F6CFEF92FF920F931F93CF93DF9300D00A
:1037F0001F92CDB7DEB78C017B01FB018485883039
:10380000A8F082E093E0F801918380831282138212
:1038100014821582C8010F900F900F900F90DF91C6
:10382000CF911F910F91FF90EF90089580E591E067
:103830000E94460324E030E0AE014F5F5F4F6CE032
:1038400070E0F70184850E944911BE016F5F7F4FD0
:10385000C8010E94D50BDECF0F931F93CF93DF9348
:103860001F921F92CDB7DEB7FC0124852830E0F40B
:103870008C0180E591E00E94460322E030E0AE0139
:103880004F5F5F4F64E070E0F80184850E9449114A
:1038900089819A819827892798270F900F90DF9127
:1038A000CF911F910F91089590E080E0F6CF7F9225
:1038B0008F929F92AF92BF92CF92DF92EF92FF9240
:1038C0000F931F93CF93DF93CDB7DEB7A6970FB6B5
:1038D000F894DEBF0FBECDBF8C01762E942E852EC0
:1038E00020E2A22ECE0101967C01DC01EA2D1D9280
:1038F000EA95E9F76801F3E4CF0ED11C82E093E08A
:103900009AA389A38FEF8BA38CA38DA38EA343E4EB
:1039100050E0BE016F5D7F4FC6010E9438080196DE
:1039200009F4BFC081E089838A8386E0B82EBB8218
:103930001C82D80114966D917D918D919C91179761
:103940000E9461416D837E838F83988789869A86E2
:1039500080E890E09C878B874CE150E0B701C6017E
:103960000E94DB13FE0137968AE1DF011D928A95E2
:10397000E9F74801B8E08B0E911CF401D7010190E2
:103980000D92BA94E1F740E150E0B701C6010E9400
:10399000DB13F7011192AA94E9F796E0A92EB12C56
:1039A00040E250E0B701C6010E94DB13F1E0AF1A1C
:1039B000B108B1F783E6898392E89A8393E59B8304
:1039C0008C8385E38D8381E08E837F829DE398875E
:1039D00097E099878A8786E0F401DE011B960190C3
:1039E0000D928A95E1F78CE0898B8A8B64E073E015
:1039F000CE0143960E94A643D8011B966C91CE013E
:103A000049960E944903F8016485CE014B960E94B5
:103A10004903D8011D966C91CE014D960E94490331
:103A20004EE150E0B701C6010E94DB13B3E07B1208
:103A30001EC082E3898384E08A83F80196859B8394
:103A400097859C8390899D8391899E8396E39F832C
:103A50008887828D8987838D8A87848D8B87858DE2
:103A60008C874CE050E0B701C6010E94DB1387E36E
:103A7000898386E08A8391E09B8393E09C838D8396
:103A80008FE08E838AE38F838BE388878FEF89872C
:103A900049E050E0B701C6010E94DB13C6010E9455
:103AA000F30EA6960FB6F894DEBF0FBECDBFDF9122
:103AB000CF911F910F91FF90EF90DF90CF90BF902B
:103AC000AF909F908F907F9008958F929F92AF922A
:103AD000BF92EF92FF920F931F93CF93DF93CDB7D7
:103AE000DEB7A1970FB6F894DEBF0FBECDBF7C0145
:103AF000FA01CB0119A2223008F42AE08E010F5DF1
:103B00001F4F822E912CB12CA12CBF01A501940135
:103B10000E948740F901CA016A3074F5605DD801DE
:103B20006E938D01232B242B252B79F790E080E0D9
:103B3000109789F0FD0101900020E9F73197AF015E
:103B40004A1B5B0BD701ED91FC910280F381E02DC4
:103B5000B801C7011995A1960FB6F894DEBF0FBE44
:103B6000CDBFDF91CF911F910F91FF90EF90BF904C
:103B7000AF909F908F900895695CD1CF8F929F9264
:103B8000AF92BF92CF92DF92EF92FF920F931F936B
:103B9000CF93DF937C01EB016C0182E0C80ED11C56
:103BA0004701E5E08E0E911C10E000E0F601419126
:103BB0006F0150E070E060E02AE0CE010E94651DD8
:103BC0005C01E881F9810190F081E02D6EE2CE0187
:103BD00019958A0D9B1D080F191FC814D90431F7B8
:103BE000F701458150E070E060E02AE0CE010E94DC
:103BF000651D800F911FDF91CF911F910F91FF9055
:103C0000EF90DF90CF90BF90AF909F908F900895EE
:103C1000AF92BF92CF92DF92EF92FF920F931F93DA
:103C2000CF93DF93DC01CD90DC901197C114D104C8
:103C300039F01496CD91DC918C017601209761F4D6
:103C4000DF91CF911F910F91FF90EF90DF90CF9078
:103C5000BF90AF90089575015701BFEFAB1ABB0A33
:103C6000F7018081082E000C990B0E94153F892BCB
:103C700091F72197CC0DDD1D8881082E000C990B42
:103C80000E94153F892B29F0CE15DF0510F02197F2
:103C9000F3CFAE014F5F5F4F4E195F09D801159604
:103CA0005C934E931497CE14DF0420F4B701C60141
:103CB0000E947B43D801ED91FC91119714968D9150
:103CC0009C91E80FF91F1082BBCFFB014481558105
:103CD000FC01248135812417350778F0808191819A
:103CE000009759F0FB01608171816115710529F020
:103CF0000E94AD4321E0892B09F020E0822F089536
:103D0000FC0124813581FB0144815581241735074D
:103D1000E1F4FC0180819181FB0160817181009758
:103D2000D1F061157105A1F4232BC1F0FC01808154
:103D300090E008C0232B91F0FB01808190E09195E9
:103D40008195910921E0892B09F020E0822F0895C7
:103D50000E949D43F7CF6115710561F721E0F6CF11
:103D60000F931F93CF93DF938C01EB01FC018081B4
:103D700091810097E1F06881798161157105A9F061
:103D8000428153812C813D814217530770F00E947C
:103D9000A6438C819D81F801958384831D821C82BA
:103DA000DF91CF911F910F9108950E940442888165
:103DB0009981F801918380838A819B819383828397
:103DC0008C819D8195838483198218821B821A823B
:103DD000E5CFCF93DF93EC0188819981009711F0B3
:103DE0000E940442198218821D821C821B821A8240
:103DF000DF91CF910895CF93DF93EC01FB01019008
:103E00000020E9F73197AF01461B570B0E94550D73
:103E1000811103C0CE010E94E91ECE01DF91CF9136
:103E20000895CF93DF93EC01FB01448155816081BC
:103E300071810E94550D811103C0CE010E94E91EBF
:103E4000CE01DF91CF910895EF92FF920F931F93D0
:103E5000CF93DF93EC017B018A01BA010E942D0D03
:103E600081110BC0CE010E94E91ECE01DF91CF91DE
:103E70001F910F91FF90EF9008951D830C83B70160
:103E8000888199810E94A643F0CFFB010190002018
:103E9000E9F73197AF01461B570B0C94241FEF92A3
:103EA000FF920F931F93CF93DF93CDB7DEB7A19708
:103EB0000FB6F894DEBF0FBECDBF7C01CB01BA01B7
:103EC000F7011182108213821282158214828E01F0
:103ED0000F5F1F4F22E044E00E94A13B009789F052
:103EE000BC01C7010E94451FA1960FB6F894DEBF22
:103EF0000FBECDBFDF91CF911F910F91FF90EF903B
:103F00000895C7010E94E91EEFCF0F931F93CF932F
:103F1000DF93CDB7DEB762970FB6F894DEBF0FBE62
:103F2000CDBF8C01CB01F801118210821382128265
:103F3000158214824AE0BE016F5F7F4F0E948A3C67
:103F4000BE016F5F7F4FC8010E94451F62960FB68A
:103F5000F894DEBF0FBECDBFDF91CF911F910F91BF
:103F60000895CF93DF93EC01FB018617970749F083
:103F7000608171816115710541F0448155810E9414
:103F8000241FCE01DF91CF9108950E94E91EF9CF41
:103F9000FC011182108213821282158214820C9409
:103FA000B11FFC01118210821382128215821482C9
:103FB000FB0101900020E9F73197AF01461B570B39
:103FC0000C94241FAF92BF92CF92DF92EF92FF9298
:103FD0000F931F93CF93DF936C015B017A018901EB
:103FE0002417350720F48F2D7901042F182F6CE04A
:103FF00073E0C6010E94D11FD5011496CD91DC91CA
:10400000EC16FD06E0F40C171D0708F4E801D501D5
:10401000ED91FC911197EC0FFD1F108110826D91B5
:104020007C916E0D7F1DC60161157105A1F00E9486
:10403000451FF50180819181C80FD91F1883C601E2
:10404000DF91CF911F910F91FF90EF90DF90CF9074
:10405000BF90AF9008950E94E91EEBCFFC018081D4
:104060009181009711F00C94044208953F924F9271
:104070005F926F927F928F929F92AF92BF92CF92F8
:10408000DF92EF92FF920F931F93CF93DF93CDB701
:10409000DEB7EA970FB6F894DEBF0FBECDBF7C0146
:1040A0002A013B0169010E94E2044B015C01870186
:1040B0000D5B1F4FC8010E946716181619069CF069
:1040C0000E94E204681979098A099B094616570675
:1040D0006806790608F466C162E370E080E090E06B
:1040E0000E94AF04E7CF42E250E0BE016F5F7F4F16
:1040F000C8010E941E1689818230D1F0312C832D97
:10410000EA960FB6F894DEBF0FBECDBFDF91CF9118
:104110001F910F91FF90EF90DF90CF90BF90AF90E5
:104120009F908F907F906F905F904F903F900895F9
:10413000F801848995898334910501F76D817E8129
:104140008F8198850E9461414B015C01F60180825C
:104150009182A282B38246E050E0B701685F7F4F50
:10416000CE014D960E946E43892B41F6F701808166
:104170009181A281B38188169906AA06BB0608F42C
:10418000BDCF84819581A681B78188159905AA053F
:10419000BB0508F4B3CF89899A89AB89BC89868726
:1041A0009787A08BB18B4EEC50E070E060E0C801C7
:1041B0000E941E16312CC701829698AB8FA7F7017B
:1041C000B696FAABE9AB08969CAB8BAB67019AE16C
:1041D000C90ED11CBD96FEABEDABC701429698AFA0
:1041E0008FABFD97FAAFE9AF4701FEE18F0E911C4F
:1041F000F801818D928D181619060CF080CFC80138
:104200000E943D168333910509F4B2C014F5813044
:10421000910509F464C044F4892B51F3C8010E944C
:104220003D16AC01552775C08330910509F462C075
:104230000697A1F7C8010E943D16B82E44E050E051
:10424000B401C8010E941E16EB2DE450FF0BAF0114
:1042500060C08A33910509F45FC084F58533910508
:10426000B1F1C697D9F6C8010E943D165C01B601AE
:10427000CE0189960E94D50B8BA59CA5ADA5BEA5A8
:10428000892B8A2B8B2BB1F0EDA9FEA940805180A0
:1042900062807380B601CE0183960E94D50B8DA1FA
:1042A0009EA1AFA1B8A5A501481659066A067B06CE
:1042B00009F0B8CF44E050E0B60118C08B33910547
:1042C00009F440C08F3F910509F492CFA7CFC801F0
:1042D0000E943D16C8010E943D16382E89CFC801A4
:1042E0000E943D1644E050E06FA978ADC8010E94DD
:1042F0001E167ECFC8010E943D16B82E44E050E045
:1043000069AD7AADC8010E941E168B2D8450990BA1
:10431000AC0170E060E0EACFC8010E943D1644E0C5
:1043200050E069A97AA9C8010E941E16F70166A18A
:1043300077A180A591A50E94614166A377A380A77C
:1043400091A756CFC8010E943D1644E050E06BA9EA
:104350007CA9C8010E941E16F70162A573A584A559
:1043600095A50E94614162A773A784A795A740CF36
:10437000C8010E943D1644E050E06FA578A9C8012D
:104380000E941E16F70162A173A184A195A10E944B
:10439000614162A373A384A395A366A777A780ABAB
:1043A00091AB26CF33243A94AACE2F923F924F92CC
:1043B0005F926F927F928F929F92AF92BF92CF92B5
:1043C000DF92EF92FF920F931F93CF93DF9300D072
:1043D00000D0CDB7DEB78C010E940B3C2FEC37E04C
:1043E00040E050E00E945540DC01CB010196A11D48
:1043F000B11DF80184839583A683B783808391835D
:10440000A283B3835801F3E4AF0EB11CC5010E942F
:10441000510E64E470E0C5010E949E17882309F4E0
:1044200045C10E94E2042B013C01480182E4880E50
:10443000911C48EEC42E43E0D42EE12CF12C52E026
:10444000252E1E821D82D4018C918330B1F1811101
:1044500066C0F80184819581A681B7810196A11D6E
:10446000B11D84839583A683B7830E94E2046419F7
:10447000750986099709A70196010E948740A9013D
:1044800061E0C8010E94571C81E0D4018C938D81AA
:104490009E810197C1F20E94E204641975098609A0
:1044A0009709D801D6962D913D914D915C91D99760
:1044B000261737074807590720F6C5010E94510EF5
:1044C000F80184819581A681B7810196A11DB11D56
:1044D00084839583A683B7830E94E204F801FE9645
:1044E00060837183828393838D819E8126960FB62C
:1044F000F894DEBF0FBECDBFDF91CF911F910F911A
:10450000FF90EF90DF90CF90BF90AF909F908F90F3
:104510007F906F905F904F903F902F9008958430E0
:10452000F1F4F80184819581A681B7810196A11DDE
:10453000B11D84839583A683B7830E94E204641926
:10454000750986099709A70196010E948740A9016C
:1045500063E0C8010E94571CD4012C9298CF81308F
:1045600051F5F80142AD53AD64AD75AD9E012F5FBD
:104570003F4FC8010E943620382EF2E08F1390C0C2
:1045800089819A81AB81BC81F80184839583A6835C
:10459000B7830E94E2046419750986099709A70187
:1045A00096010E948740A90163E0C8010E94571C40
:1045B000D4013C926CCF823009F069CFF80142AD52
:1045C00053AD64AD75AD9E012F5F3F4FC8010E9492
:1045D0003620382EF5E08F135DC0E3E0D401EC9374
:1045E000F80182A193A1A4A1B5A1892B8A2B8B2BC1
:1045F00041F484E893E0A0E0B0E082A393A3A4A3F5
:10460000B5A3F80186A197A1A0A5B1A5892B8A2BF6
:104610008B2B61F482A193A1A4A1B5A1B695A79516
:104620009795879586A397A3A0A7B1A7F80182A520
:1046300093A5A4A5B5A5892B8A2B8B2BA9F482A1C0
:1046400093A1A4A1B5A1AC01BD0123E07695679526
:10465000579547952A95D1F7841B950BA60BB70B59
:1046600082A793A7A4A7B5A7F80186A197A1A0A5A3
:10467000B1A586A797A7A0ABB1AB82A593A5A4A52A
:10468000B5A582AB93ABA4ABB5AB81E090E09E83C4
:104690008D83FDCE96E0891303C0D4011C92F7CE22
:1046A000BFEF3B12F4CEF4011082F1CE1E821D82C8
:1046B0001BCFEF92FF920F931F93CF93DF9300D006
:1046C00000D0CDB7DEB77C0162EB7DE0CE01019674
:1046D0000E94C81F6EEB7DE0CE0101960E94111F63
:1046E00061E473E00E94FB1EB7010E94111FBC0130
:1046F000C7010E94B11FCE0101960E942E20F70132
:10470000048115810115110509F06FC01092440351
:1047100061E081E10E942B0480914406909145065E
:10472000892B31F182E093E09A8389838091FC0D9B
:104730009091FD0DA091FE0DB091FF0D8B839C8398
:10474000AD83BE8343E059EDBE016F5F7F4F84ECC4
:104750009DE00E943808F7014481558164E473E0CC
:1047600084EC9DE00E94DB1384EC9DE00E94F30E3C
:104770008091400690914106892B31F561E080E1FE
:104780000E942B04B701CE0101960E94C81F6BE066
:1047900073E0CE0101960E94FB1EFC01448155810D
:1047A0006081718189E996E00E94EF04CE01019653
:1047B0000E942E206AE070E080E090E00E94AF044A
:1047C00060E080E10E942B0460E081E10E942B0404
:1047D00026960FB6F894DEBF0FBECDBFDF91CF9106
:1047E0001F910F91FF90EF9008950336110510F07F
:1047F00003E610E0F70160817181A80184E493E091
:104800000E94BB43F801EC5BFC4F108281CFBF924A
:10481000CF92DF92EF92FF920F931F93CF93DF938C
:10482000CDB7DEB72F970FB6F894DEBF0FBECDBF62
:104830007C016B016CE073E00E94D11F860188E06F
:10484000C80ED11C80E3B82EF80181918F01803110
:1048500050F4B9821A8241E050E0BE016F5F7F4F91
:10486000C7010E94550DF801319780811B861A8679
:104870001D861C861F861E8640E1BE016F5F7F4F2E
:1048800090E00E94AA3CBE016F5F7F4FCE010A9666
:104890000E94451F4E855F856A857B85C7010E9402
:1048A000550DCE010A960E942E200C151D0561F6AD
:1048B000C7012F960FB6F894DEBF0FBECDBFDF91B4
:1048C000CF911F910F91FF90EF90DF90CF90BF900D
:1048D00008951F920F920FB60F9211242F933F93BA
:1048E0008F939F93AF93BF93809147069091480613
:1048F000A0914906B0914A063091460623E0230F65
:104900002D3758F50196A11DB11D209346068093C1
:10491000470690934806A0934906B0934A068091B3
:104920004B0690914C06A0914D06B0914E06019613
:10493000A11DB11D80934B0690934C06A0934D068C
:10494000B0934E06BF91AF919F918F913F912F9160
:104950000F900FBE0F901F90189526E8230F029618
:10496000A11DB11DD2CF1F920F920FB60F9211242D
:104970000BB60F922F933F934F935F936F937F9359
:104980008F939F93AF93BF93EF93FF9389E996E043
:104990000E949F05FF91EF91BF91AF919F918F91E1
:1049A0007F916F915F914F913F912F910F900BBE2F
:1049B0000F900FBE0F901F9018951F920F920FB679
:1049C0000F9211240BB60F922F938F939F93EF9317
:1049D000FF93E091A906F091AA068081E091AF06CD
:1049E000F091B00682FD1DC090818091B2068F5F6C
:1049F0008F732091B306821741F0E091B206F0E088
:104A0000E756F94F958F8093B206FF91EF919F91F2
:104A10008F912F910F900BBE0F900FBE0F901F9094
:104A200018958081F2CF1F920F920FB60F9211242A
:104A30000BB60F922F933F934F935F936F937F9398
:104A40008F939F93AF93BF93EF93FF9386E397E08A
:104A50000E949F05FF91EF91BF91AF919F918F9120
:104A60007F916F915F914F913F912F910F900BBE6E
:104A70000F900FBE0F901F9018951F920F920FB6B8
:104A80000F9211240BB60F922F938F939F93EF9356
:104A9000FF93E0914607F09147078081E0914C0732
:104AA000F0914D0782FD1DC0908180914F078F5F6F
:104AB0008F7320915007821741F0E0914F07F0E08B
:104AC000EA5CF84F958F80934F07FF91EF919F918C
:104AD0008F912F910F900BBE0F900FBE0F901F90D4
:104AE00018958081F2CF0F931F93CF93DF9310928D
:104AF0009C0610929B0648EE53E060E070E0409305
:104B00009D0650939E0660939F067093A00688E8CA
:104B100092E090939A068093990625E331E03093D2
:104B2000A6062093A50624E331E03093A80620933F
:104B3000A70620E331E03093AA062093A90621E3DB
:104B400031E03093AC062093AB0622E331E03093A2
:104B5000AE062093AD0626E331E03093B0062093F5
:104B6000AF061092B2061092B3061092B4061092DD
:104B7000B506109239071092380740933A075093C0
:104B80003B0760933C0770933D07909337078093F2
:104B9000360785EC90E0909343078093420784ECBE
:104BA00090E0909345078093440780EC90E09093C9
:104BB00047078093460781EC90E0909349078093E4
:104BC000480782EC90E090934B0780934A0786EC6D
:104BD00090E090934D0780934C0710924F071092EE
:104BE0005007109251071092520782E093E0909381
:104BF000E9078093E8071092EA071092EB071092FA
:104C0000EC071092ED071092E5071092E40728ECEC
:104C100032E03093E3072093E20726EF31E0309350
:104C2000E7072093E6071092D6071092D507409326
:104C3000D7075093D8076093D9077093DA072AE90A
:104C400032E03093D4072093D30738E03093DF0766
:104C5000E8EEF3E0F093E107E093E0079093EF07CD
:104C60008093EE071092F0071092F1071092F2076E
:104C70001092F3079093F5078093F4071092F607CC
:104C80001092F7071092F8071092F9079093FB071C
:104C90008093FA071092FC071092FD071092FE070E
:104CA0001092FF0790930108809300081092020869
:104CB00010920308109204081092050890930708B8
:104CC00080930608109208081092090810920A08AA
:104CD00010920B08909313088093120810921408F6
:104CE00010921508109216081092170890930D084C
:104CF00080930C0810920E0810920F081092100862
:104D000010921108909319088093180810921A08AD
:104D100010921B0810921C0810921D0890931F08F7
:104D200080931E08109220081092210810922208E9
:104D3000109223089093070E8093060E1092080E8F
:104D40001092090E10920A0E10920B0E9093010E03
:104D50008093000E1092020E1092030E1092040E19
:104D60001092050E9093FB0D8093FA0D2FEF209378
:104D7000FC0D2093FD0D2093FE0D2093FF0D10924E
:104D8000E20D1092E10D4093E30D5093E40D60931A
:104D9000E50D7093E60DE8EDF2E0F093E00DE093A1
:104DA000DF0D9093EE0D8093ED0D1092EF0D1092AC
:104DB000F00D1092F10D1092F20D3093F70D10924C
:104DC000C70D1092C60D4093C80D5093C90D609346
:104DD000CA0D7093CB0DF093C50DE093C40D909365
:104DE000D30D8093D20D1092D40D1092D50D109248
:104DF000D60D1092D70D3093DC0D6CE073E08EEB86
:104E00009DE00E94D11F6CE073E088EB9DE00E9462
:104E1000D11F6DE073E082EB9DE00E94D11F62E143
:104E200073E08CEA9DE00E94D11F65E173E086EAA1
:104E30009DE00E94D11F68E173E080EA9DE00E943E
:104E4000D11F6BE173E08AE99DE00E94D11F6EE102
:104E500073E084E99DE00E94D11F61E273E08EE877
:104E60009DE00E94D11F64E273E088E89DE00E940B
:104E7000D11F69E273E082E89DE00E94D11F6DE2DC
:104E800073E08CE79DE00E94D11FC4E3DDE00CE7F6
:104E90001DE06CE073E0CE010E94D11F26960C1736
:104EA0001D07B9F7CCEEDCE004E31DE06CE073E035
:104EB000CE010E94D11F26960C171D07B9F76CE092
:104EC00073E084ED9CE00E94D11F6CE073E08AEDFA
:104ED0009CE00E94D11F6CE073E080EE9CE00E9499
:104EE000D11F6CE073E086EE9CE00E94D11F6CE065
:104EF00073E08CEB9CE00E94D11F6CE073E082ECCD
:104F00009CE00E94D11F6CE073E088EC9CE00E9462
:104F1000D11F6CE073E08EEC9CE00E94D11F6CE02E
:104F200073E084EA9CE00E94D11F6CE073E08AEA9F
:104F30009CE00E94D11F6CE073E080EB9CE00E943B
:104F4000D11F6CE073E086EB9CE00E94D11F6CE007
:104F500073E08CE89CE00E94D11F6CE073E082E972
:104F60009CE00E94D11F6CE073E088E99CE00E9405
:104F7000D11F6CE073E08EE99CE00E94D11FCCEF62
:104F8000DBE00CE81CE06CE073E0CE010E94D11F76
:104F900026960C171D07B9F76CE073E080EF9BE0D5
:104FA0000E94D11F6CE073E086EF9BE00E94D11F4E
:104FB00082E093E09093D9098093D8091092DA099E
:104FC0001092DB091092DC091092DD0960E08EE39B
:104FD0000E945904EAE5F5E0E491E0933A08E4E13F
:104FE000F5E0E491F0E0EE0FFF1FE454FB4F8591F4
:104FF000949190933C0880933B081092450810923E
:1050000047081092460810924408109243081092E4
:105010004208109241081092400810923F081092E6
:105020003E0810923D088AE398E09093250880930B
:105030002408DF91CF911F910F910895CF93DF93B3
:10504000CDB7DEB7CF54D1090FB6F894DEBF0FBE8F
:10505000CDBF789484B5826084BD84B5816084BD01
:1050600085B5826085BD85B5816085BD80916E0006
:10507000816080936E001092810080918100826037
:105080008093810080918100816080938100809174
:1050900080008160809380008091B1008460809363
:1050A000B1008091B00081608093B0008091910048
:1050B0008260809391008091910081608093910043
:1050C000809190008160809390008091A100826027
:1050D0008093A1008091A10081608093A1008091C4
:1050E000A00081608093A000809121018260809364
:1050F0002101809121018160809321018091200113
:1051000081608093200180917A00846080937A008E
:1051100080917A00826080937A0080917A00816029
:1051200080937A0080917A00806880937A00109250
:10513000C10040E855E260E070E086E397E00E943D
:10514000E6027CEFE72E7BE0F72EEAE96E2EE4E044
:105150007E2EFAECAF2EF4E0BF2EA4E2CA2EA2E01F
:10516000DA2E10E000E088248394912CD6018C91F3
:10517000B2E0CB0ED11C60E00E945904F50181928F
:1051800091925F01D3011D921D923D010F5F1F4F50
:10519000B801CE0101960E94851F68E87DE0CE012E
:1051A00040960E94C81FBE016F5F7F4FCE014096A0
:1051B0000E94111FBC01C7010E94B11FCE01409681
:1051C0000E942E20CE0101960E942E20B6E0EB0E0A
:1051D000F11C0831110551F64CEEE42E4CE0F42E92
:1051E00054E3C52E5DE0D52E68E5A62E62E0B62E0E
:1051F00010E000E0F5019080F2E0AF0EB11C61E03C
:10520000892D0E9459040F5F1F4FB801CE010196EE
:105210000E94851F60EA7DE0CE0140960E94C81F73
:10522000BE016F5F7F4FCE0140960E94111F60E369
:1052300073E00E94FB1EBC01C6010E94B11FCE019B
:1052400040960E942E20CE0101960E942E20B80189
:10525000CE0101960E94851F60EA7DE0CE01409656
:105260000E94C81FBE016F5F7F4FCE0140960E9413
:10527000111F64E373E00E94FB1EBC01C7010E9482
:10528000B11FCE0140960E942E20CE0101960E94B1
:105290002E2060E0892D0E942B0426E0C20ED11C36
:1052A00036E0E30EF11C0C30110509F0A3CF9CEBA6
:1052B000E92E9CE0F92E24EDC22E2CE0D22E30E710
:1052C000A32E32E0B32E10E000E0D5019C90B2E0B6
:1052D000AB0EB11C61E0892D0E9459040F5F1F4F76
:1052E000B801CE0101960E94851F6AE97DE0CE01DA
:1052F00040960E94C81FBE016F5F7F4FCE0140964F
:105300000E94111F60E373E00E94FB1EBC01C601F6
:105310000E94B11FCE0140960E942E20CE01019620
:105320000E942E20B801CE0101960E94851F6AE9D5
:105330007DE0CE0140960E94C81FBE016F5F7F4F87
:10534000CE0140960E94111F64E373E00E94FB1E91
:10535000BC01C7010E94B11FCE0140960E942E20C1
:10536000CE0101960E942E2060E0892D0E942B0420
:10537000E6E0CE0ED11CF6E0EF0EF11C0430110574
:1053800009F0A3CFACE8EA2EACE0FA2EB4EACB2EBB
:10539000BCE0DB2E18E7A12E12E0B12E10E000E0F9
:1053A000D5019C90B2E0AB0EB11C61E0892D0E944A
:1053B00059040F5F1F4FB801CE0101960E94851F4F
:1053C00064E97DE0CE0140960E94C81FBE016F5F78
:1053D0007F4FCE0140960E94111F60E373E00E9450
:1053E000FB1EBC01C6010E94B11FCE0140960E9467
:1053F0002E20CE0101960E942E20B801CE010196EA
:105400000E94851F64E97DE0CE0140960E94C81F7E
:10541000BE016F5F7F4FCE0140960E94111F64E373
:1054200073E00E94FB1EBC01C7010E94B11FCE01A8
:1054300040960E942E20CE0101960E942E2060E010
:10544000892D0E942B04E6E0CE0ED11CF6E0EF0E73
:10545000F11C0430110509F0A3CF61E083E00E9444
:10546000590461E070E0CE0101960E94851F6EE84C
:105470007DE0CE0140960E94C81FBE016F5F7F4F46
:10548000CE0140960E94111FBC0180EF9BE00E945C
:10549000B11FCE0140960E942E20CE0101960E949F
:1054A0002E2061E083E00E94590460E083E00E94C6
:1054B0002B0461E082E00E94590462E070E0CE01BA
:1054C00001960E94851F6EE87DE0CE0140960E9405
:1054D000C81FBE016F5F7F4FCE0140960E94111F13
:1054E000BC0186EF9BE00E94B11FCE0140960E9456
:1054F0002E20CE0101960E942E2061E082E00E94C3
:10550000590460E082E00E942B0460E080E40E9485
:10551000590460E08FE30E94590461E08DE00E942D
:10552000590461E081E10E94590480E197E2A0E022
:10553000B0E08093060590930705A0930805B0930B
:1055400009050E94E20460930205709303058093AD
:1055500004059093050582E390E0A0E0B0E080931D
:10556000DA059093DB05A093DC05B093DD050E947E
:10557000E2046093D6057093D7058093D805909385
:10558000D9058EED93E0A0E0B0E08093E205909322
:10559000E305A093E405B093E5050E94E20460935F
:1055A000DE057093DF058093E0059093E10580E6CA
:1055B0009AEEA0E0B0E08093ED059093EE05A09305
:1055C000EF05B093F0050E94E2046093E905709343
:1055D000EA058093EB059093EC0508E1E02E02E0EC
:1055E000F02E10E000E0CC24C394D12CD701BC9065
:1055F000B2E0EB0EF11C60E08B2D0E9459048B2D64
:105600000E9402042091680430916904892B69F496
:10561000C601002E02C0880F991F0A94E2F7822B60
:10562000932B90936904809368040F5F1F4F04309D
:105630001105E1F660E08AE30E9459048AE30E94C2
:105640000204892B09F049C181E090E0909345065E
:105650008093440660E08BE30E9459048BE30E9430
:105660000204892B09F03EC181E090E0909341064D
:10567000809340066091680470916904CE010196A0
:105680000E94851FBE016F5F7F4F8EEB9DE00E94E1
:10569000B01ECE0101960E942E2060916804709188
:1056A0006904CE0101960E94851F62EB7DE0CE0168
:1056B00040960E94C81FBE016F5F7F4FCE0140968B
:1056C0000E94111FBC0188EB9DE00E94B11FCE011A
:1056D00040960E942E20CE0101960E942E2080919D
:1056E000440690914506892B09F42BC180916804EA
:1056F0009DEE980F9093070290EC9093020E98EA1B
:105700009093030E96E99093040E8A568093050EAB
:1057100080910B0481112AC01092F3031092F203BE
:1057200088EE93E0A0E0B0E08093F4039093F5035B
:10573000A093F603B093F70388ED92E09093F10302
:105740008093F00382E093E09093FF038093FE0345
:1057500010920004109201041092020410920304AB
:1057600088E08093080481E080930B048DEA93E045
:105770009093E7058093E60580919806882309F4C5
:10578000B6C080E591E00E94460346E050E062E04A
:1057900072E089E090E00E94910682E093E09A83B3
:1057A00089831B821C821D821E82CE0103960E9469
:1057B00022081092CF031092D0031092D1031092BE
:1057C000D2031092D3031092D4031092D5031092F7
:1057D000D6031092D7031092D8031092D9031092D7
:1057E000DA0380E69AEEA0E0B0E08093E3039093C2
:1057F000E403A093E503B093E60380EA9FE0A0E012
:10580000B0E08093E7039093E803A093E903B0939B
:10581000EA03EBEBF3E084E1DF011D928A95E9F7FF
:1058200086E0E2E0F2E0A5EBB3E001900D928A950C
:10583000E1F71092EF038DEA93E00E94D5218130C9
:10584000910509F021C180E591E00E944603009195
:10585000E6051091E705B801625F7F4FCE01019622
:105860000E94D50BCE0103960E942208B8016A5E01
:105870007F4FCE0101960E94D50BCE0103960E9468
:105880003008B8016E5E7F4FCE0101960E94D50BA5
:10589000CE0103960E942908B801625E7F4FCE01B7
:1058A00001960E94D50B8B819C81AD81BE81809336
:1058B0000E0890930F08A0931008B09311080E944F
:1058C0008A047F73809100029091010268277927F2
:1058D000709301026093000228C010924506109256
:1058E0004406B8CE1092410610924006C3CE0E94E4
:1058F0004D0F811146CF82E093E09A838983809196
:10590000020E9091030EA091040EB091050E8B83B0
:105910009C83AD83BE83CE0101960E945C1081E022
:1059200090E090934306809342066CE97DEA8FED08
:105930009DE00E949E1762E079ED84EC9DE00E945C
:105940009E1708E418E0F0E9EF2EFF24F394F80125
:105950009701119221503040E1F7809140069091DB
:105960004106892BF1F1D090680489E996E0909383
:105970003F0680933E0640E052EC61E070E00E94FA
:10598000E602D092F6058EEE92E0A0E0B0E08093C1
:10599000FA059093FB05A093FC05B093FD0586EDF9
:1059A00096E0A0E0B0E08093130490931404A093D9
:1059B0001504B0931604F092F405E092F3051093E9
:1059C000F2050093F10580E18093170461E00E94E5
:1059D000590460E080E10E942B041092F9051092B6
:1059E000F80540E052EC61E070E089E996E00E9441
:1059F000E60284E190E0A0E0B0E080939D06909301
:105A00009E06A0939F06B093A00661E080E10E94ED
:105A1000590460E080E10E942B0461E084E00E9470
:105A2000590461E084E00E942B0408E114E0A12CF9
:105A3000B12C99249394780170904708772041F114
:105A400010924508109247081092460880E0EDE356
:105A5000F8E09801285F3F4F68019191D6019D932E
:105A60006D012A173B07C9F78823F1F098E080E021
:105A7000915009F414C2D801ED918D01E827F0E0AE
:105A8000E454FC4F8491F4CF892B09F04ECF33CFEF
:105A90008AE398E00E94150981119EC11092450881
:105AA0001092470810924608B092C305A092720562
:105AB00088E199E20FB6F894A895809360000FBE34
:105AC00090936000412C512C32014394A8950E9480
:105AD000E2042E967FAF6EAF2E975AE6A52E54E0C5
