:100000000C9457280C94F97E0C94CE7E0C94A37E0D
:100010000C94787E0C944D7E0C94227E0C94F77D8B
:100020000C94CC7D0C9488280C9488280C948828F7
:100030000C9488280C9488280C9488280C94882880
:100040000C9488280C9488280C9488280C94882870
:100050000C9488280C9488280C9488280C94827D11
:100060000C9488280C94AE7F0C94847F0C94882880
:100070000C9488280C9488280C9488280C94882840
:100080000C9488280C9488280C9488280C94882830
:100090000C9488280C9488280C9488280C94882820
:1000A0000C9488280C9488280C9488280C94882810
:1000B0000C9488280C9488280C9488280C94882800
:1000C0000C9488280C9488280C9488280C948828F0
:1000D0000C9488280C9488280C944E7F0C94247FD0
:1000E0000C9488280C94B1290C94D8310C94E92BE9
:1000F0000C9487480C9414350C94BE2A0C945933F4
:100100000C94FF2A0C9476290C946F350C945C3B6C
:100110000C94D6330C94C4330C94C72B0C94393AFA
:100120000C94FB400C94A8380C94A7290C949929A2
:100130000C94A42A0C94383D0C94C6330C9470296A
:100140000C944E2D0C9454920C94B0290C94DA33E8
:100150000C94902A0C94323B0C943B3C0C94E12A76
:100160000C947B2B0C943D380C9424800C94A32984
:100170000C94AC2A0C94763B0C94DB2B0C94E23957
:100180000C948F290C94EC310C9436350C94C338B4
:100190000C94B42A0C94642D0C94D22A0C94B6338B
:1001A0000C9406360C94BE430C9495290C948D3C0B
:1001B0000C947C2B0C9451290C94F6310C94C8347B
:1001C0000C947A290C94092B0C949D290C944D299C
:1001D0000C940B3D0C9482290C9400320C948840B2
:1001E0000C94792A0C942B2C0C94D1330C94EB2A7C
:1001F0000C94812A0C94CC3D0C9485290C94F133F9
:100200000C94E8340C946F2D0C94D2330C949A2AED
:100210000C94EA330C94F7350C94AB290C94782C9D
:100220000C94E2310C94382D0C947E290C94BA3342
:100230000C94862A0C94593C0C94C9330C948F3D31
:100240000C94133B0C9428380C94C82A0C94173740
:100250000C940A320C948B290C94132B0C94B82B0D
:100260000C948B2B0C94F52A0C94B52900407A1031
:10027000F35A00A0724E18090010A5D4E80000E857
:100280007648170000E40B54020000CA9A3B0000B5
:1002900000E1F505000080969800000040420F0044
:1002A0000000A08601000000102700000000E80305
:1002B000000000006400000000000A0000000000D0
:1002C0000100000000002C76D888DC674F0823DF8F
:1002D000C1DFAE59E1B1B796E5E3E453C63AE65162
:1002E000997696E8E6C28426EB898C9B62ED407C89
:1002F0006FFCEFBC9C9F40F2BAA56FA5F490055A25
:100300002AF75C936B6CF9676DC11BFCE0E40D4749
:10031000FEF520E6B500D0ED902E0300943577056C
:100320000080841E080000204E0A000000C80C3324
:100330003333330F986E12831141EF8D2114893BB3
:10034000E65516CFFEE6DB18D1844B381BF77C1D33
:10035000901DA4BBE424203284725E228100C9F186
:1003600024ECA1E53D27343034204E6F7420466FD5
:10037000756E6400436F6E6E656374696F6E3A20CC
:10038000636C6F736500436F6E74656E742D547982
:1003900070653A20746578742F706C61696E0048DE
:1003A0005454502F312E3120343034204E6F74206D
:1003B000466F756E64003C2F626F64793E3C2F6817
:1003C000746D6C3E003C2F6469763E003C2F64697E
:1003D000763E003C2F7461626C653E003C2F747267
:1003E0003E003C2F74643E003C2F7461626C653E9D
:1003F000003C2F74626F64793E00273E3C2F74648A
:100400003E3C2F74723E00222C20746869732E7655
:10041000616C756529272076616C75653D2700271D
:10042000206D61786C656E6774683D2732302720D7
:100430006F6E6368616E67653D2773656E64436FB9
:100440006D6D616E642822616C6961735F647331E4
:10045000386232305F00273E3C2F74643E3C746447
:100460003E3C696E70757420747970653D277465C3
:100470007874272069643D27616C6961735F6473D8
:1004800031386232305F003C2F74643E3C7464202B
:1004900069643D27647331386232305F74656D7012
:1004A00000273E003C2F74643E3C74642069643D28
:1004B00027647331386232305F736E003C74723E71
:1004C0003C74643E445331384232302D003C7462F7
:1004D0006F64793E003C7461626C6520636C61738B
:1004E000733D276F6E65776972652D7461626C6507
:1004F000272069643D276473313862323054616269
:100500006C65273E003C68333E312D57697265208B
:1005100053656E736F727320445331384232303CEE
:100520002F68333E003C74642077696474683D270B
:10053000353025273E003C2F74643E003C2F74610B
:10054000626C653E003C2F74626F64793E00273E0A
:100550003C2F74643E3C2F74723E00222C20746841
:1005600069732E76616C756529272076616C7565D7
:100570003D270027206D61786C656E6774683D27A4
:10058000323027206F6E6368616E67653D27736543
:100590006E64436F6D6D616E642822616C69617376
:1005A0005F6473323433385F00273E3C2F74643EFF
:1005B0003C74643E3C696E70757420747970653D5E
:1005C0002774657874272069643D27616C696173BD
:1005D0005F6473323433385F00273E3C2F74643ECF
:1005E0003C74642069643D276473323433385F7629
:1005F00073656E7300273E3C2F74643E3C74642028
:1006000069643D276473323433385F766164003C3B
:100610002F74643E3C74642069643D2764733234F3
:1006200033385F74656D7000273E003C2F74643E64
:100630003C74642069643D276473323433385F73DB
:100640006E003C74723E3C74643E44533234333822
:100650002D003C74626F64793E003C7461626C658D
:1006600020636C6173733D276F6E65776972652DCA
:100670007461626C65272069643D2764733234338A
:10068000385461626C65273E003C68333E312D571B
:100690006972652053656E736F72732044533234F0
:1006A00033383C2F68333E003C74642077696474AF
:1006B000683D27353025273E003C74723E003C746F
:1006C00061626C6520636C6173733D276F7574653F
:1006D00072273E003C646976207374796C653D270F
:1006E000626F726465723A2031707820736F6C6942
:1006F0006420236363633B206D617267696E2D62C2
:100700006F74746F6D3A20313070783B273E003C37
:100710002F6469763E003C2F7461626C653E003C3C
:100720002F74723E003C2F74643E003C2F74616253
:100730006C653E00222C20746869732E76616C759E
:100740006529273E3C2F74643E3C2F74723E00277F
:10075000206D61786C656E6774683D2732302720A4
:100760006F6E6368616E67653D2773656E64436F86
:100770006D6D616E642822616C6961735F616F00E9
:100780003C74643E3C696E70757420747970653D8C
:100790002774657874272069643D27616C696173EB
:1007A0005F616F00273E3C2F74643E003C74642000
:1007B00069643D27616E614F7574566F6C74616733
:1007C0006500222C20746869732E76616C7565292A
:1007D000273E3C2F74643E0027206D696E3D273014
:1007E00027206D61783D2732353527206F6E63688D
:1007F000616E67653D2773656E64436F6D6D616EF5
:10080000642822616E614F7574003C2F74643E3C15
:1008100074643E3C696E70757420747970653D2710
:100820006E756D626572272069643D27616E614F48
:100830007574003C74723E3C74643E414F003C74DD
:1008400061626C6520636C6173733D27696E6E65D0
:1008500072273E003C68333E416E616C6F67204FEB
:100860007574707574732028302D323535203D2015
:10087000302D313056293C2F68333E003C746420C3
:1008800077696474683D27353025273E003C2F7416
:10089000643E003C2F7461626C653E003C2F7462C4
:1008A0006F64793E00222C20746869732E76616C27
:1008B000756529273E3C2F74643E3C2F74723E00C0
:1008C00027206D61786C656E6774683D273230272C
:1008D000206F6E6368616E67653D2773656E644364
:1008E0006F6D6D616E642822616C6961735F61690F
:1008F00000273E3C2F74643E3C74643E3C696E703D
:10090000757420747970653D277465787427206943
:10091000643D27616C6961735F6169003C2F746499
:100920003E3C74642069643D2761695F737461743F
:100930007573003C74723E3C74643E4149003C74E3
:10094000626F64793E003C7461626C6520636C6127
:1009500073733D27696E6E6572272069643D276158
:100960006E61496E707574735461626C65273E00E8
:100970003C68333E416E616C6F6720496E707574E0
:10098000732028302D31303234203D20302D31304D
:1009900056293C2F68333E003C74642077696474A8
:1009A000683D27353025273E003C74723E003C747C
:1009B00061626C6520636C6173733D276F7574654C
:1009C00072273E003C646976207374796C653D271C
:1009D000626F726465723A2031707820736F6C694F
:1009E0006420236363633B206D617267696E2D62CF
:1009F0006F74746F6D3A20313070783B273E003C45
:100A00002F6469763E003C2F7461626C653E003C49
:100A10002F74723E003C2F74643E003C2F74616260
:100A20006C653E003C2F74626F64793E00222C207E
:100A3000746869732E76616C756529273E3C2F7446
:100A4000643E3C2F74723E0027206D61786C656EA9
:100A50006774683D27323027206F6E6368616E6768
:100A6000653D2773656E64436F6D6D616E6428220A
:100A7000616C6961735F646900273E3C2F74643E5A
:100A80003C74643E3C696E70757420747970653D89
:100A90002774657874272069643D27616C696173E8
:100AA0005F6469003C2F74643E3C74642069643D5B
:100AB0002764695F737461747573003C74723E3CA3
:100AC00074643E4449003C74626F64793E003C7437
:100AD00061626C6520636C6173733D27696E6E653E
:100AE00072272069643D27646967496E7075747365
:100AF0005461626C6532273E003C683320636C6150
:100B000073733D276469672D696E707574732D74F6
:100B100069746C65273E4469676974616C20496E2D
:100B2000707574732031332D32343C2F68333E009E
:100B30003C74642077696474683D27353025273E0E
:100B4000003C2F74643E003C2F7461626C653E0073
:100B50003C2F74626F64793E00222C2074686973A4
:100B60002E76616C756529273E3C2F74643E3C2FC0
:100B700074723E0027206D61786C656E6774683D05
:100B800027323027206F6E6368616E67653D27737B
:100B9000656E64436F6D6D616E642822616C69617E
:100BA000735F646900273E3C2F74643E3C74643E6E
:100BB0003C696E70757420747970653D2774657832
:100BC00074272069643D27616C6961735F64690003
:100BD0003C2F74643E3C74642069643D2764695F03
:100BE000737461747573003C74723E3C74643E446B
:100BF00049003C74626F64793E003C7461626C65CC
:100C000020636C6173733D27696E6E65722720697E
:100C1000643D27646967496E707574735461626CD2
:100C20006531273E003C683320636C6173733D2758
:100C30006469672D696E707574732D7469746C6561
:100C4000273E4469676974616C20496E70757473DE
:100C500020312D31323C2F68333E003C74642077C4
:100C6000696474683D27353025273E003C74723E28
:100C7000003C7461626C6520636C6173733D276F27
:100C800075746572273E003C646976207374796CD4
:100C9000653D27626F726465723A20317078207307
:100CA0006F6C696420236363633B206D61726769C5
:100CB0006E2D626F74746F6D3A20313070783B27FF
:100CC0003E003C2F6469763E003C2F7461626C6587
:100CD0003E003C2F74723E003C2F74643E003C2F5B
:100CE0007461626C653E003C2F74643E3C2F7472EC
:100CF0003E003C2F7461626C653E00222C207468BB
:100D000069732E76616C756529273E3C2F74643EAD
:100D10003C2F74723E0027206D61786C656E67749D
:100D2000683D27323027206F6E6368616E67653DCE
:100D30002773656E64436F6D6D616E642822616C0C
:100D40006961735F6C7373003C74643E3C696E70E0
:100D5000757420747970653D2774657874272069EF
:100D6000643D27616C6961735F6C7373003E3C2F57
:100D700074643E002064697361626C6564002227BC
:100D8000206F6E626C75723D2777696E646F772E87
:100D900061637469766550574D4669656C643D6E54
:100DA000756C6C2700222C20746869732E76616C38
:100DB00075652927206F6E666F6375733D277769A8
:100DC0006E646F772E61637469766550574D46691E
:100DD000656C643D226C737350574D0027206D691C
:100DE0006E3D273027206D61783D2732353527202D
:100DF0007374796C653D2777696474683A2035307F
:100E000070783B27206F6E6368616E67653D27735E
:100E1000656E64436F6D6D616E6428226C73730040
:100E20003C74643E3C696E70757420747970653DE5
:100E3000276E756D626572272069643D276C737338
:100E400050574D003E3C2F74643E0020636865633C
:100E50006B65640027292E76616C7565203D2074D2
:100E60006869732E636865636B6564203F20323563
:100E700035203A20303B22003D27202B2028746863
:100E800069732E636865636B6564203F2031203A87
:100E9000203029293B20646F63756D656E742E6761
:100EA0006574456C656D656E744279496428276C7C
:100EB000737350574D0022206F6E6368616E6765D3
:100EC0003D22666574636828272F636F6D6D616EC0
:100ED000643F6C7373003C2F74643E3C74643E3C0E
:100EE000696E70757420747970653D2263686563FE
:100EF0006B626F78222069643D226C7373003C74CE
:100F0000723E3C74643E4C535320003C7461626CEE
:100F10006520636C6173733D27696E6E6572273E51
:100F2000003C68333E4C6F772D53696465205377DE
:100F30006974636865732053746174757320283015
:100F40002D323535203D20302D562B293C2F68334E
:100F50003E003C74723E3C74643E003C2F74643E20
:100F60003C2F74723E003C2F7461626C653E00221F
:100F70002C20746869732E76616C756529273E3C58
:100F80002F74643E3C2F74723E0027206D61786C94
:100F9000656E6774683D27323027206F6E63686125
:100FA0006E67653D2773656E64436F6D6D616E643A
:100FB0002822616C6961735F687373003C74643EDE
:100FC0003C696E70757420747970653D277465781E
:100FD00074272069643D27616C6961735F6873736E
:100FE000002227206F6E626C75723D2777696E64F0
:100FF0006F772E61637469766550574D4669656CED
:10100000643D6E756C6C273E3C2F74643E00222C50
:1010100020746869732E76616C75652927206F6E60
:10102000666F6375733D2777696E646F772E6163B2
:101030007469766550574D4669656C643D226873E6
:101040007350574D0027206D696E3D273027206D66
:1010500061783D2732353527207374796C653D27DB
:1010600077696474683A20353070783B27206F6E5A
:101070006368616E67653D2773656E64436F6D6D70
:10108000616E642822687373003C74643E3C696E30
:1010900070757420747970653D276E756D62657228
:1010A000272069643D2768737350574D003E3C2FDD
:1010B00074643E0020636865636B65640027292EB5
:1010C00076616C7565203D20746869732E63686570
:1010D000636B6564203F20323535203A20303B2257
:1010E000003D27202B2028746869732E6368656390
:1010F0006B6564203F2031203A203029293B206451
:101100006F63756D656E742E676574456C656D658E
:101110006E7442794964282768737350574D0022D2
:10112000206F6E6368616E67653D226665746368F3
:1011300028272F636F6D6D616E643F687373003C89
:101140002F74643E3C74643E3C696E707574207408
:101150007970653D22636865636B626F78222069F0
:10116000643D22687373003C74723E3C74643E4874
:10117000535320003C7461626C6520636C6173732F
:101180003D27696E6E6572273E003C68333E4869B4
:1011900067682D5369646520537769746368657364
:1011A000205374617475732028302D323535203DFD
:1011B00020302D562B293C2F68333E003C74723E64
:1011C0003C74643E003C7461626C6520636C6173C6
:1011D000733D27696E6E6572273E003C746420770C
:1011E000696474683D27353025273E003C2F7464C0
:1011F0003E003C2F7461626C653E00223E3C2F74C1
:10120000643E3C2F74723E00222076616C75653D11
:1012100022003E3C2F74643E3C74643E3C696E7018
:10122000757420747970653D227465787422206E1F
:10123000616D653D22616C6961735F72656C617996
:101240000020636865636B6564003D27202B2028C0
:10125000746869732E636865636B6564203F203131
:10126000203A20302929220022206F6E6368616EA7
:1012700067653D22666574636828272F636F6D6D0F
:10128000616E643F72656C6179003C2F74643E3C12
:1012900074643E3C696E70757420747970653D228B
:1012A000636865636B626F78222069643D227265B2
:1012B0006C6179003C74723E3C74643E52656C61B2
:1012C0007920003C7461626C6520636C6173733DCE
:1012D00027696E6E6572273E003C68333E52656C2E
:1012E0006179205374617475733C2F68333E003C00
:1012F00074642077696474683D27353025273E0083
:101300003C74723E003C7461626C6520636C617376
:10131000733D276F75746572273E003C64697620C3
:101320007374796C653D27626F726465723A20311F
:10133000707820736F6C696420236363633B206D56
:10134000617267696E2D626F74746F6D3A2031300F
:1013500070783B273E003C2F6469763E003C2F743A
:1013600061626C653E003C2F74723E003C2F7464D9
:101370003E003C2F7461626C653E003C74723E3CE2
:1013800074643E53657269616C20446562756720C0
:1013900028313135323030204264293C2F74643E8C
:1013A0003C74643E3C73656C6563742069643D27DE
:1013B0006465627567456E61626C656427206F6E57
:1013C0006368616E67653D2773656E64436F6D6D1D
:1013D000616E6428226465627567456E61626C6542
:1013E00064222C20746869732E76616C75652927D8
:1013F0003E3C6F7074696F6E2076616C75653D2739
:1014000030272073656C65637465643E4F66663C87
:101410002F6F7074696F6E3E3C6F7074696F6E20D1
:1014200076616C75653D2731273E4F6E3C2F6F709E
:1014300074696F6E3E3C2F73656C6563743E3C2F20
:1014400074643E3C2F74723E003C74723E3C746483
:101450003E50756C7365732053656E73696E6720BB
:101460002844492031302C31312C3132293C2F7421
:10147000643E3C74643E3C73656C656374206964CF
:101480003D2770756C73654F6E27206F6E636861C2
:101490006E67653D2773656E64436F6D6D616E6445
:1014A000282270756C73654F6E222C2074686973E6
:1014B0002E76616C756529273E3C6F7074696F6E7E
:1014C0002076616C75653D2730272073656C6563F8
:1014D0007465643E4F66663C2F6F7074696F6E3E34
:1014E0003C6F7074696F6E2076616C75653D273155
:1014F000273E4F6E3C2F6F7074696F6E3E3C2F73AA
:10150000656C6563743E3C2F74643E3C2F74723E80
:10151000003C74723E3C74643E5570646174652096
:10152000776562736572766572753C2F74643E3CB4
:1015300074643E3C696E70757420747970653D27E3
:101540006E756D626572272069643D277765625507
:1015500070646174654379636C6527206D696E3DC5
:101560002735303027206D61783D273130303030DD
:1015700027207374796C653D2777696474683A2015
:10158000383070783B27206F6E6368616E67653D09
:101590002773656E64436F6D6D616E642822776595
:1015A000625570646174654379636C65222C2074A4
:1015B0006869732E76616C756529273E206D733CD2
:1015C0002F74643E3C2F74723E003C74723E3C7437
:1015D000643E50756C7365732053656E6420437967
:1015E000636C653C2F74643E3C74643E3C696E7071
:1015F000757420747970653D276E756D626572270C
:101600002069643D2770756C736553656E6443791A
:10161000636C6527206D696E3D273230303027209E
:101620007374796C653D2777696474683A20383043
:1016300070783B27206F6E6368616E67653D277326
:10164000656E64436F6D6D616E64282270756C7396
:101650006553656E644379636C65222C20746869F8
:10166000732E76616C756529273E206D733C2F744F
:10167000643E3C2F74723E003C74723E3C74643E87
:10168000416E616C6F6720496E7075742043796399
:101690006C653C2F74643E3C74643E3C696E7075AE
:1016A0007420747970653D276E756D6265722720B0
:1016B00069643D27616E61496E7075744379636C2E
:1016C0006527206D696E3D273230303027207374D6
:1016D000796C653D2777696474683A203830707892
:1016E0003B27206F6E6368616E67653D2773656E8B
:1016F00064436F6D6D616E642822616E61496E7026
:1017000075744379636C65222C20746869732E7636
:10171000616C756529273E206D733C2F74643E3CD7
:101720002F74723E003C74723E3C74643E312D57FF
:10173000697265204379636C653C2F74643E3C7428
:10174000643E3C696E70757420747970653D276ED7
:10175000756D626572272069643D276F6E655769F4
:1017600072654379636C6527206D696E3D2735305E
:10177000303027207374796C653D2777696474680D
:101780003A20383070783B27206F6E6368616E674F
:10179000653D2773656E64436F6D6D616E642822CD
:1017A0006F6E65576972654379636C65222C20748E
:1017B0006869732E76616C756529273E206D733CD0
:1017C0002F74643E3C2F74723E003C7461626C6501
:1017D00020636C6173733D276F746865722D736548
:1017E0007474696E67732D7461626C65273E003C8A
:1017F00068333E4F746865722073657474696E67F0
:10180000733C2F68333E003C7464207769647468CD
:101810003D27353025273E003C2F74643E003C2F89
:101820007461626C653E003C2F74643E3C2F7472A0
:101830003E003C74723E3C74643E5665727A65208C
:1018400048617264776172653C2F74643E3C7464D5
:101850003E003C74723E3C74643E53657269616C38
:10186000204E756D6265723C2F74643E3C74643E1C
:101870003C696E70757420747970653D2774657865
:1018800074272069643D2773657269616C4E756DBC
:1018900062657227206D61786C656E6774683D279C
:1018A000323027206F6E6368616E67653D27736510
:1018B0006E64436F6D6D616E642822736572696139
:1018C0006C4E756D626572222C20746869732E7679
:1018D000616C756529272070616464696E673D30AD
:1018E0003E3C2F74643E3C2F74723E003C2F746467
:1018F0003E3C2F74723E003A0030003C74723E3C15
:1019000074643E4D414320416464726573733C2F9F
:1019100074643E3C74643E003C2F74643E3C2F74FF
:10192000723E003C74723E3C74643E47617465775D
:1019300061793C2F74643E3C74643E003C2F7464B7
:101940003E3C2F74723E003C74723E3C74643E49CF
:1019500050204164647265737320284448435029C1
:101960003C2F74643E3C74643E003C2F74643E3CE7
:101970002F74723E003C74723E3C74643E44495085
:101980002053776974636820416464726573733CA3
:101990002F74643E3C74643E003C7461626C65204C
:1019A000636C6173733D2762617369632D696E6651
:1019B0006F2D7461626C65273E003C68333E426166
:1019C00073696320496E666F726D6174696F6E3CF6
:1019D0002F68333E003C74642077696474683D2747
:1019E000353025273E003C74723E003C7461626CC9
:1019F0006520636C6173733D276F75746572273E54
:101A0000003C646976207374796C653D27626F725F
:101A10006465723A2031707820736F6C696420239A
:101A20006363633B206D617267696E2D626F7474CE
:101A30006F6D3A20313070783B273E003C68323E73
:101A40005261696C6475696E6F20436F6E74726F5A
:101A50006C2050616E656C3C2F68323E003C2F64F8
:101A600069763E003C696E70757420747970653DCE
:101A700027627574746F6E272076616C75653D27DB
:101A80005265626F6F7427206F6E636C69636B3D84
:101A900027696628636F6E6669726D2822506F2011
:101AA000737469736B7520746C61C48DC3AD746B92
:101AB0006120726573657420646F6A6465206B20B1
:101AC000726573657475206D6F64756C752E20502A
:101AD0006F6B7261C48D6F7661743F222929207308
:101AE000656E64436F6D6D616E6428227265736507
:101AF00074222C203129273E003C696E70757420B9
:101B0000747970653D27627574746F6E27206F6EEF
:101B1000636C69636B3D2277696E646F772E6C6FBF
:101B2000636174696F6E2E687265663D272F696EFA
:101B3000666F27222076616C75653D27566965774B
:101B400020446F6373273E003C64697620636C61B8
:101B500073733D2772657365742D627574746F6E4F
:101B6000273E003C64697620636C6173733D276394
:101B70006F6E7461696E6572273E003C626F6479B6
:101B80003E003C2F686561643E003C2F73637269C0
:101B900070743E00646F63756D656E742E6164646D
:101BA0004576656E744C697374656E65722822445F
:101BB0004F4D436F6E74656E744C6F616465642243
:101BC0002C20757064617465537461747573293B5E
:101BD000007D0020207D293B00202020207570649E
:101BE00061746553746174757328293B002020204B
:101BF000207D0020202020202064656C65746520F5
:101C000070656E64696E67436F6D6D616E64735B62
:101C1000706172616D5D3B00202020206966202884
:101C2000706172616D2E7374617274735769746838
:101C300028276873732729207C7C20706172616D6E
:101C40002E7374617274735769746828276C737388
:101C5000272929207B002020666574636828272FA8
:101C6000636F6D6D616E643F27202B207061726120
:101C70006D202B20273D27202B2076616C75652950
:101C80002E7468656E28726573706F6E7365203D83
:101C90003E20726573706F6E73652E74657874285C
:101CA00029292E7468656E2864617461203D3E2088
:101CB0007B0020207D002020202070656E64696EEE
:101CC00067436F6D6D616E64735B706172616D5DB2
:101CD000203D20747275653B0020206966202870C5
:101CE0006172616D2E7374617274735769746828C0
:101CF000276873732729207C7C20706172616D2EA8
:101D00007374617274735769746828276C737327CE
:101D10002929207B0066756E6374696F6E20736578
:101D20006E64436F6D6D616E6428706172616D2CBD
:101D30002076616C756529207B007D0020207D293F
:101D40003B002020202020207D002020202020205B
:101D500020206669727374557064617465203D203B
:101D600066616C73653B0020202020202020207DB0
:101D700000202020202020202020207D0020202046
:101D800020202020202020202073657269616C4E65
:101D9000756D626572496E7075742E636C617373D4
:101DA0004C6973742E72656D6F766528276E6F2D82
:101DB000626F7264657227293B002020202020205A
:101DC000202020207D20656C7365207B0020202052
:101DD00020202020202020202073657269616C4E15
:101DE000756D626572496E7075742E636C61737384
:101DF0004C6973742E61646428276E6F2D626F7254
:101E000064657227293B00202020202020202020EC
:101E10002069662028646174612E73657269616C43
:101E20004C6F636B656429207B00202020202020DC
:101E300020206966202873657269616C4E756D6239
:101E40006572496E70757429207B00202020202047
:101E50002020206966202873657269616C4E756D5B
:101E6000626572496E707574292073657269616C60
:101E70004E756D626572496E7075742E76616C7503
:101E800065203D20646174612E73657269616C4EDA
:101E9000756D626572207C7C2027273B0020202006
:101EA00020202020206C65742073657269616C4E5F
:101EB000756D626572496E707574203D20646F6344
:101EC000756D656E742E676574456C656D656E74B1
:101ED00042794964282773657269616C4E756D6239
:101EE000657227293B0020202020202020206966C1
:101EF00020286465627567456E61626C656429209F
:101F00006465627567456E61626C65642E76616CAE
:101F10007565203D20646174612E64656275674556
:101F20006E61626C65642E746F537472696E67289B
:101F3000293B0020202020202020206C6574206474
:101F400065627567456E61626C6564203D20646FF3
:101F500063756D656E742E676574456C656D656E31
:101F6000744279496428276465627567456E6162C9
:101F70006C656427293B0020202020202020207D24
:101F80000020202020202020202020696620286199
:101F90006C696173496E7075742920616C69617335
:101FA000496E7075742E76616C7565203D20646194
:101FB00074612E616C6961735F64733138623230B1
:101FC0005B695D207C7C2027273B0020202020208F
:101FD00020202020206C657420616C696173496E3B
:101FE000707574203D20646F63756D656E742E6727
:101FF0006574456C656D656E744279496428276126
:102000006C6961735F647331386232305F27202BF3
:102010002028692B3129293B002020202020202046
:1020200020666F7220286C65742069203D20303B4B
:102030002069203C20646174612E616C6961735F6A
:10204000647331386232302E6C656E6774683B2081
:10205000692B2B29207B0020202020202020202FCE
:102060002F2050726F2044533138423230002020EC
:102070002020202020207D00202020202020202023
:10208000202069662028616C696173496E707574DF
:102090002920616C696173496E7075742E76616C6C
:1020A0007565203D20646174612E616C6961735FA8
:1020B0006473323433385B695D207C7C2027273B96
:1020C00000202020202020202020206C657420610A
:1020D0006C696173496E707574203D20646F63751F
:1020E0006D656E742E676574456C656D656E7442C2
:1020F0007949642827616C6961735F647332343392
:10210000385F27202B2028692B3129293B002020EC
:10211000202020202020666F7220286C65742069A2
:10212000203D20303B2069203C20646174612E6199
:102130006C6961735F6473323433382E6C656E671B
:1021400074683B20692B2B29207B00202020202035
:102150002020202F2F2050726F20445332343338E8
:102160000020202020202020207D00202020202052
:10217000202020202069662028616C696173496EE7
:102180007075742920616C696173496E7075742E65
:1021900076616C7565203D20646174612E616C69A7
:1021A00061735F616E614F7574735B695D207C7CE8
:1021B0002027273B00202020202020202020206CCA
:1021C000657420616C696173496E707574203D207F
:1021D000646F63756D656E742E676574456C656DAF
:1021E000656E74427949642827616C6961735F6127
:1021F0006F27202B2028692B3129293B003B2069A0
:102200002B2B29207B002020202020202020666FDF
:102210007220286C65742069203D20303B206920A5
:102220003C200020202020202020202F2F20507212
:102230006F20616E616C6F67206F75747075747359
:102240000020202020202020207D00202020202071
:10225000202020202069662028616C696173496E06
:102260007075742920616C696173496E7075742E84
:1022700076616C7565203D20646174612E616C69C6
:1022800061735F6C73735B695D207C7C2027273BE7
:1022900000202020202020202020206C6574206138
:1022A0006C696173496E707574203D20646F63754D
:1022B0006D656E742E676574456C656D656E7442F0
:1022C0007949642827616C6961735F6C7373272097
:1022D0002B2028692B3129293B003B20692B2B29F6
:1022E000207B002020202020202020666F722028C4
:1022F0006C65742069203D20303B2069203C200023
:1023000020202020202020202F2F2050726F204CB2
:1023100053530020202020202020207D002020203A
:102320002020202020202069662028616C696173AC
:10233000496E7075742920616C696173496E70759E
:10234000742E76616C7565203D20646174612E6128
:102350006C6961735F6873735B695D207C7C2027A7
:10236000273B00202020202020202020206C657486
:1023700020616C696173496E707574203D20646FD3
:1023800063756D656E742E676574456C656D656EFD
:1023900074427949642827616C6961735F6873735B
:1023A00027202B2028692B3129293B003B20692B32
:1023B0002B29207B002020202020202020666F72E7
:1023C00020286C65742069203D20303B2069203C2A
:1023D000200020202020202020202F2F2050726F2E
:1023E000204853530020202020202020207D002042
:1023F00020202020202020202069662028616C6970
:102400006173496E7075742920616C696173496EDE
:102410007075742E76616C7565203D206461746101
:102420002E616C6961735F72656C6179735B695D64
:10243000207C7C2027273B002020202020202020DB
:1024400020206C657420616C696173496E707574CD
:10245000203D20646F63756D656E742E67657445ED
:102460006C656D656E74427949642827616C696199
:10247000735F72656C617927202B2028692B3129C5
:10248000293B003B20692B2B29207B00202020208A
:1024900020202020666F7220286C65742069203D02
:1024A00020303B2069203C200020202020202020BC
:1024B000202F2F204E6173746176656EC3AD20614D
:1024C0006C696173C5AF2070726F2072656C617941
:1024D000730020202020202020207D00202020208C
:1024E00020202020202069662028616E614F7574AD
:1024F000566F6C746167652920616E614F75745603
:102500006F6C746167652E74657874436F6E746563
:102510006E74203D20272827202B20646174612EB3
:10252000616E614F757473566F6C746167655B693A
:102530005D2E746F4669786564283129202B202729
:102540005629273B00202020202020202020206CFE
:10255000657420616E614F7574566F6C7461676548
:10256000203D20646F63756D656E742E67657445DC
:102570006C656D656E74427949642827616E614FA0
:102580007574566F6C7461676527202B2028692B42
:102590003129293B002020202020202020202069D4
:1025A000662028616E614F75742920616E614F75D8
:1025B000742E76616C7565203D20646174612E61B6
:1025C0006E614F7574735B695D207C7C20303B00CD
:1025D000202020202020202020206C657420616E87
:1025E000614F7574203D20646F63756D656E742E48
:1025F000676574456C656D656E744279496428271A
:10260000616E614F757427202B2028692B31292991
:102610003B003B20692B2B29207B00202020202001
:10262000202020666F7220286C65742069203D2070
:10263000303B2069203C200020202020202020202A
:102640007D00202020202020202020207570646123
:102650007465496E74657276616C4964203D2073BF
:102660006574496E74657276616C28757064617406
:10267000655374617475732C20646174612E776581
:10268000625570646174654379636C65207C7C205D
:10269000353030293B002020202020202020202001
:1026A00069662028757064617465496E7465727618
:1026B000616C49642920636C656172496E7465724E
:1026C00076616C28757064617465496E74657276A4
:1026D000616C4964293B00202020202020202020FC
:1026E000207765625570646174654379636C652E0B
:1026F00076616C7565203D20646174612E7765623A
:102700005570646174654379636C65207C7C203509
:1027100030303B0020202020202020206966202807
:102720007765625570646174654379636C652920CF
:102730007B0020202020202020206C6574207765DD
:10274000625570646174654379636C65203D2064F3
:102750006F63756D656E742E676574456C656D6528
:102760006E74427949642827776562557064617494
:10277000654379636C6527293B00202020202020B9
:1027800020206966202870756C736553656E6443FC
:1027900079636C65292070756C736553656E64434D
:1027A00079636C652E76616C7565203D206461747B
:1027B000612E70756C736553656E644379636C65E7
:1027C000207C7C20323030303B0020202020202014
:1027D00020206C65742070756C736553656E64435E
:1027E00079636C65203D20646F63756D656E742E32
:1027F000676574456C656D656E7442794964282718
:1028000070756C736553656E644379636C652729D5
:102810003B00202020202020202069662028707581
:102820006C73654F6E292070756C73654F6E2E76D4
:10283000616C7565203D20646174612E70756C73E8
:10284000654F6E2E746F537472696E6728293B0052
:1028500020202020202020206C65742070756C734F
:10286000654F6E203D20646F63756D656E742E67D5
:102870006574456C656D656E74427949642827708E
:10288000756C73654F6E27293B0020202020202087
:10289000202069662028616E61496E7075744379E5
:1028A000636C652920616E61496E7075744379634C
:1028B0006C652E76616C7565203D20646174612EB7
:1028C000616E61496E7075744379636C65207C7CC0
:1028D00020313030303B0020202020202020206C70
:1028E000657420616E61496E7075744379636C65BF
:1028F000203D20646F63756D656E742E6765744549
:102900006C656D656E74427949642827616E614912
:102910006E7075744379636C6527293B0020202015
:102920002020202020696620286F6E655769726517
:102930004379636C6529206F6E65576972654379C9
:10294000636C652E76616C7565203D2064617461F1
:102950002E6F6E65576972654379636C65207C7C68
:1029600020353030303B0020202020202020206CDB
:102970006574206F6E65576972654379636C652075
:102980003D20646F63756D656E742E676574456C6C
:10299000656D656E744279496428276F6E65576965
:1029A00072654379636C6527293B00202020202035
:1029B0002069662028666972737455706461746555
:1029C00029207B002020202020207D002020202086
:1029D000202020207D0020202020202020202020BA
:1029E00074656D70456C656D2E74657874436F6E9B
:1029F00074656E74203D20646174612E6473313897
:102A00006232305B695D2E74656D70202B20274328
:102A1000273B0020202020202020202020736E45EE
:102A20006C656D2E74657874436F6E74656E74207A
:102A30003D20646174612E647331386232305B69A9
:102A40005D2E736E3B002020202020202020696610
:102A50002028736E456C656D2026262074656D7088
:102A6000456C656D29207B0020202020202020201F
:102A70006C65742074656D70456C656D203D2064D7
:102A80006F63756D656E742E676574456C656D65F5
:102A90006E74427949642827647331386232305F3A
:102AA00074656D7027202B2028692B3129293B0064
:102AB00020202020202020206C657420736E456C1F
:102AC000656D203D20646F63756D656E742E67655E
:102AD00074456C656D656E7442794964282764732A
:102AE00031386232305F736E27202B2028692B31FA
:102AF00029293B00202020202020666F7220286C8E
:102B000065742069203D20303B2069203C206461B1
:102B100074612E647331386232302E6C656E677466
:102B2000683B20692B2B29207B002020202020209F
:102B30002F2F205570646174652044533138423220
:102B4000302053656E736F72730020202020202088
:102B50007D0020202020202020207D0020202020FB
:102B60002020202020207673656E73456C656D2EC5
:102B700074657874436F6E74656E74203D20646173
:102B800074612E6473323433385B695D2E767365FD
:102B90006E73202B202756273B002020202020204A
:102BA00020202020766164456C656D2E74657874F4
:102BB000436F6E74656E74203D20646174612E6491
:102BC00073323433385B695D2E766164202B2027A5
:102BD00056273B0020202020202020202020746524
:102BE0006D70456C656D2E74657874436F6E746599
:102BF0006E74203D20646174612E64733234333806
:102C00005B695D2E74656D70202B202743273B0088
:102C100020202020202020202020736E456C656D10
:102C20002E74657874436F6E74656E74203D2064F5
:102C30006174612E6473323433385B695D2E736E58
:102C40003B00202020202020202069662028736E51
:102C5000456C656D2026262074656D70456C656D2C
:102C600020262620766164456C656D202626207618
:102C700073656E73456C656D29207B0020202020D4
:102C8000202020206C6574207673656E73456C651A
:102C90006D203D20646F63756D656E742E6765747D
:102CA000456C656D656E744279496428276473329A
:102CB0003433385F7673656E7327202B2028692B99
:102CC0003129293B0020202020202020206C657401
:102CD00020766164456C656D203D20646F63756D81
:102CE000656E742E676574456C656D656E744279AA
:102CF000496428276473323433385F76616427204F
:102D00002B2028692B3129293B002020202020203E
:102D100020206C65742074656D70456C656D203D78
:102D200020646F63756D656E742E676574456C65A0
:102D30006D656E7442794964282764733234333880
:102D40005F74656D7027202B2028692B3129293B62
:102D50000020202020202020206C657420736E45E8
:102D60006C656D203D20646F63756D656E742E67B4
:102D70006574456C656D656E744279496428276495
:102D800073323433385F736E27202B2028692B3140
:102D900029293B00202020202020666F7220286CEB
:102DA00065742069203D20303B2069203C2064610F
:102DB00074612E6473323433382E6C656E677468B8
:102DC0003B20692B2B29207B002020202020202F36
:102DD0002F20557064617465204453323433382099
:102DE00053656E736F7273002020202020207D00B9
:102DF00020202020202020207D0020202020202096
:102E000020202020737461747573456C656D2E7479
:102E1000657874436F6E74656E74203D20646174D0
:102E2000612E616E61496E707574735B695D202BF4
:102E30002027202827202B20646174612E616E6179
:102E4000496E70757473566F6C746167655B695D0C
:102E50002E746F4669786564283129202B20275607
:102E600029273B00202020202020202069662028C0
:102E7000737461747573456C656D29207B00202027
:102E80002020202020206C65742073746174757379
:102E9000456C656D203D20646F63756D656E742EA5
:102EA000676574456C656D656E7442794964282761
:102EB00061695F73746174757327202B2028692BF7
:102EC0003129293B00202020202020666F722028F5
:102ED0006C65742069203D20303B2069203C2064D3
:102EE0006174612E616E61496E707574732E6C65CC
:102EF0006E6774683B20692B2B29207B00202020E3
:102F00002020202F2F20416E616C6F6720496E704A
:102F1000757473002020202020207D002020202098
:102F2000202020207D002020202020202020202064
:102F3000737461747573456C656D2E746578744334
:102F40006F6E74656E74203D207374617475735474
:102F50006578743B00202020202020202020207D28
:102F60000020202020202020202020202073746199
:102F700074757354657874202B3D20272028636F67
:102F8000756E743A2027202B20646174612E707551
:102F90006C7365436F756E74735B692D395D202B9F
:102FA000202729273B00202020202020202020200F
:102FB00069662028646174612E70756C73654F6E4C
:102FC000202626202869203D3D3D2039207C7C207C
:102FD00069203D3D3D203130207C7C2069203D3DF5
:102FE0003D2031312929207B002020202020202055
:102FF0002020206C65742073746174757354657837
:1030000074203D20646174612E646967496E707537
:1030100074735B695D3B0020202020202020206904
:10302000662028737461747573456C656D29207B07
:103030000020202020202020206C657420737461E3
:10304000747573456C656D203D20646F63756D65A7
:103050006E742E676574456C656D656E7442794952
:1030600064282764695F73746174757327202B204B
:1030700028692B3129293B00202020202020666F41
:103080007220286C65742069203D20303B20692027
:103090003C20646174612E646967496E7075747355
:1030A0002E6C656E6774683B20692B2B29207B0092
:1030B0002020202020202F2F20557064617465204F
:1030C0004469676974616C20496E7075747300207F
:1030D00020202020207D0020202020202020207D56
:1030E00000202020202020202020206C73735057A7
:1030F0004D2E76616C7565203D20646174612E6C87
:10310000737350574D5B695D207C7C20303B002001
:1031100020202020202020696620286C73735057BF
:103120004D20262620646174612E6C737350574DB8
:1031300020262620646174612E6C737350574D5B9A
:10314000695D20213D3D20756E646566696E65642C
:103150002026262077696E646F772E616374697606
:103160006550574D4669656C6420213D3D20276CB4
:10317000737350574D27202B2028692B3129292084
:103180007B0020202020202020207D0020202020C7
:103190002020202020206C73732E636865636B658C
:1031A00064203D20646174612E6C73735B695D20E3
:1031B0003D3D3D20313B0020202020202020206963
:1031C0006620286C737320262620646174612E6C3F
:1031D000737320262620646174612E6C73735B699F
:1031E0005D20213D3D20756E646566696E656420D5
:1031F0002626202170656E64696E67436F6D6D6170
:103200006E64735B276C737327202B2028692B3126
:10321000295D29207B0020202020202020206C6593
:1032200074206C737350574D203D20646F63756D2F
:10323000656E742E676574456C656D656E74427954
:10324000496428276C737350574D27202B20286919
:103250002B3129293B0020202020202020206C65B4
:1032600074206C7373203D20646F63756D656E749C
:103270002E676574456C656D656E74427949642886
:10328000276C737327202B2028692B3129293B00B9
:103290003B20692B2B29207B00202020202020662A
:1032A0006F7220286C65742069203D20303B2069B6
:1032B000203C20002020202020202F2F205570642B
:1032C000617465204C5353002020202020207D0075
:1032D00020202020202020207D00202020202020B1
:1032E0002020202068737350574D2E76616C7565D1
:1032F000203D20646174612E68737350574D5B6983
:103300005D207C7C20303B002020202020202020BD
:103310006966202868737350574D20262620646103
:1033200074612E68737350574D2026262064617493
:10333000612E68737350574D5B695D20213D3D20C0
:10334000756E646566696E65642026262077696EF1
:10335000646F772E61637469766550574D46696571
:103360006C6420213D3D202768737350574D272002
:103370002B2028692B312929207B00202020202088
:103380002020207D002020202020202020202068B8
:1033900073732E636865636B6564203D206461749C
:1033A000612E6873735B695D203D3D3D20313B00BC
:1033B0002020202020202020696620286873732088
:1033C000262620646174612E68737320262620648B
:1033D0006174612E6873735B695D20213D3D2075CA
:1033E0006E646566696E6564202626202170656EB0
:1033F00064696E67436F6D6D616E64735B2768739C
:103400007327202B2028692B31295D29207B002060
:10341000202020202020206C657420687373505772
:103420004D203D20646F63756D656E742E67657405
:10343000456C656D656E74427949642827687373BD
:1034400050574D27202B2028692B3129293B00205C
:10345000202020202020206C657420687373203D7C
:1034600020646F63756D656E742E676574456C6559
:103470006D656E7442794964282768737327202B21
:103480002028692B3129293B003B20692B2B29203F
:103490007B00202020202020666F7220286C65741D
:1034A0002069203D20303B2069203C200020202046
:1034B0002020202F2F2055706461746520485353BD
:1034C000002020202020207D0020202020202020DF
:1034D000206966202872656C6179292072656C61AB
:1034E000792E76616C7565203D20646174612E7261
:1034F000656C6179735B695D207C7C20303B0020CA
:10350000202020202020206C65742072656C617959
:10351000203D20646F63756D656E742E676574451C
:103520006C656D656E7442794964282772656C61BB
:103530007927202B2028692B3129293B003B206942
:103540002B2B29207B00202020202020666F72203A
:10355000286C65742069203D20303B2069203C2088
:10356000002020202020202F2F20557064617465BA
:103570002052656C61797300202066657463682849
:10358000272F7374617475733F74733D27202B204C
:103590006E6577204461746528292E6765745469C7
:1035A0006D652829292E7468656E28726573706FA1
:1035B0006E7365203D3E20726573706F6E73652E6D
:1035C0006A736F6E2829292E7468656E2864617489
:1035D00061203D3E207B0066756E6374696F6E20CE
:1035E0007570646174655374617475732829207BE8
:1035F000006C657420757064617465496E746572E1
:1036000076616C4964203D206E756C6C3B006C6586
:10361000742070656E64696E67436F6D6D616E6472
:1036200073203D207B7D3B006C6574206163746971
:10363000766550574D4669656C64203D206E756C0B
:103640006C3B006C657420666972737455706461BC
:103650007465203D20747275653B003C736372692C
:1036600070743E003C2F7374796C653E002E6E6F53
:103670002D626F72646572207B20626F7264657266
:103680003A206E6F6E653B207D007461626C652E22
:103690006F6E65776972652D7461626C6520746404
:1036A0003A6E74682D6368696C64283529207B2024
:1036B00077696474683A20343070783B207D0074F8
:1036C00061626C652E6F6E65776972652D746162DB
:1036D0006C652074643A6E74682D6368696C642844
:1036E0003429207B2077696474683A2034307078FC
:1036F0003B207D007461626C652E6F6E6577697228
:10370000652D7461626C652074643A6E74682D6313
:1037100068696C64283329207B2077696474683A6F
:1037200020343070783B207D007461626C652E6FB0
:103730006E65776972652D7461626C652074643A98
:103740006E74682D6368696C64283229207B207749
:10375000696474683A2031333070783B207D00749E
:1037600061626C652E6F6E65776972652D7461623A
:103770006C652074643A66697273742D6368696C51
:1037800064207B2077696474683A20383070783B15
:10379000207D007461626C652E6F746865722D7394
:1037A000657474696E67732D7461626C65207464EE
:1037B0003A66697273742D6368696C64207B206259
:1037C0006F726465722D636F6C6C617073653A2003
:1037D000636F6C6C617073653B2077696474683AE1
:1037E0002032303070783B207D007461626C652E31
:1037F00062617369632D696E666F2D7461626C65B9
:103800002074643A66697273742D6368696C64200D
:103810007B20626F726465722D636F6C6C61707374
:10382000653A20636F6C6C617073653B202077692B
:103830006474683A2031383070783B207D007461C0
:10384000626C652E696E6E65722074643A6E74687F
:103850002D6368696C64283229207B207769647441
:10386000683A20383070783B207D007461626C6566
:103870002E696E6E65722074643A6E74682D63688A
:10388000696C64283129207B2077696474683A2048
:1038900031303070783B207D007461626C652E6938
:1038A0006E6E65722074643A66697273742D636813
:1038B000696C64207B2077696474683A2031303009
:1038C00070783B207D007472207B20686569676892
:1038D000743A20323670783B207D002E7265736515
:1038E000742D627574746F6E20696E707574207BB0
:1038F0002070616464696E673A203570783B207D82
:10390000002E72657365742D627574746F6E207B02
:1039100020706F736974696F6E3A206162736F6CA7
:103920007574653B20746F703A203070783B20725C
:10393000696768743A203070783B207D00696E704A
:1039400075742C2073656C656374207B20666F6EC4
:10395000742D73697A653A20313470783B20706138
:103960006464696E673A203270783B207D0074642D
:10397000207B20766572746963616C2D616C696768
:103980006E3A206D6964646C653B20666F6E742DC1
:1039900073697A653A20313470783B2070616464D1
:1039A000696E673A203270783B207D007461626CEA
:1039B000652E6F75746572207B20626F726465720C
:1039C0003A2031707820736F6C69642023636363DD
:1039D0003B2077696474683A20313030253B2020E1
:1039E0007D007461626C652E696E6E6572207B204D
:1039F000626F726465722D636F6C6C617073653A8F
:103A000020636F6C6C617073653B207769647468C8
:103A10003A20313030253B207D0068312C2068323F
:103A20002C206833207B20666F6E742D66616D6973
:103A30006C793A20417269616C2C2073616E732D30
:103A400073657269663B207D002E636F6E746169D9
:103A50006E6572207B2077696474683A203131305A
:103A60003070783B206D617267696E3A203020615A
:103A700075746F3B20706F736974696F6E3A207252
:103A8000656C61746976653B207D00626F647920A6
:103A90007B20666F6E742D66616D696C793A20418A
:103AA0007269616C2C2073616E732D736572696627
:103AB0003B20666F6E742D73697A653A20313470DD
:103AC000783B20706F736974696F6E3A2072656C11
:103AD00061746976653B207D003C7374796C653E4A
:103AE000003C686561643E3C7469746C653E52617B
:103AF000696C6475696E6F20436F6E74726F6C3C95
:103B00002F7469746C653E003C68746D6C3E003CBB
:103B100021444F43545950452048544D4C3E004396
:103B20006F6E6E656374696F6E3A20636C6F736558
:103B300000436F6E74656E742D547970653A20740D
:103B40006578742F68746D6C00485454502F312E72
:103B50003120323030204F4B0053657269616C2048
:103B60004E756D626572206C6F636B207365742097
:103B7000746F20002048545450003F6C6F636B3DBD
:103B800000474554202F3F00474554202F20004F29
:103B90004B00436F6E6E656374696F6E3A20636CA1
:103BA0006F736500436F6E74656E742D5479706524
:103BB0003A20746578742F706C61696E00485454B3
:103BC000502F312E3120323030204F4B0020736582
:103BD0007420746F2000416C696173204453313844
:103BE00042323020002073657420746F2000416CD5
:103BF0006961732044533234333820002073657474
:103C000020746F2000416C69617320414F200020B7
:103C100073657420746F2000416C696173204149A1
:103C200020002073657420746F2000416C696173FB
:103C300020444920002073657420746F2000416C7B
:103C4000696173204C535320002073657420746F96
:103C50002000416C69617320485353200020736534
:103C60007420746F2000416C6961732072656C610F
:103C700079200052657365742066756E6374696F90
:103C80006E2063616C6C656400557064617465647A
:103C9000206465627567456E61626C65643A2000F8
:103CA00020485454500026006465627567456E6173
:103CB000626C65643D0020485454500026007765CE
:103CC000625570646174654379636C653D0055703D
:103CD00064617465642070756C736553656E6443CC
:103CE00079636C653A2000204854545000260070D7
:103CF000756C736553656E644379636C653D0055FF
:103D00007064617465642070756C73654F6E3A20E1
:103D100000204854545000260070756C73654F6E37
:103D20003D005570646174656420616E61496E7018
:103D300075744379636C653A2000204854545000F0
:103D40002600616E61496E7075744379636C653DE0
:103D50000055706461746564206F6E6557697265A3
:103D60004379636C653A2000204854545000260083
:103D70006F6E65576972654379636C653D002073AA
:103D8000657420746F2000416E616C6F67204F7501
:103D900074707574200020286E6F2050574D206677
:103DA0006F72204C53533429002C2050574D2073F0
:103DB000657420746F20002073657420746F200078
:103DC0004C535320002C2050574D207365742074A1
:103DD0006F20002073657420746F200048535320B7
:103DE000002073657420746F200052656C61792027
:103DF0000053657269616C204E756D626572207347
:103E0000657420746F2000204854545000260073BD
:103E1000657269616C4E756D6265723D000A2020A5
:103E200020203C68333E4164646974696F6E616C44
:103E3000204E6F7465733C2F68333E0A202020208B
:103E40003C7072653E0A436F6D62696E6174696FA2
:103E50006E206F662031776972652073656E736FAF
:103E60007273206D75737420626520757020746F95
:103E7000203130706373206D6178696D756D202815
:103E800044533138423230206F722044533234333D
:103E900038290A5573696E672052533438352074B7
:103EA0006865205544502073796E746178206D7573
:103EB00073742068617665205C6E2073796D626F23
:103EC0006C2061742074686520656E64206F6620C4
:103ED00074686520636F6D6D616E64206C696E65DA
:103EE0000A202020203C2F7072653E0A20202020CE
:103EF0003C703E3C6120687265663D272F273E423C
:103F000061636B20746F20436F6E74726F6C20500E
:103F1000616E656C3C2F613E3C2F703E0A3C2F6207
:103F20006F64793E0A3C2F68746D6C3E0A000A206B
:103F30002020204D4F4442555320526567697374C9
:103F40006572204D61700A726567697374657220CD
:103F50006E756D6265722020202020202020202098
:103F600020206465736372697074696F6E0A302013
:103F70002020202020202020202020202020202041
:103F800020202020202020202072656C6179206F65
:103F900075747075747320312D380A3120202020FB
:103FA0002020202020202020202020202020202011
:103FB00020202020202072656C6179206F7574703C
:103FC00075747320392D31320A32202020202020B0
:103FD00020202020202020202020202020202020E1
:103FE000202020206469676974616C206F7574708B
:103FF0007574732048535320312D342C204C535367
:1040000020312D340A332020202020202020202081
:1040100020202020202020202020202020202020A0
:104020004853532050574D2076616C7565203120E0
:1040300028302D323535290A342020202020202018
:104040002020202020202020202020202020202070
:104050002020204853532050574D2076616C7565C1
:1040600020322028302D323535290A3520202020D5
:104070002020202020202020202020202020202040
:104080002020202020204853532050574D20766177
:104090006C756520332028302D323535290A3620BD
:1040A0002020202020202020202020202020202010
:1040B0002020202020202020204853532050574DDE
:1040C0002076616C756520342028302D32353529F5
:1040D0000A372020202020202020202020202020DF
:1040E0002020202020202020202020204C5353203E
:1040F00050574D2076616C756520312028302D3267
:104100003535290A3820202020202020202020207A
:104110002020202020202020202020202020204C73
:1041200053532050574D2076616C756520322028FE
:10413000302D323535290A3920202020202020201A
:10414000202020202020202020202020202020206F
:1041500020204C53532050574D2076616C756520BC
:10416000332028302D323535290A313020202020C7
:10417000202020202020202020202020202020203F
:1041800020202020204C53532050574D2076616C26
:10419000756520342028302D323535290A313120FB
:1041A000202020202020202020202020202020200F
:1041B0002020202020202020616E616C6F67206FFE
:1041C000757470757420310A31322020202020202F
:1041D00020202020202020202020202020202020DF
:1041E000202020616E616C6F67206F75747075742C
:1041F00020320A313320202020202020202020209F
:104200002020202020202020202020202020646921
:10421000676974616C20696E7075747320312D3814
:104220000A3134202020202020202020202020207F
:104230002020202020202020202020206469676961
:1042400074616C20696E7075747320392D31360A73
:104250003135202020202020202020202020202038
:1042600020202020202020202020206469676974DD
:10427000616C20696E707574732031372D32340A89
:104280003136202020202020202020202020202007
:104290002020202020202020202020616E616C6FB3
:1042A0006720696E70757420312020202020202026
:1042B00020202020302D313032330A313720202089
:1042C00020202020202020202020202020202020EE
:1042D000202020202020616E616C6F6720696E7045
:1042E0007574203220202020202020202020203003
:1042F0002D313032330A3138202020202020202058
:1043000020202020202020202020202020202020AD
:104310002073657276696365202D207265736574FC
:1043200020286269742030290A3139202020202079
:10433000202020202020202020202020202020207D
:1043400020202020317374204453323433382054D9
:10435000656D70202876616C7565206D756C74696B
:10436000706C69656420627920313030290A3230FE
:10437000202020202020202020202020202020203D
:10438000202020202020202020317374204453320C
:1043900034333820566164202876616C7565206D51
:1043A000756C7469706C6965642062792031303095
:1043B000290A3231202020202020202020202020E7
:1043C0002020202020202020202020202031737435
:1043D00020445332343338205673656E7320287668
:1043E000616C7565206D756C7469706C69656420AD
:1043F000627920313030290A2D20202020202020F1
:1044000020202020202020202020202020202020AC
:1044100020200A3436202020202020202020202088
:104420002020202020202020202020202020445335
:10443000323433382076616C7565732028757020AE
:10444000746F2031302073656E736F7273290A3474
:10445000372D35372020202020202020202020200C
:104460002020202020202020202044533138423298
:10447000302054656D7065726174757265202875A1
:104480007020746F2031302073656E736F727329E2
:10449000202876616C7565206D756C7469706C6927
:1044A000656420627920313030290A000A202020FA
:1044B000203C68333E4D4F4442555320436F6D6D51
:1044C000616E64733C2F68333E0A202020203C70CC
:1044D00072653E0A4D4F4442555320544350206369
:1044E0006F6D6D616E64733A20464331202D204616
:1044F0004331360A4D4F44425553205254552063A0
:104500006F6D6D616E64733A204643332C204643D1
:10451000362C20464331360A202020203C2F707252
:10452000653E0A000A636F6D6D616E64733A0A201E
:104530002072656C6179206F6E20636F6D6D616EA6
:10454000643A20202020202020202020202020200D
:10455000207261696C3120726F3132206F6E0A20D7
:104560002072656C6179206F666620636F6D6D6186
:104570006E643A202020202020202020202020208F
:10458000207261696C3120726F35206F66660A2077
:10459000206869676820736964652073776974634C
:1045A00068206F6E20636F6D6D616E643A2020200D
:1045B000207261696C3120686F32206F6E0A202092
:1045C00068696768207369646520737769746368D4
:1045D000206F666620636F6D6D616E643A202020E7
:1045E0007261696C3120686F34206F66660A202022
:1045F00068696768207369646520737769746368A4
:104600002050574D20636F6D6D616E643A202020FD
:104610007261696C3120686F315F70776D2031385D
:10462000300A20206C6F7720736964652073776986
:10463000746368206F6E20636F6D6D616E643A20E5
:10464000202020207261696C31206C6F31206F6EE8
:104650000A20206C6F772073696465207377697412
:104660006368206F666620636F6D6D616E643A20CB
:104670002020207261696C31206C6F32206F666679
:104680000A20206C6F7720736964652073776974E2
:1046900063682050574D20636F6D6D616E643A20E2
:1046A0002020207261696C31206C6F315F70776DF2
:1046B000203138300A2020616E616C6F67206F7581
:1046C0007470757420636F6D6D616E643A20202084
:1046D000202020202020207261696C3120616F3100
:1046E000203138300A2020726573657420636F6D45
:1046F0006D616E643A202020202020202020202080
:10470000202020202020207261696C312072737477
:104710000A64656661756C74207363616E206379E9
:10472000636C65733A0A202031776972652063797A
:10473000636C653A2020202020202020202020208B
:1047400020202020202020203330303030206D7376
:104750000A2020616E616C6F6720696E707574202D
:104760006379636C653A20202020202020202020BF
:104770002020203130303030206D730A000A202094
:1047800020203C68333E5544502053796E74617844
:104790003C2F68333E0A202020203C7072653E0A80
:1047A0007369676E616C733A0A2020445331384252
:1047B00032302031776972652073656E736F7220B5
:1047C0007061636B65743A202020207261696C31DE
:1047D0002031772032383634666333303038303821
:1047E000322032352E34340A2020445332343338C8
:1047F0002031776972652073656E736F7220706106
:10480000636B65743A20202020207261696C31202E
:1048100031772032363132633331303230303466E2
:104820002032352E343420312E323320302E3132A6
:104830000A20206469676974616C20696E70757400
:104840002073746174653A202020202020202020CD
:104850002020207261696C312064693120310A2086
:1048600020616E616C6F6720696E7075742073745F
:104870006174653A20202020202020202020202044
:10488000207261696C312061693120313032300A27
:10489000000A3C21444F43545950452048544D4C44
:1048A0003E0A3C68746D6C3E0A3C686561643E0A71
:1048B000202020203C7469746C653E5261696C64F0
:1048C00075696E6F20446F63756D656E7461746990
:1048D0006F6E3C2F7469746C653E0A202020203C6A
:1048E0007374796C653E0A202020202020202062ED
:1048F0006F6479207B20666F6E742D66616D696CC4
:10490000793A20417269616C2C2073616E732D734A
:10491000657269663B20666F6E742D73697A653ABD
:1049200020313470783B206D617267696E3A2032B5
:104930003070783B207D0A20202020202020206815
:10494000322C206833207B20666F6E742D66616D7B
:10495000696C793A20417269616C2C2073616E73C5
:104960002D73657269663B207D0A2020202020205F
:104970002020707265207B206261636B67726F75A7
:104980006E643A20236634663466343B207061647A
:1049900064696E673A20313070783B20626F7264D0
:1049A00065723A2031707820736F6C6964202363DC
:1049B00063633B2077686974652D73706163653A42
:1049C000207072652D777261703B207D0A20202057
:1049D000202020202061207B20636F6C6F723A20A2
:1049E000233030363663633B20746578742D6465FC
:1049F000636F726174696F6E3A206E6F6E653B20F3
:104A00007D0A2020202020202020613A686F7665D2
:104A100072207B20746578742D6465636F72617495
:104A2000696F6E3A20756E6465726C696E653B20C5
:104A30007D0A202020203C2F7374796C653E0A3C4F
:104A40002F686561643E0A3C626F64793E0A2020EB
:104A500020203C68323E5261696C6475696E6F203B
:104A60004669726D7761726520446F63756D656E1E
:104A7000746174696F6E3C2F68323E0A20202020DA
:104A80003C703E3C6120687265663D272F273E42A0
:104A900061636B20746F20436F6E74726F6C205073
:104AA000616E656C3C2F613E3C2F703E0A00436F87
:104AB0006E6E656374696F6E3A20636C6F73650028
:104AC000436F6E74656E742D547970653A20746509
:104AD00078742F68746D6C00485454502F312E3107
:104AE00020323030204F4B007D005D002C00220032
:104AF00022002C22616C6961735F64733138623209
:104B000030223A205B005D002C00220022002C2283
:104B1000616C6961735F647332343338223A205BAD
:104B2000005D002C00220022002C22616C69617360
:104B30005F616E614F757473223A205B005D002CDB
:104B400000220022002C22616C6961735F616E613A
:104B5000496E70757473223A205B005D002C002250
:104B60000022002C22616C6961735F646967496E81
:104B700070757473223A205B005D002C00220022C5
:104B8000002C22616C6961735F6C7373223A205B45
:104B9000005D002C00220022002C22616C696173F0
:104BA0005F687373223A205B005D002C00220022B4
:104BB000002C22616C6961735F72656C617973228C
:104BC0003A205B005D002C002C22616E614F7574F1
:104BD00073566F6C74616765223A205B005D002C30
:104BE000002C22616E61496E70757473566F6C741F
:104BF000616765223A205B002C2273657269616CE3
:104C00004C6F636B6564223A0022002C227365723C
:104C100069616C4E756D626572223A22002C2264C5
:104C200065627567456E61626C6564223A002C228C
:104C30007765625570646174654379636C65223A87
:104C4000002C2270756C736553656E644379636CD8
:104C500065223A002C2270756C73654F6E223A0003
:104C60002C22616E61496E7075744379636C6522A4
:104C70003A002C226F6E65576972654379636C65E3
:104C8000223A005D002C002C002C2270756C73659C
:104C9000436F756E7473223A205B005D002C007DBB
:104CA00000222C2274656D70223A007B22736E22E2
:104CB0003A22002264733138623230223A205B009B
:104CC0005D2C002C007D002C227673656E73223AD9
:104CD000002C22766164223A00222C2274656D70C9
:104CE000223A007B22736E223A220022647332340D
:104CF0003338223A205B005D2C002C0022616E616B
:104D0000496E70757473223A205B005D2C002C0094
:104D100022646967496E70757473223A205B005D86
:104D20002C002C0022616E614F757473223A205B57
:104D3000005D2C002C00226C737350574D223A20DA
:104D40005B005D2C002C002268737350574D223A93
:104D5000205B005D2C002C00226C7373223A205BD8
:104D6000005D2C002C0022687373223A205B005DEA
:104D70002C002C002272656C617973223A205B0052
:104D80007B00436F6E6E656374696F6E3A20636C6F
:104D90006F736500436F6E74656E742D5479706522
:104DA0003A206170706C69636174696F6E2F6A7309
:104DB0006F6E00485454502F312E31203230302045
:104DC0004F4B005761726E696E673A204C53532007
:104DD00034202870696E2031382920646F65732073
:104DE0006E6F7420737570706F72742050574D2CF5
:104DF0002069676E6F72696E672076616C756520D9
:104E0000002073657420746F20004C53532050575A
:104E10004D2000204F4646004C53532000204F4E5B
:104E2000004C535320002073657420746F20004899
:104E300053532050574D2000204F464600485353AF
:104E40002000204F4E004853532000444843502038
:104E500072656E6577206661696C00444843502036
:104E6000726562696E64206F6B0044484350207223
:104E70006562696E64206661696C00444843502035
:104E800072656E6577206F6B00000021002400279B
:104E9000002A002D0030003300010100000401074A
:104EA000010A0100000A0B02090C0D0E0807030499
:104EB00001000000000000000000000000000000F1
:104EC00000000000000000000000000000000012D0
:104ED00011100000000000000000000000000000B1
:104EE000000000000000000000005EBCE2613FDD49
:104EF00083C29C7E20A3FD1F419DC3217FFCA24055
:104F00001E5F01E3BD3E6082DC237D9FC1421CFE2B
:104F1000A0E1BF5D0380DE3C62BEE0025CDF816336
:104F20003D7C22C09E1D43A1FF4618FAA427799B11
:104F3000C584DA3866E5BB5907DB856739BAE4060C
:104F4000581947A5FB7826C49A653BD987045AB8F7
:104F5000E6A7F91B45C6987A24F8A6441A99C725EE
:104F60007B3A6486D85B05E7B98CD2306EEDB351DD
:104F70000F4E10F2AC2F7193CD114FADF3702ECCBC
:104F800092D38D6F31B2EC0E50AFF1134DCE9072C3
:104F90002C6D33D18F0C52B0EE326C8ED0530DEF9E
:104FA000B1F0AE4C1291CF2D73CA947628ABF517A1
:104FB000490856B4EA6937D58B5709EBB536688A84
:104FC000D495CB2977F4AA4816E9B7550B88D6347F
:104FD0006A2B7597C94A14F6A8742AC896154BA966
:104FE000F7B6E80A54D7896B35000022002500285F
:104FF000002B002E003100340002010000050108E2
:10500000010B01000020002300260029002C002FA6
:105010000032000001000003010601090105050539
:1050200005070508080808020202020A0A0808041F
:10503000040404010101010101010103030303034D
:10504000030303040707070C0C0C0C0C0C0C0C02DC
:1050500002020206060606060606060B0B0B0B0BE3
:105060000B0B0B01021020200808102040102040DC
:10507000800201020108040201010204081020401C
:10508000808040201008040201800402018040203A
:105090001008040201080402010102040810204063
:1050A00080010204081020408000248054921124C2
:1050B0001FBECFEFD1E2DEBFCDBF00E00CBF16E0D8
:1050C000A0E0B2E0EAE5F8E301E00BBF02C0079020
:1050D0000D92A634B107D9F727E1A6E4B6E001C0E6
:1050E0001D92AE3BB207E1F718E2C6E5D8E200E058
:1050F00006C021970109802FFE010E949099C535B5
:10510000D10780E00807A9F70E9427830C941B9C15
:105110000C940000CF92DF92EF92FF92CF93DF9337
:10512000EC016A017B01E889F98982E08083C1147E
:1051300081EED806E104F104A1F060E079E08DE3AE
:1051400090E0A70196010E9447982150310941093A
:1051500051095695479537952795211580E13807D0
:1051600098F0E889F989108260E874E88EE190E0AF
:10517000A70196010E944798215031094109510920
:105180005695479537952795EC85FD853083EE85B7
:10519000FF852083188EEC89FD8986E08083EA896B
:1051A000FB89808180618083EA89FB8980818860B6
:1051B0008083EA89FB89808180688083EA89FB8912
:1051C00080818F7D8083DF91CF91FF90EF90DF9082
:1051D000CF90089520910110222361F02FB7F89409
:1051E00030910110313049F43DB3309300103DB39C
:1051F0003DBB2FBF8CBD9DBD089520930010FACFFD
:1052000020E3FC0120833296862F82958F706F7089
:105210006A3030F4605D6293682F8111F5CF089594
:10522000695CF9CFCF93DF93D62F9C0164E036956C
:1052300027956A95E1F7C1E021384CE034070CF47A
:10524000C0E021384CE03407F8F4F901EE0FFF1FFD
:10525000EF54FE4EA081B18154E0220F331F5A95C6
:10526000E1F7821B930B41E050E060E070E004C086
:10527000440F551F661F771F8A95D2F7DD2341F033
:105280004A2B5B2B518340838C2FDF91CF91089564
:10529000409550954A235B23F5CFFC01818D928D7B
:1052A000089508958150823108F05AC0E82FF0E047
:1052B0008827E25AF64D8F4F0C9490997E298229C7
:1052C000702976297A29B02985298B298F29952952
:1052D00099299D29A329A729B029AB29B129B52945
:1052E000809180008F778093800008958091800066
:1052F0008F7DF9CF80918000877FF5CF84B58F7740
:1053000084BD089584B58F7DFBCF8091B0008F77E9
:105310008093B00008958091B0008F7DF9CF809187
:1053200090008F77809390000895809190008F7DFA
:10533000F9CF80919000877FF5CF8091A0008F7783
:105340008093A00008958091A0008F7DF9CF809177
:10535000A000877FF5CF809120018F778093200177
:105360000895809120018F7DF9CF80912001877F62
:10537000F5CFCF93DF93282F30E0F901ED55F14BB6
:105380008491F901ED59FF4AD491F901E35EFF4A96
:10539000C491CC23A1F081110E945229EC2FF0E09E
:1053A000EE0FFF1FED5FFF4AA591B491EC91ED2345
:1053B00081E090E009F480E0DF91CF91089580E0F2
:1053C00090E0FACF1F93CF93DF93282F30E0F901BD
:1053D000ED55F14B8491F901ED59FF4AD491F90152
:1053E000E35EFF4AC491CC23A9F0162F81110E94DD
:1053F0005229EC2FF0E0EE0FFF1FE751F04BA59183
:10540000B4918FB7F894EC91111108C0D095DE23B8
:10541000DC938FBFDF91CF911F910895DE2BF8CFE2
:10542000CF93DF9390E0FC01ED59FF4A2491835E16
:105430009F4AFC0184918823D1F090E0880F991F46
:10544000FC01E757F14BA591B491FC01E751F04BFA
:10545000C591D49161110EC09FB7F8948C91E22F41
:10546000E0958E238C932881E223E8839FBFDF9110
:10547000CF9108958FB7F894EC91E22BEC938FBF06
:10548000F6CF1F93CF93DF93182FEB0161E00E94BB
:10549000102A209739F460E0812FDF91CF911F917E
:1054A0000C94E229CF3FD10511F461E0F5CFE12F53
:1054B000F0E0ED55F14BE491E150E23108F0B3C07A
:1054C000F0E08827E959F54D8F4F0C949099792A8F
:1054D000812A862A902A9A2A132BA42AAC2AB42A33
:1054E000BE2AC82AD22AE12AEB2A132BF52AFF2A40
:1054F000092B84B5806884BDC7BDDF91CF911F9112
:10550000089584B5806284BDC8BDF7CF80918000C6
:10551000806880938000D0938900C0938800EDCF8D
:1055200080918000806280938000D0938B00C09334
:105530008A00E3CF80918000886080938000D093C0
:105540008D00C0938C00D9CF8091B000806880938B
:10555000B000C093B300D1CF8091B000806280933F
:10556000B000C093B400C9CF809190008068809350
:105570009000D0939900C0939800BFCF8091900085
:10558000806280939000D0939B00C0939A00B5CF27
:1055900080919000886080939000D0939D00C0938C
:1055A0009C00ABCF8091A00080688093A000809188
:1055B000A0008F7B8093A000D093A900C093A80087
:1055C0009CCF8091A00080628093A000D093AB001C
:1055D000C093AA0092CF8091A00088608093A00021
:1055E000D093AD00C093AC0088CF8091200180683B
:1055F00080932001D0932901C09328017ECF809110
:105600002001806280932001D0932B01C0932A0156
:1056100074CF80912001886080932001D0932D0168
:10562000C0932C016ACFC038D1050CF03ECF33CFE8
:105630003FB7F8948091460F9091470FA091480F83
:10564000B091490F26B5A89B05C02F3F19F00196D0
:10565000A11DB11D3FBFBA2FA92F982F8827BC01CC
:10566000CD01620F711D811D911D42E0660F771FF4
:10567000881F991F4A95D1F708958F929F92AF92F4
:10568000BF92CF92DF92EF92FF924B015C010E949A
:10569000182B6B017C010E94182B6C197D098E0957
:1056A0009F09683E734081059105A8F321E0821AA5
:1056B0009108A108B10888EEC80E83E0D81EE11C4D
:1056C000F11C81149104A104B10429F7FF90EF901B
:1056D000DF90CF90BF90AF909F908F9008952FB79D
:1056E000F8946091420F7091430F8091440F909114
:1056F000450F2FBF089508950895DB0114964D912D
:105700005C9115976D917C91DC01ED91FC9102808B
:10571000F381E02D1994AF92BF92CF92DF92EF9276
:10572000FF920F931F93CF93DF936C017B018B014B
:10573000040F151FEB015E01AE18BF08C017D1079B
:1057400059F06991D601ED91FC910190F081E02D25
:10575000C6011995892B79F7C501DF91CF911F916A
:105760000F91FF90EF90DF90CF90BF90AF90089592
:10577000FC01538D448D252F30E0842F90E0821B57
:10578000930B541710F0CF96089501970895FC01DC
:10579000918D828D981761F0A28DAE0FBF2FB11D34
:1057A0005D968C91928D9F5F9F73928F90E008958C
:1057B0008FEF9FEF0895FC01918D828D981731F046
:1057C000828DE80FF11D858D90E008958FEF9FEF9A
:1057D0000895FC01918D228D892F90E0805C9F4F70
:1057E000821B91098F739927089582E090E10E94AE
:1057F000E92B21E0892B09F420E0822F08958FE91D
:1058000090E10E94E92B21E0892B09F420E0822F0E
:105810000895FC01A48DA80FB92FB11DA35ABF4F45
:105820002C91848D90E001968F739927848FA6899F
:10583000B7892C93A089B1898C91837080648C93F3
:10584000938D848D981306C00288F389E02D8081A2
:105850008F7D80830895EF92FF920F931F93CF93D4
:10586000DF93EC0181E0888F9B8D8C8D98131AC09B
:10587000E889F989808185FF15C09FB7F894EE8982
:10588000FF896083E889F9898081837080648083DF
:105890009FBF81E090E0DF91CF911F910F91FF902A
:1058A000EF900895F62E0B8D10E00F5F1F4F0F73D2
:1058B0001127E02E8C8D8E110CC00FB607FCFACF8D
:1058C000E889F989808185FFF5CFCE010E94092CF6
:1058D000F1CFEB8DEC0FFD2FF11DE35AFF4FF0825E
:1058E0009FB7F8940B8FEA89FB8980818062CFCFC4
:1058F000CF93DF93EC01888D8823B9F0AA89BB8907
:10590000E889F9898C9185FD03C0808186FD0DC0F1
:105910000FB607FCF7CF8C9185FFF2CF808185FF12
:10592000EDCFCE010E94092CE9CFDF91CF910895F0
:1059300080E090E0892B29F00E94FF2B81110E94CA
:10594000000080E090E0892B49F080E090E0892B16
:1059500029F00E94000081110E94000080E090E088
:10596000892B49F080E090E0892B29F00E9400000B
:1059700081110E94000080E090E0892B29F00E94B4
:10598000F52B81110C9400000895CF93CFB7F894B4
:105990008091600D811127C0E2E5F0E58491E8E98E
:1059A000F0E59491E82FF0E0EE0FFF1FE757F14B81
:1059B000A591B491EC91E92321F461E085E30E9483
:1059C000E22961E085E30E94102A8CB580618CBDDC
:1059D0008CB580648CBD61E084E30E94102A61E094
:1059E00083E30E94102A8091600D8F5F8093600D89
:1059F000CFBFCF910895FC0120812EBD9B01215086
:105A0000310941F051810DB407FEFDCF4EB55EBDA9
:105A10004193F5CF61507109860F971F0DB407FEB2
:105A2000FDCF2EB5FC0120830895E091930FF091F6
:105A3000940F80819091920F892B80830895E0913B
:105A4000930FF091940F90818091920F809589230C
:105A50008083089590E02091950F233339F40C96BC
:105A6000982F990F990F990F80E008954896F8CFD5
:105A7000CF93DF931F92CDB7DEB76983DC01ED9141
:105A8000FC910280F381E02D41E050E0BE016F5FA8
:105A90007F4F19950F90DF91CF910895CF93DF93AA
:105AA0001F92CDB7DEB76983DC01ED91FC910280D6
:105AB000F381E02D41E050E0BE016F5F7F4F19950B
:105AC0000F90DF91CF910895FC019485FB018485AF
:105AD000981303C081E0983008F080E00895CF93D8
