:100000000C943B2B0C94D77F0C94AC7F0C94817F89
:100010000C94567F0C942B7F0C94007F0C94D57E0F
:100020000C94AA7E0C946C2B0C946C2B0C946C2B63
:100030000C946C2B0C946C2B0C946C2B0C946C2BE4
:100040000C946C2B0C946C2B0C946C2B0C946C2BD4
:100050000C946C2B0C946C2B0C946C2B0C94607E7D
:100060000C946C2B0C948C800C9462800C946C2BF4
:100070000C946C2B0C946C2B0C946C2B0C946C2BA4
:100080000C946C2B0C946C2B0C946C2B0C946C2B94
:100090000C946C2B0C946C2B0C946C2B0C946C2B84
:1000A0000C946C2B0C946C2B0C946C2B0C946C2B74
:1000B0000C946C2B0C946C2B0C946C2B0C946C2B64
:1000C0000C946C2B0C946C2B0C946C2B0C946C2B54
:1000D0000C946C2B0C946C2B0C942C800C94028044
:1000E0000C946C2B0C9430960C94373D0C945D2F33
:1000F0000C94B8360C9409400C94ED2D0C940049E6
:100100000C94D8360C945D2D0C94102F0C94393F20
:100110000C94FE340C948F2C0C94B4360C94992CC3
:100120000C94D0360C94CA400C948B810C94E83615
:100130000C94D4360C94B62D0C94C52D0C94743EAE
:100140000C94542C0C94153A0C94602E0C94F434AA
:100150000C94F5380C94872C0C94E32D0C94C23637
:100160000C94312C0C94C02E0C94263B0C94742DC2
:100170000C94A63B0C94EF360C94902D0C947E2D91
:100180000C9434380C94352C0C948B2C0C94303EFD
:100190000C94692C0C94612E0C9433300C94982D93
:1001A0000C94CE2E0C943E450C94A22D0C946D38DC
:1001B0000C94573F0C9454300C94CF360C94C436A6
:1001C0000C94792C0C94C13B0C941D300C94D634B7
:1001D0000C9408350C94732C0C948D400C945A2C70
:1001E0000C94F72D0C946A2D0C94CF2D0C94EA34BA
:1001F0000C945E2C0C94D92D0C94AC2D0C94F943DA
:100200000C94662C0C946F2C0C943B3B0C94812C1E
:100210000C94622C0C94113E0C94702E0C94C736E6
:100220000C94C6370C94942C0C949D2E0C947D2C1D
:100230000C9449300C94AC2E0C94882D0C9486436D
:100240000C9412380C94E03C0C945A3E0C943640BA
:100250000C94652D0C94E6370C948B3F0C94952CE4
:100260000C94E0340C9404390C94573600407A1006
:10027000F35A00A0724E18090010A5D4E80000E857
:100280007648170000E40B54020000CA9A3B0000B5
:1002900000E1F505000080969800000040420F0044
:1002A0000000A08601000000102700000000E80305
:1002B000000000006400000000000A0000000000D0
:1002C0000100000000002C76D888DC674F0823DF8F
:1002D000C1DFAE59E1B1B796E5E3E453C63AE65162
:1002E000997696E8E6C28426EB898C9B62ED407C89
:1002F0006FFCEFBC9C9F40F2BAA56FA5F490055A25
:100300002AF75C936B6CF9676DC11BFCE0E40D4749
:10031000FEF520E6B500D0ED902E0300943577056C
:100320000080841E080000204E0A000000C80C3324
:100330003333330F986E12831141EF8D2114893BB3
:10034000E65516CFFEE6DB18D1844B381BF77C1D33
:10035000901DA4BBE424203284725E228100C9F186
:1003600024ECA1E53D27343034204E6F7420466FD5
:10037000756E6400436F6E6E656374696F6E3A20CC
:10038000636C6F736500436F6E74656E742D547982
:1003900070653A20746578742F706C61696E0048DE
:1003A0005454502F312E3120343034204E6F74206D
:1003B000466F756E64003C2F74626F64793E3C2F0B
:1003C0007461626C653E3C2F74643E3C2F74723ED7
:1003D0003C2F7461626C653E3C2F6469763E3C2F15
:1003E0006469763E3C2F626F64793E3C2F68746D81
:1003F0006C3E003C2F74643E3C2F74723E00222CF5
:10040000656E636F6465555249436F6D706F6E65BD
:100410006E7428746869732E76616C756529292756
:100420003E0027206F6E6368616E67653D277365C8
:100430006E64436F6D6D616E642822616C696173D7
:100440005F647331386232305F00272076616C75EB
:10045000653D270027206E616D653D27616C6961F0
:10046000735F647331386232305F00273E3C2F7413
:10047000643E3C74643E3C696E707574207479709F
:10048000653D277465787427206D61786C656E67AB
:1004900074683D273330272069643D27616C6961AA
:1004A000735F647331386232305F003C2F74643E96
:1004B0003C74642069643D27647331386232305F74
:1004C00074656D7000273E003C2F74643E3C74647C
:1004D0002069643D27647331386232305F736E0087
:1004E0002031772053455249414C5F4E554D42458E
:1004F000522054656D7027223E44533138423230C9
:100500002D000A5544503A20277261696C003C74F2
:10051000723E3C7464207469746C653D224D6F6456
:100520006275732072656720003C2F74626F647976
:100530003E3C2F7461626C653E3C2F74643E3C749B
:10054000642077696474683D27353025273E3C6810
:10055000333E312D576972652053656E736F727328
:1005600020445331384232303C2F68333E3C746172
:10057000626C6520636C6173733D276F6E6577698C
:1005800072652D7461626C65272069643D27647310
:1005900031386232305461626C65273E3C74626F60
:1005A00064793E003C2F74643E3C2F74723E0022FE
:1005B0002C656E636F6465555249436F6D706F6E45
:1005C000656E7428746869732E76616C7565292967
:1005D000273E0027206F6E6368616E67653D277355
:1005E000656E64436F6D6D616E642822616C696134
:1005F000735F6473323433385F00272076616C7523
:10060000653D270027206E616D653D27616C69613E
:10061000735F6473323433385F00273E3C2F746459
:100620003E3C74643E3C696E7075742074797065EC
:100630003D277465787427206D61786C656E6774EA
:10064000683D273330272069643D27616C696173F9
:100650005F6473323433385F00273E3C2F74643E4E
:100660003C74642069643D276473323433385F76A8
:1006700073656E7300273E3C2F74643E3C746420A7
:1006800069643D276473323433385F766164003CBB
:100690002F74643E3C74642069643D276473323473
:1006A00033385F74656D7000273E003C2F74643EE4
:1006B0003C74642069643D276473323433385F735B
:1006C0006E002031772053455249414C5F4E554DC5
:1006D0004245522054656D70205661642056736502
:1006E0006E7327223E4453323433382D000A55446A
:1006F000503A20277261696C002900343620285353
:10070000656E736F72200031392D323120285465A7
:100710006D702C205661642C205673656E73290011
:100720003C74723E3C7464207469746C653D224D67
:100730006F646275732072656720003C646976207F
:100740007374796C653D276D617267696E2D626F98
:1007500074746F6D3A313070783B273E3C7461623F
:100760006C6520636C6173733D276F7574657227C8
:100770003E3C74723E3C74642077696474683D2723
:10078000353025273E3C68333E312D576972652050
:1007900053656E736F7273204453323433383C2F79
:1007A00068333E3C7461626C6520636C6173733DB9
:1007B000276F6E65776972652D7461626C6527209D
:1007C00069643D276473323433385461626C652741
:1007D0003E3C74626F64793E003C2F7461626C65CC
:1007E0003E3C2F74643E3C2F74723E3C2F74616219
:1007F0006C653E3C2F6469763E003C2F74643E3C41
:100800002F74723E00222C656E636F6465555249E9
:10081000436F6D706F6E656E7428746869732E76A1
:10082000616C75652929273E0027206F6E6368611A
:100830006E67653D2773656E64436F6D6D616E64B1
:100840002822616C6961735F616E614F75745F002E
:10085000272076616C75653D270027206E616D65E8
:100860003D27616C6961735F616E614F75745F00F4
:1008700056293C2F74643E3C74643E3C696E70752E
:100880007420747970653D277465787427206D61D4
:10089000786C656E6774683D273330272069643D46
:1008A00027616C6961735F616E614F75745F0027CA
:1008B0003E28003C2F74643E3C74642069643D27EC
:1008C000616E614F7574566F6C7461676500222CA0
:1008D000746869732E76616C756529273E00272040
:1008E0006F6E6368616E67653D2773656E64436F05
:1008F0006D6D616E642822616E614F7574002720F2
:100900006D696E3D273027206D61783D2732353582
:10091000272076616C75653D270027206E616D6527
:100920003D27616E614F7574003C2F74643E3C74CA
:10093000643E3C696E70757420747970653D276EF5
:10094000756D626572272069643D27616E614F7520
:1009500074002056414C554527223E414F2000202F
:10096000616F000A5544503A20277261696C003C5F
:1009700074723E3C7464207469746C653D224D6FE2
:10098000646275732072656720003C2F74626F6427
:10099000793E3C2F7461626C653E3C2F74643E3C32
:1009A00074642077696474683D27353025273E3CA0
:1009B00068333E416E616C6F67204F75747075745B
:1009C000732028302D323535203D20302D313056E2
:1009D000293C2F68333E3C7461626C6520636C6116
:1009E00073733D27696E6E6572273E003C2F7464F9
:1009F0003E3C2F74723E00222C656E636F64655519
:100A00005249436F6D706F6E656E742874686973B8
:100A10002E76616C75652929273E0027206F6E634D
:100A200068616E67653D2773656E64436F6D6D61C8
:100A30006E642822616C6961735F616E61496E70DA
:100A400075745F00272076616C75653D270027204F
:100A50006E616D653D27616C6961735F616E6149AF
:100A60006E7075745F003C2F74643E3C74643E3C51
:100A7000696E70757420747970653D27746578743B
:100A800027206D61786C656E6774683D2733302769
:100A90002069643D27616C6961735F616E61496EB5
:100AA0007075745F00273E003C2F74643E3C746494
:100AB0002069643D2761695F7374617475730020F8
:100AC00056414C554527223E41492000206169008E
:100AD0000A5544503A20277261696C003C74723E9A
:100AE0003C7464207469746C653D224D6F6462755A
:100AF000732072656720003C646976207374796C9A
:100B0000653D276D617267696E2D626F74746F6DDC
:100B10003A313070783B273E3C7461626C652063EB
:100B20006C6173733D276F75746572273E3C7472F8
:100B30003E3C74642077696474683D27353025270E
:100B40003E3C68333E416E616C6F6720496E707544
:100B500074732028302D31303234203D20302D3137
:100B60003056293C2F68333E3C7461626C652063CB
:100B70006C6173733D27696E6E6572272069643DF1
:100B800027616E61496E707574735461626C65277C
:100B90003E3C74626F64793E003C2F74626F6479EE
:100BA0003E3C2F7461626C653E3C2F74643E3C2F6A
:100BB00074723E3C2F7461626C653E3C2F646976B2
:100BC0003E003C2F74643E3C2F74723E00222C6524
:100BD0006E636F6465555249436F6D706F6E656EDD
:100BE0007428746869732E76616C75652929273EAF
:100BF0000027206F6E6368616E67653D2773656EC1
:100C000064436F6D6D616E642822616C6961735F0E
:100C1000646967496E7075745F00272076616C7532
:100C2000653D270027206E616D653D27616C696118
:100C3000735F646967496E7075745F003C2F7464FC
:100C40003E3C74643E3C696E7075742074797065C6
:100C50003D277465787427206D61786C656E6774C4
:100C6000683D273330272069643D27616C696173D3
:100C70005F646967496E7075745F00273E003C2FA2
:100C800074643E3C74642069643D2764695F7374D6
:100C900061747573002056414C554527223E4449E6
:100CA0002000206469000A5544503A202772616987
:100CB0006C003135202D2062697420003134202DE4
:100CC0002062697420003C74723E3C746420746934
:100CD000746C653D224D6F64627573207265672088
:100CE000003C2F74626F64793E3C2F7461626C65C6
:100CF0003E3C2F74643E3C74642077696474683DA4
:100D000027353025273E3C683320636C6173733D83
:100D1000276469672D696E707574732D7469746CBE
:100D200065273E4469676974616C20496E7075740B
:100D3000732031332D32343C2F68333E3C74616272
:100D40006C6520636C6173733D27696E6E657227F5
:100D50002069643D27646967496E707574735461D6
:100D6000626C6532273E3C74626F64793E003C2FB2
:100D700074643E3C2F74723E00222C656E636F6477
:100D800065555249436F6D706F6E656E7428746857
:100D900069732E76616C75652929273E0027206FBF
:100DA0006E6368616E67653D2773656E64436F6D42
:100DB0006D616E642822616C6961735F6469674963
:100DC0006E7075745F00272076616C75653D270035
:100DD00027206E616D653D27616C6961735F646991
:100DE00067496E7075745F003C2F74643E3C746498
:100DF0003E3C696E70757420747970653D2774652A
:100E0000787427206D61786C656E6774683D273350
:100E100030272069643D27616C6961735F6469678D
:100E2000496E7075745F00273E003C2F74643E3C31
:100E300074642069643D2764695F737461747573B9
:100E4000002056414C554527223E4449200020644D
:100E500069000A5544503A20277261696C003134A8
:100E6000202D2062697420003133202D20626974A6
:100E700020003C74723E3C7464207469746C653D5F
:100E8000224D6F646275732072656720003C64694F
:100E900076207374796C653D276D617267696E2D7C
:100EA000626F74746F6D3A313070783B273E3C74DA
:100EB00061626C6520636C6173733D276F75746547
:100EC00072273E3C74723E3C746420776964746897
:100ED0003D27353025273E3C683320636C617373B2
:100EE0003D276469672D696E707574732D7469741C
:100EF0006C65273E4469676974616C20496E707542
:100F0000747320312D31323C2F68333E3C74616262
:100F10006C6520636C6173733D27696E6E65722723
:100F20002069643D27646967496E70757473546104
:100F3000626C6531273E3C74626F64793E003C2FE1
:100F40007461626C653E3C2F74643E3C2F74723E4B
:100F50003C2F7461626C653E3C2F74643E3C2F7480
:100F6000723E3C2F7461626C653E3C2F6469763E34
:100F7000003C2F74643E3C2F74723E00222C656E40
:100F8000636F6465555249436F6D706F6E656E7423
:100F900028746869732E76616C75652929273E006F
:100FA00027206F6E6368616E67653D2773656E64A9
:100FB000436F6D6D616E642822616C6961735F6C53
:100FC00073735F00272076616C75653D27002720CD
:100FD0006E616D653D27616C6961735F6C73735FF2
:100FE000003C2F74643E3C74643E3C696E707574C2
:100FF00020747970653D277465787427206D617859
:101000006C656E6774683D273330272069643D271F
:10101000616C6961735F6C73735F002D00222C74C7
:101020006869732E76616C756529273E0027206FED
:101030006E6368616E67653D2773656E64436F6DAF
:101040006D616E6428226C73730027206D696E3D9C
:10105000273027206D61783D27323535272076618E
:101060006C75653D270027206E616D653D276C73AB
:101070007350574D003C696E7075742074797065BB
:101080003D276E756D626572272069643D276C731C
:101090007350574D003E3C2F74643E3C74643E00D8
:1010A00020636C6173733D277374617475732D6F66
:1010B0006666270020636865636B656420636C6106
:1010C00073733D277374617475732D6F6E270022DF
:1010D0002C746869732E636865636B65643F323591
:1010E000353A3029270027206F6E6368616E676587
:1010F0003D2773656E64436F6D6D616E6428226C6D
:1011000073730027206E616D653D276C7373003C1F
:101110002F74643E3C74643E3C696E707574207438
:101120007970653D27636865636B626F7827206916
:10113000643D276C737300223E4C535320005F7054
:10114000776D2056414C554500206C6F000A554480
:10115000503A207261696C00206F666600206C6FE7
:1011600000206F6E0A5544503A207261696C00206D
:101170006C6F000A5544503A207261696C000A4D48
:101180006F6462757320526567697374657220318C
:1011900030202D2056616C7565202830206F72201C
:1011A0003235352900202D2050574D2056616C7561
:1011B000652028302D32353529000A4D6F6462755F
:1011C00073205265676973746572200020284F4E42
:1011D0002F4F464629003C74723E3C74642074696B
:1011E000746C653D224D6F6462757320526567694A
:1011F000737465722032202D2042697420003C2FC8
:101200007461626C653E3C2F74643E3C2F74723E88
:101210003C74723E3C74643E3C68333E4C6F772DA8
:1012200053696465205377697463686573205374E8
:10123000617475732028302D323535203D20302DD6
:10124000562B293C2F68333E3C7461626C652063E9
:101250006C6173733D27696E6E6572273E003C2F8B
:1012600074643E3C2F74723E00222C656E636F6482
:1012700065555249436F6D706F6E656E7428746862
:1012800069732E76616C75652929273E0027206FCA
:101290006E6368616E67653D2773656E64436F6D4D
:1012A0006D616E642822616C6961735F6873735F3E
:1012B00000272076616C75653D270027206E616DE3
:1012C000653D27616C6961735F6873735F003C2FD4
:1012D00074643E3C74643E3C696E7075742074792D
:1012E00070653D277465787427206D61786C656E34
:1012F0006774683D273330272069643D27616C6936
:1013000061735F6873735F00222C746869732E7653
:10131000616C756529273E0027206F6E6368616EDA
:1013200067653D2773656E64436F6D6D616E6428FC
:10133000226873730027206D696E3D273027206D6A
:1013400061783D27323535272076616C75653D27FC
:101350000027206E616D653D2768737350574D00FF
:101360003E3C2F74643E3C74643E3C696E70757400
:1013700020747970653D276E756D626572272069EE
:10138000643D2768737350574D0020636C6173731D
:101390003D277374617475732D6F66662700206333
:1013A0006865636B656420636C6173733D27737458
:1013B000617475732D6F6E2700222C746869732E0B
:1013C000636865636B65643F3235353A30292700C1
:1013D00027206F6E6368616E67653D2773656E6475
:1013E000436F6D6D616E6428226873730027206EF1
:1013F000616D653D27687373003C2F74643E3C74D7
:10140000643E3C696E70757420747970653D276325
:101410006865636B626F78272069643D2768737322
:10142000005F70776D2056414C5545223E4853531E
:10143000200020686F00206F66660A5544503A20ED
:101440007261696C0020686F00206F6E0A5544500D
:101450003A207261696C0020686F00202D2050577F
:101460004D2056616C75652028302D323535290A9E
:101470005544503A207261696C0020284F4E2F4F1E
:101480004646290A4D6F6462757320526567697319
:1014900074657220003C74723E3C746420746974FC
:1014A0006C653D224D6F6462757320526567697388
:1014B0007465722032202D2042697420003C7461D2
:1014C000626C6520636C6173733D27696E6E657233
:1014D000273E3C74723E3C74643E3C68333E48692F
:1014E00067682D5369646520537769746368657311
:1014F000205374617475732028302D323535203DAA
:1015000020302D562B293C2F68333E3C7461626C91
:101510006520636C6173733D27696E6E6572273E4B
:10152000003C2F7461626C653E3C2F74643E3C74D9
:10153000642077696474683D27353025273E003C78
:101540002F74643E3C2F74723E00222C656E636FD4
:101550006465555249436F6D706F6E656E74287483
:101560006869732E76616C75652929273E002720EE
:101570006F6E6368616E67653D2773656E64436F68
:101580006D6D616E642822616C6961735F72656C58
:1015900061795F00272076616C75653D2700272003
:1015A0006E616D653D27616C6961735F72656C6129
:1015B000795F003E3C2F74643E3C74643E3C696E2F
:1015C00070757420747970653D2774657874272070
:1015D0006D61786C656E6774683D273330272069CC
:1015E000643D27616C6961735F72656C61795F004E
:1015F00020636865636B656400222C746869732ED0
:10160000636865636B65643F313A302927002720A2
:101610006F6E6368616E67653D2773656E64436FC7
:101620006D6D616E64282272656C61790027206E91
:10163000616D653D2772656C6179003C2F74643E75
:101640003C74643E3C696E70757420747970653DBD
:1016500027636865636B626F78272069643D277232
:10166000656C617900206F666627223E52656C6169
:1016700079200020726F00206F6E270A5544503A7F
:1016800020277261696C0020726F000A5544503A3D
:1016900020277261696C00312C204269742000306F
:1016A0002C2042697420003C74723E3C74642074A7
:1016B00069746C653D224D6F646275732052656775
:1016C000697374657220003C646976207374796C68
:1016D000653D276D617267696E2D626F74746F6D01
:1016E0003A313070783B273E3C7461626C65206310
:1016F0006C6173733D276F75746572273E3C74721D
:101700003E3C74642077696474683D273530252732
:101710003E3C68333E52656C617920537461747548
:10172000733C2F68333E3C7461626C6520636C616E
:1017300073733D27696E6E6572273E003E4F6E3CA7
:101740002F6F7074696F6E3E3C2F73656C656374A8
:101750003E3C2F74643E3C2F74723E3C2F74616299
:101760006C653E3C2F74643E3C2F74723E3C2F747B
:1017700061626C653E3C2F6469763E0073656C6502
:1017800063746564003E4F66663C2F6F7074696FCA
:101790006E3E3C6F7074696F6E2076616C75653D4E
:1017A000273127200073656C6563746564003C6FA6
:1017B0007074696F6E2076616C75653D27302720E7
:1017C000003E4F6E3C2F6F7074696F6E3E3C2F73FE
:1017D000656C6563743E3C2F74643E3C2F74723EAE
:1017E0003C74723E3C74643E53657269616C204483
:1017F00065627567202831313532303020426429E6
:101800003C2F74643E3C74643E3C73656C65637449
:101810002069643D276465627567456E61626C6529
:101820006427206F6E6368616E67653D2773656E20
:1018300064436F6D6D616E642822646562756745EF
:101840006E61626C6564222C746869732E76616CBB
:10185000756529273E0073656C6563746564003E99
:101860004F66663C2F6F7074696F6E3E3C6F70748C
:10187000696F6E2076616C75653D27312720007396
:10188000656C6563746564003C6F7074696F6E208D
:1018900076616C75653D27302720003E4F6E3C2FEA
:1018A0006F7074696F6E3E3C2F73656C6563743E38
:1018B0003C2F74643E3C2F74723E3C74723E3C7408
:1018C000643E4C414E2D5253343835204761746587
:1018D0007761793C2F74643E3C74643E3C73656C64
:1018E0006563742069643D27676174657761794534
:1018F0006E61626C656427206F6E6368616E6765F8
:101900003D2773656E64436F6D6D616E6428226759
:10191000617465776179456E61626C6564222C74CF
:101920006869732E76616C756529273E0073656C56
:101930006563746564003E4F66663C2F6F70746922
:101940006F6E3E3C6F7074696F6E2076616C75656A
:101950003D273127200073656C6563746564003C26
:101960006F7074696F6E2076616C75653D273027E6
:1019700020003E5544503C2F6F7074696F6E3E3CA2
:101980002F73656C6563743E3C2F74643E3C2F740A
:10199000723E3C74723E3C74643E50756C73657369
:1019A0002053656E73696E67202844492031302CBE
:1019B00031312C3132293C2F74643E3C74643E3CFE
:1019C00073656C6563742069643D2770756C73651D
:1019D0004F6E27206F6E6368616E67653D27736584
:1019E0006E64436F6D6D616E64282270756C7365F3
:1019F0004F6E222C746869732E76616C7565292789
:101A00003E0073656C6563746564003E4D6F64628F
:101A10007573205443503C2F6F7074696F6E3E3C59
:101A20006F7074696F6E2076616C75653D27312724
:101A3000200073656C6563746564003C6F70746945
:101A40006F6E2076616C75653D27302720003C74F1
:101A5000723E3C74643E4F75747075747320636F8E
:101A60006E74726F6C2070726F746F636F6C3C2F4A
:101A700074643E3C74643E3C73656C6563742069B9
:101A8000643D277573655544506374726C27206FED
:101A90006E6368616E67653D2773656E64436F6D45
:101AA0006D616E6428227573655544506374726C61
:101AB000222C746869732E76616C756529273E0047
:101AC00027206F6E6368616E67653D2773656E647E
:101AD000436F6D6D616E642822626175645261743A
:101AE00065222C746869732E76616C756529273EB2
:101AF0002042643C2F74643E3C2F74723E002720C9
:101B00006F6E6368616E67653D2773656E64436FD2
:101B10006D6D616E642822636865636B496E7465E0
:101B20007276616C222C746869732E76616C7565AF
:101B300029273E206D733C2F74643E3C2F74723E07
:101B40003C74723E3C74643E5253343835204261DA
:101B5000756420526174653C2F74643E3C74643E2D
:101B60003C696E70757420747970653D276E756D73
:101B7000626572272069643D2762617564526174F1
:101B80006527206D696E3D273132303027206D6129
:101B9000783D2731313532303027207374796C65C8
:101BA0003D2777696474683A383070783B2720762F
:101BB000616C75653D270027206F6E6368616E67F5
:101BC000653D2773656E64436F6D6D616E64282299
:101BD00070756C736553656E644379636C65222C14
:101BE000746869732E76616C756529273E206D7364
:101BF0003C2F74643E3C2F74723E3C74723E3C74C5
:101C0000643E50696E672044484350204379636CBA
:101C1000653C2F74643E3C74643E3C696E70757420
:101C200020747970653D276E756D62657227206935
:101C3000643D27636865636B496E74657276616C99
:101C400027206D696E3D273230303027206D617856
:101C50003D2736303030303027207374796C653D45
:101C60002777696474683A383070783B272076614A
:101C70006C75653D270027206F6E6368616E676530
:101C80003D2773656E64436F6D6D616E64282261DC
:101C90006E61496E7075744379636C65222C74684B
:101CA00069732E76616C756529273E206D733C2F14
:101CB00074643E3C2F74723E3C74723E3C74643ECD
:101CC00050756C7365732053656E64204379636C43
:101CD000653C2F74643E3C74643E3C696E70757460
:101CE00020747970653D276E756D62657227206975
:101CF000643D2770756C736553656E644379636CDE
:101D00006527206D696E3D273230303027206D61A8
:101D1000783D2736303030303027207374796C6549
:101D20003D2777696474683A383070783B272076AD
:101D3000616C75653D270027206F6E6368616E6773
:101D4000653D2773656E64436F6D6D616E64282217
:101D50006F6E65576972654379636C65222C746890
:101D600069732E76616C756529273E206D733C2F53
:101D700074643E3C2F74723E3C74723E3C74643E0C
:101D8000416E616C6F6720496E7075742043796392
:101D90006C653C2F74643E3C74643E3C696E7075A7
:101DA0007420747970653D276E756D6265722720A9
:101DB00069643D27616E61496E7075744379636C27
:101DC0006527206D696E3D273230303027206D61E8
:101DD000783D2736303030303027207374796C6589
:101DE0003D2777696474683A383070783B272076ED
:101DF000616C75653D27003C2F74643E3C2F747206
:101E00003E3C2F7461626C653E3C2F74643E3C74B2
:101E1000642077696474683D27353025273E3C6827
:101E2000333E436F6E66696775726174696F6E20C9
:101E300053657474696E67733C2F68333E3C7461FC
:101E4000626C6520636C6173733D276F74686572A3
:101E50002D73657474696E67732D7461626C652788
:101E60003E3C74723E3C74643E312D57697265206D
:101E70004379636C653C2F74643E3C74643E3C69FA
:101E80006E70757420747970653D276E756D62652E
:101E900072272069643D276F6E65576972654379C3
:101EA000636C6527206D696E3D2735303030272003
:101EB0006D61783D273630303030302720737479AB
:101EC0006C653D2777696474683A383070783B27D1
:101ED0002076616C75653D27003C2F74643E3C2F75
:101EE00074723E3C74723E3C74643E3C2F74643E9B
:101EF0003C74643E3C74723E3C74643E3C2F74649B
:101F00003E3C74643E3C2F74643E3C2F74723E0031
:101F10003C2F74643E3C2F74723E3C74723E3C74A1
:101F2000643E4669726D7761726520766572736989
:101F30006F6E3C2F74643E3C74643E0027206F6ECD
:101F40006368616E67653D2773656E64436F6D6D91
:101F5000616E64282273657269616C4E756D62658D
:101F600072222C746869732E76616C756529273E20
:101F70003C2F74643E3C2F74723E3C74723E3C7441
:101F8000643E486172647761726520766572736938
:101F90006F6E3C2F74643E3C74643E0027206F6E6D
:101FA0006368616E67653D2773656E64436F6D6D31
:101FB000616E6428226465736372697074696F6E00
:101FC000222C746869732E76616C756529273E3CF6
:101FD0002F74643E3C2F74723E3C74723E3C7464B9
:101FE0003E53657269616C204E756D6265723C2F5F
:101FF00074643E3C74643E3C696E70757420747900
:1020000070653D2774657874272069643D27736582
:102010007269616C4E756D62657227206D61786CB6
:10202000656E6774683D273330272076616C75656F
:102030003D27003C2F74643E3C2F74723E3C74720A
:102040003E3C74643E4465736372697074696F6E7C
:102050003C2F74643E3C74643E3C696E7075742021
:10206000747970653D2774657874272069643D270D
:102070006465736372697074696F6E27206D61782F
:102080006C656E6774683D273330272076616C7508
:10209000653D27003A0030003C2F74643E3C2F74AD
:1020A000723E3C74723E3C74643E4D414320416438
:1020B00064726573733C2F74643E3C74643E003CF0
:1020C0002F74643E3C2F74723E3C74723E3C7464C8
:1020D0003E476174657761793C2F74643E3C74645B
:1020E0003E003C2F74643E3C2F74723E3C74723E42
:1020F0003C74643E495020416464726573732028C7
:1021000044484350293C2F74643E3C74643E003C78
:10211000646976207374796C653D276D61726769B7
:102120006E2D626F74746F6D3A313070783B273E5C
:102130003C7461626C6520636C6173733D276F75DD
:10214000746572273E3C74723E3C74642077696407
:1021500074683D27353025273E3C68333E42617325
:10216000696320496E666F726D6174696F6E3C2F92
:1021700068333E3C7461626C6520636C6173733DCF
:102180002762617369632D696E666F2D7461626C7D
:1021900065273E3C74723E3C74643E444950205373
:1021A000776974636820416464726573733C2F744B
:1021B000643E3C74643E003C626F64793E3C6469FA
:1021C0007620636C6173733D27636F6E7461696E13
:1021D0006572273E3C64697620636C6173733D27AA
:1021E00072657365742D627574746F6E273E3C69F9
:1021F0006E70757420747970653D27627574746FA4
:102200006E27206F6E636C69636B3D2277696E6425
:102210006F772E6C6F636174696F6E2E687265667E
:102220003D272F696E666F27222076616C75653DAC
:102230002750726F746F636F6C20446F6373273E17
:10224000266E6273703B3C696E7075742074797091
:10225000653D27627574746F6E27206F6E636C69BD
:10226000636B3D2277696E646F772E6F70656E28A1
:102270002768747470733A2F2F6769746875622EBB
:10228000636F6D2F5061765365646C2F5241494CDA
:102290004455494E4F272C20275F626C616E6B2797
:1022A00029222076616C75653D27476974687562DF
:1022B000273E266E6273703B3C696E7075742074A5
:1022C0007970653D27627574746F6E27206F6E6339
:1022D0006C69636B3D22696628636F6E6669726D17
:1022E0002827546865206D6F64756C652077696C6C
:1022F0006C207265626F6F742E20436F6E74696E0E
:1023000075653F2729292077696E646F772E6C6F7A
:10231000636174696F6E2E687265663D272F726502
:10232000626F6F7427222076616C75653D2753615B
:102330007665265265626F6F74273E3C2F6469761E
:102340003E3C68323E5261696C6475696E6F204331
:102350006F6E74726F6C2050616E656C3C2F6832CA
:102360003E003C2F7363726970743E3C2F68656158
:10237000643E0066756E6374696F6E2073656E648B
:10238000436F6D6D616E6428706172616D2C766152
:102390006C7565297B696628706172616D2E737436
:1023A0006172747357697468282768737327297C6E
:1023B0007C706172616D2E7374617274735769748D
:1023C0006828276C737327292970656E64696E67A6
:1023D000436F6D6D616E64735B706172616D5D3DC5
:1023E000747275653B666574636828272F636F6D2B
:1023F0006D616E643F272B706172616D2B273D27E5
:102400002B76616C7565292E7468656E287265730C
:10241000706F6E73653D3E726573706F6E73652E7F
:10242000746578742829292E7468656E286461742F
:10243000613D3E7B696628706172616D2E737461C7
:1024400072747357697468282768737327297C7CB2
:10245000706172616D2E7374617274735769746800
:1024600028276C737327292964656C65746520704F
:10247000656E64696E67436F6D6D616E64735B70EA
:102480006172616D5D3B75706461746553746174F4
:10249000757328293B7D293B7D646F63756D656E7F
:1024A000742E6164644576656E744C697374656EF0
:1024B00065722827444F4D436F6E74656E744C6F80
:1024C00061646564272C757064617465537461740C
:1024D0007573293B00666F72286C657420693D3006
:1024E0003B693C646174612E616C6961735F647304
:1024F000323433382E6C656E6774683B692B2B2938
:102500007B6C657420616C696173496E7075743D94
:10251000646F63756D656E742E676574456C656D6B
:10252000656E74427949642827616C6961735F64E0
:1025300073323433385F272B28692B3129293B69C3
:102540006628616C696173496E70757429616C6984
:102550006173496E7075742E76616C75653D64614A
:1025600074612E616C6961735F6473323433385BFC
:10257000695D7C7C27273B7D666F72286C657420C3
:10258000693D303B693C646174612E616C696173C3
:102590005F647331386232302E6C656E6774683BED
:1025A000692B2B297B6C657420616C696173496EA2
:1025B0007075743D646F63756D656E742E676574B8
:1025C000456C656D656E74427949642827616C6954
:1025D00061735F647331386232305F272B28692B57
:1025E0003129293B696628616C696173496E707590
:1025F0007429616C696173496E7075742E76616CB3
:1026000075653D646174612E616C6961735F6473AB
:1026100031386232305B695D7C7C27273B7D6C659D
:1026200074206465627567456E61626C65643D64C3
:102630006F63756D656E742E676574456C656D6549
:102640006E744279496428276465627567456E61D6
:10265000626C656427293B69662864656275674515
:102660006E61626C6564296465627567456E61625E
:102670006C65642E76616C75653D646174612E6471
:1026800065627567456E61626C65642E746F537424
:1026900072696E6728293B6C657420736572696185
:1026A0006C4E756D626572496E7075743D646F63D2
:1026B000756D656E742E676574456C656D656E74B9
:1026C00042794964282773657269616C4E756D6241
:1026D000657227293B69662873657269616C4E755E
:1026E0006D626572496E7075742973657269616C8B
:1026F0004E756D626572496E7075742E76616C757B
:10270000653D646174612E73657269616C4E756DAF
:102710006265727C7C27273B6966287365726961F4
:102720006C4E756D626572496E707574297B696651
:1027300028646174612E73657269616C4C6F636BA0
:1027400065642973657269616C4E756D6265724965
:102750006E7075742E636C6173734C6973742E6143
:10276000646428276E6F2D626F7264657227293B3F
:10277000656C73652073657269616C4E756D626519
:1027800072496E7075742E636C6173734C697374E7
:102790002E72656D6F766528276E6F2D626F72647D
:1027A000657227293B7D6669727374557064617424
:1027B000653D66616C73653B7D7D293B7D003B69B2
:1027C0002B2B297B6C657420616C696173496E7079
:1027D00075743D646F63756D656E742E67657445C1
:1027E0006C656D656E74427949642827616C696116
:1027F000735F616F5F272B28692B3129293B69663D
:1028000028616C696173496E70757429616C6961C6
:1028100073496E7075742E76616C75653D64617474
:10282000612E616C6961735F616E614F7574735B7A
:10283000695D7C7C27273B7D00666F72286C657420
:1028400020693D303B693C003B692B2B297B6C6543
:102850007420616C696173496E7075743D646F6357
:10286000756D656E742E676574456C656D656E7407
:10287000427949642827616C6961735F6C73735F87
:10288000272B28692B3129293B696628616C6961EE
:1028900073496E70757429616C696173496E7075E6
:1028A000742E76616C75653D646174612E616C692E
:1028B00061735F6C73735B695D7C7C27273B7D0074
:1028C000666F72286C657420693D303B693C003B43
:1028D000692B2B297B6C657420616C696173496E6F
:1028E0007075743D646F63756D656E742E67657485
:1028F000456C656D656E74427949642827616C6921
:1029000061735F6873735F272B28692B3129293B1B
:10291000696628616C696173496E70757429616CB0
:10292000696173496E7075742E76616C75653D646E
:102930006174612E616C6961735F6873735B695D5B
:102940007C7C27273B7D00666F72286C657420694C
:102950003D303B693C003B692B2B297B6C65742027
:10296000616C696173496E7075743D646F63756DF8
:10297000656E742E676574456C656D656E7442791D
:1029800049642827616C6961735F72656C61795F66
:10299000272B28692B3129293B696628616C6961DD
:1029A00073496E70757429616C696173496E7075D5
:1029B000742E76616C75653D646174612E616C691D
:1029C00061735F72656C6179735B695D7C7C2727DD
:1029D0003B7D00666F72286C657420693D303B69F1
:1029E0003C003B692B2B297B6C657420616E614F29
:1029F00075743D646F63756D656E742E676574459F
:102A00006C656D656E74427949642827616E614F0B
:102A100075745F272B28692B3129293B696628614A
:102A20006E614F757429616E614F75742E76616C9D
:102A300075653D646174612E616E614F7574735B81
:102A4000695D7C7C303B6C657420616E614F757490
:102A5000566F6C746167653D646F63756D656E7408
:102A60002E676574456C656D656E7442794964289E
:102A700027616E614F7574566F6C74616765272BA3
:102A800028692B3129293B696628616E614F75746D
:102A9000566F6C7461676529616E614F7574566F0E
:102AA0006C746167652E74657874436F6E74656EBF
:102AB000743D2728272B646174612E616E614F7508
:102AC0007473566F6C746167655B695D2E746F46D5
:102AD000697865642831292B275629273B7D0066B4
:102AE0006F72286C657420693D303B693C006966F3
:102AF000286669727374557064617465297B6C65AE
:102B000074206F6E65576972654379636C653D64C7
:102B10006F63756D656E742E676574456C656D6564
:102B20006E744279496428276F6E655769726543F0
:102B300079636C6527293B6966286F6E65576972F2
:102B4000654379636C65296F6E6557697265437972
:102B5000636C652E76616C75653D646174612E6F82
:102B60006E65576972654379636C657C7C33303080
:102B700030303B6C657420616E61496E70757443D2
:102B800079636C653D646F63756D656E742E676502
:102B900074456C656D656E74427949642827616E71
:102BA00061496E7075744379636C6527293B69666A
:102BB00028616E61496E7075744379636C65296133
:102BC0006E61496E7075744379636C652E76616CC5
:102BD00075653D646174612E616E61496E707574D6
:102BE0004379636C657C7C31303030303B6C65748C
:102BF000207573655544506374726C3D646F6375E2
:102C00006D656E742E676574456C656D656E744296
:102C100079496428277573655544506374726C272D
:102C2000293B6966287573655544506374726C2935
:102C30007573655544506374726C2E76616C75655E
:102C40003D646174612E7573655544506374726C94
:102C50002E746F537472696E6728293B6C657420FB
:102C600070756C73654F6E3D646F63756D656E74E2
:102C70002E676574456C656D656E7442794964288C
:102C80002770756C73654F6E27293B6966287075D0
:102C90006C73654F6E2970756C73654F6E2E76611F
:102CA0006C75653D646174612E70756C73654F6EF3
:102CB0002E746F537472696E6728293B6C6574209B
:102CC00067617465776179456E61626C65643D64C6
:102CD0006F63756D656E742E676574456C656D65A3
:102CE0006E74427949642827676174657761794514
:102CF0006E61626C656427293B696628676174654B
:102D0000776179456E61626C656429676174657786
:102D10006179456E61626C65642E76616C75653DA6
:102D2000646174612E67617465776179456E616273
:102D30006C65642E746F537472696E6728293B6CDE
:102D400065742070756C736553656E644379636C4C
:102D5000653D646F63756D656E742E676574456C53
:102D6000656D656E7442794964282770756C73656A
:102D700053656E644379636C6527293B69662870E7
:102D8000756C736553656E644379636C6529707502
:102D90006C736553656E644379636C652E76616C04
:102DA00075653D646174612E70756C736553656EF5
:102DB000644379636C657C7C31303030303B6C65CA
:102DC0007420636865636B496E74657276616C3DEF
:102DD000646F63756D656E742E676574456C656DA3
:102DE000656E74427949642827636865636B496E30
:102DF00074657276616C27293B6966286368656330
:102E00006B496E74657276616C29636865636B49A2
:102E10006E74657276616C2E76616C75653D646169
:102E200074612E636865636B496E74657276616C5C
:102E30007C7C31303030303B6C657420626175646D
:102E4000526174653D646F63756D656E742E676560
:102E500074456C656D656E744279496428276261BA
:102E600075645261746527293B69662862617564DF
:102E7000526174652962617564526174652E766170
:102E80006C75653D646174612E6261756452617434
:102E9000657C7C3131353230303B69662875706431
:102EA000617465496E74657276616C496429636CFE
:102EB000656172496E74657276616C2875706461C3
:102EC0007465496E74657276616C4964293B7570EE
:102ED00064617465496E74657276616C49643D73B2
:102EE0006574496E74657276616C2875706461747E
:102EF000655374617475732C32303030293B006631
:102F00006F72286C657420693D303B693C64617464
:102F1000612E647331386232302E6C656E6774686E
:102F20003B692B2B297B6C657420736E456C656D3A
:102F30003D646F63756D656E742E676574456C6571
:102F40006D656E7442794964282764733138623242
:102F5000305F736E272B28692B3129293B6C6574F0
:102F60002074656D70456C656D3D646F63756D654E
:102F70006E742E676574456C656D656E7442794933
:102F8000642827647331386232305F74656D70274E
:102F90002B28692B3129293B696628736E456C659E
:102FA0006D262674656D70456C656D297B736E4565
:102FB0006C656D2E74657874436F6E74656E743DC8
:102FC000646174612E647331386232305B695D2EE6
:102FD000736E3B74656D70456C656D2E74657874A9
:102FE000436F6E74656E743D646174612E647331F9
:102FF000386232305B695D2E74656D702B27432714
:103000003B7D7D00666F72286C657420693D303BA6
:10301000693C646174612E6473323433382E6C659C
:103020006E6774683B692B2B297B6C657420736E0B
:10303000456C656D3D646F63756D656E742E676577
:1030400074456C656D656E744279496428276473B4
:10305000323433385F736E272B28692B3129293B93
:103060006C65742074656D70456C656D3D646F634F
:10307000756D656E742E676574456C656D656E74EF
:103080004279496428276473323433385F74656D3C
:1030900070272B28692B3129293B6C6574207661B8
:1030A00064456C656D3D646F63756D656E742E6708
:1030B0006574456C656D656E744279496428276452
:1030C00073323433385F766164272B28692B3129BA
:1030D000293B6C6574207673656E73456C656D3D38
:1030E000646F63756D656E742E676574456C656D90
:1030F000656E744279496428276473323433385FCB
:103100007673656E73272B28692B3129293B6966F5
:1031100028736E456C656D262674656D70456C650B
:103120006D2626766164456C656D26267673656E20
:1031300073456C656D297B736E456C656D2E74658A
:103140007874436F6E74656E743D646174612E644F
:1031500073323433385B695D2E736E3B74656D700A
:10316000456C656D2E74657874436F6E74656E740E
:103170003D646174612E6473323433385B695D2E53
:1031800074656D702B2743273B766164456C656DD4
:103190002E74657874436F6E74656E743D646174EB
:1031A000612E6473323433385B695D2E7661642B33
:1031B0002756273B7673656E73456C656D2E746577
:1031C0007874436F6E74656E743D646174612E64CF
:1031D00073323433385B695D2E7673656E732B27DB
:1031E00056273B7D7D003B692B2B297B6C6574202A
:1031F000616E614F75743D646F63756D656E742E9D
:10320000676574456C656D656E74427949642827FD
:10321000616E614F75745F272B28692B3129293B1B
:10322000696628616E614F757429616E614F7574AE
:103230002E76616C75653D646174612E616E614FBF
:103240007574735B695D7C7C303B6C657420616E6A
:10325000614F7574566F6C746167653D646F63751B
:103260006D656E742E676574456C656D656E744230
:103270007949642827616E614F7574566F6C74616B
:103280006765272B28692B3129293B696628616EE0
:10329000614F7574566F6C7461676529616E614F1B
:1032A0007574566F6C746167652E74657874436FBE
:1032B0006E74656E743D2728272B646174612E61DE
:1032C0006E614F757473566F6C746167655B695D91
:1032D0002E746F46697865642831292B2756292773
:1032E0003B7D00666F72286C657420693D303B69D8
:1032F0003C00666F72286C657420693D303B693C08
:10330000646174612E616E61496E707574732E6CA8
:10331000656E6774683B692B2B297B6C6574207321
:103320007461747573456C656D3D646F63756D652F
:103330006E742E676574456C656D656E744279496F
:1033400064282761695F737461747573272B28691A
:103350002B3129293B696628737461747573456C38
:10336000656D29737461747573456C656D2E746534
:103370007874436F6E74656E743D646174612E6120
:103380006E61496E707574735B695D2B2720282709
:103390002B646174612E616E61496E707574735631
:1033A0006F6C746167655B695D2E746F46697865E3
:1033B000642831292B275629273B7D00666F722808
:1033C0006C657420693D303B693C646174612E64B6
:1033D0006967496E707574732E6C656E6774683BAF
:1033E000692B2B297B6C657420737461747573452C
:1033F0006C656D3D646F63756D656E742E67657485
:10340000456C656D656E7442794964282764695F0F
:10341000737461747573272B28692B3129293B69D3
:103420006628737461747573456C656D297B6C6572
:103430007420737461747573546578743D64617439
:10344000612E646967496E707574735B695D3B6971
:103450006628646174612E70756C73654F6E2626E4
:1034600028693D3D3D397C7C693D3D3D31307C7C6A
:10347000693D3D3D3131292973746174757354651B
:1034800078742B3D272028636F756E743A20272BA4
:10349000646174612E70756C7365436F756E7473BF
:1034A0005B692D395D2B2729273B73746174757314
:1034B000456C656D2E74657874436F6E74656E74BB
:1034C0003D737461747573546578743B7D7D003B06
:1034D000692B2B297B6C6574206C73733D646F635F
:1034E000756D656E742E676574456C656D656E747B
:1034F0004279496428276C7373272B28692B31295B
:10350000293B6C6574206C737350574D3D646F6339
:10351000756D656E742E676574456C656D656E744A
:103520004279496428276C737350574D272B2869BB
:103530002B3129293B6966286C73732626646174D4
:10354000612E6C73732626646174612E6C73735BD9
:10355000695D213D3D756E646566696E656426260C
:103560002170656E64696E67436F6D6D616E647323
:103570005B276C7373272B28692B31295D296C73AA
:10358000732E636865636B65643D646174612E6C62
:1035900073735B695D3D3D3D313B6966286C7373B8
:1035A00050574D2626646174612E6C737350574DCD
:1035B0002626646174612E6C737350574D5B695D90
:1035C000213D3D756E646566696E65642626776982
:1035D0006E646F772E61637469766550574D4669E6
:1035E000656C64213D3D276C737350574D272B2824
:1035F000692B3129296C737350574D2E76616C7588
:10360000653D646174612E6C737350574D5B695DE9
:103610007C7C303B7D00666F72286C657420693D50
:10362000303B693C003B692B2B297B6C657420681F
:1036300073733D646F63756D656E742E6765744555
:103640006C656D656E7442794964282768737327C9
:103650002B28692B3129293B6C65742068737350C2
:10366000574D3D646F63756D656E742E6765744567
:103670006C656D656E744279496428276873735070
:10368000574D272B28692B3129293B6966286873F8
:10369000732626646174612E6873732626646174D0
:1036A000612E6873735B695D213D3D756E6465666F
:1036B000696E656426262170656E64696E67436F66
:1036C0006D6D616E64735B27687373272B28692B9C
:1036D00031295D296873732E636865636B65643D8A
:1036E000646174612E6873735B695D3D3D3D313B80
:1036F00069662868737350574D2626646174612E7D
:1037000068737350574D2626646174612E68737315
:1037100050574D5B695D213D3D756E646566696E10
:103720006564262677696E646F772E6163746976A7
:103730006550574D4669656C64213D3D276873733C
:1037400050574D272B28692B3129296873735057FF
:103750004D2E76616C75653D646174612E6873737E
:1037600050574D5B695D7C7C303B7D00666F7228F5
:103770006C657420693D303B693C003B692B2B290B
:103780007B6C65742072656C61793D646F63756DE7
:10379000656E742E676574456C656D656E744279EF
:1037A0004964282772656C6179272B28692B312998
:1037B000293B69662872656C61792972656C61794B
:1037C0002E636865636B65643D646174612E726528
:1037D0006C6179735B695D3B7D00666F72286C6517
:1037E0007420693D303B693C006665746368282736
:1037F0002F73746174757327292E7468656E28722F
:103800006573706F6E7365203D3E20726573706FD7
:103810006E73652E6A736F6E2829292E7468656E23
:103820002864617461203D3E207B0066756E637480
:10383000696F6E207570646174655374617475731B
:1038400028297B006C6574206669727374557064F6
:103850006174653D747275653B6C65742061637459
:1038600069766550574D4669656C643D6E756C6C44
:103870003B6C65742070656E64696E67436F6D6D37
:10388000616E64733D7B7D3B6C6574207570646113
:103890007465496E74657276616C49643D6E756CD1
:1038A0006C3B003C7363726970743E003C21444F72
:1038B00043545950452048544D4C3E3C68746D6CFF
:1038C0003E3C686561643E3C6D657461206368617F
:1038D000727365743D225554462D38223E3C7469FE
:1038E000746C653E5261696C6475696E6F20436FDC
:1038F0006E74726F6C3C2F7469746C653E3C7374AB
:10390000796C653E626F64797B666F6E742D66615B
:103910006D696C793A417269616C2C73616E732DBB
:1039200073657269663B666F6E742D73697A653A6A
:10393000313470783B706F736974696F6E3A726579
:103940006C61746976653B7D2E636F6E7461696E20
:1039500065727B77696474683A3130303070783BD7
:103960006D617267696E3A30206175746F3B706F7C
:10397000736974696F6E3A72656C61746976653BE0
:103980007D68312C68322C68337B666F6E742D66CF
:10399000616D696C793A417269616C2C73616E7307
:1039A0002D73657269663B636F6C6F723A233434B2
:1039B000343B7D7461626C652E696E6E65727B62EC
:1039C0006F726465722D636F6C6C617073653A63BE
:1039D0006F6C6C617073653B77696474683A313001
:1039E00030253B6261636B67726F756E642D636F28
:1039F0006C6F723A236638663966613B7D7461622A
:103A00006C652E6F757465727B626F726465723A55
:103A100031707820736F6C696420236363633B7734
:103A2000696474683A313030253B626F7264657244
:103A30002D7261646975733A3870783B6F76657280
:103A4000666C6F773A68696464656E3B626F782D67
:103A5000736861646F773A302034707820387078FA
:103A6000207267626128302C302C302C302E3129A6
:103A70003B6261636B67726F756E642D636F6C6F11
:103A8000723A236638663966613B70616464696EB8
:103A9000673A302030203130707820313570787DB1
:103AA00074647B766572746963616C2D616C69679F
:103AB0006E3A6D6964646C653B666F6E742D7369F4
:103AC0007A653A313470783B70616464696E673A44
:103AD0003270783B7D696E7075742C73656C6563AC
:103AE000747B666F6E742D73697A653A31347078C1
:103AF0003B636F6C6F723A233535353B706164649C
:103B0000696E673A3370783B626F726465723A31FE
:103B1000707820736F6C696420236363633B626F0A
:103B2000726465722D7261646975733A3470783BA2
:103B3000626F782D736861646F773A696E7365742C
:103B400020302031707820327078207267626128CE
:103B5000302C302C302C302E31293B7472616E7336
:103B60006974696F6E3A616C6C20302E3273206517
:103B70006173653B7D696E7075743A666F637573CA
:103B80002C73656C6563743A666F6375737B626FE3
:103B9000726465722D636F6C6F723A2338306264A1
:103BA00066663B6F75746C696E653A6E6F6E653BE9
:103BB000626F782D736861646F773A3020302035FA
:103BC0007078207267626128302C3132332C3235A4
:103BD000352C302E35293B7D696E7075743A686FCF
:103BE0007665722C73656C6563743A686F7665727E
:103BF0007B626F726465722D636F6C6F723A2339EA
:103C000039393B7D2E72657365742D627574746FDE
:103C10006E7B706F736974696F6E3A6162736F6CFB
:103C20007574653B746F703A3070783B7269676881
:103C3000743A3070783B7D2E72657365742D6275B1
:103C400074746F6E20696E7075747B7061646469E2
:103C50006E673A3570783B7D74727B68656967681A
:103C6000743A323670783B7D7461626C652E696E91
:103C70006E65722074643A66697273742D63686944
:103C80006C647B77696474683A31303070783B7D5E
:103C90007461626C652E696E6E65722074643A663A
:103CA000697273742D6368696C643A686F766572C3
:103CB0007B637572736F723A20706F696E74657290
:103CC0003B7D7461626C652E696E6E6572207464F2
:103CD0003A6E74682D6368696C642832297B776951
:103CE0006474683A383070783B7D7461626C652E1C
:103CF00062617369632D696E666F2D7461626C65B4
:103D00002074643A66697273742D6368696C647BAD
:103D100077696474683A31383070783B7D746162D9
:103D20006C652E6F746865722D73657474696E6747
:103D3000732D7461626C652074643A666972737481
:103D40002D6368696C647B77696474683A323030DB
:103D500070783B7D7461626C652E6F6E65776972F9
:103D6000652D7461626C652074643A66697273745F
:103D70002D6368696C647B77696474683A38307065
:103D8000783B666F6E742D73697A653A313370785B
:103D90003B7D7461626C652E6F6E65776972652D0F
:103DA0007461626C652074643A6E74682D6368692E
:103DB0006C642832297B77696474683A31333070D7
:103DC000783B666F6E742D73697A653A313370781B
:103DD0003B7D7461626C652E6F6E65776972652DCF
:103DE0007461626C652074643A6E74682D636869EE
:103DF0006C642833292C7461626C652E6F6E657754
:103E00006972652D7461626C652074643A6E7468C1
:103E10002D6368696C642834292C7461626C652E8A
:103E20006F6E65776972652D7461626C652074646C
:103E30003A6E74682D6368696C642835297B7769EC
:103E40006474683A343070783B666F6E742D7369B1
:103E50007A653A313370783B7D7461626C652E6FA0
:103E60006E65776972652D7461626C6520696E702C
:103E700075747B77696474683A31323070783B7D51
:103E80002E6E6F2D626F726465727B626F726465F5
:103E9000723A6E6F6E653B7D3C2F7374796C653E34
:103EA00000436F6E6E656374696F6E3A20636C6F6A
:103EB000736500436F6E74656E742D547970653A46
:103EC00020746578742F68746D6C3B206368617230
:103ED0007365743D5554462D3800485454502F3165
:103EE0002E3120323030204F4B00204854545000A7
:103EF0003F6C6F636B3D003F6C6F636B3D004745EC
:103F000054202F3F00474554202F200072657365D1
:103F1000743D310020757064617465643A2000411D
:103F20006E616C6F67204F7574707574200020751A
:103F30007064617465643A20004C5353200020750E
:103F40007064617465643A20004853532000207502
:103F50007064617465643A200052656C6179200078
:103F600020757064617465643A2000616C696173E6
:103F70005F647331386232305F00616C6961735F16
:103F8000647331386232305F00207570646174652B
:103F9000643A2000616C6961735F64733234333852
:103FA0005F00616C6961735F6473323433385F0042
:103FB00020757064617465643A2000616C69617396
:103FC0005F616E614F75745F00616C6961735F6101
:103FD0006E614F75745F0020757064617465643A3A
:103FE0002000616C6961735F616E61496E70757408
:103FF0005F00616C6961735F616E61496E707574B9
:104000005F0020757064617465643A2000616C69BA
:1040100061735F646967496E7075745F00616C6994
:1040200061735F646967496E7075745F00207570B5
:1040300064617465643A2000616C6961735F6C73DC
:10404000735F00616C6961735F6C73735F002075EF
:104050007064617465643A2000616C6961735F68C3
:1040600073735F00616C6961735F6873735F0020D5
:10407000757064617465643A2000616C6961735F96
:1040800072656C61795F00616C6961735F72656C08
:1040900061795F004F75747075747320636F6E740F
:1040A000726F6C2070726F746F636F6C20636861E5
:1040B0006E6765643A200075736555445063747289
:1040C0006C3D007573655544506374726C3D0047D8
:1040D00061746577617920656E61626C65642075D5
:1040E0007064617465643A20006761746577617912
:1040F000456E61626C65643D0067617465776179E6
:10410000456E61626C65643D006465627567456E0D
:1041100061626C656420757064617465643A200046
:104120006465627567456E61626C65643D006465D7
:10413000627567456E61626C65643D0070756C7395
:10414000654F6E20757064617465643A2000707507
:104150006C73654F6E3D0070756C73654F6E3D00FE
:104160005253343835204261756420726174652081
:10417000757064617465643A2000626175645261AF
:1041800074653D0062617564526174653D006368E9
:1041900065636B496E74657276616C2075706461DD
:1041A0007465643A2000636865636B496E74657278
:1041B00076616C3D00636865636B496E7465727609
:1041C000616C3D0070756C736553656E6443796313
:1041D0006C6520757064617465643A200070756C5C
:1041E000736553656E644379636C653D0070756CEF
:1041F000736553656E644379636C653D00616E6100
:10420000496E7075744379636C6520757064617470
:1042100065643A2000616E61496E7075744379631C
:104220006C653D00616E61496E7075744379636CB5
:10423000653D006F6E65576972654379636C6520F3
:10424000757064617465643A20006F6E65576972B9
:10425000654379636C653D006F6E655769726543B0
:1042600079636C653D004465736372697074696F4E
:104270006E20757064617465643A200064657363D0
:1042800072697074696F6E3D006465736372697002
:1042900074696F6E3D0053657269616C206E756D57
:1042A00062657220757064617465643A200073659C
:1042B0007269616C4E756D6265723D0073657269FD
:1042C000616C4E756D6265723D004F4B00436F6EC1
:1042D0006E656374696F6E3A20636C6F736500433B
:1042E0006F6E74656E742D547970653A20746578BC
:1042F000742F706C61696E00485454502F312E3108
:1043000020323030204F4B003C2F626F64793E3CAE
:104310002F68746D6C3E003C2F6469763E000A2065
:104320002020203C68333E4164646974696F6E618B
:104330006C204E6F7465733C2F68333E0A2020203A
:10434000203C7072653E0A436F6D62696E617469EC
:104350006F6E206F662031776972652073656E73AA
:104360006F7273206D757374206265207570207490
:104370006F203130706373206D6178696D756D20C9
:104380002844533138423230206F72204453323443
:104390003338290A5573696E6720525334383520F3
:1043A000746865205544502073796E746178206D6F
:1043B0007573742068617665205C6E2073796D6218
:1043C0006F6C2061742074686520656E64206F6670
:1043D0002074686520636F6D6D616E64206C696E1A
:1043E000650A202020203C2F7072653E0A3C2F6217
:1043F0006F64793E0A3C2F68746D6C3E0A000A4D6A
:104400004F44425553205265676973746572204D5D
:1044100061700A0A7265676973746572206E756DE2
:1044200062657220283220627974657329202064C5
:1044300065736372697074696F6E0A30202D206233
:1044400069747320302D3720202020202020202048
:1044500020202020202072656C6179206F75747097
:1044600075747320312D380A31202D2062697473E0
:104470002031362D313920202020202020202020DE
:1044800020202072656C6179206F7574707574736B
:1044900020392D31320A32202D2062697473203385
:1044A000322D3339202020202020202020202020C1
:1044B000206469676974616C206F757470757473BA
:1044C0002048535320312D342C204C535320312D70
:1044D000340A33202D204C53422062797465202009
:1044E000202020202020202020202020204853533E
:1044F0002050574D2076616C756520312028302D75
:10450000323535290A34202D204C534220627974EB
:104510006520202020202020202020202020202056
:104520004853532050574D2076616C7565203220DA
:1045300028302D323535290A35202D204C53422084
:104540006279746520202020202020202020202037
:104550002020204853532050574D2076616C7565BC
:1045600020332028302D323535290A36202D204C95
:1045700053422062797465202020202020202020B2
:104580002020202020204853532050574D20766172
:104590006C756520342028302D323535290A3720B6
:1045A0002D204C5342206279746520202020202049
:1045B0002020202020202020204C53532050574DD5
:1045C0002076616C756520312028302D32353529F3
:1045D0000A38202D204C5342206279746520202017
:1045E0002020202020202020202020204C53532039
:1045F00050574D2076616C756520322028302D3261
:104600003535290A39202D204C53422062797465B2
:104610002020202020202020202020202020204C6E
:1046200053532050574D2076616C756520332028F8
:10463000302D323535290A3130202D204C5342207F
:104640006279746520202020202020202020202036
:1046500020204C53532076616C756520342028301F
:10466000206F7220323535290A3131202D204C53EC
:1046700042206279746520202020202020202020E4
:1046800020202020616E616C6F67206F75747075DB
:104690007420312028302D323535290A3132202D31
:1046A000204C534220627974652020202020202055
:1046B00020202020202020616E616C6F67206F75A4
:1046C0007470757420322028302D323535290A3126
:1046D00033202D2062697473203230382D32313509
:1046E0002020202020202020202064696769746118
:1046F0006C20696E7075747320312D380A31342046
:104700002D2062697473203231362D3232332020ED
:1047100020202020202020206469676974616C209B
:10472000696E7075747320392D31360A3135202D3C
:104730002062697473203232342D323331202020CC
:10474000202020202020206469676974616C206922
:104750006E707574732031372D32340A3136202D46
:10476000204C534220627974652020202020202094
:1047700020202020202020616E616C6F6720696EF0
:1047800070757420312028302D31303233290A31B0
:1047900037202D204C534220627974652020202040
:1047A00020202020202020202020616E616C6F6757
:1047B00020696E70757420322028302D31303233EC
:1047C0002920200A3138202D20626974203238389F
:1047D0002020202020202020202020202020207287
:1047E00065736574200A3139202D204C53422062B4
:1047F00079746520202020202020202020202020C7
:1048000020317374204453323433382054656D7032
:10481000202876616C7565206D756C7469706C69A3
:10482000656420627920313030290A3230202D2011
:104830004C534220627974652020202020202020C3
:104840002020202020203173742044533234333808
:1048500020566164202876616C7565206D756C74D6
:1048600069706C69656420627920313030290A32C0
:1048700031202D204C534220627974652020202065
:104880002020202020202020202031737420445319
:1048900032343338205673656E73202876616C7518
:1048A00065206D756C7469706C696564206279202F
:1048B000313030290A2D20202020202020202020C7
:1048C0002020202020202020202020202020200AFE
:1048D0003436202D204C53422062797465202020EC
:1048E0002020202020202020202020445332343338
:1048F000382076616C7565732028757020746F2080
:1049000031302073656E736F7273290A34372D3519
:104910003720202020202020202020202020202080
:10492000202020202020204453313842323020548F
:10493000656D70657261747572652028757020747C
:104940006F2031302073656E736F72732920287663
:10495000616C7565206D756C7469706C6965642037
:10496000627920313030290A3C2F7072653E0A008E
:104970000A202020203C68333E4D4F444255533C92
:104980002F68333E0A202020203C7072653E0A4D7D
:104990004F444255532054435020636F6D6D616EF8
:1049A00064733A20464331202D20464331360A4D68
:1049B0004F444255532052545520636F6D6D616EC4
:1049C00064733A204643332C204643362C2046431A
:1049D00031360A0A526567697374657273206172B1
:1049E000652032206279746573202831362062692F
:1049F000747329202D206F6E6C79206C656173743F
:104A0000207369676E69666963616E742062797488
:104A10006520284C53422920697320757365640A08
:104A2000202020200A000A636F6D6D616E64733A66
:104A30000A202072656C6179206F6E20636F6D6D46
:104A4000616E643A20202020202020202020202079
:104A50002020207261696C3120726F3132206F6EBC
:104A60000A202072656C6179206F666620636F6D25
:104A70006D616E643A2020202020202020202020FC
:104A80002020207261696C3120726F35206F66665C
:104A90000A202068696768207369646520737769F4
:104AA000746368206F6E20636F6D6D616E643A2071
:104AB0002020207261696C3120686F32206F6E0A8D
:104AC000202068696768207369646520737769745A
:104AD0006368206F666620636F6D6D616E643A2057
:104AE00020207261696C3120686F34206F66660A1D
:104AF000202068696768207369646520737769742A
:104B000063682050574D20636F6D6D616E643A206D
:104B100020207261696C3120686F315F70776D2081
:104B20003138300A20206C6F7720736964652073F8
:104B30007769746368206F6E20636F6D6D616E645A
:104B40003A20202020207261696C31206C6F312066
:104B50006F6E0A20206C6F7720736964652073770D
:104B600069746368206F666620636F6D6D616E6443
:104B70003A202020207261696C31206C6F32206FE6
:104B800066660A20206C6F772073696465207377EE
:104B9000697463682050574D20636F6D6D616E645A
:104BA0003A202020207261696C31206C6F315F7077
:104BB000776D203138300A2020616E616C6F67207C
:104BC0006F757470757420636F6D6D616E643A20DB
:104BD0002020202020202020207261696C3120615B
:104BE0006F31203138300A2020726573657420637C
:104BF0006F6D6D616E643A202020202020202020DF
:104C00002020202020202020207261696C31207219
:104C100073740A64656661756C74207363616E20D9
:104C20006379636C65733A0A202031776972652075
:104C30006379636C653A20202020202020202020EA
:104C40002020202020202020202033303030302011
:104C50006D730A2020616E616C6F6720696E7075DC
:104C600074206379636C653A202020202020202066
:104C700020202020203130303030206D730A202059
:104C800020203C2F7072653E0A000A202020203C24
:104C900068333E5544503C2F68333E0A2020202084
:104CA0003C7072653E0A7369676E616C733A0A20E4
:104CB0002044533138423230203177697265207395
:104CC000656E736F72207061636B65743A2020208B
:104CD000207261696C312031772032383634666356
:104CE000333030383038322032352E34340A2020F8
:104CF0004453323433382031776972652073656EDE
:104D0000736F72207061636B65743A2020202020DD
:104D10007261696C31203177203236313263333140
:104D20003032303034662032352E343420312E3259
:104D30003320302E31320A20206469676974616C37
:104D400020696E7075742073746174653A20202038
:104D50002020202020202020207261696C312064D6
:104D6000693120310A2020616E616C6F6720696EA5
:104D70007075742073746174653A2020202020209F
:104D8000202020202020207261696C31206169314F
:104D900020313032300A000A3C21444F43545950EC
:104DA000452048544D4C3E0A3C68746D6C3E0A3CAC
:104DB000686561643E0A202020203C7469746C653B
:104DC0003E5261696C6475696E6F2050726F746FCA
:104DD000636F6C20446F63756D656E746174696F89
:104DE0006E3C2F7469746C653E0A202020203C7351
:104DF00074796C653E0A2020202020202020626FDC
:104E00006479207B20666F6E742D66616D696C79A4
:104E10003A20417269616C2C2073616E732D736549
:104E20007269663B20666F6E742D73697A653A20ED
:104E3000313470783B206D617267696E3A20323090
:104E400070783B207D0A20202020202020202E6307
:104E50006F6E7461696E6572207B20776964746817
:104E60003A203130303070783B206D617267696E66
:104E70003A2030206175746F3B20706F73697469DC
:104E80006F6E3A2072656C61746976653B207D0AAD
:104E9000202020202020202068322C206833207BF6
:104EA00020666F6E742D66616D696C793A2041726F
:104EB00069616C2C2073616E732D73657269663B3A
:104EC000207D0A2020202020202020707265207B59
:104ED000206261636B67726F756E643A202366347B
:104EE000663466343B2070616464696E673A2031D1
:104EF0003070783B20626F726465723A203170784E
:104F000020736F6C696420236363633B2077686957
:104F100074652D73706163653A207072652D7772C8
:104F200061703B207D0A202020203C2F7374796C17
:104F3000653E0A3C2F686561643E0A3C626F647995
:104F40003E0A202020203C64697620636C617373E4
:104F50003D27636F6E7461696E6572273E0A20207B
:104F600020203C68323E5261696C6475696E6F2026
:104F70004669726D7761726520446F63756D656E09
:104F8000746174696F6E3C2F68323E0A00436F6E25
:104F90006E656374696F6E3A20636C6F736500436E
:104FA0006F6E74656E742D547970653A20746578EF
:104FB000742F68746D6C00485454502F312E31207A
:104FC000323030204F4B003C2F626F64793E3C2FD3
:104FD00068746D6C3E003C7363726970743E7365F7
:104FE0007454696D656F75742866756E6374696F46
:104FF0006E28297B77696E646F772E6C6F6361749E
:10500000696F6E2E687265663D272F273B7D2C20C9
:1050100035303030293B3C2F7363726970743E0029
:105020003C68333E5265626F6F74696E672E2E2E38
:105030003C2F68333E003C68746D6C3E3C626F648C
:10504000793E003C21444F43545950452048544D2B
:105050004C3E00436F6E6E656374696F6E3A2063F9
:105060006C6F736500436F6E74656E742D54797048
:10507000653A20746578742F68746D6C00485454D8
:10508000502F312E3120323030204F4B007D005DCB
:10509000005D002C002200220022616C6961735FB8
:1050A00064733138623230223A5B005D2C005D2C33
:1050B000002C002200220022616C6961735F64731E
:1050C00032343338223A5B005D2C002C002200225F
:1050D0000022616C6961735F616E614F7574732248
:1050E0003A5B005D2C002C002200220022616C69DA
:1050F00061735F616E61496E70757473223A5B0013
:105100005D2C002C002200220022616C6961735F1B
:10511000646967496E70757473223A5B005D2C0098
:105120002C002200220022616C6961735F6C737332
:10513000223A5B005D2C002C002200220022616CD0
:105140006961735F687373223A5B005D2C002C0009
:105150002200220022616C6961735F72656C617963
:1051600073223A5B005D2C002C0022616E614F754A
:105170007473566F6C74616765223A5B005D2C0036
:105180002C0022616E61496E70757473566F6C7479
:10519000616765223A5B002C00226261756452618E
:1051A0007465223A00222C00226465736372697070
:1051B00074696F6E223A22002C0022736572696155
:1051C0006C4C6F636B6564223A00222C002273657D
:1051D0007269616C4E756D626572223A22002C0014
:1051E000226465627567456E61626C6564223A008F
:1051F0002C0022636865636B496E74657276616C1E
:10520000223A002C002267617465776179456E61EE
:10521000626C6564223A002C002270756C736553D1
:10522000656E644379636C65223A002C00227075C8
:105230006C73654F6E223A002C00227573655544DD
:10524000506374726C223A002C0022616E61496EC8
:105250007075744379636C65223A002C00226F6E7E
:1052600065576972654379636C65223A005D2C006D
:105270002C002C002270756C7365436F756E74730F
:10528000223A5B005D2C005D2C002C007D00222C5E
:105290002274656D70223A007B22736E223A2200DE
:1052A0002264733138623230223A5B005D2C005D3B
:1052B0002C002C007D002C227673656E73223A0040
:1052C0002C22766164223A00222C2274656D7022B1
:1052D0003A007B22736E223A220022647332343306
:1052E00038223A5B005D2C002C0022616E61496E11
:1052F00070757473223A5B005D2C002C0022646987
:1053000067496E70757473223A5B005D2C002C0047
:1053100022616E614F757473223A5B005D2C002C24
:1053200000226C737350574D223A5B005D2C002CA9
:10533000002268737350574D223A5B005D2C002C9D
:1053400000226C7373223A5B005D2C002C002268F3
:105350007373223A5B005D2C002C002272656C6135
:105360007973223A5B007B00485454502F312E3120
:1053700020323030204F4B0A436F6E74656E742DAF
:10538000547970653A206170706C69636174696FFB
:105390006E2F6A736F6E0A436F6E6E656374696F0A
:1053A0006E3A20636C6F73650A00454550524F4D4D
:1053B00020696E697469616C697A656420776974C3
:1053C000682064656661756C742076616C756573C0
:1053D000007261696C00444843502072656E6577C5
:1053E000206661696C004448435020726562696EB2
:1053F00064206F6B004448435020726562696E649C
:10540000206661696C00444843502072656E657780
:10541000206F6B0045746865726E657420636F6EF3
:105420006E656374696F6E206661696C65642C20BB
:10543000726573657474696E672E006169007273BA
:105440007400616F006C6F00686F00726F006469B8
:105450000000002100240027002A002D0030003326
:105460000001010000040107010A0100000A0B020B
:10547000090C0D0E080703040100000000000000E5
:10548000000000000000000000000000000000001C
:1054900000000000000000121110000000000000D9
:1054A00000000000000000000000000000000000FC
:1054B00000005EBCE2613FDD83C29C7E20A3FD1F35
:1054C000419DC3217FFCA2401E5F01E3BD3E60827F
:1054D000DC237D9FC1421CFEA0E1BF5D0380DE3C5A
:1054E00062BEE0025CDF81633D7C22C09E1D43A161
:1054F000FF4618FAA427799BC584DA3866E5BB59BC
:1055000007DB856739BAE406581947A5FB7826C436
:105510009A653BD987045AB8E6A7F91B45C6987A1D
:1055200024F8A6441A99C7257B3A6486D85B05E718
:10553000B98CD2306EEDB3510F4E10F2AC2F719387
:10554000CD114FADF3702ECC92D38D6F31B2EC0EE6
:1055500050AFF1134DCE90722C6D33D18F0C52B0F1
:10556000EE326C8ED0530DEFB1F0AE4C1291CF2DC8
:1055700073CA947628ABF517490856B4EA6937D54B
:105580008B5709EBB536688AD495CB2977F4AA48AE
:1055900016E9B7550B88D6346A2B7597C94A14F6A5
:1055A000A8742AC896154BA9F7B6E80A54D7896B90
:1055B0003500002200250028002B002E0031003489
:1055C0000002010000050108010B0100002000237A
:1055D00000260029002C002F0032000001000003EB
:1055E0000106010901050505050705080808080267
:1055F0000202020A0A08080404040401010101016C
:105600000101010303030303030303040707070C5A
:105610000C0C0C0C0C0C0C02020202060606060610
:105620000606060B0B0B0B0B0B0B0B0102102020BD
:1056300008081020401020408002010201080402E6
:10564000010102040810204080804020100804025C
:1056500001800402018040201008040201080402B5
:1056600001010204081020408001020408102040BB
:1056700080008B81309611241FBECFEFD1E2DEBFB8
:10568000CDBF00E00CBF16E0A0E0B2E0E2E4F7E43A
:1056900001E00BBF02C007900D92AE35B107D9F7FC
:1056A00021E1AEE5B6E001C01D92A031B207E1F7FD
:1056B0001BE2CAE3DBE200E006C021970109802F6C
:1056C000FE010E94039EC933D10780E00807A9F7B5
:1056D0000E94F9820C948FA30C940000CF92DF9269
:1056E000EF92FF92CF93DF93EC016A017B01E8898F
:1056F000F98982E08083C11481EED806E104F104C7
:10570000A1F060E079E08DE390E0A70196010E94AE
:10571000889C215031094109510956954795379583
:105720002795211580E1380798F0E889F9891082DA
:1057300060E874E88EE190E0A70196010E94889CE1
:1057400021503109410951095695479537952795BB
:10575000EC85FD853083EE85FF852083188EEC89EE
:10576000FD8986E08083EA89FB898081806180836E
:10577000EA89FB89808188608083EA89FB8980814E
:1057800080688083EA89FB8980818F7D8083DF91B7
:10579000CF91FF90EF90DF90CF90089520914F0B25
:1057A000222361F02FB7F89430914F0B313049F438
:1057B0003DB330934E0B3DB33DBB2FBF8CBD9DBD64
:1057C000089520934E0BFACF20E3FC0120833296FC
:1057D000862F82958F706F706A3030F4605D6293AF
:1057E000682F8111F5CF0895695CF9CFCF93DF93CE
:1057F000D62F9C0164E0369527956A95E1F7C1E0C4
:1058000021384CE034070CF4C0E021384CE0340778
:10581000F8F4F901EE0FFF1FE150F34FA081B181C1
:1058200054E0220F331F5A95E1F7821B930B41E09E
:1058300050E060E070E004C0440F551F661F771F02
:105840008A95D2F7DD2341F04A2B5B2B51834083AD
:105850008C2FDF91CF910895409550954A235B237B
:10586000F5CFFC01818D928D08950895815082318C
:1058700008F05AC0E82FF0E08827EE5BF34D8F4F19
:105880000C94039E622C662C542C5A2C5E2C942C67
:10589000692C6F2C732C792C7D2C812C872C8B2CD4
:1058A000942C8F2C952C992C809180008F7780934D
:1058B00080000895809180008F7DF9CF80918000D5
:1058C000877FF5CF84B58F7784BD089584B58F7DAC
:1058D000FBCF8091B0008F778093B00008958091C6
:1058E000B0008F7DF9CF809190008F7780939000EA
:1058F0000895809190008F7DF9CF80919000877FEF
:10590000F5CF8091A0008F778093A00008958091BB
:10591000A0008F7DF9CF8091A000877FF5CF809187
:1059200020018F77809320010895809120018F7D41
:10593000F9CF80912001877FF5CFCF93DF93282F78
:1059400030E0F901E559FB4A8491F901E55DF94A36
:10595000D491F901EB51FA4AC491CC23A1F0811101
:105960000E94362CEC2FF0E0EE0FFF1FE553FA4AB1
:10597000A591B491EC91ED2381E090E009F480E0F1
:10598000DF91CF91089580E090E0FACF1F93CF93FD
:10599000DF93282F30E0F901E559FB4A8491F901A2
:1059A000E55DF94AD491F901EB51FA4AC491CC234F
:1059B000A9F0162F81110E94362CEC2FF0E0EE0F8B
:1059C000FF1FEF54FA4AA591B4918FB7F894EC9168
:1059D000111108C0D095DE23DC938FBFDF91CF91EA
:1059E0001F910895DE2BF8CFCF93DF9390E0FC0159
:1059F000E55DF94A24918B519A4AFC0184918823F0
:105A0000D1F090E0880F991FFC01EF5AFB4AA59155
:105A1000B491FC01EF54FA4AC591D49161110EC0C2
:105A20009FB7F8948C91E22FE0958E238C93288178
:105A3000E223E8839FBFDF91CF9108958FB7F89459
:105A4000EC91E22BEC938FBFF6CF1F93CF93DF93B4
:105A5000182FEB0161E00E94F42C209739F460E0EC
:105A6000812FDF91CF911F910C94C62CCF3FD10590
:105A700011F461E0F5CFE12FF0E0E559FB4AE49144
:105A8000E150E23108F0B3C0F0E08827E55BF24D69
:105A90008F4F0C94039E5D2D652D6A2D742D7E2DE8
:105AA000F72D882D902D982DA22DAC2DB62DC52D1E
:105AB000CF2DF72DD92DE32DED2D84B5806884BD34
:105AC000C7BDDF91CF911F91089584B5806284BDD9
:105AD000C8BDF7CF80918000806880938000D0930C
