:100000000C9431040C9462040C9462040C94620409
:100010000C9462040C9462040C9462040C946204C8
:100020000C9462040C9462040C9462040C946204B8
:100030000C9462040C9462040C9462040C946204A8
:100040000C9462040C9462040C9462040C94620498
:100050000C9462040C9462040C9462040C94563464
:100060000C9462040C942A350C9400350C946204B0
:100070000C9462040C9462040C9462040C94620468
:100080000C9462040C9462040C9462040C94620458
:100090000C9462040C9462040C9462040C94620448
:1000A0000C9462040C9462040C9462040C94620438
:1000B0000C9462040C9462040C9462040C94620428
:1000C0000C9462040C9462040C9462040C94620418
:1000D0000C9462040C9462040C94CA340C94A03402
:1000E0000C9462040C94B9420C941F050C94743166
:1000F0000C94F51B0C94940F0C94D6270C943F2869
:100100000C94E9110C94C7120C9416330C94013022
:100110000C9415050C94DE110C9423050C94FC1D15
:100120000C941A0F0C949E120C941A430C94FA041B
:100130000C94CD420C9469190C942F060C94180F52
:100140000C941F150C94410F0C9439110C94300F22
:100150000C940C330C9482100C94FB0E0C947D1AAE
:100160000C944C420C94BC090C9458110C94A5426C
:100170000C9408050C942C0F0C948B060C940C0515
:100180000C94D9420C94AA130C94A90F0C94D0048B
:100190000C943F050C94ED240C9411100C941E1D2E
:1001A0000C94D9180C9466210C9483280C946F0934
:1001B0000C9402430C9460070C94BE2D0C9461289F
:1001C0000C942D050C9493130C94AE160C9432439E
:1001D0000C9431050C94371E0C94490F0C948842F2
:1001E0000C94C1420C94F3200C94840E0C940405DE
:1001F0000C9403310C9450280C940F050C9480132C
:100200000C94670F0C94F6420C94A40E0C94AE065A
:100210000C943A050C9427050C94E5420C94AB1110
:100220000C9419050C94AE320C94C51D0C94B611A7
:100230000C94530F0C944B100C94A4300C94D42FAA
:100240000C947E130C94BC060C94CA110C947C2F55
:100250000C9483130C94E6140C9498110C94CB1703
:100260000C943B050C94CC040C94C8110C94AD0771
:100270000C94EE180C9400050C94B60E0C94981483
:100280000C946E100C94AD100C9457280C94EB2425
:100290000C94EE1C0C944E190C94D01C0C949A1DCA
:1002A0000C940E430C94AC1B0C940A120C94373132
:1002B0000C94D41A0C94100E0C948B130C944628A6
:1002C0000C9470130C9434310C94A4360C9479284B
:1002D0000C9485090C94CC100C94FF110C94A3136E
:1002E0000C940F1C0C94F62E0C948A280C949942B2
:1002F0000C948D420C947D140C945E250C948F13F9
:100300000C9435050C94BD160C94B3120C94590939
:100310000C94FE350C94F4110C9490090C94E22783
:100320000C9474130C94B1420C9452120C9431102E
:100330000C949A060C94C4140C9426430C945E06F8
:100340000C94CB1B00407A10F35A00A0724E18098F
:100350000010A5D4E80000E87648170000E40B542C
:10036000020000CA9A3B000000E1F50500008096FB
:100370009800000040420F000000A086010000002D
:10038000102700000000E8030000000064000000E7
:1003900000000A00000000000100000000002C76B0
:1003A000D888DC674F0823DFC1DFAE59E1B1B796CB
:1003B000E5E3E453C63AE651997696E8E6C2842628
:1003C000EB898C9B62ED407C6FFCEFBC9C9F40F204
:1003D000BAA56FA5F490055A2AF75C936B6CF96780
:1003E0006DC11BFCE0E40D47FEF520E6B500D0ED45
:1003F000902E0300943577050080841E08000020AD
:100400004E0A000000C80C333333330F986E12834A
:100410001141EF8D2114893BE65516CFFEE6DB181E
:10042000D1844B381BF77C1D901DA4BBE4242032E3
:1004300084725E228100C9F124ECA1E53D2700C051
:10044000C101C30302C2C60607C705C5C404CC0C5C
:100450000DCD0FCFCE0E0ACACB0BC90908C8D818CC
:1004600019D91BDBDA1A1EDEDF1FDD1D1CDC14D4DC
:10047000D515D71716D6D21213D311D1D010F0300C
:1004800031F133F3F23236F6F737F53534F43CFC1C
:10049000FD3DFF3F3EFEFA3A3BFB39F9F83828E8CC
:1004A000E929EB2B2AEAEE2E2FEF2DEDEC2CE4249C
:1004B00025E527E7E62622E2E323E12120E0A0600C
:1004C00061A163A3A26266A6A767A56564A46CACDC
:1004D000AD6DAF6F6EAEAA6A6BAB69A9A86878B84C
:1004E000B979BB7B7ABABE7E7FBF7DBDBC7CB4745C
:1004F00075B577B7B67672B2B373B17170B050900C
:1005000091519353529296565797559594549C5C9B
:100510005D9D5F9F9E5E5A9A9B5B9959589888484B
:1005200049894B8B8A4A4E8E8F4F8D4D4C8C44841B
:10053000854587474686824243834181804000C18A
:10054000814001C0804101C0804100C1814001C0A3
:10055000804100C1814000C1814001C0804101C093
:10056000804100C1814000C1814001C0804100C183
:10057000814001C0804101C0804100C1814001C073
:10058000804100C1814000C1814001C0804100C163
:10059000814001C0804101C0804100C1814000C153
:1005A000814001C0804101C0804100C1814001C043
:1005B000804100C1814000C1814001C0804101C033
:1005C000804100C1814000C1814001C0804100C123
:1005D000814001C0804101C0804100C1814000C113
:1005E000814001C0804101C0804100C1814001C003
:1005F000804100C1814000C1814001C0804100C1F3
:10060000814001C0804101C0804100C1814001C0E2
:10061000804100C1814000C1814001C0804101C0D2
:10062000804100C1814000C1814001C0804100C1C2
:10063000814001C0804101C0804100C18140000073
:100640002100240027002A002D0030003300010182
:100650000000040107010A01000022002500280013
:100660002B002E00310034000201000005010801BA
:100670000B0100000A0B02090C0D0E080703040110
:10068000000000000000000000000000000000006A
:100690000000000000000000000000000000121137
:1006A000100000000000000000000000000000003A
:1006B0000000000000000000005EBCE2613FDD833E
:1006C000C29C7E20A3FD1F419DC3217FFCA2401E32
:1006D0005F01E3BD3E6082DC237D9FC1421CFEA022
:1006E000E1BF5D0380DE3C62BEE0025CDF81633D12
:1006F0007C22C09E1D43A1FF4618FAA427799BC502
:1007000084DA3866E5BB5907DB856739BAE40658F1
:100710001947A5FB7826C49A653BD987045AB8E6E1
:10072000A7F91B45C6987A24F8A6441A99C7257BD1
:100730003A6486D85B05E7B98CD2306EEDB3510FC1
:100740004E10F2AC2F7193CD114FADF3702ECC92B1
:10075000D38D6F31B2EC0E50AFF1134DCE90722CA1
:100760006D33D18F0C52B0EE326C8ED0530DEFB191
:10077000F0AE4C1291CF2D73CA947628ABF5174981
:100780000856B4EA6937D58B5709EBB536688AD471
:1007900095CB2977F4AA4816E9B7550B88D6346A61
:1007A0002B7597C94A14F6A8742AC896154BA9F751
:1007B000B6E80A54D7896B350000200023002600D4
:1007C00029002C002F003200000100000301060167
:1007D00009010505050507050808080802020202C7
:1007E0000A0A0808040404040101010101010101CD
:1007F0000303030303030303040707070C0C0C0C98
:100800000C0C0C0C02020202060606060606060680
:100810000B0B0B0B0B0B0B0B01021020200808100D
:100820002040102040800201020108040201010260
:100830000408102040808040201008040201800439
:100840000201804020100804020108040201010294
:100850000408102040800102040810204080A436C3
:10086000FE3511241FBECFEFD1E2DEBFCDBF00E0C9
:100870000CBF16E0A0E0B2E0E0EAFAEA00E00BBF4D
:1008800002C007900D92A63BB107D9F72EE0A6EB68
:10089000B6E001C01D92AD32B207E1F714E0C0E34B
:1008A000D4E000E006C021970109802FFE010E94DC
:1008B0000850CF32D10780E00807A9F70E940A3A12
:1008C0000C943E550C9400008CBD9DBD089520E312
:1008D000FC0120833296862F82958F706F706A306C
:1008E00030F4605D6293682F8111F5CF0895695CE3
:1008F000F9CF20919C0D30919D0D821793074CF0FC
:1009000040919A0D50919B0D420F531F84179507EC
:100910004CF084EE9BE29093220E8093210E90E0A7
:1009200080E00895821B930B880F991F2091A40DDE
:100930003091A50D820F931FFC017183608381E0CC
:1009400090E0089520919C0D30919D0D82179307A2
:100950004CF040919A0D50919B0D420F531F8417FC
:10096000950754F084EE9BE29093220E8093210E23
:100970006FEF7FEFCB010895821B930B880F991FB8
:100980002091A40D3091A50D820F931FFC01608171
:10099000718190E080E00895FC01818D928D089531
:1009A00008958230910538F0880F991F880F991F9C
:1009B00005970197F1F708958150823108F05AC0E8
:1009C000E82FF0E08827E851FB4F8F4F0C94085038
:1009D00008050C05FA04000504053A050F05150580
:1009E00019051F05230527052D0531053A05350590
:1009F0003B053F05809180008F77809380000895AC
:100A0000809180008F7DF9CF80918000877FF5CF26
:100A100084B58F7784BD089584B58F7DFBCF809199
:100A2000B0008F778093B00008958091B0008F7DE3
:100A3000F9CF809190008F778093900008958091F6
:100A400090008F7DF9CF80919000877FF5CF8091C6
:100A5000A0008F778093A00008958091A0008F7DE3
:100A6000F9CF8091A000877FF5CF809120018F770B
:100A7000809320010895809120018F7DF9CF80918E
:100A80002001877FF5CFCF93DF93282F30E0F90146
:100A9000EE58F94F8491F901E85EF74FD491F901CE
:100AA000EE52F84FC491CC23A1F081110E94DC04D6
:100AB000EC2FF0E0EE0FFF1FE854F84FA591B49132
:100AC000EC91ED2381E090E009F480E0DF91CF919B
:100AD000089580E090E0FACF1F93CF93DF93282F03
:100AE00030E0F901EE58F94F8491F901E85EF74FD3
:100AF000D491F901EE52F84FC491CC23A9F0162FEE
:100B000081110E94DC04EC2FF0E0EE0FFF1FE85A89
:100B1000F94FA591B4918FB7F894EC91111108C0D9
:100B2000D095DE23DC938FBFDF91CF911F91089585
:100B3000DE2BF8CFCF93DF9390E0FC01E85EF74F18
:100B400024918E52984FFC0184918823D1F090E03B
:100B5000880F991FFC01E25CF94FA591B491FC014B
:100B6000E85AF94FC591D49161110EC09FB7F8941E
:100B70008C91E22FE0958E238C932881E223E883E9
:100B80009FBFDF91CF9108958FB7F894EC91E22B3E
:100B9000EC938FBFF6CF3FB7F89480910509909101
:100BA0000609A0910709B091080926B5A89B05C0C0
:100BB0002F3F19F00196A11DB11D3FBFBA2FA92FDC
:100BC000982F8827BC01CD01620F711D811D911DD9
:100BD00042E0660F771F881F991F4A95D1F7089545
:100BE0008F929F92AF92BF92CF92DF92EF92FF923D
:100BF0006B017C010E94CB054B015C01C114D10447
:100C0000E104F104B9F00E94CB05681979098A0959
:100C10009B09683E73408105910580F321E0C21A6B
:100C2000D108E108F10888EE880E83E0981EA11C27
:100C3000B11CE4CFFF90EF90DF90CF90BF90AF90CA
:100C40009F908F9008952FB7F8946091010970914B
:100C5000020980910309909104092FBF0895089516
:100C60000F931F93CF93DF93EC010E9423066887B5
:100C700079878A879B87E881F9810284F385E02D53
:100C8000CE01199597FF15C00E9423060885198586
:100C90002A853B85601B710B820B930B0C811D8198
:100CA0002E813F81601771078207930720F38FEF32
:100CB0009FEFDF91CF911F910F910895AF92BF9257
:100CC000CF92DF92EF92FF920F931F93CF93DF9318
:100CD0006C017B018B01040F151FEB015E01AE1847
:100CE000BF08C017D10759F06991D601ED91FC9169
:100CF0000190F081E02DC6011995892B79F7C50186
:100D0000DF91CF911F910F91FF90EF90DF90CF90E7
:100D1000BF90AF900895FC01538D448D252F30E096
:100D2000842F90E0821B930B541710F0CF960895F8
:100D300001970895FC01918D828D981761F0A28D25
:100D4000AE0FBF2FB11D5D968C91928D9F5F9F73EB
:100D5000928F90E008958FEF9FEF0895FC01918DA1
:100D6000828D981731F0828DE80FF11D858D90E00E
:100D700008958FEF9FEF0895FC01918D228D892FAB
:100D800090E0805C9F4F821B91098F739927089593
:100D90008BEB99E00E94BC0621E0892B09F420E04E
:100DA000822F089580EA9AE00E94BC0621E0892BF8
:100DB00009F420E0822F0895CF92DF92EF92FF9204
:100DC0001F93CF93DF93EC016A017B01122FE88917
:100DD000F98982E08083C11481EED806E104F10430
:100DE000A1F060E079E08DE390E0A70196010E9418
:100DF000364F21503109410951095695479537958C
:100E00002795211580E1380798F0E889F989108243
:100E100060E874E88EE190E0A70196010E94364FE9
:100E20002150310941095109569547953795279524
:100E3000EC85FD853083EE85FF852083188EEC8957
:100E4000FD891083EA89FB89808180618083EA893A
:100E5000FB89808188608083EA89FB898081806842
:100E60008083EA89FB8980818F7D8083DF91CF91A8
:100E70001F91FF90EF90DF90CF900895FC01A48D1B
:100E8000A80FB92FB11DA35ABF4F2C91848D90E0AC
:100E900001968F739927848FA689B7892C93A0898F
:100EA000B1898C91837080648C93938D848D981319
:100EB00006C00288F389E02D80818F7D80830895AC
:100EC000EF92FF920F931F93CF93DF93EC0181E09A
:100ED000888F9B8D8C8D98131AC0E889F989808141
:100EE00085FF15C09FB7F894EE89FF896083E88974
:100EF000F98980818370806480839FBF81E090E066
:100F0000DF91CF911F910F91FF90EF900895F62EF2
:100F10000B8D10E00F5F1F4F0F731127E02E8C8D8C
:100F20008E110CC00FB607FCFACFE889F9898081D1
:100F300085FFF5CFCE010E943E07F1CFEB8DEC0F80
:100F4000FD2FF11DE35AFF4FF0829FB7F8940B8FEE
:100F5000EA89FB8980818062CFCFCF93DF93EC0158
:100F6000888D8823B9F0AA89BB89E889F9898C9191
:100F700085FD03C0808186FD0DC00FB607FCF7CF4D
:100F80008C9185FFF2CF808185FFEDCFCE010E944D
:100F90003E07E9CFDF91CF91089580E090E0892B63
:100FA00029F00E94D20681110E94000080E090E0AA
:100FB000892B49F080E090E0892B29F00E94000005
:100FC00081110E94000080E090E0892B49F080E0D0
:100FD00090E0892B29F00E94000081110E940000FE
:100FE00080E090E0892B29F00E94C80681110C94C2
:100FF00000000895FC0120812EBD9B012150310984
:1010000041F051810DB407FEFDCF4EB55EBD419359
:10101000F5CF61507109860F971F0DB407FEFDCF04
:101020002EB5FC0120830895E0911C07F0911D0767
:10103000808190911B07892B80830895E0911C0784
:10104000F0911D07908180911B07809589238083F3
:1010500008958EBD00000DB407FEFDCF8EB5089536
:10106000AF92BF92CF92DF92EF92FF920F931F93B6
:10107000CF93DF9300D000D01F921F92CDB7DEB781
:101080008C017B016A01809151098333E1F458019D
:10109000A40EB51EA016B10609F46FC00E941E086A
:1010A00080EF0E942908812F0E942908802F0E942A
:1010B00029080F5F1F4FF70181917F010E942908C6
:1010C0000E941408E7CF5B01A40EB51E8433C1F45F
:1010D0000E941E0819830A838D2D80688B83CC8221
:1010E00064E070E0CE0101960E94FA07AE14BF04DE
:1010F00009F441C0F70181917F010E942908F6CFD0
:101100000E941E080F3F110509F028F419820A8376
:1011100084E08B830CC017FD17C019820A8333E06B
:10112000169507953A95E1F7007E0C600B8386E0F3
:10113000C816D104A0F5F701DE011496EA15FB05E7
:1011400099F081918D93FACFC80126E09695879505
:101150002A95E1F7807E19830A830115104C10F45B
:101160008461D7CF8C61D5CFB6016D5F7F4FCE0143
:1011700001960E94FA070E941408C60128960FB62D
:10118000F894DEBF0FBECDBFDF91CF911F910F91BD
:10119000FF90EF90DF90CF90BF90AF90089563E005
:1011A00070E0CE0101960E94FA07F70181917F015C
:1011B0000E942908AE14BF04C1F7DDCFCF93DF939F
:1011C0001F92CDB7DEB7898341E050E0BE016F5F6B
:1011D0007F4F90E080E00E9430080F90DF91CF9128
:1011E000089590E020915109233339F40C96982FFB
:1011F000990F990F990F80E008954896F8CFDA017A
:10120000E0911F07F0E0FE2FEE27E60FF71F90E0BA
:10121000982F8827A901BD018E0F9F1F0C943008BD
:10122000CF93DF931F921F92CDB7DEB779836A8386
:1012300022E030E0AE014F5F5F4F60E170E00E945E
:10124000FF080F900F90DF91CF910895CF93DF9318
:101250001F921F92CDB7DEB779836A8322E030E018
:10126000AE014F5F5F4F64E070E00E94FF080F9097
:101270000F90DF91CF910895CF93DF931F92CDB759
:10128000DEB720911F0730E0322F2227260F371FAD
:1012900090E0982F8827498341E050E0BE016F5FBE
:1012A0007F4F820F931F0E9430080F90DF91CF91E4
:1012B0000895CF93DF931F92CDB7DEB76983DC012A
:1012C000ED91FC910280F381E02D41E050E0BE0100
:1012D0006F5F7F4F19950F90DF91CF910895CF9356
:1012E000DF931F92CDB7DEB76983DC01ED91FC91EE
:1012F0000280F381E02D41E050E0BE016F5F7F4F3F
:1013000019950F90DF91CF910895FC019485FB0111
:101310008485981303C081E0983008F080E0089538
:10132000CF93DF931F92CDB7DEB76983DC01ED91D8
:10133000FC910280F381E02D41E050E0BE016F5F3F
:101340007F4F19950F90DF91CF91089544E050E0C1
:10135000BC018FE090E00C94300844E050E0BC0108
:1013600085E090E00C94300844E050E0BC0181E05E
:1013700090E00C9430080895FF920F931F93CF9341
:10138000DF93EB01FC01178A168A2A81211109C01B
:101390002B81211106C02C81211103C02D81222314
:1013A00001F141155105E9F08A01FC01F08C80E55D
:1013B00091E00E946404AE014E5F5F4F24E030E094
:1013C0006CE070E08F2D0E94FF08B8018F2D0E9405
:1013D000100981E090E0DF91CF911F910F91FF9074
:1013E000089580E0F7CFDC012C911196ED91FC91EE
:1013F000F8948181822B81839281322F30959323BF
:10140000928387E090E00197F1F7818183238183C4
:1014100083E290E00197F1F790817894EFECF0E0AF
:101420003197F1F7922381E009F480E00895FC01FF
:1014300090810180F281E02D292F209560FF14C05A
:10144000F8948281822382838181892B8183A3E224
:10145000B0E01197F1F78281982B9283789487ED11
:1014600090E00197F1F70895F894828182238283B6
:101470008181892B8183AFEFB0E01197F1F78281F1
:10148000982B928378948FE090E0EBCFDF92EF92ED
:10149000FF920F931F93CF93DF93EC01D62EE42E90
:1014A00008E010E0FF24F39461E08D2D8F2109F412
:1014B00060E0CE010E94170AFF0C01501109A1F74C
:1014C000E11010C0F894E981FA81918188818095BA
:1014D00089238183E981FA8192818881809589239A
:1014E00082837894DF91CF911F910F91FF90EF90BD
:1014F000DF900895EF92FF920F931F93CF93DF93A6
:101500008C017B0140E065E50E94460AE70188E026
:10151000E80EF11C699140E0C8010E94460ACE1510
:10152000DF05C1F7DF91CF911F910F91FF90EF90F1
:101530000895FC0190810180F281E02DF894818171
:10154000292F20958223818378943DE743E050E062
:10155000315029F1DA011197F1F780818923C1F324
:10156000F8948281822382838181892B818378947C
:10157000ABECB7E01197F1F7F89481818223818376
:10158000ABE3B1E01197F1F78081982381E009F096
:1015900080E07894EBE8F6E03197F1F7089580E089
:1015A00008956F927F928F929F92AF92BF92CF9247
:1015B000DF92EF92FF920F931F93CF93DF93EC0193
:1015C00070935F0B60935E0B80915C0B90915D0B51
:1015D0000E94990A60915E0B70915F0B80915C0B89
:1015E00090915D0B0E947A0A40E068EB80915C0B61
:1015F00090915D0B0E94460A40E060E080915C0B98
:1016000090915D0B0E94460A80915C0B90915D0B5E
:101610000E94990A60915E0B70915F0B80915C0B48
:1016200090915D0B0E947A0A40E06EEB80915C0B1A
:1016300090915D0B0E94460A40E060E080915C0B57
:1016400090915D0B0E94460A8E016E0189E0C80EE2
:10165000D11C7E01A0905C0BB0905D0B88E0882EC1
:10166000912C712C66246394C5010E94F3098111A9
:101670007628660CA1E08A1A9108B1F7F7017192F9
:101680007F01EC15FD0531F789E090E0815049F0CC
:10169000D801ED918D01E927F0E0E854F94F9491DC
:1016A000F5CF81E02885291380E0DF91CF911F914C
:1016B0000F91FF90EF90DF90CF90BF90AF909F90F1
:1016C0008F907F906F900895CF92DF92EF92FF926C
:1016D0000F931F93CF93DF9300D000D000D0CDB7EE
:1016E000DEB78C01E62E50935F0B40935E0BBA0180
:1016F000CE0101960E94D10AF82E882309F499C0E0
:1017000089810130110509F0A4C088608983809126
:101710005C0B90915D0B0E94990A60915E0B709139
:101720005F0B80915C0B90915D0B0E947A0A40E008
:101730006EE480915C0B90915D0B0E94460A40E044
:1017400060E080915C0B90915D0B0E94460A8E01D7
:101750000F5F1F4F6E0189E0C80ED11CF801619127
:101760008F0140E080915C0B90915D0B0E94460AD6
:101770000C151D0599F780915C0B90915D0B0E94F3
:10178000990A60915E0B70915F0B80915C0B909158
:101790005D0B0E947A0A40E068E480915C0B9091B6
:1017A0005D0B0E94460A40E060E080915C0B9091E6
:1017B0005D0B0E94460A80915C0B90915D0B0E942C
:1017C000990A60915E0B70915F0B80915C0B909118
:1017D0005D0B0E947A0AEE20F1F040E064E4809113
:1017E0005C0B90915D0B0E94460A6AE070E080E01D
:1017F00090E00E94F00580915C0B90915D0B0E943F
:10180000990A60915E0B70915F0B80915C0B9091D7
:101810005D0B0E947A0A40E064EB80915C0B909132
:101820005D0B0E94460A68E070E080E090E00E9454
:10183000F0058F2D29960FB6F894DEBF0FBECDBFF1
:10184000DF91CF911F910F91FF90EF90DF90CF909C
:101850000895877F5BCF009741F0DC015896ED91AA
:10186000FC9104A0F5A1E02D19940895009741F092
:10187000DC015896ED91FC91068CF78DE02D1994C2
:101880000895009741F0DC015896ED91FC91048C8D
:10189000F58DE02D199486E190E09093220E8093CF
:1018A000210E8FEF9FEF0895009741F0DC015896CD
:1018B000ED91FC910084F185E02D199486E190E092
:1018C0009093220E8093210E8FEF9FEF0895009743
:1018D00041F0DC015896ED91FC9100A0F1A1E02DC2
:1018E000199486E190E09093220E8093210E8FEF61
:1018F0009FEF0895CF93DF93EC01288539854A85C2
:101900005B85A8EEB3E00E94234F0E94F0058C8512
:101910009D85DF91CF910C94D1042F923F924F92ED
:101920005F926F927F928F929F92AF92BF92CF926F
:10193000DF92EF92FF920F931F93CF93DF9300D02C
:1019400000D000D01F92CDB7DEB77C013B012A0149
:10195000DC015896ED91FC915997028113810F5F3C
:101960001F4F312C212C452BB1F018968D919D9154
:101970000D90BC91A02D89839A83AB83BC83F70122
:1019800084859585A685B7858D839E83AF83B8872B
:10199000CE0101961C01D12CC12C912C812CD70198
:1019A0005896ED91FC910115110549F4008CF18DCB
:1019B000E02DA401B301C70119955C0129C002A063
:1019C000F3A1E02D9801A101BE01675F7F4FC70120
:1019D00019955C01D7019FEFA916B906F1F5169686
:1019E0008C9181FD04C0AA24AA94BA2C11C0009144
:1019F000210E1091220E0437110521F5C7010E9416
:101A00007A0CC7010E94670C1093220E0093210EDE
:101A1000C5012A960FB6F894DEBF0FBECDBFDF9189
:101A2000CF911F910F91FF90EF90DF90CF90BF90DB
:101A3000AF909F908F907F906F905F904F903F906E
:101A40002F900895023FBDE21B07F1F6C7010E94E7
:101A5000360CC7010E94410CD7CF5896ED91FC91EE
:101A60000688F789E02DA801B301680D791DC7012B
:101A700019956115710509F582EF9DE29093220E8B
:101A80008093210EF701868181FFADCF0091210E59
:101A90001091220E023FFDE21F0721F00F361105C3
:101AA00009F0A1CFC7010E94360CC7010E94410C6A
:101AB0001093220E0093210E96CF6F3F760711F3FD
:101AC000860E971E061B170B09F099C0D701589672
:101AD000ED91FC91C114D10441F0CA94CD2809F4D0
:101AE00057C082E0C82ED12C5ACFA281B381A60D57
:101AF000B71D8C9141145104B9F490E087309105E1
:101B0000D4F09C012F5031092230310508F47CC0FB
:101B10008631910509F47EC04797D1F5CC24C39452
:101B2000D12C09E010E015C0813158F48F3018F441
:101B30008550823048F4CC24C394D12C04E010E0CA
:101B400008C0863109F466C0CC24C394D12C01E0CE
:101B500010E0F701408951896289738984899589E8
:101B6000A689B789411551056105710529F40097CA
:101B7000A105B10509F413CF49835A836B837C8394
:101B80008D839E83AF83B887CE0101961C0107CF5A
:101B9000A281B381A60DB71D8C914114510401F5AA
:101BA0008F3020F08131A8F08731B9F084819581A0
:101BB000080F191F9401200F311F8681978182170A
:101BC0009307D4F48FEE9BE29093220E8093210E24
:101BD0000ACF15960C9110E0E9CF19960C91FBCF26
:101BE00090E0853091052CF08131910511F04797F7
:101BF000E9F611960C91EFCF52E0C52ED12C1016BC
:101C000011060CF4A6CFCBCECC24C394D12C05E086
:101C100010E09FCFCC24C394D12C06E010E099CFE4
:101C20006F927F928F929F92AF92BF92CF92DF92EC
:101C3000EF92FF920F931F93CF93DF93FA018901E5
:101C4000DC015A966D907C90C12CD12C7601309796
:101C5000C1F02081318142815381A8EEB3E00E941E
:101C6000234F6B017C01648175818681978128EE09
:101C700033E040E050E00E94364FC20ED31EE41E17
:101C8000F51E0E9423064B015C01F30182859385BA
:101C9000DC01ED91FC910084F185E02D1995EC01BA
:101CA00080179107BCF40E942306681979098A09F4
:101CB0009B096C157D058E059F0560F4F3018285F7
:101CC0009385DC01ED91FC910688F789E02D19954B
:101CD0008111DBCF209741F484E790E09093220EAE
:101CE0008093210ECFEFDFEFCE01DF91CF911F91D7
:101CF0000F91FF90EF90DF90CF90BF90AF909F90AB
:101D00008F907F906F900895CF93DF93DC015A9668
:101D1000CD91DC918A859B85DC01ED91FC9100845D
:101D2000F185E02D1995892B51F08A859B85DC0181
:101D3000ED91FC910284F385E02D1995EBCF90E0B5
:101D400080E0DF91CF910895DC015A96ED91FC91EE
:101D5000309759F082859385009739F0DC01ED9139
:101D6000FC910488F589E02D19940895EF92FF9273
:101D70000F931F93CF93DF9300D000D0CDB7DEB782
:101D8000FC01A28DB38D1A968D919C911B97FC013D
:101D900020813181F901E684F78412964D915C919E
:101DA00013972CE533E03A83298316960D911D9104
:101DB0002D913C9119970B831C832D833E83BE018B
:101DC0006F5F7F4FF701199521E030E0892B11F00B
:101DD00030E020E088279927821B930B26960FB6C8
:101DE000F894DEBF0FBECDBFDF91CF911F910F9151
:101DF000FF90EF900895FA01DB019C918081981388
:101E000005C011969C918181981749F08FEE9BE255
:101E10009093220E8093210E8FEF9FEF0895828181
:101E2000882319F083818111F1CF90E080E008953B
:101E3000CA010895DC015A96ED91FC918285938543
:101E4000DC01ED91FC910288F389E02D1995BC012C
:101E5000990F880B990B089550E040E00C948D0C7D
:101E6000DC015A96ED91FC9182859385DC01ED9120
:101E7000FC910280F381E02D1995BC0190E080E097
:101E800008959B0126503109FC0134832583CB0141
:101E90000895FC01208130E0322F22278181820FBA
:101EA000932F911D0895DC01FB0115968C911597D8
:101EB000808314968C9114978183128213828C9163
:101EC000868312968C91878388E090E008950F9323
:101ED0001F93CF93DF93F801EC01AA8DBB8DCD91B9
:101EE000DC911197CF3FDC07D9F021961196DC9356
:101EF000CE9311967C91119770837C91718312829D
:101F00001382DC018C9186836783508741873287F7
:101F100023878CE090E0DF91CF911F910F9108957E
:101F200011961C921E92E5CF683F710530F4FC01BA
:101F30007183608390E080E008956F3F7105B9F38D
:101F400086E190E09093220E8093210E8FEF9FEF19
:101F500008956F927F928F929F92AF92BF92CF928D
:101F6000DF92EF92FF920F931F93CF93DF93FA01CB
:101F70008901DC015A966D907C90C12CD12C7601A0
:101F80003097C1F02081318142815381A8EEB3E0C6
:101F90000E94234F6B017C0164817581868197814A
:101FA00028EE33E040E050E00E94364FC20ED31ED0
:101FB000E41EF51E0E9423064B015C01F30186819D
:101FC0009781DC01ED91FC910084F185E02D19955C
:101FD000EC01801791075CF40E94230668197909C7
:101FE0008A099B096C157D058E059F0538F320979E
:101FF00041F484E790E09093220E8093210ECFEF7E
:10200000DFEFCE01DF91CF911F910F91FF90EF9005
:10201000DF90CF90BF90AF909F908F907F906F9008
:102020000895CF93DF93DC015A96CD91DC918E8198
:102030009F81DC01ED91FC910084F185E02D1995E3
:10204000892B51F08E819F81DC01ED91FC910284FE
:10205000F385E02D1995EBCF90E080E0DF91CF91F3
:102060000895CF93DF93DC015A96CD91DC91EE81F8
:10207000FF818289938997FD03C061E00E946C050E
:102080008E819F81DC01ED91FC910688F789E02D1E
:10209000DF91CF911994CF93DF93DC015A96CD91C4
:1020A000DC918E819F812C813D81488159816A819B
:1020B0007B81DC01ED91FC910088F189E02D19957F
:1020C000EE81FF818289938997FD03C060E00E94C1
:1020D0006C0590E080E0DF91CF910895FB01808155
:1020E000FA019081891759F0882349F083EF9BE228
:1020F0009093220E8093210E8FEF9FEF089590E032
:1021000080E00895CF92DF92EF92FF920F931F939A
:10211000CF93DF936A01DC015A96ED91FC91E68042
:10212000F7808B01D0E0C0E0CC15DD0550F4C7018D
:102130000E94300697FD05C0F80181938F0121961A
:10214000F3CFBE0190E080E0DF91CF911F910F911E
:10215000FF90EF90DF90CF900895CF93DF93FC0135
:10216000C28DD38D28853985232B59F041E050E06D
:102170000E948D0C1986188690E080E0DF91CF9147
:10218000089550E040E00E948D0C0097B9F721E0DF
:1021900030E039872887F2CFCF92DF92EF92FF921B
:1021A0000F931F93CF93DF937B016A01DC015A9653
:1021B000CD91DC91EE81FF818289938997FD03C0E7
:1021C00061E00E946C050E811F81F8018089918970
:1021D00097FD0BC061E00E946C05D80154968D916B
:1021E0009C91009711F00E94D10481E0F801808F4A
:1021F0008E819F81DC01ED91FC910280F381E02DC5
:10220000A601B70119956C01F12CE12C0E811F81FB
:10221000F80184859585DC01ED91FC910680F781BC
:10222000E02D1995F8018089918997FD0CC0868968
:102230009789009711F00E94D10460E0D801509670
:102240008C910E946C05F801108EEE81FF818289CD
:10225000938997FD03C060E00E946C05C701B60139
:10226000DF91CF911F910F91FF90EF90DF90CF9072
:102270000895FB018081918102979183808390E092
:1022800080E00895DC01680F791F8FEF9FEFA6179C
:10229000B70769F02D91292730E0F901E25CFA4F88
:1022A00094919827F901E25CFB4F8491F0CF089557
:1022B000EF92FF920F931F93CF93DF937C01EB017B
:1022C0008A01888190E0F701208131812817390740
:1022D00011F0892B51F5B80162507109CE010E94AD
:1022E0004211C00FD11FFE01329720812197388102
:1022F0002327322723278217930779F0F701868156
:1023000082FF03C0C7010E9411108EEE9BE29093E2
:10231000220E8093210E0FEF1FEFC801DF91CF91A6
:102320001F910F91FF90EF90089510E000E0F5CF1E
:102330000F931F93CF93DF93EC018B010E94421107
:10234000C00FD11F98838983C8010296DF91CF9176
:102350001F910F910895FC012081FB012083FC0156
:102360008281FB01818382E090E00895683F7105DE
:1023700030F4FC017183608390E080E0089586E191
:1023800090E09093220E8093210E8FEF9FEF08959F
:1023900081E00895FC01808D882349F0848595852E
:1023A000DC01ED91FC910190F081E02D199481E028
:1023B00090E09383828390E080E00895DC011C9696
:1023C0008D919C91DC01ED91FC910680F781E02DCF
:1023D0001994DC011C968D919C91DC01ED91FC918E
:1023E0000284F385E02D1994DC011C968D919C915B
:1023F000DC01ED91FC910484F585E02D1994DC015C
:102400001C968D919C91DC01ED91FC910084F185ED
:10241000E02D19940F931F93CF93DF938C01FC0150
:10242000C485D585E881F9810680F781E02DCE014C
:102430001995EA89FB8980818F7E8083EA89FB89EF
:102440008081877F8083EA89FB8980818F77808381
:10245000EA89FB8980818F7D80838A8D898FF8014D
:102460008089918997FD08C060E00E946C0560E05A
:10247000F80180890E949A05F8018289938997FD65
:102480000CC060E00E946C0560E0F8018289DF9179
:10249000CF911F910F910C949A05DF91CF911F91CD
:1024A0000F9108958F929F92AF92BF92DF92EF9219
:1024B000FF920F931F93CF93DF93EC014A015B01CF
:1024C000D22E898E9A8EAB8EBC8E2D8F3E8F8C89AC
:1024D0009D89009709F08C010C8B1D8B8E899F893B
:1024E000009709F07C01EE8AFF8A8889998997FD17
:1024F00007C061E00E949A0560E088890E946C052F
:102500008A899B8997FD07C061E00E949A0561E076
:102510008A890E946C05188E2D2DB501A4018C8529
:102520009D85DF91CF911F910F91FF90EF90DF90EC
:10253000BF90AF909F908F900C94DC06EF92FF922B
:102540000F931F93DC01ED91FC910488F589E02D38
:10255000A2E3EA2EF12C02E310E019951F910F91EE
:10256000FF90EF900895EF92FF920F931F93DC017D
:10257000ED91FC910488F589E02D7801890126E030
:1025800030E019951F910F91FF90EF900895EF9211
:10259000FF920F931F93DC01ED91FC910488F58964
:1025A000E02D22E3E22EF12C02E310E026E030E001
:1025B00019951F910F91FF90EF900895AF92BF92E0
:1025C000CF92DF92EF92FF920F931F93CF93DF93FF
:1025D000CDB7DEB76A970FB6F894DEBF0FBECDBF9A
:1025E000CD86DE86EF86F88A098B1A8B2B8B3C8B87
:1025F0004D8B5E8B6F8B788F898F9A8FCE010D9666
:102600000E94990AB501CE010D960E947A0A40E017
:102610006EEBCE010D960E94460A8E010F5F1F4F92
:102620005E018AE0A80EB11C88E0C82ED12CF12CE6
:10263000EE24E394CE010D960E94F3098111FE2849
:10264000EE0CE1E0CE1AD108A9F7F801F1928F0162
:10265000EA15FB0549F769817A81072E000C880B82
:10266000990B0E94E44D20E030E040E85DE30E94D9
:10267000434E6A960FB6F894DEBF0FBECDBFDF9112
:10268000CF911F910F91FF90EF90DF90CF90BF906F
:10269000AF9008950F931F93CF93DF93EC010E94A7
:1026A0002306088119812A813B81601B710B820BF3
:1026B000930B0C811D812E813F816017710782076A
:1026C000930760F00E942306688379838A839B8343
:1026D00081E0DF91CF911F910F91089580E0F9CFB4
:1026E000FC01768765870895DC01ED91FC91068CED
:1026F000F78DE02D199591E089270895862F08958B
:1027000081E08627089521E0FC018485883008F067
:1027100020E0822F0895FC01848595850895FC01B1
:102720008489958908952CE533E0FC013183208369
:10273000FB014089518962897389FC01428353837B
:10274000648375830895DC01ED91FC91048CF58D13
:10275000E02D199490E080E00895AF92BF92CF925F
:10276000DF92EF92FF920F931F93CF93DF9300D0EE
:102770001F92CDB7DEB78C016B017A0180915109B0
:102780008333E9F45B016801C40ED51EC016D1067F
:10279000A9F10E941E088FE00E942908812F0E9443
:1027A0002908802F0E9429080F5F1F4F80E00E9498
:1027B0002908F50181935F010E941408E7CF843353
:1027C00069F50E941E0819830A838F2D8F778B83EA
:1027D000EC8264E070E0CE0101960E94FA07A70146
:1027E00070E060E0C6010E944A52E114F10421F059
:1027F000B701C6010E94FA070E941408C7010F9092
:102800000F900F900F90DF91CF911F910F91FF903C
:10281000EF90DF90CF90BF90AF9008950E941E0878
:102820000F3F110509F030F419820A831B8263E01F
:1028300070E0D1CF17FD0BC019820A8333E01695E3
:1028400007953A95E1F7007E08600B83F0CFC80149
:1028500026E0969587952A95E1F7807E19830A836D
:102860000115104C18F480618B83E1CF8861FCCF97
:10287000CF93DF931F92CDB7DEB720911F0730E0D3
:10288000322F2227260F371F90E0982F882741E00C
:1028900050E0BE016F5F7F4F820F931F0E94AD1308
:1028A00089810F90DF91CF910895CF93C82F462F44
:1028B00061E070E00E943C0961E070E08C2F0E94B2
:1028C00038148111F9CFCF910895CF93C82F80E5A7
:1028D00091E00E94640468E070E08C2FCF910C942A
:1028E0005514CF93C82F80E591E00E94640460E105
:1028F00070E08C2FCF910C945514CF93DF93EC01A3
:10290000888D883020F40E94711488E0888FDF91D0
:10291000CF91089563E070E00C943814CF93C82FE2
:1029200080E591E00E9464048C2FCF910C948A146E
:10293000EF92FF920F931F93CF93DF937C018091CF
:102940005109D4E0833309F0D8E001E419E0C0E094
:10295000F801219131918F01F70184819581281728
:10296000390729F0CF5FDC13F3CF80E006C08C2F4E
:102970000E948E148431B1F781E0DF91CF911F91D5
:102980000F91FF90EF900895CF93DF93EC018C852A
:102990008830D0F40E948E14843189F0882379F035
:1029A000883169F021E08C3159F4E881F9810084A3
:1029B000F185E02DCE01199521E0892B09F420E065
:1029C000822FDF91CF91089580E0FBCFCF92DF92ED
:1029D000EF92FF92CF93DF93EC018C85883068F4FF
:1029E0000E9465140E9423066B017C018C850E9465
:1029F0008E14811109C088E08C87DF91CF91FF9000
:102A0000EF90DF90CF90089561E070E080E090E07B
:102A10000E94F0050E942306AB01BC014C195D0920
:102A20006E097F098D859E85B0E0A0E048175907A3
:102A30006A077B07D8F28C850E947114DCCFCF9394
:102A4000FC01C08D80E591E00E94640460E270E0CA
:102A50008C2F0E94551462E070E08C2F0E94381475
:102A600084FD16C062E070E08C2F0E94381483FF52
:102A70000AC048E162E070E08C2F0E943C0980E0CF
:102A800090E0CF91089580E591E00E946404E3CF47
:102A900040E162E070E08C2F0E943C0981E0F0CFC1
:102AA000CF93DF931F92CDB7DEB741E050E0BE0178
:102AB0006F5F7F4F90E080E00E94AD1389810F909F
:102AC000DF91CF910895CF93DF93C4E1D0E00E94CE
:102AD0005015882361F061E070E080E090E00E9492
:102AE000F0052197A1F780E0DF91CF91089581E073
:102AF000FBCF1F93CF93DF931F921F92CDB7DEB70B
:102B000060E372E080E090E00E94F0051FB7F89467
:102B100080911E07811127C0E7E0F8E08491EDE481
:102B2000F8E09491E82FF0E0EE0FFF1FE25CF94F20
:102B3000A591B491EC91E92321F461E085E30E9431
:102B40006C0561E085E30E949A058CB580618CBDBF
:102B50008CB580648CBD61E084E30E949A0561E0DD
:102B600083E30E949A0580911E078F5F80931E0762
:102B70001FBFECEDF7E0E491F0E0EE0FFF1FE85A25
:102B8000F94F8591949190931D0780931C07E2E281
:102B9000F8E0E491E0931B0761E08AE00E949A0567
:102BA0000E94140880E591E00E94640484E380930D
:102BB000510980E80E94DE080E9463158823C1F154
:102BC00088E00E94DE080E945015883089F580E177
:102BD0000E94DE080E945015803151F580E00E946D
:102BE000DE080E945015182F811122C041E050E0EC
:102BF000BE016F5F7F4F8FE190E00E94AD1389812E
:102C00008330B1F480E480931F0742E06EE170E00E
:102C1000812F0E943C0942E06FE170E0812F0E9409
:102C20003C091F5F183089F781E0809352096AC020
:102C300087E38093510980E80E94DE080E946315B3
:102C4000882329F188E00E94DE080E945015883010
:102C5000F1F480E10E94DE080E945015182F8031A7
:102C6000B1F480E00E94DE080E94501581110FC06F
:102C700041E050E0BE016F5F7F4F89E390E00E942A
:102C8000AD138981843019F410931F07CDCF83E3EE
:102C90008093510980E80E94DE080E946315882312
:102CA00071F180E10E94DE080E945015803139F5F3
:102CB00082E10E94DE080E945015823101F580E019
:102CC0000E94DE080E945015811119C084E0809393
:102CD0001F0715E51A8341E050E0BE016E5F7F4F8C
:102CE0008BE190E00E943008198341E050E0BE0182
:102CF0006F5F7F4F8AE190E00E94300895CF10927D
:102D0000510980E00F900F90DF91CF911F910895AE
:102D10001F93CF93DF931F92CDB7DEB7182F80E5B7
:102D200091E00E946404812F0E94F10827E0129F25
:102D3000F0011124E75FF64F22813381377041E0C3
:102D400050E0BE016F5F7F4F820F931F0E94AD1353
:102D500089810F90DF91CF911F910895FC01808DA3
:102D6000883040F4218D328D232B21F00E9488166B
:102D700090E008958FEF9FEF0895CF93DF93FC01CC
:102D80002485283028F08FEF9FEFDF91CF910895B1
:102D9000EC010190F081E02D0084F185E02D199582
:102DA000892B89F38C850E94881690E0EECFDA019A
:102DB000E0911F07F0E0FE2FEE27E60FF71F90E0EF
:102DC000982F8827A901BD018E0F9F1F0C94AD136A
:102DD0008F929F92AF92BF92CF92DF92EF92FF922B
:102DE0000F931F93CF93DF93CDB7DEB760970FB6E6
:102DF000F894DEBF0FBECDBF7C01909151099111B7
:102E000015C018E0812F60960FB6F894DEBF0FBE94
:102E1000CDBFDF91CF911F910F91FF90EF90DF9089
:102E2000CF90BF90AF909F908F90089508E093331C
:102E300009F404E06B0180E591E00E9464049E01C6
:102E40002F5F3F4F5901490110E0812F0E948A14E2
:102E5000F40181934F018823C1F01F5F0113F5CF67
:102E600000E0F50181915F018D3149F0883139F041
:102E70008A51823020F00F5F1013F3CFC2CF60E190
:102E800070E0802F0E945514102FA12EB12CF50157
:102E9000EE0FFF1FEF5BF64F1182108283EE93E07F
:102EA0000197F1F742E870E060E0812F0E943C0951
:102EB0004FEF62E070E0812F0E943C09B601C1141F
:102EC000D10491F480910002909101020196811544
:102ED000F0EC9F0708F45CC090930102809300021D
:102EE0006091000270910102812F0E94260986E004
:102EF000E2E1F2E0DE01199601900D928A95E1F788
:102F0000F70183818F778C8784818D8785818E8778
:102F1000A7014E5F5F4F24E030E06CE070E0812F4E
:102F20000E94FF08B601812F0E94100926E030E0C0
:102F3000AE01475F5F4F66E070E0812F0E94FF089F
:102F400061E070E0812F0E94551427E02A9DC001A6
:102F50002B9D900D11249C01275F364F7901F901BB
:102F60001182108222E030E0AE01415F5F4F68E2E3
:102F700070E0812F0E94D7168F859889982789271E
:102F80009827F701938382831682158214823ACFA1
:102F900080E090ECA1CFCF92DF92EF92FF920F935F
:102FA0001F93CF93DF9300D000D0CDB7DEB78C0155
:102FB0006B017A01FC01808D883010F40E9471143D
:102FC0008CE593E09A838983F60182819381A481C1
:102FD000B5818B839C83AD83BE83B701CE010196FF
:102FE0000E94E816F801808F8830A0F4F586E48608
:102FF000128E118E81E026960FB6F894DEBF0FBEBA
:10300000CDBFDF91CF911F910F91FF90EF90DF9097
:10301000CF90089580E0EFCF7F928F929F92AF92F2
:10302000BF92CF92DF92EF92FF920F931F93CF93B5
:10303000DF931F921F92CDB7DEB7782E8B014A0126
:10304000590122E030E0AE014F5F5F4F64E270E073
:103050000E94D716E980FA80FE24EF24FE24E00EB9
:10306000F11E9701377040915109072D10E043334D
:1030700009F042C0085F1F4F102F0027110F110FDA
:10308000110FC901800F911F4733C9F1A9014A0DE2
:103090005B1D4130584098F160E078E06B01C21A46
:1030A000D30AA601B4010E943008A5014C195D099C
:1030B000B4016C0D7D1DC8010E943008EA0CFB1C98
:1030C000F982EA8222E030E0AE014F5F5F4F64E2B6
:1030D00070E0872D0E94FF080F900F90DF91CF9135
:1030E0001F910F91FF90EF90DF90CF90BF90AF9026
:1030F0009F908F907F900895005F1F4FBDCFA501D7
:10310000B401DACFEF92FF921F93CF93DF931F9218
:103110001F92CDB7DEB7182F22E030E0AE014F5F2F
:103120005F4F60E270E00E94D716E980FA80FE24CB
:10313000EF24FE2422E030E0AE014F5F5F4F60E2FB
:1031400070E0812F0E94D71689819A81982789275C
:103150009827E816F90689F487E0189FF0011124F2
:10316000E75FF64FF582E482C7010F900F90DF9181
:10317000CF911F91FF90EF9008957C01DBCF1F93BB
:10318000CF93DF93182F80E591E00E946404812F94
:103190000E948218EC01812F0E948A14873121F04D
:1031A0008C3111F0D0E0C0E0CE01DF91CF911F91C2
:1031B0000895CF93DF93EC018C85883060F40E94F2
:1031C0008E14873111F08C3131F48C850E94BF1838
:1031D0008115984088F3DF91CF910895FC01848593
:1031E000883010F40C94BF1890E080E00895CF92DE
:1031F000DF92EF92FF921F93CF93DF93182F7B0103
:10320000EA014130584010F0C0E0D8E080E591E09C
:103210000E946404812F0E9482186C01812F0E94F9
:103220008A14873111F08C3121F5CC16DD0670F34C
:1032300080E591E00E9464049E01A70170E060E0D7
:10324000812F0E940C1860E270E0812F0E945514BB
:1032500062E070E0812F0E94381484FD0DC0812F40
:103260000E948A148823B9F080E591E00E946404EA
:10327000EFCFD0E0C0E0DCCF40E162E070E0812F32
:103280000E943C09CE01DF91CF911F91FF90EF90FA
:10329000DF90CF900895D0E0C0E0F4CF0F931F935C
:1032A000CF93DF938C01EA01FC018485883048F4D8
:1032B0000E94F718892B39F481E090E0F80193839C
:1032C0008283D0E0C0E0CE01DF91CF911F910F91BA
:1032D00008959F92AF92BF92CF92DF92EF92FF92AA
:1032E0000F931F93CF93DF938C015B01942EE52EF8
:1032F000FC01C688D788F08C80E591E00E946404C8
:103300008F2D0E948218C92DDE2D8C179D0708F481
:10331000EC019E01A501B6018F2D0E940C18F80149
:10332000868997898C0F9D1F978B868BCE01DF91A5
:10333000CF911F910F91FF90EF90DF90CF90BF90B2
:10334000AF909F900895FF920F931F93CF93DF93B9
:103350001F921F92CDB7DEB7F82E22E030E0AE010B
:103360004F5F5F4F66E270E00E94D71609811A81B5
:1033700010270127102722E030E0AE014F5F5F4F9A
:1033800066E270E08F2D0E94D71689819A81982776
:10339000892798270817190749F4C8010F900F903B
:1033A000DF91CF911F910F91FF9008958C01E3CF92
:1033B0001F93CF93DF93182F87E0189FE00111240C
:1033C000C75FD64F88819981009761F480E591E0CD
:1033D0000E946404812F0E94A3192E81821B9109EF
:1033E00099838883DF91CF911F9108959F92AF9227
:1033F000BF92CF92DF92EF92FF920F931F93CF93E2
:10340000DF93EC017B0180915109811121C01B8266
:103410001A8288EE93E0A0E0B0E08C839D83AE83B7
:10342000BF8382E693E09983888388E08C8788EE67
:1034300093E09E878D87CE01DF91CF911F910F91F1
:10344000FF90EF90DF90CF90BF90AF909F90089546
:1034500034E0932E833311F028E0922E81E4C82EBD
:1034600089E0D82E10E098E0B92EA12CD6012D913C
:103470003D916D01F701848195812817390791F4F9
:10348000812F0E948E14082F873111F08C3139F56D
:10349000812F0E94D819892B59F50C3119F4812FED
:1034A0000E9465141F5F9112E1CFA11008C0D701DF
:1034B000ED91FC910084F185E02DC70119951B82E7
:1034C0001A8288EE93E0A0E0B0E08C839D83AE8307
:1034D000BF8382E693E099838883BC86A8CF84313A
:1034E00049F08111DFCFF601329711821082DACFD5
:1034F000B12ED8CFAA24A394D5CF8F929F92AF920A
:10350000BF92CF92DF92EF92FF920F931F93CF93D0
:10351000DF93CDB7DEB72F970FB6F894DEBF0FBE9F
:10352000CDBF5C014B017A01809151098823C9F11B
:1035300004E0833309F008E0B501CE0101960E9452
:10354000F61981E4C82E89E0D82E10E0F601219109
:1035500031916F01F501848195812817390751F464
:10356000812F0E948E14873129F4A701B401812F85
:103570000E94F7181F5F0113E9CFC7012F960FB6FE
:10358000F894DEBF0FBECDBFDF91CF911F910F9199
:10359000FF90EF90DF90CF90BF90AF909F908F9073
:1035A0000895F12CE12CE9CFFC018485883010F4DA
:1035B0000C94D81990E080E008954F925F927F922A
:1035C0008F929F92AF92BF92CF92DF92EF92FF9233
:1035D0000F931F93CF93DF931F921F92CDB7DEB748
:1035E000782E6B014A01A82EB12C27E0829FC001E2
:1035F0001124FC01E75FF64F7F010081118180E516
:1036000091E00E9464040815190554F4872D0E9466
:10361000A319F70126818C01021B11091183008374
:103620000115110519F5872D0E948A14843159F06E
:10363000882349F001E010E08C3111F410E000E043
:10364000119501951109C8010F900F90DF91CF914D
:103650001F910F91FF90EF90DF90CF90BF90AF90B0
:103660009F908F907F905F904F9008958016910665
:103670000CF4840187E08A9DF0018B9DF00D1124EC
:10368000E75FF64FE280F380C114D10451F12701C6
:10369000F7E05F22872D0E94F108840D951D20918F
:1036A0005109273309F453C09801240D351D2130E9
:1036B000384008F44CC020E038E0490184189508EF
:1036C000A401B6010E94AD132601480C591C6801E3
:1036D000C818D908872D0E94F108A601B2010E94DE
:1036E000AD13E00EF11E87E08A9DF0018B9DF00D79
:1036F0001124E75FF64FF382E28220813181201BA3
:10370000310B318320838681800F912F911D8A3F59
:10371000910510F4232BF1F487E08A9DF0018B9D35
:10372000F00D1124E75FF64F1682F982EA8222E05B
:1037300030E0AE014F5F5F4F68E270E0872D0E947E
:10374000FF0860E470E0872D0E9455147CCFA8012B
:10375000B601C5CF868377CFCF93DF93FC01218D50
:10376000328D2115310529F48FEF9FEFDF91CF9135
:103770000895EC01808D4217530708F0A9010E94BB
:10378000DD1A1816190684F7298D3A8D281B390B76
:103790003A8F298FEBCF0F931F93CF93DF931F9215
:1037A000CDB7DEB7FC01218D328D232B41F48FEF95
:1037B0009FEF0F90DF91CF911F910F9108958C0192
:1037C00041E050E0BE016F5F7F4FFC01808D0E94A1
:1037D000DD1A181619065CF7F801818D928D019794
:1037E000928F818F898190E0E4CFCF93DF931F92F6
:1037F000CDB7DEB741E050E0BE016F5F7F4FFC0107
:1038000084850E94DD1A1816190634F4898190E027
:103810000F90DF91CF9108958FEF9FEFF9CFFC01CB
:103820008485883010F40C94DD1A90E080E00895CF
:103830008F929F92AF92BF92CF92DF92EF92FF92C0
:103840000F931F93CF93DF9300D000D000D01F922F
:10385000CDB7DEB790915109911115C018E0812FB5
:103860002A960FB6F894DEBF0FBECDBFDF91CF9181
:103870001F910F91FF90EF90DF90CF90BF90AF908E
:103880009F908F90089528E0F22E933311F494E0E6
:10389000F92E6B01082F80E591E00E9464049E01DF
:1038A0002F5F3F4F5901490110E0812F0E948A1478
:1038B000F40181934F018823C1F01F5FF112F5CF0E
:1038C000F12CF50191915F019D3149F0983139F06A
:1038D0009A51923020F0F3941F11F3CFBFCF60E1E3
:1038E00070E08F2D0E9455141F2DE12EF12CF70151
:1038F000EE0FFF1FEF5BF64F1182108283EE93E015
:103900000197F1F7402F70E060E0812F0E943C09A1
:103910004FEF62E070E0812F0E943C09B601CD2894
:1039200089F4809100029091010201968115F0ECDA
:103930009F0798F19093010280930002609100022A
:1039400070910102812F0E94260961E070E0812FB1
:103950000E94551427E02E9DC0012F9D900D11242B
:103960009C01275F364F7901F9011182108222E014
:1039700030E0AE01475F5F4F68E270E0812F0E9448
:10398000D71689859A85982789279827F7019383E1
:10399000828316821582148262CF80E090ECCACFB7
:1039A0000F931F93CF93DF93EC018B01888D8830A9
:1039B00010F40E947114B80182E00E94181C888FD4
:1039C000883050F41D870C871A8E198E81E0DF91A4
:1039D000CF911F910F91089580E0F9CF0F931F931E
:1039E000CF938C01FC016481758181E20E94181CD7
:1039F000C82F8830F8F480E591E00E9464048C2F91
:103A00000E948A14833131F08C2FCF911F910F9136
:103A10000C94651462E070E08C2F0E945514F8013C
:103A200084819581EC2FF0E0EE0FFF1FEF5BF64FE6
:103A300091838083CF911F910F910895CF92DF9250
:103A4000EF92FF921F93CF93DF93EC017B016A010A
:103A50008C85883048F40E948E14882319F08C8558
:103A60000E94651488E08C87F70182819381A4818C
:103A7000B5810097A105B10551F490E080E0DF9198
:103A8000CF911F91FF90EF90DF90CF9008958F3FDF
:103A90009F4FAF4FBF4F89F370E060E081E20E941B
:103AA000181C182F8C87883040F780E591E00E9421
:103AB0006404A7014E5F5F4F24E030E06CE070E0EB
:103AC000812F0E94FF08B601812F0E94100964E037
:103AD00070E0812F0E9455140E9423066B017C0127
:103AE0008C850E948E14873111F18C3101F188236D
:103AF00021F20E942306AB01BC014C195D096E093D
:103B00007F098D859E85B0E0A0E084179507A60704
:103B1000B70738F061E070E080E090E00E94F005C7
:103B2000DFCF8C850E94711488E08C87A6CF81E05E
:103B300090E0A5CF0F931F93CF93DF931F921F9217
:103B4000CDB7DEB7FC0124852830E0F48C0180E598
:103B500091E00E94640422E030E0AE014F5F5F4FCD
:103B600060E170E0F80184850E94D71689819A810E
:103B70009827892798270F900F90DF91CF911F9159
:103B80000F91089590E080E0F6CF0F931F93CF93AD
:103B9000DF931F921F92CDB7DEB7FC01248528303A
:103BA000E0F48C0180E591E00E94640422E030E0C2
:103BB000AE014F5F5F4F64E070E0F80184850E94C2
:103BC000D71689819A819827892798270F900F9077
:103BD000DF91CF911F910F91089590E080E0F6CF93
:103BE000DC018CE593E08D939D9384E0FB010190D3
:103BF0000D928A95E1F70895EF92FF920F931F932C
:103C0000CF93DF9300D01F92CDB7DEB78C017B013D
:103C1000FB0184858830A8F08CE593E0F80191835E
:103C200080831282138214821582C8010F900F9034
:103C30000F900F90DF91CF911F910F91FF90EF9018
:103C4000089580E591E00E94640424E030E0AE0134
:103C50004F5F5F4F6CE070E0F70184850E94D716DC
:103C6000BE016F5F7F4FC8010E94F01DDECF0F9332
:103C70001F93CF93DF9300D000D01F921F92CDB738
:103C8000DEB78C01D80159964D915C915A97411538
:103C9000510551F0ED91FC91048CF58DE02D70E013
:103CA00060E0C8011995EECFF801808D0E94D81907
:103CB000892BB1F148E050E0BE016F5F7F4FD80122
:103CC00058968C910E94DD1A18161906F4F4D80142
:103CD000509684E0FE01319601900D928A95E1F7AD
:103CE0008D8190E0982F88272E81820F911DF801F9
:103CF000958B848B8F81282F30E0322F2227888567
:103D0000820F932F911D928F818F28960FB6F89472
:103D1000DEBF0FBECDBFDF91CF911F910F910895F0
:103D200090E080E0F2CF4F925F926F927F928F92FD
:103D30009F92AF92BF92CF92DF92EF92FF920F933A
:103D40001F93CF93DF93CDB7DEB763970FB6F89489
:103D5000DEBF0FBECDBF7C016B013A01FB0120E04D
:103D600090E080E06AE03191332309F461C040EDD6
:103D7000430F4A3008F04DC0689FA001699F500D65
:103D80001124CA01C097830F911D37FD9A958F3F6B
:103D9000910549F340F3F7014281538164817581B4
:103DA0008091840A9091850AA091860AB091870A31
:103DB000481759076A077B0709F40DC28701085F96
:103DC0001F4F0E9423066F7077277C5FC8010E94F7
:103DD000D01C813009F004C28CE593E09A8389837A
:103DE000F70182819381A481B5818B839C83AD830C
:103DF000BE8345E350E0BE016F5F7F4FC8010E9464
:103E0000BC09892BA9F5D12CC12CC8010E947D14B5
:103E100017C03E3209F0BFCF233009F4BCCFD30125
:103E2000A20FB11D12968C932F5F90E080E09BCF84
:103E3000233009F0B0CFF3018583CC24C394D12C77
:103E4000C60163960FB6F894DEBF0FBECDBFDF91FB
:103E5000CF911F910F91FF90EF90DF90CF90BF9087
:103E6000AF909F908F907F906F905F904F9008954C
:103E70000E942306F7017783668342E050E0B70192
:103E80006A5F7F4FC8010E94691981E090E09A83C0
:103E9000898342E050E0BE016F5F7F4FC8010E94FE
:103EA000691980E091E09A83898342E050E0BE0185
:103EB0006F5F7F4FC8010E9469191A82198242E020
:103EC00050E0BE016F5F7F4FC8010E94691942E058
:103ED00050E0BE016F5F7F4FC8010E94691942E048
:103EE00050E0BE016F5F7F4FC8010E946919560103
:103EF000F6018081882301F16501F60181912F018E
:103F0000882311F08E32B1F446018A189B081814E8
:103F1000190474F48D8641E050E0BE01635F7F4F69
:103F2000C8010E946919A401B501C8010E9469195C
:103F30005201DECF6201E1CF1D8641E050E0BE01BB
:103F4000635F7F4FC8010E946919C12CDD24D3949F
:103F5000DA82C98242E050E0BE016F5F7F4FC80144
:103F60000E946919DA82C98242E050E0BE016F5FA7
:103F70007F4FC8010E946919C8010E941F15892B33
:103F800009F441CFF3E0AF2EB12C230122E0420E21
:103F9000511CD4C0F7014281538164817581808DA9
:103FA000918DA28DB38D481759076A077B0709F0D9
:103FB00008C1848D958DC59709F003C181A192A197
:103FC0005DEFC52EDD24DA940C970CF4ADC04CE007
:103FD00050E0BE016F5F7F4FC8010E94AC1B8B8118
:103FE0009C819827892798279A8B898BF70146818E
:103FF000578129813A814217530709F0E7C097FF9B
:10400000E5C08F7092703BEFC32EDD24DA94892BCC
:1040100009F08AC06F8078847624672476242AEF9A
:10402000C22EDD24DA946114710409F47DC0D12C10
:10403000C12C8D819E81982789279827C816D9067B
:10404000F8F441E050E0BE01635F7F4FC8010E9479
:10405000AC1B4D85442331F050E070E060E0C801B6
:104060000E94AC1B8D858111ECCF44E050E070E0E4
:1040700060E0C8010E94AC1BFFEFCF1ADF0AD9CF66
:10408000912C812C41E050E0BE016D5E7F4FC80154
:104090000E94AC1B4B89842F807C09F06CC04423A8
:1040A00031F050E070E060E0C8010E94AC1B8B89E9
:1040B0008111E8CF42E050E0BE01615F7F4FC8014F
:1040C0000E94AC1B42E050E0BE01635F7F4FC8011D
:1040D0000E94AC1B44E050E070E060E0C8010E9428
:1040E000AC1B42E050E0BE016F5E7F4FC8010E94F2
:1040F000AC1B8F85988949895A898115914009F0AF
:1041000043C0CD84DE84DC24CD24DC2481E0C816C9
:10411000D104D1F54115544009F04AC044E050E0C3
:10412000B201C8010E94AC1B21E0A21AB10809F437
:104130006CCEFFEFCF16DF0609F067CE0E94230694
:104140003B014C01C8010E94371E181619060CF4D9
:1041500021CF0E94230666197709880999096938D1
:1041600073418105910548F562E370E080E090E0DD
:104170000E94F005E7CF41E050E070E060E0C80148
:104180000E94AC1B1B8A93CF54274527542770E00D
:1041900060E0C8010E94AC1BFFEF8F1A9F0A6814F1
:1041A000790409F06FCF96EFC92EDD24DA94BCCFE5
:1041B000E7EFCE2EDD24DA94B7CFCC24CA94DC2CE2
:1041C000B3CF6EEFC62EDD24DA94AECF4CEFC42E03
:1041D000DD24DA94A9CF8EEFC82EDD24DA9430CE18
:1041E000D12CC12C2DCECF92DF92EF92FF920F9364
:1041F0001F93CF93DF93CDB7DEB7AF970FB6F89489
:10420000DEBF0FBECDBF7C016A010CE513E01A834F
:1042100009831C861B8688EE93E0A0E0B0E08D87C2
:104220009E87AF87B88B8EE193E09A878987188F36
:104230000F8B198E1A8E1B8E1C8E88E089A31BA7EC
:104240000AA71CA61DA61EA61FA68091780A9091FB
:10425000790AA0917A0AB0917B0A8EA39FA3A8A79E
:10426000B9A78B839C83AD83BE8318861F82AE0162
:10427000465D5F4FCE0101960E94931E81309105ED
:10428000B1F4D701ED91FC910488F589E02D1DA3CF
:104290000CA38CA59DA5AEA5BFA58EA39FA3A8A783
:1042A000B9A7A601BE016C5D7F4FC7011995AF96F6
:1042B0000FB6F894DEBF0FBECDBFDF91CF911F9137
:1042C0000F91FF90EF90DF90CF900895CF92DF9203
:1042D000EF92FF920F931F93CF93DF93CDB7DEB78B
:1042E000AF970FB6F894DEBF0FBECDBF8C016B0148
:1042F0007A018CE593E09A8389831B821C821D825C
:104300001E821C861B8648EE53E060E070E04D87FD
:104310005E876F87788B2EE133E03A872987988F05
:104320008F8B198E1A8E1B8E1C8E28E029A39BA7BB
:104330008AA71CA61DA61EA61FA6D8011C968C9196
:10434000883060F40E948E14882321F0F80184855F
:104350000E94651488E0D8011C968C938091780A9D
:104360009091790AA0917A0AB0917B0A8EA39FA3BB
:10437000A8A7B9A78B839C83AD83BE8318861F82B1
:10438000AE01465D5F4FB601CE0101960E94931EBD
:104390000097C1F0D801ED91FC910684F785E02DDE
:1043A0008CE593E09DA38CA38CA59DA5AEA5BFA590
:1043B0008EA39FA3A8A7B9A7A701BE016C5D7F4FDD
:1043C000C8011995AF960FB6F894DEBF0FBECDBFEA
:1043D000DF91CF911F910F91FF90EF90DF90CF90E1
:1043E00008950F931F93CF93DF938C018CE190E09E
:1043F0000E941750EC018FEF9FEF9B838A831D82F1
:104400001C821F821E82188619861A861B8680E2ED
:1044100091EAA7E0B0E08C879D87AE87BF87188AB6
:10442000198A1A8A1B8A8C8B9D8BAE8BBF8B8FEF60
:1044300090E0998388838AEA92E0998F888F8CE054
:1044400090E00E941750FC019B8F8A8F1386128682
:10445000D80112964D915D916D917C91159746838F
:104460005783608771871382128211821082CE0176
:10447000DF91CF911F910F9108957F928F929F921C
:10448000AF92BF92CF92DF92EF92FF920F931F9362
:10449000CF93DF93CDB7DEB7A6970FB6F894DEBF04
:1044A0000FBECDBF8C01762E942E852E20E2A22E3B
:1044B000CE0101967C01DC01EA2D1D92EA95E9F717
:1044C0006801F3E4CF0ED11C8CE593E09AA389A395
:1044D0008FEF8BA38CA38DA38EA343E450E0BE018A
:1044E0006F5D7F4FC6010E94BC09019609F4BFC0F1
:1044F00081E089838A8386E0B82EBB821C82D80142
:1045000014966D917D918D919C9117970E941050FA
:104510006D837E838F83988789869A8680E890E072
:104520009C878B874CE150E0B701C6010E94691956
:10453000FE0137968AE1DF011D928A95E9F748016D
:10454000B8E08B0E911CF401D70101900D92BA9442
:10455000E1F740E150E0B701C6010E946919F70197
:104560001192AA94E9F796E0A92EB12C40E250E00E
:10457000B701C6010E946919F1E0AF1AB108B1F79D
:1045800083E6898392E89A8393E59B838C8385E312
:104590008D8381E08E837F829DE3988797E0998762
:1045A0008A8786E0F401DE011B9601900D928A95C0
:1045B000E1F78CE0898B8A8B6CE973E0CE0143963E
:1045C0000E945A52D8011B966C91CE0149960E94C6
:1045D0006704F8016485CE014B960E946704D801F8
:1045E0001D966C91CE014D960E9467044EE150E0FD
:1045F000B701C6010E946919B3E07B121EC082E3B5
:10460000898384E08A83F80196859B8397859C83C0
:1046100090899D8391899E8396E39F838887828D6D
:104620008987838D8A87848D8B87858D8C874CE0E5
:1046300050E0B701C6010E94691987E3898386E0CB
:104640008A8391E09B8393E09C838D838FE08E83AC
:104650008AE38F838BE388878FEF898749E050E077
:10466000B701C6010E946919C6010E941F15A696CE
:104670000FB6F894DEBF0FBECDBFDF91CF911F9173
:104680000F91FF90EF90DF90CF90BF90AF909F90F1
:104690008F907F9008952F923F924F925F926F92EA
:1046A0007F928F929F92AF92BF92CF92DF92EF92C2
:1046B000FF920F931F93CF93DF9300D01F92CDB73C
:1046C000DEB7FC01648075806114710409F418C1BF
:1046D00080904C0D90904D0D8114910409F410C1FF
:1046E0007B019C838B83FB01C480D580C818D908CB
:1046F000FC0100811181C114D104C1F46091480D05
:104700007091490DC8010E947E528C01009709F4F6
:10471000F7C0F70160817181448155810E942F5259
:10472000F70184819581080F191FE8CFD7FC11C0CC
:104730004090480D5090490D5301C801B2010E94AC
:104740007E52009709F450C0880D991DAC0CBD1C19
:10475000F5CF58016091480D7091490DC8010E9434
:104760007E523C01009731F14C01801A910AA4015C
:10477000B801C5010E942F52A80CB91CF701608135
:10478000718144815581C5010E942F52F7018481B6
:104790009581A80EB91E00914C0D10914D0D060D7E
:1047A000171DEB81FC81848195818C0D9D1D958366
:1047B0008483D0CFB801C5010F900F900F900F9058
:1047C000DF91CF911F910F91FF90EF90DF90CF90ED
:1047D000BF90AF909F908F907F906F905F904F9021
:1047E0003F902F900C945A526A147B0409F488C0AD
:1047F000EB81FC81828193818A159B0578F4B50158
:104800006F5F7F4FC8010E943C51009709F478C048
:10481000EB81FC8191838083B382A282EB81FC8156
:10482000048115810150110917FD6AC048014090AB
:104830004C0D50904D0D4114510409F461C0EB81B1
:10484000FC81A480B580A114B10409F459C0A4145A
:10485000B50408F455C00A151B0520F04501F1E028
:104860008F1A9108EB81FC81608071808091480DE6
:104870009091490D9A838983C3010FEF1FEF1301B4
:10488000280C391C2816390680F069817A810E942B
:104890007E52009751F09C01261937098216930623
:1048A00008F4980101968901EDCF17FD29C0400E4B
:1048B000511EC301840D951DA50144195509BC0164
:1048C0008C0D9D1D0E943852EB81FC818481958165
:1048D0008C0D9D1D9583848320813181820F931FD0
:1048E000FC011082EB81FC8180819181F701608164
:1048F000718144815581800F911F0E942F5292CF68
:104900000F900F900F900F90DF91CF911F910F910B
:10491000FF90EF90DF90CF90BF90AF909F908F90DF
:104920007F906F905F904F903F902F9008950F93DE
:104930001F93CF93DF93EC0188819981009759F001
:104940002A813B812617370730F081E0DF91CF9134
:104950001F910F9108958B016F5F7F4F0E943C5113
:10496000009759F0998388831B830A832C813D81AA
:10497000232B59F7FC011082E8CF80E0E7CFEF92BC
:10498000FF920F931F93CF93DF936115710541F44D
:1049900080E0DF91CF911F910F91FF90EF900895EC
:1049A00041155105B1F07B01EC010C811D81040F13
:1049B000151FB8010E949724882351F3288139815B
:1049C0008C819D81B701820F931F0E945A521D83D3
:1049D0000C8381E0DECF0E941D520F931F93F801DC
:1049E000DC018D919C918F3F980711F40E941D521C
:1049F00080836183528343833483258386E090E000
:104A00001F910F910895FB0101900020E9F7319764
:104A1000AF01461B570BDC01ED91FC910280F38145
:104A2000E02D19948F929F92AF92BF92EF92FF92D6
:104A30000F931F93CF93DF93CDB7DEB7A1970FB638
:104A4000F894DEBF0FBECDBF7C01FA01CB0119A2E5
:104A5000223008F42AE08E010F5D1F4F822E912C28
:104A6000B12CA12CBF01A50194010E94364FF90180
:104A7000CA016A300CF5605DD8016E938D01232B5D
:104A8000242B252B79F790E080E0109721F0BD01D1
:104A9000C7010E940325A1960FB6F894DEBF0FBE92
:104AA000CDBFDF91CF911F910F91FF90EF90BF90FD
:104AB000AF909F908F900895695CDECF8F929F9208
:104AC000AF92BF92CF92DF92EF92FF920F931F931C
:104AD000CF93DF937C01EB016C0182E0C80ED11C07
:104AE0004701E5E08E0E911C10E000E0F6014191D7
:104AF0006F0150E070E060E02AE0CE010E941225D4
:104B00005C01E881F9810190F081E02D6EE2CE0137
:104B100019958A0D9B1D080F191FC814D90431F768
:104B2000F701458150E070E060E02AE0CE010E948C
:104B30001225800F911FDF91CF911F910F91FF9050
:104B4000EF90DF90CF90BF90AF909F908F9008959F
:104B5000AF92BF92CF92DF92EF92FF920F931F938B
:104B6000CF93DF93DC01CD90DC901197C114D10479
:104B700039F01496CD91DC918C017601209761F487
:104B8000DF91CF911F910F91FF90EF90DF90CF9029
:104B9000BF90AF90089575015701BFEFAB1ABB0AE4
:104BA000F7018081082E000C990B0E94C44D892BBF
:104BB00091F72197CC0DDD1D8881082E000C990BF3
:104BC0000E94C44D892B29F0CE15DF0510F02197E6
:104BD000F3CFAE014F5F5F4F4E195F09D8011596B5
:104BE0005C934E931497CE14DF0420F4B701C601F2
:104BF0000E942F52D801ED91FC91119714968D913E
:104C00009C91E80FF91F1082BBCFFB0144815581B5
:104C1000FC01248135812417350778F0808191814A
:104C2000009759F0FB01608171816115710529F0D0
:104C30000E94615221E0892B09F020E0822F089523
:104C4000FC0124813581FB014481558124173507FE
:104C5000E1F4FC0180819181FB0160817181009709
:104C6000D1F061157105A1F4232BC1F0FC01808105
:104C700090E008C0232B91F0FB01808190E091959A
:104C80008195910921E0892B09F020E0822F089578
:104C90000E945152F7CF6115710561F721E0F6CFFF
:104CA0000F931F93CF93DF938C01EB01FC01808165
:104CB00091810097E1F06881798161157105A9F012
:104CC000428153812C813D814217530770F00E942D
:104CD0005A528C819D81F801958384831D821C82A8
:104CE000DF91CF911F910F9108950E94B350888159
:104CF0009981F801918380838A819B819383828348
:104D00008C819D8195838483198218821B821A82EB
:104D1000E5CFCF93DF93EC0188819981009711F063
:104D20000E94B350198218821D821C821B821A8233
:104D3000DF91CF910895CF93DF93EC01FB010190B8
:104D40000020E9F73197AF01461B570B0E94BF24A3
:104D5000811103C0CE010E948926CE01DF91CF913F
:104D60000895CF93DF93EC01FB014481558160816D
:104D700071810E94BF24811103C0CE010E94892647
:104D8000CE01DF91CF910895EF92FF920F931F9381
:104D9000CF93DF93EC017B018A01BA010E94972433
:104DA00081110BC0CE010E948926CE01DF91CF91E7
:104DB0001F910F91FF90EF9008951D830C83B70111
:104DC000888199810E945A52F0CFFB010190002006
:104DD000E9F73197AF01461B570B0C94C426EF92AD
:104DE000FF920F931F93CF93DF93CDB7DEB7A197B9
:104DF0000FB6F894DEBF0FBECDBF7C01CB01BA0168
:104E0000F7011182108213821282158214828E01A0
:104E10000F5F1F4F22E044E00E94504A009789F044
:104E2000BC01C7010E94E526A1960FB6F894DEBF2B
:104E30000FBECDBFDF91CF911F910F91FF90EF90EB
:104E40000895C7010E948926EFCF0F931F93CF9338
:104E5000DF93CDB7DEB762970FB6F894DEBF0FBE13
:104E6000CDBF8C01CB01F801118210821382128216
:104E7000158214824AE0BE016F5F7F4F0E94394B5A
:104E8000BE016F5F7F4FC8010E94E52662960FB694
:104E9000F894DEBF0FBECDBFDF91CF911F910F9170
:104EA0000895CF93DF93EC01FB018617970749F034
:104EB000608171816115710541F0448155810E94C5
:104EC000C426CE01DF91CF9108950E948926F9CFA3
:104ED000FC011182108213821282158214820C94BA
:104EE0005127FC01118210821382128215821482D2
:104EF000FB0101900020E9F73197AF01461B570BEA
:104F00000C94C426AF92BF92CF92DF92EF92FF92A1
:104F10000F931F93CF93DF936C015B017A0189019B
:104F20002417350720F48F2D7901042F182F6BEAF1
:104F300076E0C6010E947127D5011496CD91DC91CF
:104F4000EC16FD06E0F40C171D0708F4E801D50186
:104F5000ED91FC911197EC0FFD1F108110826D9166
:104F60007C916E0D7F1DC60161157105A1F00E9437
:104F7000E526F50180819181C80FD91F1883C601EC
:104F8000DF91CF911F910F91FF90EF90DF90CF9025
:104F9000BF90AF9008950E948926EBCFFC018081DD
:104FA0009181009711F00C94B3500895CF93DF9343
:104FB000EC018A8D9B8D0E94B350CE01DF91CF9181
:104FC0000C94B3500C94D627CF93DF93EC018C89CB
:104FD0009D89009711F00E94B3508E899F89009798
:104FE00011F00E94B350888D998D009711F00E94A6
:104FF000B3508A8D9B8D009711F00E94B35088E1C9
:10500000FE013496DF011D928A95E9F78A819B8122
:10501000009741F00E94360C8A819B810E942B0CE4
:105020001B821A82DF91CF910895CF93DF93EC0119
:1050300088E493E0998388838C899D89009711F097
:105040000E94B3508E899F89009711F00E94B3503F
:10505000888D998D009711F00E94B3508A8D9B8D99
:10506000009711F00E94B3508A819B81009721F034
:10507000DF91CF910C942B0CDF91CF91089522E515
:1050800033E0FC01318320830C941528CF93DF9308
:10509000EC010E943F28CE01DF91CF910C94B350D8
:1050A00026EE32E0FC01318320830C941528CF9347
:1050B000DF93EC010E945028CE01DF91CF910C9438
:1050C000B350CF93DF93EC0180EF92E09983888314
:1050D0008B899C89009711F00E94B3508A819B8133
:1050E000009721F0DF91CF910C942B0CDF91CF91A1
:1050F0000895CF93DF93EC010E946128CE01DF91E8
:10510000CF910C94B35028EF32E0FC01318320831F
:105110000C946128CF93DF93EC010E948328CE0189
:10512000DF91CF910C94B3503F924F925F926F9268
:105130007F928F929F92AF92BF92CF92DF92EF9227
:10514000FF920F931F93CF93DF93CDB7DEB7EA970C
:105150000FB6F894DEBF0FBECDBF7C012A013B0124
:1051600069010E9423064B015C0187010D5B1F4F03
:10517000C8010E94371E181619069CF00E942306CB
:10518000681979098A099B0946165706680679063F
:1051900008F466C162E370E080E090E00E94F005F0
:1051A000E7CF42E250E0BE016F5F7F4FC8010E942F
:1051B000AC1B89818230D1F0312C832DEA960FB659
:1051C000F894DEBF0FBECDBFDF91CF911F910F913D
:1051D000FF90EF90DF90CF90BF90AF909F908F9017
:1051E0007F906F905F904F903F900895F801848971
:1051F00095898334910501F76D817E818F81988532
:105200000E9410504B015C01F60180829182A282C3
:10521000B38246E050E0B701685F7F4FCE014D9604
:105220000E942252892B41F6F70180819181A2814F
:10523000B38188169906AA06BB0608F4BDCF8481FF
:105240009581A681B78188159905AA05BB0508F443
:10525000B3CF89899A89AB89BC8986879787A08BC8
:10526000B18B4EEC50E070E060E0C8010E94AC1BD6
:10527000312CC701829698AB8FA7F701B696FAAB8F
:10528000E9AB08969CAB8BAB67019AE1C90ED11CC8
:10529000BD96FEABEDABC701429698AF8FABFD97C5
:1052A000FAAFE9AF4701FEE18F0E911CF801818D45
:1052B000928D181619060CF080CFC8010E94CB1BE6
:1052C0008333910509F4B2C014F58130910509F4D6
:1052D00064C044F4892B51F3C8010E94CB1BAC017C
:1052E000552775C08330910509F462C00697A1F770
:1052F000C8010E94CB1BB82E44E050E0B401C801A5
:105300000E94AC1BEB2DE450FF0BAF0160C08A3351
:10531000910509F45FC084F585339105B1F1C69715
:10532000D9F6C8010E94CB1B5C01B601CE0189965B
:105330000E94F01D8BA59CA5ADA5BEA5892B8A2B2F
:105340008B2BB1F0EDA9FEA9408051806280738063
:10535000B601CE0183960E94F01D8DA19EA1AFA142
:10536000B8A5A501481659066A067B0609F0B8CF0C
:1053700044E050E0B60118C08B33910509F440C0F9
:105380008F3F910509F492CFA7CFC8010E94CB1B94
:10539000C8010E94CB1B382E89CFC8010E94CB1BAD
:1053A00044E050E06FA978ADC8010E94AC1B7ECFED
:1053B000C8010E94CB1BB82E44E050E069AD7AAD25
:1053C000C8010E94AC1B8B2D8450990BAC0170E07E
:1053D00060E0EACFC8010E94CB1B44E050E069A91D
:1053E0007AA9C8010E94AC1BF70166A177A180A52C
:1053F00091A50E94105066A377A380A791A756CFCE
:10540000C8010E94CB1B44E050E06BA97CA9C801F5
:105410000E94AC1BF70162A573A584A595A50E9407
:10542000105062A773A784A795A740CFC8010E9418
:10543000CB1B44E050E06FA578A9C8010E94AC1BCB
:10544000F70162A173A184A195A10E94105062A3EB
:1054500073A384A395A366A777A780AB91AB26CF50
:1054600033243A94AACE2F923F924F925F926F923A
:105470007F928F929F92AF92BF92CF92DF92EF92E4
:10548000FF920F931F93CF93DF9300D000D0CDB73F
:10549000DEB78C010E94BA4A2FEC37E040E050E0C2
:1054A0000E94044FDC01CB010196A11DB11DF80142
:1054B00084839583A683B78380839183A283B383F8
:1054C0005801F3E4AF0EB11CC5010E947D1464E4E1
:1054D00070E0C5010E94D01C882309F445C10E94D8
:1054E00023062B013C01480182E4880E911C48EE02
:1054F000C42E43E0D42EE12CF12C52E0252E1E8246
:105500001D82D4018C918330B1F1811166C0F80104
:1055100084819581A681B7810196A11DB11D8483E7
:105520009583A683B7830E942306641975098609AB
:105530009709A70196010E94364FA90161E0C801B1
:105540000E943D2281E0D4018C938D819E81019740
:10555000C1F20E9423066419750986099709D801CA
:10556000D6962D913D914D915C91D997261737078D
:105570004807590720F6C5010E947D14F80184816F
:105580009581A681B7810196A11DB11D8483958364
:10559000A683B7830E942306F801FE966083718379
:1055A000828393838D819E8126960FB6F894DEBF09
:1055B0000FBECDBFDF91CF911F910F91FF90EF9064
:1055C000DF90CF90BF90AF909F908F907F906F9023
:1055D0005F904F903F902F9008958430F1F4F80140
:1055E00084819581A681B7810196A11DB11D848317
:1055F0009583A683B7830E942306641975098609DB
:105600009709A70196010E94364FA90163E0C801DE
:105610000E943D22D4012C9298CF813051F5F8019F
:1056200042AD53AD64AD75AD9E012F5F3F4FC801D4
:105630000E949428382EF2E08F1390C089819A81BD
:10564000AB81BC81F80184839583A683B7830E94D4
:1056500023066419750986099709A70196010E9416
:10566000364FA90163E0C8010E943D22D4013C925B
:105670006CCF823009F069CFF80142AD53AD64AD13
:1056800075AD9E012F5F3F4FC8010E949428382EB0
:10569000F5E08F135DC0E3E0D401EC93F80182A143
:1056A00093A1A4A1B5A1892B8A2B8B2B41F484E86B
:1056B00093E0A0E0B0E082A393A3A4A3B5A3F80174
:1056C00086A197A1A0A5B1A5892B8A2B8B2B61F46C
:1056D00082A193A1A4A1B5A1B695A7959795879509
:1056E00086A397A3A0A7B1A7F80182A593A5A4A517
:1056F000B5A5892B8A2B8B2BA9F482A193A1A4A1F8
:10570000B5A1AC01BD0123E0769567955795479506
:105710002A95D1F7841B950BA60BB70B82A793A7ED
:10572000A4A7B5A7F80186A197A1A0A5B1A586A7B2
:1057300097A7A0ABB1AB82A593A5A4A5B5A582AB55
:1057400093ABA4ABB5AB81E090E09E838D83FDCE9F
:1057500096E0891303C0D4011C92F7CEBFEF3B1231
:10576000F4CEF4011082F1CE1E821D821BCFEF9287
:10577000FF920F931F93CF93DF9300D000D0CDB74C
:10578000DEB78091B30981112AC010929B09109253
:105790009A0988EE93E0A0E0B0E080939C09909392
:1057A0009D09A0939E09B0939F098EE193E0909389
:1057B0009909809398098CE593E09093A7098093C9
:1057C000A6091092A8091092A9091092AA0910928C
:1057D000AB0988E08093B00981E08093B30985E547
:1057E00099E090935409809353098091520988233A
:1057F00009F4ACC080E591E00E94640446E050E00A
:1058000062E072E089E090E00E9430088CE593E06D
:105810009A8389831B821C821D821E82CE0103967D
:105820000E94A609109277091092780910927909BE
:1058300010927A0910927B0910927C0910927D09CE
:1058400010927E0910927F091092800910928109AE
:105850001092820980E69AEEA0E0B0E080938B0976
:1058600090938C09A0938D09B0938E0980EA9FE0F4
:10587000A0E0B0E080938F0990939009A0939109E4
:10588000B0939209E3E6F9E084E1DF011D928A9585
:10589000E9F786E0E2E0F2E0ADE5B9E001900D92D3
:1058A0008A95E1F71092970985E599E00E94332ADD
:1058B0007C01019709F050C080E591E00E946404EA
:1058C0000091530910915409B801625F7F4FCE01D6
:1058D00001960E94F01DCE0103960E94A609B80110
:1058E0006A5E7F4FCE0101960E94F01DCE010396A5
:1058F0000E94B409B8016E5E7F4FCE0101960E94EE
:10590000F01DCE0103960E94AD09B801625E7F4F83
:10591000CE0101960E94F01D8B819C81AD81BE81DC
:105920008093780A9093790AA0937A0AB0937B0ABD
:105930000E94CB057F73809100029091010268273D
:105940007927709301026093000206C00E947915C6
:10595000F12CE12C81114ECFC70126960FB6F89499
:10596000DEBF0FBECDBFDF91CF911F910F91FF9092
:10597000EF900895BF92CF92DF92EF92FF920F9334
:105980001F93CF93DF93CDB7DEB7ED84FE84CF8432
:10599000D888B9880B891C89D70114968D919C9160
:1059A000892B59F0AE01475E5F4F6F89788D8091EA
:1059B000270E9091280E0E9498528D899E89892BDE
:1059C00031F0C7010E947A0CC7010E94670CF601F2
:1059D0008281938180589F4F93838283D701589609
:1059E000ED91FC910484F585E02DB801C60119956F
:1059F000F801E80FF91FB0820196DF91CF911F9156
:105A00000F91FF90EF90DF90CF90BF9008952F926D
:105A10003F924F925F926F927F928F929F92AF923E
:105A2000BF92CF92DF92EF92FF920F931F93CF938B
:105A3000DF93CDB7DEB7C851D1400FB6F894DEBFC3
:105A40000FBECDBFC55FDE4F59834883CB50D140D9
:105A5000009771F586E190E09093220E8093210EDD
:105A60002FEF3FEFC35FDE4F39832883CD50D14006
:105A7000C35FDE4F88819981CD50D140C85EDE4F33
:105A80000FB6F894DEBF0FBECDBFDF91CF911F914F
:105A90000F91FF90EF90DF90CF90BF90AF909F90CD
:105AA0008F907F906F905F904F903F902F900895D0
:105AB00079015B011C01DC015896ED91FC9122817A
:105AC0003381CD5EDE4F39832883C351D1406901D4
:105AD000C60ED71ED60111976C91462F50E0C35FBA
