:1000000024C2000053C2000051C200004FC20000D1
:100010004DC200004BC2000049C2000047C20000B0
:1000200045C2000043C2000041C200003FC20000C0
:100030003DC200003BC2000039C2000037C20000D0
:1000400035C2000033C2000031C200002FC20000E0
:100050002DC200002BC2000029C200000C944C10DD
:1000600025C200000C944C0F0C94230F1FC20000FB
:100070001DC200001BC2000019C2000017C2000010
:1000800015C2000013C2000011C200000FC2000020
:100090000DC200000BC2000009C2000007C2000030
:1000A00005C2000003C2000001C20000FFC1000041
:1000B000FDC10000FBC10000F9C10000F7C1000054
:1000C000F5C10000F3C10000F1C10000EFC1000064
:1000D000EDC10000EBC100000C94FA0E0C94D10E9F
:1000E000E5C10000E527EA27EF27F92703287C2848
:1000F0000D2815281D28272831283B284A28542850
:100100007C285E2868287228400B430B320B360B84
:100110003C0B7A0B470B4B0B510B550B590B5F0BE1
:10012000630B670B7A0B6D0B710B750B00407A102C
:10013000F35A00A0724E18090010A5D4E80000E898
:100140007648170000E40B54020000CA9A3B0000F6
:1001500000E1F505000080969800000040420F0085
:100160000000A08601000000102700000000E80346
:10017000000000006400000000000A000000000011
:100180000100000000002C76D888DC674F0823DFD0
:10019000C1DFAE59E1B1B796E5E3E453C63AE651A3
:1001A000997696E8E6C28426EB898C9B62ED407CCA
:1001B0006FFCEFBC9C9F40F2BAA56FA5F490055A66
:1001C0002AF75C936B6CF9676DC11BFCE0E40D478B
:1001D000FEF520E6B500D0ED902E030094357705AE
:1001E0000080841E080000204E0A000000C80C3366
:1001F0003333330F986E12831141EF8D2114893BF5
:10020000E65516CFFEE6DB18D1844B381BF77C1D74
:10021000901DA4BBE424203284725E228100C9F1C7
:1002200024ECA1E53D2700000A0B02090C0D0E0885
:1002300007030401000000000000000000000000AF
:1002400000000000000000000000000000000000AE
:10025000000012111000000000000000000000006B
:10026000000000000000000000000000000022006C
:10027000250028002B002E00310034000201000070
:10028000050108010B01005EBCE2613FDD83C29CF9
:100290007E20A3FD1F419DC3217FFCA2401E5F0164
:1002A000E3BD3E6082DC237D9FC1421CFEA0E1BF16
:1002B0005D0380DE3C62BEE0025CDF81633D7C2248
:1002C000C09E1D43A1FF4618FAA427799BC584DA76
:1002D0003866E5BB5907DB856739BAE40658194724
:1002E000A5FB7826C49A653BD987045AB8E6A7F9D6
:1002F0001B45C6987A24F8A6441A99C7257B3A6408
:1003000086D85B05E7B98CD2306EEDB3510F4E1035
:10031000F2AC2F7193CD114FADF3702ECC92D38DE3
:100320006F31B2EC0E50AFF1134DCE90722C6D3395
:10033000D18F0C52B0EE326C8ED0530DEFB1F0AEC7
:100340004C1291CF2D73CA947628ABF517490856F5
:10035000B4EA6937D58B5709EBB536688AD495CBA3
:100360002977F4AA4816E9B7550B88D6346A2B7555
:1003700097C94A14F6A8742AC896154BA9F7B6E887
:100380000A54D7896B3500002100240027002A0079
:100390002D003000330001010000040107010A01B3
:1003A000000020002300260029002C002F0032002E
:1003B0000001000003010601090105050505070507
:1003C00008080808020202020A0A080804040404D1
:1003D00001010101010101010303030303030303FD
:1003E000040707070C0C0C0C0C0C0C0C020202028C
:1003F00006060606060606060B0B0B0B0B0B0B0B75
:100400000102102020080810204010204080020126
:10041000020108040201010204081020408080400B
:10042000201008040201800402018040201008040A
:1004300002010804020101020408102040800102A8
:100440000408102040804A31B03011241FBECFEF85
:10045000D1E2DEBFCDBF00E00CBF13E0A0E0B2E010
:10046000ECEEF6E700E00BBF02C007900D92A63855
:10047000B107D9F72CE0A6E8B3E001C01D92AA3677
:10048000B207E1F712E0C4E2D2E000E006C0219733
:100490000109802FFE010E94D338C332D10780E0CA
:1004A0000807A9F70E94871E0C94653BA9CD80E33D
:1004B000FB0180833296842F82958F7090E1899F13
:1004C000401911244A3014F4405D01C0495C429344
:1004D000482F8111F0CF0895DC01ED91FC91048C3F
:1004E000F58DE02D199444E050E0BC018FE090E0E0
:1004F0000C94C41008958CBD9DBD08952F923F9219
:100500004F925F926F927F928F929F92AF92BF9223
:10051000CF92DF92EF92FF920F931F93CF93DF93CF
:10052000CDB7DEB765970FB6F894DEBF0FBECDBF6F
:100530007C016B013A01FB0120E080E090E06AE081
:100540003191332309F140ED430F4A3080F4689F25
:10055000A001699F500D1124CA01C097830F911DFE
:1005600037FD9A958F3F910559F350F313C03E32F2
:1005700089F4233079F0D301A20FB11D12968C9328
:100580002F5F80E090E0DCCF233021F4F3018583FE
:1005900081E021C0F701428153816481758180919E
:1005A000970790919807A0919907B0919A074817DB
:1005B00059076A077B0709F49EC10E944010870112
:1005C000085F1F4F6F7077277C5FC8010E94281754
:1005D000813019F080E090E0F3C18EE393E09A83DC
:1005E0008983F70182819381A481B5818B839C8368
:1005F000AD83BE8345E350E0BE016F5F7F4FC8010E
:100600000E94AE18892B19F4C12CD12C6FC10E9405
:100610004010F701778366837627672776277A83EA
:10062000698342E050E0BE016F5F7F4FC8010E94C6
:10063000DF1681E090E09E878D8742E050E0BE01AA
:10064000635F7F4FC8010E94DF1680E091E09E87C4
:100650008D8742E050E0BE01635F7F4FC8010E947A
:10066000DF161E861D8642E050E0BE01635F7F4FAD
:10067000C8010E94DF1642E050E0BE01635F7F4F79
:10068000C8010E94DF1642E050E0BE01635F7F4F69
:10069000C8010E94DF165601F5018081882311F1FF
:1006A000F6015F018191811115C045018C189D08EB
:1006B0001814190494F48F8641E050E0BE01615F84
:1006C0007F4FC8010E94DF16A401B601C8010E9435
:1006D000DF1603C08E3229F7E8CF6501FFEFCF1A8E
:1006E000DF0ADACF1F8641E050E0BE01615F7F4F35
:1006F000C8010E94DF16C12CDD24D394DE86CD868E
:1007000042E050E0BE01635F7F4FC8010E94DF16E8
:10071000DE86CD8642E050E0BE01635F7F4FC801B8
:100720000E94DF16C8010E946C18892B09F46CCF57
:1007300063E0A62EB12CF2E06F0E711C0E944010F7
:100740001B012C01C8010E94881618161906A4F076
:100750000E944010DC01CB0182199309A409B5095C
:1007600089389341A105B105D0F462E370E080E0DF
:1007700090E00E940810E6CFF70142815381648126
:100780007581808D918DA28DB38D481759076A07A9
:100790007B0741F4848D958DC59721F406C02FEF1A
:1007A0003FEF9AC02EEF3FEF97C0F70181A192A1D2
:1007B0000C970CF4A6C04CE050E0BE016F5F7F4F79
:1007C000C8010E9421158B8190E0982F88272C81E9
:1007D000822B9A8B898B298130E0322F22274A8104
:1007E000242BF701468157814217530709F086C031
:1007F00097FF84C08F709270892B09F0DEC0CF8084
:10080000D12CDC2CCC248885C82AC114D10409F44D
:10081000D1C0812C912C8D8190E0982F88272E813A
:10082000822B8816990608F46FC0812C912C41E028
:1008300050E0BE016D5E7F4FC8010E9421158B897B
:10084000982F907C09F093C0811186C08B8981110B
:10085000EECF42E050E0BE01615F7F4FC8010E94D1
:10086000211542E050E0BE01635F7F4FC8010E9446
:100870002115C8010E943F15C8010E943F15C801FB
:100880000E943F15C8010E943F1542E050E0BE01A2
:100890006F5E7F4FC8010E9421158F859889811551
:1008A000914009F069C02D853E85322723273227E4
:1008B0002130310509F060C089899A8981159440F9
:1008C00009F075C044E050E0B301C8012C8B3D8BAA
:1008D0000E9421152C893D896901F1E0AF1AB10808
:1008E00029F02FEFC216D20609F428CFC8010E94C2
:1008F0001417C60165C08EEF9FEF62C02CEF3FEF6B
:10090000EBCF2DEF3FEFE8CF41E050E0BE01635F5A
:100910007F4FC8010E9421158D85811113C08D85DF
:100920008111F2CFC8010E943F15C8010E943F15F6
:10093000C8010E943F15C8010E943F15FFEF8F1AA2
:100940009F0A69CF8D859FEF980F9D87882339F384
:10095000C8010E943F15F6CF8B899FEF980F9B8BA4
:10096000882309F473CFC8010E943F15F5CFC80151
:100970000E943F151B8A6ACF412C512C89899A8984
:100980009827892798274816590638F4C8010E94E5
:100990003F158FEF481A580AF1CFEFEF8E1A9E0AD3
:1009A0008C149D0409F043CF26EF3FEF95CF27EF3E
:1009B0003FEF92CF2AEF3FEF8FCF2BEF3FEF8CCF60
:1009C00065960FB6F894DEBF0FBECDBFDF91CF9115
:1009D0001F910F91FF90EF90DF90CF90BF90AF905D
:1009E0009F908F907F906F905F904F903F902F904F
:1009F00008952F923F924F925F926F927F928F92C3
:100A00009F92AF92BF92CF92DF92EF92FF920F939D
:100A10001F93CF93DF93CDB7DEB7E3970FB6F8946C
:100A2000DEBF0FBECDBF7C011A012B0139010E9430
:100A300040104B015C0187010D5B1F4FC8010E94F4
:100A4000881618161906A4F00E944010DC01CB018C
:100A500088199909AA09BB09281639064A065B06AE
:100A6000D8F062E370E080E090E00E940810E6CFEA
:100A700042E250E0BE016F5F7F4FC8010E94211526
:100A80008981823011F080E061C1F8018489958903
:100A900083349105C1F702C08FEF58C16D817E810B
:100AA0008F8198850E94DB384B015C01F3016083E4
:100AB00071838283938346E050E0B701685F7F4F84
:100AC000CE014D960E94F73A892BE9F6F701808115
:100AD0009181A281B38188169906AA06BB0698F275
:100AE00084819581A681B78188159905AA05BB05E2
:100AF00050F289899A89AB89BC8986879787A08BB0
:100B0000B18B8EECA82EB12CC8010E943F15F1E0EC
:100B1000AF1AB108C9F719A6670182E2C80ED11C45
:100B2000F701B696FBA7EAA7C7018A969DA78CA7EF
:100B30003C974F0189969FA78EA73897F9ABE8ABF2
:100B40001701F6E12F0E311CC5979BAB8AABF8015C
:100B5000818D928D181619060CF0F7C0C8010E94FD
:100B60003F158333910509F4CBC0FCF48130910526
:100B7000C9F11CF4892B59F3DCC083309105D1F104
:100B8000069709F0D6C0C8010E943F155C0144E0F9
:100B900050E06AA97BA9C8010E942115412C512C63
:100BA000BB24F4E0AF1AB10840C08A33910509F4C0
:100BB0007BC03CF48533910569F0C69709F440C0C9
:100BC000B8C08B33910509F485C08F3F910509F4B6
:100BD000BECFAFC0C8010E943F15C8010E943F159B
:100BE00089A7B5CFC8010E943F1544E050E068A92D
:100BF00079A93AC0C8010E943F155C0144E050E069
:100C0000B101C8010E942115412C512CBB2494E054
:100C1000A91AB1084A145B040CF099CFC8010E94CC
:100C20003F15EFEF4E1A5E0AF5CF4A145B040CF045
:100C30008ECFC8010E943F158FEF481A580AF5CF92
:100C4000C8010E943F15B82EF701828D811110C096
:100C5000838D81110DC0848D81110AC0858D811114
:100C600007C044E050E0B401C8010E9421156FCFD5
:100C7000EEA5FFA54080518062807380B401CE0153
:100C800083960E94C10E8DA19EA1AFA1B8A5841527
:100C90009505A605B70529F3BB2009F458CFC8016F
:100CA0000E943F15BA94F8CFC8010E943F1544E056
:100CB00050E06AA57BA5C8010E942115F70166A135
:100CC00077A180A591A50E94DB3866A377A380A7B2
:100CD00091A73DCFC8010E943F1544E050E06CA5AC
:100CE0007DA5C8010E942115F70162A573A584A501
:100CF00095A50E94DB3862A773A784A795A727CF85
:100D0000C8010E943F1544E050E0B601C8010E94AE
:100D10002115F70162A173A184A195A10E94DB387E
:100D200062A373A384A395A366A777A780AB91ABB7
:100D30000ECFC8010E943F15B82EBB2009F407CF83
:100D4000C8010E943F15BA94F8CF89A5E3960FB663
:100D5000F894DEBF0FBECDBFDF91CF911F910F91F1
:100D6000FF90EF90DF90CF90BF90AF909F908F90CB
:100D70007F906F905F904F903F902F9008957F925B
:100D80008F929F92AF92BF92CF92DF92EF92FF929B
:100D90000F931F93CF93DF93CDB7DEB7A6970FB610
:100DA000F894DEBF0FBECDBF8C01762E942E852E1B
:100DB00020E2B22ECE0101967C01FC012B2D119276
:100DC0002A95E9F78EE393E09AA389A38FEF8BA38B
:100DD0008CA38DA38EA3680183E4C80ED11C43E4C9
:100DE00050E0BE016F5D7F4FC6010E94AE180196B4
:100DF00009F4BCC081E089838A8386E0A82EAB8297
:100E00001C82F80164817581868197810E94DB389C
:100E10006D837E838F83988789869A8680E890E0A9
:100E20009C878B874CE150E0B701C6010E94DF161A
:100E3000F7012B2D11922A95E9F7480188E0880ED9
:100E4000911CF401D70101900D92AA94E1F740E1C1
:100E500050E0B701C6010E94DF16F7011192BA9463
:100E6000E9F796E0A92EB12C40E250E0B701C601A7
:100E70000E94DF16F1E0AF1AB108B1F783E689836B
:100E800092E89A8393E59B838C8385E38D8381E04D
:100E90008E837F829DE3988797E099878A8786E093
:100EA000F401DE011B9601900D928A95E1F78CE02A
:100EB000898B8A8B69E573E0CE0143960E94273BBC
:100EC000F8014385BE01675E7F4FC801F0DAF80183
:100ED0004485BE01655E7F4FC801E9DAF8014585AA
:100EE000BE01635E7F4FC801E2DA4EE150E0B70118
:100EF000C6010E94DF16F3E07F121EC082E38983E1
:100F000084E08A83F80196859B8397859C839089EA
:100F10009D8391899E8396E39F838887828D8987AD
:100F2000838D8A87848D8B87858D8C874CE050E0FC
:100F3000B701C6010E94DF1687E3898386E08A83B2
:100F400091E09B8393E09C838D838FE08E838AE383
:100F50008F838BE388878FEF898749E050E0B70163
:100F6000C6010E94DF16C6010E946C18A6960FB635
:100F7000F894DEBF0FBECDBFDF91CF911F910F91CF
:100F8000FF90EF90DF90CF90BF90AF909F908F90A9
:100F90007F900895FC0190810180F281E02DF8940A
:100FA0008181892B81832281892F80952823228327
:100FB000A7E0B0E01197F1F7218182238183A3E2BA
:100FC000B0E01197F1F780817894EFECF0E0319781
:100FD000F1F7982381E009F480E00895FC01908105
:100FE0000180F281E02D892F809560FF12C0F89476
:100FF0002281822382838181892B8183A3E2B0E0D5
:101000001197F1F78281982B9283789487ED90E085
:1010100011C0F8942281822382838181892B81836C
:10102000AFEFB0E01197F1F78281982B928378941B
:101030008FE090E00197F1F70895CF92DF92EF9261
:10104000FF920F931F93CF93DF931F92CDB7DEB71D
:101050006C01E62E08E010E0FF24F39461E08F2D90
:101060008E2109F460E0C6014983B8DFFF0C01500E
:10107000110949810115110589F7411115C0F8942D
:10108000D6011196ED91FC91129791818C918095EA
:10109000892381831196ED91FC91129792818C9115
:1010A00080958923828378940F90DF91CF911F914F
:1010B0000F91FF90EF90DF90CF900895CF92DF9245
:1010C000EF92FF920F931F93CF93DF931F92CDB7B1
:1010D000DEB78C01F62E40E065E57983AEDFCF2CDC
:1010E0007981D72E760188E0E80EF11CF601619136
:1010F0006F0140E0C801A1DFCE14DF04B9F70F9003
:10110000DF91CF911F910F91FF90EF90DF90CF90E3
:101110000895FC0190810180F281E02DF894818195
:10112000292F20958223818378948DE743E050E036
:10113000815021F1DA011197F1F730813923C1F3A0
:10114000F8948281822382838181892B81837894A0
:10115000ABECB7E01197F1F7F89481812823218354
:10116000ABE3B1E01197F1F78081982381E009F0BA
:1011700080E07894EBE8F6E03197F1F70895EF928C
:10118000FF920F931F93CF93DF9300D000D0CDB782
:10119000DEB77C0165ED7BE0CE01019692D561EE74
:1011A0007BE0CE010196BAD467E573E0A0D4B70125
:1011B000B5D4BC01C701D8D4CE01019623D5D7013F
:1011C00014960D911C9115970115110519F41092A3
:1011D000CD0511C00336110510F003E610E0F7014C
:1011E00060817181A8018DEC95E00E943C3BF80183
:1011F000E353FA4F108261E081E19FD680918E0324
:1012000090918F03892B71F18EE393E09A83898308
:1012100080911F0C9091200CA091210CB091220C78
:101220008B839C83AD83BE8343E059EDBE016F5F2A
:101230007F4F87EE9BE00E94AE18E091E70BF091A4
:10124000E80BD70114964D915C9115970280F381BC
:10125000E02D6DEC75E087EE9BE0199587EE9BE045
:101260000E946C1861E080E168D6B701CE0101965A
:1012700028D560E673E0CE01019639D4FC014481A3
:101280005581608171818DE496E091D0CE01019607
:10129000B9D46091020270910302072E000C880BF2
:1012A000990BB6D660E080E148D660E081E145D692
:1012B00026960FB6F894DEBF0FBECDBFDF91CF915B
:1012C0001F910F91FF90EF900895CF92DF92EF92D0
:1012D000FF920F931F93CF93DF93CDB7DEB72F9776
:1012E0000FB6F894DEBF0FBECDBF7C016B0161E687
:1012F00073E0EFD4860188E0C80ED11CF80181911B
:101300008F011B861A861D861C861F861E8640E15D
:10131000BE016F5F7F4F90E00E943034BE016F5F6F
:101320007F4FCE010A960BD44E855F856A857B85FB
:10133000C701B0D3CE010A9665D40C151D05F1F690
:10134000C7012F960FB6F894DEBF0FBECDBFDF9159
:10135000CF911F910F91FF90EF90DF90CF90089564
:101360000F931F93CF93DF93EC018AD608811981E5
:101370002A813B81DC01CB01801B910BA20BB30BBB
:101380000C811D812E813F8180179107A207B30731
:1013900038F076D6688379838A839B8381E001C0A5
:1013A00080E0DF91CF911F910F9108950895CF9222
:1013B000DF92EF92FF920F931F93CF93DF936C0115
:1013C0007A018B01C0E0D0E0CE15DF0589F0D801AD
:1013D0006D918D01D601ED91FC910190F081E02D90
:1013E000C6011995892B11F47E0102C02196ECCF1C
:1013F000C701DF91CF911F910F91FF90EF90DF9088
:10140000CF900895FC01A089B1898C91A689B789F4
:1014100082FD0FC09C91818D8F5F8F73228D82170B
:1014200049F0218DDF01A20FB11D5D969C93818F44
:1014300008958C910895FC01538D448D252F30E043
:10144000842F90E0821B930B541710F0CF960895D1
:1014500001970895FC01918D828D981761F0828D1E
:10146000DF01A80FB11D5D968C91928D9F5F9F73D8
:10147000928F90E008958FEF9FEF0895FC01918D7A
:10148000828D981731F0828DE80FF11D858D90E0E7
:1014900008958FEF9FEF0895FC01918D228D892F84
:1014A00090E0805C9F4F821B91098F73992708956C
:1014B0008DE496E0F1DF21E0892B09F420E0822F12
:1014C00008958AEE96E0E8DF21E0892B09F420E018
:1014D000822F0895FC01848DDF01A80FB11DA35A4E
:1014E000BF4F2C91848D90E001968F739927848F44
:1014F000A689B7892C93A089B1898C9180648C933B
:10150000938D848D981306C00288F389E02D808125
:101510008F7D80830895EF92FF920F931F93CF9357
:10152000DF93EC0181E0888F9B8D8C8D981305C033
:10153000E889F989808185FD23C0F62E0B8D10E0A6
:101540000F5F1F4F0F731127E02E8C8DE8120BC019
:101550000FB607FCFACFE889F989808185FFF5CFBE
:10156000CE01B8DFF2CF8B8DFE01E80FF11DE35AFB
:10157000FF4FF0820B8FEA89FB898081806207C070
:10158000EE89FF896083E889F9898081806480839E
:1015900081E090E0DF91CF911F910F91FF90EF904C
:1015A0000895CF93DF93EC01888D8823C1F0EA89F9
:1015B000FB89808185FD05C0A889B9898C9186FD4C
:1015C0000EC00FB607FCF5CF808185FFF2CFA8894A
:1015D000B9898C9185FFEDCFCE017CDFE8CFDF911B
:1015E000CF91089580E090E0892B19F06ADF811196
:1015F00020C080E090E0892B41F080E090E0892BD2
:1016000021F00E940000811117C080E090E0892B3A
:1016100041F080E090E0892B21F00E9400008111D0
:101620000EC080E090E0892B79F042DF81110AC082
:1016300008950E940000DDCF0E940000E6CF0E94C6
:101640000000EFCF0C940000089590E0FC0131976A
:10165000E231F10508F04EC08827EC57FF4F8F4F5D
:101660000C94D338809180008F7703C080918000E4
:101670008F7D80938000089580918000877FF9CFCF
:1016800084B58F7702C084B58F7D84BD0895809125
:10169000B0008F7703C08091B0008F7D8093B00041
:1016A0000895809190008F7707C0809190008F7D82
:1016B00003C080919000877F80939000089580916F
:1016C000A0008F7707C08091A0008F7D03C080911C
:1016D000A000877F8093A0000895809120018F77DC
:1016E00007C0809120018F7D03C080912001877FFA
:1016F0008093200108953FB7F89480913606909129
:101700003706A0913806B091390626B5A89B05C0CA
:101710002F3F19F00196A11DB11D3FBFBA2FA92F70
:10172000982F8827820F911DA11DB11DBC01CD01ED
:1017300042E0660F771F881F991F4A95D1F70895D9
:101740000E94F33A4F925F926F927F92EF92FF92D4
:101750000F931F93CF93DF93CDB7DEB7A1970FB64B
:10176000F894DEBF0FBECDBF7C01FA01CB0119A2F8
:10177000223008F42AE08E010F5D1F4F422E512CBB
:10178000612C712CBF01A30192010E940E38F90156
:10179000CA01015011096A3014F4605D01C0695C2E
:1017A000D8016C93232B242B252B61F701151105F0
:1017B00091F0F80101900020E9F73197AF01401B4B
:1017C000510BD701ED91FC910280F381E02DB8011E
:1017D000C701199502C080E090E0A1960FB6F89479
:1017E000DEBF0FBECDBFDF91CF911F910F91FF9054
:1017F000EF907F906F905F904F900895CF93DF931D
:10180000EC0188819981009711F00E947739198243
:1018100018821D821C821B821A82DF91CF9108954B
:101820000F931F93CF93DF93EC01888199810097E9
:1018300029F02A813B812617370788F48B016F5FD7
:101840007F4F0E940F3A009761F0998388831B8332
:101850000A832C813D81232B11F4FC01108281E04D
:1018600001C080E0DF91CF911F910F910895EF9219
:10187000FF920F931F93CF93DF93EC017B018A01BB
:10188000BA01CEDF811103C0CE01B8DF07C01D83CE
:101890000C83B701888199810E94273BCE01DF919B
:1018A000CF911F910F91FF90EF9008958F929F928B
:1018B000AF92BF92CF92DF92EF92FF920F931F935E
:1018C000CF93DF937C01EB016C0182E0C80ED11C49
:1018D0004701E5E08E0E911C00E010E0F601419119
:1018E0006F0150E060E070E02AE0CE012BDF5C0188
:1018F000E881F9810190F081E02D6EE2CE01199529
:101900008A0D9B1D080F191FC814D90439F7F70158
:10191000458150E060E070E02AE0CE0113DF800FE7
:10192000911FDF91CF911F910F91FF90EF90DF906A
:10193000CF90BF90AF909F908F900895AF92BF923D
:10194000CF92DF92EF92FF920F931F93CF93DF938B
:10195000DC01CD90DC901197C114D10409F442C090
:101960001496CD91DC9115972097E1F18C015601E9
:101970007501BFEFAB1ABB0AF7018081082E000C7E
:10198000990B0E94AE36892B99F72197CC0DDD1D5E
:101990008881082E000C990B0E94AE36892B91F499
:1019A000AE014F5F5F4F4E195F09D80115965C93EA
:1019B0004E931497CE14DF0450F4B701C6010E9471
:1019C000043B05C0CE15DF0558F32197E1CFD801C0
:1019D000ED91FC91119714968D919C911597E80FBC
:1019E000F91F1082DF91CF911F910F91FF90EF901F
:1019F000DF90CF90BF90AF900895FB014481558157
:101A0000FC01248135812417350778F0808191818C
:101A1000009759F0FB01608171816115710529F012
:101A20000E942E3B21E0892B09F020E0822F0895AF
:101A3000FC0124813581FB01448155812417350740
:101A400021F5FC0180819181FB016081718100970A
:101A500019F061157105A1F46115710549F0232B89
:101A6000B1F0FB01808190E09195819591090AC0C8
:101A7000009769F0232B59F0FC01808190E002C0AF
:101A80000E941E3B21E0892B19F020E001C021E0DB
:101A9000822F0895EF92FF920F931F93CF93DF93BE
:101AA000FC01248135816115710511F480E018C0B5
:101AB00041155105A1F07B01EC018A01020F131FB2
:101AC000B801AEDE882391F3288139818C819D8114
:101AD000B701820F931F0E94273B1D830C8381E077
:101AE000DF91CF911F910F91FF90EF900895CF93C9
:101AF000DF93EC016115710559F0FB0101900020A5
:101B0000E9F73197AF01461B570BC4DF811102C0C3
:101B1000CE0174DECE01DF91CF910895CF93DF9394
:101B2000EC01FB014481558160817181B3DF81113A
:101B300002C0CE0163DECE01DF91CF910895CF9335
:101B4000DF93EC016115710551F0FB01019000205C
:101B5000E9F73197AF01461B570B89DE01C04EDE16
:101B6000CE01DF91CF910895CF93DF93EC01FB017C
:101B70008617970751F0608171816115710521F019
:101B80004481558174DE01C039DECE01DF91CF91F1
:101B900008950F931F93CF93DF938C01EB01FC010A
:101BA000808191810097B1F068817981611571051B
:101BB00079F0428153812C813D814217530740F0D7
:101BC0000E94273B8C819D81F8019583848313C0FB
:101BD0000E94773988819981F801918380838A8175
:101BE0009B81938382838C819D81958384831982D9
:101BF00018821B821A821D821C82DF91CF911F9155
:101C00000F910895FC01808191810C947739EF92B6
:101C1000FF920F931F93CF93DF93CDB7DEB7A197BA
:101C20000FB6F894DEBF0FBECDBF7C01CB01BA0169
:101C3000F70111821082138212821582148242E00F
:101C4000420F8E010F5F1F4F0E946D33BC01C70111
:101C500076DFA1960FB6F894DEBF0FBECDBFDF9141
:101C6000CF911F910F91FF90EF9008950F931F93C5
:101C7000CF93DF93CDB7DEB762970FB6F894DEBF90
:101C80000FBECDBF8C01CB01F801118210821382EF
:101C900012821582148250E0BE016F5F7F4F0E9456
:101CA0000734BE016F5F7F4FC80149DF62960FB6F0
:101CB000F894DEBF0FBECDBFDF91CF911F910F9182
:101CC0000895FC01118210821382128215821482FF
:101CD0004BCFFC0111821082138212821582148272
:101CE0006115710549F0FB0101900020E9F731977A
:101CF000AF01461B570BBBCD0895BF92CF92DF9229
:101D0000EF92FF920F931F93CF93DF937C016B01B0
:101D10008A01E9012417350720F4812F8901C42F96
:101D2000D82F61E673E0C701D4DFD60114968D91F8
:101D30009C91159708171907C8F48C179D0708F48C
:101D4000EC01D601ED91FC911197EC0FFD1FB080D5
:101D500010824D915C91BA01600F711FC701EFDED7
:101D6000D601ED91FC91EC0FFD1FB082C701DF9110
:101D7000CF911F910F91FF90EF90DF90CF90BF9088
:101D800008952EE333E0FC0131832083FB01408181
:101D9000518162817381FC01428353836483758323
:101DA00008951F920F920FB60F9211240BB60F9247
:101DB0002F933F934F935F936F937F938F939F9353
:101DC000AF93BF93EF93FF938DE496E083DBFF9196
:101DD000EF91BF91AF919F918F917F916F915F91A3
:101DE0004F913F912F910F900BBE0F900FBE0F9010
:101DF0001F9018951F920F920FB60F9211240BB6D9
:101E00000F922F933F934F935F936F937F938F9393
:101E10009F93AF93BF93EF93FF938DE496E0F2DA35
:101E2000FF91EF91BF91AF919F918F917F916F91B2
:101E30005F914F913F912F910F900BBE0F900FBE6E
:101E40000F901F9018951F920F920FB60F921124AA
:101E50000BB60F922F933F934F935F936F937F93A4
:101E60008F939F93AF93BF93EF93FF938AEE96E088
:101E700031DBFF91EF91BF91AF919F918F917F9156
:101E80006F915F914F913F912F910F900BBE0F90EB
:101E90000FBE0F901F9018951F920F920FB60F92C2
:101EA00011240BB60F922F933F934F935F936F9331
:101EB0007F938F939F93AF93BF93EF93FF938AEE9C
:101EC00096E0A0DAFF91EF91BF91AF919F918F9132
:101ED0007F916F915F914F913F912F910F900BBE2A
:101EE0000F900FBE0F901F901895CF93DF93282F60
:101EF00030E0F901EA5DFD4F8491F901E050FC4FBB
:101F0000D491F901E654FC4FC491CC2389F081119E
:101F10009CDBEC2FF0E0EE0FFF1FE056FC4FA5918D
:101F2000B491EC91ED2381E090E021F480E002C0D7
:101F300080E090E0DF91CF9108951F93CF93DF93DE
:101F4000282F30E0F901EA5DFD4F8491F901E0505E
:101F5000FC4FD491F901E654FC4FC491CC23C1F05D
:101F6000162F811172DBEC2FF0E0EE0FFF1FE4590A
:101F7000FD4FA591B4918FB7F894111105C09C91B4
:101F8000ED2FE095E92302C0EC91ED2BEC938FBF90
:101F9000DF91CF911F910895CF93DF9390E0FC01E3
:101FA000E050FC4F2491FC01E654FC4F84918823BF
:101FB00061F190E0880F991FFC01EA57FC4FC59131
:101FC000D491FC01E459FD4FA591B491611109C070
:101FD0009FB7F8948881209582238883EC912E23E3
:101FE0000BC0623061F49FB7F8943881822F8095DE
:101FF00083238883EC912E2B2C939FBF06C08FB731
:10200000F894E8812E2B28838FBFDF91CF9108951C
:102010008F929F92AF92BF92CF92DF92EF92FF92F8
:102020006B017C0168DB4B015C01C114D104E1044C
:10203000F104E9F060DBDC01CB0188199909AA09F8
:10204000BB09883E9340A105B10578F321E0C21A8F
:10205000D108E108F10888EE880E83E0981EA11CE3
:10206000B11CC114D104E104F10421F7DECFFF90CB
:10207000EF90DF90CF90BF90AF909F908F9008959A
:102080002FB7F89460913206709133068091340630
:10209000909135062FBF08951F920F920FB60F92A1
:1020A00011242F933F938F939F93AF93BF9380916E
:1020B000320690913306A0913406B09135063091E6
:1020C000310623E0230F2D3720F40196A11DB11D09
:1020D00005C026E8230F0296A11DB11D20933106ED
:1020E0008093320690933306A0933406B09335065E
:1020F0008091360690913706A0913806B091390646
:102100000196A11DB11D8093360690933706A093CA
:102110003806B0933906BF91AF919F918F913F914F
:102120002F910F900FBE0F901F9018952C9A089525
:102130002C980895CF92DF92EF92FF920F931F9306
:10214000CF93DF93EC017A018B016C01C40ED51E95
:10215000CC15DD0579F0ECDF8FE0C7D38D2FC5D32B
:102160008C2FC3D3219680E0C0D3F80181938F01D7
:10217000DDDFEECFC701DF91CF911F910F91FF906F
:10218000EF90DF90CF900895CF92DF92EF92FF9281
:102190000F931F93CF93DF93EC017A018B016C01B6
:1021A000C40ED51ECC15DD0571F0C2DF80EF9DD3C6
:1021B0008D2F9BD38C2F99D32196F80181918F017C
:1021C00094D3B4DFEFCFC701DF91CF911F910F916F
:1021D000FF90EF90DF90CF9008951F93CF93DF9300
:1021E0001F921F92CDB7DEB7182F6A839983A0DFA5
:1021F00080EF7BD39981892F78D3812F76D36A8121
:10220000862F73D393DF81E00F900F90DF91CF91F2
:102210001F9108951F93CF93DF93182F66E270E00C
:102220003BD7C82FD0E067E270E0812F35D7DC2F95
:10223000CC279E01282BC901DF91CF911F910895D2
:10224000FC019485FB018485981303C081E09430E0
:1022500009F480E0089521E0FC018485843009F4CC
:1022600020E0822F08950895CF93DF931F92CDB77A
:10227000DEB76983DC01ED91FC910280F381E02DF2
:1022800041E050E0BE016F5F7F4F19950F90DF91E5
:10229000CF910895DC01ED91FC91068CF78DE02D36
:1022A000199591E089270895862F089581E0862762
:1022B0000895089580E090E008950F931F93CF93C1
:1022C000DF931F92CDB7DEB78C01DC01ED91FC915D
:1022D0000084F185E02D1995892B49F0BE016F5FCF
:1022E0007F4FF801848508D3898190E002C08FEF89
:1022F0009FEF0F90DF91CF911F910F910895FC01F7
:10230000848551C3CF93DF931F92CDB7DEB741E0F1
:1023100050E0BE016F5F7F4FFC01848544D31816E7
:1023200019061CF4898190E002C08FEF9FEF0F9097
:10233000DF91CF910895FC018485843009F013C3A7
:1023400080E090E008958F929F92AF92BF92CF92DB
:10235000DF92EF92FF920F931F93CF93DF936C0165
:102360005B017A01FC01C485C43041F481E090E056
:10237000F6019383828380E090E052C08A0141306D
:10238000584010F000E018E080E590E00E947B02E9
:102390008C2F0E94CF1A4C0163E070E08C2F7CD60A
:1023A000D82F0E947A02D73111F0DC3121F4801647
:1023B000910650F302C000E010E080E590E00E943A
:1023C0007B029801A50160E070E08C2F0E946E1ADC
:1023D00060E270E08C2F0E94AC1C62E070E08C2FF9
:1023E0005BD684FD12C063E070E08C2F55D681115E
:1023F00005C00E947A028C2F6AD3B8CF0E947A025D
:1024000080E590E00E947B02E8CF40E162E070E06E
:102410008C2F39D60E947A02012B09F4A7CFC7016D
:10242000DF91CF911F910F91FF90EF90DF90CF90B0
:10243000BF90AF909F908F900895CF92DF92EF92D0
:10244000FF920F931F93CF93DF93CDB7DEB7E19742
:102450000FB6F894DEBF0FBECDBF7C016A010EE35C
:1024600013E01A8309831B821C821D821E82CE0107
:10247000099668AB79AB85D51DA30CA31EA21FA23C
:1024800018A619A680918F0790919007A0919107A7
:10249000B09192078CA79DA7AEA7BFA78B839C8303
:1024A000AD83BE8318861F82AE014C5D5F4F68A965
:1024B00079A9CE0101960E947E0281309105B1F486
:1024C000D701ED91FC910684F785E02D1BA70AA7A3
:1024D0008EA19FA1A8A5B9A58CA79DA7AEA7BFA7B0
:1024E000A601BE01665D7F4FC7011995E1960FB643
:1024F000F894DEBF0FBECDBFDF91CF911F910F913A
:10250000FF90EF90DF90CF900895FC018485843098
:1025100009F0A0C380E008958F929F92AF92BF927E
:10252000CF92DF92EF92FF920F931F93CF93DF939F
:10253000CDB7DEB72D970FB6F894DEBF0FBECDBF77
:102540007C0100E010E038EE832E33E0932EA12CC6
:10255000B12C4EEFC42E42E0D42E1C821B828D8201
:102560009E82AF82B886DA82C9820D87CE0101963B
:10257000CCDF811123C0F7014481558120E061E067
:10258000802FB7D280E590E00E947B0263E070E08C
:10259000802F82D5833129F462E070E0802F0E9481
:1025A000AC1C0E947A02F70184819581000F111FF3
:1025B000F801EA57FC4F9183808305C00F5F1F4FDE
:1025C0000430110551F62D960FB6F894DEBF0FBEFC
:1025D000CDBFDF91CF911F910F91FF90EF90DF90D2
:1025E000CF90BF90AF909F908F900895CF93DF933F
:1025F000FC0124852430C9F0EC0187DF843181F0AF
:10260000882371F0883161F08C3161F4E881F981BF
:102610000084F185E02DCE01199521E0892B19F474
:1026200020E001C021E0822F01C080E0DF91CF9146
:102630000895CF92DF92EF92FF921F93CF93DF9393
:10264000FC011485143081F1EC0180E590E00E94DA
:102650007B0268E070E0812F0E94AC1C0E947A022D
:102660000FDD6B017C01CE0150DF882399F061E022
:1026700070E080E090E0CCDC03DDDC01CB018C1964
:102680009D09AE09BF09883E9340A105B10558F3E5
:102690008C851DD2EC85F0E0EE0FFF1FEA57FC4F52
:1026A0001182108284E08C87DF91CF911F91FF907F
:1026B000EF90DF90CF9008954F925F926F927F924C
:1026C0008F929F92AF92BF92CF92DF92EF92FF9242
:1026D0001F93CF93DF93CDB7DEB72D970FB6F89446
:1026E000DEBF0FBECDBF7C0196E8A92E93E0B92EC8
:1026F00010E0C12CD12C28EE422E23E0522E612C6A
:10270000712C3EEF832E32E0932E1C821B824D8271
:102710005E826F8278869A8289821D87D5012D918B
:102720003D915D01F701848195812817390799F45E
:10273000CE010196EADE843159F0CE010196E5DE44
:102740008C3149F4CE010196F6DD892B91F003C05E
:10275000CC24C394D12C1F5F1430B9F6CD2869F472
:10276000D701ED91FC910084F185E02DC701199509
:1027700004C0CE0101965DDFEECF2D960FB6F89422
:10278000DEBF0FBECDBFDF91CF911F91FF90EF90C5
:10279000DF90CF90BF90AF909F908F907F906F9081
:1027A0005F904F900895CF92DF92FF920F931F9307
:1027B000CF93DF93FC012485243009F072C06A01B5
:1027C000EB018C01F12C8F2D45D2811103C0F80152
:1027D000F48607C08B7F8831D1F3F394F4E0FF12C5
:1027E000F2CFF8018485843009F45BC0209108029F
:1027F000309109022F5F3F4F11F420E030EC30930D
:10280000090220930802409108025091090220E039
:1028100061E06FD1F801F4848A818F3F51F48B819C
:102820008F3F91F48C818F3F79F48D818F3F61F4DC
:1028300035C0811109C08B81811106C08C81811145
:1028400003C08D81882351F1C114D10439F180E591
:1028500090E00E947B02BE016E5F7F4F8F2D90E063
:10286000982F882744E050E0845F9B4F8DDCB601B1
:102870008F2D65D464E070E08F2D0E94AC1C0E9407
:102880007A02C80142DE873179F061E070E080E0D1
:1028900090E0BEDBC80139DE8111F3CF84E0F8019E
:1028A000848780E090E002C081E090E0DF91CF91EA
:1028B0001F910F91FF90DF90CF90089508951F937F
:1028C000CF93DF93182F60E270E0E6D3C82FD0E0FB
:1028D00061E270E0812FE0D3DC2FCC279E01282B12
:1028E000C901DF91CF911F9108958EBD00000DB4F5
:1028F00007FEFDCF8EB508951F93CF93DF931F92F0
:102900001F92CDB7DEB7182F80E590E069837A83F8
:102910000E947B0221E041E050E069817A81812FB1
:1029200079D50E947A0281E090E00F900F90DF91BC
:10293000CF911F910895CF93DF931F92CDB7DEB74C
:10294000FC01218D328D232B41F0BE016F5F7F4F43
:10295000808DD2DF898190E002C08FEF9FEF0F90D2
:10296000DF91CF910895FF920F931F93CF93DF9341
:10297000F82E80E590E00E947B02C0E0D0E08F2D31
:1029800049DC8C01892B19F08F2D44DCEC01C01738
:10299000D107A9F70E947A02CE01DF91CF911F9152
:1029A0000F91FF900895AF92BF92CF92DF92EF9276
:1029B000FF921F93CF93DF93182F5B017A0180E57D
:1029C00090E00E947B02C0E0D0E0812F23DC6C010C
:1029D000892B19F0812F1EDCEC01CC15DD05A9F740
:1029E000209791F463E070E0812F56D38431E1F0B9
:1029F0008823D1F0C1E0D0E08C3111F4C0E0D0E008
:102A0000D195C195D10910C0EC16FD060CF4E70173
:102A10001C161D064CF420E0AE01B501812FFAD43E
:102A200060E470E0812F98D70E947A02CE01DF9196
:102A3000CF911F91FF90EF90DF90CF90BF90AF901C
:102A40000895CF93DF93FC01218D328D211531053F
:102A500019F48FEF9FEF10C0EC014217530708F0F5
:102A6000A901888DA0DF181619069CF7298D3A8DCB
:102A7000281B390B3A8F298FDF91CF9108950F933F
:102A80001F93CF93DF931F92CDB7DEB7FC01218D4B
:102A9000328D232B59F08C0141E050E0BE016F5F75
:102AA0007F4F808D80DF181619061CF08FEF9FEF87
:102AB00008C0F801818D928D0197928F818F898155
:102AC00090E00F90DF91CF911F910F910895CF93D8
:102AD000C82F80E590E00E947B0260E170E08C2FBF
:102AE0003BD74FEF62E070E08C2FCDD2CF910C94AA
:102AF0007A02FF920F931F93CF93DF931F921F923F
:102B0000CDB7DEB7F82E8A012A836983E0DF80E53E
:102B100090E00E947B022A816981462F422B60E06F
:102B200070E08F2DB0D20115110551F400913A06D5
:102B300010913B060F5F1F4F10933B0600933A0620
:102B4000412F64E070E08F2D9ED2402F65E070E051
:102B50008F2D99D261E070E08F2DFED60E947A020F
:102B600081E00F900F90DF91CF911F910F91FF9017
:102B70000895BF92CF92DF92EF92FF920F931F932F
:102B8000CF93DF9300D000D0CDB7DEB7FC01208D0E
:102B9000243009F04EC06A017B018C01B12C63E046
:102BA00070E08B2D79D2811103C0F801B08E06C080
:102BB0008831D9F3B394F4E0BF12F1CFF801808DDE
:102BC0008430B9F196E0EAE8F2E0DE011196019076
:102BD0000D929A95E1F7F70193819F779C839481F9
:102BE0009D8395819E83B7016E5F7F4F90E0982F04
:102BF000882744E050E0845F9B4FC6DAB601F801B5
:102C0000808D9DD2F801808D90E0982F882746E036
:102C100050E0BE016F5F7F4F8A5F9B4FB5DAF801CE
:102C2000128E118E20E8A60162E0808D62DF81E0C5
:102C300001C080E026960FB6F894DEBF0FBECDBF70
:102C4000DF91CF911F910F91FF90EF90DF90CF9088
:102C5000BF9008951F93CF93DF931F92CDB7DEB738
:102C6000182F80E590E00E947B0263E070E0812FE6
:102C700013D289830E947A0289810F90DF91CF91CC
:102C80001F910895CF93DF931F92CDB7DEB769836D
:102C9000DC01ED91FC910280F381E02D41E050E0F8
:102CA000BE016F5F7F4F19950F90DF91CF9108950F
:102CB000FC01818D928D0895FC0184899589089588
:102CC0002EE333E0FC0131832083FB0140895189ED
:102CD00062897389FC0142835383648375830895F9
:102CE00080E00895CF93DF931F92CDB7DEB769835D
:102CF000DC01ED91FC910280F381E02D41E050E098
:102D0000BE016F5F7F4F19950F90DF91CF910895AE
:102D10000F931F93CF93DF93CDB7DEB728970FB6EE
:102D2000F894DEBF0FBECDBF8C01F801818D928D6E
:102D3000892B49F0D801ED91FC910284F385E02DB7
:102D4000C8011995F2CF808D0EDE1816190654F5BC
:102D500048E050E0BE016F5F7F4FD80158968C91DC
:102D600022DE9C0118161906DCF489819A81AB8158
:102D7000BC81F801808B918BA28BB38B8D8190E00D
:102D8000982F88272E81820F911D958B848B2F8100
:102D900030E0322F22278885280F311D328F218F76
:102DA000C90102C080E090E028960FB6F894DEBF1B
:102DB0000FBECDBFDF91CF911F910F910895AF92BC
:102DC000BF92CF92DF92FF920F931F93CF93DF9327
:102DD0008C015B01EA01FC01C688D788F08C80E594
:102DE00090E00E947B028F2DDAD38C179D0718F498
:102DF0008F2DD5D3EC019E01A501B6018F2D6ED389
:102E00000E947A02F801868997898C0F9D1F978B03
:102E1000868BCE01DF91CF911F910F91FF90DF90B4
:102E2000CF90BF90AF900895CF93DF93EC01888D42
:102E3000843059F04CDEE88DF0E0EE0FFF1FEA57CA
:102E4000FC4F1182108284E0888FDF91CF9108952A
:102E5000EF92FF921F93CF93DF93FC01208D2430DC
:102E600011F080E01AC07B01EC0110E0812FF2DE4E
:102E7000811102C0188F05C08831E1F31F5F143043
:102E8000A9F7888D843069F3FD86EC861A8E198E39
:102E900020E0A70162E02DDE81E0DF91CF911F915C
:102EA000FF90EF9008952F923F924F925F926F9212
:102EB0007F928F929F92AF92BF92CF92DF92EF92CA
:102EC000FF920F931F93CF93DF93CDB7DEB72E976B
:102ED0000FB6F894DEBF0FBECDBF7C016B015A0167
:102EE000EBDB06E813E020E0612C712C88EE282E45
:102EF00083E0382E412C512C9EEF892E92E0992EA2
:102F00001C821B822D823E824F8258869A82898241
:102F10002D87F801419151918F01F70184819581AD
:102F20004817590739F4CE0101962E87EEDA2E851F
:102F30008731E9F02F5F243019F7C3012E960FB6C1
:102F4000F894DEBF0FBECDBFDF91CF911F910F91DF
:102F5000FF90EF90DF90CF90BF90AF909F908F90B9
:102F60007F906F905F904F903F902F900895A501B4
:102F7000B601CE0101962E87E6D9680E791E2E8500
:102F8000D9CFFC011382128288EE93E0A0E0B0E07A
:102F900084839583A683B78384E992E091838083B9
:102FA0008EE393E097878687108A118A128A138AA4
:102FB00084E0808F0895CF92DF92EF92FF920F937B
:102FC0001F93CF93DF93CDB7DEB7E1970FB6F89499
:102FD000DEBF0FBECDBF7C016A010EE313E01A8392
:102FE00009831B821C821D821E82CE01099668AB5A
:102FF00079ABC7DF1DA30CA31EA21FA218A619A69A
:1030000080918F0790919007A0919107B0919207BE
:103010008CA79DA7AEA7BFA78B839C83AD83BE83E0
:1030200018861F82AE014C5D5F4F68A979A9CE0159
:1030300001960E947E0281309105B1F4D701ED9195
:10304000FC910488F589E02D1BA70AA78EA19FA1FA
:10305000A8A5B9A58CA79DA7AEA7BFA7A601BE012D
:10306000665D7F4FC7011995E1960FB6F894DEBFF4
:103070000FBECDBFDF91CF911F910F91FF90EF90C9
:10308000DF90CF9008959B0190E00496982F8827B9
:10309000642F820F931FA1C80F931F93CF93DF93C9
:1030A0001F92CDB7DEB790E00496982F88278C0149
:1030B000060F171F3DD88FE018DC812F16DC802FFC
:1030C00014DC80E012DC898331D889810F90DF9194
:1030D000CF911F910F910895CF93FC01C08D80E592
:1030E00090E00E947B0260E270E08C2F35D462E0B9
:1030F00070E08C2FD1DF84FD17C062E070E08C2F70
:10310000CBDF83FF0AC048E162E070E08C2FBBDFB9
:103110000E947A0280E090E010C00E947A0280E56E
:1031200090E00E947B02E3CF40E162E070E08C2FF0
:10313000AADF0E947A0281E090E0CF910895CF93B8
:10314000DF93C82FD62F472F60E170E09CDF4D2F13
:1031500061E170E08C2FDF91CF9195CFFF920F93BB
:103160001F93CF93DF93FB01DC0157961C921E92B5
:1031700056975896FC908281811109C083818111F4
:1031800006C08481811103C085818823F1F0411537
:103190005105D9F08A01EF0180E590E00E947B02A1
:1031A000BE016E5F7F4F2F2D30E0922F882744E0C5
:1031B00050E0845F9B4F0E94C410B8018F2DBFDF89
:1031C0000E947A0281E090E002C080E090E0DF910E
:1031D000CF911F910F91FF900895CF936CE271E012
:1031E00080E090E00E940810CFB7F89480913C06F0
:1031F000811127C0EFEEF3E08491E5E3F4E09491D0
:10320000E82FF0E0EE0FFF1FEA57FC4FA591B491B5
:10321000EC91E92321F461E085E30E949D0F61E0D8
:1032200085E30E94CC0F8CB580618CBD8CB5806429
:103230008CBD61E084E30E94CC0F61E083E30E94D7
:10324000CC0F80913C068F5F80933C06CFBF249AC1
:1032500080E590E00E947B0260E880E090E00E94C0
:10326000ED1065E58BE190E00E94ED1065E58AE1E7
:1032700090E00E94ED100E947A0280E090E490932A
:103280003E0680933D0680E090E69093460680934C
:10329000450680E098E49093400680933F0680E0E6
:1032A00098E6909348068093470680E090E59093D7
:1032B00042068093410680E090E790934A0680930F
:1032C000490680E098E5909344068093430680E0A9
:1032D00098E790934C0680934B06CF9108951F93E7
:1032E000CF93DF93CDB7DEB7C254D1090FB6F894B0
:1032F000DEBF0FBECDBFFC0182819381A481B58169
:1033000023968CAF9DAFAEAFBFAF239711E023964E
:103310001FAF239723964CAD5DAD6EAD7FAD239768
:103320004BAB5CAB6DAB7EAB8DA79EA7AFA7B8AB2D
:1033300018AB4DA55EA56FA578A94FA358A769A79F
:103340007AA71EAB4BA95CA96DA97EA949A35AA374
:103350006BA37CA32EE333E03C8B2B8B4FEF4D8B89
:103360004E8B4F8B188E3E872D871AA74FA158A5DD
:1033700069A57AA54F87588B698B7A8B1CA349A1C5
:103380005AA16BA17CA149875A876B877C873A83B6
:1033900029838B839C83AD83BE831FDF80E590E010
:1033A0000E947B0246E050E06AE072E089E090E033
:1033B0000E94C410CE0103960E94730244E050E0C4
:1033C000BE01615F7F4F81E090E00E94C41044E045
:1033D00050E0BE016B5E7F4F85E090E00E94C4101C
:1033E0000E947A021C8789859A85AB85BC8580936B
:1033F0008F0790939007A0939107B0939207CE5BAD
:10340000DF4F0FB6F894DEBF0FBECDBFDF91CF9177
:103410001F9108958F929F92AF92BF92CF92DF92A9
:10342000EF92FF920F931F93CF93DF93B82E4B0130
:103430008A01A22E68E270E02FDEC82FD0E069E298
:1034400070E08B2D29DEDC2FCC27C82B9E01377036
:10345000CB2CD12CC601880F991FAC014B5B594F67
:103460006A01FA0180819181820F931FA801420FA6
:10347000531F4130584098F060E078E07B01E21A39
:10348000F30AA701B4010E949A10A8014E195F091E
:10349000B4016E0D7F1DF6018081918102C0A801EB
:1034A000B4010E949A10A1100CC0C00FD11F4D2F63
:1034B00068E270E08B2DE7DD4C2F69E270E08B2D28
:1034C000E2DDDF91CF911F910F91FF90EF90DF90A0
:1034D000CF90BF90AF909F908F9008959F92AF92A2
:1034E000BF92CF92DF92EF92FF920F931F93CF93F1
:1034F000DF93982E8B015A01690164E270E0CCDD04
:10350000E82EF12C65E270E0892DC6DDFE2CEE245C
:10351000E82AE701C00FD11F9E013770E92CF12C7A
:10352000C701880F991FAC01435C594F7A01FA011A
:1035300080819181820F931FA9014C0D5D1D413047
:10354000584090F000E018E0021B130BA801B501F1
:103550000E94C410A601401B510BB501600F711FE2
:10356000F7018081918102C0A601B5010E94C410BB
:10357000CC0DDD1D4D2F64E270E0892D84DD4C2FD4
:1035800065E270E0892DDF91CF911F910F91FF903F
:10359000EF90DF90CF90BF90AF909F9074CDFF924F
:1035A0000F931F93CF93DF93F82EC0E0D0E08F2DC1
:1035B00086D98C01892B19F08F2D81D9EC01C01788
:1035C000D107A9F7CE01DF91CF911F910F91FF9005
:1035D00008956F927F928F929F92AF92BF92CF92F7
:1035E000DF92EF92FF920F931F93CF93DF93EC0143
:1035F00070939E0760939D0780919B0790919C0715
:103600000E94890860919D0770919E0780919B0799
:1036100090919C070E945E0840E068EB80919B07B8
:1036200090919C070E941D0840E060E080919B07FC
:1036300090919C070E941D0880919B0790919C0788
:103640000E94890860919D0770919E0780919B0759
:1036500090919C070E945E0840E06EEB80919B0772
:1036600090919C070E941D0840E060E080919B07BC
:1036700090919C070E941D087E014E0189E0880EF2
:10368000911C8E0160909B0770909C0788E0A82E8B
:10369000B12CCC24C394D12CC3010E94CA07811140
:1036A000DC28CC0CA1E0AA1AB108B1F7F801D1923C
:1036B0008F01E815F90531F789E0E0E0815049F024
:1036C000D7019D917D01E927F0E0EA57FD4FE49194
:1036D000F5CF81E09885E91380E0DF91CF911F91CC
:1036E0000F91FF90EF90DF90CF90BF90AF909F90A1
:1036F0008F907F906F900895CF93C82F80919B07F4
:1037000090919C070E94890860919D0770919E0787
:1037100080919B0790919C070E945E08CC23F1F05A
:1037200040E064E480919B0790919C070E941D08F3
:103730006AE070E080E090E00E94081080919B07B2
:1037400090919C070E94890860919D0770919E0747
:1037500080919B0790919C070E945E0840E064EB7B
:1037600080919B0790919C070E941D0868E070E083
:1037700080E090E00E94081081E0CF910895CF9200
:10378000DF92FF920F931F93CF93DF93CDB7DEB7F6
:1037900029970FB6F894DEBF0FBECDBF8C01709392
:1037A0009E0760939D07CE01019613DFF82E8823B4
:1037B00009F45CC099810130110511F4986001C0D1
:1037C000977F998380919B0790919C070E9489081D
:1037D00060919D0770919E0780919B0790919C0737
:1037E0000E945E0840E06EE480919B0790919C07E8
:1037F0000E941D0840E060E080919B0790919C072B
:103800000E941D088E010F5F1F4F6E0189E0C80ED8
:10381000D11CF80161918F0140E080919B0790914C
:103820009C070E941D080C151D0599F780919B07A8
:1038300090919C070E94890860919D0770919E0756
:1038400080919B0790919C070E945E0840E068E48D
:1038500080919B0790919C070E941D0840E060E0CA
:1038600080919B0790919C070E941D088F2D29969F
:103870000FB6F894DEBF0FBECDBFDF91CF911F9181
:103880000F91FF90DF90CF900895CF92DF92EF924B
:10389000FF920F931F93CF93DF93EC016A017B019B
:1038A000E889F98982E080834115514E61057105EF
:1038B000B1F060E079E08DE390E0A70196010E940D
:1038C0000E3889019A0101501109210931093695F3
:1038D000279517950795980101151041A8F0E889DB
:1038E000F989108260E874E88EE190E0A701960102
:1038F0000E940E38DA01C9010197A109B109B695F4
:10390000A795979587959C01EC85FD853083EE857D
:10391000FF852083188EEC89FD8986E08083EA8903
:10392000FB89808180618083EA89FB89808188604E
:103930008083EA89FB89808180688083EA89FB89AA
:1039400080818F7D8083DF91CF911F910F91FF90B8
:10395000EF90DF90CF900895CF93C82F462F61E06E
:1039600070E091DB61E070E08C2F96DB8111FACF83
:10397000CF9108952F923F924F925F926F927F92D4
:103980008F929F92AF92BF92CF92DF92EF92FF926F
:103990000F931F93CF93DF9300D01F92CDB7DEB765
:1039A000FC01848095808114910409F41CC160900D
:1039B000DF0B7090E00B6114710409F414C18B01EA
:1039C0009C838B83FB01C480D580C618D708FC017B
:1039D000E080F180C114D104C9F46091DB0B7091D7
:1039E000DC0BC7010E944B3B6C01892B09F4FBC027
:1039F000F8016081718144815581C6010E94043BB8
:103A0000F801E480F580EC0CFD1CE7CFD7FE02C086
:103A1000570107C04090DB0B5090DC0B5401C701ED
:103A20004AC06091DB0B7091DC0BC5010E944B3BDF
:103A30004C01892B31F134016A187B08A301B501CF
:103A4000C7010E94043BE60CF71CF80160817181FC
:103A500044815581C7010E94043BF801848195810E
:103A6000E80EF91EA090DF0BB090E00BA80CB91C7B
:103A7000EB81FC81848195818C0D9D1D95838483D0
:103A8000D0CFB501C7010F900F900F900F90DF912D
:103A9000CF911F910F91FF90EF90DF90CF90BF904B
:103AA000AF909F908F907F906F905F904F903F90DE
:103AB0002F900C94273BB2010E944B3B009729F0BA
:103AC000860D971DAC0CBD1CF6CFA814B90409F4E3
:103AD0008AC0EB81FC81828193818A159B0578F4F1
:103AE000B5016F5F7F4FC7010E940F3A009709F43D
:103AF0007AC0EB81FC8191838083B382A282EB81C7
:103B0000FC81E480F580F1E0EF1AF108F7FC6BC06E
:103B10004090DF0B5090E00B4114510409F463C056
:103B2000EB81FC81A480B580A114B10409F45BC0D1
:103B3000A414B50408F457C0EA14FB0420F075017E
:103B4000F1E0EF1AF108EB81FC8160807180209038
:103B5000DB0B3090DC0BC30188248A94982C9301F2
:103B60002E0D3F1D2817390748F0B10129833A83EC
:103B70000E944B3B29813A81009761F597FC33C045
:103B8000480C591CC301840D951DA5014419550904
:103B9000BC018C0D9D1D0E940D3BEB81FC8184813D
:103BA00095818C0D9D1D9583848320813181F90140
:103BB000E80FF91F1082EB81FC8180819181F8016F
:103BC0006081718144815581880D991D0E94043B5B
:103BD000740199CFAC0146195709E416F50608F0AF
:103BE0004A010196BFCF0F900F900F900F90DF9179
:103BF000CF911F910F91FF90EF90DF90CF90BF90EA
:103C0000AF909F908F907F906F905F904F903F907C
:103C10002F9008950F931F930E94401060935506B4
:103C2000709356068093570690935806E0914D0680
:103C3000F0914E060284F385E02D8DE496E019950F
:103C400097FF1FC00E944010009155061091560624
:103C50002091570630915806DC01CB01801B910B57
:103C6000A20BB30B009151061091520620915306FE
:103C70003091540680179107A207B307B8F28FEF6F
:103C80009FEF1F910F910895CF939C01F4E036951B
:103C90002795FA95E1F7C1E0213E41E03407A4F50C
:103CA000C0E0A90174E0440F551F7A95E1F7DC01EB
:103CB000A41BB50B220F331FF901E154F84F662303
:103CC00081F041E050E060E070E004C0440F551F17
:103CD000661F771FAA95D2F780819181482B592BB7
:103CE00011C041E050E060E070E004C0440F551F97
:103CF000661F771FAA95D2F74095509580819181D4
:103D000048235923518340838C2FCF910895CF931B
:103D1000DF93CDB7DEB7C657D1090FB6F894DEBF33
:103D20000FBECDBF789484B5826084BD84B58160B8
:103D300084BD85B5826085BD85B5816085BD809176
:103D40006E00816080936E001092810080918100EE
:103D500082608093810080918100816080938100E6
:103D6000809180008160809380008091B1008460A8
:103D70008093B1008091B00081608093B000809109
:103D80009100826080939100809191008160809386
:103D90009100809190008160809390008091A100BB
:103DA00082608093A1008091A10081608093A10036
:103DB0008091A00081608093A000809121018260A9
:103DC0008093210180912101816080932101809164
:103DD000200181608093200180917A00846080932B
:103DE0007A0080917A00826080937A0080917A00D4
:103DF000816080937A0080917A00806880937A0055
:103E00001092C10040E855E260E070E08AEE96E072
:103E10003CDD0FE1E02E0AE0F02E88E7A82E84E0DA
:103E2000B82E98EA892E94E0992E26E2C22E22E03E
:103E3000D22E00E010E066246394712CD6018C91A0
:103E4000B2E0CB0ED11C60E00E94CC0FF401619275
:103E500071924F01D5011D921D925D010F5F1F4FA1
:103E60004AE0B801CE0101960E94360E6BEA7BE073
:103E7000CE0182960E94610EBE016F5F7F4FCE0120
:103E800082960E948E0DBC01C7010E94B40DCE0126
:103E900082960E94020ECE0101960E94020EB6E0AA
:103EA000EB0EF11C0831110549F61AE5C12E12E09E
:103EB000D12EE12CF12C00E010E0F601B080F2E010
:103EC000CF0ED11C61E08B2D0E94CC0F0F5F1F4FD6
:103ED0004AE0B801CE0101960E94360E63EC7BE009
:103EE000CE0182960E94610EBE016F5F7F4FCE01B0
:103EF00082960E948E0D66E473E00E94770DBC01ED
:103F0000C701895A944F0E94B40DCE0182960E9437
:103F1000020ECE0101960E94020E4AE0B801CE01C7
:103F200001960E94360E63EC7BE0CE0182960E94E1
:103F3000610EBE016F5F7F4FCE0182960E948E0D93
:103F40006AE473E00E94770DBC01C701815F944F62
:103F50000E94B40DCE0182960E94020ECE010196FF
:103F60000E94020E60E08B2D0E949D0F26E0E20E63
:103F7000F11C0C30110509F0A0CFB2E7CB2EB2E056
:103F8000DB2EE12CF12C00E010E0D601BC90B2E079
:103F9000CB0ED11C61E08B2D0E94CC0F0F5F1F4F09
:103FA0004AE0B801CE0101960E94360E6DEB7BE02F
:103FB000CE0182960E94610EBE016F5F7F4FCE01DF
:103FC00082960E948E0D66E473E00E94770DBC011C
:103FD000C7018950954F0E94B40DCE0182960E9470
:103FE000020ECE0101960E94020E4AE0B801CE01F7
:103FF00001960E94360E6DEB7BE0CE0182960E9408
:10400000610EBE016F5F7F4FCE0182960E948E0DC2
:104010006AE473E00E94770DBC01C7018152954F9D
:104020000E94B40DCE0182960E94020ECE0101962E
:104030000E94020E60E08B2D0E949D0FE6E0EE0EC6
:10404000F11C0430110509F0A0CFAAE7CA2EA2E0A6
:10405000DA2EE12CF12C00E010E0D601BC90B2E0A9
:10406000CB0ED11C61E08B2D0E94CC0F0F5F1F4F38
:104070004AE0B801CE0101960E94360E67EB7BE064
:10408000CE0182960E94610EBE016F5F7F4FCE010E
:1040900082960E948E0D66E473E00E94770DBC014B
:1040A000C7018953954F0E94B40DCE0182960E949C
:1040B000020ECE0101960E94020E4AE0B801CE0126
:1040C00001960E94360E67EB7BE0CE0182960E943D
:1040D000610EBE016F5F7F4FCE0182960E948E0DF2
:1040E0006AE473E00E94770DBC01C7018155954FCA
:1040F0000E94B40DCE0182960E94020ECE0101965E
:104100000E94020E60E08B2D0E949D0FE6E0EE0EF5
:10411000F11C0430110509F0A0CF03E11AE0F2E828
:10412000CF2EF2E0DF2E812C912CD601FC90B2E054
:10413000CB0ED11C61E08F2D0E94CC0F5401EFEF0C
:10414000AE1ABE0A4AE0B501CE0101960E94360EB3
:1041500061EB7BE0CE0182960E94610EBE016F5F33
:104160007F4FCE0182960E948E0DBC01C8010E9435
:10417000B40DCE0182960E94020ECE0101960E94DD
:10418000020E61E08F2D0E94CC0F60E08F2D0E9407
:104190009D0F0A5F1F4F88248394912CF2E0AF1685
:1041A000B10419F660E080E40E94CC0F60E08FE378
:1041B0000E94CC0F61E082E10E94CC0F61E081E1BE
:1041C0000E94CC0F80E197E2A0E0B0E08093E4048D
:1041D0009093E504A093E604B093E7040E94401096
:1041E0006093E0047093E1048093E2049093E3040D
:1041F00082E390E0A0E0B0E08093B8059093B90529
:10420000A093BA05B093BB050E9440106093B4051B
:104210007093B5058093B6059093B7058EED93E046
:10422000A0E0B0E08093C0059093C105A093C205C3
:10423000B093C3050E9440106093BC057093BD0508
:104240008093BE059093BF0580E69AEEA0E0B0E0B3
:104250008093C9059093CA05A093CB05B093CC0574
:104260000E9440106093C5057093C6058093C705F2
:104270009093C8056AE1E62E62E0F62E00E010E0B9
:10428000AA24A394B12CD701DC90B2E0EB0EF11C70
:1042900060E08D2D0E94CC0F8D2D0E94750F892B13
:1042A00089F42091460430914704C501002E02C0D4
:1042B000880F991F0A94E2F7822B932B909347045F
:1042C000809346040F5F1F4F04301105E1F660E054
:1042D0008AE30E94CC0F8AE30E94750F892B39F480
:1042E00081E090E090938F0380938E0304C010923E
:1042F0008F0310928E0360E08BE30E94CC0F8BE360
:104300000E94750F892BA9F480E09BE4A0E0B0E047
:104310008093040290930502A0930602B0930702D3
:104320008EE190E0909303028093020284EF91E08B
:1043300014C080E092ECA1E0B0E08093040290937E
:104340000502A0930602B09307028AE090E09093E2
:1043500003028093020284E190E090930102809333
:10436000000260914604709147044AE0CE01019634
:104370000E94360EBE016F5F7F4F81EE9BE00E9470
:10438000C90DCE0101960E94020E60914604709103
:1043900047044AE0CE0101960E94360E65ED7BE0AF
:1043A000CE0182960E94610EBE016F5F7F4FCE01EB
:1043B00082960E948E0DBC018BED9BE00E94B40D95
:1043C000CE0182960E94020ECE0101960E94020E3C
:1043D00080918E0390918F03892B09F445C28091BF
:1043E00046049DEE980F90930F0290EC9093250C4D
:1043F00098EA9093260C96E99093270C8A5680931E
:10440000280C8091EE03811107C083ED93E00E9498
:10441000C11781E08093EE0380E993E090939407C5
:10442000809393070E94ED1880E590E00E947B0244
:1044300046E050E06AE072E089E090E00E94C4103B
:104440008EE393E09A8389831B821C821D821E82E5
:10445000CE0103960E9473020E947A020091930794
:1044600010919407F80112A213A214A215A216A289
:1044700017A210A611A612A613A614A615A680E6CA
:104480009AEEA0E0B0E086AB97ABA0AFB1AF80EA08
:104490009FE0A0E0B0E082AF93AFA4AFB5AFD8018A
:1044A000189686E0FD01282F11922A95E9F79801C8
:1044B000225F3F4F94E1F90111929A95E9F7EAE002
:1044C000F2E001900D928A95E1F77801F2E4EF0EA7
:1044D000F11CD7011C920E94D5332FEC37E040E04D
:1044E00050E00E94E237DC01CB010196A11DB11D15
:1044F000F80184839583A683B78380839183A28305
:10450000B3835801F3E4AF0EB11CC5010E94141728
:1045100064E470E0C5010E942817811115C08EE384
:1045200093E09A8389838091250C9091260CA09129
:10453000270CB091280C8B839C83AD83BE83CE0166
:1045400001960E946F1984C10E9440102B013C010A
:10455000812C912CD12C43E0342E52E0C52ED70172
:104560008C91833009F404C1811121C0F801848148
:104570009581A681B7810196A11DB11D8483958384
:10458000A683B7830E9440106419750986099709AC
:1045900028EE33E040E050E00E940E38A90161E0CF
:1045A000C8010E94BF0681E0D7018C93C3C084304C
:1045B00001F5F80184819581A681B7810196A11D3D
:1045C000B11D84839583A683B7830E94401064192C
:1045D00075098609970928EE33E040E050E00E9413
:1045E0000E38A90163E0C8010E94BF06D701CC9232
:1045F000A1C0813061F5F80142AD53AD64AD75AD38
:104600009E012F5F3F4FC8010E94F904D82EF2E0AF
:104610008F1390C089819A81AB81BC81F80184831A
:104620009583A683B7830E94401064197509860993
:10463000970928EE33E040E050E00E940E38A901CF
:1046400063E0C8010E94BF06D701DC9279C08230C6
:1046500009F070C0F80142AD53AD64AD75AD9E0177
:104660002F5F3F4FC8010E94F904D82EF5E08F1349
:104670005BC0D7013C92F80182A193A1A4A1B5A18E
:10468000892B8A2B8B2B41F424E833E040E050E067
:1046900022A333A344A355A3F80186A197A1A0A503
:1046A000B1A5892B8A2B8B2B61F482A193A1A4A1A4
:1046B000B5A1B695A7959795879586A397A3A0A72B
:1046C000B1A7F80182A593A5A4A5B5A5892B8A2B2E
:1046D0008B2BA9F482A193A1A4A1B5A1AC01BD012A
:1046E00023E076956795579547952A95D1F7841BD2
:1046F000950BA60BB70B82A793A7A4A7B5A7F801A4
:1047000086A197A1A0A5B1A586A797A7A0ABB1AB9D
:1047100082A593A5A4A5B5A582AB93ABA4ABB5AB7D
:1047200088248394912C0CC0F6E08F1303C0D7012A
:104730001C9206C0BFEFDB1203C0F7011082D12C20
:10474000F1E08F16910409F40ACF0E944010DC01B9
:10475000CB0184199509A609B709F80126A937A93B
:1047600040AD51AD281739074A075B0708F0F7CE6F
:10477000C5010E941417F80184819581A681B78133
:104780000196A11DB11D84839583A683B7830E94E2
:104790004010F801FE966083718382839383F1E079
:1047A0008F16910409F051C080E590E00E947B02D1
:1047B0006091930770919407625F7F4FCE010196DD
:1047C0000E94C10ECE0103960E947302609193076E
:1047D000709194076A5E7F4FCE0101960E94C10ED0
:1047E00044E050E0BE016D5F7F4F81E090E00E94A9
:1047F000C41060919307709194076E5E7F4FCE0155
:1048000001960E94C10E44E050E0BE016D5F7F4FF3
:1048100085E090E00E94C4100E947A0260919307A4
:1048200070919407625E7F4FCE0101960E94C10E87
:104830008B819C81AD81BE8180938F07909390077F
:10484000A0939107B093920703C0892809F467CE1B
:104850006CE97DEA82E09CE00E94281762E079ED35
:1048600087EE9BE00E9428178CE3EFEBF7E0DF0177
:104870001D928A95E9F7C0900402D0900502E0905D
:104880000602F0900702B701A6018DE496E00E94AF
:10489000451CC114B2ECDB06B1E0EB06F10429F4CF
:1048A00084E190E0A0E0B0E004C084EF91E0A0E0FB
:1048B000B0E08093510690935206A0935306B093B4
:1048C000540661E080E10E94CC0F60E080E10E942C
:1048D0009D0F06EF13E02BE0922EC12CD12C8824E3
:1048E00083943EE0732E78018091BE07811171C0E0
:1048F00081EB97E00E948908811107C01092BC07E4
:104900001092BE071092BD07F6C040E060EF81EB49
:1049100097E00E941D08AA24A394612C512CBB246B
:10492000B39481EB97E00E94CA07682F81EB97E070
:10493000E6966FAFE6970E94CA07E6966FADE697D8
:10494000613019F48130C9F438C0262D30E0681385
:104950001EC08091BC07B81638F4F901EF54F84F27
:1049600083818A2151F402C0B81639F060E048E032
:104970004B1560F0B092BD0709C0E62DF0E0EF5492
:10498000F84F83818A29838361E009C05B2CF90198
:10499000EF54F84F93818A2D80958923838381EB8F
:1049A00097E00E94EE07B394AA0C19F46394AA242A
:1049B000A39457E0561508F0B4CF80E48B1548F463
:1049C0005092BC0751100C94A4308092BE070C94F6
:1049D000A4301092BC071092BE071092BD0780E071
:1049E000A4EBB7E0580198E0A90EB11CF8019D9125
:1049F0009193EA15FB05D9F7882309F47CC088E078
:104A0000E0E0815049F0D8019D918D01E927F0E067
:104A1000EA57FD4FE491F5CF21E030E0EE2311F0AD
:104A200020E030E0F701878190E02817390709F48A
:104A30005EC080818632B1F4F8E0DF9EA0011124CF
:104A400080E090E0FC01E40FF51FEF5AFA4FD70128
:104A5000A80FB91F2C91208301968830910591F7FA
:104A6000D39445C028E0C29EA001112480E090E0CC
:104A7000FC01E40FF51FE050FB4FD701A80FB91F51
:104A80002C91208301968830910591F7C394E1EB36
:104A9000F7E0DE01DE96872D01900D928A95E1F711
:104AA000CE01CE960E948908B701CE01CE960E9413
:104AB0005E0840E06EE4CE01CE960E941D0840E004
:104AC00060E0CE01CE960E941D0840E060E0CE017D
:104AD000CE960E941D0840E06FE5CE01CE960E9462
:104AE0001D0840E068E4CE01CE960E941D089A940D
:104AF00085019110F8CED092A105C0925005212CCD
:104B0000312C210123940E944010E5967FAF6EAFB7
:104B1000E59718E4A12E14E0B12E26E232E0E396E8
:104B20003FAF2EAFE39708E7E02E04E0F02E88EACF
:104B3000682E84E0782E01E010E0480131E0831A0D
:104B40009108D3012D913C91F701C080D180E3966B
:104B5000AEADBFADE3978C911296E396BFAFAEAF0B
:104B6000E397E6962FAFE697E7963FAFE7970E9469
:104B7000750FE6962FADE697E7963FADE7972C15B4
:104B80003D0509F49AC0C816D90621F0F7019183B2
:104B90008083A0C0D5018D919C91E5962EAD3FAD4F
:104BA000E597281B390B263031050CF493C094018E
:104BB000A3E035952795AA95E1F748EF4203C00198
:104BC000439F900D1124880E991ED301CD92DC9243
:104BD0002B5F3F4F220F331FF901E154F84FCD28CF
:104BE00041F5B201A10104C0440F551F661F771F94
:104BF0008A94D2F780819181842B952B9183808335
:104C00004AE0B801CE01845B9F4F0E94360E6FECE4
:104C10007BE0CE01875A9F4F0E94610EBE01645B0C
:104C20007F4FCE01875A9F4F0E948E0D6FE473E035
:104C30002AC0D201C10104C0880F991FAA1FBB1F3F
:104C40008A94D2F79C0120953095808191818223AE
:104C50009323918380834AE0B801CE01845B9F4F08
:104C60000E94360E6FEC7BE0CE01875A9F4F0E9468
:104C7000610EBE01645B7F4FCE01875A9F4F0E9439
:104C80008E0D62E573E00E94770DBC01CE010196A6
:104C90000E94610ECE0101960E94BF08CE010196CE
:104CA0000E94020ECE01875A9F4F0E94020ECE0133
:104CB000845B9F4F0E94020E0DC02817390751F0E8
:104CC000F70191838083E5962EAD3FADE597D50141
:104CD0002D933C930F5F1F4F32E0630E711C42E037
:104CE000E40EF11C52E0A50EB11C0931110509F0CA
:104CF00024CF80EE94E00E94B00981110EC061E6DD
:104D000073E0CE01875A9F4F0E94690EFAE5EF2E9D
:104D1000F2E0FF2E00E010E0C0C080E197E2A0E0EA
:104D2000B0E08093E4049093E504A093E604B0938C
:104D3000E7040E9440106093E0047093E1048093C4
:104D4000E2049093E30466E5C62E62E0D62E78ED89
:104D5000E72E74E0F72E0FEB17E0AA24A394B12CF2
:104D6000D6018C91B2E0CB0ED11C863308F086536D
:104D700090917B00282F2870977F922B90937B0037
:104D80008770806480937C0080917A008064809337
:104D90007A0080917A0086FDFCCF60917800809146
:104DA000790070E0782B072E000C880B990B0E947D
:104DB000CC3620ED3FE34FE75EE30E942B373B010B
:104DC0004C01F7012081318142815381D7016D93DC
:104DD0007D938D939D937D010E94C636882309F4AF
:104DE00051C0C401B3010E94A738862F90E0F8019A
:104DF000918B808B70E080E090E00E94CA36AB011E
:104E0000BC0122E0CE01845B9F4F0E94070E4AE066
:104E1000B501CE01875A9F4F0E94360E69EC7BE0A8
:104E2000CE01815A9F4F0E94610EBE01675A7F4F8B
:104E3000CE01815A9F4F0E948E0D67E573E00E945C
:104E4000770DBE01645B7F4F0E948E0DBC01CE01C9
:104E500001960E94610ECE0101960E94BF08CE010C
:104E600001960E94020ECE01815A9F4F0E94020EAF
:104E7000CE01875A9F4F0E94020ECE01845B9F4F46
:104E80000E94020E0E5F1F4FF2E0AF16B10409F44C
:104E900036CF52E0A52EB12C63CF083011057CF43B
:104EA0006091BF077091C007002E02C0769567958C
:104EB0000A94E2F761707727D7018C910FC0609157
:104EC000C1077091C207C801089702C0769567951F
:104ED0008A95E2F761707727F70180810E949D0F24
:104EE0000F5F1F4FF2E0EF0EF11C0C301105A9F619
:104EF00042E7E42E42E0F42E00E010E0D7018C916E
:104F0000B2E0EB0EF11C6091C3077091C407002E54
:104F100002C0769567950A94E2F7617077270E9440
:104F20009D0F0F5F1F4F0430110541F73AE7E32E45
:104F300032E0F32E00E010E0F7018081F2E0EF0EA6
:104F4000F11C98012C5F3F4F6091C3077091C4071B
:104F500002C0769567952A95E2F7617077270E94DF
:104F60009D0F0F5F1F4F0430110531F795ECC92ECF
:104F700097E0D92E22E8E22E22E0F22ED6010D9102
:104F80001D916D01F701A190B1907F0161E08A2D23
:104F90000E94CC0F0115110509F4B1C00F3F110596
:104FA00009F4AFC0F501FF27EA5DFD4FE4918E2FB4
:104FB00090E0FC013197E231F10508F09DC08827AF
:104FC000EE58FF4F8F4F0C94D33884B5806884BD62
:104FD00007BD9BC084B5806284BD08BD96C080912A
:104FE000800080688093800010938900009388007F
:104FF0008CC08091800080628093800010938B0031
:1050000000938A0082C08091800088608093800035
:1050100010938D0000938C0078C08091B000806860
:105020008093B0000093B30070C08091B0008062A4
:105030008093B0000093B40068C0809190008068B5
:105040008093900010939900009398005EC0809127
:10505000900080628093900010939B0000939A00D0
:1050600054C08091900088608093900010939D00C0
:1050700000939C004AC08091A00080688093A000AB
:105080008091A0008F7B8093A0001093A9000093D3
:10509000A8003BC08091A00080628093A000109384
:1050A000AB000093AA0031C08091A000886080937B
:1050B000A0001093AD000093AC0027C080912001A8
:1050C00080688093200110932901009328011DC05E
:1050D0008091200180628093200110932B01009326
:1050E0002A0113C0809120018860809320011093D1
:1050F0002D0100932C0109C00038110514F460E063
:1051000001C061E08A2D0E949D0FF6E8EF16F2E0E3
:10511000FF0609F033CF8091D30780FF2FC0E0E076
:10512000F0E019952BC08A30910599F02D968FAF3C
:105130002D972E961FAE2E9741E050E0BE01645B86
:105140007F4FCE0101960E944A0D0E940A1E97FFD2
:10515000EACFBE016F5F7F4FCE01875A9F4F0E94FB
:10516000C90DCE0101960E94020E6BED7BE0CE01CF
:10517000875A9F4F0E94FD0C811146C08DE496E036
:105180000E944C0A181619063CF461E673E0CE0141
:1051900001960E94690ED9CF80918E0390918F0362
:1051A000892B09F4CDC182E09CE00E948816892BEE
:1051B00009F4C6C188E1E8EEF4E0DF011D928A95AA
:1051C000E9F748E150E0BF0182E09CE00E946C02F8
:1051D00068EE74E0CE0101960E94690EBE016F5F19
:1051E0007F4FCE01875A9F4F0E94C90DCE01019675
:1051F0000E94020E6BED7BE0CE01875A9F4F0E940A
:10520000FD0C882309F49CC161E673E0CE01019690
:105210000E94690EBE016F5F7F4FCE01875A9F4F7C
:105220000E94BA1CCE0101960E94020ECE01875A3E
:105230009F4F0E949E0C61E081E10E949D0F63ECF4
:105240007BE0CE01875A9F4F0E94FD0C882309F412
:105250005CC000E010E0E12CF12CB8E0EB16F104AA
:105260001CF4DE2CC12C05C088EFD82EDE0CCC241B
:10527000C394B801695A744FCE01875A9F4F0E9458
:10528000180D8823B1F0EC2DF0E0EE0FFF1FE15474
:10529000F84FB201A10104C0440F551F661F771FCC
:1052A000DA94D2F780819181482B592B5183408326
:1052B00021C0B801615F744FCE01875A9F4F0E9491
:1052C000180D8823B9F0EC2DF0E0EE0FFF1FE1542C
:1052D000F84FD201C10104C0880F991FAA1FBB1F3C
:1052E000DA94D2F78095909520813181822393239F
:1052F00091838083EFEFEE1AFE0A0A5F1F4FFCE0F6
:10530000EF16F10409F0A9CF17C16DEB7BE0CE01D8
:10531000875A9F4F0E94FD0C882309F44AC0E12C54
:10532000F12C00E010E0B7016950754FCE01875AAB
:105330009F4F0E94180D882389F02091C307309158
:10534000C407D201C101002E04C0880F991FAA1FF3
:10535000BB1F0A94D2F7822B932B1CC0B70161525A
:10536000754FCE01875A9F4F0E94180D8823B1F0C8
:10537000D201C101002E04C0880F991FAA1FBB1FB4
:105380000A94D2F7809590952091C3073091C40775
:10539000822393239093C4078093C3070F5F1F4F0B
:1053A00026E0E20EF11C38E1E316F10409F0BBCF70
:1053B000C3C067EB7BE0CE01875A9F4F0E94FD0C74
:1053C000882309F44AC004E010E0E12CF12CB70175
:1053D0006953754FCE01875A9F4F0E94180D88233D
:1053E00089F02091C3073091C407D201C101002E7A
:1053F00004C0880F991FAA1FBB1F0A94D2F7822BE3
:10540000932B1CC0B7016155754FCE01875A9F4F32
:105410000E94180D8823B1F0D201C101002E04C0F2
:10542000880F991FAA1FBB1F0A94D2F780959095E9
:105430002091C3073091C407822393239093C4071C
:105440008093C30746E0E40EF11C0F5F1F4F58E145
:10545000E516F10409F0BBCF6FC061EB7BE0CE0134
:10546000875A9F4F0E94FD0C882309F453C06F9602
:105470002EAD3FAD6F974091B50B5091B60B4E5F7F
:105480005F4FBE01675A7F4FCE01845B9F4F0E94E2
:105490007D0E0FEB17E0F3E1EF2EFAE0FF2E2091E7
:1054A000B50B3091B60B2F5F3F4F40E050E0BE018F
:1054B000675A7F4FCE0101960E947D0EB701CE0143
:1054C00001960E94180DD82ECE0101960E94020E60
:1054D000DD2089F02E968EAD9FAD2E97009719F0A6
:1054E0000E94E13303C060E070E0CB01D801179661
:1054F0007C936E931697B6E0EB0EF11C0E5F1F4F78
:10550000E7E0033C1E0759F6CE01845B9F4F0E94E3
:10551000020E12C065EA7BE0CE01875A9F4F0E94BF
:10552000FD0C882349F08091D3079091D4078160C6
:105530009093D4078093D30760E081E10E949D0F90
:10554000CE01875A9F4F0E94020E1091B305113071
:1055500009F43FC038F0123009F4F6C1133009F4F1
:1055600027C2BAC28BEA95E00E94B009882309F4E9
:10557000B3C280E395E7A0E0B0E08093AF059093DD
:10558000B005A093B105B093B2050E94401060939E
:10559000AB057093AC058093AD059093AE0588E89C
:1055A00093E1A0E0B0E08093A7059093A805A093B5
:1055B000A905B093AA050E9440106093A3057093BB
:1055C000A4058093A5059093A6051092A20581E0FD
:1055D000ECC183EA95E00E94B009882309F47CC2FB
:1055E0008091A2059091A105891708F0A9C197E0C3
:1055F00090939F071092A0071092A1071092A20704
:105600001092A3071092A4071092A5071092A60764
:105610001092A7071092A8071092A9071092AA0744
:105620001092AB071093B0071092AC071092AD0721
:105630001092AE071092AF07F8E08F9FC0011124BF
:105640008F5A9A4F90939E0780939D070E94401017
:105650006093AC077093AD078093AE079093AF074C
:1056600010919F0710FD03C0143009F060C06091D5
:105670009D0770919E0780E090E00E94BF1B8823E9
:1056800009F4BEC012FB112710F9812F0E947C1B68
:10569000882309F4B5C060919D0770919E07CE01E3
:1056A00001960E94E91A882309F4AAC01123F9F08F
:1056B0006B8170E0762F66278A81682BE3E0759511
:1056C0006795EA95E1F7072E000C880B990B0E946D
:1056D000CC3620E030E040E05DE30E942B37609361
:1056E000A0077093A1078093A2079093A3078091CE
:1056F0009F0780FF1CC06D8170E0762F66276627AC
:1057000073708C81682B072E000C880B990B0E94FC
:10571000CC3620E030E048EC52E40E943F38609301
:10572000A4077093A5078093A6079093A70780917D
:105730009F0781FF63C082FF04C08095182F1170FE
:1057400001C010E060919D0770919E0781E090E09C
:105750000E94BF1B882309F453C0812F0E947C1B29
:10576000882309F44DC060919D0770919E07CE017A
:1057700001960E94E91A882309F442C01123F9F026
:105780006B8170E0762F66278A81682B33E07595F0
:1057900067953A95E1F7072E000C880B990B0E944C
:1057A000CC3620E030E040E05DE30E942B37609390
:1057B000A0077093A1078093A2079093A3076F811E
:1057C00070E0762F66278E81682B77FF03C0719576
:1057D00061957109072E000C880B990B0E94CC363D
:1057E00020E030E040E859E30E942B376093A8079F
:1057F0007093A9078093AA079093AB071092B00704
:105800008091B007811196C04091A8075091A907D7
:105810006091AA077091AB0722E0CE01845B9F4F95
:105820000E94070E4091A4075091A5076091A6071A
:105830007091A70722E0CE01875A9F4F0E94070E62
:105840006091A0077091A1078091A2079091A30792
:10585000A1961FAE1EAEA197A3961FAE1EAEA39734
:10586000A5961FAE1EAEA5978E010F5F1F4F22E0BB
:1058700044E033D7BC01CE01815A9F4F0E949F0D57
:105880006091A20528E0629FB00111246F5A7A4FFF
:10589000CE018B599F4F0E94650965E573E0CE01EB
:1058A00085599F4F0E94690EBE016B597F4FCE01F3
:1058B00085599F4F0E948E0D67E573E00E94770D1A
:1058C000BE01615A7F4F0E948E0D67E573E00E9412
:1058D000770DBE01675A7F4F0E948E0D67E573E01A
:1058E0000E94770DBE01645B7F4F0E948E0DBC014C
:1058F000C8010E94610EC8010E94BF08C8010E9431
:10590000020ECE0185599F4F0E94020ECE018B5987
:105910009F4F0E94020ECE01815A9F4F0E94020E9D
:10592000CE01875A9F4F0E94020ECE01845B9F4F8B
:105930000E94020E8091A2058F5F8093A205CCC0C9
:105940001092A20582E031C083EA95E00E94B0097E
:10595000882309F4C1C01091A20580915005181741
:1059600008F58EE0E1EBF7E0DE01D09601900D92B4
:105970008A95E1F7CE01C0960E94890838E0139F0E
:10598000B001112460507B4FCE01C0960E945E088A
:1059900041E064E4CE01C0960E941D081F5F109391
:1059A000A2059AC01092A20583E08093B30594C02B
:1059B00083EA95E00E94B009882309F48DC0109114
:1059C000A20580915005181708F084C08EE0E1EB25
:1059D000F7E0DE01929601900D928A95E1F7CE01F3
:1059E00082960E94890848E0149FB00111246050FB
:1059F0007B4FCE0182960E945E0840E06EEBCE01A6
:105A000082960E941D088E010F5F1F4F7E015AE093
:105A1000E50EF11C580188E0C82ED12C882483940F
:105A2000912CCE0182960E94CA0781119828880C79
:105A300081E0C81AD108A9F7D8019D928D01AE1551
:105A4000BF0549F76A8170E0762F66278981682B48
:105A5000072E000C880B990B0E94CC3620E030E01A
:105A600040E85DE30E942B37AB01BC0122E0CE0190
:105A7000845B9F4F0E94070E6091A205B8E06B9F68
:105A8000B001112460507B4FCE01875A9F4F0E9476
:105A9000650965E573E0CE01815A9F4F0E94690E4A
:105AA000BE01675A7F4FCE01815A9F4F0E948E0DD3
:105AB00067E573E00E94770DBE01645B7F4F0E9433
:105AC0008E0DBC01C5010E94610EC5010E94BF0878
:105AD000C5011FCF1092B3058CEB95E00E94B00971
